{
	"contracts/10_votingsystem.sol": {
		"ChainVotingContract": {
			"abi": [
				{
					"inputs": [],
					"stateMutability": "nonpayable",
					"type": "constructor"
				},
				{
					"inputs": [
						{
							"internalType": "address",
							"name": "",
							"type": "address"
						}
					],
					"name": "candidates",
					"outputs": [
						{
							"internalType": "address",
							"name": "candidateAddress",
							"type": "address"
						},
						{
							"internalType": "string",
							"name": "name",
							"type": "string"
						},
						{
							"internalType": "bool",
							"name": "hasVoted",
							"type": "bool"
						},
						{
							"internalType": "bool",
							"name": "isRegistered",
							"type": "bool"
						}
					],
					"stateMutability": "view",
					"type": "function"
				},
				{
					"inputs": [],
					"name": "giveYourVote",
					"outputs": [],
					"stateMutability": "nonpayable",
					"type": "function"
				},
				{
					"inputs": [
						{
							"internalType": "address",
							"name": "_candidate",
							"type": "address"
						},
						{
							"internalType": "string",
							"name": "_name",
							"type": "string"
						}
					],
					"name": "registerCandidate",
					"outputs": [],
					"stateMutability": "nonpayable",
					"type": "function"
				},
				{
					"inputs": [],
					"name": "totalVotes",
					"outputs": [
						{
							"internalType": "uint256",
							"name": "",
							"type": "uint256"
						}
					],
					"stateMutability": "view",
					"type": "function"
				},
				{
					"inputs": [],
					"name": "votingDeadline",
					"outputs": [
						{
							"internalType": "uint256",
							"name": "",
							"type": "uint256"
						}
					],
					"stateMutability": "view",
					"type": "function"
				},
				{
					"inputs": [],
					"name": "votingHost",
					"outputs": [
						{
							"internalType": "address",
							"name": "",
							"type": "address"
						}
					],
					"stateMutability": "view",
					"type": "function"
				}
			],
			"devdoc": {
				"kind": "dev",
				"methods": {},
				"version": 1
			},
			"evm": {
				"assembly": "    /* \"contracts/10_votingsystem.sol\":60:1397  contract ChainVotingContract {... */\n  mstore(0x40, 0x80)\n    /* \"contracts/10_votingsystem.sol\":390:527  constructor() {... */\n  callvalue\n  dup1\n  iszero\n  tag_1\n  jumpi\n  0x00\n  dup1\n  revert\ntag_1:\n  pop\n    /* \"contracts/10_votingsystem.sol\":428:438  msg.sender */\n  caller\n    /* \"contracts/10_votingsystem.sol\":415:425  votingHost */\n  0x00\n  dup1\n    /* \"contracts/10_votingsystem.sol\":415:438  votingHost = msg.sender */\n  0x0100\n  exp\n  dup2\n  sload\n  dup2\n  0xffffffffffffffffffffffffffffffffffffffff\n  mul\n  not\n  and\n  swap1\n  dup4\n  0xffffffffffffffffffffffffffffffffffffffff\n  and\n  mul\n  or\n  swap1\n  sstore\n  pop\n    /* \"contracts/10_votingsystem.sol\":484:487  300 */\n  0x012c\n    /* \"contracts/10_votingsystem.sol\":466:481  block.timestamp */\n  timestamp\n    /* \"contracts/10_votingsystem.sol\":466:487  block.timestamp + 300 */\n  tag_4\n  swap2\n  swap1\n  tag_5\n  jump\t// in\ntag_4:\n    /* \"contracts/10_votingsystem.sol\":449:463  votingDeadline */\n  0x02\n    /* \"contracts/10_votingsystem.sol\":449:487  votingDeadline = block.timestamp + 300 */\n  dup2\n  swap1\n  sstore\n  pop\n    /* \"contracts/10_votingsystem.sol\":60:1397  contract ChainVotingContract {... */\n  jump(tag_6)\n    /* \"#utility.yul\":7:84   */\ntag_7:\n    /* \"#utility.yul\":44:51   */\n  0x00\n    /* \"#utility.yul\":73:78   */\n  dup2\n    /* \"#utility.yul\":62:78   */\n  swap1\n  pop\n    /* \"#utility.yul\":7:84   */\n  swap2\n  swap1\n  pop\n  jump\t// out\n    /* \"#utility.yul\":90:270   */\ntag_8:\n    /* \"#utility.yul\":138:215   */\n  0x4e487b7100000000000000000000000000000000000000000000000000000000\n    /* \"#utility.yul\":135:136   */\n  0x00\n    /* \"#utility.yul\":128:216   */\n  mstore\n    /* \"#utility.yul\":235:239   */\n  0x11\n    /* \"#utility.yul\":232:233   */\n  0x04\n    /* \"#utility.yul\":225:240   */\n  mstore\n    /* \"#utility.yul\":259:263   */\n  0x24\n    /* \"#utility.yul\":256:257   */\n  0x00\n    /* \"#utility.yul\":249:264   */\n  revert\n    /* \"#utility.yul\":276:581   */\ntag_5:\n    /* \"#utility.yul\":316:319   */\n  0x00\n    /* \"#utility.yul\":335:355   */\n  tag_13\n    /* \"#utility.yul\":353:354   */\n  dup3\n    /* \"#utility.yul\":335:355   */\n  tag_7\n  jump\t// in\ntag_13:\n    /* \"#utility.yul\":330:355   */\n  swap2\n  pop\n    /* \"#utility.yul\":369:389   */\n  tag_14\n    /* \"#utility.yul\":387:388   */\n  dup4\n    /* \"#utility.yul\":369:389   */\n  tag_7\n  jump\t// in\ntag_14:\n    /* \"#utility.yul\":364:389   */\n  swap3\n  pop\n    /* \"#utility.yul\":523:524   */\n  dup3\n    /* \"#utility.yul\":455:521   */\n  0xffffffffffffffffffffffffffffffffffffffffffffffffffffffffffffffff\n    /* \"#utility.yul\":451:525   */\n  sub\n    /* \"#utility.yul\":448:449   */\n  dup3\n    /* \"#utility.yul\":445:526   */\n  gt\n    /* \"#utility.yul\":442:549   */\n  iszero\n  tag_15\n  jumpi\n    /* \"#utility.yul\":529:547   */\n  tag_16\n  tag_8\n  jump\t// in\ntag_16:\n    /* \"#utility.yul\":442:549   */\ntag_15:\n    /* \"#utility.yul\":573:574   */\n  dup3\n    /* \"#utility.yul\":570:571   */\n  dup3\n    /* \"#utility.yul\":566:575   */\n  add\n    /* \"#utility.yul\":559:575   */\n  swap1\n  pop\n    /* \"#utility.yul\":276:581   */\n  swap3\n  swap2\n  pop\n  pop\n  jump\t// out\n    /* \"contracts/10_votingsystem.sol\":60:1397  contract ChainVotingContract {... */\ntag_6:\n  dataSize(sub_0)\n  dup1\n  dataOffset(sub_0)\n  0x00\n  codecopy\n  0x00\n  return\nstop\n\nsub_0: assembly {\n        /* \"contracts/10_votingsystem.sol\":60:1397  contract ChainVotingContract {... */\n      mstore(0x40, 0x80)\n      callvalue\n      dup1\n      iszero\n      tag_1\n      jumpi\n      0x00\n      dup1\n      revert\n    tag_1:\n      pop\n      jumpi(tag_2, lt(calldatasize, 0x04))\n      shr(0xe0, calldataload(0x00))\n      dup1\n      0x0354d7bb\n      eq\n      tag_3\n      jumpi\n      dup1\n      0x036ee850\n      eq\n      tag_4\n      jumpi\n      dup1\n      0x0d15fd77\n      eq\n      tag_5\n      jumpi\n      dup1\n      0x5ba55a77\n      eq\n      tag_6\n      jumpi\n      dup1\n      0x8ab66a90\n      eq\n      tag_7\n      jumpi\n      dup1\n      0xb0d30d2f\n      eq\n      tag_8\n      jumpi\n    tag_2:\n      0x00\n      dup1\n      revert\n        /* \"contracts/10_votingsystem.sol\":238:263  address public votingHost */\n    tag_3:\n      tag_9\n      tag_10\n      jump\t// in\n    tag_9:\n      mload(0x40)\n      tag_11\n      swap2\n      swap1\n      tag_12\n      jump\t// in\n    tag_11:\n      mload(0x40)\n      dup1\n      swap2\n      sub\n      swap1\n      return\n        /* \"contracts/10_votingsystem.sol\":299:325  uint public votingDeadline */\n    tag_4:\n      tag_13\n      tag_14\n      jump\t// in\n    tag_13:\n      mload(0x40)\n      tag_15\n      swap2\n      swap1\n      tag_16\n      jump\t// in\n    tag_15:\n      mload(0x40)\n      dup1\n      swap2\n      sub\n      swap1\n      return\n        /* \"contracts/10_votingsystem.sol\":270:292  uint public totalVotes */\n    tag_5:\n      tag_17\n      tag_18\n      jump\t// in\n    tag_17:\n      mload(0x40)\n      tag_19\n      swap2\n      swap1\n      tag_16\n      jump\t// in\n    tag_19:\n      mload(0x40)\n      dup1\n      swap2\n      sub\n      swap1\n      return\n        /* \"contracts/10_votingsystem.sol\":1013:1394  function giveYourVote() public {... */\n    tag_6:\n      tag_20\n      tag_21\n      jump\t// in\n    tag_20:\n      stop\n        /* \"contracts/10_votingsystem.sol\":334:381  mapping(address => Candidate) public candidates */\n    tag_7:\n      tag_22\n      0x04\n      dup1\n      calldatasize\n      sub\n      dup2\n      add\n      swap1\n      tag_23\n      swap2\n      swap1\n      tag_24\n      jump\t// in\n    tag_23:\n      tag_25\n      jump\t// in\n    tag_22:\n      mload(0x40)\n      tag_26\n      swap5\n      swap4\n      swap3\n      swap2\n      swap1\n      tag_27\n      jump\t// in\n    tag_26:\n      mload(0x40)\n      dup1\n      swap2\n      sub\n      swap1\n      return\n        /* \"contracts/10_votingsystem.sol\":643:1005  function registerCandidate(address _candidate, string memory _name) public onlyHost {... */\n    tag_8:\n      tag_28\n      0x04\n      dup1\n      calldatasize\n      sub\n      dup2\n      add\n      swap1\n      tag_29\n      swap2\n      swap1\n      tag_30\n      jump\t// in\n    tag_29:\n      tag_31\n      jump\t// in\n    tag_28:\n      stop\n        /* \"contracts/10_votingsystem.sol\":238:263  address public votingHost */\n    tag_10:\n      0x00\n      dup1\n      sload\n      swap1\n      0x0100\n      exp\n      swap1\n      div\n      0xffffffffffffffffffffffffffffffffffffffff\n      and\n      dup2\n      jump\t// out\n        /* \"contracts/10_votingsystem.sol\":299:325  uint public votingDeadline */\n    tag_14:\n      sload(0x02)\n      dup2\n      jump\t// out\n        /* \"contracts/10_votingsystem.sol\":270:292  uint public totalVotes */\n    tag_18:\n      sload(0x01)\n      dup2\n      jump\t// out\n        /* \"contracts/10_votingsystem.sol\":1013:1394  function giveYourVote() public {... */\n    tag_21:\n        /* \"contracts/10_votingsystem.sol\":1055:1088  Candidate storage senderCandidate */\n      0x00\n        /* \"contracts/10_votingsystem.sol\":1091:1101  candidates */\n      0x03\n        /* \"contracts/10_votingsystem.sol\":1091:1113  candidates[msg.sender] */\n      0x00\n        /* \"contracts/10_votingsystem.sol\":1102:1112  msg.sender */\n      caller\n        /* \"contracts/10_votingsystem.sol\":1091:1113  candidates[msg.sender] */\n      0xffffffffffffffffffffffffffffffffffffffff\n      and\n      0xffffffffffffffffffffffffffffffffffffffff\n      and\n      dup2\n      mstore\n      0x20\n      add\n      swap1\n      dup2\n      mstore\n      0x20\n      add\n      0x00\n      keccak256\n        /* \"contracts/10_votingsystem.sol\":1055:1113  Candidate storage senderCandidate = candidates[msg.sender] */\n      swap1\n      pop\n        /* \"contracts/10_votingsystem.sol\":1134:1149  senderCandidate */\n      dup1\n        /* \"contracts/10_votingsystem.sol\":1134:1162  senderCandidate.isRegistered */\n      0x02\n      add\n      0x01\n      swap1\n      sload\n      swap1\n      0x0100\n      exp\n      swap1\n      div\n      0xff\n      and\n        /* \"contracts/10_votingsystem.sol\":1126:1181  require(senderCandidate.isRegistered, \"Not registered\") */\n      tag_33\n      jumpi\n      mload(0x40)\n      0x08c379a000000000000000000000000000000000000000000000000000000000\n      dup2\n      mstore\n      0x04\n      add\n      tag_34\n      swap1\n      tag_35\n      jump\t// in\n    tag_34:\n      mload(0x40)\n      dup1\n      swap2\n      sub\n      swap1\n      revert\n    tag_33:\n        /* \"contracts/10_votingsystem.sol\":1201:1216  senderCandidate */\n      dup1\n        /* \"contracts/10_votingsystem.sol\":1201:1225  senderCandidate.hasVoted */\n      0x02\n      add\n      0x00\n      swap1\n      sload\n      swap1\n      0x0100\n      exp\n      swap1\n      div\n      0xff\n      and\n        /* \"contracts/10_votingsystem.sol\":1200:1225  !senderCandidate.hasVoted */\n      iszero\n        /* \"contracts/10_votingsystem.sol\":1192:1243  require(!senderCandidate.hasVoted, \"Already voted\") */\n      tag_36\n      jumpi\n      mload(0x40)\n      0x08c379a000000000000000000000000000000000000000000000000000000000\n      dup2\n      mstore\n      0x04\n      add\n      tag_37\n      swap1\n      tag_38\n      jump\t// in\n    tag_37:\n      mload(0x40)\n      dup1\n      swap2\n      sub\n      swap1\n      revert\n    tag_36:\n        /* \"contracts/10_votingsystem.sol\":1281:1295  votingDeadline */\n      sload(0x02)\n        /* \"contracts/10_votingsystem.sol\":1262:1277  block.timestamp */\n      timestamp\n        /* \"contracts/10_votingsystem.sol\":1262:1295  block.timestamp <= votingDeadline */\n      gt\n      iszero\n        /* \"contracts/10_votingsystem.sol\":1254:1319  require(block.timestamp <= votingDeadline, \"Voting period ended\") */\n      tag_39\n      jumpi\n      mload(0x40)\n      0x08c379a000000000000000000000000000000000000000000000000000000000\n      dup2\n      mstore\n      0x04\n      add\n      tag_40\n      swap1\n      tag_41\n      jump\t// in\n    tag_40:\n      mload(0x40)\n      dup1\n      swap2\n      sub\n      swap1\n      revert\n    tag_39:\n        /* \"contracts/10_votingsystem.sol\":1359:1363  true */\n      0x01\n        /* \"contracts/10_votingsystem.sol\":1332:1347  senderCandidate */\n      dup2\n        /* \"contracts/10_votingsystem.sol\":1332:1356  senderCandidate.hasVoted */\n      0x02\n      add\n      0x00\n        /* \"contracts/10_votingsystem.sol\":1332:1363  senderCandidate.hasVoted = true */\n      0x0100\n      exp\n      dup2\n      sload\n      dup2\n      0xff\n      mul\n      not\n      and\n      swap1\n      dup4\n      iszero\n      iszero\n      mul\n      or\n      swap1\n      sstore\n      pop\n        /* \"contracts/10_votingsystem.sol\":1374:1384  totalVotes */\n      0x01\n      0x00\n        /* \"contracts/10_votingsystem.sol\":1374:1386  totalVotes++ */\n      dup2\n      sload\n      dup1\n      swap3\n      swap2\n      swap1\n      tag_42\n      swap1\n      tag_43\n      jump\t// in\n    tag_42:\n      swap2\n      swap1\n      pop\n      sstore\n      pop\n        /* \"contracts/10_votingsystem.sol\":1044:1394  {... */\n      pop\n        /* \"contracts/10_votingsystem.sol\":1013:1394  function giveYourVote() public {... */\n      jump\t// out\n        /* \"contracts/10_votingsystem.sol\":334:381  mapping(address => Candidate) public candidates */\n    tag_25:\n      mstore(0x20, 0x03)\n      dup1\n      0x00\n      mstore\n      keccak256(0x00, 0x40)\n      0x00\n      swap2\n      pop\n      swap1\n      pop\n      dup1\n      0x00\n      add\n      0x00\n      swap1\n      sload\n      swap1\n      0x0100\n      exp\n      swap1\n      div\n      0xffffffffffffffffffffffffffffffffffffffff\n      and\n      swap1\n      dup1\n      0x01\n      add\n      dup1\n      sload\n      tag_44\n      swap1\n      tag_45\n      jump\t// in\n    tag_44:\n      dup1\n      0x1f\n      add\n      0x20\n      dup1\n      swap2\n      div\n      mul\n      0x20\n      add\n      mload(0x40)\n      swap1\n      dup2\n      add\n      0x40\n      mstore\n      dup1\n      swap3\n      swap2\n      swap1\n      dup2\n      dup2\n      mstore\n      0x20\n      add\n      dup3\n      dup1\n      sload\n      tag_46\n      swap1\n      tag_45\n      jump\t// in\n    tag_46:\n      dup1\n      iszero\n      tag_47\n      jumpi\n      dup1\n      0x1f\n      lt\n      tag_48\n      jumpi\n      0x0100\n      dup1\n      dup4\n      sload\n      div\n      mul\n      dup4\n      mstore\n      swap2\n      0x20\n      add\n      swap2\n      jump(tag_47)\n    tag_48:\n      dup3\n      add\n      swap2\n      swap1\n      0x00\n      mstore\n      keccak256(0x00, 0x20)\n      swap1\n    tag_49:\n      dup2\n      sload\n      dup2\n      mstore\n      swap1\n      0x01\n      add\n      swap1\n      0x20\n      add\n      dup1\n      dup4\n      gt\n      tag_49\n      jumpi\n      dup3\n      swap1\n      sub\n      0x1f\n      and\n      dup3\n      add\n      swap2\n    tag_47:\n      pop\n      pop\n      pop\n      pop\n      pop\n      swap1\n      dup1\n      0x02\n      add\n      0x00\n      swap1\n      sload\n      swap1\n      0x0100\n      exp\n      swap1\n      div\n      0xff\n      and\n      swap1\n      dup1\n      0x02\n      add\n      0x01\n      swap1\n      sload\n      swap1\n      0x0100\n      exp\n      swap1\n      div\n      0xff\n      and\n      swap1\n      pop\n      dup5\n      jump\t// out\n        /* \"contracts/10_votingsystem.sol\":643:1005  function registerCandidate(address _candidate, string memory _name) public onlyHost {... */\n    tag_31:\n        /* \"contracts/10_votingsystem.sol\":588:598  votingHost */\n      0x00\n      dup1\n      sload\n      swap1\n      0x0100\n      exp\n      swap1\n      div\n      0xffffffffffffffffffffffffffffffffffffffff\n      and\n        /* \"contracts/10_votingsystem.sol\":574:598  msg.sender == votingHost */\n      0xffffffffffffffffffffffffffffffffffffffff\n      and\n        /* \"contracts/10_votingsystem.sol\":574:584  msg.sender */\n      caller\n        /* \"contracts/10_votingsystem.sol\":574:598  msg.sender == votingHost */\n      0xffffffffffffffffffffffffffffffffffffffff\n      and\n      eq\n        /* \"contracts/10_votingsystem.sol\":566:615  require(msg.sender == votingHost, \"UNAUTHORIZED\") */\n      tag_51\n      jumpi\n      mload(0x40)\n      0x08c379a000000000000000000000000000000000000000000000000000000000\n      dup2\n      mstore\n      0x04\n      add\n      tag_52\n      swap1\n      tag_53\n      jump\t// in\n    tag_52:\n      mload(0x40)\n      dup1\n      swap2\n      sub\n      swap1\n      revert\n    tag_51:\n        /* \"contracts/10_votingsystem.sol\":747:757  candidates */\n      0x03\n        /* \"contracts/10_votingsystem.sol\":747:769  candidates[_candidate] */\n      0x00\n        /* \"contracts/10_votingsystem.sol\":758:768  _candidate */\n      dup4\n        /* \"contracts/10_votingsystem.sol\":747:769  candidates[_candidate] */\n      0xffffffffffffffffffffffffffffffffffffffff\n      and\n      0xffffffffffffffffffffffffffffffffffffffff\n      and\n      dup2\n      mstore\n      0x20\n      add\n      swap1\n      dup2\n      mstore\n      0x20\n      add\n      0x00\n      keccak256\n        /* \"contracts/10_votingsystem.sol\":747:782  candidates[_candidate].isRegistered */\n      0x02\n      add\n      0x01\n      swap1\n      sload\n      swap1\n      0x0100\n      exp\n      swap1\n      div\n      0xff\n      and\n        /* \"contracts/10_votingsystem.sol\":746:782  !candidates[_candidate].isRegistered */\n      iszero\n        /* \"contracts/10_votingsystem.sol\":738:805  require(!candidates[_candidate].isRegistered, \"Already registered\") */\n      tag_55\n      jumpi\n      mload(0x40)\n      0x08c379a000000000000000000000000000000000000000000000000000000000\n      dup2\n      mstore\n      0x04\n      add\n      tag_56\n      swap1\n      tag_57\n      jump\t// in\n    tag_56:\n      mload(0x40)\n      dup1\n      swap2\n      sub\n      swap1\n      revert\n    tag_55:\n        /* \"contracts/10_votingsystem.sol\":843:997  Candidate({... */\n      mload(0x40)\n      dup1\n      0x80\n      add\n      0x40\n      mstore\n      dup1\n        /* \"contracts/10_votingsystem.sol\":886:896  _candidate */\n      dup4\n        /* \"contracts/10_votingsystem.sol\":843:997  Candidate({... */\n      0xffffffffffffffffffffffffffffffffffffffff\n      and\n      dup2\n      mstore\n      0x20\n      add\n        /* \"contracts/10_votingsystem.sol\":917:922  _name */\n      dup3\n        /* \"contracts/10_votingsystem.sol\":843:997  Candidate({... */\n      dup2\n      mstore\n      0x20\n      add\n        /* \"contracts/10_votingsystem.sol\":947:952  false */\n      0x00\n        /* \"contracts/10_votingsystem.sol\":843:997  Candidate({... */\n      iszero\n      iszero\n      dup2\n      mstore\n      0x20\n      add\n        /* \"contracts/10_votingsystem.sol\":981:985  true */\n      0x01\n        /* \"contracts/10_votingsystem.sol\":843:997  Candidate({... */\n      iszero\n      iszero\n      dup2\n      mstore\n      pop\n        /* \"contracts/10_votingsystem.sol\":818:828  candidates */\n      0x03\n        /* \"contracts/10_votingsystem.sol\":818:840  candidates[_candidate] */\n      0x00\n        /* \"contracts/10_votingsystem.sol\":829:839  _candidate */\n      dup5\n        /* \"contracts/10_votingsystem.sol\":818:840  candidates[_candidate] */\n      0xffffffffffffffffffffffffffffffffffffffff\n      and\n      0xffffffffffffffffffffffffffffffffffffffff\n      and\n      dup2\n      mstore\n      0x20\n      add\n      swap1\n      dup2\n      mstore\n      0x20\n      add\n      0x00\n      keccak256\n        /* \"contracts/10_votingsystem.sol\":818:997  candidates[_candidate] = Candidate({... */\n      0x00\n      dup3\n      add\n      mload\n      dup2\n      0x00\n      add\n      exp(0x0100, 0x00)\n      dup2\n      sload\n      dup2\n      0xffffffffffffffffffffffffffffffffffffffff\n      mul\n      not\n      and\n      swap1\n      dup4\n      0xffffffffffffffffffffffffffffffffffffffff\n      and\n      mul\n      or\n      swap1\n      sstore\n      pop\n      0x20\n      dup3\n      add\n      mload\n      dup2\n      0x01\n      add\n      swap1\n      dup2\n      tag_58\n      swap2\n      swap1\n      tag_59\n      jump\t// in\n    tag_58:\n      pop\n      0x40\n      dup3\n      add\n      mload\n      dup2\n      0x02\n      add\n      exp(0x0100, 0x00)\n      dup2\n      sload\n      dup2\n      0xff\n      mul\n      not\n      and\n      swap1\n      dup4\n      iszero\n      iszero\n      mul\n      or\n      swap1\n      sstore\n      pop\n      0x60\n      dup3\n      add\n      mload\n      dup2\n      0x02\n      add\n      exp(0x0100, 0x01)\n      dup2\n      sload\n      dup2\n      0xff\n      mul\n      not\n      and\n      swap1\n      dup4\n      iszero\n      iszero\n      mul\n      or\n      swap1\n      sstore\n      pop\n      swap1\n      pop\n      pop\n        /* \"contracts/10_votingsystem.sol\":643:1005  function registerCandidate(address _candidate, string memory _name) public onlyHost {... */\n      pop\n      pop\n      jump\t// out\n        /* \"#utility.yul\":7:133   */\n    tag_60:\n        /* \"#utility.yul\":44:51   */\n      0x00\n        /* \"#utility.yul\":84:126   */\n      0xffffffffffffffffffffffffffffffffffffffff\n        /* \"#utility.yul\":77:82   */\n      dup3\n        /* \"#utility.yul\":73:127   */\n      and\n        /* \"#utility.yul\":62:127   */\n      swap1\n      pop\n        /* \"#utility.yul\":7:133   */\n      swap2\n      swap1\n      pop\n      jump\t// out\n        /* \"#utility.yul\":139:235   */\n    tag_61:\n        /* \"#utility.yul\":176:183   */\n      0x00\n        /* \"#utility.yul\":205:229   */\n      tag_116\n        /* \"#utility.yul\":223:228   */\n      dup3\n        /* \"#utility.yul\":205:229   */\n      tag_60\n      jump\t// in\n    tag_116:\n        /* \"#utility.yul\":194:229   */\n      swap1\n      pop\n        /* \"#utility.yul\":139:235   */\n      swap2\n      swap1\n      pop\n      jump\t// out\n        /* \"#utility.yul\":241:359   */\n    tag_62:\n        /* \"#utility.yul\":328:352   */\n      tag_118\n        /* \"#utility.yul\":346:351   */\n      dup2\n        /* \"#utility.yul\":328:352   */\n      tag_61\n      jump\t// in\n    tag_118:\n        /* \"#utility.yul\":323:326   */\n      dup3\n        /* \"#utility.yul\":316:353   */\n      mstore\n        /* \"#utility.yul\":241:359   */\n      pop\n      pop\n      jump\t// out\n        /* \"#utility.yul\":365:587   */\n    tag_12:\n        /* \"#utility.yul\":458:462   */\n      0x00\n        /* \"#utility.yul\":496:498   */\n      0x20\n        /* \"#utility.yul\":485:494   */\n      dup3\n        /* \"#utility.yul\":481:499   */\n      add\n        /* \"#utility.yul\":473:499   */\n      swap1\n      pop\n        /* \"#utility.yul\":509:580   */\n      tag_120\n        /* \"#utility.yul\":577:578   */\n      0x00\n        /* \"#utility.yul\":566:575   */\n      dup4\n        /* \"#utility.yul\":562:579   */\n      add\n        /* \"#utility.yul\":553:559   */\n      dup5\n        /* \"#utility.yul\":509:580   */\n      tag_62\n      jump\t// in\n    tag_120:\n        /* \"#utility.yul\":365:587   */\n      swap3\n      swap2\n      pop\n      pop\n      jump\t// out\n        /* \"#utility.yul\":593:670   */\n    tag_63:\n        /* \"#utility.yul\":630:637   */\n      0x00\n        /* \"#utility.yul\":659:664   */\n      dup2\n        /* \"#utility.yul\":648:664   */\n      swap1\n      pop\n        /* \"#utility.yul\":593:670   */\n      swap2\n      swap1\n      pop\n      jump\t// out\n        /* \"#utility.yul\":676:794   */\n    tag_64:\n        /* \"#utility.yul\":763:787   */\n      tag_123\n        /* \"#utility.yul\":781:786   */\n      dup2\n        /* \"#utility.yul\":763:787   */\n      tag_63\n      jump\t// in\n    tag_123:\n        /* \"#utility.yul\":758:761   */\n      dup3\n        /* \"#utility.yul\":751:788   */\n      mstore\n        /* \"#utility.yul\":676:794   */\n      pop\n      pop\n      jump\t// out\n        /* \"#utility.yul\":800:1022   */\n    tag_16:\n        /* \"#utility.yul\":893:897   */\n      0x00\n        /* \"#utility.yul\":931:933   */\n      0x20\n        /* \"#utility.yul\":920:929   */\n      dup3\n        /* \"#utility.yul\":916:934   */\n      add\n        /* \"#utility.yul\":908:934   */\n      swap1\n      pop\n        /* \"#utility.yul\":944:1015   */\n      tag_125\n        /* \"#utility.yul\":1012:1013   */\n      0x00\n        /* \"#utility.yul\":1001:1010   */\n      dup4\n        /* \"#utility.yul\":997:1014   */\n      add\n        /* \"#utility.yul\":988:994   */\n      dup5\n        /* \"#utility.yul\":944:1015   */\n      tag_64\n      jump\t// in\n    tag_125:\n        /* \"#utility.yul\":800:1022   */\n      swap3\n      swap2\n      pop\n      pop\n      jump\t// out\n        /* \"#utility.yul\":1028:1103   */\n    tag_65:\n        /* \"#utility.yul\":1061:1067   */\n      0x00\n        /* \"#utility.yul\":1094:1096   */\n      0x40\n        /* \"#utility.yul\":1088:1097   */\n      mload\n        /* \"#utility.yul\":1078:1097   */\n      swap1\n      pop\n        /* \"#utility.yul\":1028:1103   */\n      swap1\n      jump\t// out\n        /* \"#utility.yul\":1109:1226   */\n    tag_66:\n        /* \"#utility.yul\":1218:1219   */\n      0x00\n        /* \"#utility.yul\":1215:1216   */\n      dup1\n        /* \"#utility.yul\":1208:1220   */\n      revert\n        /* \"#utility.yul\":1232:1349   */\n    tag_67:\n        /* \"#utility.yul\":1341:1342   */\n      0x00\n        /* \"#utility.yul\":1338:1339   */\n      dup1\n        /* \"#utility.yul\":1331:1343   */\n      revert\n        /* \"#utility.yul\":1355:1477   */\n    tag_68:\n        /* \"#utility.yul\":1428:1452   */\n      tag_130\n        /* \"#utility.yul\":1446:1451   */\n      dup2\n        /* \"#utility.yul\":1428:1452   */\n      tag_61\n      jump\t// in\n    tag_130:\n        /* \"#utility.yul\":1421:1426   */\n      dup2\n        /* \"#utility.yul\":1418:1453   */\n      eq\n        /* \"#utility.yul\":1408:1471   */\n      tag_131\n      jumpi\n        /* \"#utility.yul\":1467:1468   */\n      0x00\n        /* \"#utility.yul\":1464:1465   */\n      dup1\n        /* \"#utility.yul\":1457:1469   */\n      revert\n        /* \"#utility.yul\":1408:1471   */\n    tag_131:\n        /* \"#utility.yul\":1355:1477   */\n      pop\n      jump\t// out\n        /* \"#utility.yul\":1483:1622   */\n    tag_69:\n        /* \"#utility.yul\":1529:1534   */\n      0x00\n        /* \"#utility.yul\":1567:1573   */\n      dup2\n        /* \"#utility.yul\":1554:1574   */\n      calldataload\n        /* \"#utility.yul\":1545:1574   */\n      swap1\n      pop\n        /* \"#utility.yul\":1583:1616   */\n      tag_133\n        /* \"#utility.yul\":1610:1615   */\n      dup2\n        /* \"#utility.yul\":1583:1616   */\n      tag_68\n      jump\t// in\n    tag_133:\n        /* \"#utility.yul\":1483:1622   */\n      swap3\n      swap2\n      pop\n      pop\n      jump\t// out\n        /* \"#utility.yul\":1628:1957   */\n    tag_24:\n        /* \"#utility.yul\":1687:1693   */\n      0x00\n        /* \"#utility.yul\":1736:1738   */\n      0x20\n        /* \"#utility.yul\":1724:1733   */\n      dup3\n        /* \"#utility.yul\":1715:1722   */\n      dup5\n        /* \"#utility.yul\":1711:1734   */\n      sub\n        /* \"#utility.yul\":1707:1739   */\n      slt\n        /* \"#utility.yul\":1704:1823   */\n      iszero\n      tag_135\n      jumpi\n        /* \"#utility.yul\":1742:1821   */\n      tag_136\n      tag_66\n      jump\t// in\n    tag_136:\n        /* \"#utility.yul\":1704:1823   */\n    tag_135:\n        /* \"#utility.yul\":1862:1863   */\n      0x00\n        /* \"#utility.yul\":1887:1940   */\n      tag_137\n        /* \"#utility.yul\":1932:1939   */\n      dup5\n        /* \"#utility.yul\":1923:1929   */\n      dup3\n        /* \"#utility.yul\":1912:1921   */\n      dup6\n        /* \"#utility.yul\":1908:1930   */\n      add\n        /* \"#utility.yul\":1887:1940   */\n      tag_69\n      jump\t// in\n    tag_137:\n        /* \"#utility.yul\":1877:1940   */\n      swap2\n      pop\n        /* \"#utility.yul\":1833:1950   */\n      pop\n        /* \"#utility.yul\":1628:1957   */\n      swap3\n      swap2\n      pop\n      pop\n      jump\t// out\n        /* \"#utility.yul\":1963:2062   */\n    tag_70:\n        /* \"#utility.yul\":2015:2021   */\n      0x00\n        /* \"#utility.yul\":2049:2054   */\n      dup2\n        /* \"#utility.yul\":2043:2055   */\n      mload\n        /* \"#utility.yul\":2033:2055   */\n      swap1\n      pop\n        /* \"#utility.yul\":1963:2062   */\n      swap2\n      swap1\n      pop\n      jump\t// out\n        /* \"#utility.yul\":2068:2237   */\n    tag_71:\n        /* \"#utility.yul\":2152:2163   */\n      0x00\n        /* \"#utility.yul\":2186:2192   */\n      dup3\n        /* \"#utility.yul\":2181:2184   */\n      dup3\n        /* \"#utility.yul\":2174:2193   */\n      mstore\n        /* \"#utility.yul\":2226:2230   */\n      0x20\n        /* \"#utility.yul\":2221:2224   */\n      dup3\n        /* \"#utility.yul\":2217:2231   */\n      add\n        /* \"#utility.yul\":2202:2231   */\n      swap1\n      pop\n        /* \"#utility.yul\":2068:2237   */\n      swap3\n      swap2\n      pop\n      pop\n      jump\t// out\n        /* \"#utility.yul\":2243:2550   */\n    tag_72:\n        /* \"#utility.yul\":2311:2312   */\n      0x00\n        /* \"#utility.yul\":2321:2434   */\n    tag_141:\n        /* \"#utility.yul\":2335:2341   */\n      dup4\n        /* \"#utility.yul\":2332:2333   */\n      dup2\n        /* \"#utility.yul\":2329:2342   */\n      lt\n        /* \"#utility.yul\":2321:2434   */\n      iszero\n      tag_143\n      jumpi\n        /* \"#utility.yul\":2420:2421   */\n      dup1\n        /* \"#utility.yul\":2415:2418   */\n      dup3\n        /* \"#utility.yul\":2411:2422   */\n      add\n        /* \"#utility.yul\":2405:2423   */\n      mload\n        /* \"#utility.yul\":2401:2402   */\n      dup2\n        /* \"#utility.yul\":2396:2399   */\n      dup5\n        /* \"#utility.yul\":2392:2403   */\n      add\n        /* \"#utility.yul\":2385:2424   */\n      mstore\n        /* \"#utility.yul\":2357:2359   */\n      0x20\n        /* \"#utility.yul\":2354:2355   */\n      dup2\n        /* \"#utility.yul\":2350:2360   */\n      add\n        /* \"#utility.yul\":2345:2360   */\n      swap1\n      pop\n        /* \"#utility.yul\":2321:2434   */\n      jump(tag_141)\n    tag_143:\n        /* \"#utility.yul\":2452:2458   */\n      dup4\n        /* \"#utility.yul\":2449:2450   */\n      dup2\n        /* \"#utility.yul\":2446:2459   */\n      gt\n        /* \"#utility.yul\":2443:2544   */\n      iszero\n      tag_144\n      jumpi\n        /* \"#utility.yul\":2532:2533   */\n      0x00\n        /* \"#utility.yul\":2523:2529   */\n      dup5\n        /* \"#utility.yul\":2518:2521   */\n      dup5\n        /* \"#utility.yul\":2514:2530   */\n      add\n        /* \"#utility.yul\":2507:2534   */\n      mstore\n        /* \"#utility.yul\":2443:2544   */\n    tag_144:\n        /* \"#utility.yul\":2292:2550   */\n      pop\n        /* \"#utility.yul\":2243:2550   */\n      pop\n      pop\n      pop\n      jump\t// out\n        /* \"#utility.yul\":2556:2658   */\n    tag_73:\n        /* \"#utility.yul\":2597:2603   */\n      0x00\n        /* \"#utility.yul\":2648:2650   */\n      0x1f\n        /* \"#utility.yul\":2644:2651   */\n      not\n        /* \"#utility.yul\":2639:2641   */\n      0x1f\n        /* \"#utility.yul\":2632:2637   */\n      dup4\n        /* \"#utility.yul\":2628:2642   */\n      add\n        /* \"#utility.yul\":2624:2652   */\n      and\n        /* \"#utility.yul\":2614:2652   */\n      swap1\n      pop\n        /* \"#utility.yul\":2556:2658   */\n      swap2\n      swap1\n      pop\n      jump\t// out\n        /* \"#utility.yul\":2664:3028   */\n    tag_74:\n        /* \"#utility.yul\":2752:2755   */\n      0x00\n        /* \"#utility.yul\":2780:2819   */\n      tag_147\n        /* \"#utility.yul\":2813:2818   */\n      dup3\n        /* \"#utility.yul\":2780:2819   */\n      tag_70\n      jump\t// in\n    tag_147:\n        /* \"#utility.yul\":2835:2906   */\n      tag_148\n        /* \"#utility.yul\":2899:2905   */\n      dup2\n        /* \"#utility.yul\":2894:2897   */\n      dup6\n        /* \"#utility.yul\":2835:2906   */\n      tag_71\n      jump\t// in\n    tag_148:\n        /* \"#utility.yul\":2828:2906   */\n      swap4\n      pop\n        /* \"#utility.yul\":2915:2967   */\n      tag_149\n        /* \"#utility.yul\":2960:2966   */\n      dup2\n        /* \"#utility.yul\":2955:2958   */\n      dup6\n        /* \"#utility.yul\":2948:2952   */\n      0x20\n        /* \"#utility.yul\":2941:2946   */\n      dup7\n        /* \"#utility.yul\":2937:2953   */\n      add\n        /* \"#utility.yul\":2915:2967   */\n      tag_72\n      jump\t// in\n    tag_149:\n        /* \"#utility.yul\":2992:3021   */\n      tag_150\n        /* \"#utility.yul\":3014:3020   */\n      dup2\n        /* \"#utility.yul\":2992:3021   */\n      tag_73\n      jump\t// in\n    tag_150:\n        /* \"#utility.yul\":2987:2990   */\n      dup5\n        /* \"#utility.yul\":2983:3022   */\n      add\n        /* \"#utility.yul\":2976:3022   */\n      swap2\n      pop\n        /* \"#utility.yul\":2756:3028   */\n      pop\n        /* \"#utility.yul\":2664:3028   */\n      swap3\n      swap2\n      pop\n      pop\n      jump\t// out\n        /* \"#utility.yul\":3034:3124   */\n    tag_75:\n        /* \"#utility.yul\":3068:3075   */\n      0x00\n        /* \"#utility.yul\":3111:3116   */\n      dup2\n        /* \"#utility.yul\":3104:3117   */\n      iszero\n        /* \"#utility.yul\":3097:3118   */\n      iszero\n        /* \"#utility.yul\":3086:3118   */\n      swap1\n      pop\n        /* \"#utility.yul\":3034:3124   */\n      swap2\n      swap1\n      pop\n      jump\t// out\n        /* \"#utility.yul\":3130:3239   */\n    tag_76:\n        /* \"#utility.yul\":3211:3232   */\n      tag_153\n        /* \"#utility.yul\":3226:3231   */\n      dup2\n        /* \"#utility.yul\":3211:3232   */\n      tag_75\n      jump\t// in\n    tag_153:\n        /* \"#utility.yul\":3206:3209   */\n      dup3\n        /* \"#utility.yul\":3199:3233   */\n      mstore\n        /* \"#utility.yul\":3130:3239   */\n      pop\n      pop\n      jump\t// out\n        /* \"#utility.yul\":3245:3865   */\n    tag_27:\n        /* \"#utility.yul\":3430:3434   */\n      0x00\n        /* \"#utility.yul\":3468:3471   */\n      0x80\n        /* \"#utility.yul\":3457:3466   */\n      dup3\n        /* \"#utility.yul\":3453:3472   */\n      add\n        /* \"#utility.yul\":3445:3472   */\n      swap1\n      pop\n        /* \"#utility.yul\":3482:3553   */\n      tag_155\n        /* \"#utility.yul\":3550:3551   */\n      0x00\n        /* \"#utility.yul\":3539:3548   */\n      dup4\n        /* \"#utility.yul\":3535:3552   */\n      add\n        /* \"#utility.yul\":3526:3532   */\n      dup8\n        /* \"#utility.yul\":3482:3553   */\n      tag_62\n      jump\t// in\n    tag_155:\n        /* \"#utility.yul\":3600:3609   */\n      dup2\n        /* \"#utility.yul\":3594:3598   */\n      dup2\n        /* \"#utility.yul\":3590:3610   */\n      sub\n        /* \"#utility.yul\":3585:3587   */\n      0x20\n        /* \"#utility.yul\":3574:3583   */\n      dup4\n        /* \"#utility.yul\":3570:3588   */\n      add\n        /* \"#utility.yul\":3563:3611   */\n      mstore\n        /* \"#utility.yul\":3628:3706   */\n      tag_156\n        /* \"#utility.yul\":3701:3705   */\n      dup2\n        /* \"#utility.yul\":3692:3698   */\n      dup7\n        /* \"#utility.yul\":3628:3706   */\n      tag_74\n      jump\t// in\n    tag_156:\n        /* \"#utility.yul\":3620:3706   */\n      swap1\n      pop\n        /* \"#utility.yul\":3716:3782   */\n      tag_157\n        /* \"#utility.yul\":3778:3780   */\n      0x40\n        /* \"#utility.yul\":3767:3776   */\n      dup4\n        /* \"#utility.yul\":3763:3781   */\n      add\n        /* \"#utility.yul\":3754:3760   */\n      dup6\n        /* \"#utility.yul\":3716:3782   */\n      tag_76\n      jump\t// in\n    tag_157:\n        /* \"#utility.yul\":3792:3858   */\n      tag_158\n        /* \"#utility.yul\":3854:3856   */\n      0x60\n        /* \"#utility.yul\":3843:3852   */\n      dup4\n        /* \"#utility.yul\":3839:3857   */\n      add\n        /* \"#utility.yul\":3830:3836   */\n      dup5\n        /* \"#utility.yul\":3792:3858   */\n      tag_76\n      jump\t// in\n    tag_158:\n        /* \"#utility.yul\":3245:3865   */\n      swap6\n      swap5\n      pop\n      pop\n      pop\n      pop\n      pop\n      jump\t// out\n        /* \"#utility.yul\":3871:3988   */\n    tag_77:\n        /* \"#utility.yul\":3980:3981   */\n      0x00\n        /* \"#utility.yul\":3977:3978   */\n      dup1\n        /* \"#utility.yul\":3970:3982   */\n      revert\n        /* \"#utility.yul\":3994:4111   */\n    tag_78:\n        /* \"#utility.yul\":4103:4104   */\n      0x00\n        /* \"#utility.yul\":4100:4101   */\n      dup1\n        /* \"#utility.yul\":4093:4105   */\n      revert\n        /* \"#utility.yul\":4117:4297   */\n    tag_79:\n        /* \"#utility.yul\":4165:4242   */\n      0x4e487b7100000000000000000000000000000000000000000000000000000000\n        /* \"#utility.yul\":4162:4163   */\n      0x00\n        /* \"#utility.yul\":4155:4243   */\n      mstore\n        /* \"#utility.yul\":4262:4266   */\n      0x41\n        /* \"#utility.yul\":4259:4260   */\n      0x04\n        /* \"#utility.yul\":4252:4267   */\n      mstore\n        /* \"#utility.yul\":4286:4290   */\n      0x24\n        /* \"#utility.yul\":4283:4284   */\n      0x00\n        /* \"#utility.yul\":4276:4291   */\n      revert\n        /* \"#utility.yul\":4303:4584   */\n    tag_80:\n        /* \"#utility.yul\":4386:4413   */\n      tag_163\n        /* \"#utility.yul\":4408:4412   */\n      dup3\n        /* \"#utility.yul\":4386:4413   */\n      tag_73\n      jump\t// in\n    tag_163:\n        /* \"#utility.yul\":4378:4384   */\n      dup2\n        /* \"#utility.yul\":4374:4414   */\n      add\n        /* \"#utility.yul\":4516:4522   */\n      dup2\n        /* \"#utility.yul\":4504:4514   */\n      dup2\n        /* \"#utility.yul\":4501:4523   */\n      lt\n        /* \"#utility.yul\":4480:4498   */\n      0xffffffffffffffff\n        /* \"#utility.yul\":4468:4478   */\n      dup3\n        /* \"#utility.yul\":4465:4499   */\n      gt\n        /* \"#utility.yul\":4462:4524   */\n      or\n        /* \"#utility.yul\":4459:4547   */\n      iszero\n      tag_164\n      jumpi\n        /* \"#utility.yul\":4527:4545   */\n      tag_165\n      tag_79\n      jump\t// in\n    tag_165:\n        /* \"#utility.yul\":4459:4547   */\n    tag_164:\n        /* \"#utility.yul\":4567:4577   */\n      dup1\n        /* \"#utility.yul\":4563:4565   */\n      0x40\n        /* \"#utility.yul\":4556:4578   */\n      mstore\n        /* \"#utility.yul\":4346:4584   */\n      pop\n        /* \"#utility.yul\":4303:4584   */\n      pop\n      pop\n      jump\t// out\n        /* \"#utility.yul\":4590:4719   */\n    tag_81:\n        /* \"#utility.yul\":4624:4630   */\n      0x00\n        /* \"#utility.yul\":4651:4671   */\n      tag_167\n      tag_65\n      jump\t// in\n    tag_167:\n        /* \"#utility.yul\":4641:4671   */\n      swap1\n      pop\n        /* \"#utility.yul\":4680:4713   */\n      tag_168\n        /* \"#utility.yul\":4708:4712   */\n      dup3\n        /* \"#utility.yul\":4700:4706   */\n      dup3\n        /* \"#utility.yul\":4680:4713   */\n      tag_80\n      jump\t// in\n    tag_168:\n        /* \"#utility.yul\":4590:4719   */\n      swap2\n      swap1\n      pop\n      jump\t// out\n        /* \"#utility.yul\":4725:5033   */\n    tag_82:\n        /* \"#utility.yul\":4787:4791   */\n      0x00\n        /* \"#utility.yul\":4877:4895   */\n      0xffffffffffffffff\n        /* \"#utility.yul\":4869:4875   */\n      dup3\n        /* \"#utility.yul\":4866:4896   */\n      gt\n        /* \"#utility.yul\":4863:4919   */\n      iszero\n      tag_170\n      jumpi\n        /* \"#utility.yul\":4899:4917   */\n      tag_171\n      tag_79\n      jump\t// in\n    tag_171:\n        /* \"#utility.yul\":4863:4919   */\n    tag_170:\n        /* \"#utility.yul\":4937:4966   */\n      tag_172\n        /* \"#utility.yul\":4959:4965   */\n      dup3\n        /* \"#utility.yul\":4937:4966   */\n      tag_73\n      jump\t// in\n    tag_172:\n        /* \"#utility.yul\":4929:4966   */\n      swap1\n      pop\n        /* \"#utility.yul\":5021:5025   */\n      0x20\n        /* \"#utility.yul\":5015:5019   */\n      dup2\n        /* \"#utility.yul\":5011:5026   */\n      add\n        /* \"#utility.yul\":5003:5026   */\n      swap1\n      pop\n        /* \"#utility.yul\":4725:5033   */\n      swap2\n      swap1\n      pop\n      jump\t// out\n        /* \"#utility.yul\":5039:5193   */\n    tag_83:\n        /* \"#utility.yul\":5123:5129   */\n      dup3\n        /* \"#utility.yul\":5118:5121   */\n      dup2\n        /* \"#utility.yul\":5113:5116   */\n      dup4\n        /* \"#utility.yul\":5100:5130   */\n      calldatacopy\n        /* \"#utility.yul\":5185:5186   */\n      0x00\n        /* \"#utility.yul\":5176:5182   */\n      dup4\n        /* \"#utility.yul\":5171:5174   */\n      dup4\n        /* \"#utility.yul\":5167:5183   */\n      add\n        /* \"#utility.yul\":5160:5187   */\n      mstore\n        /* \"#utility.yul\":5039:5193   */\n      pop\n      pop\n      pop\n      jump\t// out\n        /* \"#utility.yul\":5199:5611   */\n    tag_84:\n        /* \"#utility.yul\":5277:5282   */\n      0x00\n        /* \"#utility.yul\":5302:5368   */\n      tag_175\n        /* \"#utility.yul\":5318:5367   */\n      tag_176\n        /* \"#utility.yul\":5360:5366   */\n      dup5\n        /* \"#utility.yul\":5318:5367   */\n      tag_82\n      jump\t// in\n    tag_176:\n        /* \"#utility.yul\":5302:5368   */\n      tag_81\n      jump\t// in\n    tag_175:\n        /* \"#utility.yul\":5293:5368   */\n      swap1\n      pop\n        /* \"#utility.yul\":5391:5397   */\n      dup3\n        /* \"#utility.yul\":5384:5389   */\n      dup2\n        /* \"#utility.yul\":5377:5398   */\n      mstore\n        /* \"#utility.yul\":5429:5433   */\n      0x20\n        /* \"#utility.yul\":5422:5427   */\n      dup2\n        /* \"#utility.yul\":5418:5434   */\n      add\n        /* \"#utility.yul\":5467:5470   */\n      dup5\n        /* \"#utility.yul\":5458:5464   */\n      dup5\n        /* \"#utility.yul\":5453:5456   */\n      dup5\n        /* \"#utility.yul\":5449:5465   */\n      add\n        /* \"#utility.yul\":5446:5471   */\n      gt\n        /* \"#utility.yul\":5443:5555   */\n      iszero\n      tag_177\n      jumpi\n        /* \"#utility.yul\":5474:5553   */\n      tag_178\n      tag_78\n      jump\t// in\n    tag_178:\n        /* \"#utility.yul\":5443:5555   */\n    tag_177:\n        /* \"#utility.yul\":5564:5605   */\n      tag_179\n        /* \"#utility.yul\":5598:5604   */\n      dup5\n        /* \"#utility.yul\":5593:5596   */\n      dup3\n        /* \"#utility.yul\":5588:5591   */\n      dup6\n        /* \"#utility.yul\":5564:5605   */\n      tag_83\n      jump\t// in\n    tag_179:\n        /* \"#utility.yul\":5283:5611   */\n      pop\n        /* \"#utility.yul\":5199:5611   */\n      swap4\n      swap3\n      pop\n      pop\n      pop\n      jump\t// out\n        /* \"#utility.yul\":5631:5971   */\n    tag_85:\n        /* \"#utility.yul\":5687:5692   */\n      0x00\n        /* \"#utility.yul\":5736:5739   */\n      dup3\n        /* \"#utility.yul\":5729:5733   */\n      0x1f\n        /* \"#utility.yul\":5721:5727   */\n      dup4\n        /* \"#utility.yul\":5717:5734   */\n      add\n        /* \"#utility.yul\":5713:5740   */\n      slt\n        /* \"#utility.yul\":5703:5825   */\n      tag_181\n      jumpi\n        /* \"#utility.yul\":5744:5823   */\n      tag_182\n      tag_77\n      jump\t// in\n    tag_182:\n        /* \"#utility.yul\":5703:5825   */\n    tag_181:\n        /* \"#utility.yul\":5861:5867   */\n      dup2\n        /* \"#utility.yul\":5848:5868   */\n      calldataload\n        /* \"#utility.yul\":5886:5965   */\n      tag_183\n        /* \"#utility.yul\":5961:5964   */\n      dup5\n        /* \"#utility.yul\":5953:5959   */\n      dup3\n        /* \"#utility.yul\":5946:5950   */\n      0x20\n        /* \"#utility.yul\":5938:5944   */\n      dup7\n        /* \"#utility.yul\":5934:5951   */\n      add\n        /* \"#utility.yul\":5886:5965   */\n      tag_84\n      jump\t// in\n    tag_183:\n        /* \"#utility.yul\":5877:5965   */\n      swap2\n      pop\n        /* \"#utility.yul\":5693:5971   */\n      pop\n        /* \"#utility.yul\":5631:5971   */\n      swap3\n      swap2\n      pop\n      pop\n      jump\t// out\n        /* \"#utility.yul\":5977:6631   */\n    tag_30:\n        /* \"#utility.yul\":6055:6061   */\n      0x00\n        /* \"#utility.yul\":6063:6069   */\n      dup1\n        /* \"#utility.yul\":6112:6114   */\n      0x40\n        /* \"#utility.yul\":6100:6109   */\n      dup4\n        /* \"#utility.yul\":6091:6098   */\n      dup6\n        /* \"#utility.yul\":6087:6110   */\n      sub\n        /* \"#utility.yul\":6083:6115   */\n      slt\n        /* \"#utility.yul\":6080:6199   */\n      iszero\n      tag_185\n      jumpi\n        /* \"#utility.yul\":6118:6197   */\n      tag_186\n      tag_66\n      jump\t// in\n    tag_186:\n        /* \"#utility.yul\":6080:6199   */\n    tag_185:\n        /* \"#utility.yul\":6238:6239   */\n      0x00\n        /* \"#utility.yul\":6263:6316   */\n      tag_187\n        /* \"#utility.yul\":6308:6315   */\n      dup6\n        /* \"#utility.yul\":6299:6305   */\n      dup3\n        /* \"#utility.yul\":6288:6297   */\n      dup7\n        /* \"#utility.yul\":6284:6306   */\n      add\n        /* \"#utility.yul\":6263:6316   */\n      tag_69\n      jump\t// in\n    tag_187:\n        /* \"#utility.yul\":6253:6316   */\n      swap3\n      pop\n        /* \"#utility.yul\":6209:6326   */\n      pop\n        /* \"#utility.yul\":6393:6395   */\n      0x20\n        /* \"#utility.yul\":6382:6391   */\n      dup4\n        /* \"#utility.yul\":6378:6396   */\n      add\n        /* \"#utility.yul\":6365:6397   */\n      calldataload\n        /* \"#utility.yul\":6424:6442   */\n      0xffffffffffffffff\n        /* \"#utility.yul\":6416:6422   */\n      dup2\n        /* \"#utility.yul\":6413:6443   */\n      gt\n        /* \"#utility.yul\":6410:6527   */\n      iszero\n      tag_188\n      jumpi\n        /* \"#utility.yul\":6446:6525   */\n      tag_189\n      tag_67\n      jump\t// in\n    tag_189:\n        /* \"#utility.yul\":6410:6527   */\n    tag_188:\n        /* \"#utility.yul\":6551:6614   */\n      tag_190\n        /* \"#utility.yul\":6606:6613   */\n      dup6\n        /* \"#utility.yul\":6597:6603   */\n      dup3\n        /* \"#utility.yul\":6586:6595   */\n      dup7\n        /* \"#utility.yul\":6582:6604   */\n      add\n        /* \"#utility.yul\":6551:6614   */\n      tag_85\n      jump\t// in\n    tag_190:\n        /* \"#utility.yul\":6541:6614   */\n      swap2\n      pop\n        /* \"#utility.yul\":6336:6624   */\n      pop\n        /* \"#utility.yul\":5977:6631   */\n      swap3\n      pop\n      swap3\n      swap1\n      pop\n      jump\t// out\n        /* \"#utility.yul\":6637:6801   */\n    tag_86:\n        /* \"#utility.yul\":6777:6793   */\n      0x4e6f742072656769737465726564000000000000000000000000000000000000\n        /* \"#utility.yul\":6773:6774   */\n      0x00\n        /* \"#utility.yul\":6765:6771   */\n      dup3\n        /* \"#utility.yul\":6761:6775   */\n      add\n        /* \"#utility.yul\":6754:6794   */\n      mstore\n        /* \"#utility.yul\":6637:6801   */\n      pop\n      jump\t// out\n        /* \"#utility.yul\":6807:7173   */\n    tag_87:\n        /* \"#utility.yul\":6949:6952   */\n      0x00\n        /* \"#utility.yul\":6970:7037   */\n      tag_193\n        /* \"#utility.yul\":7034:7036   */\n      0x0e\n        /* \"#utility.yul\":7029:7032   */\n      dup4\n        /* \"#utility.yul\":6970:7037   */\n      tag_71\n      jump\t// in\n    tag_193:\n        /* \"#utility.yul\":6963:7037   */\n      swap2\n      pop\n        /* \"#utility.yul\":7046:7139   */\n      tag_194\n        /* \"#utility.yul\":7135:7138   */\n      dup3\n        /* \"#utility.yul\":7046:7139   */\n      tag_86\n      jump\t// in\n    tag_194:\n        /* \"#utility.yul\":7164:7166   */\n      0x20\n        /* \"#utility.yul\":7159:7162   */\n      dup3\n        /* \"#utility.yul\":7155:7167   */\n      add\n        /* \"#utility.yul\":7148:7167   */\n      swap1\n      pop\n        /* \"#utility.yul\":6807:7173   */\n      swap2\n      swap1\n      pop\n      jump\t// out\n        /* \"#utility.yul\":7179:7598   */\n    tag_35:\n        /* \"#utility.yul\":7345:7349   */\n      0x00\n        /* \"#utility.yul\":7383:7385   */\n      0x20\n        /* \"#utility.yul\":7372:7381   */\n      dup3\n        /* \"#utility.yul\":7368:7386   */\n      add\n        /* \"#utility.yul\":7360:7386   */\n      swap1\n      pop\n        /* \"#utility.yul\":7432:7441   */\n      dup2\n        /* \"#utility.yul\":7426:7430   */\n      dup2\n        /* \"#utility.yul\":7422:7442   */\n      sub\n        /* \"#utility.yul\":7418:7419   */\n      0x00\n        /* \"#utility.yul\":7407:7416   */\n      dup4\n        /* \"#utility.yul\":7403:7420   */\n      add\n        /* \"#utility.yul\":7396:7443   */\n      mstore\n        /* \"#utility.yul\":7460:7591   */\n      tag_196\n        /* \"#utility.yul\":7586:7590   */\n      dup2\n        /* \"#utility.yul\":7460:7591   */\n      tag_87\n      jump\t// in\n    tag_196:\n        /* \"#utility.yul\":7452:7591   */\n      swap1\n      pop\n        /* \"#utility.yul\":7179:7598   */\n      swap2\n      swap1\n      pop\n      jump\t// out\n        /* \"#utility.yul\":7604:7767   */\n    tag_88:\n        /* \"#utility.yul\":7744:7759   */\n      0x416c726561647920766f74656400000000000000000000000000000000000000\n        /* \"#utility.yul\":7740:7741   */\n      0x00\n        /* \"#utility.yul\":7732:7738   */\n      dup3\n        /* \"#utility.yul\":7728:7742   */\n      add\n        /* \"#utility.yul\":7721:7760   */\n      mstore\n        /* \"#utility.yul\":7604:7767   */\n      pop\n      jump\t// out\n        /* \"#utility.yul\":7773:8139   */\n    tag_89:\n        /* \"#utility.yul\":7915:7918   */\n      0x00\n        /* \"#utility.yul\":7936:8003   */\n      tag_199\n        /* \"#utility.yul\":8000:8002   */\n      0x0d\n        /* \"#utility.yul\":7995:7998   */\n      dup4\n        /* \"#utility.yul\":7936:8003   */\n      tag_71\n      jump\t// in\n    tag_199:\n        /* \"#utility.yul\":7929:8003   */\n      swap2\n      pop\n        /* \"#utility.yul\":8012:8105   */\n      tag_200\n        /* \"#utility.yul\":8101:8104   */\n      dup3\n        /* \"#utility.yul\":8012:8105   */\n      tag_88\n      jump\t// in\n    tag_200:\n        /* \"#utility.yul\":8130:8132   */\n      0x20\n        /* \"#utility.yul\":8125:8128   */\n      dup3\n        /* \"#utility.yul\":8121:8133   */\n      add\n        /* \"#utility.yul\":8114:8133   */\n      swap1\n      pop\n        /* \"#utility.yul\":7773:8139   */\n      swap2\n      swap1\n      pop\n      jump\t// out\n        /* \"#utility.yul\":8145:8564   */\n    tag_38:\n        /* \"#utility.yul\":8311:8315   */\n      0x00\n        /* \"#utility.yul\":8349:8351   */\n      0x20\n        /* \"#utility.yul\":8338:8347   */\n      dup3\n        /* \"#utility.yul\":8334:8352   */\n      add\n        /* \"#utility.yul\":8326:8352   */\n      swap1\n      pop\n        /* \"#utility.yul\":8398:8407   */\n      dup2\n        /* \"#utility.yul\":8392:8396   */\n      dup2\n        /* \"#utility.yul\":8388:8408   */\n      sub\n        /* \"#utility.yul\":8384:8385   */\n      0x00\n        /* \"#utility.yul\":8373:8382   */\n      dup4\n        /* \"#utility.yul\":8369:8386   */\n      add\n        /* \"#utility.yul\":8362:8409   */\n      mstore\n        /* \"#utility.yul\":8426:8557   */\n      tag_202\n        /* \"#utility.yul\":8552:8556   */\n      dup2\n        /* \"#utility.yul\":8426:8557   */\n      tag_89\n      jump\t// in\n    tag_202:\n        /* \"#utility.yul\":8418:8557   */\n      swap1\n      pop\n        /* \"#utility.yul\":8145:8564   */\n      swap2\n      swap1\n      pop\n      jump\t// out\n        /* \"#utility.yul\":8570:8739   */\n    tag_90:\n        /* \"#utility.yul\":8710:8731   */\n      0x566f74696e6720706572696f6420656e64656400000000000000000000000000\n        /* \"#utility.yul\":8706:8707   */\n      0x00\n        /* \"#utility.yul\":8698:8704   */\n      dup3\n        /* \"#utility.yul\":8694:8708   */\n      add\n        /* \"#utility.yul\":8687:8732   */\n      mstore\n        /* \"#utility.yul\":8570:8739   */\n      pop\n      jump\t// out\n        /* \"#utility.yul\":8745:9111   */\n    tag_91:\n        /* \"#utility.yul\":8887:8890   */\n      0x00\n        /* \"#utility.yul\":8908:8975   */\n      tag_205\n        /* \"#utility.yul\":8972:8974   */\n      0x13\n        /* \"#utility.yul\":8967:8970   */\n      dup4\n        /* \"#utility.yul\":8908:8975   */\n      tag_71\n      jump\t// in\n    tag_205:\n        /* \"#utility.yul\":8901:8975   */\n      swap2\n      pop\n        /* \"#utility.yul\":8984:9077   */\n      tag_206\n        /* \"#utility.yul\":9073:9076   */\n      dup3\n        /* \"#utility.yul\":8984:9077   */\n      tag_90\n      jump\t// in\n    tag_206:\n        /* \"#utility.yul\":9102:9104   */\n      0x20\n        /* \"#utility.yul\":9097:9100   */\n      dup3\n        /* \"#utility.yul\":9093:9105   */\n      add\n        /* \"#utility.yul\":9086:9105   */\n      swap1\n      pop\n        /* \"#utility.yul\":8745:9111   */\n      swap2\n      swap1\n      pop\n      jump\t// out\n        /* \"#utility.yul\":9117:9536   */\n    tag_41:\n        /* \"#utility.yul\":9283:9287   */\n      0x00\n        /* \"#utility.yul\":9321:9323   */\n      0x20\n        /* \"#utility.yul\":9310:9319   */\n      dup3\n        /* \"#utility.yul\":9306:9324   */\n      add\n        /* \"#utility.yul\":9298:9324   */\n      swap1\n      pop\n        /* \"#utility.yul\":9370:9379   */\n      dup2\n        /* \"#utility.yul\":9364:9368   */\n      dup2\n        /* \"#utility.yul\":9360:9380   */\n      sub\n        /* \"#utility.yul\":9356:9357   */\n      0x00\n        /* \"#utility.yul\":9345:9354   */\n      dup4\n        /* \"#utility.yul\":9341:9358   */\n      add\n        /* \"#utility.yul\":9334:9381   */\n      mstore\n        /* \"#utility.yul\":9398:9529   */\n      tag_208\n        /* \"#utility.yul\":9524:9528   */\n      dup2\n        /* \"#utility.yul\":9398:9529   */\n      tag_91\n      jump\t// in\n    tag_208:\n        /* \"#utility.yul\":9390:9529   */\n      swap1\n      pop\n        /* \"#utility.yul\":9117:9536   */\n      swap2\n      swap1\n      pop\n      jump\t// out\n        /* \"#utility.yul\":9542:9722   */\n    tag_92:\n        /* \"#utility.yul\":9590:9667   */\n      0x4e487b7100000000000000000000000000000000000000000000000000000000\n        /* \"#utility.yul\":9587:9588   */\n      0x00\n        /* \"#utility.yul\":9580:9668   */\n      mstore\n        /* \"#utility.yul\":9687:9691   */\n      0x11\n        /* \"#utility.yul\":9684:9685   */\n      0x04\n        /* \"#utility.yul\":9677:9692   */\n      mstore\n        /* \"#utility.yul\":9711:9715   */\n      0x24\n        /* \"#utility.yul\":9708:9709   */\n      0x00\n        /* \"#utility.yul\":9701:9716   */\n      revert\n        /* \"#utility.yul\":9728:9961   */\n    tag_43:\n        /* \"#utility.yul\":9767:9770   */\n      0x00\n        /* \"#utility.yul\":9790:9814   */\n      tag_211\n        /* \"#utility.yul\":9808:9813   */\n      dup3\n        /* \"#utility.yul\":9790:9814   */\n      tag_63\n      jump\t// in\n    tag_211:\n        /* \"#utility.yul\":9781:9814   */\n      swap2\n      pop\n        /* \"#utility.yul\":9836:9902   */\n      0xffffffffffffffffffffffffffffffffffffffffffffffffffffffffffffffff\n        /* \"#utility.yul\":9829:9834   */\n      dup3\n        /* \"#utility.yul\":9826:9903   */\n      sub\n        /* \"#utility.yul\":9823:9926   */\n      tag_212\n      jumpi\n        /* \"#utility.yul\":9906:9924   */\n      tag_213\n      tag_92\n      jump\t// in\n    tag_213:\n        /* \"#utility.yul\":9823:9926   */\n    tag_212:\n        /* \"#utility.yul\":9953:9954   */\n      0x01\n        /* \"#utility.yul\":9946:9951   */\n      dup3\n        /* \"#utility.yul\":9942:9955   */\n      add\n        /* \"#utility.yul\":9935:9955   */\n      swap1\n      pop\n        /* \"#utility.yul\":9728:9961   */\n      swap2\n      swap1\n      pop\n      jump\t// out\n        /* \"#utility.yul\":9967:10147   */\n    tag_93:\n        /* \"#utility.yul\":10015:10092   */\n      0x4e487b7100000000000000000000000000000000000000000000000000000000\n        /* \"#utility.yul\":10012:10013   */\n      0x00\n        /* \"#utility.yul\":10005:10093   */\n      mstore\n        /* \"#utility.yul\":10112:10116   */\n      0x22\n        /* \"#utility.yul\":10109:10110   */\n      0x04\n        /* \"#utility.yul\":10102:10117   */\n      mstore\n        /* \"#utility.yul\":10136:10140   */\n      0x24\n        /* \"#utility.yul\":10133:10134   */\n      0x00\n        /* \"#utility.yul\":10126:10141   */\n      revert\n        /* \"#utility.yul\":10153:10473   */\n    tag_45:\n        /* \"#utility.yul\":10197:10203   */\n      0x00\n        /* \"#utility.yul\":10234:10235   */\n      0x02\n        /* \"#utility.yul\":10228:10232   */\n      dup3\n        /* \"#utility.yul\":10224:10236   */\n      div\n        /* \"#utility.yul\":10214:10236   */\n      swap1\n      pop\n        /* \"#utility.yul\":10281:10282   */\n      0x01\n        /* \"#utility.yul\":10275:10279   */\n      dup3\n        /* \"#utility.yul\":10271:10283   */\n      and\n        /* \"#utility.yul\":10302:10320   */\n      dup1\n        /* \"#utility.yul\":10292:10373   */\n      tag_216\n      jumpi\n        /* \"#utility.yul\":10358:10362   */\n      0x7f\n        /* \"#utility.yul\":10350:10356   */\n      dup3\n        /* \"#utility.yul\":10346:10363   */\n      and\n        /* \"#utility.yul\":10336:10363   */\n      swap2\n      pop\n        /* \"#utility.yul\":10292:10373   */\n    tag_216:\n        /* \"#utility.yul\":10420:10422   */\n      0x20\n        /* \"#utility.yul\":10412:10418   */\n      dup3\n        /* \"#utility.yul\":10409:10423   */\n      lt\n        /* \"#utility.yul\":10389:10407   */\n      dup2\n        /* \"#utility.yul\":10386:10424   */\n      sub\n        /* \"#utility.yul\":10383:10467   */\n      tag_217\n      jumpi\n        /* \"#utility.yul\":10439:10457   */\n      tag_218\n      tag_93\n      jump\t// in\n    tag_218:\n        /* \"#utility.yul\":10383:10467   */\n    tag_217:\n        /* \"#utility.yul\":10204:10473   */\n      pop\n        /* \"#utility.yul\":10153:10473   */\n      swap2\n      swap1\n      pop\n      jump\t// out\n        /* \"#utility.yul\":10479:10641   */\n    tag_94:\n        /* \"#utility.yul\":10619:10633   */\n      0x554e415554484f52495a45440000000000000000000000000000000000000000\n        /* \"#utility.yul\":10615:10616   */\n      0x00\n        /* \"#utility.yul\":10607:10613   */\n      dup3\n        /* \"#utility.yul\":10603:10617   */\n      add\n        /* \"#utility.yul\":10596:10634   */\n      mstore\n        /* \"#utility.yul\":10479:10641   */\n      pop\n      jump\t// out\n        /* \"#utility.yul\":10647:11013   */\n    tag_95:\n        /* \"#utility.yul\":10789:10792   */\n      0x00\n        /* \"#utility.yul\":10810:10877   */\n      tag_221\n        /* \"#utility.yul\":10874:10876   */\n      0x0c\n        /* \"#utility.yul\":10869:10872   */\n      dup4\n        /* \"#utility.yul\":10810:10877   */\n      tag_71\n      jump\t// in\n    tag_221:\n        /* \"#utility.yul\":10803:10877   */\n      swap2\n      pop\n        /* \"#utility.yul\":10886:10979   */\n      tag_222\n        /* \"#utility.yul\":10975:10978   */\n      dup3\n        /* \"#utility.yul\":10886:10979   */\n      tag_94\n      jump\t// in\n    tag_222:\n        /* \"#utility.yul\":11004:11006   */\n      0x20\n        /* \"#utility.yul\":10999:11002   */\n      dup3\n        /* \"#utility.yul\":10995:11007   */\n      add\n        /* \"#utility.yul\":10988:11007   */\n      swap1\n      pop\n        /* \"#utility.yul\":10647:11013   */\n      swap2\n      swap1\n      pop\n      jump\t// out\n        /* \"#utility.yul\":11019:11438   */\n    tag_53:\n        /* \"#utility.yul\":11185:11189   */\n      0x00\n        /* \"#utility.yul\":11223:11225   */\n      0x20\n        /* \"#utility.yul\":11212:11221   */\n      dup3\n        /* \"#utility.yul\":11208:11226   */\n      add\n        /* \"#utility.yul\":11200:11226   */\n      swap1\n      pop\n        /* \"#utility.yul\":11272:11281   */\n      dup2\n        /* \"#utility.yul\":11266:11270   */\n      dup2\n        /* \"#utility.yul\":11262:11282   */\n      sub\n        /* \"#utility.yul\":11258:11259   */\n      0x00\n        /* \"#utility.yul\":11247:11256   */\n      dup4\n        /* \"#utility.yul\":11243:11260   */\n      add\n        /* \"#utility.yul\":11236:11283   */\n      mstore\n        /* \"#utility.yul\":11300:11431   */\n      tag_224\n        /* \"#utility.yul\":11426:11430   */\n      dup2\n        /* \"#utility.yul\":11300:11431   */\n      tag_95\n      jump\t// in\n    tag_224:\n        /* \"#utility.yul\":11292:11431   */\n      swap1\n      pop\n        /* \"#utility.yul\":11019:11438   */\n      swap2\n      swap1\n      pop\n      jump\t// out\n        /* \"#utility.yul\":11444:11612   */\n    tag_96:\n        /* \"#utility.yul\":11584:11604   */\n      0x416c726561647920726567697374657265640000000000000000000000000000\n        /* \"#utility.yul\":11580:11581   */\n      0x00\n        /* \"#utility.yul\":11572:11578   */\n      dup3\n        /* \"#utility.yul\":11568:11582   */\n      add\n        /* \"#utility.yul\":11561:11605   */\n      mstore\n        /* \"#utility.yul\":11444:11612   */\n      pop\n      jump\t// out\n        /* \"#utility.yul\":11618:11984   */\n    tag_97:\n        /* \"#utility.yul\":11760:11763   */\n      0x00\n        /* \"#utility.yul\":11781:11848   */\n      tag_227\n        /* \"#utility.yul\":11845:11847   */\n      0x12\n        /* \"#utility.yul\":11840:11843   */\n      dup4\n        /* \"#utility.yul\":11781:11848   */\n      tag_71\n      jump\t// in\n    tag_227:\n        /* \"#utility.yul\":11774:11848   */\n      swap2\n      pop\n        /* \"#utility.yul\":11857:11950   */\n      tag_228\n        /* \"#utility.yul\":11946:11949   */\n      dup3\n        /* \"#utility.yul\":11857:11950   */\n      tag_96\n      jump\t// in\n    tag_228:\n        /* \"#utility.yul\":11975:11977   */\n      0x20\n        /* \"#utility.yul\":11970:11973   */\n      dup3\n        /* \"#utility.yul\":11966:11978   */\n      add\n        /* \"#utility.yul\":11959:11978   */\n      swap1\n      pop\n        /* \"#utility.yul\":11618:11984   */\n      swap2\n      swap1\n      pop\n      jump\t// out\n        /* \"#utility.yul\":11990:12409   */\n    tag_57:\n        /* \"#utility.yul\":12156:12160   */\n      0x00\n        /* \"#utility.yul\":12194:12196   */\n      0x20\n        /* \"#utility.yul\":12183:12192   */\n      dup3\n        /* \"#utility.yul\":12179:12197   */\n      add\n        /* \"#utility.yul\":12171:12197   */\n      swap1\n      pop\n        /* \"#utility.yul\":12243:12252   */\n      dup2\n        /* \"#utility.yul\":12237:12241   */\n      dup2\n        /* \"#utility.yul\":12233:12253   */\n      sub\n        /* \"#utility.yul\":12229:12230   */\n      0x00\n        /* \"#utility.yul\":12218:12227   */\n      dup4\n        /* \"#utility.yul\":12214:12231   */\n      add\n        /* \"#utility.yul\":12207:12254   */\n      mstore\n        /* \"#utility.yul\":12271:12402   */\n      tag_230\n        /* \"#utility.yul\":12397:12401   */\n      dup2\n        /* \"#utility.yul\":12271:12402   */\n      tag_97\n      jump\t// in\n    tag_230:\n        /* \"#utility.yul\":12263:12402   */\n      swap1\n      pop\n        /* \"#utility.yul\":11990:12409   */\n      swap2\n      swap1\n      pop\n      jump\t// out\n        /* \"#utility.yul\":12415:12556   */\n    tag_98:\n        /* \"#utility.yul\":12464:12468   */\n      0x00\n        /* \"#utility.yul\":12487:12490   */\n      dup2\n        /* \"#utility.yul\":12479:12490   */\n      swap1\n      pop\n        /* \"#utility.yul\":12510:12513   */\n      dup2\n        /* \"#utility.yul\":12507:12508   */\n      0x00\n        /* \"#utility.yul\":12500:12514   */\n      mstore\n        /* \"#utility.yul\":12544:12548   */\n      0x20\n        /* \"#utility.yul\":12541:12542   */\n      0x00\n        /* \"#utility.yul\":12531:12549   */\n      keccak256\n        /* \"#utility.yul\":12523:12549   */\n      swap1\n      pop\n        /* \"#utility.yul\":12415:12556   */\n      swap2\n      swap1\n      pop\n      jump\t// out\n        /* \"#utility.yul\":12562:12655   */\n    tag_99:\n        /* \"#utility.yul\":12599:12605   */\n      0x00\n        /* \"#utility.yul\":12646:12648   */\n      0x20\n        /* \"#utility.yul\":12641:12643   */\n      0x1f\n        /* \"#utility.yul\":12634:12639   */\n      dup4\n        /* \"#utility.yul\":12630:12644   */\n      add\n        /* \"#utility.yul\":12626:12649   */\n      div\n        /* \"#utility.yul\":12616:12649   */\n      swap1\n      pop\n        /* \"#utility.yul\":12562:12655   */\n      swap2\n      swap1\n      pop\n      jump\t// out\n        /* \"#utility.yul\":12661:12768   */\n    tag_100:\n        /* \"#utility.yul\":12705:12713   */\n      0x00\n        /* \"#utility.yul\":12755:12760   */\n      dup3\n        /* \"#utility.yul\":12749:12753   */\n      dup3\n        /* \"#utility.yul\":12745:12761   */\n      shl\n        /* \"#utility.yul\":12724:12761   */\n      swap1\n      pop\n        /* \"#utility.yul\":12661:12768   */\n      swap3\n      swap2\n      pop\n      pop\n      jump\t// out\n        /* \"#utility.yul\":12774:13167   */\n    tag_101:\n        /* \"#utility.yul\":12843:12849   */\n      0x00\n        /* \"#utility.yul\":12893:12894   */\n      0x08\n        /* \"#utility.yul\":12881:12891   */\n      dup4\n        /* \"#utility.yul\":12877:12895   */\n      mul\n        /* \"#utility.yul\":12916:13013   */\n      tag_235\n        /* \"#utility.yul\":12946:13012   */\n      0xffffffffffffffffffffffffffffffffffffffffffffffffffffffffffffffff\n        /* \"#utility.yul\":12935:12944   */\n      dup3\n        /* \"#utility.yul\":12916:13013   */\n      tag_100\n      jump\t// in\n    tag_235:\n        /* \"#utility.yul\":13034:13073   */\n      tag_236\n        /* \"#utility.yul\":13064:13072   */\n      dup7\n        /* \"#utility.yul\":13053:13062   */\n      dup4\n        /* \"#utility.yul\":13034:13073   */\n      tag_100\n      jump\t// in\n    tag_236:\n        /* \"#utility.yul\":13022:13073   */\n      swap6\n      pop\n        /* \"#utility.yul\":13106:13110   */\n      dup1\n        /* \"#utility.yul\":13102:13111   */\n      not\n        /* \"#utility.yul\":13095:13100   */\n      dup5\n        /* \"#utility.yul\":13091:13112   */\n      and\n        /* \"#utility.yul\":13082:13112   */\n      swap4\n      pop\n        /* \"#utility.yul\":13155:13159   */\n      dup1\n        /* \"#utility.yul\":13145:13153   */\n      dup7\n        /* \"#utility.yul\":13141:13160   */\n      and\n        /* \"#utility.yul\":13134:13139   */\n      dup5\n        /* \"#utility.yul\":13131:13161   */\n      or\n        /* \"#utility.yul\":13121:13161   */\n      swap3\n      pop\n        /* \"#utility.yul\":12850:13167   */\n      pop\n      pop\n        /* \"#utility.yul\":12774:13167   */\n      swap4\n      swap3\n      pop\n      pop\n      pop\n      jump\t// out\n        /* \"#utility.yul\":13173:13233   */\n    tag_102:\n        /* \"#utility.yul\":13201:13204   */\n      0x00\n        /* \"#utility.yul\":13222:13227   */\n      dup2\n        /* \"#utility.yul\":13215:13227   */\n      swap1\n      pop\n        /* \"#utility.yul\":13173:13233   */\n      swap2\n      swap1\n      pop\n      jump\t// out\n        /* \"#utility.yul\":13239:13381   */\n    tag_103:\n        /* \"#utility.yul\":13289:13298   */\n      0x00\n        /* \"#utility.yul\":13322:13375   */\n      tag_239\n        /* \"#utility.yul\":13340:13374   */\n      tag_240\n        /* \"#utility.yul\":13349:13373   */\n      tag_241\n        /* \"#utility.yul\":13367:13372   */\n      dup5\n        /* \"#utility.yul\":13349:13373   */\n      tag_63\n      jump\t// in\n    tag_241:\n        /* \"#utility.yul\":13340:13374   */\n      tag_102\n      jump\t// in\n    tag_240:\n        /* \"#utility.yul\":13322:13375   */\n      tag_63\n      jump\t// in\n    tag_239:\n        /* \"#utility.yul\":13309:13375   */\n      swap1\n      pop\n        /* \"#utility.yul\":13239:13381   */\n      swap2\n      swap1\n      pop\n      jump\t// out\n        /* \"#utility.yul\":13387:13462   */\n    tag_104:\n        /* \"#utility.yul\":13430:13433   */\n      0x00\n        /* \"#utility.yul\":13451:13456   */\n      dup2\n        /* \"#utility.yul\":13444:13456   */\n      swap1\n      pop\n        /* \"#utility.yul\":13387:13462   */\n      swap2\n      swap1\n      pop\n      jump\t// out\n        /* \"#utility.yul\":13468:13737   */\n    tag_105:\n        /* \"#utility.yul\":13578:13617   */\n      tag_244\n        /* \"#utility.yul\":13609:13616   */\n      dup4\n        /* \"#utility.yul\":13578:13617   */\n      tag_103\n      jump\t// in\n    tag_244:\n        /* \"#utility.yul\":13639:13730   */\n      tag_245\n        /* \"#utility.yul\":13688:13729   */\n      tag_246\n        /* \"#utility.yul\":13712:13728   */\n      dup3\n        /* \"#utility.yul\":13688:13729   */\n      tag_104\n      jump\t// in\n    tag_246:\n        /* \"#utility.yul\":13680:13686   */\n      dup5\n        /* \"#utility.yul\":13673:13677   */\n      dup5\n        /* \"#utility.yul\":13667:13678   */\n      sload\n        /* \"#utility.yul\":13639:13730   */\n      tag_101\n      jump\t// in\n    tag_245:\n        /* \"#utility.yul\":13633:13637   */\n      dup3\n        /* \"#utility.yul\":13626:13731   */\n      sstore\n        /* \"#utility.yul\":13544:13737   */\n      pop\n        /* \"#utility.yul\":13468:13737   */\n      pop\n      pop\n      pop\n      jump\t// out\n        /* \"#utility.yul\":13743:13816   */\n    tag_106:\n        /* \"#utility.yul\":13788:13791   */\n      0x00\n        /* \"#utility.yul\":13743:13816   */\n      swap1\n      jump\t// out\n        /* \"#utility.yul\":13822:14011   */\n    tag_107:\n        /* \"#utility.yul\":13899:13931   */\n      tag_249\n      tag_106\n      jump\t// in\n    tag_249:\n        /* \"#utility.yul\":13940:14005   */\n      tag_250\n        /* \"#utility.yul\":13998:14004   */\n      dup2\n        /* \"#utility.yul\":13990:13996   */\n      dup5\n        /* \"#utility.yul\":13984:13988   */\n      dup5\n        /* \"#utility.yul\":13940:14005   */\n      tag_105\n      jump\t// in\n    tag_250:\n        /* \"#utility.yul\":13875:14011   */\n      pop\n        /* \"#utility.yul\":13822:14011   */\n      pop\n      pop\n      jump\t// out\n        /* \"#utility.yul\":14017:14203   */\n    tag_108:\n        /* \"#utility.yul\":14077:14197   */\n    tag_252:\n        /* \"#utility.yul\":14094:14097   */\n      dup2\n        /* \"#utility.yul\":14087:14092   */\n      dup2\n        /* \"#utility.yul\":14084:14098   */\n      lt\n        /* \"#utility.yul\":14077:14197   */\n      iszero\n      tag_254\n      jumpi\n        /* \"#utility.yul\":14148:14187   */\n      tag_255\n        /* \"#utility.yul\":14185:14186   */\n      0x00\n        /* \"#utility.yul\":14178:14183   */\n      dup3\n        /* \"#utility.yul\":14148:14187   */\n      tag_107\n      jump\t// in\n    tag_255:\n        /* \"#utility.yul\":14121:14122   */\n      0x01\n        /* \"#utility.yul\":14114:14119   */\n      dup2\n        /* \"#utility.yul\":14110:14123   */\n      add\n        /* \"#utility.yul\":14101:14123   */\n      swap1\n      pop\n        /* \"#utility.yul\":14077:14197   */\n      jump(tag_252)\n    tag_254:\n        /* \"#utility.yul\":14017:14203   */\n      pop\n      pop\n      jump\t// out\n        /* \"#utility.yul\":14209:14752   */\n    tag_109:\n        /* \"#utility.yul\":14310:14312   */\n      0x1f\n        /* \"#utility.yul\":14305:14308   */\n      dup3\n        /* \"#utility.yul\":14302:14313   */\n      gt\n        /* \"#utility.yul\":14299:14745   */\n      iszero\n      tag_257\n      jumpi\n        /* \"#utility.yul\":14344:14382   */\n      tag_258\n        /* \"#utility.yul\":14376:14381   */\n      dup2\n        /* \"#utility.yul\":14344:14382   */\n      tag_98\n      jump\t// in\n    tag_258:\n        /* \"#utility.yul\":14428:14457   */\n      tag_259\n        /* \"#utility.yul\":14446:14456   */\n      dup5\n        /* \"#utility.yul\":14428:14457   */\n      tag_99\n      jump\t// in\n    tag_259:\n        /* \"#utility.yul\":14418:14426   */\n      dup2\n        /* \"#utility.yul\":14414:14458   */\n      add\n        /* \"#utility.yul\":14611:14613   */\n      0x20\n        /* \"#utility.yul\":14599:14609   */\n      dup6\n        /* \"#utility.yul\":14596:14614   */\n      lt\n        /* \"#utility.yul\":14593:14642   */\n      iszero\n      tag_260\n      jumpi\n        /* \"#utility.yul\":14632:14640   */\n      dup2\n        /* \"#utility.yul\":14617:14640   */\n      swap1\n      pop\n        /* \"#utility.yul\":14593:14642   */\n    tag_260:\n        /* \"#utility.yul\":14655:14735   */\n      tag_261\n        /* \"#utility.yul\":14711:14733   */\n      tag_262\n        /* \"#utility.yul\":14729:14732   */\n      dup6\n        /* \"#utility.yul\":14711:14733   */\n      tag_99\n      jump\t// in\n    tag_262:\n        /* \"#utility.yul\":14701:14709   */\n      dup4\n        /* \"#utility.yul\":14697:14734   */\n      add\n        /* \"#utility.yul\":14684:14695   */\n      dup3\n        /* \"#utility.yul\":14655:14735   */\n      tag_108\n      jump\t// in\n    tag_261:\n        /* \"#utility.yul\":14314:14745   */\n      pop\n      pop\n        /* \"#utility.yul\":14299:14745   */\n    tag_257:\n        /* \"#utility.yul\":14209:14752   */\n      pop\n      pop\n      pop\n      jump\t// out\n        /* \"#utility.yul\":14758:14875   */\n    tag_110:\n        /* \"#utility.yul\":14812:14820   */\n      0x00\n        /* \"#utility.yul\":14862:14867   */\n      dup3\n        /* \"#utility.yul\":14856:14860   */\n      dup3\n        /* \"#utility.yul\":14852:14868   */\n      shr\n        /* \"#utility.yul\":14831:14868   */\n      swap1\n      pop\n        /* \"#utility.yul\":14758:14875   */\n      swap3\n      swap2\n      pop\n      pop\n      jump\t// out\n        /* \"#utility.yul\":14881:15050   */\n    tag_111:\n        /* \"#utility.yul\":14925:14931   */\n      0x00\n        /* \"#utility.yul\":14958:15009   */\n      tag_265\n        /* \"#utility.yul\":15006:15007   */\n      0x00\n        /* \"#utility.yul\":15002:15008   */\n      not\n        /* \"#utility.yul\":14994:14999   */\n      dup5\n        /* \"#utility.yul\":14991:14992   */\n      0x08\n        /* \"#utility.yul\":14987:15000   */\n      mul\n        /* \"#utility.yul\":14958:15009   */\n      tag_110\n      jump\t// in\n    tag_265:\n        /* \"#utility.yul\":14954:15010   */\n      not\n        /* \"#utility.yul\":15039:15043   */\n      dup1\n        /* \"#utility.yul\":15033:15037   */\n      dup4\n        /* \"#utility.yul\":15029:15044   */\n      and\n        /* \"#utility.yul\":15019:15044   */\n      swap2\n      pop\n        /* \"#utility.yul\":14932:15050   */\n      pop\n        /* \"#utility.yul\":14881:15050   */\n      swap3\n      swap2\n      pop\n      pop\n      jump\t// out\n        /* \"#utility.yul\":15055:15350   */\n    tag_112:\n        /* \"#utility.yul\":15131:15135   */\n      0x00\n        /* \"#utility.yul\":15277:15306   */\n      tag_267\n        /* \"#utility.yul\":15302:15305   */\n      dup4\n        /* \"#utility.yul\":15296:15300   */\n      dup4\n        /* \"#utility.yul\":15277:15306   */\n      tag_111\n      jump\t// in\n    tag_267:\n        /* \"#utility.yul\":15269:15306   */\n      swap2\n      pop\n        /* \"#utility.yul\":15339:15342   */\n      dup3\n        /* \"#utility.yul\":15336:15337   */\n      0x02\n        /* \"#utility.yul\":15332:15343   */\n      mul\n        /* \"#utility.yul\":15326:15330   */\n      dup3\n        /* \"#utility.yul\":15323:15344   */\n      or\n        /* \"#utility.yul\":15315:15344   */\n      swap1\n      pop\n        /* \"#utility.yul\":15055:15350   */\n      swap3\n      swap2\n      pop\n      pop\n      jump\t// out\n        /* \"#utility.yul\":15355:16750   */\n    tag_59:\n        /* \"#utility.yul\":15472:15509   */\n      tag_269\n        /* \"#utility.yul\":15505:15508   */\n      dup3\n        /* \"#utility.yul\":15472:15509   */\n      tag_70\n      jump\t// in\n    tag_269:\n        /* \"#utility.yul\":15574:15592   */\n      0xffffffffffffffff\n        /* \"#utility.yul\":15566:15572   */\n      dup2\n        /* \"#utility.yul\":15563:15593   */\n      gt\n        /* \"#utility.yul\":15560:15616   */\n      iszero\n      tag_270\n      jumpi\n        /* \"#utility.yul\":15596:15614   */\n      tag_271\n      tag_79\n      jump\t// in\n    tag_271:\n        /* \"#utility.yul\":15560:15616   */\n    tag_270:\n        /* \"#utility.yul\":15640:15678   */\n      tag_272\n        /* \"#utility.yul\":15672:15676   */\n      dup3\n        /* \"#utility.yul\":15666:15677   */\n      sload\n        /* \"#utility.yul\":15640:15678   */\n      tag_45\n      jump\t// in\n    tag_272:\n        /* \"#utility.yul\":15725:15792   */\n      tag_273\n        /* \"#utility.yul\":15785:15791   */\n      dup3\n        /* \"#utility.yul\":15777:15783   */\n      dup3\n        /* \"#utility.yul\":15771:15775   */\n      dup6\n        /* \"#utility.yul\":15725:15792   */\n      tag_109\n      jump\t// in\n    tag_273:\n        /* \"#utility.yul\":15819:15820   */\n      0x00\n        /* \"#utility.yul\":15843:15847   */\n      0x20\n        /* \"#utility.yul\":15830:15847   */\n      swap1\n      pop\n        /* \"#utility.yul\":15875:15877   */\n      0x1f\n        /* \"#utility.yul\":15867:15873   */\n      dup4\n        /* \"#utility.yul\":15864:15878   */\n      gt\n        /* \"#utility.yul\":15892:15893   */\n      0x01\n        /* \"#utility.yul\":15887:16505   */\n      dup2\n      eq\n      tag_275\n      jumpi\n        /* \"#utility.yul\":16549:16550   */\n      0x00\n        /* \"#utility.yul\":16566:16572   */\n      dup5\n        /* \"#utility.yul\":16563:16640   */\n      iszero\n      tag_276\n      jumpi\n        /* \"#utility.yul\":16615:16624   */\n      dup3\n        /* \"#utility.yul\":16610:16613   */\n      dup8\n        /* \"#utility.yul\":16606:16625   */\n      add\n        /* \"#utility.yul\":16600:16626   */\n      mload\n        /* \"#utility.yul\":16591:16626   */\n      swap1\n      pop\n        /* \"#utility.yul\":16563:16640   */\n    tag_276:\n        /* \"#utility.yul\":16666:16733   */\n      tag_277\n        /* \"#utility.yul\":16726:16732   */\n      dup6\n        /* \"#utility.yul\":16719:16724   */\n      dup3\n        /* \"#utility.yul\":16666:16733   */\n      tag_112\n      jump\t// in\n    tag_277:\n        /* \"#utility.yul\":16660:16664   */\n      dup7\n        /* \"#utility.yul\":16653:16734   */\n      sstore\n        /* \"#utility.yul\":16522:16744   */\n      pop\n        /* \"#utility.yul\":15857:16744   */\n      jump(tag_274)\n        /* \"#utility.yul\":15887:16505   */\n    tag_275:\n        /* \"#utility.yul\":15939:15943   */\n      0x1f\n        /* \"#utility.yul\":15935:15944   */\n      not\n        /* \"#utility.yul\":15927:15933   */\n      dup5\n        /* \"#utility.yul\":15923:15945   */\n      and\n        /* \"#utility.yul\":15973:16010   */\n      tag_278\n        /* \"#utility.yul\":16005:16009   */\n      dup7\n        /* \"#utility.yul\":15973:16010   */\n      tag_98\n      jump\t// in\n    tag_278:\n        /* \"#utility.yul\":16032:16033   */\n      0x00\n        /* \"#utility.yul\":16046:16254   */\n    tag_279:\n        /* \"#utility.yul\":16060:16067   */\n      dup3\n        /* \"#utility.yul\":16057:16058   */\n      dup2\n        /* \"#utility.yul\":16054:16068   */\n      lt\n        /* \"#utility.yul\":16046:16254   */\n      iszero\n      tag_281\n      jumpi\n        /* \"#utility.yul\":16139:16148   */\n      dup5\n        /* \"#utility.yul\":16134:16137   */\n      dup10\n        /* \"#utility.yul\":16130:16149   */\n      add\n        /* \"#utility.yul\":16124:16150   */\n      mload\n        /* \"#utility.yul\":16116:16122   */\n      dup3\n        /* \"#utility.yul\":16109:16151   */\n      sstore\n        /* \"#utility.yul\":16190:16191   */\n      0x01\n        /* \"#utility.yul\":16182:16188   */\n      dup3\n        /* \"#utility.yul\":16178:16192   */\n      add\n        /* \"#utility.yul\":16168:16192   */\n      swap2\n      pop\n        /* \"#utility.yul\":16237:16239   */\n      0x20\n        /* \"#utility.yul\":16226:16235   */\n      dup6\n        /* \"#utility.yul\":16222:16240   */\n      add\n        /* \"#utility.yul\":16209:16240   */\n      swap5\n      pop\n        /* \"#utility.yul\":16083:16087   */\n      0x20\n        /* \"#utility.yul\":16080:16081   */\n      dup2\n        /* \"#utility.yul\":16076:16088   */\n      add\n        /* \"#utility.yul\":16071:16088   */\n      swap1\n      pop\n        /* \"#utility.yul\":16046:16254   */\n      jump(tag_279)\n    tag_281:\n        /* \"#utility.yul\":16282:16288   */\n      dup7\n        /* \"#utility.yul\":16273:16280   */\n      dup4\n        /* \"#utility.yul\":16270:16289   */\n      lt\n        /* \"#utility.yul\":16267:16446   */\n      iszero\n      tag_282\n      jumpi\n        /* \"#utility.yul\":16340:16349   */\n      dup5\n        /* \"#utility.yul\":16335:16338   */\n      dup10\n        /* \"#utility.yul\":16331:16350   */\n      add\n        /* \"#utility.yul\":16325:16351   */\n      mload\n        /* \"#utility.yul\":16383:16431   */\n      tag_283\n        /* \"#utility.yul\":16425:16429   */\n      0x1f\n        /* \"#utility.yul\":16417:16423   */\n      dup10\n        /* \"#utility.yul\":16413:16430   */\n      and\n        /* \"#utility.yul\":16402:16411   */\n      dup3\n        /* \"#utility.yul\":16383:16431   */\n      tag_111\n      jump\t// in\n    tag_283:\n        /* \"#utility.yul\":16375:16381   */\n      dup4\n        /* \"#utility.yul\":16368:16432   */\n      sstore\n        /* \"#utility.yul\":16290:16446   */\n      pop\n        /* \"#utility.yul\":16267:16446   */\n    tag_282:\n        /* \"#utility.yul\":16492:16493   */\n      0x01\n        /* \"#utility.yul\":16488:16489   */\n      0x02\n        /* \"#utility.yul\":16480:16486   */\n      dup9\n        /* \"#utility.yul\":16476:16490   */\n      mul\n        /* \"#utility.yul\":16472:16494   */\n      add\n        /* \"#utility.yul\":16466:16470   */\n      dup9\n        /* \"#utility.yul\":16459:16495   */\n      sstore\n        /* \"#utility.yul\":15894:16505   */\n      pop\n      pop\n      pop\n        /* \"#utility.yul\":15857:16744   */\n    tag_274:\n      pop\n        /* \"#utility.yul\":15447:16750   */\n      pop\n      pop\n      pop\n        /* \"#utility.yul\":15355:16750   */\n      pop\n      pop\n      jump\t// out\n\n    auxdata: 0xa2646970667358221220a492359e1a5be8b31a6fd03964d4843e0dcea0c729db4847e59c11b17bb60a4164736f6c634300080f0033\n}\n",
				"bytecode": {
					"linkReferences": {},
					"object": "608060405234801561001057600080fd5b50336000806101000a81548173ffffffffffffffffffffffffffffffffffffffff021916908373ffffffffffffffffffffffffffffffffffffffff16021790555061012c4261005f91906100a3565b6002819055506100f9565b6000819050919050565b7f4e487b7100000000000000000000000000000000000000000000000000000000600052601160045260246000fd5b60006100ae8261006a565b91506100b98361006a565b9250827fffffffffffffffffffffffffffffffffffffffffffffffffffffffffffffffff038211156100ee576100ed610074565b5b828201905092915050565b610f12806101086000396000f3fe608060405234801561001057600080fd5b50600436106100625760003560e01c80630354d7bb14610067578063036ee850146100855780630d15fd77146100a35780635ba55a77146100c15780638ab66a90146100cb578063b0d30d2f146100fe575b600080fd5b61006f61011a565b60405161007c919061061e565b60405180910390f35b61008d61013e565b60405161009a9190610652565b60405180910390f35b6100ab610144565b6040516100b89190610652565b60405180910390f35b6100c961014a565b005b6100e560048036038101906100e091906106ad565b6102ad565b6040516100f5949392919061078e565b60405180910390f35b6101186004803603810190610113919061090f565b61039f565b005b60008054906101000a900473ffffffffffffffffffffffffffffffffffffffff1681565b60025481565b60015481565b6000600360003373ffffffffffffffffffffffffffffffffffffffff1673ffffffffffffffffffffffffffffffffffffffff16815260200190815260200160002090508060020160019054906101000a900460ff166101de576040517f08c379a00000000000000000000000000000000000000000000000000000000081526004016101d5906109b7565b60405180910390fd5b8060020160009054906101000a900460ff1615610230576040517f08c379a000000000000000000000000000000000000000000000000000000000815260040161022790610a23565b60405180910390fd5b600254421115610275576040517f08c379a000000000000000000000000000000000000000000000000000000000815260040161026c90610a8f565b60405180910390fd5b60018160020160006101000a81548160ff021916908315150217905550600160008154809291906102a590610ade565b919050555050565b60036020528060005260406000206000915090508060000160009054906101000a900473ffffffffffffffffffffffffffffffffffffffff16908060010180546102f690610b55565b80601f016020809104026020016040519081016040528092919081815260200182805461032290610b55565b801561036f5780601f106103445761010080835404028352916020019161036f565b820191906000526020600020905b81548152906001019060200180831161035257829003601f168201915b5050505050908060020160009054906101000a900460ff16908060020160019054906101000a900460ff16905084565b60008054906101000a900473ffffffffffffffffffffffffffffffffffffffff1673ffffffffffffffffffffffffffffffffffffffff163373ffffffffffffffffffffffffffffffffffffffff161461042d576040517f08c379a000000000000000000000000000000000000000000000000000000000815260040161042490610bd2565b60405180910390fd5b600360008373ffffffffffffffffffffffffffffffffffffffff1673ffffffffffffffffffffffffffffffffffffffff16815260200190815260200160002060020160019054906101000a900460ff16156104bd576040517f08c379a00000000000000000000000000000000000000000000000000000000081526004016104b490610c3e565b60405180910390fd5b60405180608001604052808373ffffffffffffffffffffffffffffffffffffffff16815260200182815260200160001515815260200160011515815250600360008473ffffffffffffffffffffffffffffffffffffffff1673ffffffffffffffffffffffffffffffffffffffff16815260200190815260200160002060008201518160000160006101000a81548173ffffffffffffffffffffffffffffffffffffffff021916908373ffffffffffffffffffffffffffffffffffffffff16021790555060208201518160010190816105959190610e0a565b5060408201518160020160006101000a81548160ff02191690831515021790555060608201518160020160016101000a81548160ff0219169083151502179055509050505050565b600073ffffffffffffffffffffffffffffffffffffffff82169050919050565b6000610608826105dd565b9050919050565b610618816105fd565b82525050565b6000602082019050610633600083018461060f565b92915050565b6000819050919050565b61064c81610639565b82525050565b60006020820190506106676000830184610643565b92915050565b6000604051905090565b600080fd5b600080fd5b61068a816105fd565b811461069557600080fd5b50565b6000813590506106a781610681565b92915050565b6000602082840312156106c3576106c2610677565b5b60006106d184828501610698565b91505092915050565b600081519050919050565b600082825260208201905092915050565b60005b838110156107145780820151818401526020810190506106f9565b83811115610723576000848401525b50505050565b6000601f19601f8301169050919050565b6000610745826106da565b61074f81856106e5565b935061075f8185602086016106f6565b61076881610729565b840191505092915050565b60008115159050919050565b61078881610773565b82525050565b60006080820190506107a3600083018761060f565b81810360208301526107b5818661073a565b90506107c4604083018561077f565b6107d1606083018461077f565b95945050505050565b600080fd5b600080fd5b7f4e487b7100000000000000000000000000000000000000000000000000000000600052604160045260246000fd5b61081c82610729565b810181811067ffffffffffffffff8211171561083b5761083a6107e4565b5b80604052505050565b600061084e61066d565b905061085a8282610813565b919050565b600067ffffffffffffffff82111561087a576108796107e4565b5b61088382610729565b9050602081019050919050565b82818337600083830152505050565b60006108b26108ad8461085f565b610844565b9050828152602081018484840111156108ce576108cd6107df565b5b6108d9848285610890565b509392505050565b600082601f8301126108f6576108f56107da565b5b813561090684826020860161089f565b91505092915050565b6000806040838503121561092657610925610677565b5b600061093485828601610698565b925050602083013567ffffffffffffffff8111156109555761095461067c565b5b610961858286016108e1565b9150509250929050565b7f4e6f742072656769737465726564000000000000000000000000000000000000600082015250565b60006109a1600e836106e5565b91506109ac8261096b565b602082019050919050565b600060208201905081810360008301526109d081610994565b9050919050565b7f416c726561647920766f74656400000000000000000000000000000000000000600082015250565b6000610a0d600d836106e5565b9150610a18826109d7565b602082019050919050565b60006020820190508181036000830152610a3c81610a00565b9050919050565b7f566f74696e6720706572696f6420656e64656400000000000000000000000000600082015250565b6000610a796013836106e5565b9150610a8482610a43565b602082019050919050565b60006020820190508181036000830152610aa881610a6c565b9050919050565b7f4e487b7100000000000000000000000000000000000000000000000000000000600052601160045260246000fd5b6000610ae982610639565b91507fffffffffffffffffffffffffffffffffffffffffffffffffffffffffffffffff8203610b1b57610b1a610aaf565b5b600182019050919050565b7f4e487b7100000000000000000000000000000000000000000000000000000000600052602260045260246000fd5b60006002820490506001821680610b6d57607f821691505b602082108103610b8057610b7f610b26565b5b50919050565b7f554e415554484f52495a45440000000000000000000000000000000000000000600082015250565b6000610bbc600c836106e5565b9150610bc782610b86565b602082019050919050565b60006020820190508181036000830152610beb81610baf565b9050919050565b7f416c726561647920726567697374657265640000000000000000000000000000600082015250565b6000610c286012836106e5565b9150610c3382610bf2565b602082019050919050565b60006020820190508181036000830152610c5781610c1b565b9050919050565b60008190508160005260206000209050919050565b60006020601f8301049050919050565b600082821b905092915050565b600060088302610cc07fffffffffffffffffffffffffffffffffffffffffffffffffffffffffffffffff82610c83565b610cca8683610c83565b95508019841693508086168417925050509392505050565b6000819050919050565b6000610d07610d02610cfd84610639565b610ce2565b610639565b9050919050565b6000819050919050565b610d2183610cec565b610d35610d2d82610d0e565b848454610c90565b825550505050565b600090565b610d4a610d3d565b610d55818484610d18565b505050565b5b81811015610d7957610d6e600082610d42565b600181019050610d5b565b5050565b601f821115610dbe57610d8f81610c5e565b610d9884610c73565b81016020851015610da7578190505b610dbb610db385610c73565b830182610d5a565b50505b505050565b600082821c905092915050565b6000610de160001984600802610dc3565b1980831691505092915050565b6000610dfa8383610dd0565b9150826002028217905092915050565b610e13826106da565b67ffffffffffffffff811115610e2c57610e2b6107e4565b5b610e368254610b55565b610e41828285610d7d565b600060209050601f831160018114610e745760008415610e62578287015190505b610e6c8582610dee565b865550610ed4565b601f198416610e8286610c5e565b60005b82811015610eaa57848901518255600182019150602085019450602081019050610e85565b86831015610ec75784890151610ec3601f891682610dd0565b8355505b6001600288020188555050505b50505050505056fea2646970667358221220a492359e1a5be8b31a6fd03964d4843e0dcea0c729db4847e59c11b17bb60a4164736f6c634300080f0033",
					"opcodes": "PUSH1 0x80 PUSH1 0x40 MSTORE CALLVALUE DUP1 ISZERO PUSH2 0x10 JUMPI PUSH1 0x0 DUP1 REVERT JUMPDEST POP CALLER PUSH1 0x0 DUP1 PUSH2 0x100 EXP DUP2 SLOAD DUP2 PUSH20 0xFFFFFFFFFFFFFFFFFFFFFFFFFFFFFFFFFFFFFFFF MUL NOT AND SWAP1 DUP4 PUSH20 0xFFFFFFFFFFFFFFFFFFFFFFFFFFFFFFFFFFFFFFFF AND MUL OR SWAP1 SSTORE POP PUSH2 0x12C TIMESTAMP PUSH2 0x5F SWAP2 SWAP1 PUSH2 0xA3 JUMP JUMPDEST PUSH1 0x2 DUP2 SWAP1 SSTORE POP PUSH2 0xF9 JUMP JUMPDEST PUSH1 0x0 DUP2 SWAP1 POP SWAP2 SWAP1 POP JUMP JUMPDEST PUSH32 0x4E487B7100000000000000000000000000000000000000000000000000000000 PUSH1 0x0 MSTORE PUSH1 0x11 PUSH1 0x4 MSTORE PUSH1 0x24 PUSH1 0x0 REVERT JUMPDEST PUSH1 0x0 PUSH2 0xAE DUP3 PUSH2 0x6A JUMP JUMPDEST SWAP2 POP PUSH2 0xB9 DUP4 PUSH2 0x6A JUMP JUMPDEST SWAP3 POP DUP3 PUSH32 0xFFFFFFFFFFFFFFFFFFFFFFFFFFFFFFFFFFFFFFFFFFFFFFFFFFFFFFFFFFFFFFFF SUB DUP3 GT ISZERO PUSH2 0xEE JUMPI PUSH2 0xED PUSH2 0x74 JUMP JUMPDEST JUMPDEST DUP3 DUP3 ADD SWAP1 POP SWAP3 SWAP2 POP POP JUMP JUMPDEST PUSH2 0xF12 DUP1 PUSH2 0x108 PUSH1 0x0 CODECOPY PUSH1 0x0 RETURN INVALID PUSH1 0x80 PUSH1 0x40 MSTORE CALLVALUE DUP1 ISZERO PUSH2 0x10 JUMPI PUSH1 0x0 DUP1 REVERT JUMPDEST POP PUSH1 0x4 CALLDATASIZE LT PUSH2 0x62 JUMPI PUSH1 0x0 CALLDATALOAD PUSH1 0xE0 SHR DUP1 PUSH4 0x354D7BB EQ PUSH2 0x67 JUMPI DUP1 PUSH4 0x36EE850 EQ PUSH2 0x85 JUMPI DUP1 PUSH4 0xD15FD77 EQ PUSH2 0xA3 JUMPI DUP1 PUSH4 0x5BA55A77 EQ PUSH2 0xC1 JUMPI DUP1 PUSH4 0x8AB66A90 EQ PUSH2 0xCB JUMPI DUP1 PUSH4 0xB0D30D2F EQ PUSH2 0xFE JUMPI JUMPDEST PUSH1 0x0 DUP1 REVERT JUMPDEST PUSH2 0x6F PUSH2 0x11A JUMP JUMPDEST PUSH1 0x40 MLOAD PUSH2 0x7C SWAP2 SWAP1 PUSH2 0x61E JUMP JUMPDEST PUSH1 0x40 MLOAD DUP1 SWAP2 SUB SWAP1 RETURN JUMPDEST PUSH2 0x8D PUSH2 0x13E JUMP JUMPDEST PUSH1 0x40 MLOAD PUSH2 0x9A SWAP2 SWAP1 PUSH2 0x652 JUMP JUMPDEST PUSH1 0x40 MLOAD DUP1 SWAP2 SUB SWAP1 RETURN JUMPDEST PUSH2 0xAB PUSH2 0x144 JUMP JUMPDEST PUSH1 0x40 MLOAD PUSH2 0xB8 SWAP2 SWAP1 PUSH2 0x652 JUMP JUMPDEST PUSH1 0x40 MLOAD DUP1 SWAP2 SUB SWAP1 RETURN JUMPDEST PUSH2 0xC9 PUSH2 0x14A JUMP JUMPDEST STOP JUMPDEST PUSH2 0xE5 PUSH1 0x4 DUP1 CALLDATASIZE SUB DUP2 ADD SWAP1 PUSH2 0xE0 SWAP2 SWAP1 PUSH2 0x6AD JUMP JUMPDEST PUSH2 0x2AD JUMP JUMPDEST PUSH1 0x40 MLOAD PUSH2 0xF5 SWAP5 SWAP4 SWAP3 SWAP2 SWAP1 PUSH2 0x78E JUMP JUMPDEST PUSH1 0x40 MLOAD DUP1 SWAP2 SUB SWAP1 RETURN JUMPDEST PUSH2 0x118 PUSH1 0x4 DUP1 CALLDATASIZE SUB DUP2 ADD SWAP1 PUSH2 0x113 SWAP2 SWAP1 PUSH2 0x90F JUMP JUMPDEST PUSH2 0x39F JUMP JUMPDEST STOP JUMPDEST PUSH1 0x0 DUP1 SLOAD SWAP1 PUSH2 0x100 EXP SWAP1 DIV PUSH20 0xFFFFFFFFFFFFFFFFFFFFFFFFFFFFFFFFFFFFFFFF AND DUP2 JUMP JUMPDEST PUSH1 0x2 SLOAD DUP2 JUMP JUMPDEST PUSH1 0x1 SLOAD DUP2 JUMP JUMPDEST PUSH1 0x0 PUSH1 0x3 PUSH1 0x0 CALLER PUSH20 0xFFFFFFFFFFFFFFFFFFFFFFFFFFFFFFFFFFFFFFFF AND PUSH20 0xFFFFFFFFFFFFFFFFFFFFFFFFFFFFFFFFFFFFFFFF AND DUP2 MSTORE PUSH1 0x20 ADD SWAP1 DUP2 MSTORE PUSH1 0x20 ADD PUSH1 0x0 KECCAK256 SWAP1 POP DUP1 PUSH1 0x2 ADD PUSH1 0x1 SWAP1 SLOAD SWAP1 PUSH2 0x100 EXP SWAP1 DIV PUSH1 0xFF AND PUSH2 0x1DE JUMPI PUSH1 0x40 MLOAD PUSH32 0x8C379A000000000000000000000000000000000000000000000000000000000 DUP2 MSTORE PUSH1 0x4 ADD PUSH2 0x1D5 SWAP1 PUSH2 0x9B7 JUMP JUMPDEST PUSH1 0x40 MLOAD DUP1 SWAP2 SUB SWAP1 REVERT JUMPDEST DUP1 PUSH1 0x2 ADD PUSH1 0x0 SWAP1 SLOAD SWAP1 PUSH2 0x100 EXP SWAP1 DIV PUSH1 0xFF AND ISZERO PUSH2 0x230 JUMPI PUSH1 0x40 MLOAD PUSH32 0x8C379A000000000000000000000000000000000000000000000000000000000 DUP2 MSTORE PUSH1 0x4 ADD PUSH2 0x227 SWAP1 PUSH2 0xA23 JUMP JUMPDEST PUSH1 0x40 MLOAD DUP1 SWAP2 SUB SWAP1 REVERT JUMPDEST PUSH1 0x2 SLOAD TIMESTAMP GT ISZERO PUSH2 0x275 JUMPI PUSH1 0x40 MLOAD PUSH32 0x8C379A000000000000000000000000000000000000000000000000000000000 DUP2 MSTORE PUSH1 0x4 ADD PUSH2 0x26C SWAP1 PUSH2 0xA8F JUMP JUMPDEST PUSH1 0x40 MLOAD DUP1 SWAP2 SUB SWAP1 REVERT JUMPDEST PUSH1 0x1 DUP2 PUSH1 0x2 ADD PUSH1 0x0 PUSH2 0x100 EXP DUP2 SLOAD DUP2 PUSH1 0xFF MUL NOT AND SWAP1 DUP4 ISZERO ISZERO MUL OR SWAP1 SSTORE POP PUSH1 0x1 PUSH1 0x0 DUP2 SLOAD DUP1 SWAP3 SWAP2 SWAP1 PUSH2 0x2A5 SWAP1 PUSH2 0xADE JUMP JUMPDEST SWAP2 SWAP1 POP SSTORE POP POP JUMP JUMPDEST PUSH1 0x3 PUSH1 0x20 MSTORE DUP1 PUSH1 0x0 MSTORE PUSH1 0x40 PUSH1 0x0 KECCAK256 PUSH1 0x0 SWAP2 POP SWAP1 POP DUP1 PUSH1 0x0 ADD PUSH1 0x0 SWAP1 SLOAD SWAP1 PUSH2 0x100 EXP SWAP1 DIV PUSH20 0xFFFFFFFFFFFFFFFFFFFFFFFFFFFFFFFFFFFFFFFF AND SWAP1 DUP1 PUSH1 0x1 ADD DUP1 SLOAD PUSH2 0x2F6 SWAP1 PUSH2 0xB55 JUMP JUMPDEST DUP1 PUSH1 0x1F ADD PUSH1 0x20 DUP1 SWAP2 DIV MUL PUSH1 0x20 ADD PUSH1 0x40 MLOAD SWAP1 DUP2 ADD PUSH1 0x40 MSTORE DUP1 SWAP3 SWAP2 SWAP1 DUP2 DUP2 MSTORE PUSH1 0x20 ADD DUP3 DUP1 SLOAD PUSH2 0x322 SWAP1 PUSH2 0xB55 JUMP JUMPDEST DUP1 ISZERO PUSH2 0x36F JUMPI DUP1 PUSH1 0x1F LT PUSH2 0x344 JUMPI PUSH2 0x100 DUP1 DUP4 SLOAD DIV MUL DUP4 MSTORE SWAP2 PUSH1 0x20 ADD SWAP2 PUSH2 0x36F JUMP JUMPDEST DUP3 ADD SWAP2 SWAP1 PUSH1 0x0 MSTORE PUSH1 0x20 PUSH1 0x0 KECCAK256 SWAP1 JUMPDEST DUP2 SLOAD DUP2 MSTORE SWAP1 PUSH1 0x1 ADD SWAP1 PUSH1 0x20 ADD DUP1 DUP4 GT PUSH2 0x352 JUMPI DUP3 SWAP1 SUB PUSH1 0x1F AND DUP3 ADD SWAP2 JUMPDEST POP POP POP POP POP SWAP1 DUP1 PUSH1 0x2 ADD PUSH1 0x0 SWAP1 SLOAD SWAP1 PUSH2 0x100 EXP SWAP1 DIV PUSH1 0xFF AND SWAP1 DUP1 PUSH1 0x2 ADD PUSH1 0x1 SWAP1 SLOAD SWAP1 PUSH2 0x100 EXP SWAP1 DIV PUSH1 0xFF AND SWAP1 POP DUP5 JUMP JUMPDEST PUSH1 0x0 DUP1 SLOAD SWAP1 PUSH2 0x100 EXP SWAP1 DIV PUSH20 0xFFFFFFFFFFFFFFFFFFFFFFFFFFFFFFFFFFFFFFFF AND PUSH20 0xFFFFFFFFFFFFFFFFFFFFFFFFFFFFFFFFFFFFFFFF AND CALLER PUSH20 0xFFFFFFFFFFFFFFFFFFFFFFFFFFFFFFFFFFFFFFFF AND EQ PUSH2 0x42D JUMPI PUSH1 0x40 MLOAD PUSH32 0x8C379A000000000000000000000000000000000000000000000000000000000 DUP2 MSTORE PUSH1 0x4 ADD PUSH2 0x424 SWAP1 PUSH2 0xBD2 JUMP JUMPDEST PUSH1 0x40 MLOAD DUP1 SWAP2 SUB SWAP1 REVERT JUMPDEST PUSH1 0x3 PUSH1 0x0 DUP4 PUSH20 0xFFFFFFFFFFFFFFFFFFFFFFFFFFFFFFFFFFFFFFFF AND PUSH20 0xFFFFFFFFFFFFFFFFFFFFFFFFFFFFFFFFFFFFFFFF AND DUP2 MSTORE PUSH1 0x20 ADD SWAP1 DUP2 MSTORE PUSH1 0x20 ADD PUSH1 0x0 KECCAK256 PUSH1 0x2 ADD PUSH1 0x1 SWAP1 SLOAD SWAP1 PUSH2 0x100 EXP SWAP1 DIV PUSH1 0xFF AND ISZERO PUSH2 0x4BD JUMPI PUSH1 0x40 MLOAD PUSH32 0x8C379A000000000000000000000000000000000000000000000000000000000 DUP2 MSTORE PUSH1 0x4 ADD PUSH2 0x4B4 SWAP1 PUSH2 0xC3E JUMP JUMPDEST PUSH1 0x40 MLOAD DUP1 SWAP2 SUB SWAP1 REVERT JUMPDEST PUSH1 0x40 MLOAD DUP1 PUSH1 0x80 ADD PUSH1 0x40 MSTORE DUP1 DUP4 PUSH20 0xFFFFFFFFFFFFFFFFFFFFFFFFFFFFFFFFFFFFFFFF AND DUP2 MSTORE PUSH1 0x20 ADD DUP3 DUP2 MSTORE PUSH1 0x20 ADD PUSH1 0x0 ISZERO ISZERO DUP2 MSTORE PUSH1 0x20 ADD PUSH1 0x1 ISZERO ISZERO DUP2 MSTORE POP PUSH1 0x3 PUSH1 0x0 DUP5 PUSH20 0xFFFFFFFFFFFFFFFFFFFFFFFFFFFFFFFFFFFFFFFF AND PUSH20 0xFFFFFFFFFFFFFFFFFFFFFFFFFFFFFFFFFFFFFFFF AND DUP2 MSTORE PUSH1 0x20 ADD SWAP1 DUP2 MSTORE PUSH1 0x20 ADD PUSH1 0x0 KECCAK256 PUSH1 0x0 DUP3 ADD MLOAD DUP2 PUSH1 0x0 ADD PUSH1 0x0 PUSH2 0x100 EXP DUP2 SLOAD DUP2 PUSH20 0xFFFFFFFFFFFFFFFFFFFFFFFFFFFFFFFFFFFFFFFF MUL NOT AND SWAP1 DUP4 PUSH20 0xFFFFFFFFFFFFFFFFFFFFFFFFFFFFFFFFFFFFFFFF AND MUL OR SWAP1 SSTORE POP PUSH1 0x20 DUP3 ADD MLOAD DUP2 PUSH1 0x1 ADD SWAP1 DUP2 PUSH2 0x595 SWAP2 SWAP1 PUSH2 0xE0A JUMP JUMPDEST POP PUSH1 0x40 DUP3 ADD MLOAD DUP2 PUSH1 0x2 ADD PUSH1 0x0 PUSH2 0x100 EXP DUP2 SLOAD DUP2 PUSH1 0xFF MUL NOT AND SWAP1 DUP4 ISZERO ISZERO MUL OR SWAP1 SSTORE POP PUSH1 0x60 DUP3 ADD MLOAD DUP2 PUSH1 0x2 ADD PUSH1 0x1 PUSH2 0x100 EXP DUP2 SLOAD DUP2 PUSH1 0xFF MUL NOT AND SWAP1 DUP4 ISZERO ISZERO MUL OR SWAP1 SSTORE POP SWAP1 POP POP POP POP JUMP JUMPDEST PUSH1 0x0 PUSH20 0xFFFFFFFFFFFFFFFFFFFFFFFFFFFFFFFFFFFFFFFF DUP3 AND SWAP1 POP SWAP2 SWAP1 POP JUMP JUMPDEST PUSH1 0x0 PUSH2 0x608 DUP3 PUSH2 0x5DD JUMP JUMPDEST SWAP1 POP SWAP2 SWAP1 POP JUMP JUMPDEST PUSH2 0x618 DUP2 PUSH2 0x5FD JUMP JUMPDEST DUP3 MSTORE POP POP JUMP JUMPDEST PUSH1 0x0 PUSH1 0x20 DUP3 ADD SWAP1 POP PUSH2 0x633 PUSH1 0x0 DUP4 ADD DUP5 PUSH2 0x60F JUMP JUMPDEST SWAP3 SWAP2 POP POP JUMP JUMPDEST PUSH1 0x0 DUP2 SWAP1 POP SWAP2 SWAP1 POP JUMP JUMPDEST PUSH2 0x64C DUP2 PUSH2 0x639 JUMP JUMPDEST DUP3 MSTORE POP POP JUMP JUMPDEST PUSH1 0x0 PUSH1 0x20 DUP3 ADD SWAP1 POP PUSH2 0x667 PUSH1 0x0 DUP4 ADD DUP5 PUSH2 0x643 JUMP JUMPDEST SWAP3 SWAP2 POP POP JUMP JUMPDEST PUSH1 0x0 PUSH1 0x40 MLOAD SWAP1 POP SWAP1 JUMP JUMPDEST PUSH1 0x0 DUP1 REVERT JUMPDEST PUSH1 0x0 DUP1 REVERT JUMPDEST PUSH2 0x68A DUP2 PUSH2 0x5FD JUMP JUMPDEST DUP2 EQ PUSH2 0x695 JUMPI PUSH1 0x0 DUP1 REVERT JUMPDEST POP JUMP JUMPDEST PUSH1 0x0 DUP2 CALLDATALOAD SWAP1 POP PUSH2 0x6A7 DUP2 PUSH2 0x681 JUMP JUMPDEST SWAP3 SWAP2 POP POP JUMP JUMPDEST PUSH1 0x0 PUSH1 0x20 DUP3 DUP5 SUB SLT ISZERO PUSH2 0x6C3 JUMPI PUSH2 0x6C2 PUSH2 0x677 JUMP JUMPDEST JUMPDEST PUSH1 0x0 PUSH2 0x6D1 DUP5 DUP3 DUP6 ADD PUSH2 0x698 JUMP JUMPDEST SWAP2 POP POP SWAP3 SWAP2 POP POP JUMP JUMPDEST PUSH1 0x0 DUP2 MLOAD SWAP1 POP SWAP2 SWAP1 POP JUMP JUMPDEST PUSH1 0x0 DUP3 DUP3 MSTORE PUSH1 0x20 DUP3 ADD SWAP1 POP SWAP3 SWAP2 POP POP JUMP JUMPDEST PUSH1 0x0 JUMPDEST DUP4 DUP2 LT ISZERO PUSH2 0x714 JUMPI DUP1 DUP3 ADD MLOAD DUP2 DUP5 ADD MSTORE PUSH1 0x20 DUP2 ADD SWAP1 POP PUSH2 0x6F9 JUMP JUMPDEST DUP4 DUP2 GT ISZERO PUSH2 0x723 JUMPI PUSH1 0x0 DUP5 DUP5 ADD MSTORE JUMPDEST POP POP POP POP JUMP JUMPDEST PUSH1 0x0 PUSH1 0x1F NOT PUSH1 0x1F DUP4 ADD AND SWAP1 POP SWAP2 SWAP1 POP JUMP JUMPDEST PUSH1 0x0 PUSH2 0x745 DUP3 PUSH2 0x6DA JUMP JUMPDEST PUSH2 0x74F DUP2 DUP6 PUSH2 0x6E5 JUMP JUMPDEST SWAP4 POP PUSH2 0x75F DUP2 DUP6 PUSH1 0x20 DUP7 ADD PUSH2 0x6F6 JUMP JUMPDEST PUSH2 0x768 DUP2 PUSH2 0x729 JUMP JUMPDEST DUP5 ADD SWAP2 POP POP SWAP3 SWAP2 POP POP JUMP JUMPDEST PUSH1 0x0 DUP2 ISZERO ISZERO SWAP1 POP SWAP2 SWAP1 POP JUMP JUMPDEST PUSH2 0x788 DUP2 PUSH2 0x773 JUMP JUMPDEST DUP3 MSTORE POP POP JUMP JUMPDEST PUSH1 0x0 PUSH1 0x80 DUP3 ADD SWAP1 POP PUSH2 0x7A3 PUSH1 0x0 DUP4 ADD DUP8 PUSH2 0x60F JUMP JUMPDEST DUP2 DUP2 SUB PUSH1 0x20 DUP4 ADD MSTORE PUSH2 0x7B5 DUP2 DUP7 PUSH2 0x73A JUMP JUMPDEST SWAP1 POP PUSH2 0x7C4 PUSH1 0x40 DUP4 ADD DUP6 PUSH2 0x77F JUMP JUMPDEST PUSH2 0x7D1 PUSH1 0x60 DUP4 ADD DUP5 PUSH2 0x77F JUMP JUMPDEST SWAP6 SWAP5 POP POP POP POP POP JUMP JUMPDEST PUSH1 0x0 DUP1 REVERT JUMPDEST PUSH1 0x0 DUP1 REVERT JUMPDEST PUSH32 0x4E487B7100000000000000000000000000000000000000000000000000000000 PUSH1 0x0 MSTORE PUSH1 0x41 PUSH1 0x4 MSTORE PUSH1 0x24 PUSH1 0x0 REVERT JUMPDEST PUSH2 0x81C DUP3 PUSH2 0x729 JUMP JUMPDEST DUP2 ADD DUP2 DUP2 LT PUSH8 0xFFFFFFFFFFFFFFFF DUP3 GT OR ISZERO PUSH2 0x83B JUMPI PUSH2 0x83A PUSH2 0x7E4 JUMP JUMPDEST JUMPDEST DUP1 PUSH1 0x40 MSTORE POP POP POP JUMP JUMPDEST PUSH1 0x0 PUSH2 0x84E PUSH2 0x66D JUMP JUMPDEST SWAP1 POP PUSH2 0x85A DUP3 DUP3 PUSH2 0x813 JUMP JUMPDEST SWAP2 SWAP1 POP JUMP JUMPDEST PUSH1 0x0 PUSH8 0xFFFFFFFFFFFFFFFF DUP3 GT ISZERO PUSH2 0x87A JUMPI PUSH2 0x879 PUSH2 0x7E4 JUMP JUMPDEST JUMPDEST PUSH2 0x883 DUP3 PUSH2 0x729 JUMP JUMPDEST SWAP1 POP PUSH1 0x20 DUP2 ADD SWAP1 POP SWAP2 SWAP1 POP JUMP JUMPDEST DUP3 DUP2 DUP4 CALLDATACOPY PUSH1 0x0 DUP4 DUP4 ADD MSTORE POP POP POP JUMP JUMPDEST PUSH1 0x0 PUSH2 0x8B2 PUSH2 0x8AD DUP5 PUSH2 0x85F JUMP JUMPDEST PUSH2 0x844 JUMP JUMPDEST SWAP1 POP DUP3 DUP2 MSTORE PUSH1 0x20 DUP2 ADD DUP5 DUP5 DUP5 ADD GT ISZERO PUSH2 0x8CE JUMPI PUSH2 0x8CD PUSH2 0x7DF JUMP JUMPDEST JUMPDEST PUSH2 0x8D9 DUP5 DUP3 DUP6 PUSH2 0x890 JUMP JUMPDEST POP SWAP4 SWAP3 POP POP POP JUMP JUMPDEST PUSH1 0x0 DUP3 PUSH1 0x1F DUP4 ADD SLT PUSH2 0x8F6 JUMPI PUSH2 0x8F5 PUSH2 0x7DA JUMP JUMPDEST JUMPDEST DUP2 CALLDATALOAD PUSH2 0x906 DUP5 DUP3 PUSH1 0x20 DUP7 ADD PUSH2 0x89F JUMP JUMPDEST SWAP2 POP POP SWAP3 SWAP2 POP POP JUMP JUMPDEST PUSH1 0x0 DUP1 PUSH1 0x40 DUP4 DUP6 SUB SLT ISZERO PUSH2 0x926 JUMPI PUSH2 0x925 PUSH2 0x677 JUMP JUMPDEST JUMPDEST PUSH1 0x0 PUSH2 0x934 DUP6 DUP3 DUP7 ADD PUSH2 0x698 JUMP JUMPDEST SWAP3 POP POP PUSH1 0x20 DUP4 ADD CALLDATALOAD PUSH8 0xFFFFFFFFFFFFFFFF DUP2 GT ISZERO PUSH2 0x955 JUMPI PUSH2 0x954 PUSH2 0x67C JUMP JUMPDEST JUMPDEST PUSH2 0x961 DUP6 DUP3 DUP7 ADD PUSH2 0x8E1 JUMP JUMPDEST SWAP2 POP POP SWAP3 POP SWAP3 SWAP1 POP JUMP JUMPDEST PUSH32 0x4E6F742072656769737465726564000000000000000000000000000000000000 PUSH1 0x0 DUP3 ADD MSTORE POP JUMP JUMPDEST PUSH1 0x0 PUSH2 0x9A1 PUSH1 0xE DUP4 PUSH2 0x6E5 JUMP JUMPDEST SWAP2 POP PUSH2 0x9AC DUP3 PUSH2 0x96B JUMP JUMPDEST PUSH1 0x20 DUP3 ADD SWAP1 POP SWAP2 SWAP1 POP JUMP JUMPDEST PUSH1 0x0 PUSH1 0x20 DUP3 ADD SWAP1 POP DUP2 DUP2 SUB PUSH1 0x0 DUP4 ADD MSTORE PUSH2 0x9D0 DUP2 PUSH2 0x994 JUMP JUMPDEST SWAP1 POP SWAP2 SWAP1 POP JUMP JUMPDEST PUSH32 0x416C726561647920766F74656400000000000000000000000000000000000000 PUSH1 0x0 DUP3 ADD MSTORE POP JUMP JUMPDEST PUSH1 0x0 PUSH2 0xA0D PUSH1 0xD DUP4 PUSH2 0x6E5 JUMP JUMPDEST SWAP2 POP PUSH2 0xA18 DUP3 PUSH2 0x9D7 JUMP JUMPDEST PUSH1 0x20 DUP3 ADD SWAP1 POP SWAP2 SWAP1 POP JUMP JUMPDEST PUSH1 0x0 PUSH1 0x20 DUP3 ADD SWAP1 POP DUP2 DUP2 SUB PUSH1 0x0 DUP4 ADD MSTORE PUSH2 0xA3C DUP2 PUSH2 0xA00 JUMP JUMPDEST SWAP1 POP SWAP2 SWAP1 POP JUMP JUMPDEST PUSH32 0x566F74696E6720706572696F6420656E64656400000000000000000000000000 PUSH1 0x0 DUP3 ADD MSTORE POP JUMP JUMPDEST PUSH1 0x0 PUSH2 0xA79 PUSH1 0x13 DUP4 PUSH2 0x6E5 JUMP JUMPDEST SWAP2 POP PUSH2 0xA84 DUP3 PUSH2 0xA43 JUMP JUMPDEST PUSH1 0x20 DUP3 ADD SWAP1 POP SWAP2 SWAP1 POP JUMP JUMPDEST PUSH1 0x0 PUSH1 0x20 DUP3 ADD SWAP1 POP DUP2 DUP2 SUB PUSH1 0x0 DUP4 ADD MSTORE PUSH2 0xAA8 DUP2 PUSH2 0xA6C JUMP JUMPDEST SWAP1 POP SWAP2 SWAP1 POP JUMP JUMPDEST PUSH32 0x4E487B7100000000000000000000000000000000000000000000000000000000 PUSH1 0x0 MSTORE PUSH1 0x11 PUSH1 0x4 MSTORE PUSH1 0x24 PUSH1 0x0 REVERT JUMPDEST PUSH1 0x0 PUSH2 0xAE9 DUP3 PUSH2 0x639 JUMP JUMPDEST SWAP2 POP PUSH32 0xFFFFFFFFFFFFFFFFFFFFFFFFFFFFFFFFFFFFFFFFFFFFFFFFFFFFFFFFFFFFFFFF DUP3 SUB PUSH2 0xB1B JUMPI PUSH2 0xB1A PUSH2 0xAAF JUMP JUMPDEST JUMPDEST PUSH1 0x1 DUP3 ADD SWAP1 POP SWAP2 SWAP1 POP JUMP JUMPDEST PUSH32 0x4E487B7100000000000000000000000000000000000000000000000000000000 PUSH1 0x0 MSTORE PUSH1 0x22 PUSH1 0x4 MSTORE PUSH1 0x24 PUSH1 0x0 REVERT JUMPDEST PUSH1 0x0 PUSH1 0x2 DUP3 DIV SWAP1 POP PUSH1 0x1 DUP3 AND DUP1 PUSH2 0xB6D JUMPI PUSH1 0x7F DUP3 AND SWAP2 POP JUMPDEST PUSH1 0x20 DUP3 LT DUP2 SUB PUSH2 0xB80 JUMPI PUSH2 0xB7F PUSH2 0xB26 JUMP JUMPDEST JUMPDEST POP SWAP2 SWAP1 POP JUMP JUMPDEST PUSH32 0x554E415554484F52495A45440000000000000000000000000000000000000000 PUSH1 0x0 DUP3 ADD MSTORE POP JUMP JUMPDEST PUSH1 0x0 PUSH2 0xBBC PUSH1 0xC DUP4 PUSH2 0x6E5 JUMP JUMPDEST SWAP2 POP PUSH2 0xBC7 DUP3 PUSH2 0xB86 JUMP JUMPDEST PUSH1 0x20 DUP3 ADD SWAP1 POP SWAP2 SWAP1 POP JUMP JUMPDEST PUSH1 0x0 PUSH1 0x20 DUP3 ADD SWAP1 POP DUP2 DUP2 SUB PUSH1 0x0 DUP4 ADD MSTORE PUSH2 0xBEB DUP2 PUSH2 0xBAF JUMP JUMPDEST SWAP1 POP SWAP2 SWAP1 POP JUMP JUMPDEST PUSH32 0x416C726561647920726567697374657265640000000000000000000000000000 PUSH1 0x0 DUP3 ADD MSTORE POP JUMP JUMPDEST PUSH1 0x0 PUSH2 0xC28 PUSH1 0x12 DUP4 PUSH2 0x6E5 JUMP JUMPDEST SWAP2 POP PUSH2 0xC33 DUP3 PUSH2 0xBF2 JUMP JUMPDEST PUSH1 0x20 DUP3 ADD SWAP1 POP SWAP2 SWAP1 POP JUMP JUMPDEST PUSH1 0x0 PUSH1 0x20 DUP3 ADD SWAP1 POP DUP2 DUP2 SUB PUSH1 0x0 DUP4 ADD MSTORE PUSH2 0xC57 DUP2 PUSH2 0xC1B JUMP JUMPDEST SWAP1 POP SWAP2 SWAP1 POP JUMP JUMPDEST PUSH1 0x0 DUP2 SWAP1 POP DUP2 PUSH1 0x0 MSTORE PUSH1 0x20 PUSH1 0x0 KECCAK256 SWAP1 POP SWAP2 SWAP1 POP JUMP JUMPDEST PUSH1 0x0 PUSH1 0x20 PUSH1 0x1F DUP4 ADD DIV SWAP1 POP SWAP2 SWAP1 POP JUMP JUMPDEST PUSH1 0x0 DUP3 DUP3 SHL SWAP1 POP SWAP3 SWAP2 POP POP JUMP JUMPDEST PUSH1 0x0 PUSH1 0x8 DUP4 MUL PUSH2 0xCC0 PUSH32 0xFFFFFFFFFFFFFFFFFFFFFFFFFFFFFFFFFFFFFFFFFFFFFFFFFFFFFFFFFFFFFFFF DUP3 PUSH2 0xC83 JUMP JUMPDEST PUSH2 0xCCA DUP7 DUP4 PUSH2 0xC83 JUMP JUMPDEST SWAP6 POP DUP1 NOT DUP5 AND SWAP4 POP DUP1 DUP7 AND DUP5 OR SWAP3 POP POP POP SWAP4 SWAP3 POP POP POP JUMP JUMPDEST PUSH1 0x0 DUP2 SWAP1 POP SWAP2 SWAP1 POP JUMP JUMPDEST PUSH1 0x0 PUSH2 0xD07 PUSH2 0xD02 PUSH2 0xCFD DUP5 PUSH2 0x639 JUMP JUMPDEST PUSH2 0xCE2 JUMP JUMPDEST PUSH2 0x639 JUMP JUMPDEST SWAP1 POP SWAP2 SWAP1 POP JUMP JUMPDEST PUSH1 0x0 DUP2 SWAP1 POP SWAP2 SWAP1 POP JUMP JUMPDEST PUSH2 0xD21 DUP4 PUSH2 0xCEC JUMP JUMPDEST PUSH2 0xD35 PUSH2 0xD2D DUP3 PUSH2 0xD0E JUMP JUMPDEST DUP5 DUP5 SLOAD PUSH2 0xC90 JUMP JUMPDEST DUP3 SSTORE POP POP POP POP JUMP JUMPDEST PUSH1 0x0 SWAP1 JUMP JUMPDEST PUSH2 0xD4A PUSH2 0xD3D JUMP JUMPDEST PUSH2 0xD55 DUP2 DUP5 DUP5 PUSH2 0xD18 JUMP JUMPDEST POP POP POP JUMP JUMPDEST JUMPDEST DUP2 DUP2 LT ISZERO PUSH2 0xD79 JUMPI PUSH2 0xD6E PUSH1 0x0 DUP3 PUSH2 0xD42 JUMP JUMPDEST PUSH1 0x1 DUP2 ADD SWAP1 POP PUSH2 0xD5B JUMP JUMPDEST POP POP JUMP JUMPDEST PUSH1 0x1F DUP3 GT ISZERO PUSH2 0xDBE JUMPI PUSH2 0xD8F DUP2 PUSH2 0xC5E JUMP JUMPDEST PUSH2 0xD98 DUP5 PUSH2 0xC73 JUMP JUMPDEST DUP2 ADD PUSH1 0x20 DUP6 LT ISZERO PUSH2 0xDA7 JUMPI DUP2 SWAP1 POP JUMPDEST PUSH2 0xDBB PUSH2 0xDB3 DUP6 PUSH2 0xC73 JUMP JUMPDEST DUP4 ADD DUP3 PUSH2 0xD5A JUMP JUMPDEST POP POP JUMPDEST POP POP POP JUMP JUMPDEST PUSH1 0x0 DUP3 DUP3 SHR SWAP1 POP SWAP3 SWAP2 POP POP JUMP JUMPDEST PUSH1 0x0 PUSH2 0xDE1 PUSH1 0x0 NOT DUP5 PUSH1 0x8 MUL PUSH2 0xDC3 JUMP JUMPDEST NOT DUP1 DUP4 AND SWAP2 POP POP SWAP3 SWAP2 POP POP JUMP JUMPDEST PUSH1 0x0 PUSH2 0xDFA DUP4 DUP4 PUSH2 0xDD0 JUMP JUMPDEST SWAP2 POP DUP3 PUSH1 0x2 MUL DUP3 OR SWAP1 POP SWAP3 SWAP2 POP POP JUMP JUMPDEST PUSH2 0xE13 DUP3 PUSH2 0x6DA JUMP JUMPDEST PUSH8 0xFFFFFFFFFFFFFFFF DUP2 GT ISZERO PUSH2 0xE2C JUMPI PUSH2 0xE2B PUSH2 0x7E4 JUMP JUMPDEST JUMPDEST PUSH2 0xE36 DUP3 SLOAD PUSH2 0xB55 JUMP JUMPDEST PUSH2 0xE41 DUP3 DUP3 DUP6 PUSH2 0xD7D JUMP JUMPDEST PUSH1 0x0 PUSH1 0x20 SWAP1 POP PUSH1 0x1F DUP4 GT PUSH1 0x1 DUP2 EQ PUSH2 0xE74 JUMPI PUSH1 0x0 DUP5 ISZERO PUSH2 0xE62 JUMPI DUP3 DUP8 ADD MLOAD SWAP1 POP JUMPDEST PUSH2 0xE6C DUP6 DUP3 PUSH2 0xDEE JUMP JUMPDEST DUP7 SSTORE POP PUSH2 0xED4 JUMP JUMPDEST PUSH1 0x1F NOT DUP5 AND PUSH2 0xE82 DUP7 PUSH2 0xC5E JUMP JUMPDEST PUSH1 0x0 JUMPDEST DUP3 DUP2 LT ISZERO PUSH2 0xEAA JUMPI DUP5 DUP10 ADD MLOAD DUP3 SSTORE PUSH1 0x1 DUP3 ADD SWAP2 POP PUSH1 0x20 DUP6 ADD SWAP5 POP PUSH1 0x20 DUP2 ADD SWAP1 POP PUSH2 0xE85 JUMP JUMPDEST DUP7 DUP4 LT ISZERO PUSH2 0xEC7 JUMPI DUP5 DUP10 ADD MLOAD PUSH2 0xEC3 PUSH1 0x1F DUP10 AND DUP3 PUSH2 0xDD0 JUMP JUMPDEST DUP4 SSTORE POP JUMPDEST PUSH1 0x1 PUSH1 0x2 DUP9 MUL ADD DUP9 SSTORE POP POP POP JUMPDEST POP POP POP POP POP POP JUMP INVALID LOG2 PUSH5 0x6970667358 0x22 SLT KECCAK256 LOG4 SWAP3 CALLDATALOAD SWAP15 BYTE JUMPDEST 0xE8 0xB3 BYTE PUSH16 0xD03964D4843E0DCEA0C729DB4847E59C GT 0xB1 PUSH28 0xB60A4164736F6C634300080F00330000000000000000000000000000 "
				},
				"gasEstimates": {
					"creation": {
						"codeDepositCost": "771600",
						"executionCost": "infinite",
						"totalCost": "infinite"
					},
					"external": {
						"candidates(address)": "infinite",
						"giveYourVote()": "55416",
						"registerCandidate(address,string)": "infinite",
						"totalVotes()": "2451",
						"votingDeadline()": "2429",
						"votingHost()": "2489"
					}
				},
				"methodIdentifiers": {
					"candidates(address)": "8ab66a90",
					"giveYourVote()": "5ba55a77",
					"registerCandidate(address,string)": "b0d30d2f",
					"totalVotes()": "0d15fd77",
					"votingDeadline()": "036ee850",
					"votingHost()": "0354d7bb"
				}
			},
			"storageLayout": {
				"storage": [
					{
						"astId": 12,
						"contract": "contracts/10_votingsystem.sol:ChainVotingContract",
						"label": "votingHost",
						"offset": 0,
						"slot": "0",
						"type": "t_address"
					},
					{
						"astId": 14,
						"contract": "contracts/10_votingsystem.sol:ChainVotingContract",
						"label": "totalVotes",
						"offset": 0,
						"slot": "1",
						"type": "t_uint256"
					},
					{
						"astId": 16,
						"contract": "contracts/10_votingsystem.sol:ChainVotingContract",
						"label": "votingDeadline",
						"offset": 0,
						"slot": "2",
						"type": "t_uint256"
					},
					{
						"astId": 21,
						"contract": "contracts/10_votingsystem.sol:ChainVotingContract",
						"label": "candidates",
						"offset": 0,
						"slot": "3",
						"type": "t_mapping(t_address,t_struct(Candidate)10_storage)"
					}
				],
				"types": {
					"t_address": {
						"encoding": "inplace",
						"label": "address",
						"numberOfBytes": "20"
					},
					"t_bool": {
						"encoding": "inplace",
						"label": "bool",
						"numberOfBytes": "1"
					},
					"t_mapping(t_address,t_struct(Candidate)10_storage)": {
						"encoding": "mapping",
						"key": "t_address",
						"label": "mapping(address => struct ChainVotingContract.Candidate)",
						"numberOfBytes": "32",
						"value": "t_struct(Candidate)10_storage"
					},
					"t_string_storage": {
						"encoding": "bytes",
						"label": "string",
						"numberOfBytes": "32"
					},
					"t_struct(Candidate)10_storage": {
						"encoding": "inplace",
						"label": "struct ChainVotingContract.Candidate",
						"members": [
							{
								"astId": 3,
								"contract": "contracts/10_votingsystem.sol:ChainVotingContract",
								"label": "candidateAddress",
								"offset": 0,
								"slot": "0",
								"type": "t_address"
							},
							{
								"astId": 5,
								"contract": "contracts/10_votingsystem.sol:ChainVotingContract",
								"label": "name",
								"offset": 0,
								"slot": "1",
								"type": "t_string_storage"
							},
							{
								"astId": 7,
								"contract": "contracts/10_votingsystem.sol:ChainVotingContract",
								"label": "hasVoted",
								"offset": 0,
								"slot": "2",
								"type": "t_bool"
							},
							{
								"astId": 9,
								"contract": "contracts/10_votingsystem.sol:ChainVotingContract",
								"label": "isRegistered",
								"offset": 1,
								"slot": "2",
								"type": "t_bool"
							}
						],
						"numberOfBytes": "96"
					},
					"t_uint256": {
						"encoding": "inplace",
						"label": "uint256",
						"numberOfBytes": "32"
					}
				}
			},
			"userdoc": {
				"kind": "user",
				"methods": {},
				"version": 1
			}
		}
	}
}