{
	"contracts/4_myContract.sol": {
		"MyContract": {
			"abi": [
				{
					"inputs": [],
					"stateMutability": "nonpayable",
					"type": "constructor"
				},
				{
					"inputs": [
						{
							"internalType": "string",
							"name": "_someString",
							"type": "string"
						}
					],
					"name": "handlingStringUpdation",
					"outputs": [],
					"stateMutability": "nonpayable",
					"type": "function"
				},
				{
					"inputs": [],
					"name": "ownerAddress",
					"outputs": [
						{
							"internalType": "address",
							"name": "",
							"type": "address"
						}
					],
					"stateMutability": "view",
					"type": "function"
				},
				{
					"inputs": [],
					"name": "secretString",
					"outputs": [
						{
							"internalType": "string",
							"name": "",
							"type": "string"
						}
					],
					"stateMutability": "view",
					"type": "function"
				},
				{
					"inputs": [],
					"name": "updateCounter",
					"outputs": [
						{
							"internalType": "uint8",
							"name": "",
							"type": "uint8"
						}
					],
					"stateMutability": "view",
					"type": "function"
				}
			],
			"devdoc": {
				"kind": "dev",
				"methods": {},
				"version": 1
			},
			"evm": {
				"assembly": "    /* \"contracts/4_myContract.sol\":65:2090  contract MyContract {... */\n  mstore(0x40, 0x80)\n    /* \"contracts/4_myContract.sol\":1786:1874  constructor() {... */\n  callvalue\n  dup1\n  iszero\n  tag_1\n  jumpi\n  0x00\n  dup1\n  revert\ntag_1:\n  pop\n    /* \"contracts/4_myContract.sol\":1811:1822  address add */\n  0x00\n    /* \"contracts/4_myContract.sol\":1825:1835  msg.sender */\n  caller\n    /* \"contracts/4_myContract.sol\":1811:1835  address add = msg.sender */\n  swap1\n  pop\n    /* \"contracts/4_myContract.sol\":1862:1865  add */\n  dup1\n    /* \"contracts/4_myContract.sol\":1847:1859  ownerAddress */\n  0x01\n  dup1\n    /* \"contracts/4_myContract.sol\":1847:1865  ownerAddress = add */\n  0x0100\n  exp\n  dup2\n  sload\n  dup2\n  0xffffffffffffffffffffffffffffffffffffffff\n  mul\n  not\n  and\n  swap1\n  dup4\n  0xffffffffffffffffffffffffffffffffffffffff\n  and\n  mul\n  or\n  swap1\n  sstore\n  pop\n    /* \"contracts/4_myContract.sol\":1800:1874  {... */\n  pop\n    /* \"contracts/4_myContract.sol\":65:2090  contract MyContract {... */\n  dataSize(sub_0)\n  dup1\n  dataOffset(sub_0)\n  0x00\n  codecopy\n  0x00\n  return\nstop\n\nsub_0: assembly {\n        /* \"contracts/4_myContract.sol\":65:2090  contract MyContract {... */\n      mstore(0x40, 0x80)\n      callvalue\n      dup1\n      iszero\n      tag_1\n      jumpi\n      0x00\n      dup1\n      revert\n    tag_1:\n      pop\n      jumpi(tag_2, lt(calldatasize, 0x04))\n      shr(0xe0, calldataload(0x00))\n      dup1\n      0x0b626a12\n      eq\n      tag_3\n      jumpi\n      dup1\n      0x1687fe8e\n      eq\n      tag_4\n      jumpi\n      dup1\n      0x6334c29c\n      eq\n      tag_5\n      jumpi\n      dup1\n      0x8f84aa09\n      eq\n      tag_6\n      jumpi\n    tag_2:\n      0x00\n      dup1\n      revert\n        /* \"contracts/4_myContract.sol\":1882:2083  function handlingStringUpdation(string memory _someString) public {... */\n    tag_3:\n      tag_7\n      0x04\n      dup1\n      calldatasize\n      sub\n      dup2\n      add\n      swap1\n      tag_8\n      swap2\n      swap1\n      tag_9\n      jump\t// in\n    tag_8:\n      tag_10\n      jump\t// in\n    tag_7:\n      stop\n        /* \"contracts/4_myContract.sol\":1691:1717  uint8 public updateCounter */\n    tag_4:\n      tag_11\n      tag_12\n      jump\t// in\n    tag_11:\n      mload(0x40)\n      tag_13\n      swap2\n      swap1\n      tag_14\n      jump\t// in\n    tag_13:\n      mload(0x40)\n      dup1\n      swap2\n      sub\n      swap1\n      return\n        /* \"contracts/4_myContract.sol\":1657:1683  string public secretString */\n    tag_5:\n      tag_15\n      tag_16\n      jump\t// in\n    tag_15:\n      mload(0x40)\n      tag_17\n      swap2\n      swap1\n      tag_18\n      jump\t// in\n    tag_17:\n      mload(0x40)\n      dup1\n      swap2\n      sub\n      swap1\n      return\n        /* \"contracts/4_myContract.sol\":1727:1754  address public ownerAddress */\n    tag_6:\n      tag_19\n      tag_20\n      jump\t// in\n    tag_19:\n      mload(0x40)\n      tag_21\n      swap2\n      swap1\n      tag_22\n      jump\t// in\n    tag_21:\n      mload(0x40)\n      dup1\n      swap2\n      sub\n      swap1\n      return\n        /* \"contracts/4_myContract.sol\":1882:2083  function handlingStringUpdation(string memory _someString) public {... */\n    tag_10:\n        /* \"contracts/4_myContract.sol\":1979:1989  msg.sender */\n      caller\n        /* \"contracts/4_myContract.sol\":1963:1989  ownerAddress == msg.sender */\n      0xffffffffffffffffffffffffffffffffffffffff\n      and\n        /* \"contracts/4_myContract.sol\":1963:1975  ownerAddress */\n      0x01\n      dup1\n      sload\n      swap1\n      0x0100\n      exp\n      swap1\n      div\n      0xffffffffffffffffffffffffffffffffffffffff\n      and\n        /* \"contracts/4_myContract.sol\":1963:1989  ownerAddress == msg.sender */\n      0xffffffffffffffffffffffffffffffffffffffff\n      and\n      sub\n        /* \"contracts/4_myContract.sol\":1959:2076  if (ownerAddress == msg.sender) {... */\n      tag_24\n      jumpi\n        /* \"contracts/4_myContract.sol\":2021:2032  _someString */\n      dup1\n        /* \"contracts/4_myContract.sol\":2006:2018  secretString */\n      0x00\n        /* \"contracts/4_myContract.sol\":2006:2032  secretString = _someString */\n      swap1\n      dup2\n      tag_25\n      swap2\n      swap1\n      tag_26\n      jump\t// in\n    tag_25:\n      pop\n        /* \"contracts/4_myContract.sol\":2048:2061  updateCounter */\n      0x01\n      0x00\n        /* \"contracts/4_myContract.sol\":2048:2063  updateCounter++ */\n      dup2\n      dup2\n      swap1\n      sload\n      swap1\n      0x0100\n      exp\n      swap1\n      div\n      0xff\n      and\n      dup1\n      swap3\n      swap2\n      swap1\n      tag_27\n      swap1\n      tag_28\n      jump\t// in\n    tag_27:\n      swap2\n      swap1\n      0x0100\n      exp\n      dup2\n      sload\n      dup2\n      0xff\n      mul\n      not\n      and\n      swap1\n      dup4\n      0xff\n      and\n      mul\n      or\n      swap1\n      sstore\n      pop\n      pop\n        /* \"contracts/4_myContract.sol\":1959:2076  if (ownerAddress == msg.sender) {... */\n    tag_24:\n        /* \"contracts/4_myContract.sol\":1882:2083  function handlingStringUpdation(string memory _someString) public {... */\n      pop\n      jump\t// out\n        /* \"contracts/4_myContract.sol\":1691:1717  uint8 public updateCounter */\n    tag_12:\n      0x01\n      0x00\n      swap1\n      sload\n      swap1\n      0x0100\n      exp\n      swap1\n      div\n      0xff\n      and\n      dup2\n      jump\t// out\n        /* \"contracts/4_myContract.sol\":1657:1683  string public secretString */\n    tag_16:\n      0x00\n      dup1\n      sload\n      tag_29\n      swap1\n      tag_30\n      jump\t// in\n    tag_29:\n      dup1\n      0x1f\n      add\n      0x20\n      dup1\n      swap2\n      div\n      mul\n      0x20\n      add\n      mload(0x40)\n      swap1\n      dup2\n      add\n      0x40\n      mstore\n      dup1\n      swap3\n      swap2\n      swap1\n      dup2\n      dup2\n      mstore\n      0x20\n      add\n      dup3\n      dup1\n      sload\n      tag_31\n      swap1\n      tag_30\n      jump\t// in\n    tag_31:\n      dup1\n      iszero\n      tag_32\n      jumpi\n      dup1\n      0x1f\n      lt\n      tag_33\n      jumpi\n      0x0100\n      dup1\n      dup4\n      sload\n      div\n      mul\n      dup4\n      mstore\n      swap2\n      0x20\n      add\n      swap2\n      jump(tag_32)\n    tag_33:\n      dup3\n      add\n      swap2\n      swap1\n      0x00\n      mstore\n      keccak256(0x00, 0x20)\n      swap1\n    tag_34:\n      dup2\n      sload\n      dup2\n      mstore\n      swap1\n      0x01\n      add\n      swap1\n      0x20\n      add\n      dup1\n      dup4\n      gt\n      tag_34\n      jumpi\n      dup3\n      swap1\n      sub\n      0x1f\n      and\n      dup3\n      add\n      swap2\n    tag_32:\n      pop\n      pop\n      pop\n      pop\n      pop\n      dup2\n      jump\t// out\n        /* \"contracts/4_myContract.sol\":1727:1754  address public ownerAddress */\n    tag_20:\n      0x01\n      dup1\n      sload\n      swap1\n      0x0100\n      exp\n      swap1\n      div\n      0xffffffffffffffffffffffffffffffffffffffff\n      and\n      dup2\n      jump\t// out\n        /* \"#utility.yul\":7:82   */\n    tag_35:\n        /* \"#utility.yul\":40:46   */\n      0x00\n        /* \"#utility.yul\":73:75   */\n      0x40\n        /* \"#utility.yul\":67:76   */\n      mload\n        /* \"#utility.yul\":57:76   */\n      swap1\n      pop\n        /* \"#utility.yul\":7:82   */\n      swap1\n      jump\t// out\n        /* \"#utility.yul\":88:205   */\n    tag_36:\n        /* \"#utility.yul\":197:198   */\n      0x00\n        /* \"#utility.yul\":194:195   */\n      dup1\n        /* \"#utility.yul\":187:199   */\n      revert\n        /* \"#utility.yul\":211:328   */\n    tag_37:\n        /* \"#utility.yul\":320:321   */\n      0x00\n        /* \"#utility.yul\":317:318   */\n      dup1\n        /* \"#utility.yul\":310:322   */\n      revert\n        /* \"#utility.yul\":334:451   */\n    tag_38:\n        /* \"#utility.yul\":443:444   */\n      0x00\n        /* \"#utility.yul\":440:441   */\n      dup1\n        /* \"#utility.yul\":433:445   */\n      revert\n        /* \"#utility.yul\":457:574   */\n    tag_39:\n        /* \"#utility.yul\":566:567   */\n      0x00\n        /* \"#utility.yul\":563:564   */\n      dup1\n        /* \"#utility.yul\":556:568   */\n      revert\n        /* \"#utility.yul\":580:682   */\n    tag_40:\n        /* \"#utility.yul\":621:627   */\n      0x00\n        /* \"#utility.yul\":672:674   */\n      0x1f\n        /* \"#utility.yul\":668:675   */\n      not\n        /* \"#utility.yul\":663:665   */\n      0x1f\n        /* \"#utility.yul\":656:661   */\n      dup4\n        /* \"#utility.yul\":652:666   */\n      add\n        /* \"#utility.yul\":648:676   */\n      and\n        /* \"#utility.yul\":638:676   */\n      swap1\n      pop\n        /* \"#utility.yul\":580:682   */\n      swap2\n      swap1\n      pop\n      jump\t// out\n        /* \"#utility.yul\":688:868   */\n    tag_41:\n        /* \"#utility.yul\":736:813   */\n      0x4e487b7100000000000000000000000000000000000000000000000000000000\n        /* \"#utility.yul\":733:734   */\n      0x00\n        /* \"#utility.yul\":726:814   */\n      mstore\n        /* \"#utility.yul\":833:837   */\n      0x41\n        /* \"#utility.yul\":830:831   */\n      0x04\n        /* \"#utility.yul\":823:838   */\n      mstore\n        /* \"#utility.yul\":857:861   */\n      0x24\n        /* \"#utility.yul\":854:855   */\n      0x00\n        /* \"#utility.yul\":847:862   */\n      revert\n        /* \"#utility.yul\":874:1155   */\n    tag_42:\n        /* \"#utility.yul\":957:984   */\n      tag_84\n        /* \"#utility.yul\":979:983   */\n      dup3\n        /* \"#utility.yul\":957:984   */\n      tag_40\n      jump\t// in\n    tag_84:\n        /* \"#utility.yul\":949:955   */\n      dup2\n        /* \"#utility.yul\":945:985   */\n      add\n        /* \"#utility.yul\":1087:1093   */\n      dup2\n        /* \"#utility.yul\":1075:1085   */\n      dup2\n        /* \"#utility.yul\":1072:1094   */\n      lt\n        /* \"#utility.yul\":1051:1069   */\n      0xffffffffffffffff\n        /* \"#utility.yul\":1039:1049   */\n      dup3\n        /* \"#utility.yul\":1036:1070   */\n      gt\n        /* \"#utility.yul\":1033:1095   */\n      or\n        /* \"#utility.yul\":1030:1118   */\n      iszero\n      tag_85\n      jumpi\n        /* \"#utility.yul\":1098:1116   */\n      tag_86\n      tag_41\n      jump\t// in\n    tag_86:\n        /* \"#utility.yul\":1030:1118   */\n    tag_85:\n        /* \"#utility.yul\":1138:1148   */\n      dup1\n        /* \"#utility.yul\":1134:1136   */\n      0x40\n        /* \"#utility.yul\":1127:1149   */\n      mstore\n        /* \"#utility.yul\":917:1155   */\n      pop\n        /* \"#utility.yul\":874:1155   */\n      pop\n      pop\n      jump\t// out\n        /* \"#utility.yul\":1161:1290   */\n    tag_43:\n        /* \"#utility.yul\":1195:1201   */\n      0x00\n        /* \"#utility.yul\":1222:1242   */\n      tag_88\n      tag_35\n      jump\t// in\n    tag_88:\n        /* \"#utility.yul\":1212:1242   */\n      swap1\n      pop\n        /* \"#utility.yul\":1251:1284   */\n      tag_89\n        /* \"#utility.yul\":1279:1283   */\n      dup3\n        /* \"#utility.yul\":1271:1277   */\n      dup3\n        /* \"#utility.yul\":1251:1284   */\n      tag_42\n      jump\t// in\n    tag_89:\n        /* \"#utility.yul\":1161:1290   */\n      swap2\n      swap1\n      pop\n      jump\t// out\n        /* \"#utility.yul\":1296:1604   */\n    tag_44:\n        /* \"#utility.yul\":1358:1362   */\n      0x00\n        /* \"#utility.yul\":1448:1466   */\n      0xffffffffffffffff\n        /* \"#utility.yul\":1440:1446   */\n      dup3\n        /* \"#utility.yul\":1437:1467   */\n      gt\n        /* \"#utility.yul\":1434:1490   */\n      iszero\n      tag_91\n      jumpi\n        /* \"#utility.yul\":1470:1488   */\n      tag_92\n      tag_41\n      jump\t// in\n    tag_92:\n        /* \"#utility.yul\":1434:1490   */\n    tag_91:\n        /* \"#utility.yul\":1508:1537   */\n      tag_93\n        /* \"#utility.yul\":1530:1536   */\n      dup3\n        /* \"#utility.yul\":1508:1537   */\n      tag_40\n      jump\t// in\n    tag_93:\n        /* \"#utility.yul\":1500:1537   */\n      swap1\n      pop\n        /* \"#utility.yul\":1592:1596   */\n      0x20\n        /* \"#utility.yul\":1586:1590   */\n      dup2\n        /* \"#utility.yul\":1582:1597   */\n      add\n        /* \"#utility.yul\":1574:1597   */\n      swap1\n      pop\n        /* \"#utility.yul\":1296:1604   */\n      swap2\n      swap1\n      pop\n      jump\t// out\n        /* \"#utility.yul\":1610:1764   */\n    tag_45:\n        /* \"#utility.yul\":1694:1700   */\n      dup3\n        /* \"#utility.yul\":1689:1692   */\n      dup2\n        /* \"#utility.yul\":1684:1687   */\n      dup4\n        /* \"#utility.yul\":1671:1701   */\n      calldatacopy\n        /* \"#utility.yul\":1756:1757   */\n      0x00\n        /* \"#utility.yul\":1747:1753   */\n      dup4\n        /* \"#utility.yul\":1742:1745   */\n      dup4\n        /* \"#utility.yul\":1738:1754   */\n      add\n        /* \"#utility.yul\":1731:1758   */\n      mstore\n        /* \"#utility.yul\":1610:1764   */\n      pop\n      pop\n      pop\n      jump\t// out\n        /* \"#utility.yul\":1770:2182   */\n    tag_46:\n        /* \"#utility.yul\":1848:1853   */\n      0x00\n        /* \"#utility.yul\":1873:1939   */\n      tag_96\n        /* \"#utility.yul\":1889:1938   */\n      tag_97\n        /* \"#utility.yul\":1931:1937   */\n      dup5\n        /* \"#utility.yul\":1889:1938   */\n      tag_44\n      jump\t// in\n    tag_97:\n        /* \"#utility.yul\":1873:1939   */\n      tag_43\n      jump\t// in\n    tag_96:\n        /* \"#utility.yul\":1864:1939   */\n      swap1\n      pop\n        /* \"#utility.yul\":1962:1968   */\n      dup3\n        /* \"#utility.yul\":1955:1960   */\n      dup2\n        /* \"#utility.yul\":1948:1969   */\n      mstore\n        /* \"#utility.yul\":2000:2004   */\n      0x20\n        /* \"#utility.yul\":1993:1998   */\n      dup2\n        /* \"#utility.yul\":1989:2005   */\n      add\n        /* \"#utility.yul\":2038:2041   */\n      dup5\n        /* \"#utility.yul\":2029:2035   */\n      dup5\n        /* \"#utility.yul\":2024:2027   */\n      dup5\n        /* \"#utility.yul\":2020:2036   */\n      add\n        /* \"#utility.yul\":2017:2042   */\n      gt\n        /* \"#utility.yul\":2014:2126   */\n      iszero\n      tag_98\n      jumpi\n        /* \"#utility.yul\":2045:2124   */\n      tag_99\n      tag_39\n      jump\t// in\n    tag_99:\n        /* \"#utility.yul\":2014:2126   */\n    tag_98:\n        /* \"#utility.yul\":2135:2176   */\n      tag_100\n        /* \"#utility.yul\":2169:2175   */\n      dup5\n        /* \"#utility.yul\":2164:2167   */\n      dup3\n        /* \"#utility.yul\":2159:2162   */\n      dup6\n        /* \"#utility.yul\":2135:2176   */\n      tag_45\n      jump\t// in\n    tag_100:\n        /* \"#utility.yul\":1854:2182   */\n      pop\n        /* \"#utility.yul\":1770:2182   */\n      swap4\n      swap3\n      pop\n      pop\n      pop\n      jump\t// out\n        /* \"#utility.yul\":2202:2542   */\n    tag_47:\n        /* \"#utility.yul\":2258:2263   */\n      0x00\n        /* \"#utility.yul\":2307:2310   */\n      dup3\n        /* \"#utility.yul\":2300:2304   */\n      0x1f\n        /* \"#utility.yul\":2292:2298   */\n      dup4\n        /* \"#utility.yul\":2288:2305   */\n      add\n        /* \"#utility.yul\":2284:2311   */\n      slt\n        /* \"#utility.yul\":2274:2396   */\n      tag_102\n      jumpi\n        /* \"#utility.yul\":2315:2394   */\n      tag_103\n      tag_38\n      jump\t// in\n    tag_103:\n        /* \"#utility.yul\":2274:2396   */\n    tag_102:\n        /* \"#utility.yul\":2432:2438   */\n      dup2\n        /* \"#utility.yul\":2419:2439   */\n      calldataload\n        /* \"#utility.yul\":2457:2536   */\n      tag_104\n        /* \"#utility.yul\":2532:2535   */\n      dup5\n        /* \"#utility.yul\":2524:2530   */\n      dup3\n        /* \"#utility.yul\":2517:2521   */\n      0x20\n        /* \"#utility.yul\":2509:2515   */\n      dup7\n        /* \"#utility.yul\":2505:2522   */\n      add\n        /* \"#utility.yul\":2457:2536   */\n      tag_46\n      jump\t// in\n    tag_104:\n        /* \"#utility.yul\":2448:2536   */\n      swap2\n      pop\n        /* \"#utility.yul\":2264:2542   */\n      pop\n        /* \"#utility.yul\":2202:2542   */\n      swap3\n      swap2\n      pop\n      pop\n      jump\t// out\n        /* \"#utility.yul\":2548:3057   */\n    tag_9:\n        /* \"#utility.yul\":2617:2623   */\n      0x00\n        /* \"#utility.yul\":2666:2668   */\n      0x20\n        /* \"#utility.yul\":2654:2663   */\n      dup3\n        /* \"#utility.yul\":2645:2652   */\n      dup5\n        /* \"#utility.yul\":2641:2664   */\n      sub\n        /* \"#utility.yul\":2637:2669   */\n      slt\n        /* \"#utility.yul\":2634:2753   */\n      iszero\n      tag_106\n      jumpi\n        /* \"#utility.yul\":2672:2751   */\n      tag_107\n      tag_36\n      jump\t// in\n    tag_107:\n        /* \"#utility.yul\":2634:2753   */\n    tag_106:\n        /* \"#utility.yul\":2820:2821   */\n      0x00\n        /* \"#utility.yul\":2809:2818   */\n      dup3\n        /* \"#utility.yul\":2805:2822   */\n      add\n        /* \"#utility.yul\":2792:2823   */\n      calldataload\n        /* \"#utility.yul\":2850:2868   */\n      0xffffffffffffffff\n        /* \"#utility.yul\":2842:2848   */\n      dup2\n        /* \"#utility.yul\":2839:2869   */\n      gt\n        /* \"#utility.yul\":2836:2953   */\n      iszero\n      tag_108\n      jumpi\n        /* \"#utility.yul\":2872:2951   */\n      tag_109\n      tag_37\n      jump\t// in\n    tag_109:\n        /* \"#utility.yul\":2836:2953   */\n    tag_108:\n        /* \"#utility.yul\":2977:3040   */\n      tag_110\n        /* \"#utility.yul\":3032:3039   */\n      dup5\n        /* \"#utility.yul\":3023:3029   */\n      dup3\n        /* \"#utility.yul\":3012:3021   */\n      dup6\n        /* \"#utility.yul\":3008:3030   */\n      add\n        /* \"#utility.yul\":2977:3040   */\n      tag_47\n      jump\t// in\n    tag_110:\n        /* \"#utility.yul\":2967:3040   */\n      swap2\n      pop\n        /* \"#utility.yul\":2763:3050   */\n      pop\n        /* \"#utility.yul\":2548:3057   */\n      swap3\n      swap2\n      pop\n      pop\n      jump\t// out\n        /* \"#utility.yul\":3063:3149   */\n    tag_48:\n        /* \"#utility.yul\":3098:3105   */\n      0x00\n        /* \"#utility.yul\":3138:3142   */\n      0xff\n        /* \"#utility.yul\":3131:3136   */\n      dup3\n        /* \"#utility.yul\":3127:3143   */\n      and\n        /* \"#utility.yul\":3116:3143   */\n      swap1\n      pop\n        /* \"#utility.yul\":3063:3149   */\n      swap2\n      swap1\n      pop\n      jump\t// out\n        /* \"#utility.yul\":3155:3267   */\n    tag_49:\n        /* \"#utility.yul\":3238:3260   */\n      tag_113\n        /* \"#utility.yul\":3254:3259   */\n      dup2\n        /* \"#utility.yul\":3238:3260   */\n      tag_48\n      jump\t// in\n    tag_113:\n        /* \"#utility.yul\":3233:3236   */\n      dup3\n        /* \"#utility.yul\":3226:3261   */\n      mstore\n        /* \"#utility.yul\":3155:3267   */\n      pop\n      pop\n      jump\t// out\n        /* \"#utility.yul\":3273:3487   */\n    tag_14:\n        /* \"#utility.yul\":3362:3366   */\n      0x00\n        /* \"#utility.yul\":3400:3402   */\n      0x20\n        /* \"#utility.yul\":3389:3398   */\n      dup3\n        /* \"#utility.yul\":3385:3403   */\n      add\n        /* \"#utility.yul\":3377:3403   */\n      swap1\n      pop\n        /* \"#utility.yul\":3413:3480   */\n      tag_115\n        /* \"#utility.yul\":3477:3478   */\n      0x00\n        /* \"#utility.yul\":3466:3475   */\n      dup4\n        /* \"#utility.yul\":3462:3479   */\n      add\n        /* \"#utility.yul\":3453:3459   */\n      dup5\n        /* \"#utility.yul\":3413:3480   */\n      tag_49\n      jump\t// in\n    tag_115:\n        /* \"#utility.yul\":3273:3487   */\n      swap3\n      swap2\n      pop\n      pop\n      jump\t// out\n        /* \"#utility.yul\":3493:3592   */\n    tag_50:\n        /* \"#utility.yul\":3545:3551   */\n      0x00\n        /* \"#utility.yul\":3579:3584   */\n      dup2\n        /* \"#utility.yul\":3573:3585   */\n      mload\n        /* \"#utility.yul\":3563:3585   */\n      swap1\n      pop\n        /* \"#utility.yul\":3493:3592   */\n      swap2\n      swap1\n      pop\n      jump\t// out\n        /* \"#utility.yul\":3598:3767   */\n    tag_51:\n        /* \"#utility.yul\":3682:3693   */\n      0x00\n        /* \"#utility.yul\":3716:3722   */\n      dup3\n        /* \"#utility.yul\":3711:3714   */\n      dup3\n        /* \"#utility.yul\":3704:3723   */\n      mstore\n        /* \"#utility.yul\":3756:3760   */\n      0x20\n        /* \"#utility.yul\":3751:3754   */\n      dup3\n        /* \"#utility.yul\":3747:3761   */\n      add\n        /* \"#utility.yul\":3732:3761   */\n      swap1\n      pop\n        /* \"#utility.yul\":3598:3767   */\n      swap3\n      swap2\n      pop\n      pop\n      jump\t// out\n        /* \"#utility.yul\":3773:4080   */\n    tag_52:\n        /* \"#utility.yul\":3841:3842   */\n      0x00\n        /* \"#utility.yul\":3851:3964   */\n    tag_119:\n        /* \"#utility.yul\":3865:3871   */\n      dup4\n        /* \"#utility.yul\":3862:3863   */\n      dup2\n        /* \"#utility.yul\":3859:3872   */\n      lt\n        /* \"#utility.yul\":3851:3964   */\n      iszero\n      tag_121\n      jumpi\n        /* \"#utility.yul\":3950:3951   */\n      dup1\n        /* \"#utility.yul\":3945:3948   */\n      dup3\n        /* \"#utility.yul\":3941:3952   */\n      add\n        /* \"#utility.yul\":3935:3953   */\n      mload\n        /* \"#utility.yul\":3931:3932   */\n      dup2\n        /* \"#utility.yul\":3926:3929   */\n      dup5\n        /* \"#utility.yul\":3922:3933   */\n      add\n        /* \"#utility.yul\":3915:3954   */\n      mstore\n        /* \"#utility.yul\":3887:3889   */\n      0x20\n        /* \"#utility.yul\":3884:3885   */\n      dup2\n        /* \"#utility.yul\":3880:3890   */\n      add\n        /* \"#utility.yul\":3875:3890   */\n      swap1\n      pop\n        /* \"#utility.yul\":3851:3964   */\n      jump(tag_119)\n    tag_121:\n        /* \"#utility.yul\":3982:3988   */\n      dup4\n        /* \"#utility.yul\":3979:3980   */\n      dup2\n        /* \"#utility.yul\":3976:3989   */\n      gt\n        /* \"#utility.yul\":3973:4074   */\n      iszero\n      tag_122\n      jumpi\n        /* \"#utility.yul\":4062:4063   */\n      0x00\n        /* \"#utility.yul\":4053:4059   */\n      dup5\n        /* \"#utility.yul\":4048:4051   */\n      dup5\n        /* \"#utility.yul\":4044:4060   */\n      add\n        /* \"#utility.yul\":4037:4064   */\n      mstore\n        /* \"#utility.yul\":3973:4074   */\n    tag_122:\n        /* \"#utility.yul\":3822:4080   */\n      pop\n        /* \"#utility.yul\":3773:4080   */\n      pop\n      pop\n      pop\n      jump\t// out\n        /* \"#utility.yul\":4086:4450   */\n    tag_53:\n        /* \"#utility.yul\":4174:4177   */\n      0x00\n        /* \"#utility.yul\":4202:4241   */\n      tag_124\n        /* \"#utility.yul\":4235:4240   */\n      dup3\n        /* \"#utility.yul\":4202:4241   */\n      tag_50\n      jump\t// in\n    tag_124:\n        /* \"#utility.yul\":4257:4328   */\n      tag_125\n        /* \"#utility.yul\":4321:4327   */\n      dup2\n        /* \"#utility.yul\":4316:4319   */\n      dup6\n        /* \"#utility.yul\":4257:4328   */\n      tag_51\n      jump\t// in\n    tag_125:\n        /* \"#utility.yul\":4250:4328   */\n      swap4\n      pop\n        /* \"#utility.yul\":4337:4389   */\n      tag_126\n        /* \"#utility.yul\":4382:4388   */\n      dup2\n        /* \"#utility.yul\":4377:4380   */\n      dup6\n        /* \"#utility.yul\":4370:4374   */\n      0x20\n        /* \"#utility.yul\":4363:4368   */\n      dup7\n        /* \"#utility.yul\":4359:4375   */\n      add\n        /* \"#utility.yul\":4337:4389   */\n      tag_52\n      jump\t// in\n    tag_126:\n        /* \"#utility.yul\":4414:4443   */\n      tag_127\n        /* \"#utility.yul\":4436:4442   */\n      dup2\n        /* \"#utility.yul\":4414:4443   */\n      tag_40\n      jump\t// in\n    tag_127:\n        /* \"#utility.yul\":4409:4412   */\n      dup5\n        /* \"#utility.yul\":4405:4444   */\n      add\n        /* \"#utility.yul\":4398:4444   */\n      swap2\n      pop\n        /* \"#utility.yul\":4178:4450   */\n      pop\n        /* \"#utility.yul\":4086:4450   */\n      swap3\n      swap2\n      pop\n      pop\n      jump\t// out\n        /* \"#utility.yul\":4456:4769   */\n    tag_18:\n        /* \"#utility.yul\":4569:4573   */\n      0x00\n        /* \"#utility.yul\":4607:4609   */\n      0x20\n        /* \"#utility.yul\":4596:4605   */\n      dup3\n        /* \"#utility.yul\":4592:4610   */\n      add\n        /* \"#utility.yul\":4584:4610   */\n      swap1\n      pop\n        /* \"#utility.yul\":4656:4665   */\n      dup2\n        /* \"#utility.yul\":4650:4654   */\n      dup2\n        /* \"#utility.yul\":4646:4666   */\n      sub\n        /* \"#utility.yul\":4642:4643   */\n      0x00\n        /* \"#utility.yul\":4631:4640   */\n      dup4\n        /* \"#utility.yul\":4627:4644   */\n      add\n        /* \"#utility.yul\":4620:4667   */\n      mstore\n        /* \"#utility.yul\":4684:4762   */\n      tag_129\n        /* \"#utility.yul\":4757:4761   */\n      dup2\n        /* \"#utility.yul\":4748:4754   */\n      dup5\n        /* \"#utility.yul\":4684:4762   */\n      tag_53\n      jump\t// in\n    tag_129:\n        /* \"#utility.yul\":4676:4762   */\n      swap1\n      pop\n        /* \"#utility.yul\":4456:4769   */\n      swap3\n      swap2\n      pop\n      pop\n      jump\t// out\n        /* \"#utility.yul\":4775:4901   */\n    tag_54:\n        /* \"#utility.yul\":4812:4819   */\n      0x00\n        /* \"#utility.yul\":4852:4894   */\n      0xffffffffffffffffffffffffffffffffffffffff\n        /* \"#utility.yul\":4845:4850   */\n      dup3\n        /* \"#utility.yul\":4841:4895   */\n      and\n        /* \"#utility.yul\":4830:4895   */\n      swap1\n      pop\n        /* \"#utility.yul\":4775:4901   */\n      swap2\n      swap1\n      pop\n      jump\t// out\n        /* \"#utility.yul\":4907:5003   */\n    tag_55:\n        /* \"#utility.yul\":4944:4951   */\n      0x00\n        /* \"#utility.yul\":4973:4997   */\n      tag_132\n        /* \"#utility.yul\":4991:4996   */\n      dup3\n        /* \"#utility.yul\":4973:4997   */\n      tag_54\n      jump\t// in\n    tag_132:\n        /* \"#utility.yul\":4962:4997   */\n      swap1\n      pop\n        /* \"#utility.yul\":4907:5003   */\n      swap2\n      swap1\n      pop\n      jump\t// out\n        /* \"#utility.yul\":5009:5127   */\n    tag_56:\n        /* \"#utility.yul\":5096:5120   */\n      tag_134\n        /* \"#utility.yul\":5114:5119   */\n      dup2\n        /* \"#utility.yul\":5096:5120   */\n      tag_55\n      jump\t// in\n    tag_134:\n        /* \"#utility.yul\":5091:5094   */\n      dup3\n        /* \"#utility.yul\":5084:5121   */\n      mstore\n        /* \"#utility.yul\":5009:5127   */\n      pop\n      pop\n      jump\t// out\n        /* \"#utility.yul\":5133:5355   */\n    tag_22:\n        /* \"#utility.yul\":5226:5230   */\n      0x00\n        /* \"#utility.yul\":5264:5266   */\n      0x20\n        /* \"#utility.yul\":5253:5262   */\n      dup3\n        /* \"#utility.yul\":5249:5267   */\n      add\n        /* \"#utility.yul\":5241:5267   */\n      swap1\n      pop\n        /* \"#utility.yul\":5277:5348   */\n      tag_136\n        /* \"#utility.yul\":5345:5346   */\n      0x00\n        /* \"#utility.yul\":5334:5343   */\n      dup4\n        /* \"#utility.yul\":5330:5347   */\n      add\n        /* \"#utility.yul\":5321:5327   */\n      dup5\n        /* \"#utility.yul\":5277:5348   */\n      tag_56\n      jump\t// in\n    tag_136:\n        /* \"#utility.yul\":5133:5355   */\n      swap3\n      swap2\n      pop\n      pop\n      jump\t// out\n        /* \"#utility.yul\":5361:5541   */\n    tag_57:\n        /* \"#utility.yul\":5409:5486   */\n      0x4e487b7100000000000000000000000000000000000000000000000000000000\n        /* \"#utility.yul\":5406:5407   */\n      0x00\n        /* \"#utility.yul\":5399:5487   */\n      mstore\n        /* \"#utility.yul\":5506:5510   */\n      0x22\n        /* \"#utility.yul\":5503:5504   */\n      0x04\n        /* \"#utility.yul\":5496:5511   */\n      mstore\n        /* \"#utility.yul\":5530:5534   */\n      0x24\n        /* \"#utility.yul\":5527:5528   */\n      0x00\n        /* \"#utility.yul\":5520:5535   */\n      revert\n        /* \"#utility.yul\":5547:5867   */\n    tag_30:\n        /* \"#utility.yul\":5591:5597   */\n      0x00\n        /* \"#utility.yul\":5628:5629   */\n      0x02\n        /* \"#utility.yul\":5622:5626   */\n      dup3\n        /* \"#utility.yul\":5618:5630   */\n      div\n        /* \"#utility.yul\":5608:5630   */\n      swap1\n      pop\n        /* \"#utility.yul\":5675:5676   */\n      0x01\n        /* \"#utility.yul\":5669:5673   */\n      dup3\n        /* \"#utility.yul\":5665:5677   */\n      and\n        /* \"#utility.yul\":5696:5714   */\n      dup1\n        /* \"#utility.yul\":5686:5767   */\n      tag_139\n      jumpi\n        /* \"#utility.yul\":5752:5756   */\n      0x7f\n        /* \"#utility.yul\":5744:5750   */\n      dup3\n        /* \"#utility.yul\":5740:5757   */\n      and\n        /* \"#utility.yul\":5730:5757   */\n      swap2\n      pop\n        /* \"#utility.yul\":5686:5767   */\n    tag_139:\n        /* \"#utility.yul\":5814:5816   */\n      0x20\n        /* \"#utility.yul\":5806:5812   */\n      dup3\n        /* \"#utility.yul\":5803:5817   */\n      lt\n        /* \"#utility.yul\":5783:5801   */\n      dup2\n        /* \"#utility.yul\":5780:5818   */\n      sub\n        /* \"#utility.yul\":5777:5861   */\n      tag_140\n      jumpi\n        /* \"#utility.yul\":5833:5851   */\n      tag_141\n      tag_57\n      jump\t// in\n    tag_141:\n        /* \"#utility.yul\":5777:5861   */\n    tag_140:\n        /* \"#utility.yul\":5598:5867   */\n      pop\n        /* \"#utility.yul\":5547:5867   */\n      swap2\n      swap1\n      pop\n      jump\t// out\n        /* \"#utility.yul\":5873:6014   */\n    tag_58:\n        /* \"#utility.yul\":5922:5926   */\n      0x00\n        /* \"#utility.yul\":5945:5948   */\n      dup2\n        /* \"#utility.yul\":5937:5948   */\n      swap1\n      pop\n        /* \"#utility.yul\":5968:5971   */\n      dup2\n        /* \"#utility.yul\":5965:5966   */\n      0x00\n        /* \"#utility.yul\":5958:5972   */\n      mstore\n        /* \"#utility.yul\":6002:6006   */\n      0x20\n        /* \"#utility.yul\":5999:6000   */\n      0x00\n        /* \"#utility.yul\":5989:6007   */\n      keccak256\n        /* \"#utility.yul\":5981:6007   */\n      swap1\n      pop\n        /* \"#utility.yul\":5873:6014   */\n      swap2\n      swap1\n      pop\n      jump\t// out\n        /* \"#utility.yul\":6020:6113   */\n    tag_59:\n        /* \"#utility.yul\":6057:6063   */\n      0x00\n        /* \"#utility.yul\":6104:6106   */\n      0x20\n        /* \"#utility.yul\":6099:6101   */\n      0x1f\n        /* \"#utility.yul\":6092:6097   */\n      dup4\n        /* \"#utility.yul\":6088:6102   */\n      add\n        /* \"#utility.yul\":6084:6107   */\n      div\n        /* \"#utility.yul\":6074:6107   */\n      swap1\n      pop\n        /* \"#utility.yul\":6020:6113   */\n      swap2\n      swap1\n      pop\n      jump\t// out\n        /* \"#utility.yul\":6119:6226   */\n    tag_60:\n        /* \"#utility.yul\":6163:6171   */\n      0x00\n        /* \"#utility.yul\":6213:6218   */\n      dup3\n        /* \"#utility.yul\":6207:6211   */\n      dup3\n        /* \"#utility.yul\":6203:6219   */\n      shl\n        /* \"#utility.yul\":6182:6219   */\n      swap1\n      pop\n        /* \"#utility.yul\":6119:6226   */\n      swap3\n      swap2\n      pop\n      pop\n      jump\t// out\n        /* \"#utility.yul\":6232:6625   */\n    tag_61:\n        /* \"#utility.yul\":6301:6307   */\n      0x00\n        /* \"#utility.yul\":6351:6352   */\n      0x08\n        /* \"#utility.yul\":6339:6349   */\n      dup4\n        /* \"#utility.yul\":6335:6353   */\n      mul\n        /* \"#utility.yul\":6374:6471   */\n      tag_146\n        /* \"#utility.yul\":6404:6470   */\n      0xffffffffffffffffffffffffffffffffffffffffffffffffffffffffffffffff\n        /* \"#utility.yul\":6393:6402   */\n      dup3\n        /* \"#utility.yul\":6374:6471   */\n      tag_60\n      jump\t// in\n    tag_146:\n        /* \"#utility.yul\":6492:6531   */\n      tag_147\n        /* \"#utility.yul\":6522:6530   */\n      dup7\n        /* \"#utility.yul\":6511:6520   */\n      dup4\n        /* \"#utility.yul\":6492:6531   */\n      tag_60\n      jump\t// in\n    tag_147:\n        /* \"#utility.yul\":6480:6531   */\n      swap6\n      pop\n        /* \"#utility.yul\":6564:6568   */\n      dup1\n        /* \"#utility.yul\":6560:6569   */\n      not\n        /* \"#utility.yul\":6553:6558   */\n      dup5\n        /* \"#utility.yul\":6549:6570   */\n      and\n        /* \"#utility.yul\":6540:6570   */\n      swap4\n      pop\n        /* \"#utility.yul\":6613:6617   */\n      dup1\n        /* \"#utility.yul\":6603:6611   */\n      dup7\n        /* \"#utility.yul\":6599:6618   */\n      and\n        /* \"#utility.yul\":6592:6597   */\n      dup5\n        /* \"#utility.yul\":6589:6619   */\n      or\n        /* \"#utility.yul\":6579:6619   */\n      swap3\n      pop\n        /* \"#utility.yul\":6308:6625   */\n      pop\n      pop\n        /* \"#utility.yul\":6232:6625   */\n      swap4\n      swap3\n      pop\n      pop\n      pop\n      jump\t// out\n        /* \"#utility.yul\":6631:6708   */\n    tag_62:\n        /* \"#utility.yul\":6668:6675   */\n      0x00\n        /* \"#utility.yul\":6697:6702   */\n      dup2\n        /* \"#utility.yul\":6686:6702   */\n      swap1\n      pop\n        /* \"#utility.yul\":6631:6708   */\n      swap2\n      swap1\n      pop\n      jump\t// out\n        /* \"#utility.yul\":6714:6774   */\n    tag_63:\n        /* \"#utility.yul\":6742:6745   */\n      0x00\n        /* \"#utility.yul\":6763:6768   */\n      dup2\n        /* \"#utility.yul\":6756:6768   */\n      swap1\n      pop\n        /* \"#utility.yul\":6714:6774   */\n      swap2\n      swap1\n      pop\n      jump\t// out\n        /* \"#utility.yul\":6780:6922   */\n    tag_64:\n        /* \"#utility.yul\":6830:6839   */\n      0x00\n        /* \"#utility.yul\":6863:6916   */\n      tag_151\n        /* \"#utility.yul\":6881:6915   */\n      tag_152\n        /* \"#utility.yul\":6890:6914   */\n      tag_153\n        /* \"#utility.yul\":6908:6913   */\n      dup5\n        /* \"#utility.yul\":6890:6914   */\n      tag_62\n      jump\t// in\n    tag_153:\n        /* \"#utility.yul\":6881:6915   */\n      tag_63\n      jump\t// in\n    tag_152:\n        /* \"#utility.yul\":6863:6916   */\n      tag_62\n      jump\t// in\n    tag_151:\n        /* \"#utility.yul\":6850:6916   */\n      swap1\n      pop\n        /* \"#utility.yul\":6780:6922   */\n      swap2\n      swap1\n      pop\n      jump\t// out\n        /* \"#utility.yul\":6928:7003   */\n    tag_65:\n        /* \"#utility.yul\":6971:6974   */\n      0x00\n        /* \"#utility.yul\":6992:6997   */\n      dup2\n        /* \"#utility.yul\":6985:6997   */\n      swap1\n      pop\n        /* \"#utility.yul\":6928:7003   */\n      swap2\n      swap1\n      pop\n      jump\t// out\n        /* \"#utility.yul\":7009:7278   */\n    tag_66:\n        /* \"#utility.yul\":7119:7158   */\n      tag_156\n        /* \"#utility.yul\":7150:7157   */\n      dup4\n        /* \"#utility.yul\":7119:7158   */\n      tag_64\n      jump\t// in\n    tag_156:\n        /* \"#utility.yul\":7180:7271   */\n      tag_157\n        /* \"#utility.yul\":7229:7270   */\n      tag_158\n        /* \"#utility.yul\":7253:7269   */\n      dup3\n        /* \"#utility.yul\":7229:7270   */\n      tag_65\n      jump\t// in\n    tag_158:\n        /* \"#utility.yul\":7221:7227   */\n      dup5\n        /* \"#utility.yul\":7214:7218   */\n      dup5\n        /* \"#utility.yul\":7208:7219   */\n      sload\n        /* \"#utility.yul\":7180:7271   */\n      tag_61\n      jump\t// in\n    tag_157:\n        /* \"#utility.yul\":7174:7178   */\n      dup3\n        /* \"#utility.yul\":7167:7272   */\n      sstore\n        /* \"#utility.yul\":7085:7278   */\n      pop\n        /* \"#utility.yul\":7009:7278   */\n      pop\n      pop\n      pop\n      jump\t// out\n        /* \"#utility.yul\":7284:7357   */\n    tag_67:\n        /* \"#utility.yul\":7329:7332   */\n      0x00\n        /* \"#utility.yul\":7284:7357   */\n      swap1\n      jump\t// out\n        /* \"#utility.yul\":7363:7552   */\n    tag_68:\n        /* \"#utility.yul\":7440:7472   */\n      tag_161\n      tag_67\n      jump\t// in\n    tag_161:\n        /* \"#utility.yul\":7481:7546   */\n      tag_162\n        /* \"#utility.yul\":7539:7545   */\n      dup2\n        /* \"#utility.yul\":7531:7537   */\n      dup5\n        /* \"#utility.yul\":7525:7529   */\n      dup5\n        /* \"#utility.yul\":7481:7546   */\n      tag_66\n      jump\t// in\n    tag_162:\n        /* \"#utility.yul\":7416:7552   */\n      pop\n        /* \"#utility.yul\":7363:7552   */\n      pop\n      pop\n      jump\t// out\n        /* \"#utility.yul\":7558:7744   */\n    tag_69:\n        /* \"#utility.yul\":7618:7738   */\n    tag_164:\n        /* \"#utility.yul\":7635:7638   */\n      dup2\n        /* \"#utility.yul\":7628:7633   */\n      dup2\n        /* \"#utility.yul\":7625:7639   */\n      lt\n        /* \"#utility.yul\":7618:7738   */\n      iszero\n      tag_166\n      jumpi\n        /* \"#utility.yul\":7689:7728   */\n      tag_167\n        /* \"#utility.yul\":7726:7727   */\n      0x00\n        /* \"#utility.yul\":7719:7724   */\n      dup3\n        /* \"#utility.yul\":7689:7728   */\n      tag_68\n      jump\t// in\n    tag_167:\n        /* \"#utility.yul\":7662:7663   */\n      0x01\n        /* \"#utility.yul\":7655:7660   */\n      dup2\n        /* \"#utility.yul\":7651:7664   */\n      add\n        /* \"#utility.yul\":7642:7664   */\n      swap1\n      pop\n        /* \"#utility.yul\":7618:7738   */\n      jump(tag_164)\n    tag_166:\n        /* \"#utility.yul\":7558:7744   */\n      pop\n      pop\n      jump\t// out\n        /* \"#utility.yul\":7750:8293   */\n    tag_70:\n        /* \"#utility.yul\":7851:7853   */\n      0x1f\n        /* \"#utility.yul\":7846:7849   */\n      dup3\n        /* \"#utility.yul\":7843:7854   */\n      gt\n        /* \"#utility.yul\":7840:8286   */\n      iszero\n      tag_169\n      jumpi\n        /* \"#utility.yul\":7885:7923   */\n      tag_170\n        /* \"#utility.yul\":7917:7922   */\n      dup2\n        /* \"#utility.yul\":7885:7923   */\n      tag_58\n      jump\t// in\n    tag_170:\n        /* \"#utility.yul\":7969:7998   */\n      tag_171\n        /* \"#utility.yul\":7987:7997   */\n      dup5\n        /* \"#utility.yul\":7969:7998   */\n      tag_59\n      jump\t// in\n    tag_171:\n        /* \"#utility.yul\":7959:7967   */\n      dup2\n        /* \"#utility.yul\":7955:7999   */\n      add\n        /* \"#utility.yul\":8152:8154   */\n      0x20\n        /* \"#utility.yul\":8140:8150   */\n      dup6\n        /* \"#utility.yul\":8137:8155   */\n      lt\n        /* \"#utility.yul\":8134:8183   */\n      iszero\n      tag_172\n      jumpi\n        /* \"#utility.yul\":8173:8181   */\n      dup2\n        /* \"#utility.yul\":8158:8181   */\n      swap1\n      pop\n        /* \"#utility.yul\":8134:8183   */\n    tag_172:\n        /* \"#utility.yul\":8196:8276   */\n      tag_173\n        /* \"#utility.yul\":8252:8274   */\n      tag_174\n        /* \"#utility.yul\":8270:8273   */\n      dup6\n        /* \"#utility.yul\":8252:8274   */\n      tag_59\n      jump\t// in\n    tag_174:\n        /* \"#utility.yul\":8242:8250   */\n      dup4\n        /* \"#utility.yul\":8238:8275   */\n      add\n        /* \"#utility.yul\":8225:8236   */\n      dup3\n        /* \"#utility.yul\":8196:8276   */\n      tag_69\n      jump\t// in\n    tag_173:\n        /* \"#utility.yul\":7855:8286   */\n      pop\n      pop\n        /* \"#utility.yul\":7840:8286   */\n    tag_169:\n        /* \"#utility.yul\":7750:8293   */\n      pop\n      pop\n      pop\n      jump\t// out\n        /* \"#utility.yul\":8299:8416   */\n    tag_71:\n        /* \"#utility.yul\":8353:8361   */\n      0x00\n        /* \"#utility.yul\":8403:8408   */\n      dup3\n        /* \"#utility.yul\":8397:8401   */\n      dup3\n        /* \"#utility.yul\":8393:8409   */\n      shr\n        /* \"#utility.yul\":8372:8409   */\n      swap1\n      pop\n        /* \"#utility.yul\":8299:8416   */\n      swap3\n      swap2\n      pop\n      pop\n      jump\t// out\n        /* \"#utility.yul\":8422:8591   */\n    tag_72:\n        /* \"#utility.yul\":8466:8472   */\n      0x00\n        /* \"#utility.yul\":8499:8550   */\n      tag_177\n        /* \"#utility.yul\":8547:8548   */\n      0x00\n        /* \"#utility.yul\":8543:8549   */\n      not\n        /* \"#utility.yul\":8535:8540   */\n      dup5\n        /* \"#utility.yul\":8532:8533   */\n      0x08\n        /* \"#utility.yul\":8528:8541   */\n      mul\n        /* \"#utility.yul\":8499:8550   */\n      tag_71\n      jump\t// in\n    tag_177:\n        /* \"#utility.yul\":8495:8551   */\n      not\n        /* \"#utility.yul\":8580:8584   */\n      dup1\n        /* \"#utility.yul\":8574:8578   */\n      dup4\n        /* \"#utility.yul\":8570:8585   */\n      and\n        /* \"#utility.yul\":8560:8585   */\n      swap2\n      pop\n        /* \"#utility.yul\":8473:8591   */\n      pop\n        /* \"#utility.yul\":8422:8591   */\n      swap3\n      swap2\n      pop\n      pop\n      jump\t// out\n        /* \"#utility.yul\":8596:8891   */\n    tag_73:\n        /* \"#utility.yul\":8672:8676   */\n      0x00\n        /* \"#utility.yul\":8818:8847   */\n      tag_179\n        /* \"#utility.yul\":8843:8846   */\n      dup4\n        /* \"#utility.yul\":8837:8841   */\n      dup4\n        /* \"#utility.yul\":8818:8847   */\n      tag_72\n      jump\t// in\n    tag_179:\n        /* \"#utility.yul\":8810:8847   */\n      swap2\n      pop\n        /* \"#utility.yul\":8880:8883   */\n      dup3\n        /* \"#utility.yul\":8877:8878   */\n      0x02\n        /* \"#utility.yul\":8873:8884   */\n      mul\n        /* \"#utility.yul\":8867:8871   */\n      dup3\n        /* \"#utility.yul\":8864:8885   */\n      or\n        /* \"#utility.yul\":8856:8885   */\n      swap1\n      pop\n        /* \"#utility.yul\":8596:8891   */\n      swap3\n      swap2\n      pop\n      pop\n      jump\t// out\n        /* \"#utility.yul\":8896:10291   */\n    tag_26:\n        /* \"#utility.yul\":9013:9050   */\n      tag_181\n        /* \"#utility.yul\":9046:9049   */\n      dup3\n        /* \"#utility.yul\":9013:9050   */\n      tag_50\n      jump\t// in\n    tag_181:\n        /* \"#utility.yul\":9115:9133   */\n      0xffffffffffffffff\n        /* \"#utility.yul\":9107:9113   */\n      dup2\n        /* \"#utility.yul\":9104:9134   */\n      gt\n        /* \"#utility.yul\":9101:9157   */\n      iszero\n      tag_182\n      jumpi\n        /* \"#utility.yul\":9137:9155   */\n      tag_183\n      tag_41\n      jump\t// in\n    tag_183:\n        /* \"#utility.yul\":9101:9157   */\n    tag_182:\n        /* \"#utility.yul\":9181:9219   */\n      tag_184\n        /* \"#utility.yul\":9213:9217   */\n      dup3\n        /* \"#utility.yul\":9207:9218   */\n      sload\n        /* \"#utility.yul\":9181:9219   */\n      tag_30\n      jump\t// in\n    tag_184:\n        /* \"#utility.yul\":9266:9333   */\n      tag_185\n        /* \"#utility.yul\":9326:9332   */\n      dup3\n        /* \"#utility.yul\":9318:9324   */\n      dup3\n        /* \"#utility.yul\":9312:9316   */\n      dup6\n        /* \"#utility.yul\":9266:9333   */\n      tag_70\n      jump\t// in\n    tag_185:\n        /* \"#utility.yul\":9360:9361   */\n      0x00\n        /* \"#utility.yul\":9384:9388   */\n      0x20\n        /* \"#utility.yul\":9371:9388   */\n      swap1\n      pop\n        /* \"#utility.yul\":9416:9418   */\n      0x1f\n        /* \"#utility.yul\":9408:9414   */\n      dup4\n        /* \"#utility.yul\":9405:9419   */\n      gt\n        /* \"#utility.yul\":9433:9434   */\n      0x01\n        /* \"#utility.yul\":9428:10046   */\n      dup2\n      eq\n      tag_187\n      jumpi\n        /* \"#utility.yul\":10090:10091   */\n      0x00\n        /* \"#utility.yul\":10107:10113   */\n      dup5\n        /* \"#utility.yul\":10104:10181   */\n      iszero\n      tag_188\n      jumpi\n        /* \"#utility.yul\":10156:10165   */\n      dup3\n        /* \"#utility.yul\":10151:10154   */\n      dup8\n        /* \"#utility.yul\":10147:10166   */\n      add\n        /* \"#utility.yul\":10141:10167   */\n      mload\n        /* \"#utility.yul\":10132:10167   */\n      swap1\n      pop\n        /* \"#utility.yul\":10104:10181   */\n    tag_188:\n        /* \"#utility.yul\":10207:10274   */\n      tag_189\n        /* \"#utility.yul\":10267:10273   */\n      dup6\n        /* \"#utility.yul\":10260:10265   */\n      dup3\n        /* \"#utility.yul\":10207:10274   */\n      tag_73\n      jump\t// in\n    tag_189:\n        /* \"#utility.yul\":10201:10205   */\n      dup7\n        /* \"#utility.yul\":10194:10275   */\n      sstore\n        /* \"#utility.yul\":10063:10285   */\n      pop\n        /* \"#utility.yul\":9398:10285   */\n      jump(tag_186)\n        /* \"#utility.yul\":9428:10046   */\n    tag_187:\n        /* \"#utility.yul\":9480:9484   */\n      0x1f\n        /* \"#utility.yul\":9476:9485   */\n      not\n        /* \"#utility.yul\":9468:9474   */\n      dup5\n        /* \"#utility.yul\":9464:9486   */\n      and\n        /* \"#utility.yul\":9514:9551   */\n      tag_190\n        /* \"#utility.yul\":9546:9550   */\n      dup7\n        /* \"#utility.yul\":9514:9551   */\n      tag_58\n      jump\t// in\n    tag_190:\n        /* \"#utility.yul\":9573:9574   */\n      0x00\n        /* \"#utility.yul\":9587:9795   */\n    tag_191:\n        /* \"#utility.yul\":9601:9608   */\n      dup3\n        /* \"#utility.yul\":9598:9599   */\n      dup2\n        /* \"#utility.yul\":9595:9609   */\n      lt\n        /* \"#utility.yul\":9587:9795   */\n      iszero\n      tag_193\n      jumpi\n        /* \"#utility.yul\":9680:9689   */\n      dup5\n        /* \"#utility.yul\":9675:9678   */\n      dup10\n        /* \"#utility.yul\":9671:9690   */\n      add\n        /* \"#utility.yul\":9665:9691   */\n      mload\n        /* \"#utility.yul\":9657:9663   */\n      dup3\n        /* \"#utility.yul\":9650:9692   */\n      sstore\n        /* \"#utility.yul\":9731:9732   */\n      0x01\n        /* \"#utility.yul\":9723:9729   */\n      dup3\n        /* \"#utility.yul\":9719:9733   */\n      add\n        /* \"#utility.yul\":9709:9733   */\n      swap2\n      pop\n        /* \"#utility.yul\":9778:9780   */\n      0x20\n        /* \"#utility.yul\":9767:9776   */\n      dup6\n        /* \"#utility.yul\":9763:9781   */\n      add\n        /* \"#utility.yul\":9750:9781   */\n      swap5\n      pop\n        /* \"#utility.yul\":9624:9628   */\n      0x20\n        /* \"#utility.yul\":9621:9622   */\n      dup2\n        /* \"#utility.yul\":9617:9629   */\n      add\n        /* \"#utility.yul\":9612:9629   */\n      swap1\n      pop\n        /* \"#utility.yul\":9587:9795   */\n      jump(tag_191)\n    tag_193:\n        /* \"#utility.yul\":9823:9829   */\n      dup7\n        /* \"#utility.yul\":9814:9821   */\n      dup4\n        /* \"#utility.yul\":9811:9830   */\n      lt\n        /* \"#utility.yul\":9808:9987   */\n      iszero\n      tag_194\n      jumpi\n        /* \"#utility.yul\":9881:9890   */\n      dup5\n        /* \"#utility.yul\":9876:9879   */\n      dup10\n        /* \"#utility.yul\":9872:9891   */\n      add\n        /* \"#utility.yul\":9866:9892   */\n      mload\n        /* \"#utility.yul\":9924:9972   */\n      tag_195\n        /* \"#utility.yul\":9966:9970   */\n      0x1f\n        /* \"#utility.yul\":9958:9964   */\n      dup10\n        /* \"#utility.yul\":9954:9971   */\n      and\n        /* \"#utility.yul\":9943:9952   */\n      dup3\n        /* \"#utility.yul\":9924:9972   */\n      tag_72\n      jump\t// in\n    tag_195:\n        /* \"#utility.yul\":9916:9922   */\n      dup4\n        /* \"#utility.yul\":9909:9973   */\n      sstore\n        /* \"#utility.yul\":9831:9987   */\n      pop\n        /* \"#utility.yul\":9808:9987   */\n    tag_194:\n        /* \"#utility.yul\":10033:10034   */\n      0x01\n        /* \"#utility.yul\":10029:10030   */\n      0x02\n        /* \"#utility.yul\":10021:10027   */\n      dup9\n        /* \"#utility.yul\":10017:10031   */\n      mul\n        /* \"#utility.yul\":10013:10035   */\n      add\n        /* \"#utility.yul\":10007:10011   */\n      dup9\n        /* \"#utility.yul\":10000:10036   */\n      sstore\n        /* \"#utility.yul\":9435:10046   */\n      pop\n      pop\n      pop\n        /* \"#utility.yul\":9398:10285   */\n    tag_186:\n      pop\n        /* \"#utility.yul\":8988:10291   */\n      pop\n      pop\n      pop\n        /* \"#utility.yul\":8896:10291   */\n      pop\n      pop\n      jump\t// out\n        /* \"#utility.yul\":10297:10477   */\n    tag_74:\n        /* \"#utility.yul\":10345:10422   */\n      0x4e487b7100000000000000000000000000000000000000000000000000000000\n        /* \"#utility.yul\":10342:10343   */\n      0x00\n        /* \"#utility.yul\":10335:10423   */\n      mstore\n        /* \"#utility.yul\":10442:10446   */\n      0x11\n        /* \"#utility.yul\":10439:10440   */\n      0x04\n        /* \"#utility.yul\":10432:10447   */\n      mstore\n        /* \"#utility.yul\":10466:10470   */\n      0x24\n        /* \"#utility.yul\":10463:10464   */\n      0x00\n        /* \"#utility.yul\":10456:10471   */\n      revert\n        /* \"#utility.yul\":10483:10650   */\n    tag_28:\n        /* \"#utility.yul\":10520:10523   */\n      0x00\n        /* \"#utility.yul\":10543:10565   */\n      tag_198\n        /* \"#utility.yul\":10559:10564   */\n      dup3\n        /* \"#utility.yul\":10543:10565   */\n      tag_48\n      jump\t// in\n    tag_198:\n        /* \"#utility.yul\":10534:10565   */\n      swap2\n      pop\n        /* \"#utility.yul\":10587:10591   */\n      0xff\n        /* \"#utility.yul\":10580:10585   */\n      dup3\n        /* \"#utility.yul\":10577:10592   */\n      sub\n        /* \"#utility.yul\":10574:10615   */\n      tag_199\n      jumpi\n        /* \"#utility.yul\":10595:10613   */\n      tag_200\n      tag_74\n      jump\t// in\n    tag_200:\n        /* \"#utility.yul\":10574:10615   */\n    tag_199:\n        /* \"#utility.yul\":10642:10643   */\n      0x01\n        /* \"#utility.yul\":10635:10640   */\n      dup3\n        /* \"#utility.yul\":10631:10644   */\n      add\n        /* \"#utility.yul\":10624:10644   */\n      swap1\n      pop\n        /* \"#utility.yul\":10483:10650   */\n      swap2\n      swap1\n      pop\n      jump\t// out\n\n    auxdata: 0xa2646970667358221220fe6ef43f84648f4a2b73c8632933ec35945d74326c53a87de19aaca9a8a6851864736f6c634300080f0033\n}\n",
				"bytecode": {
					"linkReferences": {},
					"object": "608060405234801561001057600080fd5b506000339050806001806101000a81548173ffffffffffffffffffffffffffffffffffffffff021916908373ffffffffffffffffffffffffffffffffffffffff16021790555050610881806100666000396000f3fe608060405234801561001057600080fd5b506004361061004c5760003560e01c80630b626a12146100515780631687fe8e1461006d5780636334c29c1461008b5780638f84aa09146100a9575b600080fd5b61006b60048036038101906100669190610385565b6100c7565b005b610075610166565b60405161008291906103ea565b60405180910390f35b610093610179565b6040516100a0919061048d565b60405180910390f35b6100b1610207565b6040516100be91906104f0565b60405180910390f35b3373ffffffffffffffffffffffffffffffffffffffff1660018054906101000a900473ffffffffffffffffffffffffffffffffffffffff1673ffffffffffffffffffffffffffffffffffffffff16036101635780600090816101299190610721565b506001600081819054906101000a900460ff168092919061014990610822565b91906101000a81548160ff021916908360ff160217905550505b50565b600160009054906101000a900460ff1681565b600080546101869061053a565b80601f01602080910402602001604051908101604052809291908181526020018280546101b29061053a565b80156101ff5780601f106101d4576101008083540402835291602001916101ff565b820191906000526020600020905b8154815290600101906020018083116101e257829003601f168201915b505050505081565b60018054906101000a900473ffffffffffffffffffffffffffffffffffffffff1681565b6000604051905090565b600080fd5b600080fd5b600080fd5b600080fd5b6000601f19601f8301169050919050565b7f4e487b7100000000000000000000000000000000000000000000000000000000600052604160045260246000fd5b61029282610249565b810181811067ffffffffffffffff821117156102b1576102b061025a565b5b80604052505050565b60006102c461022b565b90506102d08282610289565b919050565b600067ffffffffffffffff8211156102f0576102ef61025a565b5b6102f982610249565b9050602081019050919050565b82818337600083830152505050565b6000610328610323846102d5565b6102ba565b90508281526020810184848401111561034457610343610244565b5b61034f848285610306565b509392505050565b600082601f83011261036c5761036b61023f565b5b813561037c848260208601610315565b91505092915050565b60006020828403121561039b5761039a610235565b5b600082013567ffffffffffffffff8111156103b9576103b861023a565b5b6103c584828501610357565b91505092915050565b600060ff82169050919050565b6103e4816103ce565b82525050565b60006020820190506103ff60008301846103db565b92915050565b600081519050919050565b600082825260208201905092915050565b60005b8381101561043f578082015181840152602081019050610424565b8381111561044e576000848401525b50505050565b600061045f82610405565b6104698185610410565b9350610479818560208601610421565b61048281610249565b840191505092915050565b600060208201905081810360008301526104a78184610454565b905092915050565b600073ffffffffffffffffffffffffffffffffffffffff82169050919050565b60006104da826104af565b9050919050565b6104ea816104cf565b82525050565b600060208201905061050560008301846104e1565b92915050565b7f4e487b7100000000000000000000000000000000000000000000000000000000600052602260045260246000fd5b6000600282049050600182168061055257607f821691505b6020821081036105655761056461050b565b5b50919050565b60008190508160005260206000209050919050565b60006020601f8301049050919050565b600082821b905092915050565b6000600883026105cd7fffffffffffffffffffffffffffffffffffffffffffffffffffffffffffffffff82610590565b6105d78683610590565b95508019841693508086168417925050509392505050565b6000819050919050565b6000819050919050565b600061061e610619610614846105ef565b6105f9565b6105ef565b9050919050565b6000819050919050565b61063883610603565b61064c61064482610625565b84845461059d565b825550505050565b600090565b610661610654565b61066c81848461062f565b505050565b5b8181101561069057610685600082610659565b600181019050610672565b5050565b601f8211156106d5576106a68161056b565b6106af84610580565b810160208510156106be578190505b6106d26106ca85610580565b830182610671565b50505b505050565b600082821c905092915050565b60006106f8600019846008026106da565b1980831691505092915050565b600061071183836106e7565b9150826002028217905092915050565b61072a82610405565b67ffffffffffffffff8111156107435761074261025a565b5b61074d825461053a565b610758828285610694565b600060209050601f83116001811461078b5760008415610779578287015190505b6107838582610705565b8655506107eb565b601f1984166107998661056b565b60005b828110156107c15784890151825560018201915060208501945060208101905061079c565b868310156107de57848901516107da601f8916826106e7565b8355505b6001600288020188555050505b505050505050565b7f4e487b7100000000000000000000000000000000000000000000000000000000600052601160045260246000fd5b600061082d826103ce565b915060ff82036108405761083f6107f3565b5b60018201905091905056fea2646970667358221220fe6ef43f84648f4a2b73c8632933ec35945d74326c53a87de19aaca9a8a6851864736f6c634300080f0033",
					"opcodes": "PUSH1 0x80 PUSH1 0x40 MSTORE CALLVALUE DUP1 ISZERO PUSH2 0x10 JUMPI PUSH1 0x0 DUP1 REVERT JUMPDEST POP PUSH1 0x0 CALLER SWAP1 POP DUP1 PUSH1 0x1 DUP1 PUSH2 0x100 EXP DUP2 SLOAD DUP2 PUSH20 0xFFFFFFFFFFFFFFFFFFFFFFFFFFFFFFFFFFFFFFFF MUL NOT AND SWAP1 DUP4 PUSH20 0xFFFFFFFFFFFFFFFFFFFFFFFFFFFFFFFFFFFFFFFF AND MUL OR SWAP1 SSTORE POP POP PUSH2 0x881 DUP1 PUSH2 0x66 PUSH1 0x0 CODECOPY PUSH1 0x0 RETURN INVALID PUSH1 0x80 PUSH1 0x40 MSTORE CALLVALUE DUP1 ISZERO PUSH2 0x10 JUMPI PUSH1 0x0 DUP1 REVERT JUMPDEST POP PUSH1 0x4 CALLDATASIZE LT PUSH2 0x4C JUMPI PUSH1 0x0 CALLDATALOAD PUSH1 0xE0 SHR DUP1 PUSH4 0xB626A12 EQ PUSH2 0x51 JUMPI DUP1 PUSH4 0x1687FE8E EQ PUSH2 0x6D JUMPI DUP1 PUSH4 0x6334C29C EQ PUSH2 0x8B JUMPI DUP1 PUSH4 0x8F84AA09 EQ PUSH2 0xA9 JUMPI JUMPDEST PUSH1 0x0 DUP1 REVERT JUMPDEST PUSH2 0x6B PUSH1 0x4 DUP1 CALLDATASIZE SUB DUP2 ADD SWAP1 PUSH2 0x66 SWAP2 SWAP1 PUSH2 0x385 JUMP JUMPDEST PUSH2 0xC7 JUMP JUMPDEST STOP JUMPDEST PUSH2 0x75 PUSH2 0x166 JUMP JUMPDEST PUSH1 0x40 MLOAD PUSH2 0x82 SWAP2 SWAP1 PUSH2 0x3EA JUMP JUMPDEST PUSH1 0x40 MLOAD DUP1 SWAP2 SUB SWAP1 RETURN JUMPDEST PUSH2 0x93 PUSH2 0x179 JUMP JUMPDEST PUSH1 0x40 MLOAD PUSH2 0xA0 SWAP2 SWAP1 PUSH2 0x48D JUMP JUMPDEST PUSH1 0x40 MLOAD DUP1 SWAP2 SUB SWAP1 RETURN JUMPDEST PUSH2 0xB1 PUSH2 0x207 JUMP JUMPDEST PUSH1 0x40 MLOAD PUSH2 0xBE SWAP2 SWAP1 PUSH2 0x4F0 JUMP JUMPDEST PUSH1 0x40 MLOAD DUP1 SWAP2 SUB SWAP1 RETURN JUMPDEST CALLER PUSH20 0xFFFFFFFFFFFFFFFFFFFFFFFFFFFFFFFFFFFFFFFF AND PUSH1 0x1 DUP1 SLOAD SWAP1 PUSH2 0x100 EXP SWAP1 DIV PUSH20 0xFFFFFFFFFFFFFFFFFFFFFFFFFFFFFFFFFFFFFFFF AND PUSH20 0xFFFFFFFFFFFFFFFFFFFFFFFFFFFFFFFFFFFFFFFF AND SUB PUSH2 0x163 JUMPI DUP1 PUSH1 0x0 SWAP1 DUP2 PUSH2 0x129 SWAP2 SWAP1 PUSH2 0x721 JUMP JUMPDEST POP PUSH1 0x1 PUSH1 0x0 DUP2 DUP2 SWAP1 SLOAD SWAP1 PUSH2 0x100 EXP SWAP1 DIV PUSH1 0xFF AND DUP1 SWAP3 SWAP2 SWAP1 PUSH2 0x149 SWAP1 PUSH2 0x822 JUMP JUMPDEST SWAP2 SWAP1 PUSH2 0x100 EXP DUP2 SLOAD DUP2 PUSH1 0xFF MUL NOT AND SWAP1 DUP4 PUSH1 0xFF AND MUL OR SWAP1 SSTORE POP POP JUMPDEST POP JUMP JUMPDEST PUSH1 0x1 PUSH1 0x0 SWAP1 SLOAD SWAP1 PUSH2 0x100 EXP SWAP1 DIV PUSH1 0xFF AND DUP2 JUMP JUMPDEST PUSH1 0x0 DUP1 SLOAD PUSH2 0x186 SWAP1 PUSH2 0x53A JUMP JUMPDEST DUP1 PUSH1 0x1F ADD PUSH1 0x20 DUP1 SWAP2 DIV MUL PUSH1 0x20 ADD PUSH1 0x40 MLOAD SWAP1 DUP2 ADD PUSH1 0x40 MSTORE DUP1 SWAP3 SWAP2 SWAP1 DUP2 DUP2 MSTORE PUSH1 0x20 ADD DUP3 DUP1 SLOAD PUSH2 0x1B2 SWAP1 PUSH2 0x53A JUMP JUMPDEST DUP1 ISZERO PUSH2 0x1FF JUMPI DUP1 PUSH1 0x1F LT PUSH2 0x1D4 JUMPI PUSH2 0x100 DUP1 DUP4 SLOAD DIV MUL DUP4 MSTORE SWAP2 PUSH1 0x20 ADD SWAP2 PUSH2 0x1FF JUMP JUMPDEST DUP3 ADD SWAP2 SWAP1 PUSH1 0x0 MSTORE PUSH1 0x20 PUSH1 0x0 KECCAK256 SWAP1 JUMPDEST DUP2 SLOAD DUP2 MSTORE SWAP1 PUSH1 0x1 ADD SWAP1 PUSH1 0x20 ADD DUP1 DUP4 GT PUSH2 0x1E2 JUMPI DUP3 SWAP1 SUB PUSH1 0x1F AND DUP3 ADD SWAP2 JUMPDEST POP POP POP POP POP DUP2 JUMP JUMPDEST PUSH1 0x1 DUP1 SLOAD SWAP1 PUSH2 0x100 EXP SWAP1 DIV PUSH20 0xFFFFFFFFFFFFFFFFFFFFFFFFFFFFFFFFFFFFFFFF AND DUP2 JUMP JUMPDEST PUSH1 0x0 PUSH1 0x40 MLOAD SWAP1 POP SWAP1 JUMP JUMPDEST PUSH1 0x0 DUP1 REVERT JUMPDEST PUSH1 0x0 DUP1 REVERT JUMPDEST PUSH1 0x0 DUP1 REVERT JUMPDEST PUSH1 0x0 DUP1 REVERT JUMPDEST PUSH1 0x0 PUSH1 0x1F NOT PUSH1 0x1F DUP4 ADD AND SWAP1 POP SWAP2 SWAP1 POP JUMP JUMPDEST PUSH32 0x4E487B7100000000000000000000000000000000000000000000000000000000 PUSH1 0x0 MSTORE PUSH1 0x41 PUSH1 0x4 MSTORE PUSH1 0x24 PUSH1 0x0 REVERT JUMPDEST PUSH2 0x292 DUP3 PUSH2 0x249 JUMP JUMPDEST DUP2 ADD DUP2 DUP2 LT PUSH8 0xFFFFFFFFFFFFFFFF DUP3 GT OR ISZERO PUSH2 0x2B1 JUMPI PUSH2 0x2B0 PUSH2 0x25A JUMP JUMPDEST JUMPDEST DUP1 PUSH1 0x40 MSTORE POP POP POP JUMP JUMPDEST PUSH1 0x0 PUSH2 0x2C4 PUSH2 0x22B JUMP JUMPDEST SWAP1 POP PUSH2 0x2D0 DUP3 DUP3 PUSH2 0x289 JUMP JUMPDEST SWAP2 SWAP1 POP JUMP JUMPDEST PUSH1 0x0 PUSH8 0xFFFFFFFFFFFFFFFF DUP3 GT ISZERO PUSH2 0x2F0 JUMPI PUSH2 0x2EF PUSH2 0x25A JUMP JUMPDEST JUMPDEST PUSH2 0x2F9 DUP3 PUSH2 0x249 JUMP JUMPDEST SWAP1 POP PUSH1 0x20 DUP2 ADD SWAP1 POP SWAP2 SWAP1 POP JUMP JUMPDEST DUP3 DUP2 DUP4 CALLDATACOPY PUSH1 0x0 DUP4 DUP4 ADD MSTORE POP POP POP JUMP JUMPDEST PUSH1 0x0 PUSH2 0x328 PUSH2 0x323 DUP5 PUSH2 0x2D5 JUMP JUMPDEST PUSH2 0x2BA JUMP JUMPDEST SWAP1 POP DUP3 DUP2 MSTORE PUSH1 0x20 DUP2 ADD DUP5 DUP5 DUP5 ADD GT ISZERO PUSH2 0x344 JUMPI PUSH2 0x343 PUSH2 0x244 JUMP JUMPDEST JUMPDEST PUSH2 0x34F DUP5 DUP3 DUP6 PUSH2 0x306 JUMP JUMPDEST POP SWAP4 SWAP3 POP POP POP JUMP JUMPDEST PUSH1 0x0 DUP3 PUSH1 0x1F DUP4 ADD SLT PUSH2 0x36C JUMPI PUSH2 0x36B PUSH2 0x23F JUMP JUMPDEST JUMPDEST DUP2 CALLDATALOAD PUSH2 0x37C DUP5 DUP3 PUSH1 0x20 DUP7 ADD PUSH2 0x315 JUMP JUMPDEST SWAP2 POP POP SWAP3 SWAP2 POP POP JUMP JUMPDEST PUSH1 0x0 PUSH1 0x20 DUP3 DUP5 SUB SLT ISZERO PUSH2 0x39B JUMPI PUSH2 0x39A PUSH2 0x235 JUMP JUMPDEST JUMPDEST PUSH1 0x0 DUP3 ADD CALLDATALOAD PUSH8 0xFFFFFFFFFFFFFFFF DUP2 GT ISZERO PUSH2 0x3B9 JUMPI PUSH2 0x3B8 PUSH2 0x23A JUMP JUMPDEST JUMPDEST PUSH2 0x3C5 DUP5 DUP3 DUP6 ADD PUSH2 0x357 JUMP JUMPDEST SWAP2 POP POP SWAP3 SWAP2 POP POP JUMP JUMPDEST PUSH1 0x0 PUSH1 0xFF DUP3 AND SWAP1 POP SWAP2 SWAP1 POP JUMP JUMPDEST PUSH2 0x3E4 DUP2 PUSH2 0x3CE JUMP JUMPDEST DUP3 MSTORE POP POP JUMP JUMPDEST PUSH1 0x0 PUSH1 0x20 DUP3 ADD SWAP1 POP PUSH2 0x3FF PUSH1 0x0 DUP4 ADD DUP5 PUSH2 0x3DB JUMP JUMPDEST SWAP3 SWAP2 POP POP JUMP JUMPDEST PUSH1 0x0 DUP2 MLOAD SWAP1 POP SWAP2 SWAP1 POP JUMP JUMPDEST PUSH1 0x0 DUP3 DUP3 MSTORE PUSH1 0x20 DUP3 ADD SWAP1 POP SWAP3 SWAP2 POP POP JUMP JUMPDEST PUSH1 0x0 JUMPDEST DUP4 DUP2 LT ISZERO PUSH2 0x43F JUMPI DUP1 DUP3 ADD MLOAD DUP2 DUP5 ADD MSTORE PUSH1 0x20 DUP2 ADD SWAP1 POP PUSH2 0x424 JUMP JUMPDEST DUP4 DUP2 GT ISZERO PUSH2 0x44E JUMPI PUSH1 0x0 DUP5 DUP5 ADD MSTORE JUMPDEST POP POP POP POP JUMP JUMPDEST PUSH1 0x0 PUSH2 0x45F DUP3 PUSH2 0x405 JUMP JUMPDEST PUSH2 0x469 DUP2 DUP6 PUSH2 0x410 JUMP JUMPDEST SWAP4 POP PUSH2 0x479 DUP2 DUP6 PUSH1 0x20 DUP7 ADD PUSH2 0x421 JUMP JUMPDEST PUSH2 0x482 DUP2 PUSH2 0x249 JUMP JUMPDEST DUP5 ADD SWAP2 POP POP SWAP3 SWAP2 POP POP JUMP JUMPDEST PUSH1 0x0 PUSH1 0x20 DUP3 ADD SWAP1 POP DUP2 DUP2 SUB PUSH1 0x0 DUP4 ADD MSTORE PUSH2 0x4A7 DUP2 DUP5 PUSH2 0x454 JUMP JUMPDEST SWAP1 POP SWAP3 SWAP2 POP POP JUMP JUMPDEST PUSH1 0x0 PUSH20 0xFFFFFFFFFFFFFFFFFFFFFFFFFFFFFFFFFFFFFFFF DUP3 AND SWAP1 POP SWAP2 SWAP1 POP JUMP JUMPDEST PUSH1 0x0 PUSH2 0x4DA DUP3 PUSH2 0x4AF JUMP JUMPDEST SWAP1 POP SWAP2 SWAP1 POP JUMP JUMPDEST PUSH2 0x4EA DUP2 PUSH2 0x4CF JUMP JUMPDEST DUP3 MSTORE POP POP JUMP JUMPDEST PUSH1 0x0 PUSH1 0x20 DUP3 ADD SWAP1 POP PUSH2 0x505 PUSH1 0x0 DUP4 ADD DUP5 PUSH2 0x4E1 JUMP JUMPDEST SWAP3 SWAP2 POP POP JUMP JUMPDEST PUSH32 0x4E487B7100000000000000000000000000000000000000000000000000000000 PUSH1 0x0 MSTORE PUSH1 0x22 PUSH1 0x4 MSTORE PUSH1 0x24 PUSH1 0x0 REVERT JUMPDEST PUSH1 0x0 PUSH1 0x2 DUP3 DIV SWAP1 POP PUSH1 0x1 DUP3 AND DUP1 PUSH2 0x552 JUMPI PUSH1 0x7F DUP3 AND SWAP2 POP JUMPDEST PUSH1 0x20 DUP3 LT DUP2 SUB PUSH2 0x565 JUMPI PUSH2 0x564 PUSH2 0x50B JUMP JUMPDEST JUMPDEST POP SWAP2 SWAP1 POP JUMP JUMPDEST PUSH1 0x0 DUP2 SWAP1 POP DUP2 PUSH1 0x0 MSTORE PUSH1 0x20 PUSH1 0x0 KECCAK256 SWAP1 POP SWAP2 SWAP1 POP JUMP JUMPDEST PUSH1 0x0 PUSH1 0x20 PUSH1 0x1F DUP4 ADD DIV SWAP1 POP SWAP2 SWAP1 POP JUMP JUMPDEST PUSH1 0x0 DUP3 DUP3 SHL SWAP1 POP SWAP3 SWAP2 POP POP JUMP JUMPDEST PUSH1 0x0 PUSH1 0x8 DUP4 MUL PUSH2 0x5CD PUSH32 0xFFFFFFFFFFFFFFFFFFFFFFFFFFFFFFFFFFFFFFFFFFFFFFFFFFFFFFFFFFFFFFFF DUP3 PUSH2 0x590 JUMP JUMPDEST PUSH2 0x5D7 DUP7 DUP4 PUSH2 0x590 JUMP JUMPDEST SWAP6 POP DUP1 NOT DUP5 AND SWAP4 POP DUP1 DUP7 AND DUP5 OR SWAP3 POP POP POP SWAP4 SWAP3 POP POP POP JUMP JUMPDEST PUSH1 0x0 DUP2 SWAP1 POP SWAP2 SWAP1 POP JUMP JUMPDEST PUSH1 0x0 DUP2 SWAP1 POP SWAP2 SWAP1 POP JUMP JUMPDEST PUSH1 0x0 PUSH2 0x61E PUSH2 0x619 PUSH2 0x614 DUP5 PUSH2 0x5EF JUMP JUMPDEST PUSH2 0x5F9 JUMP JUMPDEST PUSH2 0x5EF JUMP JUMPDEST SWAP1 POP SWAP2 SWAP1 POP JUMP JUMPDEST PUSH1 0x0 DUP2 SWAP1 POP SWAP2 SWAP1 POP JUMP JUMPDEST PUSH2 0x638 DUP4 PUSH2 0x603 JUMP JUMPDEST PUSH2 0x64C PUSH2 0x644 DUP3 PUSH2 0x625 JUMP JUMPDEST DUP5 DUP5 SLOAD PUSH2 0x59D JUMP JUMPDEST DUP3 SSTORE POP POP POP POP JUMP JUMPDEST PUSH1 0x0 SWAP1 JUMP JUMPDEST PUSH2 0x661 PUSH2 0x654 JUMP JUMPDEST PUSH2 0x66C DUP2 DUP5 DUP5 PUSH2 0x62F JUMP JUMPDEST POP POP POP JUMP JUMPDEST JUMPDEST DUP2 DUP2 LT ISZERO PUSH2 0x690 JUMPI PUSH2 0x685 PUSH1 0x0 DUP3 PUSH2 0x659 JUMP JUMPDEST PUSH1 0x1 DUP2 ADD SWAP1 POP PUSH2 0x672 JUMP JUMPDEST POP POP JUMP JUMPDEST PUSH1 0x1F DUP3 GT ISZERO PUSH2 0x6D5 JUMPI PUSH2 0x6A6 DUP2 PUSH2 0x56B JUMP JUMPDEST PUSH2 0x6AF DUP5 PUSH2 0x580 JUMP JUMPDEST DUP2 ADD PUSH1 0x20 DUP6 LT ISZERO PUSH2 0x6BE JUMPI DUP2 SWAP1 POP JUMPDEST PUSH2 0x6D2 PUSH2 0x6CA DUP6 PUSH2 0x580 JUMP JUMPDEST DUP4 ADD DUP3 PUSH2 0x671 JUMP JUMPDEST POP POP JUMPDEST POP POP POP JUMP JUMPDEST PUSH1 0x0 DUP3 DUP3 SHR SWAP1 POP SWAP3 SWAP2 POP POP JUMP JUMPDEST PUSH1 0x0 PUSH2 0x6F8 PUSH1 0x0 NOT DUP5 PUSH1 0x8 MUL PUSH2 0x6DA JUMP JUMPDEST NOT DUP1 DUP4 AND SWAP2 POP POP SWAP3 SWAP2 POP POP JUMP JUMPDEST PUSH1 0x0 PUSH2 0x711 DUP4 DUP4 PUSH2 0x6E7 JUMP JUMPDEST SWAP2 POP DUP3 PUSH1 0x2 MUL DUP3 OR SWAP1 POP SWAP3 SWAP2 POP POP JUMP JUMPDEST PUSH2 0x72A DUP3 PUSH2 0x405 JUMP JUMPDEST PUSH8 0xFFFFFFFFFFFFFFFF DUP2 GT ISZERO PUSH2 0x743 JUMPI PUSH2 0x742 PUSH2 0x25A JUMP JUMPDEST JUMPDEST PUSH2 0x74D DUP3 SLOAD PUSH2 0x53A JUMP JUMPDEST PUSH2 0x758 DUP3 DUP3 DUP6 PUSH2 0x694 JUMP JUMPDEST PUSH1 0x0 PUSH1 0x20 SWAP1 POP PUSH1 0x1F DUP4 GT PUSH1 0x1 DUP2 EQ PUSH2 0x78B JUMPI PUSH1 0x0 DUP5 ISZERO PUSH2 0x779 JUMPI DUP3 DUP8 ADD MLOAD SWAP1 POP JUMPDEST PUSH2 0x783 DUP6 DUP3 PUSH2 0x705 JUMP JUMPDEST DUP7 SSTORE POP PUSH2 0x7EB JUMP JUMPDEST PUSH1 0x1F NOT DUP5 AND PUSH2 0x799 DUP7 PUSH2 0x56B JUMP JUMPDEST PUSH1 0x0 JUMPDEST DUP3 DUP2 LT ISZERO PUSH2 0x7C1 JUMPI DUP5 DUP10 ADD MLOAD DUP3 SSTORE PUSH1 0x1 DUP3 ADD SWAP2 POP PUSH1 0x20 DUP6 ADD SWAP5 POP PUSH1 0x20 DUP2 ADD SWAP1 POP PUSH2 0x79C JUMP JUMPDEST DUP7 DUP4 LT ISZERO PUSH2 0x7DE JUMPI DUP5 DUP10 ADD MLOAD PUSH2 0x7DA PUSH1 0x1F DUP10 AND DUP3 PUSH2 0x6E7 JUMP JUMPDEST DUP4 SSTORE POP JUMPDEST PUSH1 0x1 PUSH1 0x2 DUP9 MUL ADD DUP9 SSTORE POP POP POP JUMPDEST POP POP POP POP POP POP JUMP JUMPDEST PUSH32 0x4E487B7100000000000000000000000000000000000000000000000000000000 PUSH1 0x0 MSTORE PUSH1 0x11 PUSH1 0x4 MSTORE PUSH1 0x24 PUSH1 0x0 REVERT JUMPDEST PUSH1 0x0 PUSH2 0x82D DUP3 PUSH2 0x3CE JUMP JUMPDEST SWAP2 POP PUSH1 0xFF DUP3 SUB PUSH2 0x840 JUMPI PUSH2 0x83F PUSH2 0x7F3 JUMP JUMPDEST JUMPDEST PUSH1 0x1 DUP3 ADD SWAP1 POP SWAP2 SWAP1 POP JUMP INVALID LOG2 PUSH5 0x6970667358 0x22 SLT KECCAK256 INVALID PUSH15 0xF43F84648F4A2B73C8632933EC3594 0x5D PUSH21 0x326C53A87DE19AACA9A8A6851864736F6C63430008 0xF STOP CALLER "
				},
				"gasEstimates": {
					"creation": {
						"codeDepositCost": "435400",
						"executionCost": "24803",
						"totalCost": "460203"
					},
					"external": {
						"handlingStringUpdation(string)": "infinite",
						"ownerAddress()": "2605",
						"secretString()": "infinite",
						"updateCounter()": "2471"
					}
				},
				"methodIdentifiers": {
					"handlingStringUpdation(string)": "0b626a12",
					"ownerAddress()": "8f84aa09",
					"secretString()": "6334c29c",
					"updateCounter()": "1687fe8e"
				}
			},
			"storageLayout": {
				"storage": [
					{
						"astId": 3,
						"contract": "contracts/4_myContract.sol:MyContract",
						"label": "secretString",
						"offset": 0,
						"slot": "0",
						"type": "t_string_storage"
					},
					{
						"astId": 5,
						"contract": "contracts/4_myContract.sol:MyContract",
						"label": "updateCounter",
						"offset": 0,
						"slot": "1",
						"type": "t_uint8"
					},
					{
						"astId": 7,
						"contract": "contracts/4_myContract.sol:MyContract",
						"label": "ownerAddress",
						"offset": 1,
						"slot": "1",
						"type": "t_address"
					}
				],
				"types": {
					"t_address": {
						"encoding": "inplace",
						"label": "address",
						"numberOfBytes": "20"
					},
					"t_string_storage": {
						"encoding": "bytes",
						"label": "string",
						"numberOfBytes": "32"
					},
					"t_uint8": {
						"encoding": "inplace",
						"label": "uint8",
						"numberOfBytes": "1"
					}
				}
			},
			"userdoc": {
				"kind": "user",
				"methods": {},
				"version": 1
			}
		}
	}
}