{
	"contracts/10_votingsystem.sol": {
		"ChainVotingContract": {
			"abi": [
				{
					"inputs": [],
					"stateMutability": "nonpayable",
					"type": "constructor"
				},
				{
					"inputs": [
						{
							"internalType": "address",
							"name": "",
							"type": "address"
						}
					],
					"name": "candidates",
					"outputs": [
						{
							"internalType": "address",
							"name": "candidateAddress",
							"type": "address"
						},
						{
							"internalType": "string",
							"name": "name",
							"type": "string"
						},
						{
							"internalType": "bool",
							"name": "hasVoted",
							"type": "bool"
						},
						{
							"internalType": "bool",
							"name": "isRegistered",
							"type": "bool"
						}
					],
					"stateMutability": "view",
					"type": "function"
				},
				{
					"inputs": [],
					"name": "giveYourVote",
					"outputs": [],
					"stateMutability": "nonpayable",
					"type": "function"
				},
				{
					"inputs": [
						{
							"internalType": "address",
							"name": "_candidate",
							"type": "address"
						},
						{
							"internalType": "string",
							"name": "_name",
							"type": "string"
						}
					],
					"name": "registerCandidate",
					"outputs": [],
					"stateMutability": "nonpayable",
					"type": "function"
				},
				{
					"inputs": [],
					"name": "totalVotes",
					"outputs": [
						{
							"internalType": "uint256",
							"name": "",
							"type": "uint256"
						}
					],
					"stateMutability": "view",
					"type": "function"
				},
				{
					"inputs": [],
					"name": "votingDeadline",
					"outputs": [
						{
							"internalType": "uint256",
							"name": "",
							"type": "uint256"
						}
					],
					"stateMutability": "view",
					"type": "function"
				},
				{
					"inputs": [],
					"name": "votingHost",
					"outputs": [
						{
							"internalType": "address",
							"name": "",
							"type": "address"
						}
					],
					"stateMutability": "view",
					"type": "function"
				}
			],
			"devdoc": {
				"kind": "dev",
				"methods": {},
				"version": 1
			},
			"evm": {
				"assembly": "    /* \"contracts/10_votingsystem.sol\":60:1397  contract ChainVotingContract {... */\n  mstore(0x40, 0x80)\n    /* \"contracts/10_votingsystem.sol\":390:527  constructor() {... */\n  callvalue\n  dup1\n  iszero\n  tag_1\n  jumpi\n  revert(0x00, 0x00)\ntag_1:\n  pop\n    /* \"contracts/10_votingsystem.sol\":428:438  msg.sender */\n  caller\n    /* \"contracts/10_votingsystem.sol\":415:425  votingHost */\n  0x00\n  0x00\n    /* \"contracts/10_votingsystem.sol\":415:438  votingHost = msg.sender */\n  0x0100\n  exp\n  dup2\n  sload\n  dup2\n  0xffffffffffffffffffffffffffffffffffffffff\n  mul\n  not\n  and\n  swap1\n  dup4\n  0xffffffffffffffffffffffffffffffffffffffff\n  and\n  mul\n  or\n  swap1\n  sstore\n  pop\n    /* \"contracts/10_votingsystem.sol\":484:487  300 */\n  0x012c\n    /* \"contracts/10_votingsystem.sol\":466:481  block.timestamp */\n  timestamp\n    /* \"contracts/10_votingsystem.sol\":466:487  block.timestamp + 300 */\n  tag_4\n  swap2\n  swap1\n  tag_5\n  jump\t// in\ntag_4:\n    /* \"contracts/10_votingsystem.sol\":449:463  votingDeadline */\n  0x02\n    /* \"contracts/10_votingsystem.sol\":449:487  votingDeadline = block.timestamp + 300 */\n  dup2\n  swap1\n  sstore\n  pop\n    /* \"contracts/10_votingsystem.sol\":60:1397  contract ChainVotingContract {... */\n  jump(tag_6)\n    /* \"#utility.yul\":7:84   */\ntag_7:\n    /* \"#utility.yul\":44:51   */\n  0x00\n    /* \"#utility.yul\":73:78   */\n  dup2\n    /* \"#utility.yul\":62:78   */\n  swap1\n  pop\n    /* \"#utility.yul\":7:84   */\n  swap2\n  swap1\n  pop\n  jump\t// out\n    /* \"#utility.yul\":90:270   */\ntag_8:\n    /* \"#utility.yul\":138:215   */\n  0x4e487b7100000000000000000000000000000000000000000000000000000000\n    /* \"#utility.yul\":135:136   */\n  0x00\n    /* \"#utility.yul\":128:216   */\n  mstore\n    /* \"#utility.yul\":235:239   */\n  0x11\n    /* \"#utility.yul\":232:233   */\n  0x04\n    /* \"#utility.yul\":225:240   */\n  mstore\n    /* \"#utility.yul\":259:263   */\n  0x24\n    /* \"#utility.yul\":256:257   */\n  0x00\n    /* \"#utility.yul\":249:264   */\n  revert\n    /* \"#utility.yul\":276:467   */\ntag_5:\n    /* \"#utility.yul\":316:319   */\n  0x00\n    /* \"#utility.yul\":335:355   */\n  tag_13\n    /* \"#utility.yul\":353:354   */\n  dup3\n    /* \"#utility.yul\":335:355   */\n  tag_7\n  jump\t// in\ntag_13:\n    /* \"#utility.yul\":330:355   */\n  swap2\n  pop\n    /* \"#utility.yul\":369:389   */\n  tag_14\n    /* \"#utility.yul\":387:388   */\n  dup4\n    /* \"#utility.yul\":369:389   */\n  tag_7\n  jump\t// in\ntag_14:\n    /* \"#utility.yul\":364:389   */\n  swap3\n  pop\n    /* \"#utility.yul\":412:413   */\n  dup3\n    /* \"#utility.yul\":409:410   */\n  dup3\n    /* \"#utility.yul\":405:414   */\n  add\n    /* \"#utility.yul\":398:414   */\n  swap1\n  pop\n    /* \"#utility.yul\":433:436   */\n  dup1\n    /* \"#utility.yul\":430:431   */\n  dup3\n    /* \"#utility.yul\":427:437   */\n  gt\n    /* \"#utility.yul\":424:460   */\n  iszero\n  tag_15\n  jumpi\n    /* \"#utility.yul\":440:458   */\n  tag_16\n  tag_8\n  jump\t// in\ntag_16:\n    /* \"#utility.yul\":424:460   */\ntag_15:\n    /* \"#utility.yul\":276:467   */\n  swap3\n  swap2\n  pop\n  pop\n  jump\t// out\n    /* \"contracts/10_votingsystem.sol\":60:1397  contract ChainVotingContract {... */\ntag_6:\n  dataSize(sub_0)\n  dup1\n  dataOffset(sub_0)\n  0x00\n  codecopy\n  0x00\n  return\nstop\n\nsub_0: assembly {\n        /* \"contracts/10_votingsystem.sol\":60:1397  contract ChainVotingContract {... */\n      mstore(0x40, 0x80)\n      callvalue\n      dup1\n      iszero\n      tag_1\n      jumpi\n      revert(0x00, 0x00)\n    tag_1:\n      pop\n      jumpi(tag_2, lt(calldatasize, 0x04))\n      shr(0xe0, calldataload(0x00))\n      dup1\n      0x0354d7bb\n      eq\n      tag_3\n      jumpi\n      dup1\n      0x036ee850\n      eq\n      tag_4\n      jumpi\n      dup1\n      0x0d15fd77\n      eq\n      tag_5\n      jumpi\n      dup1\n      0x5ba55a77\n      eq\n      tag_6\n      jumpi\n      dup1\n      0x8ab66a90\n      eq\n      tag_7\n      jumpi\n      dup1\n      0xb0d30d2f\n      eq\n      tag_8\n      jumpi\n    tag_2:\n      revert(0x00, 0x00)\n        /* \"contracts/10_votingsystem.sol\":238:263  address public votingHost */\n    tag_3:\n      tag_9\n      tag_10\n      jump\t// in\n    tag_9:\n      mload(0x40)\n      tag_11\n      swap2\n      swap1\n      tag_12\n      jump\t// in\n    tag_11:\n      mload(0x40)\n      dup1\n      swap2\n      sub\n      swap1\n      return\n        /* \"contracts/10_votingsystem.sol\":299:325  uint public votingDeadline */\n    tag_4:\n      tag_13\n      tag_14\n      jump\t// in\n    tag_13:\n      mload(0x40)\n      tag_15\n      swap2\n      swap1\n      tag_16\n      jump\t// in\n    tag_15:\n      mload(0x40)\n      dup1\n      swap2\n      sub\n      swap1\n      return\n        /* \"contracts/10_votingsystem.sol\":270:292  uint public totalVotes */\n    tag_5:\n      tag_17\n      tag_18\n      jump\t// in\n    tag_17:\n      mload(0x40)\n      tag_19\n      swap2\n      swap1\n      tag_16\n      jump\t// in\n    tag_19:\n      mload(0x40)\n      dup1\n      swap2\n      sub\n      swap1\n      return\n        /* \"contracts/10_votingsystem.sol\":1013:1394  function giveYourVote() public {... */\n    tag_6:\n      tag_20\n      tag_21\n      jump\t// in\n    tag_20:\n      stop\n        /* \"contracts/10_votingsystem.sol\":334:381  mapping(address => Candidate) public candidates */\n    tag_7:\n      tag_22\n      0x04\n      dup1\n      calldatasize\n      sub\n      dup2\n      add\n      swap1\n      tag_23\n      swap2\n      swap1\n      tag_24\n      jump\t// in\n    tag_23:\n      tag_25\n      jump\t// in\n    tag_22:\n      mload(0x40)\n      tag_26\n      swap5\n      swap4\n      swap3\n      swap2\n      swap1\n      tag_27\n      jump\t// in\n    tag_26:\n      mload(0x40)\n      dup1\n      swap2\n      sub\n      swap1\n      return\n        /* \"contracts/10_votingsystem.sol\":643:1005  function registerCandidate(address _candidate, string memory _name) public onlyHost {... */\n    tag_8:\n      tag_28\n      0x04\n      dup1\n      calldatasize\n      sub\n      dup2\n      add\n      swap1\n      tag_29\n      swap2\n      swap1\n      tag_30\n      jump\t// in\n    tag_29:\n      tag_31\n      jump\t// in\n    tag_28:\n      stop\n        /* \"contracts/10_votingsystem.sol\":238:263  address public votingHost */\n    tag_10:\n      0x00\n      0x00\n      swap1\n      sload\n      swap1\n      0x0100\n      exp\n      swap1\n      div\n      0xffffffffffffffffffffffffffffffffffffffff\n      and\n      dup2\n      jump\t// out\n        /* \"contracts/10_votingsystem.sol\":299:325  uint public votingDeadline */\n    tag_14:\n      sload(0x02)\n      dup2\n      jump\t// out\n        /* \"contracts/10_votingsystem.sol\":270:292  uint public totalVotes */\n    tag_18:\n      sload(0x01)\n      dup2\n      jump\t// out\n        /* \"contracts/10_votingsystem.sol\":1013:1394  function giveYourVote() public {... */\n    tag_21:\n        /* \"contracts/10_votingsystem.sol\":1055:1088  Candidate storage senderCandidate */\n      0x00\n        /* \"contracts/10_votingsystem.sol\":1091:1101  candidates */\n      0x03\n        /* \"contracts/10_votingsystem.sol\":1091:1113  candidates[msg.sender] */\n      0x00\n        /* \"contracts/10_votingsystem.sol\":1102:1112  msg.sender */\n      caller\n        /* \"contracts/10_votingsystem.sol\":1091:1113  candidates[msg.sender] */\n      0xffffffffffffffffffffffffffffffffffffffff\n      and\n      0xffffffffffffffffffffffffffffffffffffffff\n      and\n      dup2\n      mstore\n      0x20\n      add\n      swap1\n      dup2\n      mstore\n      0x20\n      add\n      0x00\n      keccak256\n        /* \"contracts/10_votingsystem.sol\":1055:1113  Candidate storage senderCandidate = candidates[msg.sender] */\n      swap1\n      pop\n        /* \"contracts/10_votingsystem.sol\":1134:1149  senderCandidate */\n      dup1\n        /* \"contracts/10_votingsystem.sol\":1134:1162  senderCandidate.isRegistered */\n      0x02\n      add\n      0x01\n      swap1\n      sload\n      swap1\n      0x0100\n      exp\n      swap1\n      div\n      0xff\n      and\n        /* \"contracts/10_votingsystem.sol\":1126:1181  require(senderCandidate.isRegistered, \"Not registered\") */\n      tag_33\n      jumpi\n      mload(0x40)\n      0x08c379a000000000000000000000000000000000000000000000000000000000\n      dup2\n      mstore\n      0x04\n      add\n      tag_34\n      swap1\n      tag_35\n      jump\t// in\n    tag_34:\n      mload(0x40)\n      dup1\n      swap2\n      sub\n      swap1\n      revert\n    tag_33:\n        /* \"contracts/10_votingsystem.sol\":1201:1216  senderCandidate */\n      dup1\n        /* \"contracts/10_votingsystem.sol\":1201:1225  senderCandidate.hasVoted */\n      0x02\n      add\n      0x00\n      swap1\n      sload\n      swap1\n      0x0100\n      exp\n      swap1\n      div\n      0xff\n      and\n        /* \"contracts/10_votingsystem.sol\":1200:1225  !senderCandidate.hasVoted */\n      iszero\n        /* \"contracts/10_votingsystem.sol\":1192:1243  require(!senderCandidate.hasVoted, \"Already voted\") */\n      tag_36\n      jumpi\n      mload(0x40)\n      0x08c379a000000000000000000000000000000000000000000000000000000000\n      dup2\n      mstore\n      0x04\n      add\n      tag_37\n      swap1\n      tag_38\n      jump\t// in\n    tag_37:\n      mload(0x40)\n      dup1\n      swap2\n      sub\n      swap1\n      revert\n    tag_36:\n        /* \"contracts/10_votingsystem.sol\":1281:1295  votingDeadline */\n      sload(0x02)\n        /* \"contracts/10_votingsystem.sol\":1262:1277  block.timestamp */\n      timestamp\n        /* \"contracts/10_votingsystem.sol\":1262:1295  block.timestamp <= votingDeadline */\n      gt\n      iszero\n        /* \"contracts/10_votingsystem.sol\":1254:1319  require(block.timestamp <= votingDeadline, \"Voting period ended\") */\n      tag_39\n      jumpi\n      mload(0x40)\n      0x08c379a000000000000000000000000000000000000000000000000000000000\n      dup2\n      mstore\n      0x04\n      add\n      tag_40\n      swap1\n      tag_41\n      jump\t// in\n    tag_40:\n      mload(0x40)\n      dup1\n      swap2\n      sub\n      swap1\n      revert\n    tag_39:\n        /* \"contracts/10_votingsystem.sol\":1359:1363  true */\n      0x01\n        /* \"contracts/10_votingsystem.sol\":1332:1347  senderCandidate */\n      dup2\n        /* \"contracts/10_votingsystem.sol\":1332:1356  senderCandidate.hasVoted */\n      0x02\n      add\n      0x00\n        /* \"contracts/10_votingsystem.sol\":1332:1363  senderCandidate.hasVoted = true */\n      0x0100\n      exp\n      dup2\n      sload\n      dup2\n      0xff\n      mul\n      not\n      and\n      swap1\n      dup4\n      iszero\n      iszero\n      mul\n      or\n      swap1\n      sstore\n      pop\n        /* \"contracts/10_votingsystem.sol\":1374:1384  totalVotes */\n      0x01\n      0x00\n        /* \"contracts/10_votingsystem.sol\":1374:1386  totalVotes++ */\n      dup2\n      sload\n      dup1\n      swap3\n      swap2\n      swap1\n      tag_42\n      swap1\n      tag_43\n      jump\t// in\n    tag_42:\n      swap2\n      swap1\n      pop\n      sstore\n      pop\n        /* \"contracts/10_votingsystem.sol\":1044:1394  {... */\n      pop\n        /* \"contracts/10_votingsystem.sol\":1013:1394  function giveYourVote() public {... */\n      jump\t// out\n        /* \"contracts/10_votingsystem.sol\":334:381  mapping(address => Candidate) public candidates */\n    tag_25:\n      mstore(0x20, 0x03)\n      dup1\n      0x00\n      mstore\n      keccak256(0x00, 0x40)\n      0x00\n      swap2\n      pop\n      swap1\n      pop\n      dup1\n      0x00\n      add\n      0x00\n      swap1\n      sload\n      swap1\n      0x0100\n      exp\n      swap1\n      div\n      0xffffffffffffffffffffffffffffffffffffffff\n      and\n      swap1\n      dup1\n      0x01\n      add\n      dup1\n      sload\n      tag_44\n      swap1\n      tag_45\n      jump\t// in\n    tag_44:\n      dup1\n      0x1f\n      add\n      0x20\n      dup1\n      swap2\n      div\n      mul\n      0x20\n      add\n      mload(0x40)\n      swap1\n      dup2\n      add\n      0x40\n      mstore\n      dup1\n      swap3\n      swap2\n      swap1\n      dup2\n      dup2\n      mstore\n      0x20\n      add\n      dup3\n      dup1\n      sload\n      tag_46\n      swap1\n      tag_45\n      jump\t// in\n    tag_46:\n      dup1\n      iszero\n      tag_47\n      jumpi\n      dup1\n      0x1f\n      lt\n      tag_48\n      jumpi\n      0x0100\n      dup1\n      dup4\n      sload\n      div\n      mul\n      dup4\n      mstore\n      swap2\n      0x20\n      add\n      swap2\n      jump(tag_47)\n    tag_48:\n      dup3\n      add\n      swap2\n      swap1\n      0x00\n      mstore\n      keccak256(0x00, 0x20)\n      swap1\n    tag_49:\n      dup2\n      sload\n      dup2\n      mstore\n      swap1\n      0x01\n      add\n      swap1\n      0x20\n      add\n      dup1\n      dup4\n      gt\n      tag_49\n      jumpi\n      dup3\n      swap1\n      sub\n      0x1f\n      and\n      dup3\n      add\n      swap2\n    tag_47:\n      pop\n      pop\n      pop\n      pop\n      pop\n      swap1\n      dup1\n      0x02\n      add\n      0x00\n      swap1\n      sload\n      swap1\n      0x0100\n      exp\n      swap1\n      div\n      0xff\n      and\n      swap1\n      dup1\n      0x02\n      add\n      0x01\n      swap1\n      sload\n      swap1\n      0x0100\n      exp\n      swap1\n      div\n      0xff\n      and\n      swap1\n      pop\n      dup5\n      jump\t// out\n        /* \"contracts/10_votingsystem.sol\":643:1005  function registerCandidate(address _candidate, string memory _name) public onlyHost {... */\n    tag_31:\n        /* \"contracts/10_votingsystem.sol\":588:598  votingHost */\n      0x00\n      0x00\n      swap1\n      sload\n      swap1\n      0x0100\n      exp\n      swap1\n      div\n      0xffffffffffffffffffffffffffffffffffffffff\n      and\n        /* \"contracts/10_votingsystem.sol\":574:598  msg.sender == votingHost */\n      0xffffffffffffffffffffffffffffffffffffffff\n      and\n        /* \"contracts/10_votingsystem.sol\":574:584  msg.sender */\n      caller\n        /* \"contracts/10_votingsystem.sol\":574:598  msg.sender == votingHost */\n      0xffffffffffffffffffffffffffffffffffffffff\n      and\n      eq\n        /* \"contracts/10_votingsystem.sol\":566:615  require(msg.sender == votingHost, \"UNAUTHORIZED\") */\n      tag_51\n      jumpi\n      mload(0x40)\n      0x08c379a000000000000000000000000000000000000000000000000000000000\n      dup2\n      mstore\n      0x04\n      add\n      tag_52\n      swap1\n      tag_53\n      jump\t// in\n    tag_52:\n      mload(0x40)\n      dup1\n      swap2\n      sub\n      swap1\n      revert\n    tag_51:\n        /* \"contracts/10_votingsystem.sol\":747:757  candidates */\n      0x03\n        /* \"contracts/10_votingsystem.sol\":747:769  candidates[_candidate] */\n      0x00\n        /* \"contracts/10_votingsystem.sol\":758:768  _candidate */\n      dup4\n        /* \"contracts/10_votingsystem.sol\":747:769  candidates[_candidate] */\n      0xffffffffffffffffffffffffffffffffffffffff\n      and\n      0xffffffffffffffffffffffffffffffffffffffff\n      and\n      dup2\n      mstore\n      0x20\n      add\n      swap1\n      dup2\n      mstore\n      0x20\n      add\n      0x00\n      keccak256\n        /* \"contracts/10_votingsystem.sol\":747:782  candidates[_candidate].isRegistered */\n      0x02\n      add\n      0x01\n      swap1\n      sload\n      swap1\n      0x0100\n      exp\n      swap1\n      div\n      0xff\n      and\n        /* \"contracts/10_votingsystem.sol\":746:782  !candidates[_candidate].isRegistered */\n      iszero\n        /* \"contracts/10_votingsystem.sol\":738:805  require(!candidates[_candidate].isRegistered, \"Already registered\") */\n      tag_55\n      jumpi\n      mload(0x40)\n      0x08c379a000000000000000000000000000000000000000000000000000000000\n      dup2\n      mstore\n      0x04\n      add\n      tag_56\n      swap1\n      tag_57\n      jump\t// in\n    tag_56:\n      mload(0x40)\n      dup1\n      swap2\n      sub\n      swap1\n      revert\n    tag_55:\n        /* \"contracts/10_votingsystem.sol\":843:997  Candidate({... */\n      mload(0x40)\n      dup1\n      0x80\n      add\n      0x40\n      mstore\n      dup1\n        /* \"contracts/10_votingsystem.sol\":886:896  _candidate */\n      dup4\n        /* \"contracts/10_votingsystem.sol\":843:997  Candidate({... */\n      0xffffffffffffffffffffffffffffffffffffffff\n      and\n      dup2\n      mstore\n      0x20\n      add\n        /* \"contracts/10_votingsystem.sol\":917:922  _name */\n      dup3\n        /* \"contracts/10_votingsystem.sol\":843:997  Candidate({... */\n      dup2\n      mstore\n      0x20\n      add\n        /* \"contracts/10_votingsystem.sol\":947:952  false */\n      0x00\n        /* \"contracts/10_votingsystem.sol\":843:997  Candidate({... */\n      iszero\n      iszero\n      dup2\n      mstore\n      0x20\n      add\n        /* \"contracts/10_votingsystem.sol\":981:985  true */\n      0x01\n        /* \"contracts/10_votingsystem.sol\":843:997  Candidate({... */\n      iszero\n      iszero\n      dup2\n      mstore\n      pop\n        /* \"contracts/10_votingsystem.sol\":818:828  candidates */\n      0x03\n        /* \"contracts/10_votingsystem.sol\":818:840  candidates[_candidate] */\n      0x00\n        /* \"contracts/10_votingsystem.sol\":829:839  _candidate */\n      dup5\n        /* \"contracts/10_votingsystem.sol\":818:840  candidates[_candidate] */\n      0xffffffffffffffffffffffffffffffffffffffff\n      and\n      0xffffffffffffffffffffffffffffffffffffffff\n      and\n      dup2\n      mstore\n      0x20\n      add\n      swap1\n      dup2\n      mstore\n      0x20\n      add\n      0x00\n      keccak256\n        /* \"contracts/10_votingsystem.sol\":818:997  candidates[_candidate] = Candidate({... */\n      0x00\n      dup3\n      add\n      mload\n      dup2\n      0x00\n      add\n      exp(0x0100, 0x00)\n      dup2\n      sload\n      dup2\n      0xffffffffffffffffffffffffffffffffffffffff\n      mul\n      not\n      and\n      swap1\n      dup4\n      0xffffffffffffffffffffffffffffffffffffffff\n      and\n      mul\n      or\n      swap1\n      sstore\n      pop\n      0x20\n      dup3\n      add\n      mload\n      dup2\n      0x01\n      add\n      swap1\n      dup2\n      tag_58\n      swap2\n      swap1\n      tag_59\n      jump\t// in\n    tag_58:\n      pop\n      0x40\n      dup3\n      add\n      mload\n      dup2\n      0x02\n      add\n      exp(0x0100, 0x00)\n      dup2\n      sload\n      dup2\n      0xff\n      mul\n      not\n      and\n      swap1\n      dup4\n      iszero\n      iszero\n      mul\n      or\n      swap1\n      sstore\n      pop\n      0x60\n      dup3\n      add\n      mload\n      dup2\n      0x02\n      add\n      exp(0x0100, 0x01)\n      dup2\n      sload\n      dup2\n      0xff\n      mul\n      not\n      and\n      swap1\n      dup4\n      iszero\n      iszero\n      mul\n      or\n      swap1\n      sstore\n      pop\n      swap1\n      pop\n      pop\n        /* \"contracts/10_votingsystem.sol\":643:1005  function registerCandidate(address _candidate, string memory _name) public onlyHost {... */\n      pop\n      pop\n      jump\t// out\n        /* \"#utility.yul\":7:133   */\n    tag_60:\n        /* \"#utility.yul\":44:51   */\n      0x00\n        /* \"#utility.yul\":84:126   */\n      0xffffffffffffffffffffffffffffffffffffffff\n        /* \"#utility.yul\":77:82   */\n      dup3\n        /* \"#utility.yul\":73:127   */\n      and\n        /* \"#utility.yul\":62:127   */\n      swap1\n      pop\n        /* \"#utility.yul\":7:133   */\n      swap2\n      swap1\n      pop\n      jump\t// out\n        /* \"#utility.yul\":139:235   */\n    tag_61:\n        /* \"#utility.yul\":176:183   */\n      0x00\n        /* \"#utility.yul\":205:229   */\n      tag_116\n        /* \"#utility.yul\":223:228   */\n      dup3\n        /* \"#utility.yul\":205:229   */\n      tag_60\n      jump\t// in\n    tag_116:\n        /* \"#utility.yul\":194:229   */\n      swap1\n      pop\n        /* \"#utility.yul\":139:235   */\n      swap2\n      swap1\n      pop\n      jump\t// out\n        /* \"#utility.yul\":241:359   */\n    tag_62:\n        /* \"#utility.yul\":328:352   */\n      tag_118\n        /* \"#utility.yul\":346:351   */\n      dup2\n        /* \"#utility.yul\":328:352   */\n      tag_61\n      jump\t// in\n    tag_118:\n        /* \"#utility.yul\":323:326   */\n      dup3\n        /* \"#utility.yul\":316:353   */\n      mstore\n        /* \"#utility.yul\":241:359   */\n      pop\n      pop\n      jump\t// out\n        /* \"#utility.yul\":365:587   */\n    tag_12:\n        /* \"#utility.yul\":458:462   */\n      0x00\n        /* \"#utility.yul\":496:498   */\n      0x20\n        /* \"#utility.yul\":485:494   */\n      dup3\n        /* \"#utility.yul\":481:499   */\n      add\n        /* \"#utility.yul\":473:499   */\n      swap1\n      pop\n        /* \"#utility.yul\":509:580   */\n      tag_120\n        /* \"#utility.yul\":577:578   */\n      0x00\n        /* \"#utility.yul\":566:575   */\n      dup4\n        /* \"#utility.yul\":562:579   */\n      add\n        /* \"#utility.yul\":553:559   */\n      dup5\n        /* \"#utility.yul\":509:580   */\n      tag_62\n      jump\t// in\n    tag_120:\n        /* \"#utility.yul\":365:587   */\n      swap3\n      swap2\n      pop\n      pop\n      jump\t// out\n        /* \"#utility.yul\":593:670   */\n    tag_63:\n        /* \"#utility.yul\":630:637   */\n      0x00\n        /* \"#utility.yul\":659:664   */\n      dup2\n        /* \"#utility.yul\":648:664   */\n      swap1\n      pop\n        /* \"#utility.yul\":593:670   */\n      swap2\n      swap1\n      pop\n      jump\t// out\n        /* \"#utility.yul\":676:794   */\n    tag_64:\n        /* \"#utility.yul\":763:787   */\n      tag_123\n        /* \"#utility.yul\":781:786   */\n      dup2\n        /* \"#utility.yul\":763:787   */\n      tag_63\n      jump\t// in\n    tag_123:\n        /* \"#utility.yul\":758:761   */\n      dup3\n        /* \"#utility.yul\":751:788   */\n      mstore\n        /* \"#utility.yul\":676:794   */\n      pop\n      pop\n      jump\t// out\n        /* \"#utility.yul\":800:1022   */\n    tag_16:\n        /* \"#utility.yul\":893:897   */\n      0x00\n        /* \"#utility.yul\":931:933   */\n      0x20\n        /* \"#utility.yul\":920:929   */\n      dup3\n        /* \"#utility.yul\":916:934   */\n      add\n        /* \"#utility.yul\":908:934   */\n      swap1\n      pop\n        /* \"#utility.yul\":944:1015   */\n      tag_125\n        /* \"#utility.yul\":1012:1013   */\n      0x00\n        /* \"#utility.yul\":1001:1010   */\n      dup4\n        /* \"#utility.yul\":997:1014   */\n      add\n        /* \"#utility.yul\":988:994   */\n      dup5\n        /* \"#utility.yul\":944:1015   */\n      tag_64\n      jump\t// in\n    tag_125:\n        /* \"#utility.yul\":800:1022   */\n      swap3\n      swap2\n      pop\n      pop\n      jump\t// out\n        /* \"#utility.yul\":1028:1103   */\n    tag_65:\n        /* \"#utility.yul\":1061:1067   */\n      0x00\n        /* \"#utility.yul\":1094:1096   */\n      0x40\n        /* \"#utility.yul\":1088:1097   */\n      mload\n        /* \"#utility.yul\":1078:1097   */\n      swap1\n      pop\n        /* \"#utility.yul\":1028:1103   */\n      swap1\n      jump\t// out\n        /* \"#utility.yul\":1109:1226   */\n    tag_66:\n        /* \"#utility.yul\":1218:1219   */\n      0x00\n        /* \"#utility.yul\":1215:1216   */\n      0x00\n        /* \"#utility.yul\":1208:1220   */\n      revert\n        /* \"#utility.yul\":1232:1349   */\n    tag_67:\n        /* \"#utility.yul\":1341:1342   */\n      0x00\n        /* \"#utility.yul\":1338:1339   */\n      0x00\n        /* \"#utility.yul\":1331:1343   */\n      revert\n        /* \"#utility.yul\":1355:1477   */\n    tag_68:\n        /* \"#utility.yul\":1428:1452   */\n      tag_130\n        /* \"#utility.yul\":1446:1451   */\n      dup2\n        /* \"#utility.yul\":1428:1452   */\n      tag_61\n      jump\t// in\n    tag_130:\n        /* \"#utility.yul\":1421:1426   */\n      dup2\n        /* \"#utility.yul\":1418:1453   */\n      eq\n        /* \"#utility.yul\":1408:1471   */\n      tag_131\n      jumpi\n        /* \"#utility.yul\":1467:1468   */\n      0x00\n        /* \"#utility.yul\":1464:1465   */\n      0x00\n        /* \"#utility.yul\":1457:1469   */\n      revert\n        /* \"#utility.yul\":1408:1471   */\n    tag_131:\n        /* \"#utility.yul\":1355:1477   */\n      pop\n      jump\t// out\n        /* \"#utility.yul\":1483:1622   */\n    tag_69:\n        /* \"#utility.yul\":1529:1534   */\n      0x00\n        /* \"#utility.yul\":1567:1573   */\n      dup2\n        /* \"#utility.yul\":1554:1574   */\n      calldataload\n        /* \"#utility.yul\":1545:1574   */\n      swap1\n      pop\n        /* \"#utility.yul\":1583:1616   */\n      tag_133\n        /* \"#utility.yul\":1610:1615   */\n      dup2\n        /* \"#utility.yul\":1583:1616   */\n      tag_68\n      jump\t// in\n    tag_133:\n        /* \"#utility.yul\":1483:1622   */\n      swap3\n      swap2\n      pop\n      pop\n      jump\t// out\n        /* \"#utility.yul\":1628:1957   */\n    tag_24:\n        /* \"#utility.yul\":1687:1693   */\n      0x00\n        /* \"#utility.yul\":1736:1738   */\n      0x20\n        /* \"#utility.yul\":1724:1733   */\n      dup3\n        /* \"#utility.yul\":1715:1722   */\n      dup5\n        /* \"#utility.yul\":1711:1734   */\n      sub\n        /* \"#utility.yul\":1707:1739   */\n      slt\n        /* \"#utility.yul\":1704:1823   */\n      iszero\n      tag_135\n      jumpi\n        /* \"#utility.yul\":1742:1821   */\n      tag_136\n      tag_66\n      jump\t// in\n    tag_136:\n        /* \"#utility.yul\":1704:1823   */\n    tag_135:\n        /* \"#utility.yul\":1862:1863   */\n      0x00\n        /* \"#utility.yul\":1887:1940   */\n      tag_137\n        /* \"#utility.yul\":1932:1939   */\n      dup5\n        /* \"#utility.yul\":1923:1929   */\n      dup3\n        /* \"#utility.yul\":1912:1921   */\n      dup6\n        /* \"#utility.yul\":1908:1930   */\n      add\n        /* \"#utility.yul\":1887:1940   */\n      tag_69\n      jump\t// in\n    tag_137:\n        /* \"#utility.yul\":1877:1940   */\n      swap2\n      pop\n        /* \"#utility.yul\":1833:1950   */\n      pop\n        /* \"#utility.yul\":1628:1957   */\n      swap3\n      swap2\n      pop\n      pop\n      jump\t// out\n        /* \"#utility.yul\":1963:2062   */\n    tag_70:\n        /* \"#utility.yul\":2015:2021   */\n      0x00\n        /* \"#utility.yul\":2049:2054   */\n      dup2\n        /* \"#utility.yul\":2043:2055   */\n      mload\n        /* \"#utility.yul\":2033:2055   */\n      swap1\n      pop\n        /* \"#utility.yul\":1963:2062   */\n      swap2\n      swap1\n      pop\n      jump\t// out\n        /* \"#utility.yul\":2068:2237   */\n    tag_71:\n        /* \"#utility.yul\":2152:2163   */\n      0x00\n        /* \"#utility.yul\":2186:2192   */\n      dup3\n        /* \"#utility.yul\":2181:2184   */\n      dup3\n        /* \"#utility.yul\":2174:2193   */\n      mstore\n        /* \"#utility.yul\":2226:2230   */\n      0x20\n        /* \"#utility.yul\":2221:2224   */\n      dup3\n        /* \"#utility.yul\":2217:2231   */\n      add\n        /* \"#utility.yul\":2202:2231   */\n      swap1\n      pop\n        /* \"#utility.yul\":2068:2237   */\n      swap3\n      swap2\n      pop\n      pop\n      jump\t// out\n        /* \"#utility.yul\":2243:2382   */\n    tag_72:\n        /* \"#utility.yul\":2332:2338   */\n      dup3\n        /* \"#utility.yul\":2327:2330   */\n      dup2\n        /* \"#utility.yul\":2322:2325   */\n      dup4\n        /* \"#utility.yul\":2316:2339   */\n      mcopy\n        /* \"#utility.yul\":2373:2374   */\n      0x00\n        /* \"#utility.yul\":2364:2370   */\n      dup4\n        /* \"#utility.yul\":2359:2362   */\n      dup4\n        /* \"#utility.yul\":2355:2371   */\n      add\n        /* \"#utility.yul\":2348:2375   */\n      mstore\n        /* \"#utility.yul\":2243:2382   */\n      pop\n      pop\n      pop\n      jump\t// out\n        /* \"#utility.yul\":2388:2490   */\n    tag_73:\n        /* \"#utility.yul\":2429:2435   */\n      0x00\n        /* \"#utility.yul\":2480:2482   */\n      0x1f\n        /* \"#utility.yul\":2476:2483   */\n      not\n        /* \"#utility.yul\":2471:2473   */\n      0x1f\n        /* \"#utility.yul\":2464:2469   */\n      dup4\n        /* \"#utility.yul\":2460:2474   */\n      add\n        /* \"#utility.yul\":2456:2484   */\n      and\n        /* \"#utility.yul\":2446:2484   */\n      swap1\n      pop\n        /* \"#utility.yul\":2388:2490   */\n      swap2\n      swap1\n      pop\n      jump\t// out\n        /* \"#utility.yul\":2496:2873   */\n    tag_74:\n        /* \"#utility.yul\":2584:2587   */\n      0x00\n        /* \"#utility.yul\":2612:2651   */\n      tag_143\n        /* \"#utility.yul\":2645:2650   */\n      dup3\n        /* \"#utility.yul\":2612:2651   */\n      tag_70\n      jump\t// in\n    tag_143:\n        /* \"#utility.yul\":2667:2738   */\n      tag_144\n        /* \"#utility.yul\":2731:2737   */\n      dup2\n        /* \"#utility.yul\":2726:2729   */\n      dup6\n        /* \"#utility.yul\":2667:2738   */\n      tag_71\n      jump\t// in\n    tag_144:\n        /* \"#utility.yul\":2660:2738   */\n      swap4\n      pop\n        /* \"#utility.yul\":2747:2812   */\n      tag_145\n        /* \"#utility.yul\":2805:2811   */\n      dup2\n        /* \"#utility.yul\":2800:2803   */\n      dup6\n        /* \"#utility.yul\":2793:2797   */\n      0x20\n        /* \"#utility.yul\":2786:2791   */\n      dup7\n        /* \"#utility.yul\":2782:2798   */\n      add\n        /* \"#utility.yul\":2747:2812   */\n      tag_72\n      jump\t// in\n    tag_145:\n        /* \"#utility.yul\":2837:2866   */\n      tag_146\n        /* \"#utility.yul\":2859:2865   */\n      dup2\n        /* \"#utility.yul\":2837:2866   */\n      tag_73\n      jump\t// in\n    tag_146:\n        /* \"#utility.yul\":2832:2835   */\n      dup5\n        /* \"#utility.yul\":2828:2867   */\n      add\n        /* \"#utility.yul\":2821:2867   */\n      swap2\n      pop\n        /* \"#utility.yul\":2588:2873   */\n      pop\n        /* \"#utility.yul\":2496:2873   */\n      swap3\n      swap2\n      pop\n      pop\n      jump\t// out\n        /* \"#utility.yul\":2879:2969   */\n    tag_75:\n        /* \"#utility.yul\":2913:2920   */\n      0x00\n        /* \"#utility.yul\":2956:2961   */\n      dup2\n        /* \"#utility.yul\":2949:2962   */\n      iszero\n        /* \"#utility.yul\":2942:2963   */\n      iszero\n        /* \"#utility.yul\":2931:2963   */\n      swap1\n      pop\n        /* \"#utility.yul\":2879:2969   */\n      swap2\n      swap1\n      pop\n      jump\t// out\n        /* \"#utility.yul\":2975:3084   */\n    tag_76:\n        /* \"#utility.yul\":3056:3077   */\n      tag_149\n        /* \"#utility.yul\":3071:3076   */\n      dup2\n        /* \"#utility.yul\":3056:3077   */\n      tag_75\n      jump\t// in\n    tag_149:\n        /* \"#utility.yul\":3051:3054   */\n      dup3\n        /* \"#utility.yul\":3044:3078   */\n      mstore\n        /* \"#utility.yul\":2975:3084   */\n      pop\n      pop\n      jump\t// out\n        /* \"#utility.yul\":3090:3710   */\n    tag_27:\n        /* \"#utility.yul\":3275:3279   */\n      0x00\n        /* \"#utility.yul\":3313:3316   */\n      0x80\n        /* \"#utility.yul\":3302:3311   */\n      dup3\n        /* \"#utility.yul\":3298:3317   */\n      add\n        /* \"#utility.yul\":3290:3317   */\n      swap1\n      pop\n        /* \"#utility.yul\":3327:3398   */\n      tag_151\n        /* \"#utility.yul\":3395:3396   */\n      0x00\n        /* \"#utility.yul\":3384:3393   */\n      dup4\n        /* \"#utility.yul\":3380:3397   */\n      add\n        /* \"#utility.yul\":3371:3377   */\n      dup8\n        /* \"#utility.yul\":3327:3398   */\n      tag_62\n      jump\t// in\n    tag_151:\n        /* \"#utility.yul\":3445:3454   */\n      dup2\n        /* \"#utility.yul\":3439:3443   */\n      dup2\n        /* \"#utility.yul\":3435:3455   */\n      sub\n        /* \"#utility.yul\":3430:3432   */\n      0x20\n        /* \"#utility.yul\":3419:3428   */\n      dup4\n        /* \"#utility.yul\":3415:3433   */\n      add\n        /* \"#utility.yul\":3408:3456   */\n      mstore\n        /* \"#utility.yul\":3473:3551   */\n      tag_152\n        /* \"#utility.yul\":3546:3550   */\n      dup2\n        /* \"#utility.yul\":3537:3543   */\n      dup7\n        /* \"#utility.yul\":3473:3551   */\n      tag_74\n      jump\t// in\n    tag_152:\n        /* \"#utility.yul\":3465:3551   */\n      swap1\n      pop\n        /* \"#utility.yul\":3561:3627   */\n      tag_153\n        /* \"#utility.yul\":3623:3625   */\n      0x40\n        /* \"#utility.yul\":3612:3621   */\n      dup4\n        /* \"#utility.yul\":3608:3626   */\n      add\n        /* \"#utility.yul\":3599:3605   */\n      dup6\n        /* \"#utility.yul\":3561:3627   */\n      tag_76\n      jump\t// in\n    tag_153:\n        /* \"#utility.yul\":3637:3703   */\n      tag_154\n        /* \"#utility.yul\":3699:3701   */\n      0x60\n        /* \"#utility.yul\":3688:3697   */\n      dup4\n        /* \"#utility.yul\":3684:3702   */\n      add\n        /* \"#utility.yul\":3675:3681   */\n      dup5\n        /* \"#utility.yul\":3637:3703   */\n      tag_76\n      jump\t// in\n    tag_154:\n        /* \"#utility.yul\":3090:3710   */\n      swap6\n      swap5\n      pop\n      pop\n      pop\n      pop\n      pop\n      jump\t// out\n        /* \"#utility.yul\":3716:3833   */\n    tag_77:\n        /* \"#utility.yul\":3825:3826   */\n      0x00\n        /* \"#utility.yul\":3822:3823   */\n      0x00\n        /* \"#utility.yul\":3815:3827   */\n      revert\n        /* \"#utility.yul\":3839:3956   */\n    tag_78:\n        /* \"#utility.yul\":3948:3949   */\n      0x00\n        /* \"#utility.yul\":3945:3946   */\n      0x00\n        /* \"#utility.yul\":3938:3950   */\n      revert\n        /* \"#utility.yul\":3962:4142   */\n    tag_79:\n        /* \"#utility.yul\":4010:4087   */\n      0x4e487b7100000000000000000000000000000000000000000000000000000000\n        /* \"#utility.yul\":4007:4008   */\n      0x00\n        /* \"#utility.yul\":4000:4088   */\n      mstore\n        /* \"#utility.yul\":4107:4111   */\n      0x41\n        /* \"#utility.yul\":4104:4105   */\n      0x04\n        /* \"#utility.yul\":4097:4112   */\n      mstore\n        /* \"#utility.yul\":4131:4135   */\n      0x24\n        /* \"#utility.yul\":4128:4129   */\n      0x00\n        /* \"#utility.yul\":4121:4136   */\n      revert\n        /* \"#utility.yul\":4148:4429   */\n    tag_80:\n        /* \"#utility.yul\":4231:4258   */\n      tag_159\n        /* \"#utility.yul\":4253:4257   */\n      dup3\n        /* \"#utility.yul\":4231:4258   */\n      tag_73\n      jump\t// in\n    tag_159:\n        /* \"#utility.yul\":4223:4229   */\n      dup2\n        /* \"#utility.yul\":4219:4259   */\n      add\n        /* \"#utility.yul\":4361:4367   */\n      dup2\n        /* \"#utility.yul\":4349:4359   */\n      dup2\n        /* \"#utility.yul\":4346:4368   */\n      lt\n        /* \"#utility.yul\":4325:4343   */\n      0xffffffffffffffff\n        /* \"#utility.yul\":4313:4323   */\n      dup3\n        /* \"#utility.yul\":4310:4344   */\n      gt\n        /* \"#utility.yul\":4307:4369   */\n      or\n        /* \"#utility.yul\":4304:4392   */\n      iszero\n      tag_160\n      jumpi\n        /* \"#utility.yul\":4372:4390   */\n      tag_161\n      tag_79\n      jump\t// in\n    tag_161:\n        /* \"#utility.yul\":4304:4392   */\n    tag_160:\n        /* \"#utility.yul\":4412:4422   */\n      dup1\n        /* \"#utility.yul\":4408:4410   */\n      0x40\n        /* \"#utility.yul\":4401:4423   */\n      mstore\n        /* \"#utility.yul\":4191:4429   */\n      pop\n        /* \"#utility.yul\":4148:4429   */\n      pop\n      pop\n      jump\t// out\n        /* \"#utility.yul\":4435:4564   */\n    tag_81:\n        /* \"#utility.yul\":4469:4475   */\n      0x00\n        /* \"#utility.yul\":4496:4516   */\n      tag_163\n      tag_65\n      jump\t// in\n    tag_163:\n        /* \"#utility.yul\":4486:4516   */\n      swap1\n      pop\n        /* \"#utility.yul\":4525:4558   */\n      tag_164\n        /* \"#utility.yul\":4553:4557   */\n      dup3\n        /* \"#utility.yul\":4545:4551   */\n      dup3\n        /* \"#utility.yul\":4525:4558   */\n      tag_80\n      jump\t// in\n    tag_164:\n        /* \"#utility.yul\":4435:4564   */\n      swap2\n      swap1\n      pop\n      jump\t// out\n        /* \"#utility.yul\":4570:4878   */\n    tag_82:\n        /* \"#utility.yul\":4632:4636   */\n      0x00\n        /* \"#utility.yul\":4722:4740   */\n      0xffffffffffffffff\n        /* \"#utility.yul\":4714:4720   */\n      dup3\n        /* \"#utility.yul\":4711:4741   */\n      gt\n        /* \"#utility.yul\":4708:4764   */\n      iszero\n      tag_166\n      jumpi\n        /* \"#utility.yul\":4744:4762   */\n      tag_167\n      tag_79\n      jump\t// in\n    tag_167:\n        /* \"#utility.yul\":4708:4764   */\n    tag_166:\n        /* \"#utility.yul\":4782:4811   */\n      tag_168\n        /* \"#utility.yul\":4804:4810   */\n      dup3\n        /* \"#utility.yul\":4782:4811   */\n      tag_73\n      jump\t// in\n    tag_168:\n        /* \"#utility.yul\":4774:4811   */\n      swap1\n      pop\n        /* \"#utility.yul\":4866:4870   */\n      0x20\n        /* \"#utility.yul\":4860:4864   */\n      dup2\n        /* \"#utility.yul\":4856:4871   */\n      add\n        /* \"#utility.yul\":4848:4871   */\n      swap1\n      pop\n        /* \"#utility.yul\":4570:4878   */\n      swap2\n      swap1\n      pop\n      jump\t// out\n        /* \"#utility.yul\":4884:5032   */\n    tag_83:\n        /* \"#utility.yul\":4982:4988   */\n      dup3\n        /* \"#utility.yul\":4977:4980   */\n      dup2\n        /* \"#utility.yul\":4972:4975   */\n      dup4\n        /* \"#utility.yul\":4959:4989   */\n      calldatacopy\n        /* \"#utility.yul\":5023:5024   */\n      0x00\n        /* \"#utility.yul\":5014:5020   */\n      dup4\n        /* \"#utility.yul\":5009:5012   */\n      dup4\n        /* \"#utility.yul\":5005:5021   */\n      add\n        /* \"#utility.yul\":4998:5025   */\n      mstore\n        /* \"#utility.yul\":4884:5032   */\n      pop\n      pop\n      pop\n      jump\t// out\n        /* \"#utility.yul\":5038:5463   */\n    tag_84:\n        /* \"#utility.yul\":5116:5121   */\n      0x00\n        /* \"#utility.yul\":5141:5207   */\n      tag_171\n        /* \"#utility.yul\":5157:5206   */\n      tag_172\n        /* \"#utility.yul\":5199:5205   */\n      dup5\n        /* \"#utility.yul\":5157:5206   */\n      tag_82\n      jump\t// in\n    tag_172:\n        /* \"#utility.yul\":5141:5207   */\n      tag_81\n      jump\t// in\n    tag_171:\n        /* \"#utility.yul\":5132:5207   */\n      swap1\n      pop\n        /* \"#utility.yul\":5230:5236   */\n      dup3\n        /* \"#utility.yul\":5223:5228   */\n      dup2\n        /* \"#utility.yul\":5216:5237   */\n      mstore\n        /* \"#utility.yul\":5268:5272   */\n      0x20\n        /* \"#utility.yul\":5261:5266   */\n      dup2\n        /* \"#utility.yul\":5257:5273   */\n      add\n        /* \"#utility.yul\":5306:5309   */\n      dup5\n        /* \"#utility.yul\":5297:5303   */\n      dup5\n        /* \"#utility.yul\":5292:5295   */\n      dup5\n        /* \"#utility.yul\":5288:5304   */\n      add\n        /* \"#utility.yul\":5285:5310   */\n      gt\n        /* \"#utility.yul\":5282:5394   */\n      iszero\n      tag_173\n      jumpi\n        /* \"#utility.yul\":5313:5392   */\n      tag_174\n      tag_78\n      jump\t// in\n    tag_174:\n        /* \"#utility.yul\":5282:5394   */\n    tag_173:\n        /* \"#utility.yul\":5403:5457   */\n      tag_175\n        /* \"#utility.yul\":5450:5456   */\n      dup5\n        /* \"#utility.yul\":5445:5448   */\n      dup3\n        /* \"#utility.yul\":5440:5443   */\n      dup6\n        /* \"#utility.yul\":5403:5457   */\n      tag_83\n      jump\t// in\n    tag_175:\n        /* \"#utility.yul\":5122:5463   */\n      pop\n        /* \"#utility.yul\":5038:5463   */\n      swap4\n      swap3\n      pop\n      pop\n      pop\n      jump\t// out\n        /* \"#utility.yul\":5483:5823   */\n    tag_85:\n        /* \"#utility.yul\":5539:5544   */\n      0x00\n        /* \"#utility.yul\":5588:5591   */\n      dup3\n        /* \"#utility.yul\":5581:5585   */\n      0x1f\n        /* \"#utility.yul\":5573:5579   */\n      dup4\n        /* \"#utility.yul\":5569:5586   */\n      add\n        /* \"#utility.yul\":5565:5592   */\n      slt\n        /* \"#utility.yul\":5555:5677   */\n      tag_177\n      jumpi\n        /* \"#utility.yul\":5596:5675   */\n      tag_178\n      tag_77\n      jump\t// in\n    tag_178:\n        /* \"#utility.yul\":5555:5677   */\n    tag_177:\n        /* \"#utility.yul\":5713:5719   */\n      dup2\n        /* \"#utility.yul\":5700:5720   */\n      calldataload\n        /* \"#utility.yul\":5738:5817   */\n      tag_179\n        /* \"#utility.yul\":5813:5816   */\n      dup5\n        /* \"#utility.yul\":5805:5811   */\n      dup3\n        /* \"#utility.yul\":5798:5802   */\n      0x20\n        /* \"#utility.yul\":5790:5796   */\n      dup7\n        /* \"#utility.yul\":5786:5803   */\n      add\n        /* \"#utility.yul\":5738:5817   */\n      tag_84\n      jump\t// in\n    tag_179:\n        /* \"#utility.yul\":5729:5817   */\n      swap2\n      pop\n        /* \"#utility.yul\":5545:5823   */\n      pop\n        /* \"#utility.yul\":5483:5823   */\n      swap3\n      swap2\n      pop\n      pop\n      jump\t// out\n        /* \"#utility.yul\":5829:6483   */\n    tag_30:\n        /* \"#utility.yul\":5907:5913   */\n      0x00\n        /* \"#utility.yul\":5915:5921   */\n      0x00\n        /* \"#utility.yul\":5964:5966   */\n      0x40\n        /* \"#utility.yul\":5952:5961   */\n      dup4\n        /* \"#utility.yul\":5943:5950   */\n      dup6\n        /* \"#utility.yul\":5939:5962   */\n      sub\n        /* \"#utility.yul\":5935:5967   */\n      slt\n        /* \"#utility.yul\":5932:6051   */\n      iszero\n      tag_181\n      jumpi\n        /* \"#utility.yul\":5970:6049   */\n      tag_182\n      tag_66\n      jump\t// in\n    tag_182:\n        /* \"#utility.yul\":5932:6051   */\n    tag_181:\n        /* \"#utility.yul\":6090:6091   */\n      0x00\n        /* \"#utility.yul\":6115:6168   */\n      tag_183\n        /* \"#utility.yul\":6160:6167   */\n      dup6\n        /* \"#utility.yul\":6151:6157   */\n      dup3\n        /* \"#utility.yul\":6140:6149   */\n      dup7\n        /* \"#utility.yul\":6136:6158   */\n      add\n        /* \"#utility.yul\":6115:6168   */\n      tag_69\n      jump\t// in\n    tag_183:\n        /* \"#utility.yul\":6105:6168   */\n      swap3\n      pop\n        /* \"#utility.yul\":6061:6178   */\n      pop\n        /* \"#utility.yul\":6245:6247   */\n      0x20\n        /* \"#utility.yul\":6234:6243   */\n      dup4\n        /* \"#utility.yul\":6230:6248   */\n      add\n        /* \"#utility.yul\":6217:6249   */\n      calldataload\n        /* \"#utility.yul\":6276:6294   */\n      0xffffffffffffffff\n        /* \"#utility.yul\":6268:6274   */\n      dup2\n        /* \"#utility.yul\":6265:6295   */\n      gt\n        /* \"#utility.yul\":6262:6379   */\n      iszero\n      tag_184\n      jumpi\n        /* \"#utility.yul\":6298:6377   */\n      tag_185\n      tag_67\n      jump\t// in\n    tag_185:\n        /* \"#utility.yul\":6262:6379   */\n    tag_184:\n        /* \"#utility.yul\":6403:6466   */\n      tag_186\n        /* \"#utility.yul\":6458:6465   */\n      dup6\n        /* \"#utility.yul\":6449:6455   */\n      dup3\n        /* \"#utility.yul\":6438:6447   */\n      dup7\n        /* \"#utility.yul\":6434:6456   */\n      add\n        /* \"#utility.yul\":6403:6466   */\n      tag_85\n      jump\t// in\n    tag_186:\n        /* \"#utility.yul\":6393:6466   */\n      swap2\n      pop\n        /* \"#utility.yul\":6188:6476   */\n      pop\n        /* \"#utility.yul\":5829:6483   */\n      swap3\n      pop\n      swap3\n      swap1\n      pop\n      jump\t// out\n        /* \"#utility.yul\":6489:6653   */\n    tag_86:\n        /* \"#utility.yul\":6629:6645   */\n      0x4e6f742072656769737465726564000000000000000000000000000000000000\n        /* \"#utility.yul\":6625:6626   */\n      0x00\n        /* \"#utility.yul\":6617:6623   */\n      dup3\n        /* \"#utility.yul\":6613:6627   */\n      add\n        /* \"#utility.yul\":6606:6646   */\n      mstore\n        /* \"#utility.yul\":6489:6653   */\n      pop\n      jump\t// out\n        /* \"#utility.yul\":6659:7025   */\n    tag_87:\n        /* \"#utility.yul\":6801:6804   */\n      0x00\n        /* \"#utility.yul\":6822:6889   */\n      tag_189\n        /* \"#utility.yul\":6886:6888   */\n      0x0e\n        /* \"#utility.yul\":6881:6884   */\n      dup4\n        /* \"#utility.yul\":6822:6889   */\n      tag_71\n      jump\t// in\n    tag_189:\n        /* \"#utility.yul\":6815:6889   */\n      swap2\n      pop\n        /* \"#utility.yul\":6898:6991   */\n      tag_190\n        /* \"#utility.yul\":6987:6990   */\n      dup3\n        /* \"#utility.yul\":6898:6991   */\n      tag_86\n      jump\t// in\n    tag_190:\n        /* \"#utility.yul\":7016:7018   */\n      0x20\n        /* \"#utility.yul\":7011:7014   */\n      dup3\n        /* \"#utility.yul\":7007:7019   */\n      add\n        /* \"#utility.yul\":7000:7019   */\n      swap1\n      pop\n        /* \"#utility.yul\":6659:7025   */\n      swap2\n      swap1\n      pop\n      jump\t// out\n        /* \"#utility.yul\":7031:7450   */\n    tag_35:\n        /* \"#utility.yul\":7197:7201   */\n      0x00\n        /* \"#utility.yul\":7235:7237   */\n      0x20\n        /* \"#utility.yul\":7224:7233   */\n      dup3\n        /* \"#utility.yul\":7220:7238   */\n      add\n        /* \"#utility.yul\":7212:7238   */\n      swap1\n      pop\n        /* \"#utility.yul\":7284:7293   */\n      dup2\n        /* \"#utility.yul\":7278:7282   */\n      dup2\n        /* \"#utility.yul\":7274:7294   */\n      sub\n        /* \"#utility.yul\":7270:7271   */\n      0x00\n        /* \"#utility.yul\":7259:7268   */\n      dup4\n        /* \"#utility.yul\":7255:7272   */\n      add\n        /* \"#utility.yul\":7248:7295   */\n      mstore\n        /* \"#utility.yul\":7312:7443   */\n      tag_192\n        /* \"#utility.yul\":7438:7442   */\n      dup2\n        /* \"#utility.yul\":7312:7443   */\n      tag_87\n      jump\t// in\n    tag_192:\n        /* \"#utility.yul\":7304:7443   */\n      swap1\n      pop\n        /* \"#utility.yul\":7031:7450   */\n      swap2\n      swap1\n      pop\n      jump\t// out\n        /* \"#utility.yul\":7456:7619   */\n    tag_88:\n        /* \"#utility.yul\":7596:7611   */\n      0x416c726561647920766f74656400000000000000000000000000000000000000\n        /* \"#utility.yul\":7592:7593   */\n      0x00\n        /* \"#utility.yul\":7584:7590   */\n      dup3\n        /* \"#utility.yul\":7580:7594   */\n      add\n        /* \"#utility.yul\":7573:7612   */\n      mstore\n        /* \"#utility.yul\":7456:7619   */\n      pop\n      jump\t// out\n        /* \"#utility.yul\":7625:7991   */\n    tag_89:\n        /* \"#utility.yul\":7767:7770   */\n      0x00\n        /* \"#utility.yul\":7788:7855   */\n      tag_195\n        /* \"#utility.yul\":7852:7854   */\n      0x0d\n        /* \"#utility.yul\":7847:7850   */\n      dup4\n        /* \"#utility.yul\":7788:7855   */\n      tag_71\n      jump\t// in\n    tag_195:\n        /* \"#utility.yul\":7781:7855   */\n      swap2\n      pop\n        /* \"#utility.yul\":7864:7957   */\n      tag_196\n        /* \"#utility.yul\":7953:7956   */\n      dup3\n        /* \"#utility.yul\":7864:7957   */\n      tag_88\n      jump\t// in\n    tag_196:\n        /* \"#utility.yul\":7982:7984   */\n      0x20\n        /* \"#utility.yul\":7977:7980   */\n      dup3\n        /* \"#utility.yul\":7973:7985   */\n      add\n        /* \"#utility.yul\":7966:7985   */\n      swap1\n      pop\n        /* \"#utility.yul\":7625:7991   */\n      swap2\n      swap1\n      pop\n      jump\t// out\n        /* \"#utility.yul\":7997:8416   */\n    tag_38:\n        /* \"#utility.yul\":8163:8167   */\n      0x00\n        /* \"#utility.yul\":8201:8203   */\n      0x20\n        /* \"#utility.yul\":8190:8199   */\n      dup3\n        /* \"#utility.yul\":8186:8204   */\n      add\n        /* \"#utility.yul\":8178:8204   */\n      swap1\n      pop\n        /* \"#utility.yul\":8250:8259   */\n      dup2\n        /* \"#utility.yul\":8244:8248   */\n      dup2\n        /* \"#utility.yul\":8240:8260   */\n      sub\n        /* \"#utility.yul\":8236:8237   */\n      0x00\n        /* \"#utility.yul\":8225:8234   */\n      dup4\n        /* \"#utility.yul\":8221:8238   */\n      add\n        /* \"#utility.yul\":8214:8261   */\n      mstore\n        /* \"#utility.yul\":8278:8409   */\n      tag_198\n        /* \"#utility.yul\":8404:8408   */\n      dup2\n        /* \"#utility.yul\":8278:8409   */\n      tag_89\n      jump\t// in\n    tag_198:\n        /* \"#utility.yul\":8270:8409   */\n      swap1\n      pop\n        /* \"#utility.yul\":7997:8416   */\n      swap2\n      swap1\n      pop\n      jump\t// out\n        /* \"#utility.yul\":8422:8591   */\n    tag_90:\n        /* \"#utility.yul\":8562:8583   */\n      0x566f74696e6720706572696f6420656e64656400000000000000000000000000\n        /* \"#utility.yul\":8558:8559   */\n      0x00\n        /* \"#utility.yul\":8550:8556   */\n      dup3\n        /* \"#utility.yul\":8546:8560   */\n      add\n        /* \"#utility.yul\":8539:8584   */\n      mstore\n        /* \"#utility.yul\":8422:8591   */\n      pop\n      jump\t// out\n        /* \"#utility.yul\":8597:8963   */\n    tag_91:\n        /* \"#utility.yul\":8739:8742   */\n      0x00\n        /* \"#utility.yul\":8760:8827   */\n      tag_201\n        /* \"#utility.yul\":8824:8826   */\n      0x13\n        /* \"#utility.yul\":8819:8822   */\n      dup4\n        /* \"#utility.yul\":8760:8827   */\n      tag_71\n      jump\t// in\n    tag_201:\n        /* \"#utility.yul\":8753:8827   */\n      swap2\n      pop\n        /* \"#utility.yul\":8836:8929   */\n      tag_202\n        /* \"#utility.yul\":8925:8928   */\n      dup3\n        /* \"#utility.yul\":8836:8929   */\n      tag_90\n      jump\t// in\n    tag_202:\n        /* \"#utility.yul\":8954:8956   */\n      0x20\n        /* \"#utility.yul\":8949:8952   */\n      dup3\n        /* \"#utility.yul\":8945:8957   */\n      add\n        /* \"#utility.yul\":8938:8957   */\n      swap1\n      pop\n        /* \"#utility.yul\":8597:8963   */\n      swap2\n      swap1\n      pop\n      jump\t// out\n        /* \"#utility.yul\":8969:9388   */\n    tag_41:\n        /* \"#utility.yul\":9135:9139   */\n      0x00\n        /* \"#utility.yul\":9173:9175   */\n      0x20\n        /* \"#utility.yul\":9162:9171   */\n      dup3\n        /* \"#utility.yul\":9158:9176   */\n      add\n        /* \"#utility.yul\":9150:9176   */\n      swap1\n      pop\n        /* \"#utility.yul\":9222:9231   */\n      dup2\n        /* \"#utility.yul\":9216:9220   */\n      dup2\n        /* \"#utility.yul\":9212:9232   */\n      sub\n        /* \"#utility.yul\":9208:9209   */\n      0x00\n        /* \"#utility.yul\":9197:9206   */\n      dup4\n        /* \"#utility.yul\":9193:9210   */\n      add\n        /* \"#utility.yul\":9186:9233   */\n      mstore\n        /* \"#utility.yul\":9250:9381   */\n      tag_204\n        /* \"#utility.yul\":9376:9380   */\n      dup2\n        /* \"#utility.yul\":9250:9381   */\n      tag_91\n      jump\t// in\n    tag_204:\n        /* \"#utility.yul\":9242:9381   */\n      swap1\n      pop\n        /* \"#utility.yul\":8969:9388   */\n      swap2\n      swap1\n      pop\n      jump\t// out\n        /* \"#utility.yul\":9394:9574   */\n    tag_92:\n        /* \"#utility.yul\":9442:9519   */\n      0x4e487b7100000000000000000000000000000000000000000000000000000000\n        /* \"#utility.yul\":9439:9440   */\n      0x00\n        /* \"#utility.yul\":9432:9520   */\n      mstore\n        /* \"#utility.yul\":9539:9543   */\n      0x11\n        /* \"#utility.yul\":9536:9537   */\n      0x04\n        /* \"#utility.yul\":9529:9544   */\n      mstore\n        /* \"#utility.yul\":9563:9567   */\n      0x24\n        /* \"#utility.yul\":9560:9561   */\n      0x00\n        /* \"#utility.yul\":9553:9568   */\n      revert\n        /* \"#utility.yul\":9580:9813   */\n    tag_43:\n        /* \"#utility.yul\":9619:9622   */\n      0x00\n        /* \"#utility.yul\":9642:9666   */\n      tag_207\n        /* \"#utility.yul\":9660:9665   */\n      dup3\n        /* \"#utility.yul\":9642:9666   */\n      tag_63\n      jump\t// in\n    tag_207:\n        /* \"#utility.yul\":9633:9666   */\n      swap2\n      pop\n        /* \"#utility.yul\":9688:9754   */\n      0xffffffffffffffffffffffffffffffffffffffffffffffffffffffffffffffff\n        /* \"#utility.yul\":9681:9686   */\n      dup3\n        /* \"#utility.yul\":9678:9755   */\n      sub\n        /* \"#utility.yul\":9675:9778   */\n      tag_208\n      jumpi\n        /* \"#utility.yul\":9758:9776   */\n      tag_209\n      tag_92\n      jump\t// in\n    tag_209:\n        /* \"#utility.yul\":9675:9778   */\n    tag_208:\n        /* \"#utility.yul\":9805:9806   */\n      0x01\n        /* \"#utility.yul\":9798:9803   */\n      dup3\n        /* \"#utility.yul\":9794:9807   */\n      add\n        /* \"#utility.yul\":9787:9807   */\n      swap1\n      pop\n        /* \"#utility.yul\":9580:9813   */\n      swap2\n      swap1\n      pop\n      jump\t// out\n        /* \"#utility.yul\":9819:9999   */\n    tag_93:\n        /* \"#utility.yul\":9867:9944   */\n      0x4e487b7100000000000000000000000000000000000000000000000000000000\n        /* \"#utility.yul\":9864:9865   */\n      0x00\n        /* \"#utility.yul\":9857:9945   */\n      mstore\n        /* \"#utility.yul\":9964:9968   */\n      0x22\n        /* \"#utility.yul\":9961:9962   */\n      0x04\n        /* \"#utility.yul\":9954:9969   */\n      mstore\n        /* \"#utility.yul\":9988:9992   */\n      0x24\n        /* \"#utility.yul\":9985:9986   */\n      0x00\n        /* \"#utility.yul\":9978:9993   */\n      revert\n        /* \"#utility.yul\":10005:10325   */\n    tag_45:\n        /* \"#utility.yul\":10049:10055   */\n      0x00\n        /* \"#utility.yul\":10086:10087   */\n      0x02\n        /* \"#utility.yul\":10080:10084   */\n      dup3\n        /* \"#utility.yul\":10076:10088   */\n      div\n        /* \"#utility.yul\":10066:10088   */\n      swap1\n      pop\n        /* \"#utility.yul\":10133:10134   */\n      0x01\n        /* \"#utility.yul\":10127:10131   */\n      dup3\n        /* \"#utility.yul\":10123:10135   */\n      and\n        /* \"#utility.yul\":10154:10172   */\n      dup1\n        /* \"#utility.yul\":10144:10225   */\n      tag_212\n      jumpi\n        /* \"#utility.yul\":10210:10214   */\n      0x7f\n        /* \"#utility.yul\":10202:10208   */\n      dup3\n        /* \"#utility.yul\":10198:10215   */\n      and\n        /* \"#utility.yul\":10188:10215   */\n      swap2\n      pop\n        /* \"#utility.yul\":10144:10225   */\n    tag_212:\n        /* \"#utility.yul\":10272:10274   */\n      0x20\n        /* \"#utility.yul\":10264:10270   */\n      dup3\n        /* \"#utility.yul\":10261:10275   */\n      lt\n        /* \"#utility.yul\":10241:10259   */\n      dup2\n        /* \"#utility.yul\":10238:10276   */\n      sub\n        /* \"#utility.yul\":10235:10319   */\n      tag_213\n      jumpi\n        /* \"#utility.yul\":10291:10309   */\n      tag_214\n      tag_93\n      jump\t// in\n    tag_214:\n        /* \"#utility.yul\":10235:10319   */\n    tag_213:\n        /* \"#utility.yul\":10056:10325   */\n      pop\n        /* \"#utility.yul\":10005:10325   */\n      swap2\n      swap1\n      pop\n      jump\t// out\n        /* \"#utility.yul\":10331:10493   */\n    tag_94:\n        /* \"#utility.yul\":10471:10485   */\n      0x554e415554484f52495a45440000000000000000000000000000000000000000\n        /* \"#utility.yul\":10467:10468   */\n      0x00\n        /* \"#utility.yul\":10459:10465   */\n      dup3\n        /* \"#utility.yul\":10455:10469   */\n      add\n        /* \"#utility.yul\":10448:10486   */\n      mstore\n        /* \"#utility.yul\":10331:10493   */\n      pop\n      jump\t// out\n        /* \"#utility.yul\":10499:10865   */\n    tag_95:\n        /* \"#utility.yul\":10641:10644   */\n      0x00\n        /* \"#utility.yul\":10662:10729   */\n      tag_217\n        /* \"#utility.yul\":10726:10728   */\n      0x0c\n        /* \"#utility.yul\":10721:10724   */\n      dup4\n        /* \"#utility.yul\":10662:10729   */\n      tag_71\n      jump\t// in\n    tag_217:\n        /* \"#utility.yul\":10655:10729   */\n      swap2\n      pop\n        /* \"#utility.yul\":10738:10831   */\n      tag_218\n        /* \"#utility.yul\":10827:10830   */\n      dup3\n        /* \"#utility.yul\":10738:10831   */\n      tag_94\n      jump\t// in\n    tag_218:\n        /* \"#utility.yul\":10856:10858   */\n      0x20\n        /* \"#utility.yul\":10851:10854   */\n      dup3\n        /* \"#utility.yul\":10847:10859   */\n      add\n        /* \"#utility.yul\":10840:10859   */\n      swap1\n      pop\n        /* \"#utility.yul\":10499:10865   */\n      swap2\n      swap1\n      pop\n      jump\t// out\n        /* \"#utility.yul\":10871:11290   */\n    tag_53:\n        /* \"#utility.yul\":11037:11041   */\n      0x00\n        /* \"#utility.yul\":11075:11077   */\n      0x20\n        /* \"#utility.yul\":11064:11073   */\n      dup3\n        /* \"#utility.yul\":11060:11078   */\n      add\n        /* \"#utility.yul\":11052:11078   */\n      swap1\n      pop\n        /* \"#utility.yul\":11124:11133   */\n      dup2\n        /* \"#utility.yul\":11118:11122   */\n      dup2\n        /* \"#utility.yul\":11114:11134   */\n      sub\n        /* \"#utility.yul\":11110:11111   */\n      0x00\n        /* \"#utility.yul\":11099:11108   */\n      dup4\n        /* \"#utility.yul\":11095:11112   */\n      add\n        /* \"#utility.yul\":11088:11135   */\n      mstore\n        /* \"#utility.yul\":11152:11283   */\n      tag_220\n        /* \"#utility.yul\":11278:11282   */\n      dup2\n        /* \"#utility.yul\":11152:11283   */\n      tag_95\n      jump\t// in\n    tag_220:\n        /* \"#utility.yul\":11144:11283   */\n      swap1\n      pop\n        /* \"#utility.yul\":10871:11290   */\n      swap2\n      swap1\n      pop\n      jump\t// out\n        /* \"#utility.yul\":11296:11464   */\n    tag_96:\n        /* \"#utility.yul\":11436:11456   */\n      0x416c726561647920726567697374657265640000000000000000000000000000\n        /* \"#utility.yul\":11432:11433   */\n      0x00\n        /* \"#utility.yul\":11424:11430   */\n      dup3\n        /* \"#utility.yul\":11420:11434   */\n      add\n        /* \"#utility.yul\":11413:11457   */\n      mstore\n        /* \"#utility.yul\":11296:11464   */\n      pop\n      jump\t// out\n        /* \"#utility.yul\":11470:11836   */\n    tag_97:\n        /* \"#utility.yul\":11612:11615   */\n      0x00\n        /* \"#utility.yul\":11633:11700   */\n      tag_223\n        /* \"#utility.yul\":11697:11699   */\n      0x12\n        /* \"#utility.yul\":11692:11695   */\n      dup4\n        /* \"#utility.yul\":11633:11700   */\n      tag_71\n      jump\t// in\n    tag_223:\n        /* \"#utility.yul\":11626:11700   */\n      swap2\n      pop\n        /* \"#utility.yul\":11709:11802   */\n      tag_224\n        /* \"#utility.yul\":11798:11801   */\n      dup3\n        /* \"#utility.yul\":11709:11802   */\n      tag_96\n      jump\t// in\n    tag_224:\n        /* \"#utility.yul\":11827:11829   */\n      0x20\n        /* \"#utility.yul\":11822:11825   */\n      dup3\n        /* \"#utility.yul\":11818:11830   */\n      add\n        /* \"#utility.yul\":11811:11830   */\n      swap1\n      pop\n        /* \"#utility.yul\":11470:11836   */\n      swap2\n      swap1\n      pop\n      jump\t// out\n        /* \"#utility.yul\":11842:12261   */\n    tag_57:\n        /* \"#utility.yul\":12008:12012   */\n      0x00\n        /* \"#utility.yul\":12046:12048   */\n      0x20\n        /* \"#utility.yul\":12035:12044   */\n      dup3\n        /* \"#utility.yul\":12031:12049   */\n      add\n        /* \"#utility.yul\":12023:12049   */\n      swap1\n      pop\n        /* \"#utility.yul\":12095:12104   */\n      dup2\n        /* \"#utility.yul\":12089:12093   */\n      dup2\n        /* \"#utility.yul\":12085:12105   */\n      sub\n        /* \"#utility.yul\":12081:12082   */\n      0x00\n        /* \"#utility.yul\":12070:12079   */\n      dup4\n        /* \"#utility.yul\":12066:12083   */\n      add\n        /* \"#utility.yul\":12059:12106   */\n      mstore\n        /* \"#utility.yul\":12123:12254   */\n      tag_226\n        /* \"#utility.yul\":12249:12253   */\n      dup2\n        /* \"#utility.yul\":12123:12254   */\n      tag_97\n      jump\t// in\n    tag_226:\n        /* \"#utility.yul\":12115:12254   */\n      swap1\n      pop\n        /* \"#utility.yul\":11842:12261   */\n      swap2\n      swap1\n      pop\n      jump\t// out\n        /* \"#utility.yul\":12267:12408   */\n    tag_98:\n        /* \"#utility.yul\":12316:12320   */\n      0x00\n        /* \"#utility.yul\":12339:12342   */\n      dup2\n        /* \"#utility.yul\":12331:12342   */\n      swap1\n      pop\n        /* \"#utility.yul\":12362:12365   */\n      dup2\n        /* \"#utility.yul\":12359:12360   */\n      0x00\n        /* \"#utility.yul\":12352:12366   */\n      mstore\n        /* \"#utility.yul\":12396:12400   */\n      0x20\n        /* \"#utility.yul\":12393:12394   */\n      0x00\n        /* \"#utility.yul\":12383:12401   */\n      keccak256\n        /* \"#utility.yul\":12375:12401   */\n      swap1\n      pop\n        /* \"#utility.yul\":12267:12408   */\n      swap2\n      swap1\n      pop\n      jump\t// out\n        /* \"#utility.yul\":12414:12507   */\n    tag_99:\n        /* \"#utility.yul\":12451:12457   */\n      0x00\n        /* \"#utility.yul\":12498:12500   */\n      0x20\n        /* \"#utility.yul\":12493:12495   */\n      0x1f\n        /* \"#utility.yul\":12486:12491   */\n      dup4\n        /* \"#utility.yul\":12482:12496   */\n      add\n        /* \"#utility.yul\":12478:12501   */\n      div\n        /* \"#utility.yul\":12468:12501   */\n      swap1\n      pop\n        /* \"#utility.yul\":12414:12507   */\n      swap2\n      swap1\n      pop\n      jump\t// out\n        /* \"#utility.yul\":12513:12620   */\n    tag_100:\n        /* \"#utility.yul\":12557:12565   */\n      0x00\n        /* \"#utility.yul\":12607:12612   */\n      dup3\n        /* \"#utility.yul\":12601:12605   */\n      dup3\n        /* \"#utility.yul\":12597:12613   */\n      shl\n        /* \"#utility.yul\":12576:12613   */\n      swap1\n      pop\n        /* \"#utility.yul\":12513:12620   */\n      swap3\n      swap2\n      pop\n      pop\n      jump\t// out\n        /* \"#utility.yul\":12626:13019   */\n    tag_101:\n        /* \"#utility.yul\":12695:12701   */\n      0x00\n        /* \"#utility.yul\":12745:12746   */\n      0x08\n        /* \"#utility.yul\":12733:12743   */\n      dup4\n        /* \"#utility.yul\":12729:12747   */\n      mul\n        /* \"#utility.yul\":12768:12865   */\n      tag_231\n        /* \"#utility.yul\":12798:12864   */\n      0xffffffffffffffffffffffffffffffffffffffffffffffffffffffffffffffff\n        /* \"#utility.yul\":12787:12796   */\n      dup3\n        /* \"#utility.yul\":12768:12865   */\n      tag_100\n      jump\t// in\n    tag_231:\n        /* \"#utility.yul\":12886:12925   */\n      tag_232\n        /* \"#utility.yul\":12916:12924   */\n      dup7\n        /* \"#utility.yul\":12905:12914   */\n      dup4\n        /* \"#utility.yul\":12886:12925   */\n      tag_100\n      jump\t// in\n    tag_232:\n        /* \"#utility.yul\":12874:12925   */\n      swap6\n      pop\n        /* \"#utility.yul\":12958:12962   */\n      dup1\n        /* \"#utility.yul\":12954:12963   */\n      not\n        /* \"#utility.yul\":12947:12952   */\n      dup5\n        /* \"#utility.yul\":12943:12964   */\n      and\n        /* \"#utility.yul\":12934:12964   */\n      swap4\n      pop\n        /* \"#utility.yul\":13007:13011   */\n      dup1\n        /* \"#utility.yul\":12997:13005   */\n      dup7\n        /* \"#utility.yul\":12993:13012   */\n      and\n        /* \"#utility.yul\":12986:12991   */\n      dup5\n        /* \"#utility.yul\":12983:13013   */\n      or\n        /* \"#utility.yul\":12973:13013   */\n      swap3\n      pop\n        /* \"#utility.yul\":12702:13019   */\n      pop\n      pop\n        /* \"#utility.yul\":12626:13019   */\n      swap4\n      swap3\n      pop\n      pop\n      pop\n      jump\t// out\n        /* \"#utility.yul\":13025:13085   */\n    tag_102:\n        /* \"#utility.yul\":13053:13056   */\n      0x00\n        /* \"#utility.yul\":13074:13079   */\n      dup2\n        /* \"#utility.yul\":13067:13079   */\n      swap1\n      pop\n        /* \"#utility.yul\":13025:13085   */\n      swap2\n      swap1\n      pop\n      jump\t// out\n        /* \"#utility.yul\":13091:13233   */\n    tag_103:\n        /* \"#utility.yul\":13141:13150   */\n      0x00\n        /* \"#utility.yul\":13174:13227   */\n      tag_235\n        /* \"#utility.yul\":13192:13226   */\n      tag_236\n        /* \"#utility.yul\":13201:13225   */\n      tag_237\n        /* \"#utility.yul\":13219:13224   */\n      dup5\n        /* \"#utility.yul\":13201:13225   */\n      tag_63\n      jump\t// in\n    tag_237:\n        /* \"#utility.yul\":13192:13226   */\n      tag_102\n      jump\t// in\n    tag_236:\n        /* \"#utility.yul\":13174:13227   */\n      tag_63\n      jump\t// in\n    tag_235:\n        /* \"#utility.yul\":13161:13227   */\n      swap1\n      pop\n        /* \"#utility.yul\":13091:13233   */\n      swap2\n      swap1\n      pop\n      jump\t// out\n        /* \"#utility.yul\":13239:13314   */\n    tag_104:\n        /* \"#utility.yul\":13282:13285   */\n      0x00\n        /* \"#utility.yul\":13303:13308   */\n      dup2\n        /* \"#utility.yul\":13296:13308   */\n      swap1\n      pop\n        /* \"#utility.yul\":13239:13314   */\n      swap2\n      swap1\n      pop\n      jump\t// out\n        /* \"#utility.yul\":13320:13589   */\n    tag_105:\n        /* \"#utility.yul\":13430:13469   */\n      tag_240\n        /* \"#utility.yul\":13461:13468   */\n      dup4\n        /* \"#utility.yul\":13430:13469   */\n      tag_103\n      jump\t// in\n    tag_240:\n        /* \"#utility.yul\":13491:13582   */\n      tag_241\n        /* \"#utility.yul\":13540:13581   */\n      tag_242\n        /* \"#utility.yul\":13564:13580   */\n      dup3\n        /* \"#utility.yul\":13540:13581   */\n      tag_104\n      jump\t// in\n    tag_242:\n        /* \"#utility.yul\":13532:13538   */\n      dup5\n        /* \"#utility.yul\":13525:13529   */\n      dup5\n        /* \"#utility.yul\":13519:13530   */\n      sload\n        /* \"#utility.yul\":13491:13582   */\n      tag_101\n      jump\t// in\n    tag_241:\n        /* \"#utility.yul\":13485:13489   */\n      dup3\n        /* \"#utility.yul\":13478:13583   */\n      sstore\n        /* \"#utility.yul\":13396:13589   */\n      pop\n        /* \"#utility.yul\":13320:13589   */\n      pop\n      pop\n      pop\n      jump\t// out\n        /* \"#utility.yul\":13595:13668   */\n    tag_106:\n        /* \"#utility.yul\":13640:13643   */\n      0x00\n        /* \"#utility.yul\":13661:13662   */\n      0x00\n        /* \"#utility.yul\":13654:13662   */\n      swap1\n      pop\n        /* \"#utility.yul\":13595:13668   */\n      swap1\n      jump\t// out\n        /* \"#utility.yul\":13674:13863   */\n    tag_107:\n        /* \"#utility.yul\":13751:13783   */\n      tag_245\n      tag_106\n      jump\t// in\n    tag_245:\n        /* \"#utility.yul\":13792:13857   */\n      tag_246\n        /* \"#utility.yul\":13850:13856   */\n      dup2\n        /* \"#utility.yul\":13842:13848   */\n      dup5\n        /* \"#utility.yul\":13836:13840   */\n      dup5\n        /* \"#utility.yul\":13792:13857   */\n      tag_105\n      jump\t// in\n    tag_246:\n        /* \"#utility.yul\":13727:13863   */\n      pop\n        /* \"#utility.yul\":13674:13863   */\n      pop\n      pop\n      jump\t// out\n        /* \"#utility.yul\":13869:14083   */\n    tag_108:\n        /* \"#utility.yul\":13954:13955   */\n      0x00\n        /* \"#utility.yul\":13939:14077   */\n    tag_248:\n        /* \"#utility.yul\":13964:13973   */\n      dup3\n        /* \"#utility.yul\":13961:13962   */\n      dup2\n        /* \"#utility.yul\":13958:13974   */\n      lt\n        /* \"#utility.yul\":13939:14077   */\n      iszero\n      tag_250\n      jumpi\n        /* \"#utility.yul\":14016:14067   */\n      tag_251\n        /* \"#utility.yul\":14065:14066   */\n      0x00\n        /* \"#utility.yul\":14061:14062   */\n      dup3\n        /* \"#utility.yul\":14050:14059   */\n      dup5\n        /* \"#utility.yul\":14046:14063   */\n      add\n        /* \"#utility.yul\":14016:14067   */\n      tag_107\n      jump\t// in\n    tag_251:\n        /* \"#utility.yul\":13989:13990   */\n      0x01\n        /* \"#utility.yul\":13986:13987   */\n      dup2\n        /* \"#utility.yul\":13982:13991   */\n      add\n        /* \"#utility.yul\":13977:13991   */\n      swap1\n      pop\n        /* \"#utility.yul\":13939:14077   */\n      jump(tag_248)\n    tag_250:\n        /* \"#utility.yul\":13943:13957   */\n      pop\n        /* \"#utility.yul\":13869:14083   */\n      pop\n      pop\n      jump\t// out\n        /* \"#utility.yul\":14089:14835   */\n    tag_109:\n        /* \"#utility.yul\":14190:14192   */\n      0x1f\n        /* \"#utility.yul\":14185:14188   */\n      dup3\n        /* \"#utility.yul\":14182:14193   */\n      gt\n        /* \"#utility.yul\":14179:14828   */\n      iszero\n      tag_253\n      jumpi\n        /* \"#utility.yul\":14219:14229   */\n      dup3\n        /* \"#utility.yul\":14214:14217   */\n      dup3\n        /* \"#utility.yul\":14211:14230   */\n      gt\n        /* \"#utility.yul\":14208:14818   */\n      iszero\n      tag_254\n      jumpi\n        /* \"#utility.yul\":14265:14303   */\n      tag_255\n        /* \"#utility.yul\":14297:14302   */\n      dup2\n        /* \"#utility.yul\":14265:14303   */\n      tag_98\n      jump\t// in\n    tag_255:\n        /* \"#utility.yul\":14340:14362   */\n      tag_256\n        /* \"#utility.yul\":14358:14361   */\n      dup4\n        /* \"#utility.yul\":14340:14362   */\n      tag_99\n      jump\t// in\n    tag_256:\n        /* \"#utility.yul\":14399:14428   */\n      tag_257\n        /* \"#utility.yul\":14417:14427   */\n      dup6\n        /* \"#utility.yul\":14399:14428   */\n      tag_99\n      jump\t// in\n    tag_257:\n        /* \"#utility.yul\":14589:14591   */\n      0x20\n        /* \"#utility.yul\":14577:14587   */\n      dup7\n        /* \"#utility.yul\":14574:14592   */\n      lt\n        /* \"#utility.yul\":14571:14650   */\n      iszero\n      tag_258\n      jumpi\n        /* \"#utility.yul\":14631:14632   */\n      0x00\n        /* \"#utility.yul\":14615:14632   */\n      swap1\n      pop\n        /* \"#utility.yul\":14571:14650   */\n    tag_258:\n        /* \"#utility.yul\":14700:14712   */\n      dup1\n        /* \"#utility.yul\":14690:14698   */\n      dup4\n        /* \"#utility.yul\":14686:14713   */\n      add\n        /* \"#utility.yul\":14730:14804   */\n      tag_259\n        /* \"#utility.yul\":14790:14802   */\n      dup3\n        /* \"#utility.yul\":14776:14788   */\n      dup5\n        /* \"#utility.yul\":14772:14803   */\n      sub\n        /* \"#utility.yul\":14759:14770   */\n      dup3\n        /* \"#utility.yul\":14730:14804   */\n      tag_108\n      jump\t// in\n    tag_259:\n        /* \"#utility.yul\":14231:14818   */\n      pop\n      pop\n      pop\n      pop\n        /* \"#utility.yul\":14208:14818   */\n    tag_254:\n        /* \"#utility.yul\":14179:14828   */\n    tag_253:\n        /* \"#utility.yul\":14089:14835   */\n      pop\n      pop\n      pop\n      jump\t// out\n        /* \"#utility.yul\":14841:14958   */\n    tag_110:\n        /* \"#utility.yul\":14895:14903   */\n      0x00\n        /* \"#utility.yul\":14945:14950   */\n      dup3\n        /* \"#utility.yul\":14939:14943   */\n      dup3\n        /* \"#utility.yul\":14935:14951   */\n      shr\n        /* \"#utility.yul\":14914:14951   */\n      swap1\n      pop\n        /* \"#utility.yul\":14841:14958   */\n      swap3\n      swap2\n      pop\n      pop\n      jump\t// out\n        /* \"#utility.yul\":14964:15133   */\n    tag_111:\n        /* \"#utility.yul\":15008:15014   */\n      0x00\n        /* \"#utility.yul\":15041:15092   */\n      tag_262\n        /* \"#utility.yul\":15089:15090   */\n      0x00\n        /* \"#utility.yul\":15085:15091   */\n      not\n        /* \"#utility.yul\":15077:15082   */\n      dup5\n        /* \"#utility.yul\":15074:15075   */\n      0x08\n        /* \"#utility.yul\":15070:15083   */\n      mul\n        /* \"#utility.yul\":15041:15092   */\n      tag_110\n      jump\t// in\n    tag_262:\n        /* \"#utility.yul\":15037:15093   */\n      not\n        /* \"#utility.yul\":15122:15126   */\n      dup1\n        /* \"#utility.yul\":15116:15120   */\n      dup4\n        /* \"#utility.yul\":15112:15127   */\n      and\n        /* \"#utility.yul\":15102:15127   */\n      swap2\n      pop\n        /* \"#utility.yul\":15015:15133   */\n      pop\n        /* \"#utility.yul\":14964:15133   */\n      swap3\n      swap2\n      pop\n      pop\n      jump\t// out\n        /* \"#utility.yul\":15138:15433   */\n    tag_112:\n        /* \"#utility.yul\":15214:15218   */\n      0x00\n        /* \"#utility.yul\":15360:15389   */\n      tag_264\n        /* \"#utility.yul\":15385:15388   */\n      dup4\n        /* \"#utility.yul\":15379:15383   */\n      dup4\n        /* \"#utility.yul\":15360:15389   */\n      tag_111\n      jump\t// in\n    tag_264:\n        /* \"#utility.yul\":15352:15389   */\n      swap2\n      pop\n        /* \"#utility.yul\":15422:15425   */\n      dup3\n        /* \"#utility.yul\":15419:15420   */\n      0x02\n        /* \"#utility.yul\":15415:15426   */\n      mul\n        /* \"#utility.yul\":15409:15413   */\n      dup3\n        /* \"#utility.yul\":15406:15427   */\n      or\n        /* \"#utility.yul\":15398:15427   */\n      swap1\n      pop\n        /* \"#utility.yul\":15138:15433   */\n      swap3\n      swap2\n      pop\n      pop\n      jump\t// out\n        /* \"#utility.yul\":15438:16833   */\n    tag_59:\n        /* \"#utility.yul\":15555:15592   */\n      tag_266\n        /* \"#utility.yul\":15588:15591   */\n      dup3\n        /* \"#utility.yul\":15555:15592   */\n      tag_70\n      jump\t// in\n    tag_266:\n        /* \"#utility.yul\":15657:15675   */\n      0xffffffffffffffff\n        /* \"#utility.yul\":15649:15655   */\n      dup2\n        /* \"#utility.yul\":15646:15676   */\n      gt\n        /* \"#utility.yul\":15643:15699   */\n      iszero\n      tag_267\n      jumpi\n        /* \"#utility.yul\":15679:15697   */\n      tag_268\n      tag_79\n      jump\t// in\n    tag_268:\n        /* \"#utility.yul\":15643:15699   */\n    tag_267:\n        /* \"#utility.yul\":15723:15761   */\n      tag_269\n        /* \"#utility.yul\":15755:15759   */\n      dup3\n        /* \"#utility.yul\":15749:15760   */\n      sload\n        /* \"#utility.yul\":15723:15761   */\n      tag_45\n      jump\t// in\n    tag_269:\n        /* \"#utility.yul\":15808:15875   */\n      tag_270\n        /* \"#utility.yul\":15868:15874   */\n      dup3\n        /* \"#utility.yul\":15860:15866   */\n      dup3\n        /* \"#utility.yul\":15854:15858   */\n      dup6\n        /* \"#utility.yul\":15808:15875   */\n      tag_109\n      jump\t// in\n    tag_270:\n        /* \"#utility.yul\":15902:15903   */\n      0x00\n        /* \"#utility.yul\":15926:15930   */\n      0x20\n        /* \"#utility.yul\":15913:15930   */\n      swap1\n      pop\n        /* \"#utility.yul\":15958:15960   */\n      0x1f\n        /* \"#utility.yul\":15950:15956   */\n      dup4\n        /* \"#utility.yul\":15947:15961   */\n      gt\n        /* \"#utility.yul\":15975:15976   */\n      0x01\n        /* \"#utility.yul\":15970:16588   */\n      dup2\n      eq\n      tag_272\n      jumpi\n        /* \"#utility.yul\":16632:16633   */\n      0x00\n        /* \"#utility.yul\":16649:16655   */\n      dup5\n        /* \"#utility.yul\":16646:16723   */\n      iszero\n      tag_273\n      jumpi\n        /* \"#utility.yul\":16698:16707   */\n      dup3\n        /* \"#utility.yul\":16693:16696   */\n      dup8\n        /* \"#utility.yul\":16689:16708   */\n      add\n        /* \"#utility.yul\":16683:16709   */\n      mload\n        /* \"#utility.yul\":16674:16709   */\n      swap1\n      pop\n        /* \"#utility.yul\":16646:16723   */\n    tag_273:\n        /* \"#utility.yul\":16749:16816   */\n      tag_274\n        /* \"#utility.yul\":16809:16815   */\n      dup6\n        /* \"#utility.yul\":16802:16807   */\n      dup3\n        /* \"#utility.yul\":16749:16816   */\n      tag_112\n      jump\t// in\n    tag_274:\n        /* \"#utility.yul\":16743:16747   */\n      dup7\n        /* \"#utility.yul\":16736:16817   */\n      sstore\n        /* \"#utility.yul\":16605:16827   */\n      pop\n        /* \"#utility.yul\":15940:16827   */\n      jump(tag_271)\n        /* \"#utility.yul\":15970:16588   */\n    tag_272:\n        /* \"#utility.yul\":16022:16026   */\n      0x1f\n        /* \"#utility.yul\":16018:16027   */\n      not\n        /* \"#utility.yul\":16010:16016   */\n      dup5\n        /* \"#utility.yul\":16006:16028   */\n      and\n        /* \"#utility.yul\":16056:16093   */\n      tag_275\n        /* \"#utility.yul\":16088:16092   */\n      dup7\n        /* \"#utility.yul\":16056:16093   */\n      tag_98\n      jump\t// in\n    tag_275:\n        /* \"#utility.yul\":16115:16116   */\n      0x00\n        /* \"#utility.yul\":16129:16337   */\n    tag_276:\n        /* \"#utility.yul\":16143:16150   */\n      dup3\n        /* \"#utility.yul\":16140:16141   */\n      dup2\n        /* \"#utility.yul\":16137:16151   */\n      lt\n        /* \"#utility.yul\":16129:16337   */\n      iszero\n      tag_278\n      jumpi\n        /* \"#utility.yul\":16222:16231   */\n      dup5\n        /* \"#utility.yul\":16217:16220   */\n      dup10\n        /* \"#utility.yul\":16213:16232   */\n      add\n        /* \"#utility.yul\":16207:16233   */\n      mload\n        /* \"#utility.yul\":16199:16205   */\n      dup3\n        /* \"#utility.yul\":16192:16234   */\n      sstore\n        /* \"#utility.yul\":16273:16274   */\n      0x01\n        /* \"#utility.yul\":16265:16271   */\n      dup3\n        /* \"#utility.yul\":16261:16275   */\n      add\n        /* \"#utility.yul\":16251:16275   */\n      swap2\n      pop\n        /* \"#utility.yul\":16320:16322   */\n      0x20\n        /* \"#utility.yul\":16309:16318   */\n      dup6\n        /* \"#utility.yul\":16305:16323   */\n      add\n        /* \"#utility.yul\":16292:16323   */\n      swap5\n      pop\n        /* \"#utility.yul\":16166:16170   */\n      0x20\n        /* \"#utility.yul\":16163:16164   */\n      dup2\n        /* \"#utility.yul\":16159:16171   */\n      add\n        /* \"#utility.yul\":16154:16171   */\n      swap1\n      pop\n        /* \"#utility.yul\":16129:16337   */\n      jump(tag_276)\n    tag_278:\n        /* \"#utility.yul\":16365:16371   */\n      dup7\n        /* \"#utility.yul\":16356:16363   */\n      dup4\n        /* \"#utility.yul\":16353:16372   */\n      lt\n        /* \"#utility.yul\":16350:16529   */\n      iszero\n      tag_279\n      jumpi\n        /* \"#utility.yul\":16423:16432   */\n      dup5\n        /* \"#utility.yul\":16418:16421   */\n      dup10\n        /* \"#utility.yul\":16414:16433   */\n      add\n        /* \"#utility.yul\":16408:16434   */\n      mload\n        /* \"#utility.yul\":16466:16514   */\n      tag_280\n        /* \"#utility.yul\":16508:16512   */\n      0x1f\n        /* \"#utility.yul\":16500:16506   */\n      dup10\n        /* \"#utility.yul\":16496:16513   */\n      and\n        /* \"#utility.yul\":16485:16494   */\n      dup3\n        /* \"#utility.yul\":16466:16514   */\n      tag_111\n      jump\t// in\n    tag_280:\n        /* \"#utility.yul\":16458:16464   */\n      dup4\n        /* \"#utility.yul\":16451:16515   */\n      sstore\n        /* \"#utility.yul\":16373:16529   */\n      pop\n        /* \"#utility.yul\":16350:16529   */\n    tag_279:\n        /* \"#utility.yul\":16575:16576   */\n      0x01\n        /* \"#utility.yul\":16571:16572   */\n      0x02\n        /* \"#utility.yul\":16563:16569   */\n      dup9\n        /* \"#utility.yul\":16559:16573   */\n      mul\n        /* \"#utility.yul\":16555:16577   */\n      add\n        /* \"#utility.yul\":16549:16553   */\n      dup9\n        /* \"#utility.yul\":16542:16578   */\n      sstore\n        /* \"#utility.yul\":15977:16588   */\n      pop\n      pop\n      pop\n        /* \"#utility.yul\":15940:16827   */\n    tag_271:\n      pop\n        /* \"#utility.yul\":15530:16833   */\n      pop\n      pop\n      pop\n        /* \"#utility.yul\":15438:16833   */\n      pop\n      pop\n      jump\t// out\n\n    auxdata: 0xa2646970667358221220beefab975055062f800e2a2eedae35e2b52e69c08a55851673621bb0b4f0867f64736f6c63430008220033\n}\n",
				"bytecode": {
					"linkReferences": {},
					"object": "6080604052348015600e575f5ffd5b50335f5f6101000a81548173ffffffffffffffffffffffffffffffffffffffff021916908373ffffffffffffffffffffffffffffffffffffffff16021790555061012c42605a9190609a565b60028190555060c6565b5f819050919050565b7f4e487b71000000000000000000000000000000000000000000000000000000005f52601160045260245ffd5b5f60a2826064565b915060ab836064565b925082820190508082111560c05760bf606d565b5b92915050565b610e9b806100d35f395ff3fe608060405234801561000f575f5ffd5b5060043610610060575f3560e01c80630354d7bb14610064578063036ee850146100825780630d15fd77146100a05780635ba55a77146100be5780638ab66a90146100c8578063b0d30d2f146100fb575b5f5ffd5b61006c610117565b6040516100799190610602565b60405180910390f35b61008a61013b565b6040516100979190610633565b60405180910390f35b6100a8610141565b6040516100b59190610633565b60405180910390f35b6100c6610147565b005b6100e260048036038101906100dd9190610687565b6102a4565b6040516100f2949392919061073c565b60405180910390f35b610115600480360381019061011091906108b2565b61038e565b005b5f5f9054906101000a900473ffffffffffffffffffffffffffffffffffffffff1681565b60025481565b60015481565b5f60035f3373ffffffffffffffffffffffffffffffffffffffff1673ffffffffffffffffffffffffffffffffffffffff1681526020019081526020015f2090508060020160019054906101000a900460ff166101d8576040517f08c379a00000000000000000000000000000000000000000000000000000000081526004016101cf90610956565b60405180910390fd5b806002015f9054906101000a900460ff1615610229576040517f08c379a0000000000000000000000000000000000000000000000000000000008152600401610220906109be565b60405180910390fd5b60025442111561026e576040517f08c379a000000000000000000000000000000000000000000000000000000000815260040161026590610a26565b60405180910390fd5b6001816002015f6101000a81548160ff02191690831515021790555060015f81548092919061029c90610a71565b919050555050565b6003602052805f5260405f205f91509050805f015f9054906101000a900473ffffffffffffffffffffffffffffffffffffffff16908060010180546102e890610ae5565b80601f016020809104026020016040519081016040528092919081815260200182805461031490610ae5565b801561035f5780601f106103365761010080835404028352916020019161035f565b820191905f5260205f20905b81548152906001019060200180831161034257829003601f168201915b505050505090806002015f9054906101000a900460ff16908060020160019054906101000a900460ff16905084565b5f5f9054906101000a900473ffffffffffffffffffffffffffffffffffffffff1673ffffffffffffffffffffffffffffffffffffffff163373ffffffffffffffffffffffffffffffffffffffff161461041c576040517f08c379a000000000000000000000000000000000000000000000000000000000815260040161041390610b5f565b60405180910390fd5b60035f8373ffffffffffffffffffffffffffffffffffffffff1673ffffffffffffffffffffffffffffffffffffffff1681526020019081526020015f2060020160019054906101000a900460ff16156104aa576040517f08c379a00000000000000000000000000000000000000000000000000000000081526004016104a190610bc7565b60405180910390fd5b60405180608001604052808373ffffffffffffffffffffffffffffffffffffffff1681526020018281526020015f151581526020016001151581525060035f8473ffffffffffffffffffffffffffffffffffffffff1673ffffffffffffffffffffffffffffffffffffffff1681526020019081526020015f205f820151815f015f6101000a81548173ffffffffffffffffffffffffffffffffffffffff021916908373ffffffffffffffffffffffffffffffffffffffff160217905550602082015181600101908161057c9190610d96565b506040820151816002015f6101000a81548160ff02191690831515021790555060608201518160020160016101000a81548160ff0219169083151502179055509050505050565b5f73ffffffffffffffffffffffffffffffffffffffff82169050919050565b5f6105ec826105c3565b9050919050565b6105fc816105e2565b82525050565b5f6020820190506106155f8301846105f3565b92915050565b5f819050919050565b61062d8161061b565b82525050565b5f6020820190506106465f830184610624565b92915050565b5f604051905090565b5f5ffd5b5f5ffd5b610666816105e2565b8114610670575f5ffd5b50565b5f813590506106818161065d565b92915050565b5f6020828403121561069c5761069b610655565b5b5f6106a984828501610673565b91505092915050565b5f81519050919050565b5f82825260208201905092915050565b8281835e5f83830152505050565b5f601f19601f8301169050919050565b5f6106f4826106b2565b6106fe81856106bc565b935061070e8185602086016106cc565b610717816106da565b840191505092915050565b5f8115159050919050565b61073681610722565b82525050565b5f60808201905061074f5f8301876105f3565b818103602083015261076181866106ea565b9050610770604083018561072d565b61077d606083018461072d565b95945050505050565b5f5ffd5b5f5ffd5b7f4e487b71000000000000000000000000000000000000000000000000000000005f52604160045260245ffd5b6107c4826106da565b810181811067ffffffffffffffff821117156107e3576107e261078e565b5b80604052505050565b5f6107f561064c565b905061080182826107bb565b919050565b5f67ffffffffffffffff8211156108205761081f61078e565b5b610829826106da565b9050602081019050919050565b828183375f83830152505050565b5f61085661085184610806565b6107ec565b9050828152602081018484840111156108725761087161078a565b5b61087d848285610836565b509392505050565b5f82601f83011261089957610898610786565b5b81356108a9848260208601610844565b91505092915050565b5f5f604083850312156108c8576108c7610655565b5b5f6108d585828601610673565b925050602083013567ffffffffffffffff8111156108f6576108f5610659565b5b61090285828601610885565b9150509250929050565b7f4e6f7420726567697374657265640000000000000000000000000000000000005f82015250565b5f610940600e836106bc565b915061094b8261090c565b602082019050919050565b5f6020820190508181035f83015261096d81610934565b9050919050565b7f416c726561647920766f746564000000000000000000000000000000000000005f82015250565b5f6109a8600d836106bc565b91506109b382610974565b602082019050919050565b5f6020820190508181035f8301526109d58161099c565b9050919050565b7f566f74696e6720706572696f6420656e646564000000000000000000000000005f82015250565b5f610a106013836106bc565b9150610a1b826109dc565b602082019050919050565b5f6020820190508181035f830152610a3d81610a04565b9050919050565b7f4e487b71000000000000000000000000000000000000000000000000000000005f52601160045260245ffd5b5f610a7b8261061b565b91507fffffffffffffffffffffffffffffffffffffffffffffffffffffffffffffffff8203610aad57610aac610a44565b5b600182019050919050565b7f4e487b71000000000000000000000000000000000000000000000000000000005f52602260045260245ffd5b5f6002820490506001821680610afc57607f821691505b602082108103610b0f57610b0e610ab8565b5b50919050565b7f554e415554484f52495a454400000000000000000000000000000000000000005f82015250565b5f610b49600c836106bc565b9150610b5482610b15565b602082019050919050565b5f6020820190508181035f830152610b7681610b3d565b9050919050565b7f416c7265616479207265676973746572656400000000000000000000000000005f82015250565b5f610bb16012836106bc565b9150610bbc82610b7d565b602082019050919050565b5f6020820190508181035f830152610bde81610ba5565b9050919050565b5f819050815f5260205f209050919050565b5f6020601f8301049050919050565b5f82821b905092915050565b5f60088302610c417fffffffffffffffffffffffffffffffffffffffffffffffffffffffffffffffff82610c06565b610c4b8683610c06565b95508019841693508086168417925050509392505050565b5f819050919050565b5f610c86610c81610c7c8461061b565b610c63565b61061b565b9050919050565b5f819050919050565b610c9f83610c6c565b610cb3610cab82610c8d565b848454610c12565b825550505050565b5f5f905090565b610cca610cbb565b610cd5818484610c96565b505050565b5f5b82811015610cfb57610cf05f828401610cc2565b600181019050610cdc565b505050565b601f821115610d4e5782821115610d4d57610d1a81610be5565b610d2383610bf7565b610d2c85610bf7565b6020861015610d39575f90505b808301610d4882840382610cda565b505050505b5b505050565b5f82821c905092915050565b5f610d6e5f1984600802610d53565b1980831691505092915050565b5f610d868383610d5f565b9150826002028217905092915050565b610d9f826106b2565b67ffffffffffffffff811115610db857610db761078e565b5b610dc28254610ae5565b610dcd828285610d00565b5f60209050601f831160018114610dfe575f8415610dec578287015190505b610df68582610d7b565b865550610e5d565b601f198416610e0c86610be5565b5f5b82811015610e3357848901518255600182019150602085019450602081019050610e0e565b86831015610e505784890151610e4c601f891682610d5f565b8355505b6001600288020188555050505b50505050505056fea2646970667358221220beefab975055062f800e2a2eedae35e2b52e69c08a55851673621bb0b4f0867f64736f6c63430008220033",
					"opcodes": "PUSH1 0x80 PUSH1 0x40 MSTORE CALLVALUE DUP1 ISZERO PUSH1 0xE JUMPI PUSH0 PUSH0 REVERT JUMPDEST POP CALLER PUSH0 PUSH0 PUSH2 0x100 EXP DUP2 SLOAD DUP2 PUSH20 0xFFFFFFFFFFFFFFFFFFFFFFFFFFFFFFFFFFFFFFFF MUL NOT AND SWAP1 DUP4 PUSH20 0xFFFFFFFFFFFFFFFFFFFFFFFFFFFFFFFFFFFFFFFF AND MUL OR SWAP1 SSTORE POP PUSH2 0x12C TIMESTAMP PUSH1 0x5A SWAP2 SWAP1 PUSH1 0x9A JUMP JUMPDEST PUSH1 0x2 DUP2 SWAP1 SSTORE POP PUSH1 0xC6 JUMP JUMPDEST PUSH0 DUP2 SWAP1 POP SWAP2 SWAP1 POP JUMP JUMPDEST PUSH32 0x4E487B7100000000000000000000000000000000000000000000000000000000 PUSH0 MSTORE PUSH1 0x11 PUSH1 0x4 MSTORE PUSH1 0x24 PUSH0 REVERT JUMPDEST PUSH0 PUSH1 0xA2 DUP3 PUSH1 0x64 JUMP JUMPDEST SWAP2 POP PUSH1 0xAB DUP4 PUSH1 0x64 JUMP JUMPDEST SWAP3 POP DUP3 DUP3 ADD SWAP1 POP DUP1 DUP3 GT ISZERO PUSH1 0xC0 JUMPI PUSH1 0xBF PUSH1 0x6D JUMP JUMPDEST JUMPDEST SWAP3 SWAP2 POP POP JUMP JUMPDEST PUSH2 0xE9B DUP1 PUSH2 0xD3 PUSH0 CODECOPY PUSH0 RETURN INVALID PUSH1 0x80 PUSH1 0x40 MSTORE CALLVALUE DUP1 ISZERO PUSH2 0xF JUMPI PUSH0 PUSH0 REVERT JUMPDEST POP PUSH1 0x4 CALLDATASIZE LT PUSH2 0x60 JUMPI PUSH0 CALLDATALOAD PUSH1 0xE0 SHR DUP1 PUSH4 0x354D7BB EQ PUSH2 0x64 JUMPI DUP1 PUSH4 0x36EE850 EQ PUSH2 0x82 JUMPI DUP1 PUSH4 0xD15FD77 EQ PUSH2 0xA0 JUMPI DUP1 PUSH4 0x5BA55A77 EQ PUSH2 0xBE JUMPI DUP1 PUSH4 0x8AB66A90 EQ PUSH2 0xC8 JUMPI DUP1 PUSH4 0xB0D30D2F EQ PUSH2 0xFB JUMPI JUMPDEST PUSH0 PUSH0 REVERT JUMPDEST PUSH2 0x6C PUSH2 0x117 JUMP JUMPDEST PUSH1 0x40 MLOAD PUSH2 0x79 SWAP2 SWAP1 PUSH2 0x602 JUMP JUMPDEST PUSH1 0x40 MLOAD DUP1 SWAP2 SUB SWAP1 RETURN JUMPDEST PUSH2 0x8A PUSH2 0x13B JUMP JUMPDEST PUSH1 0x40 MLOAD PUSH2 0x97 SWAP2 SWAP1 PUSH2 0x633 JUMP JUMPDEST PUSH1 0x40 MLOAD DUP1 SWAP2 SUB SWAP1 RETURN JUMPDEST PUSH2 0xA8 PUSH2 0x141 JUMP JUMPDEST PUSH1 0x40 MLOAD PUSH2 0xB5 SWAP2 SWAP1 PUSH2 0x633 JUMP JUMPDEST PUSH1 0x40 MLOAD DUP1 SWAP2 SUB SWAP1 RETURN JUMPDEST PUSH2 0xC6 PUSH2 0x147 JUMP JUMPDEST STOP JUMPDEST PUSH2 0xE2 PUSH1 0x4 DUP1 CALLDATASIZE SUB DUP2 ADD SWAP1 PUSH2 0xDD SWAP2 SWAP1 PUSH2 0x687 JUMP JUMPDEST PUSH2 0x2A4 JUMP JUMPDEST PUSH1 0x40 MLOAD PUSH2 0xF2 SWAP5 SWAP4 SWAP3 SWAP2 SWAP1 PUSH2 0x73C JUMP JUMPDEST PUSH1 0x40 MLOAD DUP1 SWAP2 SUB SWAP1 RETURN JUMPDEST PUSH2 0x115 PUSH1 0x4 DUP1 CALLDATASIZE SUB DUP2 ADD SWAP1 PUSH2 0x110 SWAP2 SWAP1 PUSH2 0x8B2 JUMP JUMPDEST PUSH2 0x38E JUMP JUMPDEST STOP JUMPDEST PUSH0 PUSH0 SWAP1 SLOAD SWAP1 PUSH2 0x100 EXP SWAP1 DIV PUSH20 0xFFFFFFFFFFFFFFFFFFFFFFFFFFFFFFFFFFFFFFFF AND DUP2 JUMP JUMPDEST PUSH1 0x2 SLOAD DUP2 JUMP JUMPDEST PUSH1 0x1 SLOAD DUP2 JUMP JUMPDEST PUSH0 PUSH1 0x3 PUSH0 CALLER PUSH20 0xFFFFFFFFFFFFFFFFFFFFFFFFFFFFFFFFFFFFFFFF AND PUSH20 0xFFFFFFFFFFFFFFFFFFFFFFFFFFFFFFFFFFFFFFFF AND DUP2 MSTORE PUSH1 0x20 ADD SWAP1 DUP2 MSTORE PUSH1 0x20 ADD PUSH0 KECCAK256 SWAP1 POP DUP1 PUSH1 0x2 ADD PUSH1 0x1 SWAP1 SLOAD SWAP1 PUSH2 0x100 EXP SWAP1 DIV PUSH1 0xFF AND PUSH2 0x1D8 JUMPI PUSH1 0x40 MLOAD PUSH32 0x8C379A000000000000000000000000000000000000000000000000000000000 DUP2 MSTORE PUSH1 0x4 ADD PUSH2 0x1CF SWAP1 PUSH2 0x956 JUMP JUMPDEST PUSH1 0x40 MLOAD DUP1 SWAP2 SUB SWAP1 REVERT JUMPDEST DUP1 PUSH1 0x2 ADD PUSH0 SWAP1 SLOAD SWAP1 PUSH2 0x100 EXP SWAP1 DIV PUSH1 0xFF AND ISZERO PUSH2 0x229 JUMPI PUSH1 0x40 MLOAD PUSH32 0x8C379A000000000000000000000000000000000000000000000000000000000 DUP2 MSTORE PUSH1 0x4 ADD PUSH2 0x220 SWAP1 PUSH2 0x9BE JUMP JUMPDEST PUSH1 0x40 MLOAD DUP1 SWAP2 SUB SWAP1 REVERT JUMPDEST PUSH1 0x2 SLOAD TIMESTAMP GT ISZERO PUSH2 0x26E JUMPI PUSH1 0x40 MLOAD PUSH32 0x8C379A000000000000000000000000000000000000000000000000000000000 DUP2 MSTORE PUSH1 0x4 ADD PUSH2 0x265 SWAP1 PUSH2 0xA26 JUMP JUMPDEST PUSH1 0x40 MLOAD DUP1 SWAP2 SUB SWAP1 REVERT JUMPDEST PUSH1 0x1 DUP2 PUSH1 0x2 ADD PUSH0 PUSH2 0x100 EXP DUP2 SLOAD DUP2 PUSH1 0xFF MUL NOT AND SWAP1 DUP4 ISZERO ISZERO MUL OR SWAP1 SSTORE POP PUSH1 0x1 PUSH0 DUP2 SLOAD DUP1 SWAP3 SWAP2 SWAP1 PUSH2 0x29C SWAP1 PUSH2 0xA71 JUMP JUMPDEST SWAP2 SWAP1 POP SSTORE POP POP JUMP JUMPDEST PUSH1 0x3 PUSH1 0x20 MSTORE DUP1 PUSH0 MSTORE PUSH1 0x40 PUSH0 KECCAK256 PUSH0 SWAP2 POP SWAP1 POP DUP1 PUSH0 ADD PUSH0 SWAP1 SLOAD SWAP1 PUSH2 0x100 EXP SWAP1 DIV PUSH20 0xFFFFFFFFFFFFFFFFFFFFFFFFFFFFFFFFFFFFFFFF AND SWAP1 DUP1 PUSH1 0x1 ADD DUP1 SLOAD PUSH2 0x2E8 SWAP1 PUSH2 0xAE5 JUMP JUMPDEST DUP1 PUSH1 0x1F ADD PUSH1 0x20 DUP1 SWAP2 DIV MUL PUSH1 0x20 ADD PUSH1 0x40 MLOAD SWAP1 DUP2 ADD PUSH1 0x40 MSTORE DUP1 SWAP3 SWAP2 SWAP1 DUP2 DUP2 MSTORE PUSH1 0x20 ADD DUP3 DUP1 SLOAD PUSH2 0x314 SWAP1 PUSH2 0xAE5 JUMP JUMPDEST DUP1 ISZERO PUSH2 0x35F JUMPI DUP1 PUSH1 0x1F LT PUSH2 0x336 JUMPI PUSH2 0x100 DUP1 DUP4 SLOAD DIV MUL DUP4 MSTORE SWAP2 PUSH1 0x20 ADD SWAP2 PUSH2 0x35F JUMP JUMPDEST DUP3 ADD SWAP2 SWAP1 PUSH0 MSTORE PUSH1 0x20 PUSH0 KECCAK256 SWAP1 JUMPDEST DUP2 SLOAD DUP2 MSTORE SWAP1 PUSH1 0x1 ADD SWAP1 PUSH1 0x20 ADD DUP1 DUP4 GT PUSH2 0x342 JUMPI DUP3 SWAP1 SUB PUSH1 0x1F AND DUP3 ADD SWAP2 JUMPDEST POP POP POP POP POP SWAP1 DUP1 PUSH1 0x2 ADD PUSH0 SWAP1 SLOAD SWAP1 PUSH2 0x100 EXP SWAP1 DIV PUSH1 0xFF AND SWAP1 DUP1 PUSH1 0x2 ADD PUSH1 0x1 SWAP1 SLOAD SWAP1 PUSH2 0x100 EXP SWAP1 DIV PUSH1 0xFF AND SWAP1 POP DUP5 JUMP JUMPDEST PUSH0 PUSH0 SWAP1 SLOAD SWAP1 PUSH2 0x100 EXP SWAP1 DIV PUSH20 0xFFFFFFFFFFFFFFFFFFFFFFFFFFFFFFFFFFFFFFFF AND PUSH20 0xFFFFFFFFFFFFFFFFFFFFFFFFFFFFFFFFFFFFFFFF AND CALLER PUSH20 0xFFFFFFFFFFFFFFFFFFFFFFFFFFFFFFFFFFFFFFFF AND EQ PUSH2 0x41C JUMPI PUSH1 0x40 MLOAD PUSH32 0x8C379A000000000000000000000000000000000000000000000000000000000 DUP2 MSTORE PUSH1 0x4 ADD PUSH2 0x413 SWAP1 PUSH2 0xB5F JUMP JUMPDEST PUSH1 0x40 MLOAD DUP1 SWAP2 SUB SWAP1 REVERT JUMPDEST PUSH1 0x3 PUSH0 DUP4 PUSH20 0xFFFFFFFFFFFFFFFFFFFFFFFFFFFFFFFFFFFFFFFF AND PUSH20 0xFFFFFFFFFFFFFFFFFFFFFFFFFFFFFFFFFFFFFFFF AND DUP2 MSTORE PUSH1 0x20 ADD SWAP1 DUP2 MSTORE PUSH1 0x20 ADD PUSH0 KECCAK256 PUSH1 0x2 ADD PUSH1 0x1 SWAP1 SLOAD SWAP1 PUSH2 0x100 EXP SWAP1 DIV PUSH1 0xFF AND ISZERO PUSH2 0x4AA JUMPI PUSH1 0x40 MLOAD PUSH32 0x8C379A000000000000000000000000000000000000000000000000000000000 DUP2 MSTORE PUSH1 0x4 ADD PUSH2 0x4A1 SWAP1 PUSH2 0xBC7 JUMP JUMPDEST PUSH1 0x40 MLOAD DUP1 SWAP2 SUB SWAP1 REVERT JUMPDEST PUSH1 0x40 MLOAD DUP1 PUSH1 0x80 ADD PUSH1 0x40 MSTORE DUP1 DUP4 PUSH20 0xFFFFFFFFFFFFFFFFFFFFFFFFFFFFFFFFFFFFFFFF AND DUP2 MSTORE PUSH1 0x20 ADD DUP3 DUP2 MSTORE PUSH1 0x20 ADD PUSH0 ISZERO ISZERO DUP2 MSTORE PUSH1 0x20 ADD PUSH1 0x1 ISZERO ISZERO DUP2 MSTORE POP PUSH1 0x3 PUSH0 DUP5 PUSH20 0xFFFFFFFFFFFFFFFFFFFFFFFFFFFFFFFFFFFFFFFF AND PUSH20 0xFFFFFFFFFFFFFFFFFFFFFFFFFFFFFFFFFFFFFFFF AND DUP2 MSTORE PUSH1 0x20 ADD SWAP1 DUP2 MSTORE PUSH1 0x20 ADD PUSH0 KECCAK256 PUSH0 DUP3 ADD MLOAD DUP2 PUSH0 ADD PUSH0 PUSH2 0x100 EXP DUP2 SLOAD DUP2 PUSH20 0xFFFFFFFFFFFFFFFFFFFFFFFFFFFFFFFFFFFFFFFF MUL NOT AND SWAP1 DUP4 PUSH20 0xFFFFFFFFFFFFFFFFFFFFFFFFFFFFFFFFFFFFFFFF AND MUL OR SWAP1 SSTORE POP PUSH1 0x20 DUP3 ADD MLOAD DUP2 PUSH1 0x1 ADD SWAP1 DUP2 PUSH2 0x57C SWAP2 SWAP1 PUSH2 0xD96 JUMP JUMPDEST POP PUSH1 0x40 DUP3 ADD MLOAD DUP2 PUSH1 0x2 ADD PUSH0 PUSH2 0x100 EXP DUP2 SLOAD DUP2 PUSH1 0xFF MUL NOT AND SWAP1 DUP4 ISZERO ISZERO MUL OR SWAP1 SSTORE POP PUSH1 0x60 DUP3 ADD MLOAD DUP2 PUSH1 0x2 ADD PUSH1 0x1 PUSH2 0x100 EXP DUP2 SLOAD DUP2 PUSH1 0xFF MUL NOT AND SWAP1 DUP4 ISZERO ISZERO MUL OR SWAP1 SSTORE POP SWAP1 POP POP POP POP JUMP JUMPDEST PUSH0 PUSH20 0xFFFFFFFFFFFFFFFFFFFFFFFFFFFFFFFFFFFFFFFF DUP3 AND SWAP1 POP SWAP2 SWAP1 POP JUMP JUMPDEST PUSH0 PUSH2 0x5EC DUP3 PUSH2 0x5C3 JUMP JUMPDEST SWAP1 POP SWAP2 SWAP1 POP JUMP JUMPDEST PUSH2 0x5FC DUP2 PUSH2 0x5E2 JUMP JUMPDEST DUP3 MSTORE POP POP JUMP JUMPDEST PUSH0 PUSH1 0x20 DUP3 ADD SWAP1 POP PUSH2 0x615 PUSH0 DUP4 ADD DUP5 PUSH2 0x5F3 JUMP JUMPDEST SWAP3 SWAP2 POP POP JUMP JUMPDEST PUSH0 DUP2 SWAP1 POP SWAP2 SWAP1 POP JUMP JUMPDEST PUSH2 0x62D DUP2 PUSH2 0x61B JUMP JUMPDEST DUP3 MSTORE POP POP JUMP JUMPDEST PUSH0 PUSH1 0x20 DUP3 ADD SWAP1 POP PUSH2 0x646 PUSH0 DUP4 ADD DUP5 PUSH2 0x624 JUMP JUMPDEST SWAP3 SWAP2 POP POP JUMP JUMPDEST PUSH0 PUSH1 0x40 MLOAD SWAP1 POP SWAP1 JUMP JUMPDEST PUSH0 PUSH0 REVERT JUMPDEST PUSH0 PUSH0 REVERT JUMPDEST PUSH2 0x666 DUP2 PUSH2 0x5E2 JUMP JUMPDEST DUP2 EQ PUSH2 0x670 JUMPI PUSH0 PUSH0 REVERT JUMPDEST POP JUMP JUMPDEST PUSH0 DUP2 CALLDATALOAD SWAP1 POP PUSH2 0x681 DUP2 PUSH2 0x65D JUMP JUMPDEST SWAP3 SWAP2 POP POP JUMP JUMPDEST PUSH0 PUSH1 0x20 DUP3 DUP5 SUB SLT ISZERO PUSH2 0x69C JUMPI PUSH2 0x69B PUSH2 0x655 JUMP JUMPDEST JUMPDEST PUSH0 PUSH2 0x6A9 DUP5 DUP3 DUP6 ADD PUSH2 0x673 JUMP JUMPDEST SWAP2 POP POP SWAP3 SWAP2 POP POP JUMP JUMPDEST PUSH0 DUP2 MLOAD SWAP1 POP SWAP2 SWAP1 POP JUMP JUMPDEST PUSH0 DUP3 DUP3 MSTORE PUSH1 0x20 DUP3 ADD SWAP1 POP SWAP3 SWAP2 POP POP JUMP JUMPDEST DUP3 DUP2 DUP4 MCOPY PUSH0 DUP4 DUP4 ADD MSTORE POP POP POP JUMP JUMPDEST PUSH0 PUSH1 0x1F NOT PUSH1 0x1F DUP4 ADD AND SWAP1 POP SWAP2 SWAP1 POP JUMP JUMPDEST PUSH0 PUSH2 0x6F4 DUP3 PUSH2 0x6B2 JUMP JUMPDEST PUSH2 0x6FE DUP2 DUP6 PUSH2 0x6BC JUMP JUMPDEST SWAP4 POP PUSH2 0x70E DUP2 DUP6 PUSH1 0x20 DUP7 ADD PUSH2 0x6CC JUMP JUMPDEST PUSH2 0x717 DUP2 PUSH2 0x6DA JUMP JUMPDEST DUP5 ADD SWAP2 POP POP SWAP3 SWAP2 POP POP JUMP JUMPDEST PUSH0 DUP2 ISZERO ISZERO SWAP1 POP SWAP2 SWAP1 POP JUMP JUMPDEST PUSH2 0x736 DUP2 PUSH2 0x722 JUMP JUMPDEST DUP3 MSTORE POP POP JUMP JUMPDEST PUSH0 PUSH1 0x80 DUP3 ADD SWAP1 POP PUSH2 0x74F PUSH0 DUP4 ADD DUP8 PUSH2 0x5F3 JUMP JUMPDEST DUP2 DUP2 SUB PUSH1 0x20 DUP4 ADD MSTORE PUSH2 0x761 DUP2 DUP7 PUSH2 0x6EA JUMP JUMPDEST SWAP1 POP PUSH2 0x770 PUSH1 0x40 DUP4 ADD DUP6 PUSH2 0x72D JUMP JUMPDEST PUSH2 0x77D PUSH1 0x60 DUP4 ADD DUP5 PUSH2 0x72D JUMP JUMPDEST SWAP6 SWAP5 POP POP POP POP POP JUMP JUMPDEST PUSH0 PUSH0 REVERT JUMPDEST PUSH0 PUSH0 REVERT JUMPDEST PUSH32 0x4E487B7100000000000000000000000000000000000000000000000000000000 PUSH0 MSTORE PUSH1 0x41 PUSH1 0x4 MSTORE PUSH1 0x24 PUSH0 REVERT JUMPDEST PUSH2 0x7C4 DUP3 PUSH2 0x6DA JUMP JUMPDEST DUP2 ADD DUP2 DUP2 LT PUSH8 0xFFFFFFFFFFFFFFFF DUP3 GT OR ISZERO PUSH2 0x7E3 JUMPI PUSH2 0x7E2 PUSH2 0x78E JUMP JUMPDEST JUMPDEST DUP1 PUSH1 0x40 MSTORE POP POP POP JUMP JUMPDEST PUSH0 PUSH2 0x7F5 PUSH2 0x64C JUMP JUMPDEST SWAP1 POP PUSH2 0x801 DUP3 DUP3 PUSH2 0x7BB JUMP JUMPDEST SWAP2 SWAP1 POP JUMP JUMPDEST PUSH0 PUSH8 0xFFFFFFFFFFFFFFFF DUP3 GT ISZERO PUSH2 0x820 JUMPI PUSH2 0x81F PUSH2 0x78E JUMP JUMPDEST JUMPDEST PUSH2 0x829 DUP3 PUSH2 0x6DA JUMP JUMPDEST SWAP1 POP PUSH1 0x20 DUP2 ADD SWAP1 POP SWAP2 SWAP1 POP JUMP JUMPDEST DUP3 DUP2 DUP4 CALLDATACOPY PUSH0 DUP4 DUP4 ADD MSTORE POP POP POP JUMP JUMPDEST PUSH0 PUSH2 0x856 PUSH2 0x851 DUP5 PUSH2 0x806 JUMP JUMPDEST PUSH2 0x7EC JUMP JUMPDEST SWAP1 POP DUP3 DUP2 MSTORE PUSH1 0x20 DUP2 ADD DUP5 DUP5 DUP5 ADD GT ISZERO PUSH2 0x872 JUMPI PUSH2 0x871 PUSH2 0x78A JUMP JUMPDEST JUMPDEST PUSH2 0x87D DUP5 DUP3 DUP6 PUSH2 0x836 JUMP JUMPDEST POP SWAP4 SWAP3 POP POP POP JUMP JUMPDEST PUSH0 DUP3 PUSH1 0x1F DUP4 ADD SLT PUSH2 0x899 JUMPI PUSH2 0x898 PUSH2 0x786 JUMP JUMPDEST JUMPDEST DUP2 CALLDATALOAD PUSH2 0x8A9 DUP5 DUP3 PUSH1 0x20 DUP7 ADD PUSH2 0x844 JUMP JUMPDEST SWAP2 POP POP SWAP3 SWAP2 POP POP JUMP JUMPDEST PUSH0 PUSH0 PUSH1 0x40 DUP4 DUP6 SUB SLT ISZERO PUSH2 0x8C8 JUMPI PUSH2 0x8C7 PUSH2 0x655 JUMP JUMPDEST JUMPDEST PUSH0 PUSH2 0x8D5 DUP6 DUP3 DUP7 ADD PUSH2 0x673 JUMP JUMPDEST SWAP3 POP POP PUSH1 0x20 DUP4 ADD CALLDATALOAD PUSH8 0xFFFFFFFFFFFFFFFF DUP2 GT ISZERO PUSH2 0x8F6 JUMPI PUSH2 0x8F5 PUSH2 0x659 JUMP JUMPDEST JUMPDEST PUSH2 0x902 DUP6 DUP3 DUP7 ADD PUSH2 0x885 JUMP JUMPDEST SWAP2 POP POP SWAP3 POP SWAP3 SWAP1 POP JUMP JUMPDEST PUSH32 0x4E6F742072656769737465726564000000000000000000000000000000000000 PUSH0 DUP3 ADD MSTORE POP JUMP JUMPDEST PUSH0 PUSH2 0x940 PUSH1 0xE DUP4 PUSH2 0x6BC JUMP JUMPDEST SWAP2 POP PUSH2 0x94B DUP3 PUSH2 0x90C JUMP JUMPDEST PUSH1 0x20 DUP3 ADD SWAP1 POP SWAP2 SWAP1 POP JUMP JUMPDEST PUSH0 PUSH1 0x20 DUP3 ADD SWAP1 POP DUP2 DUP2 SUB PUSH0 DUP4 ADD MSTORE PUSH2 0x96D DUP2 PUSH2 0x934 JUMP JUMPDEST SWAP1 POP SWAP2 SWAP1 POP JUMP JUMPDEST PUSH32 0x416C726561647920766F74656400000000000000000000000000000000000000 PUSH0 DUP3 ADD MSTORE POP JUMP JUMPDEST PUSH0 PUSH2 0x9A8 PUSH1 0xD DUP4 PUSH2 0x6BC JUMP JUMPDEST SWAP2 POP PUSH2 0x9B3 DUP3 PUSH2 0x974 JUMP JUMPDEST PUSH1 0x20 DUP3 ADD SWAP1 POP SWAP2 SWAP1 POP JUMP JUMPDEST PUSH0 PUSH1 0x20 DUP3 ADD SWAP1 POP DUP2 DUP2 SUB PUSH0 DUP4 ADD MSTORE PUSH2 0x9D5 DUP2 PUSH2 0x99C JUMP JUMPDEST SWAP1 POP SWAP2 SWAP1 POP JUMP JUMPDEST PUSH32 0x566F74696E6720706572696F6420656E64656400000000000000000000000000 PUSH0 DUP3 ADD MSTORE POP JUMP JUMPDEST PUSH0 PUSH2 0xA10 PUSH1 0x13 DUP4 PUSH2 0x6BC JUMP JUMPDEST SWAP2 POP PUSH2 0xA1B DUP3 PUSH2 0x9DC JUMP JUMPDEST PUSH1 0x20 DUP3 ADD SWAP1 POP SWAP2 SWAP1 POP JUMP JUMPDEST PUSH0 PUSH1 0x20 DUP3 ADD SWAP1 POP DUP2 DUP2 SUB PUSH0 DUP4 ADD MSTORE PUSH2 0xA3D DUP2 PUSH2 0xA04 JUMP JUMPDEST SWAP1 POP SWAP2 SWAP1 POP JUMP JUMPDEST PUSH32 0x4E487B7100000000000000000000000000000000000000000000000000000000 PUSH0 MSTORE PUSH1 0x11 PUSH1 0x4 MSTORE PUSH1 0x24 PUSH0 REVERT JUMPDEST PUSH0 PUSH2 0xA7B DUP3 PUSH2 0x61B JUMP JUMPDEST SWAP2 POP PUSH32 0xFFFFFFFFFFFFFFFFFFFFFFFFFFFFFFFFFFFFFFFFFFFFFFFFFFFFFFFFFFFFFFFF DUP3 SUB PUSH2 0xAAD JUMPI PUSH2 0xAAC PUSH2 0xA44 JUMP JUMPDEST JUMPDEST PUSH1 0x1 DUP3 ADD SWAP1 POP SWAP2 SWAP1 POP JUMP JUMPDEST PUSH32 0x4E487B7100000000000000000000000000000000000000000000000000000000 PUSH0 MSTORE PUSH1 0x22 PUSH1 0x4 MSTORE PUSH1 0x24 PUSH0 REVERT JUMPDEST PUSH0 PUSH1 0x2 DUP3 DIV SWAP1 POP PUSH1 0x1 DUP3 AND DUP1 PUSH2 0xAFC JUMPI PUSH1 0x7F DUP3 AND SWAP2 POP JUMPDEST PUSH1 0x20 DUP3 LT DUP2 SUB PUSH2 0xB0F JUMPI PUSH2 0xB0E PUSH2 0xAB8 JUMP JUMPDEST JUMPDEST POP SWAP2 SWAP1 POP JUMP JUMPDEST PUSH32 0x554E415554484F52495A45440000000000000000000000000000000000000000 PUSH0 DUP3 ADD MSTORE POP JUMP JUMPDEST PUSH0 PUSH2 0xB49 PUSH1 0xC DUP4 PUSH2 0x6BC JUMP JUMPDEST SWAP2 POP PUSH2 0xB54 DUP3 PUSH2 0xB15 JUMP JUMPDEST PUSH1 0x20 DUP3 ADD SWAP1 POP SWAP2 SWAP1 POP JUMP JUMPDEST PUSH0 PUSH1 0x20 DUP3 ADD SWAP1 POP DUP2 DUP2 SUB PUSH0 DUP4 ADD MSTORE PUSH2 0xB76 DUP2 PUSH2 0xB3D JUMP JUMPDEST SWAP1 POP SWAP2 SWAP1 POP JUMP JUMPDEST PUSH32 0x416C726561647920726567697374657265640000000000000000000000000000 PUSH0 DUP3 ADD MSTORE POP JUMP JUMPDEST PUSH0 PUSH2 0xBB1 PUSH1 0x12 DUP4 PUSH2 0x6BC JUMP JUMPDEST SWAP2 POP PUSH2 0xBBC DUP3 PUSH2 0xB7D JUMP JUMPDEST PUSH1 0x20 DUP3 ADD SWAP1 POP SWAP2 SWAP1 POP JUMP JUMPDEST PUSH0 PUSH1 0x20 DUP3 ADD SWAP1 POP DUP2 DUP2 SUB PUSH0 DUP4 ADD MSTORE PUSH2 0xBDE DUP2 PUSH2 0xBA5 JUMP JUMPDEST SWAP1 POP SWAP2 SWAP1 POP JUMP JUMPDEST PUSH0 DUP2 SWAP1 POP DUP2 PUSH0 MSTORE PUSH1 0x20 PUSH0 KECCAK256 SWAP1 POP SWAP2 SWAP1 POP JUMP JUMPDEST PUSH0 PUSH1 0x20 PUSH1 0x1F DUP4 ADD DIV SWAP1 POP SWAP2 SWAP1 POP JUMP JUMPDEST PUSH0 DUP3 DUP3 SHL SWAP1 POP SWAP3 SWAP2 POP POP JUMP JUMPDEST PUSH0 PUSH1 0x8 DUP4 MUL PUSH2 0xC41 PUSH32 0xFFFFFFFFFFFFFFFFFFFFFFFFFFFFFFFFFFFFFFFFFFFFFFFFFFFFFFFFFFFFFFFF DUP3 PUSH2 0xC06 JUMP JUMPDEST PUSH2 0xC4B DUP7 DUP4 PUSH2 0xC06 JUMP JUMPDEST SWAP6 POP DUP1 NOT DUP5 AND SWAP4 POP DUP1 DUP7 AND DUP5 OR SWAP3 POP POP POP SWAP4 SWAP3 POP POP POP JUMP JUMPDEST PUSH0 DUP2 SWAP1 POP SWAP2 SWAP1 POP JUMP JUMPDEST PUSH0 PUSH2 0xC86 PUSH2 0xC81 PUSH2 0xC7C DUP5 PUSH2 0x61B JUMP JUMPDEST PUSH2 0xC63 JUMP JUMPDEST PUSH2 0x61B JUMP JUMPDEST SWAP1 POP SWAP2 SWAP1 POP JUMP JUMPDEST PUSH0 DUP2 SWAP1 POP SWAP2 SWAP1 POP JUMP JUMPDEST PUSH2 0xC9F DUP4 PUSH2 0xC6C JUMP JUMPDEST PUSH2 0xCB3 PUSH2 0xCAB DUP3 PUSH2 0xC8D JUMP JUMPDEST DUP5 DUP5 SLOAD PUSH2 0xC12 JUMP JUMPDEST DUP3 SSTORE POP POP POP POP JUMP JUMPDEST PUSH0 PUSH0 SWAP1 POP SWAP1 JUMP JUMPDEST PUSH2 0xCCA PUSH2 0xCBB JUMP JUMPDEST PUSH2 0xCD5 DUP2 DUP5 DUP5 PUSH2 0xC96 JUMP JUMPDEST POP POP POP JUMP JUMPDEST PUSH0 JUMPDEST DUP3 DUP2 LT ISZERO PUSH2 0xCFB JUMPI PUSH2 0xCF0 PUSH0 DUP3 DUP5 ADD PUSH2 0xCC2 JUMP JUMPDEST PUSH1 0x1 DUP2 ADD SWAP1 POP PUSH2 0xCDC JUMP JUMPDEST POP POP POP JUMP JUMPDEST PUSH1 0x1F DUP3 GT ISZERO PUSH2 0xD4E JUMPI DUP3 DUP3 GT ISZERO PUSH2 0xD4D JUMPI PUSH2 0xD1A DUP2 PUSH2 0xBE5 JUMP JUMPDEST PUSH2 0xD23 DUP4 PUSH2 0xBF7 JUMP JUMPDEST PUSH2 0xD2C DUP6 PUSH2 0xBF7 JUMP JUMPDEST PUSH1 0x20 DUP7 LT ISZERO PUSH2 0xD39 JUMPI PUSH0 SWAP1 POP JUMPDEST DUP1 DUP4 ADD PUSH2 0xD48 DUP3 DUP5 SUB DUP3 PUSH2 0xCDA JUMP JUMPDEST POP POP POP POP JUMPDEST JUMPDEST POP POP POP JUMP JUMPDEST PUSH0 DUP3 DUP3 SHR SWAP1 POP SWAP3 SWAP2 POP POP JUMP JUMPDEST PUSH0 PUSH2 0xD6E PUSH0 NOT DUP5 PUSH1 0x8 MUL PUSH2 0xD53 JUMP JUMPDEST NOT DUP1 DUP4 AND SWAP2 POP POP SWAP3 SWAP2 POP POP JUMP JUMPDEST PUSH0 PUSH2 0xD86 DUP4 DUP4 PUSH2 0xD5F JUMP JUMPDEST SWAP2 POP DUP3 PUSH1 0x2 MUL DUP3 OR SWAP1 POP SWAP3 SWAP2 POP POP JUMP JUMPDEST PUSH2 0xD9F DUP3 PUSH2 0x6B2 JUMP JUMPDEST PUSH8 0xFFFFFFFFFFFFFFFF DUP2 GT ISZERO PUSH2 0xDB8 JUMPI PUSH2 0xDB7 PUSH2 0x78E JUMP JUMPDEST JUMPDEST PUSH2 0xDC2 DUP3 SLOAD PUSH2 0xAE5 JUMP JUMPDEST PUSH2 0xDCD DUP3 DUP3 DUP6 PUSH2 0xD00 JUMP JUMPDEST PUSH0 PUSH1 0x20 SWAP1 POP PUSH1 0x1F DUP4 GT PUSH1 0x1 DUP2 EQ PUSH2 0xDFE JUMPI PUSH0 DUP5 ISZERO PUSH2 0xDEC JUMPI DUP3 DUP8 ADD MLOAD SWAP1 POP JUMPDEST PUSH2 0xDF6 DUP6 DUP3 PUSH2 0xD7B JUMP JUMPDEST DUP7 SSTORE POP PUSH2 0xE5D JUMP JUMPDEST PUSH1 0x1F NOT DUP5 AND PUSH2 0xE0C DUP7 PUSH2 0xBE5 JUMP JUMPDEST PUSH0 JUMPDEST DUP3 DUP2 LT ISZERO PUSH2 0xE33 JUMPI DUP5 DUP10 ADD MLOAD DUP3 SSTORE PUSH1 0x1 DUP3 ADD SWAP2 POP PUSH1 0x20 DUP6 ADD SWAP5 POP PUSH1 0x20 DUP2 ADD SWAP1 POP PUSH2 0xE0E JUMP JUMPDEST DUP7 DUP4 LT ISZERO PUSH2 0xE50 JUMPI DUP5 DUP10 ADD MLOAD PUSH2 0xE4C PUSH1 0x1F DUP10 AND DUP3 PUSH2 0xD5F JUMP JUMPDEST DUP4 SSTORE POP JUMPDEST PUSH1 0x1 PUSH1 0x2 DUP9 MUL ADD DUP9 SSTORE POP POP POP JUMPDEST POP POP POP POP POP POP JUMP INVALID LOG2 PUSH5 0x6970667358 0x22 SLT KECCAK256 0xBE 0xEF 0xAB SWAP8 POP SSTORE MOD 0x2F DUP1 0xE 0x2A 0x2E 0xED 0xAE CALLDATALOAD 0xE2 0xB5 0x2E PUSH10 0xC08A55851673621BB0B4 CREATE DUP7 PUSH32 0x64736F6C63430008220033000000000000000000000000000000000000000000 "
				},
				"gasEstimates": {
					"creation": {
						"codeDepositCost": "747800",
						"executionCost": "infinite",
						"totalCost": "infinite"
					},
					"external": {
						"candidates(address)": "infinite",
						"giveYourVote()": "55407",
						"registerCandidate(address,string)": "infinite",
						"totalVotes()": "2447",
						"votingDeadline()": "2425",
						"votingHost()": "2485"
					}
				},
				"methodIdentifiers": {
					"candidates(address)": "8ab66a90",
					"giveYourVote()": "5ba55a77",
					"registerCandidate(address,string)": "b0d30d2f",
					"totalVotes()": "0d15fd77",
					"votingDeadline()": "036ee850",
					"votingHost()": "0354d7bb"
				}
			},
			"storageLayout": {
				"storage": [
					{
						"astId": 12,
						"contract": "contracts/10_votingsystem.sol:ChainVotingContract",
						"label": "votingHost",
						"offset": 0,
						"slot": "0",
						"type": "t_address"
					},
					{
						"astId": 14,
						"contract": "contracts/10_votingsystem.sol:ChainVotingContract",
						"label": "totalVotes",
						"offset": 0,
						"slot": "1",
						"type": "t_uint256"
					},
					{
						"astId": 16,
						"contract": "contracts/10_votingsystem.sol:ChainVotingContract",
						"label": "votingDeadline",
						"offset": 0,
						"slot": "2",
						"type": "t_uint256"
					},
					{
						"astId": 21,
						"contract": "contracts/10_votingsystem.sol:ChainVotingContract",
						"label": "candidates",
						"offset": 0,
						"slot": "3",
						"type": "t_mapping(t_address,t_struct(Candidate)10_storage)"
					}
				],
				"types": {
					"t_address": {
						"encoding": "inplace",
						"label": "address",
						"numberOfBytes": "20"
					},
					"t_bool": {
						"encoding": "inplace",
						"label": "bool",
						"numberOfBytes": "1"
					},
					"t_mapping(t_address,t_struct(Candidate)10_storage)": {
						"encoding": "mapping",
						"key": "t_address",
						"label": "mapping(address => struct ChainVotingContract.Candidate)",
						"numberOfBytes": "32",
						"value": "t_struct(Candidate)10_storage"
					},
					"t_string_storage": {
						"encoding": "bytes",
						"label": "string",
						"numberOfBytes": "32"
					},
					"t_struct(Candidate)10_storage": {
						"encoding": "inplace",
						"label": "struct ChainVotingContract.Candidate",
						"members": [
							{
								"astId": 3,
								"contract": "contracts/10_votingsystem.sol:ChainVotingContract",
								"label": "candidateAddress",
								"offset": 0,
								"slot": "0",
								"type": "t_address"
							},
							{
								"astId": 5,
								"contract": "contracts/10_votingsystem.sol:ChainVotingContract",
								"label": "name",
								"offset": 0,
								"slot": "1",
								"type": "t_string_storage"
							},
							{
								"astId": 7,
								"contract": "contracts/10_votingsystem.sol:ChainVotingContract",
								"label": "hasVoted",
								"offset": 0,
								"slot": "2",
								"type": "t_bool"
							},
							{
								"astId": 9,
								"contract": "contracts/10_votingsystem.sol:ChainVotingContract",
								"label": "isRegistered",
								"offset": 1,
								"slot": "2",
								"type": "t_bool"
							}
						],
						"numberOfBytes": "96"
					},
					"t_uint256": {
						"encoding": "inplace",
						"label": "uint256",
						"numberOfBytes": "32"
					}
				}
			},
			"userdoc": {
				"kind": "user",
				"methods": {},
				"version": 1
			}
		}
	}
}