{
	"contracts/5_piggybank.sol": {
		"SmartPiggyBank": {
			"abi": [
				{
					"inputs": [],
					"name": "accountBalances",
					"outputs": [
						{
							"internalType": "uint256",
							"name": "totalAmountAvailable",
							"type": "uint256"
						},
						{
							"internalType": "uint256",
							"name": "timeDeposited",
							"type": "uint256"
						},
						{
							"internalType": "uint256",
							"name": "timesWithdrawl",
							"type": "uint256"
						}
					],
					"stateMutability": "view",
					"type": "function"
				},
				{
					"inputs": [],
					"name": "payEthToContract",
					"outputs": [],
					"stateMutability": "payable",
					"type": "function"
				},
				{
					"inputs": [
						{
							"internalType": "address payable",
							"name": "_withdrawTo",
							"type": "address"
						},
						{
							"internalType": "uint256",
							"name": "_amount",
							"type": "uint256"
						}
					],
					"name": "withDrawYourEth",
					"outputs": [],
					"stateMutability": "nonpayable",
					"type": "function"
				}
			],
			"devdoc": {
				"kind": "dev",
				"methods": {},
				"version": 1
			},
			"evm": {
				"assembly": "    /* \"contracts/5_piggybank.sol\":67:1446  contract SmartPiggyBank {... */\n  mstore(0x40, 0x80)\n  callvalue\n  dup1\n  iszero\n  tag_1\n  jumpi\n  0x00\n  dup1\n  revert\ntag_1:\n  pop\n  dataSize(sub_0)\n  dup1\n  dataOffset(sub_0)\n  0x00\n  codecopy\n  0x00\n  return\nstop\n\nsub_0: assembly {\n        /* \"contracts/5_piggybank.sol\":67:1446  contract SmartPiggyBank {... */\n      mstore(0x40, 0x80)\n      jumpi(tag_1, lt(calldatasize, 0x04))\n      shr(0xe0, calldataload(0x00))\n      dup1\n      0x65a49ffe\n      eq\n      tag_2\n      jumpi\n      dup1\n      0xb6f1df08\n      eq\n      tag_3\n      jumpi\n      dup1\n      0xbd21fa47\n      eq\n      tag_4\n      jumpi\n    tag_1:\n      0x00\n      dup1\n      revert\n        /* \"contracts/5_piggybank.sol\":617:990  function payEthToContract() public payable {... */\n    tag_2:\n      tag_5\n      tag_6\n      jump\t// in\n    tag_5:\n      stop\n        /* \"contracts/5_piggybank.sol\":1002:1443  function withDrawYourEth(address payable _withdrawTo , uint _amount) public  {... */\n    tag_3:\n      callvalue\n      dup1\n      iszero\n      tag_7\n      jumpi\n      0x00\n      dup1\n      revert\n    tag_7:\n      pop\n      tag_8\n      0x04\n      dup1\n      calldatasize\n      sub\n      dup2\n      add\n      swap1\n      tag_9\n      swap2\n      swap1\n      tag_10\n      jump\t// in\n    tag_9:\n      tag_11\n      jump\t// in\n    tag_8:\n      stop\n        /* \"contracts/5_piggybank.sol\":524:557  accBalance public accountBalances */\n    tag_4:\n      callvalue\n      dup1\n      iszero\n      tag_12\n      jumpi\n      0x00\n      dup1\n      revert\n    tag_12:\n      pop\n      tag_13\n      tag_14\n      jump\t// in\n    tag_13:\n      mload(0x40)\n      tag_15\n      swap4\n      swap3\n      swap2\n      swap1\n      tag_16\n      jump\t// in\n    tag_15:\n      mload(0x40)\n      dup1\n      swap2\n      sub\n      swap1\n      return\n        /* \"contracts/5_piggybank.sol\":617:990  function payEthToContract() public payable {... */\n    tag_6:\n        /* \"contracts/5_piggybank.sol\":671:701  transaction memory desposition */\n      0x00\n        /* \"contracts/5_piggybank.sol\":704:753  transaction(msg.sender,msg.value,block.timestamp) */\n      mload(0x40)\n      dup1\n      0x60\n      add\n      0x40\n      mstore\n      dup1\n        /* \"contracts/5_piggybank.sol\":716:726  msg.sender */\n      caller\n        /* \"contracts/5_piggybank.sol\":704:753  transaction(msg.sender,msg.value,block.timestamp) */\n      0xffffffffffffffffffffffffffffffffffffffff\n      and\n      dup2\n      mstore\n      0x20\n      add\n        /* \"contracts/5_piggybank.sol\":727:736  msg.value */\n      callvalue\n        /* \"contracts/5_piggybank.sol\":704:753  transaction(msg.sender,msg.value,block.timestamp) */\n      dup2\n      mstore\n      0x20\n      add\n        /* \"contracts/5_piggybank.sol\":737:752  block.timestamp */\n      timestamp\n        /* \"contracts/5_piggybank.sol\":704:753  transaction(msg.sender,msg.value,block.timestamp) */\n      dup2\n      mstore\n      pop\n        /* \"contracts/5_piggybank.sol\":671:753  transaction memory desposition = transaction(msg.sender,msg.value,block.timestamp) */\n      swap1\n      pop\n        /* \"contracts/5_piggybank.sol\":839:850  desposition */\n      dup1\n        /* \"contracts/5_piggybank.sol\":800:815  accountBalances */\n      0x00\n        /* \"contracts/5_piggybank.sol\":800:824  accountBalances.deposits */\n      0x02\n      add\n        /* \"contracts/5_piggybank.sol\":800:836  accountBalances.deposits[msg.sender] */\n      0x00\n        /* \"contracts/5_piggybank.sol\":825:835  msg.sender */\n      caller\n        /* \"contracts/5_piggybank.sol\":800:836  accountBalances.deposits[msg.sender] */\n      0xffffffffffffffffffffffffffffffffffffffff\n      and\n      0xffffffffffffffffffffffffffffffffffffffff\n      and\n      dup2\n      mstore\n      0x20\n      add\n      swap1\n      dup2\n      mstore\n      0x20\n      add\n      0x00\n      keccak256\n        /* \"contracts/5_piggybank.sol\":800:850  accountBalances.deposits[msg.sender] = desposition */\n      0x00\n      dup3\n      add\n      mload\n      dup2\n      0x00\n      add\n      exp(0x0100, 0x00)\n      dup2\n      sload\n      dup2\n      0xffffffffffffffffffffffffffffffffffffffff\n      mul\n      not\n      and\n      swap1\n      dup4\n      0xffffffffffffffffffffffffffffffffffffffff\n      and\n      mul\n      or\n      swap1\n      sstore\n      pop\n      0x20\n      dup3\n      add\n      mload\n      dup2\n      0x01\n      add\n      sstore\n      0x40\n      dup3\n      add\n      mload\n      dup2\n      0x02\n      add\n      sstore\n      swap1\n      pop\n      pop\n        /* \"contracts/5_piggybank.sol\":928:937  msg.value */\n      callvalue\n        /* \"contracts/5_piggybank.sol\":888:903  accountBalances */\n      0x00\n        /* \"contracts/5_piggybank.sol\":888:924  accountBalances.totalAmountAvailable */\n      dup1\n      add\n      0x00\n        /* \"contracts/5_piggybank.sol\":888:937  accountBalances.totalAmountAvailable += msg.value */\n      dup3\n      dup3\n      sload\n      tag_18\n      swap2\n      swap1\n      tag_19\n      jump\t// in\n    tag_18:\n      swap3\n      pop\n      pop\n      dup2\n      swap1\n      sstore\n      pop\n        /* \"contracts/5_piggybank.sol\":949:964  accountBalances */\n      0x00\n        /* \"contracts/5_piggybank.sol\":949:978  accountBalances.timeDeposited */\n      0x01\n      add\n      0x00\n        /* \"contracts/5_piggybank.sol\":949:981  accountBalances.timeDeposited ++ */\n      dup2\n      sload\n      dup1\n      swap3\n      swap2\n      swap1\n      tag_20\n      swap1\n      tag_21\n      jump\t// in\n    tag_20:\n      swap2\n      swap1\n      pop\n      sstore\n      pop\n        /* \"contracts/5_piggybank.sol\":660:990  {... */\n      pop\n        /* \"contracts/5_piggybank.sol\":617:990  function payEthToContract() public payable {... */\n      jump\t// out\n        /* \"contracts/5_piggybank.sol\":1002:1443  function withDrawYourEth(address payable _withdrawTo , uint _amount) public  {... */\n    tag_11:\n        /* \"contracts/5_piggybank.sol\":1090:1118  transaction memory withdrawl */\n      0x00\n        /* \"contracts/5_piggybank.sol\":1121:1169  transaction(_withdrawTo,_amount,block.timestamp) */\n      mload(0x40)\n      dup1\n      0x60\n      add\n      0x40\n      mstore\n      dup1\n        /* \"contracts/5_piggybank.sol\":1133:1144  _withdrawTo */\n      dup5\n        /* \"contracts/5_piggybank.sol\":1121:1169  transaction(_withdrawTo,_amount,block.timestamp) */\n      0xffffffffffffffffffffffffffffffffffffffff\n      and\n      dup2\n      mstore\n      0x20\n      add\n        /* \"contracts/5_piggybank.sol\":1145:1152  _amount */\n      dup4\n        /* \"contracts/5_piggybank.sol\":1121:1169  transaction(_withdrawTo,_amount,block.timestamp) */\n      dup2\n      mstore\n      0x20\n      add\n        /* \"contracts/5_piggybank.sol\":1153:1168  block.timestamp */\n      timestamp\n        /* \"contracts/5_piggybank.sol\":1121:1169  transaction(_withdrawTo,_amount,block.timestamp) */\n      dup2\n      mstore\n      pop\n        /* \"contracts/5_piggybank.sol\":1090:1169  transaction memory withdrawl = transaction(_withdrawTo,_amount,block.timestamp) */\n      swap1\n      pop\n        /* \"contracts/5_piggybank.sol\":1247:1256  withdrawl */\n      dup1\n        /* \"contracts/5_piggybank.sol\":1206:1221  accountBalances */\n      0x00\n        /* \"contracts/5_piggybank.sol\":1206:1232  accountBalances.withdrawls */\n      0x04\n      add\n        /* \"contracts/5_piggybank.sol\":1206:1244  accountBalances.withdrawls[msg.sender] */\n      0x00\n        /* \"contracts/5_piggybank.sol\":1233:1243  msg.sender */\n      caller\n        /* \"contracts/5_piggybank.sol\":1206:1244  accountBalances.withdrawls[msg.sender] */\n      0xffffffffffffffffffffffffffffffffffffffff\n      and\n      0xffffffffffffffffffffffffffffffffffffffff\n      and\n      dup2\n      mstore\n      0x20\n      add\n      swap1\n      dup2\n      mstore\n      0x20\n      add\n      0x00\n      keccak256\n        /* \"contracts/5_piggybank.sol\":1206:1256  accountBalances.withdrawls[msg.sender] = withdrawl */\n      0x00\n      dup3\n      add\n      mload\n      dup2\n      0x00\n      add\n      exp(0x0100, 0x00)\n      dup2\n      sload\n      dup2\n      0xffffffffffffffffffffffffffffffffffffffff\n      mul\n      not\n      and\n      swap1\n      dup4\n      0xffffffffffffffffffffffffffffffffffffffff\n      and\n      mul\n      or\n      swap1\n      sstore\n      pop\n      0x20\n      dup3\n      add\n      mload\n      dup2\n      0x01\n      add\n      sstore\n      0x40\n      dup3\n      add\n      mload\n      dup2\n      0x02\n      add\n      sstore\n      swap1\n      pop\n      pop\n        /* \"contracts/5_piggybank.sol\":1308:1315  _amount */\n      dup2\n        /* \"contracts/5_piggybank.sol\":1268:1283  accountBalances */\n      0x00\n        /* \"contracts/5_piggybank.sol\":1268:1304  accountBalances.totalAmountAvailable */\n      dup1\n      add\n      0x00\n        /* \"contracts/5_piggybank.sol\":1268:1315  accountBalances.totalAmountAvailable -= _amount */\n      dup3\n      dup3\n      sload\n      tag_23\n      swap2\n      swap1\n      tag_24\n      jump\t// in\n    tag_23:\n      swap3\n      pop\n      pop\n      dup2\n      swap1\n      sstore\n      pop\n        /* \"contracts/5_piggybank.sol\":1361:1372  _withdrawTo */\n      dup3\n        /* \"contracts/5_piggybank.sol\":1361:1381  _withdrawTo.transfer */\n      0xffffffffffffffffffffffffffffffffffffffff\n      and\n        /* \"contracts/5_piggybank.sol\":1361:1390  _withdrawTo.transfer(_amount) */\n      0x08fc\n        /* \"contracts/5_piggybank.sol\":1382:1389  _amount */\n      dup4\n        /* \"contracts/5_piggybank.sol\":1361:1390  _withdrawTo.transfer(_amount) */\n      swap1\n      dup2\n      iszero\n      mul\n      swap1\n      mload(0x40)\n      0x00\n      mload(0x40)\n      dup1\n      dup4\n      sub\n      dup2\n      dup6\n      dup9\n      dup9\n      call\n      swap4\n      pop\n      pop\n      pop\n      pop\n      iszero\n      dup1\n      iszero\n      tag_26\n      jumpi\n      returndatasize\n      0x00\n      dup1\n      returndatacopy\n      revert(0x00, returndatasize)\n    tag_26:\n      pop\n        /* \"contracts/5_piggybank.sol\":1401:1416  accountBalances */\n      0x00\n        /* \"contracts/5_piggybank.sol\":1401:1431  accountBalances.timesWithdrawl */\n      0x03\n      add\n      0x00\n        /* \"contracts/5_piggybank.sol\":1401:1434  accountBalances.timesWithdrawl ++ */\n      dup2\n      sload\n      dup1\n      swap3\n      swap2\n      swap1\n      tag_27\n      swap1\n      tag_21\n      jump\t// in\n    tag_27:\n      swap2\n      swap1\n      pop\n      sstore\n      pop\n        /* \"contracts/5_piggybank.sol\":1079:1443  {... */\n      pop\n        /* \"contracts/5_piggybank.sol\":1002:1443  function withDrawYourEth(address payable _withdrawTo , uint _amount) public  {... */\n      pop\n      pop\n      jump\t// out\n        /* \"contracts/5_piggybank.sol\":524:557  accBalance public accountBalances */\n    tag_14:\n      0x00\n      dup1\n      0x00\n      add\n      sload\n      swap1\n      dup1\n      0x01\n      add\n      sload\n      swap1\n      dup1\n      0x03\n      add\n      sload\n      swap1\n      pop\n      dup4\n      jump\t// out\n        /* \"#utility.yul\":88:205   */\n    tag_29:\n        /* \"#utility.yul\":197:198   */\n      0x00\n        /* \"#utility.yul\":194:195   */\n      dup1\n        /* \"#utility.yul\":187:199   */\n      revert\n        /* \"#utility.yul\":334:460   */\n    tag_31:\n        /* \"#utility.yul\":371:378   */\n      0x00\n        /* \"#utility.yul\":411:453   */\n      0xffffffffffffffffffffffffffffffffffffffff\n        /* \"#utility.yul\":404:409   */\n      dup3\n        /* \"#utility.yul\":400:454   */\n      and\n        /* \"#utility.yul\":389:454   */\n      swap1\n      pop\n        /* \"#utility.yul\":334:460   */\n      swap2\n      swap1\n      pop\n      jump\t// out\n        /* \"#utility.yul\":466:570   */\n    tag_32:\n        /* \"#utility.yul\":511:518   */\n      0x00\n        /* \"#utility.yul\":540:564   */\n      tag_46\n        /* \"#utility.yul\":558:563   */\n      dup3\n        /* \"#utility.yul\":540:564   */\n      tag_31\n      jump\t// in\n    tag_46:\n        /* \"#utility.yul\":529:564   */\n      swap1\n      pop\n        /* \"#utility.yul\":466:570   */\n      swap2\n      swap1\n      pop\n      jump\t// out\n        /* \"#utility.yul\":576:714   */\n    tag_33:\n        /* \"#utility.yul\":657:689   */\n      tag_48\n        /* \"#utility.yul\":683:688   */\n      dup2\n        /* \"#utility.yul\":657:689   */\n      tag_32\n      jump\t// in\n    tag_48:\n        /* \"#utility.yul\":650:655   */\n      dup2\n        /* \"#utility.yul\":647:690   */\n      eq\n        /* \"#utility.yul\":637:708   */\n      tag_49\n      jumpi\n        /* \"#utility.yul\":704:705   */\n      0x00\n        /* \"#utility.yul\":701:702   */\n      dup1\n        /* \"#utility.yul\":694:706   */\n      revert\n        /* \"#utility.yul\":637:708   */\n    tag_49:\n        /* \"#utility.yul\":576:714   */\n      pop\n      jump\t// out\n        /* \"#utility.yul\":720:875   */\n    tag_34:\n        /* \"#utility.yul\":774:779   */\n      0x00\n        /* \"#utility.yul\":812:818   */\n      dup2\n        /* \"#utility.yul\":799:819   */\n      calldataload\n        /* \"#utility.yul\":790:819   */\n      swap1\n      pop\n        /* \"#utility.yul\":828:869   */\n      tag_51\n        /* \"#utility.yul\":863:868   */\n      dup2\n        /* \"#utility.yul\":828:869   */\n      tag_33\n      jump\t// in\n    tag_51:\n        /* \"#utility.yul\":720:875   */\n      swap3\n      swap2\n      pop\n      pop\n      jump\t// out\n        /* \"#utility.yul\":881:958   */\n    tag_35:\n        /* \"#utility.yul\":918:925   */\n      0x00\n        /* \"#utility.yul\":947:952   */\n      dup2\n        /* \"#utility.yul\":936:952   */\n      swap1\n      pop\n        /* \"#utility.yul\":881:958   */\n      swap2\n      swap1\n      pop\n      jump\t// out\n        /* \"#utility.yul\":964:1086   */\n    tag_36:\n        /* \"#utility.yul\":1037:1061   */\n      tag_54\n        /* \"#utility.yul\":1055:1060   */\n      dup2\n        /* \"#utility.yul\":1037:1061   */\n      tag_35\n      jump\t// in\n    tag_54:\n        /* \"#utility.yul\":1030:1035   */\n      dup2\n        /* \"#utility.yul\":1027:1062   */\n      eq\n        /* \"#utility.yul\":1017:1080   */\n      tag_55\n      jumpi\n        /* \"#utility.yul\":1076:1077   */\n      0x00\n        /* \"#utility.yul\":1073:1074   */\n      dup1\n        /* \"#utility.yul\":1066:1078   */\n      revert\n        /* \"#utility.yul\":1017:1080   */\n    tag_55:\n        /* \"#utility.yul\":964:1086   */\n      pop\n      jump\t// out\n        /* \"#utility.yul\":1092:1231   */\n    tag_37:\n        /* \"#utility.yul\":1138:1143   */\n      0x00\n        /* \"#utility.yul\":1176:1182   */\n      dup2\n        /* \"#utility.yul\":1163:1183   */\n      calldataload\n        /* \"#utility.yul\":1154:1183   */\n      swap1\n      pop\n        /* \"#utility.yul\":1192:1225   */\n      tag_57\n        /* \"#utility.yul\":1219:1224   */\n      dup2\n        /* \"#utility.yul\":1192:1225   */\n      tag_36\n      jump\t// in\n    tag_57:\n        /* \"#utility.yul\":1092:1231   */\n      swap3\n      swap2\n      pop\n      pop\n      jump\t// out\n        /* \"#utility.yul\":1237:1727   */\n    tag_10:\n        /* \"#utility.yul\":1313:1319   */\n      0x00\n        /* \"#utility.yul\":1321:1327   */\n      dup1\n        /* \"#utility.yul\":1370:1372   */\n      0x40\n        /* \"#utility.yul\":1358:1367   */\n      dup4\n        /* \"#utility.yul\":1349:1356   */\n      dup6\n        /* \"#utility.yul\":1345:1368   */\n      sub\n        /* \"#utility.yul\":1341:1373   */\n      slt\n        /* \"#utility.yul\":1338:1457   */\n      iszero\n      tag_59\n      jumpi\n        /* \"#utility.yul\":1376:1455   */\n      tag_60\n      tag_29\n      jump\t// in\n    tag_60:\n        /* \"#utility.yul\":1338:1457   */\n    tag_59:\n        /* \"#utility.yul\":1496:1497   */\n      0x00\n        /* \"#utility.yul\":1521:1582   */\n      tag_61\n        /* \"#utility.yul\":1574:1581   */\n      dup6\n        /* \"#utility.yul\":1565:1571   */\n      dup3\n        /* \"#utility.yul\":1554:1563   */\n      dup7\n        /* \"#utility.yul\":1550:1572   */\n      add\n        /* \"#utility.yul\":1521:1582   */\n      tag_34\n      jump\t// in\n    tag_61:\n        /* \"#utility.yul\":1511:1582   */\n      swap3\n      pop\n        /* \"#utility.yul\":1467:1592   */\n      pop\n        /* \"#utility.yul\":1631:1633   */\n      0x20\n        /* \"#utility.yul\":1657:1710   */\n      tag_62\n        /* \"#utility.yul\":1702:1709   */\n      dup6\n        /* \"#utility.yul\":1693:1699   */\n      dup3\n        /* \"#utility.yul\":1682:1691   */\n      dup7\n        /* \"#utility.yul\":1678:1700   */\n      add\n        /* \"#utility.yul\":1657:1710   */\n      tag_37\n      jump\t// in\n    tag_62:\n        /* \"#utility.yul\":1647:1710   */\n      swap2\n      pop\n        /* \"#utility.yul\":1602:1720   */\n      pop\n        /* \"#utility.yul\":1237:1727   */\n      swap3\n      pop\n      swap3\n      swap1\n      pop\n      jump\t// out\n        /* \"#utility.yul\":1733:1851   */\n    tag_38:\n        /* \"#utility.yul\":1820:1844   */\n      tag_64\n        /* \"#utility.yul\":1838:1843   */\n      dup2\n        /* \"#utility.yul\":1820:1844   */\n      tag_35\n      jump\t// in\n    tag_64:\n        /* \"#utility.yul\":1815:1818   */\n      dup3\n        /* \"#utility.yul\":1808:1845   */\n      mstore\n        /* \"#utility.yul\":1733:1851   */\n      pop\n      pop\n      jump\t// out\n        /* \"#utility.yul\":1857:2299   */\n    tag_16:\n        /* \"#utility.yul\":2006:2010   */\n      0x00\n        /* \"#utility.yul\":2044:2046   */\n      0x60\n        /* \"#utility.yul\":2033:2042   */\n      dup3\n        /* \"#utility.yul\":2029:2047   */\n      add\n        /* \"#utility.yul\":2021:2047   */\n      swap1\n      pop\n        /* \"#utility.yul\":2057:2128   */\n      tag_66\n        /* \"#utility.yul\":2125:2126   */\n      0x00\n        /* \"#utility.yul\":2114:2123   */\n      dup4\n        /* \"#utility.yul\":2110:2127   */\n      add\n        /* \"#utility.yul\":2101:2107   */\n      dup7\n        /* \"#utility.yul\":2057:2128   */\n      tag_38\n      jump\t// in\n    tag_66:\n        /* \"#utility.yul\":2138:2210   */\n      tag_67\n        /* \"#utility.yul\":2206:2208   */\n      0x20\n        /* \"#utility.yul\":2195:2204   */\n      dup4\n        /* \"#utility.yul\":2191:2209   */\n      add\n        /* \"#utility.yul\":2182:2188   */\n      dup6\n        /* \"#utility.yul\":2138:2210   */\n      tag_38\n      jump\t// in\n    tag_67:\n        /* \"#utility.yul\":2220:2292   */\n      tag_68\n        /* \"#utility.yul\":2288:2290   */\n      0x40\n        /* \"#utility.yul\":2277:2286   */\n      dup4\n        /* \"#utility.yul\":2273:2291   */\n      add\n        /* \"#utility.yul\":2264:2270   */\n      dup5\n        /* \"#utility.yul\":2220:2292   */\n      tag_38\n      jump\t// in\n    tag_68:\n        /* \"#utility.yul\":1857:2299   */\n      swap5\n      swap4\n      pop\n      pop\n      pop\n      pop\n      jump\t// out\n        /* \"#utility.yul\":2305:2485   */\n    tag_39:\n        /* \"#utility.yul\":2353:2430   */\n      0x4e487b7100000000000000000000000000000000000000000000000000000000\n        /* \"#utility.yul\":2350:2351   */\n      0x00\n        /* \"#utility.yul\":2343:2431   */\n      mstore\n        /* \"#utility.yul\":2450:2454   */\n      0x11\n        /* \"#utility.yul\":2447:2448   */\n      0x04\n        /* \"#utility.yul\":2440:2455   */\n      mstore\n        /* \"#utility.yul\":2474:2478   */\n      0x24\n        /* \"#utility.yul\":2471:2472   */\n      0x00\n        /* \"#utility.yul\":2464:2479   */\n      revert\n        /* \"#utility.yul\":2491:2796   */\n    tag_19:\n        /* \"#utility.yul\":2531:2534   */\n      0x00\n        /* \"#utility.yul\":2550:2570   */\n      tag_71\n        /* \"#utility.yul\":2568:2569   */\n      dup3\n        /* \"#utility.yul\":2550:2570   */\n      tag_35\n      jump\t// in\n    tag_71:\n        /* \"#utility.yul\":2545:2570   */\n      swap2\n      pop\n        /* \"#utility.yul\":2584:2604   */\n      tag_72\n        /* \"#utility.yul\":2602:2603   */\n      dup4\n        /* \"#utility.yul\":2584:2604   */\n      tag_35\n      jump\t// in\n    tag_72:\n        /* \"#utility.yul\":2579:2604   */\n      swap3\n      pop\n        /* \"#utility.yul\":2738:2739   */\n      dup3\n        /* \"#utility.yul\":2670:2736   */\n      0xffffffffffffffffffffffffffffffffffffffffffffffffffffffffffffffff\n        /* \"#utility.yul\":2666:2740   */\n      sub\n        /* \"#utility.yul\":2663:2664   */\n      dup3\n        /* \"#utility.yul\":2660:2741   */\n      gt\n        /* \"#utility.yul\":2657:2764   */\n      iszero\n      tag_73\n      jumpi\n        /* \"#utility.yul\":2744:2762   */\n      tag_74\n      tag_39\n      jump\t// in\n    tag_74:\n        /* \"#utility.yul\":2657:2764   */\n    tag_73:\n        /* \"#utility.yul\":2788:2789   */\n      dup3\n        /* \"#utility.yul\":2785:2786   */\n      dup3\n        /* \"#utility.yul\":2781:2790   */\n      add\n        /* \"#utility.yul\":2774:2790   */\n      swap1\n      pop\n        /* \"#utility.yul\":2491:2796   */\n      swap3\n      swap2\n      pop\n      pop\n      jump\t// out\n        /* \"#utility.yul\":2802:3035   */\n    tag_21:\n        /* \"#utility.yul\":2841:2844   */\n      0x00\n        /* \"#utility.yul\":2864:2888   */\n      tag_76\n        /* \"#utility.yul\":2882:2887   */\n      dup3\n        /* \"#utility.yul\":2864:2888   */\n      tag_35\n      jump\t// in\n    tag_76:\n        /* \"#utility.yul\":2855:2888   */\n      swap2\n      pop\n        /* \"#utility.yul\":2910:2976   */\n      0xffffffffffffffffffffffffffffffffffffffffffffffffffffffffffffffff\n        /* \"#utility.yul\":2903:2908   */\n      dup3\n        /* \"#utility.yul\":2900:2977   */\n      sub\n        /* \"#utility.yul\":2897:3000   */\n      tag_77\n      jumpi\n        /* \"#utility.yul\":2980:2998   */\n      tag_78\n      tag_39\n      jump\t// in\n    tag_78:\n        /* \"#utility.yul\":2897:3000   */\n    tag_77:\n        /* \"#utility.yul\":3027:3028   */\n      0x01\n        /* \"#utility.yul\":3020:3025   */\n      dup3\n        /* \"#utility.yul\":3016:3029   */\n      add\n        /* \"#utility.yul\":3009:3029   */\n      swap1\n      pop\n        /* \"#utility.yul\":2802:3035   */\n      swap2\n      swap1\n      pop\n      jump\t// out\n        /* \"#utility.yul\":3041:3232   */\n    tag_24:\n        /* \"#utility.yul\":3081:3085   */\n      0x00\n        /* \"#utility.yul\":3101:3121   */\n      tag_80\n        /* \"#utility.yul\":3119:3120   */\n      dup3\n        /* \"#utility.yul\":3101:3121   */\n      tag_35\n      jump\t// in\n    tag_80:\n        /* \"#utility.yul\":3096:3121   */\n      swap2\n      pop\n        /* \"#utility.yul\":3135:3155   */\n      tag_81\n        /* \"#utility.yul\":3153:3154   */\n      dup4\n        /* \"#utility.yul\":3135:3155   */\n      tag_35\n      jump\t// in\n    tag_81:\n        /* \"#utility.yul\":3130:3155   */\n      swap3\n      pop\n        /* \"#utility.yul\":3174:3175   */\n      dup3\n        /* \"#utility.yul\":3171:3172   */\n      dup3\n        /* \"#utility.yul\":3168:3176   */\n      lt\n        /* \"#utility.yul\":3165:3199   */\n      iszero\n      tag_82\n      jumpi\n        /* \"#utility.yul\":3179:3197   */\n      tag_83\n      tag_39\n      jump\t// in\n    tag_83:\n        /* \"#utility.yul\":3165:3199   */\n    tag_82:\n        /* \"#utility.yul\":3224:3225   */\n      dup3\n        /* \"#utility.yul\":3221:3222   */\n      dup3\n        /* \"#utility.yul\":3217:3226   */\n      sub\n        /* \"#utility.yul\":3209:3226   */\n      swap1\n      pop\n        /* \"#utility.yul\":3041:3232   */\n      swap3\n      swap2\n      pop\n      pop\n      jump\t// out\n\n    auxdata: 0xa2646970667358221220ea75ea41b76cd61c478abc0b19ca37a0640fec51b536463018560d070ba66f4264736f6c634300080f0033\n}\n",
				"bytecode": {
					"linkReferences": {},
					"object": "608060405234801561001057600080fd5b5061056e806100206000396000f3fe6080604052600436106100345760003560e01c806365a49ffe14610039578063b6f1df0814610043578063bd21fa471461006c575b600080fd5b610041610099565b005b34801561004f57600080fd5b5061006a600480360381019061006591906103b1565b6101a8565b005b34801561007857600080fd5b50610081610300565b60405161009093929190610400565b60405180910390f35b600060405180606001604052803373ffffffffffffffffffffffffffffffffffffffff16815260200134815260200142815250905080600060020160003373ffffffffffffffffffffffffffffffffffffffff1673ffffffffffffffffffffffffffffffffffffffff16815260200190815260200160002060008201518160000160006101000a81548173ffffffffffffffffffffffffffffffffffffffff021916908373ffffffffffffffffffffffffffffffffffffffff1602179055506020820151816001015560408201518160020155905050346000800160008282546101839190610466565b92505081905550600060010160008154809291906101a0906104bc565b919050555050565b600060405180606001604052808473ffffffffffffffffffffffffffffffffffffffff16815260200183815260200142815250905080600060040160003373ffffffffffffffffffffffffffffffffffffffff1673ffffffffffffffffffffffffffffffffffffffff16815260200190815260200160002060008201518160000160006101000a81548173ffffffffffffffffffffffffffffffffffffffff021916908373ffffffffffffffffffffffffffffffffffffffff1602179055506020820151816001015560408201518160020155905050816000800160008282546102929190610504565b925050819055508273ffffffffffffffffffffffffffffffffffffffff166108fc839081150290604051600060405180830381858888f193505050501580156102df573d6000803e3d6000fd5b50600060030160008154809291906102f6906104bc565b9190505550505050565b60008060000154908060010154908060030154905083565b600080fd5b600073ffffffffffffffffffffffffffffffffffffffff82169050919050565b60006103488261031d565b9050919050565b6103588161033d565b811461036357600080fd5b50565b6000813590506103758161034f565b92915050565b6000819050919050565b61038e8161037b565b811461039957600080fd5b50565b6000813590506103ab81610385565b92915050565b600080604083850312156103c8576103c7610318565b5b60006103d685828601610366565b92505060206103e78582860161039c565b9150509250929050565b6103fa8161037b565b82525050565b600060608201905061041560008301866103f1565b61042260208301856103f1565b61042f60408301846103f1565b949350505050565b7f4e487b7100000000000000000000000000000000000000000000000000000000600052601160045260246000fd5b60006104718261037b565b915061047c8361037b565b9250827fffffffffffffffffffffffffffffffffffffffffffffffffffffffffffffffff038211156104b1576104b0610437565b5b828201905092915050565b60006104c78261037b565b91507fffffffffffffffffffffffffffffffffffffffffffffffffffffffffffffffff82036104f9576104f8610437565b5b600182019050919050565b600061050f8261037b565b915061051a8361037b565b92508282101561052d5761052c610437565b5b82820390509291505056fea2646970667358221220ea75ea41b76cd61c478abc0b19ca37a0640fec51b536463018560d070ba66f4264736f6c634300080f0033",
					"opcodes": "PUSH1 0x80 PUSH1 0x40 MSTORE CALLVALUE DUP1 ISZERO PUSH2 0x10 JUMPI PUSH1 0x0 DUP1 REVERT JUMPDEST POP PUSH2 0x56E DUP1 PUSH2 0x20 PUSH1 0x0 CODECOPY PUSH1 0x0 RETURN INVALID PUSH1 0x80 PUSH1 0x40 MSTORE PUSH1 0x4 CALLDATASIZE LT PUSH2 0x34 JUMPI PUSH1 0x0 CALLDATALOAD PUSH1 0xE0 SHR DUP1 PUSH4 0x65A49FFE EQ PUSH2 0x39 JUMPI DUP1 PUSH4 0xB6F1DF08 EQ PUSH2 0x43 JUMPI DUP1 PUSH4 0xBD21FA47 EQ PUSH2 0x6C JUMPI JUMPDEST PUSH1 0x0 DUP1 REVERT JUMPDEST PUSH2 0x41 PUSH2 0x99 JUMP JUMPDEST STOP JUMPDEST CALLVALUE DUP1 ISZERO PUSH2 0x4F JUMPI PUSH1 0x0 DUP1 REVERT JUMPDEST POP PUSH2 0x6A PUSH1 0x4 DUP1 CALLDATASIZE SUB DUP2 ADD SWAP1 PUSH2 0x65 SWAP2 SWAP1 PUSH2 0x3B1 JUMP JUMPDEST PUSH2 0x1A8 JUMP JUMPDEST STOP JUMPDEST CALLVALUE DUP1 ISZERO PUSH2 0x78 JUMPI PUSH1 0x0 DUP1 REVERT JUMPDEST POP PUSH2 0x81 PUSH2 0x300 JUMP JUMPDEST PUSH1 0x40 MLOAD PUSH2 0x90 SWAP4 SWAP3 SWAP2 SWAP1 PUSH2 0x400 JUMP JUMPDEST PUSH1 0x40 MLOAD DUP1 SWAP2 SUB SWAP1 RETURN JUMPDEST PUSH1 0x0 PUSH1 0x40 MLOAD DUP1 PUSH1 0x60 ADD PUSH1 0x40 MSTORE DUP1 CALLER PUSH20 0xFFFFFFFFFFFFFFFFFFFFFFFFFFFFFFFFFFFFFFFF AND DUP2 MSTORE PUSH1 0x20 ADD CALLVALUE DUP2 MSTORE PUSH1 0x20 ADD TIMESTAMP DUP2 MSTORE POP SWAP1 POP DUP1 PUSH1 0x0 PUSH1 0x2 ADD PUSH1 0x0 CALLER PUSH20 0xFFFFFFFFFFFFFFFFFFFFFFFFFFFFFFFFFFFFFFFF AND PUSH20 0xFFFFFFFFFFFFFFFFFFFFFFFFFFFFFFFFFFFFFFFF AND DUP2 MSTORE PUSH1 0x20 ADD SWAP1 DUP2 MSTORE PUSH1 0x20 ADD PUSH1 0x0 KECCAK256 PUSH1 0x0 DUP3 ADD MLOAD DUP2 PUSH1 0x0 ADD PUSH1 0x0 PUSH2 0x100 EXP DUP2 SLOAD DUP2 PUSH20 0xFFFFFFFFFFFFFFFFFFFFFFFFFFFFFFFFFFFFFFFF MUL NOT AND SWAP1 DUP4 PUSH20 0xFFFFFFFFFFFFFFFFFFFFFFFFFFFFFFFFFFFFFFFF AND MUL OR SWAP1 SSTORE POP PUSH1 0x20 DUP3 ADD MLOAD DUP2 PUSH1 0x1 ADD SSTORE PUSH1 0x40 DUP3 ADD MLOAD DUP2 PUSH1 0x2 ADD SSTORE SWAP1 POP POP CALLVALUE PUSH1 0x0 DUP1 ADD PUSH1 0x0 DUP3 DUP3 SLOAD PUSH2 0x183 SWAP2 SWAP1 PUSH2 0x466 JUMP JUMPDEST SWAP3 POP POP DUP2 SWAP1 SSTORE POP PUSH1 0x0 PUSH1 0x1 ADD PUSH1 0x0 DUP2 SLOAD DUP1 SWAP3 SWAP2 SWAP1 PUSH2 0x1A0 SWAP1 PUSH2 0x4BC JUMP JUMPDEST SWAP2 SWAP1 POP SSTORE POP POP JUMP JUMPDEST PUSH1 0x0 PUSH1 0x40 MLOAD DUP1 PUSH1 0x60 ADD PUSH1 0x40 MSTORE DUP1 DUP5 PUSH20 0xFFFFFFFFFFFFFFFFFFFFFFFFFFFFFFFFFFFFFFFF AND DUP2 MSTORE PUSH1 0x20 ADD DUP4 DUP2 MSTORE PUSH1 0x20 ADD TIMESTAMP DUP2 MSTORE POP SWAP1 POP DUP1 PUSH1 0x0 PUSH1 0x4 ADD PUSH1 0x0 CALLER PUSH20 0xFFFFFFFFFFFFFFFFFFFFFFFFFFFFFFFFFFFFFFFF AND PUSH20 0xFFFFFFFFFFFFFFFFFFFFFFFFFFFFFFFFFFFFFFFF AND DUP2 MSTORE PUSH1 0x20 ADD SWAP1 DUP2 MSTORE PUSH1 0x20 ADD PUSH1 0x0 KECCAK256 PUSH1 0x0 DUP3 ADD MLOAD DUP2 PUSH1 0x0 ADD PUSH1 0x0 PUSH2 0x100 EXP DUP2 SLOAD DUP2 PUSH20 0xFFFFFFFFFFFFFFFFFFFFFFFFFFFFFFFFFFFFFFFF MUL NOT AND SWAP1 DUP4 PUSH20 0xFFFFFFFFFFFFFFFFFFFFFFFFFFFFFFFFFFFFFFFF AND MUL OR SWAP1 SSTORE POP PUSH1 0x20 DUP3 ADD MLOAD DUP2 PUSH1 0x1 ADD SSTORE PUSH1 0x40 DUP3 ADD MLOAD DUP2 PUSH1 0x2 ADD SSTORE SWAP1 POP POP DUP2 PUSH1 0x0 DUP1 ADD PUSH1 0x0 DUP3 DUP3 SLOAD PUSH2 0x292 SWAP2 SWAP1 PUSH2 0x504 JUMP JUMPDEST SWAP3 POP POP DUP2 SWAP1 SSTORE POP DUP3 PUSH20 0xFFFFFFFFFFFFFFFFFFFFFFFFFFFFFFFFFFFFFFFF AND PUSH2 0x8FC DUP4 SWAP1 DUP2 ISZERO MUL SWAP1 PUSH1 0x40 MLOAD PUSH1 0x0 PUSH1 0x40 MLOAD DUP1 DUP4 SUB DUP2 DUP6 DUP9 DUP9 CALL SWAP4 POP POP POP POP ISZERO DUP1 ISZERO PUSH2 0x2DF JUMPI RETURNDATASIZE PUSH1 0x0 DUP1 RETURNDATACOPY RETURNDATASIZE PUSH1 0x0 REVERT JUMPDEST POP PUSH1 0x0 PUSH1 0x3 ADD PUSH1 0x0 DUP2 SLOAD DUP1 SWAP3 SWAP2 SWAP1 PUSH2 0x2F6 SWAP1 PUSH2 0x4BC JUMP JUMPDEST SWAP2 SWAP1 POP SSTORE POP POP POP POP JUMP JUMPDEST PUSH1 0x0 DUP1 PUSH1 0x0 ADD SLOAD SWAP1 DUP1 PUSH1 0x1 ADD SLOAD SWAP1 DUP1 PUSH1 0x3 ADD SLOAD SWAP1 POP DUP4 JUMP JUMPDEST PUSH1 0x0 DUP1 REVERT JUMPDEST PUSH1 0x0 PUSH20 0xFFFFFFFFFFFFFFFFFFFFFFFFFFFFFFFFFFFFFFFF DUP3 AND SWAP1 POP SWAP2 SWAP1 POP JUMP JUMPDEST PUSH1 0x0 PUSH2 0x348 DUP3 PUSH2 0x31D JUMP JUMPDEST SWAP1 POP SWAP2 SWAP1 POP JUMP JUMPDEST PUSH2 0x358 DUP2 PUSH2 0x33D JUMP JUMPDEST DUP2 EQ PUSH2 0x363 JUMPI PUSH1 0x0 DUP1 REVERT JUMPDEST POP JUMP JUMPDEST PUSH1 0x0 DUP2 CALLDATALOAD SWAP1 POP PUSH2 0x375 DUP2 PUSH2 0x34F JUMP JUMPDEST SWAP3 SWAP2 POP POP JUMP JUMPDEST PUSH1 0x0 DUP2 SWAP1 POP SWAP2 SWAP1 POP JUMP JUMPDEST PUSH2 0x38E DUP2 PUSH2 0x37B JUMP JUMPDEST DUP2 EQ PUSH2 0x399 JUMPI PUSH1 0x0 DUP1 REVERT JUMPDEST POP JUMP JUMPDEST PUSH1 0x0 DUP2 CALLDATALOAD SWAP1 POP PUSH2 0x3AB DUP2 PUSH2 0x385 JUMP JUMPDEST SWAP3 SWAP2 POP POP JUMP JUMPDEST PUSH1 0x0 DUP1 PUSH1 0x40 DUP4 DUP6 SUB SLT ISZERO PUSH2 0x3C8 JUMPI PUSH2 0x3C7 PUSH2 0x318 JUMP JUMPDEST JUMPDEST PUSH1 0x0 PUSH2 0x3D6 DUP6 DUP3 DUP7 ADD PUSH2 0x366 JUMP JUMPDEST SWAP3 POP POP PUSH1 0x20 PUSH2 0x3E7 DUP6 DUP3 DUP7 ADD PUSH2 0x39C JUMP JUMPDEST SWAP2 POP POP SWAP3 POP SWAP3 SWAP1 POP JUMP JUMPDEST PUSH2 0x3FA DUP2 PUSH2 0x37B JUMP JUMPDEST DUP3 MSTORE POP POP JUMP JUMPDEST PUSH1 0x0 PUSH1 0x60 DUP3 ADD SWAP1 POP PUSH2 0x415 PUSH1 0x0 DUP4 ADD DUP7 PUSH2 0x3F1 JUMP JUMPDEST PUSH2 0x422 PUSH1 0x20 DUP4 ADD DUP6 PUSH2 0x3F1 JUMP JUMPDEST PUSH2 0x42F PUSH1 0x40 DUP4 ADD DUP5 PUSH2 0x3F1 JUMP JUMPDEST SWAP5 SWAP4 POP POP POP POP JUMP JUMPDEST PUSH32 0x4E487B7100000000000000000000000000000000000000000000000000000000 PUSH1 0x0 MSTORE PUSH1 0x11 PUSH1 0x4 MSTORE PUSH1 0x24 PUSH1 0x0 REVERT JUMPDEST PUSH1 0x0 PUSH2 0x471 DUP3 PUSH2 0x37B JUMP JUMPDEST SWAP2 POP PUSH2 0x47C DUP4 PUSH2 0x37B JUMP JUMPDEST SWAP3 POP DUP3 PUSH32 0xFFFFFFFFFFFFFFFFFFFFFFFFFFFFFFFFFFFFFFFFFFFFFFFFFFFFFFFFFFFFFFFF SUB DUP3 GT ISZERO PUSH2 0x4B1 JUMPI PUSH2 0x4B0 PUSH2 0x437 JUMP JUMPDEST JUMPDEST DUP3 DUP3 ADD SWAP1 POP SWAP3 SWAP2 POP POP JUMP JUMPDEST PUSH1 0x0 PUSH2 0x4C7 DUP3 PUSH2 0x37B JUMP JUMPDEST SWAP2 POP PUSH32 0xFFFFFFFFFFFFFFFFFFFFFFFFFFFFFFFFFFFFFFFFFFFFFFFFFFFFFFFFFFFFFFFF DUP3 SUB PUSH2 0x4F9 JUMPI PUSH2 0x4F8 PUSH2 0x437 JUMP JUMPDEST JUMPDEST PUSH1 0x1 DUP3 ADD SWAP1 POP SWAP2 SWAP1 POP JUMP JUMPDEST PUSH1 0x0 PUSH2 0x50F DUP3 PUSH2 0x37B JUMP JUMPDEST SWAP2 POP PUSH2 0x51A DUP4 PUSH2 0x37B JUMP JUMPDEST SWAP3 POP DUP3 DUP3 LT ISZERO PUSH2 0x52D JUMPI PUSH2 0x52C PUSH2 0x437 JUMP JUMPDEST JUMPDEST DUP3 DUP3 SUB SWAP1 POP SWAP3 SWAP2 POP POP JUMP INVALID LOG2 PUSH5 0x6970667358 0x22 SLT KECCAK256 0xEA PUSH22 0xEA41B76CD61C478ABC0B19CA37A0640FEC51B5364630 XOR JUMP 0xD SMOD SIGNEXTEND 0xA6 PUSH16 0x4264736F6C634300080F003300000000 "
				},
				"gasEstimates": {
					"creation": {
						"codeDepositCost": "278000",
						"executionCost": "318",
						"totalCost": "278318"
					},
					"external": {
						"accountBalances()": "infinite",
						"payEthToContract()": "infinite",
						"withDrawYourEth(address,uint256)": "infinite"
					}
				},
				"methodIdentifiers": {
					"accountBalances()": "bd21fa47",
					"payEthToContract()": "65a49ffe",
					"withDrawYourEth(address,uint256)": "b6f1df08"
				}
			},
			"storageLayout": {
				"storage": [
					{
						"astId": 28,
						"contract": "contracts/5_piggybank.sol:SmartPiggyBank",
						"label": "accountBalances",
						"offset": 0,
						"slot": "0",
						"type": "t_struct(accBalance)25_storage"
					}
				],
				"types": {
					"t_address": {
						"encoding": "inplace",
						"label": "address",
						"numberOfBytes": "20"
					},
					"t_mapping(t_address,t_struct(transaction)8_storage)": {
						"encoding": "mapping",
						"key": "t_address",
						"label": "mapping(address => struct SmartPiggyBank.transaction)",
						"numberOfBytes": "32",
						"value": "t_struct(transaction)8_storage"
					},
					"t_struct(accBalance)25_storage": {
						"encoding": "inplace",
						"label": "struct SmartPiggyBank.accBalance",
						"members": [
							{
								"astId": 10,
								"contract": "contracts/5_piggybank.sol:SmartPiggyBank",
								"label": "totalAmountAvailable",
								"offset": 0,
								"slot": "0",
								"type": "t_uint256"
							},
							{
								"astId": 12,
								"contract": "contracts/5_piggybank.sol:SmartPiggyBank",
								"label": "timeDeposited",
								"offset": 0,
								"slot": "1",
								"type": "t_uint256"
							},
							{
								"astId": 17,
								"contract": "contracts/5_piggybank.sol:SmartPiggyBank",
								"label": "deposits",
								"offset": 0,
								"slot": "2",
								"type": "t_mapping(t_address,t_struct(transaction)8_storage)"
							},
							{
								"astId": 19,
								"contract": "contracts/5_piggybank.sol:SmartPiggyBank",
								"label": "timesWithdrawl",
								"offset": 0,
								"slot": "3",
								"type": "t_uint256"
							},
							{
								"astId": 24,
								"contract": "contracts/5_piggybank.sol:SmartPiggyBank",
								"label": "withdrawls",
								"offset": 0,
								"slot": "4",
								"type": "t_mapping(t_address,t_struct(transaction)8_storage)"
							}
						],
						"numberOfBytes": "160"
					},
					"t_struct(transaction)8_storage": {
						"encoding": "inplace",
						"label": "struct SmartPiggyBank.transaction",
						"members": [
							{
								"astId": 3,
								"contract": "contracts/5_piggybank.sol:SmartPiggyBank",
								"label": "acc_address",
								"offset": 0,
								"slot": "0",
								"type": "t_address"
							},
							{
								"astId": 5,
								"contract": "contracts/5_piggybank.sol:SmartPiggyBank",
								"label": "amount",
								"offset": 0,
								"slot": "1",
								"type": "t_uint256"
							},
							{
								"astId": 7,
								"contract": "contracts/5_piggybank.sol:SmartPiggyBank",
								"label": "timeOfTransaction",
								"offset": 0,
								"slot": "2",
								"type": "t_uint256"
							}
						],
						"numberOfBytes": "96"
					},
					"t_uint256": {
						"encoding": "inplace",
						"label": "uint256",
						"numberOfBytes": "32"
					}
				}
			},
			"userdoc": {
				"kind": "user",
				"methods": {},
				"version": 1
			}
		}
	}
}