{
	"contracts/8_todolists.sol": {
		"onChainToDoList": {
			"abi": [
				{
					"inputs": [],
					"stateMutability": "nonpayable",
					"type": "constructor"
				},
				{
					"inputs": [
						{
							"internalType": "string",
							"name": "text",
							"type": "string"
						}
					],
					"name": "createNewTask",
					"outputs": [],
					"stateMutability": "nonpayable",
					"type": "function"
				},
				{
					"inputs": [],
					"name": "taskCreator",
					"outputs": [
						{
							"internalType": "address",
							"name": "",
							"type": "address"
						}
					],
					"stateMutability": "view",
					"type": "function"
				},
				{
					"inputs": [
						{
							"internalType": "address",
							"name": "",
							"type": "address"
						}
					],
					"name": "taskList",
					"outputs": [
						{
							"internalType": "uint256",
							"name": "taskId",
							"type": "uint256"
						},
						{
							"internalType": "string",
							"name": "task",
							"type": "string"
						},
						{
							"internalType": "bool",
							"name": "isCompleted",
							"type": "bool"
						}
					],
					"stateMutability": "view",
					"type": "function"
				},
				{
					"inputs": [],
					"name": "totalTasks",
					"outputs": [
						{
							"internalType": "uint256",
							"name": "",
							"type": "uint256"
						}
					],
					"stateMutability": "view",
					"type": "function"
				},
				{
					"inputs": [
						{
							"internalType": "address",
							"name": "_storedBy",
							"type": "address"
						},
						{
							"internalType": "bool",
							"name": "updateValue",
							"type": "bool"
						}
					],
					"name": "updateTaskCompletion",
					"outputs": [],
					"stateMutability": "nonpayable",
					"type": "function"
				}
			],
			"devdoc": {
				"kind": "dev",
				"methods": {},
				"version": 1
			},
			"evm": {
				"assembly": "    /* \"contracts/8_todolists.sol\":66:947  contract onChainToDoList {... */\n  mstore(0x40, 0x80)\n    /* \"contracts/8_todolists.sol\":239:323  constructor() {... */\n  callvalue\n  dup1\n  iszero\n  tag_1\n  jumpi\n  0x00\n  dup1\n  revert\ntag_1:\n  pop\n    /* \"contracts/8_todolists.sol\":278:288  msg.sender */\n  caller\n    /* \"contracts/8_todolists.sol\":264:275  taskCreator */\n  0x00\n  dup1\n    /* \"contracts/8_todolists.sol\":264:288  taskCreator = msg.sender */\n  0x0100\n  exp\n  dup2\n  sload\n  dup2\n  0xffffffffffffffffffffffffffffffffffffffff\n  mul\n  not\n  and\n  swap1\n  dup4\n  0xffffffffffffffffffffffffffffffffffffffff\n  and\n  mul\n  or\n  swap1\n  sstore\n  pop\n    /* \"contracts/8_todolists.sol\":66:947  contract onChainToDoList {... */\n  dataSize(sub_0)\n  dup1\n  dataOffset(sub_0)\n  0x00\n  codecopy\n  0x00\n  return\nstop\n\nsub_0: assembly {\n        /* \"contracts/8_todolists.sol\":66:947  contract onChainToDoList {... */\n      mstore(0x40, 0x80)\n      callvalue\n      dup1\n      iszero\n      tag_1\n      jumpi\n      0x00\n      dup1\n      revert\n    tag_1:\n      pop\n      jumpi(tag_2, lt(calldatasize, 0x04))\n      shr(0xe0, calldataload(0x00))\n      dup1\n      0x2cc1dece\n      eq\n      tag_3\n      jumpi\n      dup1\n      0x85edf874\n      eq\n      tag_4\n      jumpi\n      dup1\n      0xd22c81e5\n      eq\n      tag_5\n      jumpi\n      dup1\n      0xd4e06ed4\n      eq\n      tag_6\n      jumpi\n      dup1\n      0xd64404fb\n      eq\n      tag_7\n      jumpi\n    tag_2:\n      0x00\n      dup1\n      revert\n        /* \"contracts/8_todolists.sol\":365:411  mapping (address => taskToAdd) public taskList */\n    tag_3:\n      tag_8\n      0x04\n      dup1\n      calldatasize\n      sub\n      dup2\n      add\n      swap1\n      tag_9\n      swap2\n      swap1\n      tag_10\n      jump\t// in\n    tag_9:\n      tag_11\n      jump\t// in\n    tag_8:\n      mload(0x40)\n      tag_12\n      swap4\n      swap3\n      swap2\n      swap1\n      tag_13\n      jump\t// in\n    tag_12:\n      mload(0x40)\n      dup1\n      swap2\n      sub\n      swap1\n      return\n        /* \"contracts/8_todolists.sol\":439:688  function createNewTask(string memory text) public {... */\n    tag_4:\n      tag_14\n      0x04\n      dup1\n      calldatasize\n      sub\n      dup2\n      add\n      swap1\n      tag_15\n      swap2\n      swap1\n      tag_16\n      jump\t// in\n    tag_15:\n      tag_17\n      jump\t// in\n    tag_14:\n      stop\n        /* \"contracts/8_todolists.sol\":335:357  uint public totalTasks */\n    tag_5:\n      tag_18\n      tag_19\n      jump\t// in\n    tag_18:\n      mload(0x40)\n      tag_20\n      swap2\n      swap1\n      tag_21\n      jump\t// in\n    tag_20:\n      mload(0x40)\n      dup1\n      swap2\n      sub\n      swap1\n      return\n        /* \"contracts/8_todolists.sol\":205:231  address public taskCreator */\n    tag_6:\n      tag_22\n      tag_23\n      jump\t// in\n    tag_22:\n      mload(0x40)\n      tag_24\n      swap2\n      swap1\n      tag_25\n      jump\t// in\n    tag_24:\n      mload(0x40)\n      dup1\n      swap2\n      sub\n      swap1\n      return\n        /* \"contracts/8_todolists.sol\":696:944  function updateTaskCompletion(address _storedBy ,bool updateValue) public {... */\n    tag_7:\n      tag_26\n      0x04\n      dup1\n      calldatasize\n      sub\n      dup2\n      add\n      swap1\n      tag_27\n      swap2\n      swap1\n      tag_28\n      jump\t// in\n    tag_27:\n      tag_29\n      jump\t// in\n    tag_26:\n      stop\n        /* \"contracts/8_todolists.sol\":365:411  mapping (address => taskToAdd) public taskList */\n    tag_11:\n      mstore(0x20, 0x02)\n      dup1\n      0x00\n      mstore\n      keccak256(0x00, 0x40)\n      0x00\n      swap2\n      pop\n      swap1\n      pop\n      dup1\n      0x00\n      add\n      sload\n      swap1\n      dup1\n      0x01\n      add\n      dup1\n      sload\n      tag_30\n      swap1\n      tag_31\n      jump\t// in\n    tag_30:\n      dup1\n      0x1f\n      add\n      0x20\n      dup1\n      swap2\n      div\n      mul\n      0x20\n      add\n      mload(0x40)\n      swap1\n      dup2\n      add\n      0x40\n      mstore\n      dup1\n      swap3\n      swap2\n      swap1\n      dup2\n      dup2\n      mstore\n      0x20\n      add\n      dup3\n      dup1\n      sload\n      tag_32\n      swap1\n      tag_31\n      jump\t// in\n    tag_32:\n      dup1\n      iszero\n      tag_33\n      jumpi\n      dup1\n      0x1f\n      lt\n      tag_34\n      jumpi\n      0x0100\n      dup1\n      dup4\n      sload\n      div\n      mul\n      dup4\n      mstore\n      swap2\n      0x20\n      add\n      swap2\n      jump(tag_33)\n    tag_34:\n      dup3\n      add\n      swap2\n      swap1\n      0x00\n      mstore\n      keccak256(0x00, 0x20)\n      swap1\n    tag_35:\n      dup2\n      sload\n      dup2\n      mstore\n      swap1\n      0x01\n      add\n      swap1\n      0x20\n      add\n      dup1\n      dup4\n      gt\n      tag_35\n      jumpi\n      dup3\n      swap1\n      sub\n      0x1f\n      and\n      dup3\n      add\n      swap2\n    tag_33:\n      pop\n      pop\n      pop\n      pop\n      pop\n      swap1\n      dup1\n      0x02\n      add\n      0x00\n      swap1\n      sload\n      swap1\n      0x0100\n      exp\n      swap1\n      div\n      0xff\n      and\n      swap1\n      pop\n      dup4\n      jump\t// out\n        /* \"contracts/8_todolists.sol\":439:688  function createNewTask(string memory text) public {... */\n    tag_17:\n        /* \"contracts/8_todolists.sol\":500:524  taskToAdd memory newTask */\n      0x00\n        /* \"contracts/8_todolists.sol\":527:565  taskToAdd( totalTasks , text , false ) */\n      mload(0x40)\n      dup1\n      0x60\n      add\n      0x40\n      mstore\n      dup1\n        /* \"contracts/8_todolists.sol\":538:548  totalTasks */\n      sload(0x01)\n        /* \"contracts/8_todolists.sol\":527:565  taskToAdd( totalTasks , text , false ) */\n      dup2\n      mstore\n      0x20\n      add\n        /* \"contracts/8_todolists.sol\":551:555  text */\n      dup4\n        /* \"contracts/8_todolists.sol\":527:565  taskToAdd( totalTasks , text , false ) */\n      dup2\n      mstore\n      0x20\n      add\n        /* \"contracts/8_todolists.sol\":558:563  false */\n      0x00\n        /* \"contracts/8_todolists.sol\":527:565  taskToAdd( totalTasks , text , false ) */\n      iszero\n      iszero\n      dup2\n      mstore\n      pop\n        /* \"contracts/8_todolists.sol\":500:565  taskToAdd memory newTask = taskToAdd( totalTasks , text , false ) */\n      swap1\n      pop\n        /* \"contracts/8_todolists.sol\":624:631  newTask */\n      dup1\n        /* \"contracts/8_todolists.sol\":601:609  taskList */\n      0x02\n        /* \"contracts/8_todolists.sol\":601:621  taskList[msg.sender] */\n      0x00\n        /* \"contracts/8_todolists.sol\":610:620  msg.sender */\n      caller\n        /* \"contracts/8_todolists.sol\":601:621  taskList[msg.sender] */\n      0xffffffffffffffffffffffffffffffffffffffff\n      and\n      0xffffffffffffffffffffffffffffffffffffffff\n      and\n      dup2\n      mstore\n      0x20\n      add\n      swap1\n      dup2\n      mstore\n      0x20\n      add\n      0x00\n      keccak256\n        /* \"contracts/8_todolists.sol\":601:631  taskList[msg.sender] = newTask */\n      0x00\n      dup3\n      add\n      mload\n      dup2\n      0x00\n      add\n      sstore\n      0x20\n      dup3\n      add\n      mload\n      dup2\n      0x01\n      add\n      swap1\n      dup2\n      tag_37\n      swap2\n      swap1\n      tag_38\n      jump\t// in\n    tag_37:\n      pop\n      0x40\n      dup3\n      add\n      mload\n      dup2\n      0x02\n      add\n      exp(0x0100, 0x00)\n      dup2\n      sload\n      dup2\n      0xff\n      mul\n      not\n      and\n      swap1\n      dup4\n      iszero\n      iszero\n      mul\n      or\n      swap1\n      sstore\n      pop\n      swap1\n      pop\n      pop\n        /* \"contracts/8_todolists.sol\":666:676  totalTasks */\n      0x01\n      0x00\n        /* \"contracts/8_todolists.sol\":666:679  totalTasks ++ */\n      dup2\n      sload\n      dup1\n      swap3\n      swap2\n      swap1\n      tag_39\n      swap1\n      tag_40\n      jump\t// in\n    tag_39:\n      swap2\n      swap1\n      pop\n      sstore\n      pop\n        /* \"contracts/8_todolists.sol\":489:688  {... */\n      pop\n        /* \"contracts/8_todolists.sol\":439:688  function createNewTask(string memory text) public {... */\n      pop\n      jump\t// out\n        /* \"contracts/8_todolists.sol\":335:357  uint public totalTasks */\n    tag_19:\n      sload(0x01)\n      dup2\n      jump\t// out\n        /* \"contracts/8_todolists.sol\":205:231  address public taskCreator */\n    tag_23:\n      0x00\n      dup1\n      sload\n      swap1\n      0x0100\n      exp\n      swap1\n      div\n      0xffffffffffffffffffffffffffffffffffffffff\n      and\n      dup2\n      jump\t// out\n        /* \"contracts/8_todolists.sol\":696:944  function updateTaskCompletion(address _storedBy ,bool updateValue) public {... */\n    tag_29:\n        /* \"contracts/8_todolists.sol\":803:814  taskCreator */\n      0x00\n      dup1\n      sload\n      swap1\n      0x0100\n      exp\n      swap1\n      div\n      0xffffffffffffffffffffffffffffffffffffffff\n      and\n        /* \"contracts/8_todolists.sol\":789:814  msg.sender == taskCreator */\n      0xffffffffffffffffffffffffffffffffffffffff\n      and\n        /* \"contracts/8_todolists.sol\":789:799  msg.sender */\n      caller\n        /* \"contracts/8_todolists.sol\":789:814  msg.sender == taskCreator */\n      0xffffffffffffffffffffffffffffffffffffffff\n      and\n      eq\n        /* \"contracts/8_todolists.sol\":781:856  require(msg.sender == taskCreator , \"UNAUTHORIZED for updation ABORTING!!\") */\n      tag_42\n      jumpi\n      mload(0x40)\n      0x08c379a000000000000000000000000000000000000000000000000000000000\n      dup2\n      mstore\n      0x04\n      add\n      tag_43\n      swap1\n      tag_44\n      jump\t// in\n    tag_43:\n      mload(0x40)\n      dup1\n      swap2\n      sub\n      swap1\n      revert\n    tag_42:\n        /* \"contracts/8_todolists.sol\":901:912  updateValue */\n      dup1\n        /* \"contracts/8_todolists.sol\":867:875  taskList */\n      0x02\n        /* \"contracts/8_todolists.sol\":867:886  taskList[_storedBy] */\n      0x00\n        /* \"contracts/8_todolists.sol\":876:885  _storedBy */\n      dup5\n        /* \"contracts/8_todolists.sol\":867:886  taskList[_storedBy] */\n      0xffffffffffffffffffffffffffffffffffffffff\n      and\n      0xffffffffffffffffffffffffffffffffffffffff\n      and\n      dup2\n      mstore\n      0x20\n      add\n      swap1\n      dup2\n      mstore\n      0x20\n      add\n      0x00\n      keccak256\n        /* \"contracts/8_todolists.sol\":867:898  taskList[_storedBy].isCompleted */\n      0x02\n      add\n      0x00\n        /* \"contracts/8_todolists.sol\":867:912  taskList[_storedBy].isCompleted = updateValue */\n      0x0100\n      exp\n      dup2\n      sload\n      dup2\n      0xff\n      mul\n      not\n      and\n      swap1\n      dup4\n      iszero\n      iszero\n      mul\n      or\n      swap1\n      sstore\n      pop\n        /* \"contracts/8_todolists.sol\":696:944  function updateTaskCompletion(address _storedBy ,bool updateValue) public {... */\n      pop\n      pop\n      jump\t// out\n        /* \"#utility.yul\":7:82   */\n    tag_45:\n        /* \"#utility.yul\":40:46   */\n      0x00\n        /* \"#utility.yul\":73:75   */\n      0x40\n        /* \"#utility.yul\":67:76   */\n      mload\n        /* \"#utility.yul\":57:76   */\n      swap1\n      pop\n        /* \"#utility.yul\":7:82   */\n      swap1\n      jump\t// out\n        /* \"#utility.yul\":88:205   */\n    tag_46:\n        /* \"#utility.yul\":197:198   */\n      0x00\n        /* \"#utility.yul\":194:195   */\n      dup1\n        /* \"#utility.yul\":187:199   */\n      revert\n        /* \"#utility.yul\":211:328   */\n    tag_47:\n        /* \"#utility.yul\":320:321   */\n      0x00\n        /* \"#utility.yul\":317:318   */\n      dup1\n        /* \"#utility.yul\":310:322   */\n      revert\n        /* \"#utility.yul\":334:460   */\n    tag_48:\n        /* \"#utility.yul\":371:378   */\n      0x00\n        /* \"#utility.yul\":411:453   */\n      0xffffffffffffffffffffffffffffffffffffffff\n        /* \"#utility.yul\":404:409   */\n      dup3\n        /* \"#utility.yul\":400:454   */\n      and\n        /* \"#utility.yul\":389:454   */\n      swap1\n      pop\n        /* \"#utility.yul\":334:460   */\n      swap2\n      swap1\n      pop\n      jump\t// out\n        /* \"#utility.yul\":466:562   */\n    tag_49:\n        /* \"#utility.yul\":503:510   */\n      0x00\n        /* \"#utility.yul\":532:556   */\n      tag_98\n        /* \"#utility.yul\":550:555   */\n      dup3\n        /* \"#utility.yul\":532:556   */\n      tag_48\n      jump\t// in\n    tag_98:\n        /* \"#utility.yul\":521:556   */\n      swap1\n      pop\n        /* \"#utility.yul\":466:562   */\n      swap2\n      swap1\n      pop\n      jump\t// out\n        /* \"#utility.yul\":568:690   */\n    tag_50:\n        /* \"#utility.yul\":641:665   */\n      tag_100\n        /* \"#utility.yul\":659:664   */\n      dup2\n        /* \"#utility.yul\":641:665   */\n      tag_49\n      jump\t// in\n    tag_100:\n        /* \"#utility.yul\":634:639   */\n      dup2\n        /* \"#utility.yul\":631:666   */\n      eq\n        /* \"#utility.yul\":621:684   */\n      tag_101\n      jumpi\n        /* \"#utility.yul\":680:681   */\n      0x00\n        /* \"#utility.yul\":677:678   */\n      dup1\n        /* \"#utility.yul\":670:682   */\n      revert\n        /* \"#utility.yul\":621:684   */\n    tag_101:\n        /* \"#utility.yul\":568:690   */\n      pop\n      jump\t// out\n        /* \"#utility.yul\":696:835   */\n    tag_51:\n        /* \"#utility.yul\":742:747   */\n      0x00\n        /* \"#utility.yul\":780:786   */\n      dup2\n        /* \"#utility.yul\":767:787   */\n      calldataload\n        /* \"#utility.yul\":758:787   */\n      swap1\n      pop\n        /* \"#utility.yul\":796:829   */\n      tag_103\n        /* \"#utility.yul\":823:828   */\n      dup2\n        /* \"#utility.yul\":796:829   */\n      tag_50\n      jump\t// in\n    tag_103:\n        /* \"#utility.yul\":696:835   */\n      swap3\n      swap2\n      pop\n      pop\n      jump\t// out\n        /* \"#utility.yul\":841:1170   */\n    tag_10:\n        /* \"#utility.yul\":900:906   */\n      0x00\n        /* \"#utility.yul\":949:951   */\n      0x20\n        /* \"#utility.yul\":937:946   */\n      dup3\n        /* \"#utility.yul\":928:935   */\n      dup5\n        /* \"#utility.yul\":924:947   */\n      sub\n        /* \"#utility.yul\":920:952   */\n      slt\n        /* \"#utility.yul\":917:1036   */\n      iszero\n      tag_105\n      jumpi\n        /* \"#utility.yul\":955:1034   */\n      tag_106\n      tag_46\n      jump\t// in\n    tag_106:\n        /* \"#utility.yul\":917:1036   */\n    tag_105:\n        /* \"#utility.yul\":1075:1076   */\n      0x00\n        /* \"#utility.yul\":1100:1153   */\n      tag_107\n        /* \"#utility.yul\":1145:1152   */\n      dup5\n        /* \"#utility.yul\":1136:1142   */\n      dup3\n        /* \"#utility.yul\":1125:1134   */\n      dup6\n        /* \"#utility.yul\":1121:1143   */\n      add\n        /* \"#utility.yul\":1100:1153   */\n      tag_51\n      jump\t// in\n    tag_107:\n        /* \"#utility.yul\":1090:1153   */\n      swap2\n      pop\n        /* \"#utility.yul\":1046:1163   */\n      pop\n        /* \"#utility.yul\":841:1170   */\n      swap3\n      swap2\n      pop\n      pop\n      jump\t// out\n        /* \"#utility.yul\":1176:1253   */\n    tag_52:\n        /* \"#utility.yul\":1213:1220   */\n      0x00\n        /* \"#utility.yul\":1242:1247   */\n      dup2\n        /* \"#utility.yul\":1231:1247   */\n      swap1\n      pop\n        /* \"#utility.yul\":1176:1253   */\n      swap2\n      swap1\n      pop\n      jump\t// out\n        /* \"#utility.yul\":1259:1377   */\n    tag_53:\n        /* \"#utility.yul\":1346:1370   */\n      tag_110\n        /* \"#utility.yul\":1364:1369   */\n      dup2\n        /* \"#utility.yul\":1346:1370   */\n      tag_52\n      jump\t// in\n    tag_110:\n        /* \"#utility.yul\":1341:1344   */\n      dup3\n        /* \"#utility.yul\":1334:1371   */\n      mstore\n        /* \"#utility.yul\":1259:1377   */\n      pop\n      pop\n      jump\t// out\n        /* \"#utility.yul\":1383:1482   */\n    tag_54:\n        /* \"#utility.yul\":1435:1441   */\n      0x00\n        /* \"#utility.yul\":1469:1474   */\n      dup2\n        /* \"#utility.yul\":1463:1475   */\n      mload\n        /* \"#utility.yul\":1453:1475   */\n      swap1\n      pop\n        /* \"#utility.yul\":1383:1482   */\n      swap2\n      swap1\n      pop\n      jump\t// out\n        /* \"#utility.yul\":1488:1657   */\n    tag_55:\n        /* \"#utility.yul\":1572:1583   */\n      0x00\n        /* \"#utility.yul\":1606:1612   */\n      dup3\n        /* \"#utility.yul\":1601:1604   */\n      dup3\n        /* \"#utility.yul\":1594:1613   */\n      mstore\n        /* \"#utility.yul\":1646:1650   */\n      0x20\n        /* \"#utility.yul\":1641:1644   */\n      dup3\n        /* \"#utility.yul\":1637:1651   */\n      add\n        /* \"#utility.yul\":1622:1651   */\n      swap1\n      pop\n        /* \"#utility.yul\":1488:1657   */\n      swap3\n      swap2\n      pop\n      pop\n      jump\t// out\n        /* \"#utility.yul\":1663:1970   */\n    tag_56:\n        /* \"#utility.yul\":1731:1732   */\n      0x00\n        /* \"#utility.yul\":1741:1854   */\n    tag_114:\n        /* \"#utility.yul\":1755:1761   */\n      dup4\n        /* \"#utility.yul\":1752:1753   */\n      dup2\n        /* \"#utility.yul\":1749:1762   */\n      lt\n        /* \"#utility.yul\":1741:1854   */\n      iszero\n      tag_116\n      jumpi\n        /* \"#utility.yul\":1840:1841   */\n      dup1\n        /* \"#utility.yul\":1835:1838   */\n      dup3\n        /* \"#utility.yul\":1831:1842   */\n      add\n        /* \"#utility.yul\":1825:1843   */\n      mload\n        /* \"#utility.yul\":1821:1822   */\n      dup2\n        /* \"#utility.yul\":1816:1819   */\n      dup5\n        /* \"#utility.yul\":1812:1823   */\n      add\n        /* \"#utility.yul\":1805:1844   */\n      mstore\n        /* \"#utility.yul\":1777:1779   */\n      0x20\n        /* \"#utility.yul\":1774:1775   */\n      dup2\n        /* \"#utility.yul\":1770:1780   */\n      add\n        /* \"#utility.yul\":1765:1780   */\n      swap1\n      pop\n        /* \"#utility.yul\":1741:1854   */\n      jump(tag_114)\n    tag_116:\n        /* \"#utility.yul\":1872:1878   */\n      dup4\n        /* \"#utility.yul\":1869:1870   */\n      dup2\n        /* \"#utility.yul\":1866:1879   */\n      gt\n        /* \"#utility.yul\":1863:1964   */\n      iszero\n      tag_117\n      jumpi\n        /* \"#utility.yul\":1952:1953   */\n      0x00\n        /* \"#utility.yul\":1943:1949   */\n      dup5\n        /* \"#utility.yul\":1938:1941   */\n      dup5\n        /* \"#utility.yul\":1934:1950   */\n      add\n        /* \"#utility.yul\":1927:1954   */\n      mstore\n        /* \"#utility.yul\":1863:1964   */\n    tag_117:\n        /* \"#utility.yul\":1712:1970   */\n      pop\n        /* \"#utility.yul\":1663:1970   */\n      pop\n      pop\n      pop\n      jump\t// out\n        /* \"#utility.yul\":1976:2078   */\n    tag_57:\n        /* \"#utility.yul\":2017:2023   */\n      0x00\n        /* \"#utility.yul\":2068:2070   */\n      0x1f\n        /* \"#utility.yul\":2064:2071   */\n      not\n        /* \"#utility.yul\":2059:2061   */\n      0x1f\n        /* \"#utility.yul\":2052:2057   */\n      dup4\n        /* \"#utility.yul\":2048:2062   */\n      add\n        /* \"#utility.yul\":2044:2072   */\n      and\n        /* \"#utility.yul\":2034:2072   */\n      swap1\n      pop\n        /* \"#utility.yul\":1976:2078   */\n      swap2\n      swap1\n      pop\n      jump\t// out\n        /* \"#utility.yul\":2084:2448   */\n    tag_58:\n        /* \"#utility.yul\":2172:2175   */\n      0x00\n        /* \"#utility.yul\":2200:2239   */\n      tag_120\n        /* \"#utility.yul\":2233:2238   */\n      dup3\n        /* \"#utility.yul\":2200:2239   */\n      tag_54\n      jump\t// in\n    tag_120:\n        /* \"#utility.yul\":2255:2326   */\n      tag_121\n        /* \"#utility.yul\":2319:2325   */\n      dup2\n        /* \"#utility.yul\":2314:2317   */\n      dup6\n        /* \"#utility.yul\":2255:2326   */\n      tag_55\n      jump\t// in\n    tag_121:\n        /* \"#utility.yul\":2248:2326   */\n      swap4\n      pop\n        /* \"#utility.yul\":2335:2387   */\n      tag_122\n        /* \"#utility.yul\":2380:2386   */\n      dup2\n        /* \"#utility.yul\":2375:2378   */\n      dup6\n        /* \"#utility.yul\":2368:2372   */\n      0x20\n        /* \"#utility.yul\":2361:2366   */\n      dup7\n        /* \"#utility.yul\":2357:2373   */\n      add\n        /* \"#utility.yul\":2335:2387   */\n      tag_56\n      jump\t// in\n    tag_122:\n        /* \"#utility.yul\":2412:2441   */\n      tag_123\n        /* \"#utility.yul\":2434:2440   */\n      dup2\n        /* \"#utility.yul\":2412:2441   */\n      tag_57\n      jump\t// in\n    tag_123:\n        /* \"#utility.yul\":2407:2410   */\n      dup5\n        /* \"#utility.yul\":2403:2442   */\n      add\n        /* \"#utility.yul\":2396:2442   */\n      swap2\n      pop\n        /* \"#utility.yul\":2176:2448   */\n      pop\n        /* \"#utility.yul\":2084:2448   */\n      swap3\n      swap2\n      pop\n      pop\n      jump\t// out\n        /* \"#utility.yul\":2454:2544   */\n    tag_59:\n        /* \"#utility.yul\":2488:2495   */\n      0x00\n        /* \"#utility.yul\":2531:2536   */\n      dup2\n        /* \"#utility.yul\":2524:2537   */\n      iszero\n        /* \"#utility.yul\":2517:2538   */\n      iszero\n        /* \"#utility.yul\":2506:2538   */\n      swap1\n      pop\n        /* \"#utility.yul\":2454:2544   */\n      swap2\n      swap1\n      pop\n      jump\t// out\n        /* \"#utility.yul\":2550:2659   */\n    tag_60:\n        /* \"#utility.yul\":2631:2652   */\n      tag_126\n        /* \"#utility.yul\":2646:2651   */\n      dup2\n        /* \"#utility.yul\":2631:2652   */\n      tag_59\n      jump\t// in\n    tag_126:\n        /* \"#utility.yul\":2626:2629   */\n      dup3\n        /* \"#utility.yul\":2619:2653   */\n      mstore\n        /* \"#utility.yul\":2550:2659   */\n      pop\n      pop\n      jump\t// out\n        /* \"#utility.yul\":2665:3186   */\n    tag_13:\n        /* \"#utility.yul\":2828:2832   */\n      0x00\n        /* \"#utility.yul\":2866:2868   */\n      0x60\n        /* \"#utility.yul\":2855:2864   */\n      dup3\n        /* \"#utility.yul\":2851:2869   */\n      add\n        /* \"#utility.yul\":2843:2869   */\n      swap1\n      pop\n        /* \"#utility.yul\":2879:2950   */\n      tag_128\n        /* \"#utility.yul\":2947:2948   */\n      0x00\n        /* \"#utility.yul\":2936:2945   */\n      dup4\n        /* \"#utility.yul\":2932:2949   */\n      add\n        /* \"#utility.yul\":2923:2929   */\n      dup7\n        /* \"#utility.yul\":2879:2950   */\n      tag_53\n      jump\t// in\n    tag_128:\n        /* \"#utility.yul\":2997:3006   */\n      dup2\n        /* \"#utility.yul\":2991:2995   */\n      dup2\n        /* \"#utility.yul\":2987:3007   */\n      sub\n        /* \"#utility.yul\":2982:2984   */\n      0x20\n        /* \"#utility.yul\":2971:2980   */\n      dup4\n        /* \"#utility.yul\":2967:2985   */\n      add\n        /* \"#utility.yul\":2960:3008   */\n      mstore\n        /* \"#utility.yul\":3025:3103   */\n      tag_129\n        /* \"#utility.yul\":3098:3102   */\n      dup2\n        /* \"#utility.yul\":3089:3095   */\n      dup6\n        /* \"#utility.yul\":3025:3103   */\n      tag_58\n      jump\t// in\n    tag_129:\n        /* \"#utility.yul\":3017:3103   */\n      swap1\n      pop\n        /* \"#utility.yul\":3113:3179   */\n      tag_130\n        /* \"#utility.yul\":3175:3177   */\n      0x40\n        /* \"#utility.yul\":3164:3173   */\n      dup4\n        /* \"#utility.yul\":3160:3178   */\n      add\n        /* \"#utility.yul\":3151:3157   */\n      dup5\n        /* \"#utility.yul\":3113:3179   */\n      tag_60\n      jump\t// in\n    tag_130:\n        /* \"#utility.yul\":2665:3186   */\n      swap5\n      swap4\n      pop\n      pop\n      pop\n      pop\n      jump\t// out\n        /* \"#utility.yul\":3192:3309   */\n    tag_61:\n        /* \"#utility.yul\":3301:3302   */\n      0x00\n        /* \"#utility.yul\":3298:3299   */\n      dup1\n        /* \"#utility.yul\":3291:3303   */\n      revert\n        /* \"#utility.yul\":3315:3432   */\n    tag_62:\n        /* \"#utility.yul\":3424:3425   */\n      0x00\n        /* \"#utility.yul\":3421:3422   */\n      dup1\n        /* \"#utility.yul\":3414:3426   */\n      revert\n        /* \"#utility.yul\":3438:3618   */\n    tag_63:\n        /* \"#utility.yul\":3486:3563   */\n      0x4e487b7100000000000000000000000000000000000000000000000000000000\n        /* \"#utility.yul\":3483:3484   */\n      0x00\n        /* \"#utility.yul\":3476:3564   */\n      mstore\n        /* \"#utility.yul\":3583:3587   */\n      0x41\n        /* \"#utility.yul\":3580:3581   */\n      0x04\n        /* \"#utility.yul\":3573:3588   */\n      mstore\n        /* \"#utility.yul\":3607:3611   */\n      0x24\n        /* \"#utility.yul\":3604:3605   */\n      0x00\n        /* \"#utility.yul\":3597:3612   */\n      revert\n        /* \"#utility.yul\":3624:3905   */\n    tag_64:\n        /* \"#utility.yul\":3707:3734   */\n      tag_135\n        /* \"#utility.yul\":3729:3733   */\n      dup3\n        /* \"#utility.yul\":3707:3734   */\n      tag_57\n      jump\t// in\n    tag_135:\n        /* \"#utility.yul\":3699:3705   */\n      dup2\n        /* \"#utility.yul\":3695:3735   */\n      add\n        /* \"#utility.yul\":3837:3843   */\n      dup2\n        /* \"#utility.yul\":3825:3835   */\n      dup2\n        /* \"#utility.yul\":3822:3844   */\n      lt\n        /* \"#utility.yul\":3801:3819   */\n      0xffffffffffffffff\n        /* \"#utility.yul\":3789:3799   */\n      dup3\n        /* \"#utility.yul\":3786:3820   */\n      gt\n        /* \"#utility.yul\":3783:3845   */\n      or\n        /* \"#utility.yul\":3780:3868   */\n      iszero\n      tag_136\n      jumpi\n        /* \"#utility.yul\":3848:3866   */\n      tag_137\n      tag_63\n      jump\t// in\n    tag_137:\n        /* \"#utility.yul\":3780:3868   */\n    tag_136:\n        /* \"#utility.yul\":3888:3898   */\n      dup1\n        /* \"#utility.yul\":3884:3886   */\n      0x40\n        /* \"#utility.yul\":3877:3899   */\n      mstore\n        /* \"#utility.yul\":3667:3905   */\n      pop\n        /* \"#utility.yul\":3624:3905   */\n      pop\n      pop\n      jump\t// out\n        /* \"#utility.yul\":3911:4040   */\n    tag_65:\n        /* \"#utility.yul\":3945:3951   */\n      0x00\n        /* \"#utility.yul\":3972:3992   */\n      tag_139\n      tag_45\n      jump\t// in\n    tag_139:\n        /* \"#utility.yul\":3962:3992   */\n      swap1\n      pop\n        /* \"#utility.yul\":4001:4034   */\n      tag_140\n        /* \"#utility.yul\":4029:4033   */\n      dup3\n        /* \"#utility.yul\":4021:4027   */\n      dup3\n        /* \"#utility.yul\":4001:4034   */\n      tag_64\n      jump\t// in\n    tag_140:\n        /* \"#utility.yul\":3911:4040   */\n      swap2\n      swap1\n      pop\n      jump\t// out\n        /* \"#utility.yul\":4046:4354   */\n    tag_66:\n        /* \"#utility.yul\":4108:4112   */\n      0x00\n        /* \"#utility.yul\":4198:4216   */\n      0xffffffffffffffff\n        /* \"#utility.yul\":4190:4196   */\n      dup3\n        /* \"#utility.yul\":4187:4217   */\n      gt\n        /* \"#utility.yul\":4184:4240   */\n      iszero\n      tag_142\n      jumpi\n        /* \"#utility.yul\":4220:4238   */\n      tag_143\n      tag_63\n      jump\t// in\n    tag_143:\n        /* \"#utility.yul\":4184:4240   */\n    tag_142:\n        /* \"#utility.yul\":4258:4287   */\n      tag_144\n        /* \"#utility.yul\":4280:4286   */\n      dup3\n        /* \"#utility.yul\":4258:4287   */\n      tag_57\n      jump\t// in\n    tag_144:\n        /* \"#utility.yul\":4250:4287   */\n      swap1\n      pop\n        /* \"#utility.yul\":4342:4346   */\n      0x20\n        /* \"#utility.yul\":4336:4340   */\n      dup2\n        /* \"#utility.yul\":4332:4347   */\n      add\n        /* \"#utility.yul\":4324:4347   */\n      swap1\n      pop\n        /* \"#utility.yul\":4046:4354   */\n      swap2\n      swap1\n      pop\n      jump\t// out\n        /* \"#utility.yul\":4360:4514   */\n    tag_67:\n        /* \"#utility.yul\":4444:4450   */\n      dup3\n        /* \"#utility.yul\":4439:4442   */\n      dup2\n        /* \"#utility.yul\":4434:4437   */\n      dup4\n        /* \"#utility.yul\":4421:4451   */\n      calldatacopy\n        /* \"#utility.yul\":4506:4507   */\n      0x00\n        /* \"#utility.yul\":4497:4503   */\n      dup4\n        /* \"#utility.yul\":4492:4495   */\n      dup4\n        /* \"#utility.yul\":4488:4504   */\n      add\n        /* \"#utility.yul\":4481:4508   */\n      mstore\n        /* \"#utility.yul\":4360:4514   */\n      pop\n      pop\n      pop\n      jump\t// out\n        /* \"#utility.yul\":4520:4932   */\n    tag_68:\n        /* \"#utility.yul\":4598:4603   */\n      0x00\n        /* \"#utility.yul\":4623:4689   */\n      tag_147\n        /* \"#utility.yul\":4639:4688   */\n      tag_148\n        /* \"#utility.yul\":4681:4687   */\n      dup5\n        /* \"#utility.yul\":4639:4688   */\n      tag_66\n      jump\t// in\n    tag_148:\n        /* \"#utility.yul\":4623:4689   */\n      tag_65\n      jump\t// in\n    tag_147:\n        /* \"#utility.yul\":4614:4689   */\n      swap1\n      pop\n        /* \"#utility.yul\":4712:4718   */\n      dup3\n        /* \"#utility.yul\":4705:4710   */\n      dup2\n        /* \"#utility.yul\":4698:4719   */\n      mstore\n        /* \"#utility.yul\":4750:4754   */\n      0x20\n        /* \"#utility.yul\":4743:4748   */\n      dup2\n        /* \"#utility.yul\":4739:4755   */\n      add\n        /* \"#utility.yul\":4788:4791   */\n      dup5\n        /* \"#utility.yul\":4779:4785   */\n      dup5\n        /* \"#utility.yul\":4774:4777   */\n      dup5\n        /* \"#utility.yul\":4770:4786   */\n      add\n        /* \"#utility.yul\":4767:4792   */\n      gt\n        /* \"#utility.yul\":4764:4876   */\n      iszero\n      tag_149\n      jumpi\n        /* \"#utility.yul\":4795:4874   */\n      tag_150\n      tag_62\n      jump\t// in\n    tag_150:\n        /* \"#utility.yul\":4764:4876   */\n    tag_149:\n        /* \"#utility.yul\":4885:4926   */\n      tag_151\n        /* \"#utility.yul\":4919:4925   */\n      dup5\n        /* \"#utility.yul\":4914:4917   */\n      dup3\n        /* \"#utility.yul\":4909:4912   */\n      dup6\n        /* \"#utility.yul\":4885:4926   */\n      tag_67\n      jump\t// in\n    tag_151:\n        /* \"#utility.yul\":4604:4932   */\n      pop\n        /* \"#utility.yul\":4520:4932   */\n      swap4\n      swap3\n      pop\n      pop\n      pop\n      jump\t// out\n        /* \"#utility.yul\":4952:5292   */\n    tag_69:\n        /* \"#utility.yul\":5008:5013   */\n      0x00\n        /* \"#utility.yul\":5057:5060   */\n      dup3\n        /* \"#utility.yul\":5050:5054   */\n      0x1f\n        /* \"#utility.yul\":5042:5048   */\n      dup4\n        /* \"#utility.yul\":5038:5055   */\n      add\n        /* \"#utility.yul\":5034:5061   */\n      slt\n        /* \"#utility.yul\":5024:5146   */\n      tag_153\n      jumpi\n        /* \"#utility.yul\":5065:5144   */\n      tag_154\n      tag_61\n      jump\t// in\n    tag_154:\n        /* \"#utility.yul\":5024:5146   */\n    tag_153:\n        /* \"#utility.yul\":5182:5188   */\n      dup2\n        /* \"#utility.yul\":5169:5189   */\n      calldataload\n        /* \"#utility.yul\":5207:5286   */\n      tag_155\n        /* \"#utility.yul\":5282:5285   */\n      dup5\n        /* \"#utility.yul\":5274:5280   */\n      dup3\n        /* \"#utility.yul\":5267:5271   */\n      0x20\n        /* \"#utility.yul\":5259:5265   */\n      dup7\n        /* \"#utility.yul\":5255:5272   */\n      add\n        /* \"#utility.yul\":5207:5286   */\n      tag_68\n      jump\t// in\n    tag_155:\n        /* \"#utility.yul\":5198:5286   */\n      swap2\n      pop\n        /* \"#utility.yul\":5014:5292   */\n      pop\n        /* \"#utility.yul\":4952:5292   */\n      swap3\n      swap2\n      pop\n      pop\n      jump\t// out\n        /* \"#utility.yul\":5298:5807   */\n    tag_16:\n        /* \"#utility.yul\":5367:5373   */\n      0x00\n        /* \"#utility.yul\":5416:5418   */\n      0x20\n        /* \"#utility.yul\":5404:5413   */\n      dup3\n        /* \"#utility.yul\":5395:5402   */\n      dup5\n        /* \"#utility.yul\":5391:5414   */\n      sub\n        /* \"#utility.yul\":5387:5419   */\n      slt\n        /* \"#utility.yul\":5384:5503   */\n      iszero\n      tag_157\n      jumpi\n        /* \"#utility.yul\":5422:5501   */\n      tag_158\n      tag_46\n      jump\t// in\n    tag_158:\n        /* \"#utility.yul\":5384:5503   */\n    tag_157:\n        /* \"#utility.yul\":5570:5571   */\n      0x00\n        /* \"#utility.yul\":5559:5568   */\n      dup3\n        /* \"#utility.yul\":5555:5572   */\n      add\n        /* \"#utility.yul\":5542:5573   */\n      calldataload\n        /* \"#utility.yul\":5600:5618   */\n      0xffffffffffffffff\n        /* \"#utility.yul\":5592:5598   */\n      dup2\n        /* \"#utility.yul\":5589:5619   */\n      gt\n        /* \"#utility.yul\":5586:5703   */\n      iszero\n      tag_159\n      jumpi\n        /* \"#utility.yul\":5622:5701   */\n      tag_160\n      tag_47\n      jump\t// in\n    tag_160:\n        /* \"#utility.yul\":5586:5703   */\n    tag_159:\n        /* \"#utility.yul\":5727:5790   */\n      tag_161\n        /* \"#utility.yul\":5782:5789   */\n      dup5\n        /* \"#utility.yul\":5773:5779   */\n      dup3\n        /* \"#utility.yul\":5762:5771   */\n      dup6\n        /* \"#utility.yul\":5758:5780   */\n      add\n        /* \"#utility.yul\":5727:5790   */\n      tag_69\n      jump\t// in\n    tag_161:\n        /* \"#utility.yul\":5717:5790   */\n      swap2\n      pop\n        /* \"#utility.yul\":5513:5800   */\n      pop\n        /* \"#utility.yul\":5298:5807   */\n      swap3\n      swap2\n      pop\n      pop\n      jump\t// out\n        /* \"#utility.yul\":5813:6035   */\n    tag_21:\n        /* \"#utility.yul\":5906:5910   */\n      0x00\n        /* \"#utility.yul\":5944:5946   */\n      0x20\n        /* \"#utility.yul\":5933:5942   */\n      dup3\n        /* \"#utility.yul\":5929:5947   */\n      add\n        /* \"#utility.yul\":5921:5947   */\n      swap1\n      pop\n        /* \"#utility.yul\":5957:6028   */\n      tag_163\n        /* \"#utility.yul\":6025:6026   */\n      0x00\n        /* \"#utility.yul\":6014:6023   */\n      dup4\n        /* \"#utility.yul\":6010:6027   */\n      add\n        /* \"#utility.yul\":6001:6007   */\n      dup5\n        /* \"#utility.yul\":5957:6028   */\n      tag_53\n      jump\t// in\n    tag_163:\n        /* \"#utility.yul\":5813:6035   */\n      swap3\n      swap2\n      pop\n      pop\n      jump\t// out\n        /* \"#utility.yul\":6041:6159   */\n    tag_70:\n        /* \"#utility.yul\":6128:6152   */\n      tag_165\n        /* \"#utility.yul\":6146:6151   */\n      dup2\n        /* \"#utility.yul\":6128:6152   */\n      tag_49\n      jump\t// in\n    tag_165:\n        /* \"#utility.yul\":6123:6126   */\n      dup3\n        /* \"#utility.yul\":6116:6153   */\n      mstore\n        /* \"#utility.yul\":6041:6159   */\n      pop\n      pop\n      jump\t// out\n        /* \"#utility.yul\":6165:6387   */\n    tag_25:\n        /* \"#utility.yul\":6258:6262   */\n      0x00\n        /* \"#utility.yul\":6296:6298   */\n      0x20\n        /* \"#utility.yul\":6285:6294   */\n      dup3\n        /* \"#utility.yul\":6281:6299   */\n      add\n        /* \"#utility.yul\":6273:6299   */\n      swap1\n      pop\n        /* \"#utility.yul\":6309:6380   */\n      tag_167\n        /* \"#utility.yul\":6377:6378   */\n      0x00\n        /* \"#utility.yul\":6366:6375   */\n      dup4\n        /* \"#utility.yul\":6362:6379   */\n      add\n        /* \"#utility.yul\":6353:6359   */\n      dup5\n        /* \"#utility.yul\":6309:6380   */\n      tag_70\n      jump\t// in\n    tag_167:\n        /* \"#utility.yul\":6165:6387   */\n      swap3\n      swap2\n      pop\n      pop\n      jump\t// out\n        /* \"#utility.yul\":6393:6509   */\n    tag_71:\n        /* \"#utility.yul\":6463:6484   */\n      tag_169\n        /* \"#utility.yul\":6478:6483   */\n      dup2\n        /* \"#utility.yul\":6463:6484   */\n      tag_59\n      jump\t// in\n    tag_169:\n        /* \"#utility.yul\":6456:6461   */\n      dup2\n        /* \"#utility.yul\":6453:6485   */\n      eq\n        /* \"#utility.yul\":6443:6503   */\n      tag_170\n      jumpi\n        /* \"#utility.yul\":6499:6500   */\n      0x00\n        /* \"#utility.yul\":6496:6497   */\n      dup1\n        /* \"#utility.yul\":6489:6501   */\n      revert\n        /* \"#utility.yul\":6443:6503   */\n    tag_170:\n        /* \"#utility.yul\":6393:6509   */\n      pop\n      jump\t// out\n        /* \"#utility.yul\":6515:6648   */\n    tag_72:\n        /* \"#utility.yul\":6558:6563   */\n      0x00\n        /* \"#utility.yul\":6596:6602   */\n      dup2\n        /* \"#utility.yul\":6583:6603   */\n      calldataload\n        /* \"#utility.yul\":6574:6603   */\n      swap1\n      pop\n        /* \"#utility.yul\":6612:6642   */\n      tag_172\n        /* \"#utility.yul\":6636:6641   */\n      dup2\n        /* \"#utility.yul\":6612:6642   */\n      tag_71\n      jump\t// in\n    tag_172:\n        /* \"#utility.yul\":6515:6648   */\n      swap3\n      swap2\n      pop\n      pop\n      jump\t// out\n        /* \"#utility.yul\":6654:7122   */\n    tag_28:\n        /* \"#utility.yul\":6719:6725   */\n      0x00\n        /* \"#utility.yul\":6727:6733   */\n      dup1\n        /* \"#utility.yul\":6776:6778   */\n      0x40\n        /* \"#utility.yul\":6764:6773   */\n      dup4\n        /* \"#utility.yul\":6755:6762   */\n      dup6\n        /* \"#utility.yul\":6751:6774   */\n      sub\n        /* \"#utility.yul\":6747:6779   */\n      slt\n        /* \"#utility.yul\":6744:6863   */\n      iszero\n      tag_174\n      jumpi\n        /* \"#utility.yul\":6782:6861   */\n      tag_175\n      tag_46\n      jump\t// in\n    tag_175:\n        /* \"#utility.yul\":6744:6863   */\n    tag_174:\n        /* \"#utility.yul\":6902:6903   */\n      0x00\n        /* \"#utility.yul\":6927:6980   */\n      tag_176\n        /* \"#utility.yul\":6972:6979   */\n      dup6\n        /* \"#utility.yul\":6963:6969   */\n      dup3\n        /* \"#utility.yul\":6952:6961   */\n      dup7\n        /* \"#utility.yul\":6948:6970   */\n      add\n        /* \"#utility.yul\":6927:6980   */\n      tag_51\n      jump\t// in\n    tag_176:\n        /* \"#utility.yul\":6917:6980   */\n      swap3\n      pop\n        /* \"#utility.yul\":6873:6990   */\n      pop\n        /* \"#utility.yul\":7029:7031   */\n      0x20\n        /* \"#utility.yul\":7055:7105   */\n      tag_177\n        /* \"#utility.yul\":7097:7104   */\n      dup6\n        /* \"#utility.yul\":7088:7094   */\n      dup3\n        /* \"#utility.yul\":7077:7086   */\n      dup7\n        /* \"#utility.yul\":7073:7095   */\n      add\n        /* \"#utility.yul\":7055:7105   */\n      tag_72\n      jump\t// in\n    tag_177:\n        /* \"#utility.yul\":7045:7105   */\n      swap2\n      pop\n        /* \"#utility.yul\":7000:7115   */\n      pop\n        /* \"#utility.yul\":6654:7122   */\n      swap3\n      pop\n      swap3\n      swap1\n      pop\n      jump\t// out\n        /* \"#utility.yul\":7128:7308   */\n    tag_73:\n        /* \"#utility.yul\":7176:7253   */\n      0x4e487b7100000000000000000000000000000000000000000000000000000000\n        /* \"#utility.yul\":7173:7174   */\n      0x00\n        /* \"#utility.yul\":7166:7254   */\n      mstore\n        /* \"#utility.yul\":7273:7277   */\n      0x22\n        /* \"#utility.yul\":7270:7271   */\n      0x04\n        /* \"#utility.yul\":7263:7278   */\n      mstore\n        /* \"#utility.yul\":7297:7301   */\n      0x24\n        /* \"#utility.yul\":7294:7295   */\n      0x00\n        /* \"#utility.yul\":7287:7302   */\n      revert\n        /* \"#utility.yul\":7314:7634   */\n    tag_31:\n        /* \"#utility.yul\":7358:7364   */\n      0x00\n        /* \"#utility.yul\":7395:7396   */\n      0x02\n        /* \"#utility.yul\":7389:7393   */\n      dup3\n        /* \"#utility.yul\":7385:7397   */\n      div\n        /* \"#utility.yul\":7375:7397   */\n      swap1\n      pop\n        /* \"#utility.yul\":7442:7443   */\n      0x01\n        /* \"#utility.yul\":7436:7440   */\n      dup3\n        /* \"#utility.yul\":7432:7444   */\n      and\n        /* \"#utility.yul\":7463:7481   */\n      dup1\n        /* \"#utility.yul\":7453:7534   */\n      tag_180\n      jumpi\n        /* \"#utility.yul\":7519:7523   */\n      0x7f\n        /* \"#utility.yul\":7511:7517   */\n      dup3\n        /* \"#utility.yul\":7507:7524   */\n      and\n        /* \"#utility.yul\":7497:7524   */\n      swap2\n      pop\n        /* \"#utility.yul\":7453:7534   */\n    tag_180:\n        /* \"#utility.yul\":7581:7583   */\n      0x20\n        /* \"#utility.yul\":7573:7579   */\n      dup3\n        /* \"#utility.yul\":7570:7584   */\n      lt\n        /* \"#utility.yul\":7550:7568   */\n      dup2\n        /* \"#utility.yul\":7547:7585   */\n      sub\n        /* \"#utility.yul\":7544:7628   */\n      tag_181\n      jumpi\n        /* \"#utility.yul\":7600:7618   */\n      tag_182\n      tag_73\n      jump\t// in\n    tag_182:\n        /* \"#utility.yul\":7544:7628   */\n    tag_181:\n        /* \"#utility.yul\":7365:7634   */\n      pop\n        /* \"#utility.yul\":7314:7634   */\n      swap2\n      swap1\n      pop\n      jump\t// out\n        /* \"#utility.yul\":7640:7781   */\n    tag_74:\n        /* \"#utility.yul\":7689:7693   */\n      0x00\n        /* \"#utility.yul\":7712:7715   */\n      dup2\n        /* \"#utility.yul\":7704:7715   */\n      swap1\n      pop\n        /* \"#utility.yul\":7735:7738   */\n      dup2\n        /* \"#utility.yul\":7732:7733   */\n      0x00\n        /* \"#utility.yul\":7725:7739   */\n      mstore\n        /* \"#utility.yul\":7769:7773   */\n      0x20\n        /* \"#utility.yul\":7766:7767   */\n      0x00\n        /* \"#utility.yul\":7756:7774   */\n      keccak256\n        /* \"#utility.yul\":7748:7774   */\n      swap1\n      pop\n        /* \"#utility.yul\":7640:7781   */\n      swap2\n      swap1\n      pop\n      jump\t// out\n        /* \"#utility.yul\":7787:7880   */\n    tag_75:\n        /* \"#utility.yul\":7824:7830   */\n      0x00\n        /* \"#utility.yul\":7871:7873   */\n      0x20\n        /* \"#utility.yul\":7866:7868   */\n      0x1f\n        /* \"#utility.yul\":7859:7864   */\n      dup4\n        /* \"#utility.yul\":7855:7869   */\n      add\n        /* \"#utility.yul\":7851:7874   */\n      div\n        /* \"#utility.yul\":7841:7874   */\n      swap1\n      pop\n        /* \"#utility.yul\":7787:7880   */\n      swap2\n      swap1\n      pop\n      jump\t// out\n        /* \"#utility.yul\":7886:7993   */\n    tag_76:\n        /* \"#utility.yul\":7930:7938   */\n      0x00\n        /* \"#utility.yul\":7980:7985   */\n      dup3\n        /* \"#utility.yul\":7974:7978   */\n      dup3\n        /* \"#utility.yul\":7970:7986   */\n      shl\n        /* \"#utility.yul\":7949:7986   */\n      swap1\n      pop\n        /* \"#utility.yul\":7886:7993   */\n      swap3\n      swap2\n      pop\n      pop\n      jump\t// out\n        /* \"#utility.yul\":7999:8392   */\n    tag_77:\n        /* \"#utility.yul\":8068:8074   */\n      0x00\n        /* \"#utility.yul\":8118:8119   */\n      0x08\n        /* \"#utility.yul\":8106:8116   */\n      dup4\n        /* \"#utility.yul\":8102:8120   */\n      mul\n        /* \"#utility.yul\":8141:8238   */\n      tag_187\n        /* \"#utility.yul\":8171:8237   */\n      0xffffffffffffffffffffffffffffffffffffffffffffffffffffffffffffffff\n        /* \"#utility.yul\":8160:8169   */\n      dup3\n        /* \"#utility.yul\":8141:8238   */\n      tag_76\n      jump\t// in\n    tag_187:\n        /* \"#utility.yul\":8259:8298   */\n      tag_188\n        /* \"#utility.yul\":8289:8297   */\n      dup7\n        /* \"#utility.yul\":8278:8287   */\n      dup4\n        /* \"#utility.yul\":8259:8298   */\n      tag_76\n      jump\t// in\n    tag_188:\n        /* \"#utility.yul\":8247:8298   */\n      swap6\n      pop\n        /* \"#utility.yul\":8331:8335   */\n      dup1\n        /* \"#utility.yul\":8327:8336   */\n      not\n        /* \"#utility.yul\":8320:8325   */\n      dup5\n        /* \"#utility.yul\":8316:8337   */\n      and\n        /* \"#utility.yul\":8307:8337   */\n      swap4\n      pop\n        /* \"#utility.yul\":8380:8384   */\n      dup1\n        /* \"#utility.yul\":8370:8378   */\n      dup7\n        /* \"#utility.yul\":8366:8385   */\n      and\n        /* \"#utility.yul\":8359:8364   */\n      dup5\n        /* \"#utility.yul\":8356:8386   */\n      or\n        /* \"#utility.yul\":8346:8386   */\n      swap3\n      pop\n        /* \"#utility.yul\":8075:8392   */\n      pop\n      pop\n        /* \"#utility.yul\":7999:8392   */\n      swap4\n      swap3\n      pop\n      pop\n      pop\n      jump\t// out\n        /* \"#utility.yul\":8398:8458   */\n    tag_78:\n        /* \"#utility.yul\":8426:8429   */\n      0x00\n        /* \"#utility.yul\":8447:8452   */\n      dup2\n        /* \"#utility.yul\":8440:8452   */\n      swap1\n      pop\n        /* \"#utility.yul\":8398:8458   */\n      swap2\n      swap1\n      pop\n      jump\t// out\n        /* \"#utility.yul\":8464:8606   */\n    tag_79:\n        /* \"#utility.yul\":8514:8523   */\n      0x00\n        /* \"#utility.yul\":8547:8600   */\n      tag_191\n        /* \"#utility.yul\":8565:8599   */\n      tag_192\n        /* \"#utility.yul\":8574:8598   */\n      tag_193\n        /* \"#utility.yul\":8592:8597   */\n      dup5\n        /* \"#utility.yul\":8574:8598   */\n      tag_52\n      jump\t// in\n    tag_193:\n        /* \"#utility.yul\":8565:8599   */\n      tag_78\n      jump\t// in\n    tag_192:\n        /* \"#utility.yul\":8547:8600   */\n      tag_52\n      jump\t// in\n    tag_191:\n        /* \"#utility.yul\":8534:8600   */\n      swap1\n      pop\n        /* \"#utility.yul\":8464:8606   */\n      swap2\n      swap1\n      pop\n      jump\t// out\n        /* \"#utility.yul\":8612:8687   */\n    tag_80:\n        /* \"#utility.yul\":8655:8658   */\n      0x00\n        /* \"#utility.yul\":8676:8681   */\n      dup2\n        /* \"#utility.yul\":8669:8681   */\n      swap1\n      pop\n        /* \"#utility.yul\":8612:8687   */\n      swap2\n      swap1\n      pop\n      jump\t// out\n        /* \"#utility.yul\":8693:8962   */\n    tag_81:\n        /* \"#utility.yul\":8803:8842   */\n      tag_196\n        /* \"#utility.yul\":8834:8841   */\n      dup4\n        /* \"#utility.yul\":8803:8842   */\n      tag_79\n      jump\t// in\n    tag_196:\n        /* \"#utility.yul\":8864:8955   */\n      tag_197\n        /* \"#utility.yul\":8913:8954   */\n      tag_198\n        /* \"#utility.yul\":8937:8953   */\n      dup3\n        /* \"#utility.yul\":8913:8954   */\n      tag_80\n      jump\t// in\n    tag_198:\n        /* \"#utility.yul\":8905:8911   */\n      dup5\n        /* \"#utility.yul\":8898:8902   */\n      dup5\n        /* \"#utility.yul\":8892:8903   */\n      sload\n        /* \"#utility.yul\":8864:8955   */\n      tag_77\n      jump\t// in\n    tag_197:\n        /* \"#utility.yul\":8858:8862   */\n      dup3\n        /* \"#utility.yul\":8851:8956   */\n      sstore\n        /* \"#utility.yul\":8769:8962   */\n      pop\n        /* \"#utility.yul\":8693:8962   */\n      pop\n      pop\n      pop\n      jump\t// out\n        /* \"#utility.yul\":8968:9041   */\n    tag_82:\n        /* \"#utility.yul\":9013:9016   */\n      0x00\n        /* \"#utility.yul\":8968:9041   */\n      swap1\n      jump\t// out\n        /* \"#utility.yul\":9047:9236   */\n    tag_83:\n        /* \"#utility.yul\":9124:9156   */\n      tag_201\n      tag_82\n      jump\t// in\n    tag_201:\n        /* \"#utility.yul\":9165:9230   */\n      tag_202\n        /* \"#utility.yul\":9223:9229   */\n      dup2\n        /* \"#utility.yul\":9215:9221   */\n      dup5\n        /* \"#utility.yul\":9209:9213   */\n      dup5\n        /* \"#utility.yul\":9165:9230   */\n      tag_81\n      jump\t// in\n    tag_202:\n        /* \"#utility.yul\":9100:9236   */\n      pop\n        /* \"#utility.yul\":9047:9236   */\n      pop\n      pop\n      jump\t// out\n        /* \"#utility.yul\":9242:9428   */\n    tag_84:\n        /* \"#utility.yul\":9302:9422   */\n    tag_204:\n        /* \"#utility.yul\":9319:9322   */\n      dup2\n        /* \"#utility.yul\":9312:9317   */\n      dup2\n        /* \"#utility.yul\":9309:9323   */\n      lt\n        /* \"#utility.yul\":9302:9422   */\n      iszero\n      tag_206\n      jumpi\n        /* \"#utility.yul\":9373:9412   */\n      tag_207\n        /* \"#utility.yul\":9410:9411   */\n      0x00\n        /* \"#utility.yul\":9403:9408   */\n      dup3\n        /* \"#utility.yul\":9373:9412   */\n      tag_83\n      jump\t// in\n    tag_207:\n        /* \"#utility.yul\":9346:9347   */\n      0x01\n        /* \"#utility.yul\":9339:9344   */\n      dup2\n        /* \"#utility.yul\":9335:9348   */\n      add\n        /* \"#utility.yul\":9326:9348   */\n      swap1\n      pop\n        /* \"#utility.yul\":9302:9422   */\n      jump(tag_204)\n    tag_206:\n        /* \"#utility.yul\":9242:9428   */\n      pop\n      pop\n      jump\t// out\n        /* \"#utility.yul\":9434:9977   */\n    tag_85:\n        /* \"#utility.yul\":9535:9537   */\n      0x1f\n        /* \"#utility.yul\":9530:9533   */\n      dup3\n        /* \"#utility.yul\":9527:9538   */\n      gt\n        /* \"#utility.yul\":9524:9970   */\n      iszero\n      tag_209\n      jumpi\n        /* \"#utility.yul\":9569:9607   */\n      tag_210\n        /* \"#utility.yul\":9601:9606   */\n      dup2\n        /* \"#utility.yul\":9569:9607   */\n      tag_74\n      jump\t// in\n    tag_210:\n        /* \"#utility.yul\":9653:9682   */\n      tag_211\n        /* \"#utility.yul\":9671:9681   */\n      dup5\n        /* \"#utility.yul\":9653:9682   */\n      tag_75\n      jump\t// in\n    tag_211:\n        /* \"#utility.yul\":9643:9651   */\n      dup2\n        /* \"#utility.yul\":9639:9683   */\n      add\n        /* \"#utility.yul\":9836:9838   */\n      0x20\n        /* \"#utility.yul\":9824:9834   */\n      dup6\n        /* \"#utility.yul\":9821:9839   */\n      lt\n        /* \"#utility.yul\":9818:9867   */\n      iszero\n      tag_212\n      jumpi\n        /* \"#utility.yul\":9857:9865   */\n      dup2\n        /* \"#utility.yul\":9842:9865   */\n      swap1\n      pop\n        /* \"#utility.yul\":9818:9867   */\n    tag_212:\n        /* \"#utility.yul\":9880:9960   */\n      tag_213\n        /* \"#utility.yul\":9936:9958   */\n      tag_214\n        /* \"#utility.yul\":9954:9957   */\n      dup6\n        /* \"#utility.yul\":9936:9958   */\n      tag_75\n      jump\t// in\n    tag_214:\n        /* \"#utility.yul\":9926:9934   */\n      dup4\n        /* \"#utility.yul\":9922:9959   */\n      add\n        /* \"#utility.yul\":9909:9920   */\n      dup3\n        /* \"#utility.yul\":9880:9960   */\n      tag_84\n      jump\t// in\n    tag_213:\n        /* \"#utility.yul\":9539:9970   */\n      pop\n      pop\n        /* \"#utility.yul\":9524:9970   */\n    tag_209:\n        /* \"#utility.yul\":9434:9977   */\n      pop\n      pop\n      pop\n      jump\t// out\n        /* \"#utility.yul\":9983:10100   */\n    tag_86:\n        /* \"#utility.yul\":10037:10045   */\n      0x00\n        /* \"#utility.yul\":10087:10092   */\n      dup3\n        /* \"#utility.yul\":10081:10085   */\n      dup3\n        /* \"#utility.yul\":10077:10093   */\n      shr\n        /* \"#utility.yul\":10056:10093   */\n      swap1\n      pop\n        /* \"#utility.yul\":9983:10100   */\n      swap3\n      swap2\n      pop\n      pop\n      jump\t// out\n        /* \"#utility.yul\":10106:10275   */\n    tag_87:\n        /* \"#utility.yul\":10150:10156   */\n      0x00\n        /* \"#utility.yul\":10183:10234   */\n      tag_217\n        /* \"#utility.yul\":10231:10232   */\n      0x00\n        /* \"#utility.yul\":10227:10233   */\n      not\n        /* \"#utility.yul\":10219:10224   */\n      dup5\n        /* \"#utility.yul\":10216:10217   */\n      0x08\n        /* \"#utility.yul\":10212:10225   */\n      mul\n        /* \"#utility.yul\":10183:10234   */\n      tag_86\n      jump\t// in\n    tag_217:\n        /* \"#utility.yul\":10179:10235   */\n      not\n        /* \"#utility.yul\":10264:10268   */\n      dup1\n        /* \"#utility.yul\":10258:10262   */\n      dup4\n        /* \"#utility.yul\":10254:10269   */\n      and\n        /* \"#utility.yul\":10244:10269   */\n      swap2\n      pop\n        /* \"#utility.yul\":10157:10275   */\n      pop\n        /* \"#utility.yul\":10106:10275   */\n      swap3\n      swap2\n      pop\n      pop\n      jump\t// out\n        /* \"#utility.yul\":10280:10575   */\n    tag_88:\n        /* \"#utility.yul\":10356:10360   */\n      0x00\n        /* \"#utility.yul\":10502:10531   */\n      tag_219\n        /* \"#utility.yul\":10527:10530   */\n      dup4\n        /* \"#utility.yul\":10521:10525   */\n      dup4\n        /* \"#utility.yul\":10502:10531   */\n      tag_87\n      jump\t// in\n    tag_219:\n        /* \"#utility.yul\":10494:10531   */\n      swap2\n      pop\n        /* \"#utility.yul\":10564:10567   */\n      dup3\n        /* \"#utility.yul\":10561:10562   */\n      0x02\n        /* \"#utility.yul\":10557:10568   */\n      mul\n        /* \"#utility.yul\":10551:10555   */\n      dup3\n        /* \"#utility.yul\":10548:10569   */\n      or\n        /* \"#utility.yul\":10540:10569   */\n      swap1\n      pop\n        /* \"#utility.yul\":10280:10575   */\n      swap3\n      swap2\n      pop\n      pop\n      jump\t// out\n        /* \"#utility.yul\":10580:11975   */\n    tag_38:\n        /* \"#utility.yul\":10697:10734   */\n      tag_221\n        /* \"#utility.yul\":10730:10733   */\n      dup3\n        /* \"#utility.yul\":10697:10734   */\n      tag_54\n      jump\t// in\n    tag_221:\n        /* \"#utility.yul\":10799:10817   */\n      0xffffffffffffffff\n        /* \"#utility.yul\":10791:10797   */\n      dup2\n        /* \"#utility.yul\":10788:10818   */\n      gt\n        /* \"#utility.yul\":10785:10841   */\n      iszero\n      tag_222\n      jumpi\n        /* \"#utility.yul\":10821:10839   */\n      tag_223\n      tag_63\n      jump\t// in\n    tag_223:\n        /* \"#utility.yul\":10785:10841   */\n    tag_222:\n        /* \"#utility.yul\":10865:10903   */\n      tag_224\n        /* \"#utility.yul\":10897:10901   */\n      dup3\n        /* \"#utility.yul\":10891:10902   */\n      sload\n        /* \"#utility.yul\":10865:10903   */\n      tag_31\n      jump\t// in\n    tag_224:\n        /* \"#utility.yul\":10950:11017   */\n      tag_225\n        /* \"#utility.yul\":11010:11016   */\n      dup3\n        /* \"#utility.yul\":11002:11008   */\n      dup3\n        /* \"#utility.yul\":10996:11000   */\n      dup6\n        /* \"#utility.yul\":10950:11017   */\n      tag_85\n      jump\t// in\n    tag_225:\n        /* \"#utility.yul\":11044:11045   */\n      0x00\n        /* \"#utility.yul\":11068:11072   */\n      0x20\n        /* \"#utility.yul\":11055:11072   */\n      swap1\n      pop\n        /* \"#utility.yul\":11100:11102   */\n      0x1f\n        /* \"#utility.yul\":11092:11098   */\n      dup4\n        /* \"#utility.yul\":11089:11103   */\n      gt\n        /* \"#utility.yul\":11117:11118   */\n      0x01\n        /* \"#utility.yul\":11112:11730   */\n      dup2\n      eq\n      tag_227\n      jumpi\n        /* \"#utility.yul\":11774:11775   */\n      0x00\n        /* \"#utility.yul\":11791:11797   */\n      dup5\n        /* \"#utility.yul\":11788:11865   */\n      iszero\n      tag_228\n      jumpi\n        /* \"#utility.yul\":11840:11849   */\n      dup3\n        /* \"#utility.yul\":11835:11838   */\n      dup8\n        /* \"#utility.yul\":11831:11850   */\n      add\n        /* \"#utility.yul\":11825:11851   */\n      mload\n        /* \"#utility.yul\":11816:11851   */\n      swap1\n      pop\n        /* \"#utility.yul\":11788:11865   */\n    tag_228:\n        /* \"#utility.yul\":11891:11958   */\n      tag_229\n        /* \"#utility.yul\":11951:11957   */\n      dup6\n        /* \"#utility.yul\":11944:11949   */\n      dup3\n        /* \"#utility.yul\":11891:11958   */\n      tag_88\n      jump\t// in\n    tag_229:\n        /* \"#utility.yul\":11885:11889   */\n      dup7\n        /* \"#utility.yul\":11878:11959   */\n      sstore\n        /* \"#utility.yul\":11747:11969   */\n      pop\n        /* \"#utility.yul\":11082:11969   */\n      jump(tag_226)\n        /* \"#utility.yul\":11112:11730   */\n    tag_227:\n        /* \"#utility.yul\":11164:11168   */\n      0x1f\n        /* \"#utility.yul\":11160:11169   */\n      not\n        /* \"#utility.yul\":11152:11158   */\n      dup5\n        /* \"#utility.yul\":11148:11170   */\n      and\n        /* \"#utility.yul\":11198:11235   */\n      tag_230\n        /* \"#utility.yul\":11230:11234   */\n      dup7\n        /* \"#utility.yul\":11198:11235   */\n      tag_74\n      jump\t// in\n    tag_230:\n        /* \"#utility.yul\":11257:11258   */\n      0x00\n        /* \"#utility.yul\":11271:11479   */\n    tag_231:\n        /* \"#utility.yul\":11285:11292   */\n      dup3\n        /* \"#utility.yul\":11282:11283   */\n      dup2\n        /* \"#utility.yul\":11279:11293   */\n      lt\n        /* \"#utility.yul\":11271:11479   */\n      iszero\n      tag_233\n      jumpi\n        /* \"#utility.yul\":11364:11373   */\n      dup5\n        /* \"#utility.yul\":11359:11362   */\n      dup10\n        /* \"#utility.yul\":11355:11374   */\n      add\n        /* \"#utility.yul\":11349:11375   */\n      mload\n        /* \"#utility.yul\":11341:11347   */\n      dup3\n        /* \"#utility.yul\":11334:11376   */\n      sstore\n        /* \"#utility.yul\":11415:11416   */\n      0x01\n        /* \"#utility.yul\":11407:11413   */\n      dup3\n        /* \"#utility.yul\":11403:11417   */\n      add\n        /* \"#utility.yul\":11393:11417   */\n      swap2\n      pop\n        /* \"#utility.yul\":11462:11464   */\n      0x20\n        /* \"#utility.yul\":11451:11460   */\n      dup6\n        /* \"#utility.yul\":11447:11465   */\n      add\n        /* \"#utility.yul\":11434:11465   */\n      swap5\n      pop\n        /* \"#utility.yul\":11308:11312   */\n      0x20\n        /* \"#utility.yul\":11305:11306   */\n      dup2\n        /* \"#utility.yul\":11301:11313   */\n      add\n        /* \"#utility.yul\":11296:11313   */\n      swap1\n      pop\n        /* \"#utility.yul\":11271:11479   */\n      jump(tag_231)\n    tag_233:\n        /* \"#utility.yul\":11507:11513   */\n      dup7\n        /* \"#utility.yul\":11498:11505   */\n      dup4\n        /* \"#utility.yul\":11495:11514   */\n      lt\n        /* \"#utility.yul\":11492:11671   */\n      iszero\n      tag_234\n      jumpi\n        /* \"#utility.yul\":11565:11574   */\n      dup5\n        /* \"#utility.yul\":11560:11563   */\n      dup10\n        /* \"#utility.yul\":11556:11575   */\n      add\n        /* \"#utility.yul\":11550:11576   */\n      mload\n        /* \"#utility.yul\":11608:11656   */\n      tag_235\n        /* \"#utility.yul\":11650:11654   */\n      0x1f\n        /* \"#utility.yul\":11642:11648   */\n      dup10\n        /* \"#utility.yul\":11638:11655   */\n      and\n        /* \"#utility.yul\":11627:11636   */\n      dup3\n        /* \"#utility.yul\":11608:11656   */\n      tag_87\n      jump\t// in\n    tag_235:\n        /* \"#utility.yul\":11600:11606   */\n      dup4\n        /* \"#utility.yul\":11593:11657   */\n      sstore\n        /* \"#utility.yul\":11515:11671   */\n      pop\n        /* \"#utility.yul\":11492:11671   */\n    tag_234:\n        /* \"#utility.yul\":11717:11718   */\n      0x01\n        /* \"#utility.yul\":11713:11714   */\n      0x02\n        /* \"#utility.yul\":11705:11711   */\n      dup9\n        /* \"#utility.yul\":11701:11715   */\n      mul\n        /* \"#utility.yul\":11697:11719   */\n      add\n        /* \"#utility.yul\":11691:11695   */\n      dup9\n        /* \"#utility.yul\":11684:11720   */\n      sstore\n        /* \"#utility.yul\":11119:11730   */\n      pop\n      pop\n      pop\n        /* \"#utility.yul\":11082:11969   */\n    tag_226:\n      pop\n        /* \"#utility.yul\":10672:11975   */\n      pop\n      pop\n      pop\n        /* \"#utility.yul\":10580:11975   */\n      pop\n      pop\n      jump\t// out\n        /* \"#utility.yul\":11981:12161   */\n    tag_89:\n        /* \"#utility.yul\":12029:12106   */\n      0x4e487b7100000000000000000000000000000000000000000000000000000000\n        /* \"#utility.yul\":12026:12027   */\n      0x00\n        /* \"#utility.yul\":12019:12107   */\n      mstore\n        /* \"#utility.yul\":12126:12130   */\n      0x11\n        /* \"#utility.yul\":12123:12124   */\n      0x04\n        /* \"#utility.yul\":12116:12131   */\n      mstore\n        /* \"#utility.yul\":12150:12154   */\n      0x24\n        /* \"#utility.yul\":12147:12148   */\n      0x00\n        /* \"#utility.yul\":12140:12155   */\n      revert\n        /* \"#utility.yul\":12167:12400   */\n    tag_40:\n        /* \"#utility.yul\":12206:12209   */\n      0x00\n        /* \"#utility.yul\":12229:12253   */\n      tag_238\n        /* \"#utility.yul\":12247:12252   */\n      dup3\n        /* \"#utility.yul\":12229:12253   */\n      tag_52\n      jump\t// in\n    tag_238:\n        /* \"#utility.yul\":12220:12253   */\n      swap2\n      pop\n        /* \"#utility.yul\":12275:12341   */\n      0xffffffffffffffffffffffffffffffffffffffffffffffffffffffffffffffff\n        /* \"#utility.yul\":12268:12273   */\n      dup3\n        /* \"#utility.yul\":12265:12342   */\n      sub\n        /* \"#utility.yul\":12262:12365   */\n      tag_239\n      jumpi\n        /* \"#utility.yul\":12345:12363   */\n      tag_240\n      tag_89\n      jump\t// in\n    tag_240:\n        /* \"#utility.yul\":12262:12365   */\n    tag_239:\n        /* \"#utility.yul\":12392:12393   */\n      0x01\n        /* \"#utility.yul\":12385:12390   */\n      dup3\n        /* \"#utility.yul\":12381:12394   */\n      add\n        /* \"#utility.yul\":12374:12394   */\n      swap1\n      pop\n        /* \"#utility.yul\":12167:12400   */\n      swap2\n      swap1\n      pop\n      jump\t// out\n        /* \"#utility.yul\":12406:12629   */\n    tag_90:\n        /* \"#utility.yul\":12546:12580   */\n      0x554e415554484f52495a454420666f72207570646174696f6e2041424f525449\n        /* \"#utility.yul\":12542:12543   */\n      0x00\n        /* \"#utility.yul\":12534:12540   */\n      dup3\n        /* \"#utility.yul\":12530:12544   */\n      add\n        /* \"#utility.yul\":12523:12581   */\n      mstore\n        /* \"#utility.yul\":12615:12621   */\n      0x4e47212100000000000000000000000000000000000000000000000000000000\n        /* \"#utility.yul\":12610:12612   */\n      0x20\n        /* \"#utility.yul\":12602:12608   */\n      dup3\n        /* \"#utility.yul\":12598:12613   */\n      add\n        /* \"#utility.yul\":12591:12622   */\n      mstore\n        /* \"#utility.yul\":12406:12629   */\n      pop\n      jump\t// out\n        /* \"#utility.yul\":12635:13001   */\n    tag_91:\n        /* \"#utility.yul\":12777:12780   */\n      0x00\n        /* \"#utility.yul\":12798:12865   */\n      tag_243\n        /* \"#utility.yul\":12862:12864   */\n      0x24\n        /* \"#utility.yul\":12857:12860   */\n      dup4\n        /* \"#utility.yul\":12798:12865   */\n      tag_55\n      jump\t// in\n    tag_243:\n        /* \"#utility.yul\":12791:12865   */\n      swap2\n      pop\n        /* \"#utility.yul\":12874:12967   */\n      tag_244\n        /* \"#utility.yul\":12963:12966   */\n      dup3\n        /* \"#utility.yul\":12874:12967   */\n      tag_90\n      jump\t// in\n    tag_244:\n        /* \"#utility.yul\":12992:12994   */\n      0x40\n        /* \"#utility.yul\":12987:12990   */\n      dup3\n        /* \"#utility.yul\":12983:12995   */\n      add\n        /* \"#utility.yul\":12976:12995   */\n      swap1\n      pop\n        /* \"#utility.yul\":12635:13001   */\n      swap2\n      swap1\n      pop\n      jump\t// out\n        /* \"#utility.yul\":13007:13426   */\n    tag_44:\n        /* \"#utility.yul\":13173:13177   */\n      0x00\n        /* \"#utility.yul\":13211:13213   */\n      0x20\n        /* \"#utility.yul\":13200:13209   */\n      dup3\n        /* \"#utility.yul\":13196:13214   */\n      add\n        /* \"#utility.yul\":13188:13214   */\n      swap1\n      pop\n        /* \"#utility.yul\":13260:13269   */\n      dup2\n        /* \"#utility.yul\":13254:13258   */\n      dup2\n        /* \"#utility.yul\":13250:13270   */\n      sub\n        /* \"#utility.yul\":13246:13247   */\n      0x00\n        /* \"#utility.yul\":13235:13244   */\n      dup4\n        /* \"#utility.yul\":13231:13248   */\n      add\n        /* \"#utility.yul\":13224:13271   */\n      mstore\n        /* \"#utility.yul\":13288:13419   */\n      tag_246\n        /* \"#utility.yul\":13414:13418   */\n      dup2\n        /* \"#utility.yul\":13288:13419   */\n      tag_91\n      jump\t// in\n    tag_246:\n        /* \"#utility.yul\":13280:13419   */\n      swap1\n      pop\n        /* \"#utility.yul\":13007:13426   */\n      swap2\n      swap1\n      pop\n      jump\t// out\n\n    auxdata: 0xa2646970667358221220951f9628f87dd30541dd20db725e68660612edfaf3d3706f05462d608e80ec8164736f6c634300080f0033\n}\n",
				"bytecode": {
					"linkReferences": {},
					"object": "608060405234801561001057600080fd5b50336000806101000a81548173ffffffffffffffffffffffffffffffffffffffff021916908373ffffffffffffffffffffffffffffffffffffffff160217905550610b90806100606000396000f3fe608060405234801561001057600080fd5b50600436106100575760003560e01c80632cc1dece1461005c57806385edf8741461008e578063d22c81e5146100aa578063d4e06ed4146100c8578063d64404fb146100e6575b600080fd5b6100766004803603810190610071919061040c565b610102565b60405161008593929190610506565b60405180910390f35b6100a860048036038101906100a39190610679565b6101c1565b005b6100b2610284565b6040516100bf91906106c2565b60405180910390f35b6100d061028a565b6040516100dd91906106ec565b60405180910390f35b61010060048036038101906100fb9190610733565b6102ae565b005b600260205280600052604060002060009150905080600001549080600101805461012b906107a2565b80601f0160208091040260200160405190810160405280929190818152602001828054610157906107a2565b80156101a45780601f10610179576101008083540402835291602001916101a4565b820191906000526020600020905b81548152906001019060200180831161018757829003601f168201915b5050505050908060020160009054906101000a900460ff16905083565b60006040518060600160405280600154815260200183815260200160001515815250905080600260003373ffffffffffffffffffffffffffffffffffffffff1673ffffffffffffffffffffffffffffffffffffffff168152602001908152602001600020600082015181600001556020820151816001019081610244919061097f565b5060408201518160020160006101000a81548160ff0219169083151502179055509050506001600081548092919061027b90610a80565b91905055505050565b60015481565b60008054906101000a900473ffffffffffffffffffffffffffffffffffffffff1681565b60008054906101000a900473ffffffffffffffffffffffffffffffffffffffff1673ffffffffffffffffffffffffffffffffffffffff163373ffffffffffffffffffffffffffffffffffffffff161461033c576040517f08c379a000000000000000000000000000000000000000000000000000000000815260040161033390610b3a565b60405180910390fd5b80600260008473ffffffffffffffffffffffffffffffffffffffff1673ffffffffffffffffffffffffffffffffffffffff16815260200190815260200160002060020160006101000a81548160ff0219169083151502179055505050565b6000604051905090565b600080fd5b600080fd5b600073ffffffffffffffffffffffffffffffffffffffff82169050919050565b60006103d9826103ae565b9050919050565b6103e9816103ce565b81146103f457600080fd5b50565b600081359050610406816103e0565b92915050565b600060208284031215610422576104216103a4565b5b6000610430848285016103f7565b91505092915050565b6000819050919050565b61044c81610439565b82525050565b600081519050919050565b600082825260208201905092915050565b60005b8381101561048c578082015181840152602081019050610471565b8381111561049b576000848401525b50505050565b6000601f19601f8301169050919050565b60006104bd82610452565b6104c7818561045d565b93506104d781856020860161046e565b6104e0816104a1565b840191505092915050565b60008115159050919050565b610500816104eb565b82525050565b600060608201905061051b6000830186610443565b818103602083015261052d81856104b2565b905061053c60408301846104f7565b949350505050565b600080fd5b600080fd5b7f4e487b7100000000000000000000000000000000000000000000000000000000600052604160045260246000fd5b610586826104a1565b810181811067ffffffffffffffff821117156105a5576105a461054e565b5b80604052505050565b60006105b861039a565b90506105c4828261057d565b919050565b600067ffffffffffffffff8211156105e4576105e361054e565b5b6105ed826104a1565b9050602081019050919050565b82818337600083830152505050565b600061061c610617846105c9565b6105ae565b90508281526020810184848401111561063857610637610549565b5b6106438482856105fa565b509392505050565b600082601f8301126106605761065f610544565b5b8135610670848260208601610609565b91505092915050565b60006020828403121561068f5761068e6103a4565b5b600082013567ffffffffffffffff8111156106ad576106ac6103a9565b5b6106b98482850161064b565b91505092915050565b60006020820190506106d76000830184610443565b92915050565b6106e6816103ce565b82525050565b600060208201905061070160008301846106dd565b92915050565b610710816104eb565b811461071b57600080fd5b50565b60008135905061072d81610707565b92915050565b6000806040838503121561074a576107496103a4565b5b6000610758858286016103f7565b92505060206107698582860161071e565b9150509250929050565b7f4e487b7100000000000000000000000000000000000000000000000000000000600052602260045260246000fd5b600060028204905060018216806107ba57607f821691505b6020821081036107cd576107cc610773565b5b50919050565b60008190508160005260206000209050919050565b60006020601f8301049050919050565b600082821b905092915050565b6000600883026108357fffffffffffffffffffffffffffffffffffffffffffffffffffffffffffffffff826107f8565b61083f86836107f8565b95508019841693508086168417925050509392505050565b6000819050919050565b600061087c61087761087284610439565b610857565b610439565b9050919050565b6000819050919050565b61089683610861565b6108aa6108a282610883565b848454610805565b825550505050565b600090565b6108bf6108b2565b6108ca81848461088d565b505050565b5b818110156108ee576108e36000826108b7565b6001810190506108d0565b5050565b601f82111561093357610904816107d3565b61090d846107e8565b8101602085101561091c578190505b610930610928856107e8565b8301826108cf565b50505b505050565b600082821c905092915050565b600061095660001984600802610938565b1980831691505092915050565b600061096f8383610945565b9150826002028217905092915050565b61098882610452565b67ffffffffffffffff8111156109a1576109a061054e565b5b6109ab82546107a2565b6109b68282856108f2565b600060209050601f8311600181146109e957600084156109d7578287015190505b6109e18582610963565b865550610a49565b601f1984166109f7866107d3565b60005b82811015610a1f578489015182556001820191506020850194506020810190506109fa565b86831015610a3c5784890151610a38601f891682610945565b8355505b6001600288020188555050505b505050505050565b7f4e487b7100000000000000000000000000000000000000000000000000000000600052601160045260246000fd5b6000610a8b82610439565b91507fffffffffffffffffffffffffffffffffffffffffffffffffffffffffffffffff8203610abd57610abc610a51565b5b600182019050919050565b7f554e415554484f52495a454420666f72207570646174696f6e2041424f52544960008201527f4e47212100000000000000000000000000000000000000000000000000000000602082015250565b6000610b2460248361045d565b9150610b2f82610ac8565b604082019050919050565b60006020820190508181036000830152610b5381610b17565b905091905056fea2646970667358221220951f9628f87dd30541dd20db725e68660612edfaf3d3706f05462d608e80ec8164736f6c634300080f0033",
					"opcodes": "PUSH1 0x80 PUSH1 0x40 MSTORE CALLVALUE DUP1 ISZERO PUSH2 0x10 JUMPI PUSH1 0x0 DUP1 REVERT JUMPDEST POP CALLER PUSH1 0x0 DUP1 PUSH2 0x100 EXP DUP2 SLOAD DUP2 PUSH20 0xFFFFFFFFFFFFFFFFFFFFFFFFFFFFFFFFFFFFFFFF MUL NOT AND SWAP1 DUP4 PUSH20 0xFFFFFFFFFFFFFFFFFFFFFFFFFFFFFFFFFFFFFFFF AND MUL OR SWAP1 SSTORE POP PUSH2 0xB90 DUP1 PUSH2 0x60 PUSH1 0x0 CODECOPY PUSH1 0x0 RETURN INVALID PUSH1 0x80 PUSH1 0x40 MSTORE CALLVALUE DUP1 ISZERO PUSH2 0x10 JUMPI PUSH1 0x0 DUP1 REVERT JUMPDEST POP PUSH1 0x4 CALLDATASIZE LT PUSH2 0x57 JUMPI PUSH1 0x0 CALLDATALOAD PUSH1 0xE0 SHR DUP1 PUSH4 0x2CC1DECE EQ PUSH2 0x5C JUMPI DUP1 PUSH4 0x85EDF874 EQ PUSH2 0x8E JUMPI DUP1 PUSH4 0xD22C81E5 EQ PUSH2 0xAA JUMPI DUP1 PUSH4 0xD4E06ED4 EQ PUSH2 0xC8 JUMPI DUP1 PUSH4 0xD64404FB EQ PUSH2 0xE6 JUMPI JUMPDEST PUSH1 0x0 DUP1 REVERT JUMPDEST PUSH2 0x76 PUSH1 0x4 DUP1 CALLDATASIZE SUB DUP2 ADD SWAP1 PUSH2 0x71 SWAP2 SWAP1 PUSH2 0x40C JUMP JUMPDEST PUSH2 0x102 JUMP JUMPDEST PUSH1 0x40 MLOAD PUSH2 0x85 SWAP4 SWAP3 SWAP2 SWAP1 PUSH2 0x506 JUMP JUMPDEST PUSH1 0x40 MLOAD DUP1 SWAP2 SUB SWAP1 RETURN JUMPDEST PUSH2 0xA8 PUSH1 0x4 DUP1 CALLDATASIZE SUB DUP2 ADD SWAP1 PUSH2 0xA3 SWAP2 SWAP1 PUSH2 0x679 JUMP JUMPDEST PUSH2 0x1C1 JUMP JUMPDEST STOP JUMPDEST PUSH2 0xB2 PUSH2 0x284 JUMP JUMPDEST PUSH1 0x40 MLOAD PUSH2 0xBF SWAP2 SWAP1 PUSH2 0x6C2 JUMP JUMPDEST PUSH1 0x40 MLOAD DUP1 SWAP2 SUB SWAP1 RETURN JUMPDEST PUSH2 0xD0 PUSH2 0x28A JUMP JUMPDEST PUSH1 0x40 MLOAD PUSH2 0xDD SWAP2 SWAP1 PUSH2 0x6EC JUMP JUMPDEST PUSH1 0x40 MLOAD DUP1 SWAP2 SUB SWAP1 RETURN JUMPDEST PUSH2 0x100 PUSH1 0x4 DUP1 CALLDATASIZE SUB DUP2 ADD SWAP1 PUSH2 0xFB SWAP2 SWAP1 PUSH2 0x733 JUMP JUMPDEST PUSH2 0x2AE JUMP JUMPDEST STOP JUMPDEST PUSH1 0x2 PUSH1 0x20 MSTORE DUP1 PUSH1 0x0 MSTORE PUSH1 0x40 PUSH1 0x0 KECCAK256 PUSH1 0x0 SWAP2 POP SWAP1 POP DUP1 PUSH1 0x0 ADD SLOAD SWAP1 DUP1 PUSH1 0x1 ADD DUP1 SLOAD PUSH2 0x12B SWAP1 PUSH2 0x7A2 JUMP JUMPDEST DUP1 PUSH1 0x1F ADD PUSH1 0x20 DUP1 SWAP2 DIV MUL PUSH1 0x20 ADD PUSH1 0x40 MLOAD SWAP1 DUP2 ADD PUSH1 0x40 MSTORE DUP1 SWAP3 SWAP2 SWAP1 DUP2 DUP2 MSTORE PUSH1 0x20 ADD DUP3 DUP1 SLOAD PUSH2 0x157 SWAP1 PUSH2 0x7A2 JUMP JUMPDEST DUP1 ISZERO PUSH2 0x1A4 JUMPI DUP1 PUSH1 0x1F LT PUSH2 0x179 JUMPI PUSH2 0x100 DUP1 DUP4 SLOAD DIV MUL DUP4 MSTORE SWAP2 PUSH1 0x20 ADD SWAP2 PUSH2 0x1A4 JUMP JUMPDEST DUP3 ADD SWAP2 SWAP1 PUSH1 0x0 MSTORE PUSH1 0x20 PUSH1 0x0 KECCAK256 SWAP1 JUMPDEST DUP2 SLOAD DUP2 MSTORE SWAP1 PUSH1 0x1 ADD SWAP1 PUSH1 0x20 ADD DUP1 DUP4 GT PUSH2 0x187 JUMPI DUP3 SWAP1 SUB PUSH1 0x1F AND DUP3 ADD SWAP2 JUMPDEST POP POP POP POP POP SWAP1 DUP1 PUSH1 0x2 ADD PUSH1 0x0 SWAP1 SLOAD SWAP1 PUSH2 0x100 EXP SWAP1 DIV PUSH1 0xFF AND SWAP1 POP DUP4 JUMP JUMPDEST PUSH1 0x0 PUSH1 0x40 MLOAD DUP1 PUSH1 0x60 ADD PUSH1 0x40 MSTORE DUP1 PUSH1 0x1 SLOAD DUP2 MSTORE PUSH1 0x20 ADD DUP4 DUP2 MSTORE PUSH1 0x20 ADD PUSH1 0x0 ISZERO ISZERO DUP2 MSTORE POP SWAP1 POP DUP1 PUSH1 0x2 PUSH1 0x0 CALLER PUSH20 0xFFFFFFFFFFFFFFFFFFFFFFFFFFFFFFFFFFFFFFFF AND PUSH20 0xFFFFFFFFFFFFFFFFFFFFFFFFFFFFFFFFFFFFFFFF AND DUP2 MSTORE PUSH1 0x20 ADD SWAP1 DUP2 MSTORE PUSH1 0x20 ADD PUSH1 0x0 KECCAK256 PUSH1 0x0 DUP3 ADD MLOAD DUP2 PUSH1 0x0 ADD SSTORE PUSH1 0x20 DUP3 ADD MLOAD DUP2 PUSH1 0x1 ADD SWAP1 DUP2 PUSH2 0x244 SWAP2 SWAP1 PUSH2 0x97F JUMP JUMPDEST POP PUSH1 0x40 DUP3 ADD MLOAD DUP2 PUSH1 0x2 ADD PUSH1 0x0 PUSH2 0x100 EXP DUP2 SLOAD DUP2 PUSH1 0xFF MUL NOT AND SWAP1 DUP4 ISZERO ISZERO MUL OR SWAP1 SSTORE POP SWAP1 POP POP PUSH1 0x1 PUSH1 0x0 DUP2 SLOAD DUP1 SWAP3 SWAP2 SWAP1 PUSH2 0x27B SWAP1 PUSH2 0xA80 JUMP JUMPDEST SWAP2 SWAP1 POP SSTORE POP POP POP JUMP JUMPDEST PUSH1 0x1 SLOAD DUP2 JUMP JUMPDEST PUSH1 0x0 DUP1 SLOAD SWAP1 PUSH2 0x100 EXP SWAP1 DIV PUSH20 0xFFFFFFFFFFFFFFFFFFFFFFFFFFFFFFFFFFFFFFFF AND DUP2 JUMP JUMPDEST PUSH1 0x0 DUP1 SLOAD SWAP1 PUSH2 0x100 EXP SWAP1 DIV PUSH20 0xFFFFFFFFFFFFFFFFFFFFFFFFFFFFFFFFFFFFFFFF AND PUSH20 0xFFFFFFFFFFFFFFFFFFFFFFFFFFFFFFFFFFFFFFFF AND CALLER PUSH20 0xFFFFFFFFFFFFFFFFFFFFFFFFFFFFFFFFFFFFFFFF AND EQ PUSH2 0x33C JUMPI PUSH1 0x40 MLOAD PUSH32 0x8C379A000000000000000000000000000000000000000000000000000000000 DUP2 MSTORE PUSH1 0x4 ADD PUSH2 0x333 SWAP1 PUSH2 0xB3A JUMP JUMPDEST PUSH1 0x40 MLOAD DUP1 SWAP2 SUB SWAP1 REVERT JUMPDEST DUP1 PUSH1 0x2 PUSH1 0x0 DUP5 PUSH20 0xFFFFFFFFFFFFFFFFFFFFFFFFFFFFFFFFFFFFFFFF AND PUSH20 0xFFFFFFFFFFFFFFFFFFFFFFFFFFFFFFFFFFFFFFFF AND DUP2 MSTORE PUSH1 0x20 ADD SWAP1 DUP2 MSTORE PUSH1 0x20 ADD PUSH1 0x0 KECCAK256 PUSH1 0x2 ADD PUSH1 0x0 PUSH2 0x100 EXP DUP2 SLOAD DUP2 PUSH1 0xFF MUL NOT AND SWAP1 DUP4 ISZERO ISZERO MUL OR SWAP1 SSTORE POP POP POP JUMP JUMPDEST PUSH1 0x0 PUSH1 0x40 MLOAD SWAP1 POP SWAP1 JUMP JUMPDEST PUSH1 0x0 DUP1 REVERT JUMPDEST PUSH1 0x0 DUP1 REVERT JUMPDEST PUSH1 0x0 PUSH20 0xFFFFFFFFFFFFFFFFFFFFFFFFFFFFFFFFFFFFFFFF DUP3 AND SWAP1 POP SWAP2 SWAP1 POP JUMP JUMPDEST PUSH1 0x0 PUSH2 0x3D9 DUP3 PUSH2 0x3AE JUMP JUMPDEST SWAP1 POP SWAP2 SWAP1 POP JUMP JUMPDEST PUSH2 0x3E9 DUP2 PUSH2 0x3CE JUMP JUMPDEST DUP2 EQ PUSH2 0x3F4 JUMPI PUSH1 0x0 DUP1 REVERT JUMPDEST POP JUMP JUMPDEST PUSH1 0x0 DUP2 CALLDATALOAD SWAP1 POP PUSH2 0x406 DUP2 PUSH2 0x3E0 JUMP JUMPDEST SWAP3 SWAP2 POP POP JUMP JUMPDEST PUSH1 0x0 PUSH1 0x20 DUP3 DUP5 SUB SLT ISZERO PUSH2 0x422 JUMPI PUSH2 0x421 PUSH2 0x3A4 JUMP JUMPDEST JUMPDEST PUSH1 0x0 PUSH2 0x430 DUP5 DUP3 DUP6 ADD PUSH2 0x3F7 JUMP JUMPDEST SWAP2 POP POP SWAP3 SWAP2 POP POP JUMP JUMPDEST PUSH1 0x0 DUP2 SWAP1 POP SWAP2 SWAP1 POP JUMP JUMPDEST PUSH2 0x44C DUP2 PUSH2 0x439 JUMP JUMPDEST DUP3 MSTORE POP POP JUMP JUMPDEST PUSH1 0x0 DUP2 MLOAD SWAP1 POP SWAP2 SWAP1 POP JUMP JUMPDEST PUSH1 0x0 DUP3 DUP3 MSTORE PUSH1 0x20 DUP3 ADD SWAP1 POP SWAP3 SWAP2 POP POP JUMP JUMPDEST PUSH1 0x0 JUMPDEST DUP4 DUP2 LT ISZERO PUSH2 0x48C JUMPI DUP1 DUP3 ADD MLOAD DUP2 DUP5 ADD MSTORE PUSH1 0x20 DUP2 ADD SWAP1 POP PUSH2 0x471 JUMP JUMPDEST DUP4 DUP2 GT ISZERO PUSH2 0x49B JUMPI PUSH1 0x0 DUP5 DUP5 ADD MSTORE JUMPDEST POP POP POP POP JUMP JUMPDEST PUSH1 0x0 PUSH1 0x1F NOT PUSH1 0x1F DUP4 ADD AND SWAP1 POP SWAP2 SWAP1 POP JUMP JUMPDEST PUSH1 0x0 PUSH2 0x4BD DUP3 PUSH2 0x452 JUMP JUMPDEST PUSH2 0x4C7 DUP2 DUP6 PUSH2 0x45D JUMP JUMPDEST SWAP4 POP PUSH2 0x4D7 DUP2 DUP6 PUSH1 0x20 DUP7 ADD PUSH2 0x46E JUMP JUMPDEST PUSH2 0x4E0 DUP2 PUSH2 0x4A1 JUMP JUMPDEST DUP5 ADD SWAP2 POP POP SWAP3 SWAP2 POP POP JUMP JUMPDEST PUSH1 0x0 DUP2 ISZERO ISZERO SWAP1 POP SWAP2 SWAP1 POP JUMP JUMPDEST PUSH2 0x500 DUP2 PUSH2 0x4EB JUMP JUMPDEST DUP3 MSTORE POP POP JUMP JUMPDEST PUSH1 0x0 PUSH1 0x60 DUP3 ADD SWAP1 POP PUSH2 0x51B PUSH1 0x0 DUP4 ADD DUP7 PUSH2 0x443 JUMP JUMPDEST DUP2 DUP2 SUB PUSH1 0x20 DUP4 ADD MSTORE PUSH2 0x52D DUP2 DUP6 PUSH2 0x4B2 JUMP JUMPDEST SWAP1 POP PUSH2 0x53C PUSH1 0x40 DUP4 ADD DUP5 PUSH2 0x4F7 JUMP JUMPDEST SWAP5 SWAP4 POP POP POP POP JUMP JUMPDEST PUSH1 0x0 DUP1 REVERT JUMPDEST PUSH1 0x0 DUP1 REVERT JUMPDEST PUSH32 0x4E487B7100000000000000000000000000000000000000000000000000000000 PUSH1 0x0 MSTORE PUSH1 0x41 PUSH1 0x4 MSTORE PUSH1 0x24 PUSH1 0x0 REVERT JUMPDEST PUSH2 0x586 DUP3 PUSH2 0x4A1 JUMP JUMPDEST DUP2 ADD DUP2 DUP2 LT PUSH8 0xFFFFFFFFFFFFFFFF DUP3 GT OR ISZERO PUSH2 0x5A5 JUMPI PUSH2 0x5A4 PUSH2 0x54E JUMP JUMPDEST JUMPDEST DUP1 PUSH1 0x40 MSTORE POP POP POP JUMP JUMPDEST PUSH1 0x0 PUSH2 0x5B8 PUSH2 0x39A JUMP JUMPDEST SWAP1 POP PUSH2 0x5C4 DUP3 DUP3 PUSH2 0x57D JUMP JUMPDEST SWAP2 SWAP1 POP JUMP JUMPDEST PUSH1 0x0 PUSH8 0xFFFFFFFFFFFFFFFF DUP3 GT ISZERO PUSH2 0x5E4 JUMPI PUSH2 0x5E3 PUSH2 0x54E JUMP JUMPDEST JUMPDEST PUSH2 0x5ED DUP3 PUSH2 0x4A1 JUMP JUMPDEST SWAP1 POP PUSH1 0x20 DUP2 ADD SWAP1 POP SWAP2 SWAP1 POP JUMP JUMPDEST DUP3 DUP2 DUP4 CALLDATACOPY PUSH1 0x0 DUP4 DUP4 ADD MSTORE POP POP POP JUMP JUMPDEST PUSH1 0x0 PUSH2 0x61C PUSH2 0x617 DUP5 PUSH2 0x5C9 JUMP JUMPDEST PUSH2 0x5AE JUMP JUMPDEST SWAP1 POP DUP3 DUP2 MSTORE PUSH1 0x20 DUP2 ADD DUP5 DUP5 DUP5 ADD GT ISZERO PUSH2 0x638 JUMPI PUSH2 0x637 PUSH2 0x549 JUMP JUMPDEST JUMPDEST PUSH2 0x643 DUP5 DUP3 DUP6 PUSH2 0x5FA JUMP JUMPDEST POP SWAP4 SWAP3 POP POP POP JUMP JUMPDEST PUSH1 0x0 DUP3 PUSH1 0x1F DUP4 ADD SLT PUSH2 0x660 JUMPI PUSH2 0x65F PUSH2 0x544 JUMP JUMPDEST JUMPDEST DUP2 CALLDATALOAD PUSH2 0x670 DUP5 DUP3 PUSH1 0x20 DUP7 ADD PUSH2 0x609 JUMP JUMPDEST SWAP2 POP POP SWAP3 SWAP2 POP POP JUMP JUMPDEST PUSH1 0x0 PUSH1 0x20 DUP3 DUP5 SUB SLT ISZERO PUSH2 0x68F JUMPI PUSH2 0x68E PUSH2 0x3A4 JUMP JUMPDEST JUMPDEST PUSH1 0x0 DUP3 ADD CALLDATALOAD PUSH8 0xFFFFFFFFFFFFFFFF DUP2 GT ISZERO PUSH2 0x6AD JUMPI PUSH2 0x6AC PUSH2 0x3A9 JUMP JUMPDEST JUMPDEST PUSH2 0x6B9 DUP5 DUP3 DUP6 ADD PUSH2 0x64B JUMP JUMPDEST SWAP2 POP POP SWAP3 SWAP2 POP POP JUMP JUMPDEST PUSH1 0x0 PUSH1 0x20 DUP3 ADD SWAP1 POP PUSH2 0x6D7 PUSH1 0x0 DUP4 ADD DUP5 PUSH2 0x443 JUMP JUMPDEST SWAP3 SWAP2 POP POP JUMP JUMPDEST PUSH2 0x6E6 DUP2 PUSH2 0x3CE JUMP JUMPDEST DUP3 MSTORE POP POP JUMP JUMPDEST PUSH1 0x0 PUSH1 0x20 DUP3 ADD SWAP1 POP PUSH2 0x701 PUSH1 0x0 DUP4 ADD DUP5 PUSH2 0x6DD JUMP JUMPDEST SWAP3 SWAP2 POP POP JUMP JUMPDEST PUSH2 0x710 DUP2 PUSH2 0x4EB JUMP JUMPDEST DUP2 EQ PUSH2 0x71B JUMPI PUSH1 0x0 DUP1 REVERT JUMPDEST POP JUMP JUMPDEST PUSH1 0x0 DUP2 CALLDATALOAD SWAP1 POP PUSH2 0x72D DUP2 PUSH2 0x707 JUMP JUMPDEST SWAP3 SWAP2 POP POP JUMP JUMPDEST PUSH1 0x0 DUP1 PUSH1 0x40 DUP4 DUP6 SUB SLT ISZERO PUSH2 0x74A JUMPI PUSH2 0x749 PUSH2 0x3A4 JUMP JUMPDEST JUMPDEST PUSH1 0x0 PUSH2 0x758 DUP6 DUP3 DUP7 ADD PUSH2 0x3F7 JUMP JUMPDEST SWAP3 POP POP PUSH1 0x20 PUSH2 0x769 DUP6 DUP3 DUP7 ADD PUSH2 0x71E JUMP JUMPDEST SWAP2 POP POP SWAP3 POP SWAP3 SWAP1 POP JUMP JUMPDEST PUSH32 0x4E487B7100000000000000000000000000000000000000000000000000000000 PUSH1 0x0 MSTORE PUSH1 0x22 PUSH1 0x4 MSTORE PUSH1 0x24 PUSH1 0x0 REVERT JUMPDEST PUSH1 0x0 PUSH1 0x2 DUP3 DIV SWAP1 POP PUSH1 0x1 DUP3 AND DUP1 PUSH2 0x7BA JUMPI PUSH1 0x7F DUP3 AND SWAP2 POP JUMPDEST PUSH1 0x20 DUP3 LT DUP2 SUB PUSH2 0x7CD JUMPI PUSH2 0x7CC PUSH2 0x773 JUMP JUMPDEST JUMPDEST POP SWAP2 SWAP1 POP JUMP JUMPDEST PUSH1 0x0 DUP2 SWAP1 POP DUP2 PUSH1 0x0 MSTORE PUSH1 0x20 PUSH1 0x0 KECCAK256 SWAP1 POP SWAP2 SWAP1 POP JUMP JUMPDEST PUSH1 0x0 PUSH1 0x20 PUSH1 0x1F DUP4 ADD DIV SWAP1 POP SWAP2 SWAP1 POP JUMP JUMPDEST PUSH1 0x0 DUP3 DUP3 SHL SWAP1 POP SWAP3 SWAP2 POP POP JUMP JUMPDEST PUSH1 0x0 PUSH1 0x8 DUP4 MUL PUSH2 0x835 PUSH32 0xFFFFFFFFFFFFFFFFFFFFFFFFFFFFFFFFFFFFFFFFFFFFFFFFFFFFFFFFFFFFFFFF DUP3 PUSH2 0x7F8 JUMP JUMPDEST PUSH2 0x83F DUP7 DUP4 PUSH2 0x7F8 JUMP JUMPDEST SWAP6 POP DUP1 NOT DUP5 AND SWAP4 POP DUP1 DUP7 AND DUP5 OR SWAP3 POP POP POP SWAP4 SWAP3 POP POP POP JUMP JUMPDEST PUSH1 0x0 DUP2 SWAP1 POP SWAP2 SWAP1 POP JUMP JUMPDEST PUSH1 0x0 PUSH2 0x87C PUSH2 0x877 PUSH2 0x872 DUP5 PUSH2 0x439 JUMP JUMPDEST PUSH2 0x857 JUMP JUMPDEST PUSH2 0x439 JUMP JUMPDEST SWAP1 POP SWAP2 SWAP1 POP JUMP JUMPDEST PUSH1 0x0 DUP2 SWAP1 POP SWAP2 SWAP1 POP JUMP JUMPDEST PUSH2 0x896 DUP4 PUSH2 0x861 JUMP JUMPDEST PUSH2 0x8AA PUSH2 0x8A2 DUP3 PUSH2 0x883 JUMP JUMPDEST DUP5 DUP5 SLOAD PUSH2 0x805 JUMP JUMPDEST DUP3 SSTORE POP POP POP POP JUMP JUMPDEST PUSH1 0x0 SWAP1 JUMP JUMPDEST PUSH2 0x8BF PUSH2 0x8B2 JUMP JUMPDEST PUSH2 0x8CA DUP2 DUP5 DUP5 PUSH2 0x88D JUMP JUMPDEST POP POP POP JUMP JUMPDEST JUMPDEST DUP2 DUP2 LT ISZERO PUSH2 0x8EE JUMPI PUSH2 0x8E3 PUSH1 0x0 DUP3 PUSH2 0x8B7 JUMP JUMPDEST PUSH1 0x1 DUP2 ADD SWAP1 POP PUSH2 0x8D0 JUMP JUMPDEST POP POP JUMP JUMPDEST PUSH1 0x1F DUP3 GT ISZERO PUSH2 0x933 JUMPI PUSH2 0x904 DUP2 PUSH2 0x7D3 JUMP JUMPDEST PUSH2 0x90D DUP5 PUSH2 0x7E8 JUMP JUMPDEST DUP2 ADD PUSH1 0x20 DUP6 LT ISZERO PUSH2 0x91C JUMPI DUP2 SWAP1 POP JUMPDEST PUSH2 0x930 PUSH2 0x928 DUP6 PUSH2 0x7E8 JUMP JUMPDEST DUP4 ADD DUP3 PUSH2 0x8CF JUMP JUMPDEST POP POP JUMPDEST POP POP POP JUMP JUMPDEST PUSH1 0x0 DUP3 DUP3 SHR SWAP1 POP SWAP3 SWAP2 POP POP JUMP JUMPDEST PUSH1 0x0 PUSH2 0x956 PUSH1 0x0 NOT DUP5 PUSH1 0x8 MUL PUSH2 0x938 JUMP JUMPDEST NOT DUP1 DUP4 AND SWAP2 POP POP SWAP3 SWAP2 POP POP JUMP JUMPDEST PUSH1 0x0 PUSH2 0x96F DUP4 DUP4 PUSH2 0x945 JUMP JUMPDEST SWAP2 POP DUP3 PUSH1 0x2 MUL DUP3 OR SWAP1 POP SWAP3 SWAP2 POP POP JUMP JUMPDEST PUSH2 0x988 DUP3 PUSH2 0x452 JUMP JUMPDEST PUSH8 0xFFFFFFFFFFFFFFFF DUP2 GT ISZERO PUSH2 0x9A1 JUMPI PUSH2 0x9A0 PUSH2 0x54E JUMP JUMPDEST JUMPDEST PUSH2 0x9AB DUP3 SLOAD PUSH2 0x7A2 JUMP JUMPDEST PUSH2 0x9B6 DUP3 DUP3 DUP6 PUSH2 0x8F2 JUMP JUMPDEST PUSH1 0x0 PUSH1 0x20 SWAP1 POP PUSH1 0x1F DUP4 GT PUSH1 0x1 DUP2 EQ PUSH2 0x9E9 JUMPI PUSH1 0x0 DUP5 ISZERO PUSH2 0x9D7 JUMPI DUP3 DUP8 ADD MLOAD SWAP1 POP JUMPDEST PUSH2 0x9E1 DUP6 DUP3 PUSH2 0x963 JUMP JUMPDEST DUP7 SSTORE POP PUSH2 0xA49 JUMP JUMPDEST PUSH1 0x1F NOT DUP5 AND PUSH2 0x9F7 DUP7 PUSH2 0x7D3 JUMP JUMPDEST PUSH1 0x0 JUMPDEST DUP3 DUP2 LT ISZERO PUSH2 0xA1F JUMPI DUP5 DUP10 ADD MLOAD DUP3 SSTORE PUSH1 0x1 DUP3 ADD SWAP2 POP PUSH1 0x20 DUP6 ADD SWAP5 POP PUSH1 0x20 DUP2 ADD SWAP1 POP PUSH2 0x9FA JUMP JUMPDEST DUP7 DUP4 LT ISZERO PUSH2 0xA3C JUMPI DUP5 DUP10 ADD MLOAD PUSH2 0xA38 PUSH1 0x1F DUP10 AND DUP3 PUSH2 0x945 JUMP JUMPDEST DUP4 SSTORE POP JUMPDEST PUSH1 0x1 PUSH1 0x2 DUP9 MUL ADD DUP9 SSTORE POP POP POP JUMPDEST POP POP POP POP POP POP JUMP JUMPDEST PUSH32 0x4E487B7100000000000000000000000000000000000000000000000000000000 PUSH1 0x0 MSTORE PUSH1 0x11 PUSH1 0x4 MSTORE PUSH1 0x24 PUSH1 0x0 REVERT JUMPDEST PUSH1 0x0 PUSH2 0xA8B DUP3 PUSH2 0x439 JUMP JUMPDEST SWAP2 POP PUSH32 0xFFFFFFFFFFFFFFFFFFFFFFFFFFFFFFFFFFFFFFFFFFFFFFFFFFFFFFFFFFFFFFFF DUP3 SUB PUSH2 0xABD JUMPI PUSH2 0xABC PUSH2 0xA51 JUMP JUMPDEST JUMPDEST PUSH1 0x1 DUP3 ADD SWAP1 POP SWAP2 SWAP1 POP JUMP JUMPDEST PUSH32 0x554E415554484F52495A454420666F72207570646174696F6E2041424F525449 PUSH1 0x0 DUP3 ADD MSTORE PUSH32 0x4E47212100000000000000000000000000000000000000000000000000000000 PUSH1 0x20 DUP3 ADD MSTORE POP JUMP JUMPDEST PUSH1 0x0 PUSH2 0xB24 PUSH1 0x24 DUP4 PUSH2 0x45D JUMP JUMPDEST SWAP2 POP PUSH2 0xB2F DUP3 PUSH2 0xAC8 JUMP JUMPDEST PUSH1 0x40 DUP3 ADD SWAP1 POP SWAP2 SWAP1 POP JUMP JUMPDEST PUSH1 0x0 PUSH1 0x20 DUP3 ADD SWAP1 POP DUP2 DUP2 SUB PUSH1 0x0 DUP4 ADD MSTORE PUSH2 0xB53 DUP2 PUSH2 0xB17 JUMP JUMPDEST SWAP1 POP SWAP2 SWAP1 POP JUMP INVALID LOG2 PUSH5 0x6970667358 0x22 SLT KECCAK256 SWAP6 0x1F SWAP7 0x28 0xF8 PUSH30 0xD30541DD20DB725E68660612EDFAF3D3706F05462D608E80EC8164736F6C PUSH4 0x4300080F STOP CALLER "
				},
				"gasEstimates": {
					"creation": {
						"codeDepositCost": "592000",
						"executionCost": "24891",
						"totalCost": "616891"
					},
					"external": {
						"createNewTask(string)": "infinite",
						"taskCreator()": "2555",
						"taskList(address)": "infinite",
						"totalTasks()": "2451",
						"updateTaskCompletion(address,bool)": "27230"
					}
				},
				"methodIdentifiers": {
					"createNewTask(string)": "85edf874",
					"taskCreator()": "d4e06ed4",
					"taskList(address)": "2cc1dece",
					"totalTasks()": "d22c81e5",
					"updateTaskCompletion(address,bool)": "d64404fb"
				}
			},
			"storageLayout": {
				"storage": [
					{
						"astId": 10,
						"contract": "contracts/8_todolists.sol:onChainToDoList",
						"label": "taskCreator",
						"offset": 0,
						"slot": "0",
						"type": "t_address"
					},
					{
						"astId": 21,
						"contract": "contracts/8_todolists.sol:onChainToDoList",
						"label": "totalTasks",
						"offset": 0,
						"slot": "1",
						"type": "t_uint256"
					},
					{
						"astId": 26,
						"contract": "contracts/8_todolists.sol:onChainToDoList",
						"label": "taskList",
						"offset": 0,
						"slot": "2",
						"type": "t_mapping(t_address,t_struct(taskToAdd)8_storage)"
					}
				],
				"types": {
					"t_address": {
						"encoding": "inplace",
						"label": "address",
						"numberOfBytes": "20"
					},
					"t_bool": {
						"encoding": "inplace",
						"label": "bool",
						"numberOfBytes": "1"
					},
					"t_mapping(t_address,t_struct(taskToAdd)8_storage)": {
						"encoding": "mapping",
						"key": "t_address",
						"label": "mapping(address => struct onChainToDoList.taskToAdd)",
						"numberOfBytes": "32",
						"value": "t_struct(taskToAdd)8_storage"
					},
					"t_string_storage": {
						"encoding": "bytes",
						"label": "string",
						"numberOfBytes": "32"
					},
					"t_struct(taskToAdd)8_storage": {
						"encoding": "inplace",
						"label": "struct onChainToDoList.taskToAdd",
						"members": [
							{
								"astId": 3,
								"contract": "contracts/8_todolists.sol:onChainToDoList",
								"label": "taskId",
								"offset": 0,
								"slot": "0",
								"type": "t_uint256"
							},
							{
								"astId": 5,
								"contract": "contracts/8_todolists.sol:onChainToDoList",
								"label": "task",
								"offset": 0,
								"slot": "1",
								"type": "t_string_storage"
							},
							{
								"astId": 7,
								"contract": "contracts/8_todolists.sol:onChainToDoList",
								"label": "isCompleted",
								"offset": 0,
								"slot": "2",
								"type": "t_bool"
							}
						],
						"numberOfBytes": "96"
					},
					"t_uint256": {
						"encoding": "inplace",
						"label": "uint256",
						"numberOfBytes": "32"
					}
				}
			},
			"userdoc": {
				"kind": "user",
				"methods": {},
				"version": 1
			}
		}
	}
}