{
	"contracts/escrowsystem.sol": {
		"EscrowSmartContract": {
			"abi": [
				{
					"inputs": [
						{
							"internalType": "address",
							"name": "owner",
							"type": "address"
						}
					],
					"name": "OwnableInvalidOwner",
					"type": "error"
				},
				{
					"inputs": [
						{
							"internalType": "address",
							"name": "account",
							"type": "address"
						}
					],
					"name": "OwnableUnauthorizedAccount",
					"type": "error"
				},
				{
					"anonymous": false,
					"inputs": [
						{
							"indexed": true,
							"internalType": "address",
							"name": "arbiter",
							"type": "address"
						}
					],
					"name": "ArbiterApproved",
					"type": "event"
				},
				{
					"anonymous": false,
					"inputs": [
						{
							"indexed": true,
							"internalType": "uint256",
							"name": "escrowId",
							"type": "uint256"
						},
						{
							"indexed": false,
							"internalType": "uint256",
							"name": "amount",
							"type": "uint256"
						}
					],
					"name": "Deposited",
					"type": "event"
				},
				{
					"anonymous": false,
					"inputs": [
						{
							"indexed": true,
							"internalType": "uint256",
							"name": "escrowId",
							"type": "uint256"
						}
					],
					"name": "Disputed",
					"type": "event"
				},
				{
					"anonymous": false,
					"inputs": [
						{
							"indexed": true,
							"internalType": "uint256",
							"name": "escrowId",
							"type": "uint256"
						},
						{
							"indexed": false,
							"internalType": "address",
							"name": "buyer",
							"type": "address"
						},
						{
							"indexed": false,
							"internalType": "address",
							"name": "seller",
							"type": "address"
						}
					],
					"name": "EscrowCreated",
					"type": "event"
				},
				{
					"anonymous": false,
					"inputs": [
						{
							"indexed": true,
							"internalType": "address",
							"name": "previousOwner",
							"type": "address"
						},
						{
							"indexed": true,
							"internalType": "address",
							"name": "newOwner",
							"type": "address"
						}
					],
					"name": "OwnershipTransferred",
					"type": "event"
				},
				{
					"anonymous": false,
					"inputs": [
						{
							"indexed": true,
							"internalType": "uint256",
							"name": "escrowId",
							"type": "uint256"
						}
					],
					"name": "Released",
					"type": "event"
				},
				{
					"anonymous": false,
					"inputs": [
						{
							"indexed": true,
							"internalType": "uint256",
							"name": "escrowId",
							"type": "uint256"
						},
						{
							"indexed": false,
							"internalType": "bool",
							"name": "releasedToSeller",
							"type": "bool"
						}
					],
					"name": "Resolved",
					"type": "event"
				},
				{
					"anonymous": false,
					"inputs": [
						{
							"indexed": true,
							"internalType": "address",
							"name": "user",
							"type": "address"
						},
						{
							"indexed": false,
							"internalType": "enum EscrowSmartContract.Role",
							"name": "role",
							"type": "uint8"
						}
					],
					"name": "UserRegistered",
					"type": "event"
				},
				{
					"inputs": [
						{
							"internalType": "address",
							"name": "_arbiter",
							"type": "address"
						}
					],
					"name": "approveArbiter",
					"outputs": [],
					"stateMutability": "nonpayable",
					"type": "function"
				},
				{
					"inputs": [
						{
							"internalType": "uint256",
							"name": "_escrowId",
							"type": "uint256"
						}
					],
					"name": "confirmDelivery",
					"outputs": [],
					"stateMutability": "nonpayable",
					"type": "function"
				},
				{
					"inputs": [
						{
							"internalType": "address payable",
							"name": "_seller",
							"type": "address"
						}
					],
					"name": "createEscrow",
					"outputs": [
						{
							"internalType": "uint256",
							"name": "",
							"type": "uint256"
						}
					],
					"stateMutability": "nonpayable",
					"type": "function"
				},
				{
					"inputs": [
						{
							"internalType": "uint256",
							"name": "_escrowId",
							"type": "uint256"
						}
					],
					"name": "deposit",
					"outputs": [],
					"stateMutability": "payable",
					"type": "function"
				},
				{
					"inputs": [],
					"name": "escrowCounter",
					"outputs": [
						{
							"internalType": "uint256",
							"name": "",
							"type": "uint256"
						}
					],
					"stateMutability": "view",
					"type": "function"
				},
				{
					"inputs": [
						{
							"internalType": "uint256",
							"name": "",
							"type": "uint256"
						}
					],
					"name": "escrows",
					"outputs": [
						{
							"internalType": "uint256",
							"name": "id",
							"type": "uint256"
						},
						{
							"internalType": "address payable",
							"name": "buyer",
							"type": "address"
						},
						{
							"internalType": "address payable",
							"name": "seller",
							"type": "address"
						},
						{
							"internalType": "uint256",
							"name": "amount",
							"type": "uint256"
						},
						{
							"internalType": "enum EscrowSmartContract.EscrowState",
							"name": "state",
							"type": "uint8"
						},
						{
							"internalType": "bool",
							"name": "exists",
							"type": "bool"
						}
					],
					"stateMutability": "view",
					"type": "function"
				},
				{
					"inputs": [
						{
							"internalType": "uint256",
							"name": "_escrowId",
							"type": "uint256"
						}
					],
					"name": "getEscrow",
					"outputs": [
						{
							"components": [
								{
									"internalType": "uint256",
									"name": "id",
									"type": "uint256"
								},
								{
									"internalType": "address payable",
									"name": "buyer",
									"type": "address"
								},
								{
									"internalType": "address payable",
									"name": "seller",
									"type": "address"
								},
								{
									"internalType": "uint256",
									"name": "amount",
									"type": "uint256"
								},
								{
									"internalType": "enum EscrowSmartContract.EscrowState",
									"name": "state",
									"type": "uint8"
								},
								{
									"internalType": "bool",
									"name": "exists",
									"type": "bool"
								}
							],
							"internalType": "struct EscrowSmartContract.Escrow",
							"name": "",
							"type": "tuple"
						}
					],
					"stateMutability": "view",
					"type": "function"
				},
				{
					"inputs": [],
					"name": "owner",
					"outputs": [
						{
							"internalType": "address",
							"name": "",
							"type": "address"
						}
					],
					"stateMutability": "view",
					"type": "function"
				},
				{
					"inputs": [
						{
							"internalType": "uint256",
							"name": "_escrowId",
							"type": "uint256"
						}
					],
					"name": "raiseDispute",
					"outputs": [],
					"stateMutability": "nonpayable",
					"type": "function"
				},
				{
					"inputs": [
						{
							"internalType": "enum EscrowSmartContract.Role",
							"name": "_role",
							"type": "uint8"
						}
					],
					"name": "register",
					"outputs": [],
					"stateMutability": "nonpayable",
					"type": "function"
				},
				{
					"inputs": [
						{
							"internalType": "address",
							"name": "",
							"type": "address"
						}
					],
					"name": "registrations",
					"outputs": [
						{
							"internalType": "enum EscrowSmartContract.Role",
							"name": "role",
							"type": "uint8"
						},
						{
							"internalType": "bool",
							"name": "arbiterApproved",
							"type": "bool"
						},
						{
							"internalType": "uint256",
							"name": "registeredAt",
							"type": "uint256"
						}
					],
					"stateMutability": "view",
					"type": "function"
				},
				{
					"inputs": [],
					"name": "renounceOwnership",
					"outputs": [],
					"stateMutability": "nonpayable",
					"type": "function"
				},
				{
					"inputs": [
						{
							"internalType": "uint256",
							"name": "_escrowId",
							"type": "uint256"
						},
						{
							"internalType": "bool",
							"name": "releaseToSeller",
							"type": "bool"
						}
					],
					"name": "resolveDispute",
					"outputs": [],
					"stateMutability": "nonpayable",
					"type": "function"
				},
				{
					"inputs": [],
					"name": "totalFundsLocked",
					"outputs": [
						{
							"internalType": "uint256",
							"name": "",
							"type": "uint256"
						}
					],
					"stateMutability": "view",
					"type": "function"
				},
				{
					"inputs": [
						{
							"internalType": "address",
							"name": "newOwner",
							"type": "address"
						}
					],
					"name": "transferOwnership",
					"outputs": [],
					"stateMutability": "nonpayable",
					"type": "function"
				},
				{
					"stateMutability": "payable",
					"type": "receive"
				}
			],
			"devdoc": {
				"errors": {
					"OwnableInvalidOwner(address)": [
						{
							"details": "The owner is not a valid owner account. (eg. `address(0)`)"
						}
					],
					"OwnableUnauthorizedAccount(address)": [
						{
							"details": "The caller account is not authorized to perform an operation."
						}
					]
				},
				"kind": "dev",
				"methods": {
					"owner()": {
						"details": "Returns the address of the current owner."
					},
					"renounceOwnership()": {
						"details": "Leaves the contract without owner. It will not be possible to call `onlyOwner` functions. Can only be called by the current owner. NOTE: Renouncing ownership will leave the contract without an owner, thereby disabling any functionality that is only available to the owner."
					},
					"transferOwnership(address)": {
						"details": "Transfers ownership of the contract to a new account (`newOwner`). Can only be called by the current owner."
					}
				},
				"version": 1
			},
			"evm": {
				"assembly": "    /* \"contracts/escrowsystem.sol\":237:6210  contract EscrowSmartContract is ReentrancyGuard, Ownable(msg.sender) {... */\n  mstore(0x40, 0x80)\n  callvalue\n  dup1\n  iszero\n  tag_1\n  jumpi\n  revert(0x00, 0x00)\ntag_1:\n  pop\n    /* \"contracts/escrowsystem.sol\":294:304  msg.sender */\n  caller\n    /* \"@openzeppelin/contracts/security/ReentrancyGuard.sol\":1716:1717  1 */\n  0x01\n    /* \"@openzeppelin/contracts/security/ReentrancyGuard.sol\":1821:1828  _status */\n  0x00\n    /* \"@openzeppelin/contracts/security/ReentrancyGuard.sol\":1821:1843  _status = _NOT_ENTERED */\n  dup2\n  swap1\n  sstore\n  pop\n    /* \"@openzeppelin/contracts/access/Ownable.sol\":1297:1298  0 */\n  0x00\n    /* \"@openzeppelin/contracts/access/Ownable.sol\":1273:1299  initialOwner == address(0) */\n  0xffffffffffffffffffffffffffffffffffffffff\n  and\n    /* \"@openzeppelin/contracts/access/Ownable.sol\":1273:1285  initialOwner */\n  dup2\n    /* \"@openzeppelin/contracts/access/Ownable.sol\":1273:1299  initialOwner == address(0) */\n  0xffffffffffffffffffffffffffffffffffffffff\n  and\n  sub\n    /* \"@openzeppelin/contracts/access/Ownable.sol\":1269:1364  if (initialOwner == address(0)) {... */\n  tag_6\n  jumpi\n    /* \"@openzeppelin/contracts/access/Ownable.sol\":1350:1351  0 */\n  0x00\n    /* \"@openzeppelin/contracts/access/Ownable.sol\":1322:1353  OwnableInvalidOwner(address(0)) */\n  mload(0x40)\n  0x1e4fbdf700000000000000000000000000000000000000000000000000000000\n  dup2\n  mstore\n  0x04\n  add\n  tag_7\n  swap2\n  swap1\n  tag_8\n  jump\t// in\ntag_7:\n  mload(0x40)\n  dup1\n  swap2\n  sub\n  swap1\n  revert\n    /* \"@openzeppelin/contracts/access/Ownable.sol\":1269:1364  if (initialOwner == address(0)) {... */\ntag_6:\n    /* \"@openzeppelin/contracts/access/Ownable.sol\":1373:1405  _transferOwnership(initialOwner) */\n  tag_9\n    /* \"@openzeppelin/contracts/access/Ownable.sol\":1392:1404  initialOwner */\n  dup2\n    /* \"@openzeppelin/contracts/access/Ownable.sol\":1373:1391  _transferOwnership */\n  shl(0x20, tag_10)\n    /* \"@openzeppelin/contracts/access/Ownable.sol\":1373:1405  _transferOwnership(initialOwner) */\n  0x20\n  shr\n  jump\t// in\ntag_9:\n    /* \"@openzeppelin/contracts/access/Ownable.sol\":1225:1412  constructor(address initialOwner) {... */\n  pop\n    /* \"contracts/escrowsystem.sol\":237:6210  contract EscrowSmartContract is ReentrancyGuard, Ownable(msg.sender) {... */\n  jump(tag_11)\n    /* \"@openzeppelin/contracts/access/Ownable.sol\":2912:3099  function _transferOwnership(address newOwner) internal virtual {... */\ntag_10:\n    /* \"@openzeppelin/contracts/access/Ownable.sol\":2985:3001  address oldOwner */\n  0x00\n    /* \"@openzeppelin/contracts/access/Ownable.sol\":3004:3010  _owner */\n  0x01\n  0x00\n  swap1\n  sload\n  swap1\n  0x0100\n  exp\n  swap1\n  div\n  0xffffffffffffffffffffffffffffffffffffffff\n  and\n    /* \"@openzeppelin/contracts/access/Ownable.sol\":2985:3010  address oldOwner = _owner */\n  swap1\n  pop\n    /* \"@openzeppelin/contracts/access/Ownable.sol\":3029:3037  newOwner */\n  dup2\n    /* \"@openzeppelin/contracts/access/Ownable.sol\":3020:3026  _owner */\n  0x01\n  0x00\n    /* \"@openzeppelin/contracts/access/Ownable.sol\":3020:3037  _owner = newOwner */\n  0x0100\n  exp\n  dup2\n  sload\n  dup2\n  0xffffffffffffffffffffffffffffffffffffffff\n  mul\n  not\n  and\n  swap1\n  dup4\n  0xffffffffffffffffffffffffffffffffffffffff\n  and\n  mul\n  or\n  swap1\n  sstore\n  pop\n    /* \"@openzeppelin/contracts/access/Ownable.sol\":3083:3091  newOwner */\n  dup2\n    /* \"@openzeppelin/contracts/access/Ownable.sol\":3052:3092  OwnershipTransferred(oldOwner, newOwner) */\n  0xffffffffffffffffffffffffffffffffffffffff\n  and\n    /* \"@openzeppelin/contracts/access/Ownable.sol\":3073:3081  oldOwner */\n  dup2\n    /* \"@openzeppelin/contracts/access/Ownable.sol\":3052:3092  OwnershipTransferred(oldOwner, newOwner) */\n  0xffffffffffffffffffffffffffffffffffffffff\n  and\n  0x8be0079c531659141344cd1fd0a4f28419497f9722a3daafe3b4186f6b6457e0\n  mload(0x40)\n  mload(0x40)\n  dup1\n  swap2\n  sub\n  swap1\n  log3\n    /* \"@openzeppelin/contracts/access/Ownable.sol\":2975:3099  {... */\n  pop\n    /* \"@openzeppelin/contracts/access/Ownable.sol\":2912:3099  function _transferOwnership(address newOwner) internal virtual {... */\n  pop\n  jump\t// out\n    /* \"#utility.yul\":7:133   */\ntag_13:\n    /* \"#utility.yul\":44:51   */\n  0x00\n    /* \"#utility.yul\":84:126   */\n  0xffffffffffffffffffffffffffffffffffffffff\n    /* \"#utility.yul\":77:82   */\n  dup3\n    /* \"#utility.yul\":73:127   */\n  and\n    /* \"#utility.yul\":62:127   */\n  swap1\n  pop\n    /* \"#utility.yul\":7:133   */\n  swap2\n  swap1\n  pop\n  jump\t// out\n    /* \"#utility.yul\":139:235   */\ntag_14:\n    /* \"#utility.yul\":176:183   */\n  0x00\n    /* \"#utility.yul\":205:229   */\n  tag_19\n    /* \"#utility.yul\":223:228   */\n  dup3\n    /* \"#utility.yul\":205:229   */\n  tag_13\n  jump\t// in\ntag_19:\n    /* \"#utility.yul\":194:229   */\n  swap1\n  pop\n    /* \"#utility.yul\":139:235   */\n  swap2\n  swap1\n  pop\n  jump\t// out\n    /* \"#utility.yul\":241:359   */\ntag_15:\n    /* \"#utility.yul\":328:352   */\n  tag_21\n    /* \"#utility.yul\":346:351   */\n  dup2\n    /* \"#utility.yul\":328:352   */\n  tag_14\n  jump\t// in\ntag_21:\n    /* \"#utility.yul\":323:326   */\n  dup3\n    /* \"#utility.yul\":316:353   */\n  mstore\n    /* \"#utility.yul\":241:359   */\n  pop\n  pop\n  jump\t// out\n    /* \"#utility.yul\":365:587   */\ntag_8:\n    /* \"#utility.yul\":458:462   */\n  0x00\n    /* \"#utility.yul\":496:498   */\n  0x20\n    /* \"#utility.yul\":485:494   */\n  dup3\n    /* \"#utility.yul\":481:499   */\n  add\n    /* \"#utility.yul\":473:499   */\n  swap1\n  pop\n    /* \"#utility.yul\":509:580   */\n  tag_23\n    /* \"#utility.yul\":577:578   */\n  0x00\n    /* \"#utility.yul\":566:575   */\n  dup4\n    /* \"#utility.yul\":562:579   */\n  add\n    /* \"#utility.yul\":553:559   */\n  dup5\n    /* \"#utility.yul\":509:580   */\n  tag_15\n  jump\t// in\ntag_23:\n    /* \"#utility.yul\":365:587   */\n  swap3\n  swap2\n  pop\n  pop\n  jump\t// out\n    /* \"contracts/escrowsystem.sol\":237:6210  contract EscrowSmartContract is ReentrancyGuard, Ownable(msg.sender) {... */\ntag_11:\n  dataSize(sub_0)\n  dup1\n  dataOffset(sub_0)\n  0x00\n  codecopy\n  0x00\n  return\nstop\n\nsub_0: assembly {\n        /* \"contracts/escrowsystem.sol\":237:6210  contract EscrowSmartContract is ReentrancyGuard, Ownable(msg.sender) {... */\n      mstore(0x40, 0x80)\n      jumpi(tag_1, lt(calldatasize, 0x04))\n      shr(0xe0, calldataload(0x00))\n      dup1\n      0xa5c1674e\n      gt\n      tag_18\n      jumpi\n      dup1\n      0xee2d8657\n      gt\n      tag_19\n      jumpi\n      dup1\n      0xee2d8657\n      eq\n      tag_14\n      jumpi\n      dup1\n      0xf2fde38b\n      eq\n      tag_15\n      jumpi\n      dup1\n      0xf6a8419e\n      eq\n      tag_16\n      jumpi\n      dup1\n      0xfd84cb97\n      eq\n      tag_17\n      jumpi\n      jump(tag_2)\n    tag_19:\n      dup1\n      0xa5c1674e\n      eq\n      tag_10\n      jumpi\n      dup1\n      0xb592d3a1\n      eq\n      tag_11\n      jumpi\n      dup1\n      0xb6b55f25\n      eq\n      tag_12\n      jumpi\n      dup1\n      0xc7ceafea\n      eq\n      tag_13\n      jumpi\n      jump(tag_2)\n    tag_18:\n      dup1\n      0x715018a6\n      gt\n      tag_20\n      jumpi\n      dup1\n      0x715018a6\n      eq\n      tag_6\n      jumpi\n      dup1\n      0x7d19e596\n      eq\n      tag_7\n      jumpi\n      dup1\n      0x8da5cb5b\n      eq\n      tag_8\n      jumpi\n      dup1\n      0x942e6bcf\n      eq\n      tag_9\n      jumpi\n      jump(tag_2)\n    tag_20:\n      dup1\n      0x012f52ee\n      eq\n      tag_3\n      jumpi\n      dup1\n      0x34b25ee2\n      eq\n      tag_4\n      jumpi\n      dup1\n      0x61d689fa\n      eq\n      tag_5\n      jumpi\n      jump(tag_2)\n    tag_1:\n      jumpi(tag_2, calldatasize)\n        /* \"contracts/escrowsystem.sol\":6162:6199  revert(\"Direct payments not allowed\") */\n      mload(0x40)\n      0x08c379a000000000000000000000000000000000000000000000000000000000\n      dup2\n      mstore\n      0x04\n      add\n      tag_23\n      swap1\n      tag_24\n      jump\t// in\n    tag_23:\n      mload(0x40)\n      dup1\n      swap2\n      sub\n      swap1\n      revert\n        /* \"contracts/escrowsystem.sol\":237:6210  contract EscrowSmartContract is ReentrancyGuard, Ownable(msg.sender) {... */\n    tag_2:\n      revert(0x00, 0x00)\n        /* \"contracts/escrowsystem.sol\":1102:1143  mapping(uint256 => Escrow) public escrows */\n    tag_3:\n      callvalue\n      dup1\n      iszero\n      tag_25\n      jumpi\n      revert(0x00, 0x00)\n    tag_25:\n      pop\n      tag_26\n      0x04\n      dup1\n      calldatasize\n      sub\n      dup2\n      add\n      swap1\n      tag_27\n      swap2\n      swap1\n      tag_28\n      jump\t// in\n    tag_27:\n      tag_29\n      jump\t// in\n    tag_26:\n      mload(0x40)\n      tag_30\n      swap7\n      swap6\n      swap5\n      swap4\n      swap3\n      swap2\n      swap1\n      tag_31\n      jump\t// in\n    tag_30:\n      mload(0x40)\n      dup1\n      swap2\n      sub\n      swap1\n      return\n        /* \"contracts/escrowsystem.sol\":5029:5964  function resolveDispute(uint256 _escrowId, bool releaseToSeller) external nonReentrant escrowExists(_escrowId) onlyRegistered(Role.ARBITER) {... */\n    tag_4:\n      callvalue\n      dup1\n      iszero\n      tag_32\n      jumpi\n      revert(0x00, 0x00)\n    tag_32:\n      pop\n      tag_33\n      0x04\n      dup1\n      calldatasize\n      sub\n      dup2\n      add\n      swap1\n      tag_34\n      swap2\n      swap1\n      tag_35\n      jump\t// in\n    tag_34:\n      tag_36\n      jump\t// in\n    tag_33:\n      stop\n        /* \"contracts/escrowsystem.sol\":1977:2387  function register(Role _role) external {... */\n    tag_5:\n      callvalue\n      dup1\n      iszero\n      tag_37\n      jumpi\n      revert(0x00, 0x00)\n    tag_37:\n      pop\n      tag_38\n      0x04\n      dup1\n      calldatasize\n      sub\n      dup2\n      add\n      swap1\n      tag_39\n      swap2\n      swap1\n      tag_40\n      jump\t// in\n    tag_39:\n      tag_41\n      jump\t// in\n    tag_38:\n      stop\n        /* \"@openzeppelin/contracts/access/Ownable.sol\":2293:2394  function renounceOwnership() public virtual onlyOwner {... */\n    tag_6:\n      callvalue\n      dup1\n      iszero\n      tag_42\n      jumpi\n      revert(0x00, 0x00)\n    tag_42:\n      pop\n      tag_43\n      tag_44\n      jump\t// in\n    tag_43:\n      stop\n        /* \"contracts/escrowsystem.sol\":5996:6116  function getEscrow(uint256 _escrowId) external view returns (Escrow memory) {... */\n    tag_7:\n      callvalue\n      dup1\n      iszero\n      tag_45\n      jumpi\n      revert(0x00, 0x00)\n    tag_45:\n      pop\n      tag_46\n      0x04\n      dup1\n      calldatasize\n      sub\n      dup2\n      add\n      swap1\n      tag_47\n      swap2\n      swap1\n      tag_28\n      jump\t// in\n    tag_47:\n      tag_48\n      jump\t// in\n    tag_46:\n      mload(0x40)\n      tag_49\n      swap2\n      swap1\n      tag_50\n      jump\t// in\n    tag_49:\n      mload(0x40)\n      dup1\n      swap2\n      sub\n      swap1\n      return\n        /* \"@openzeppelin/contracts/access/Ownable.sol\":1638:1723  function owner() public view virtual returns (address) {... */\n    tag_8:\n      callvalue\n      dup1\n      iszero\n      tag_51\n      jumpi\n      revert(0x00, 0x00)\n    tag_51:\n      pop\n      tag_52\n      tag_53\n      jump\t// in\n    tag_52:\n      mload(0x40)\n      tag_54\n      swap2\n      swap1\n      tag_55\n      jump\t// in\n    tag_54:\n      mload(0x40)\n      dup1\n      swap2\n      sub\n      swap1\n      return\n        /* \"contracts/escrowsystem.sol\":1042:1095  mapping(address => Registration) public registrations */\n    tag_9:\n      callvalue\n      dup1\n      iszero\n      tag_56\n      jumpi\n      revert(0x00, 0x00)\n    tag_56:\n      pop\n      tag_57\n      0x04\n      dup1\n      calldatasize\n      sub\n      dup2\n      add\n      swap1\n      tag_58\n      swap2\n      swap1\n      tag_59\n      jump\t// in\n    tag_58:\n      tag_60\n      jump\t// in\n    tag_57:\n      mload(0x40)\n      tag_61\n      swap4\n      swap3\n      swap2\n      swap1\n      tag_62\n      jump\t// in\n    tag_61:\n      mload(0x40)\n      dup1\n      swap2\n      sub\n      swap1\n      return\n        /* \"contracts/escrowsystem.sol\":4604:4980  function raiseDispute(uint256 _escrowId) external escrowExists(_escrowId){... */\n    tag_10:\n      callvalue\n      dup1\n      iszero\n      tag_63\n      jumpi\n      revert(0x00, 0x00)\n    tag_63:\n      pop\n      tag_64\n      0x04\n      dup1\n      calldatasize\n      sub\n      dup2\n      add\n      swap1\n      tag_65\n      swap2\n      swap1\n      tag_28\n      jump\t// in\n    tag_65:\n      tag_66\n      jump\t// in\n    tag_64:\n      stop\n        /* \"contracts/escrowsystem.sol\":2445:2696  function approveArbiter(address _arbiter) external onlyOwner {... */\n    tag_11:\n      callvalue\n      dup1\n      iszero\n      tag_67\n      jumpi\n      revert(0x00, 0x00)\n    tag_67:\n      pop\n      tag_68\n      0x04\n      dup1\n      calldatasize\n      sub\n      dup2\n      add\n      swap1\n      tag_69\n      swap2\n      swap1\n      tag_59\n      jump\t// in\n    tag_69:\n      tag_70\n      jump\t// in\n    tag_68:\n      stop\n        /* \"contracts/escrowsystem.sol\":3363:3890  function deposit(uint256 _escrowId) external payable nonReentrant escrowExists(_escrowId) {... */\n    tag_12:\n      tag_71\n      0x04\n      dup1\n      calldatasize\n      sub\n      dup2\n      add\n      swap1\n      tag_72\n      swap2\n      swap1\n      tag_28\n      jump\t// in\n    tag_72:\n      tag_73\n      jump\t// in\n    tag_71:\n      stop\n        /* \"contracts/escrowsystem.sol\":901:929  uint256 public escrowCounter */\n    tag_13:\n      callvalue\n      dup1\n      iszero\n      tag_74\n      jumpi\n      revert(0x00, 0x00)\n    tag_74:\n      pop\n      tag_75\n      tag_76\n      jump\t// in\n    tag_75:\n      mload(0x40)\n      tag_77\n      swap2\n      swap1\n      tag_78\n      jump\t// in\n    tag_77:\n      mload(0x40)\n      dup1\n      swap2\n      sub\n      swap1\n      return\n        /* \"contracts/escrowsystem.sol\":972:1003  uint256 public totalFundsLocked */\n    tag_14:\n      callvalue\n      dup1\n      iszero\n      tag_79\n      jumpi\n      revert(0x00, 0x00)\n    tag_79:\n      pop\n      tag_80\n      tag_81\n      jump\t// in\n    tag_80:\n      mload(0x40)\n      tag_82\n      swap2\n      swap1\n      tag_78\n      jump\t// in\n    tag_82:\n      mload(0x40)\n      dup1\n      swap2\n      sub\n      swap1\n      return\n        /* \"@openzeppelin/contracts/access/Ownable.sol\":2543:2758  function transferOwnership(address newOwner) public virtual onlyOwner {... */\n    tag_15:\n      callvalue\n      dup1\n      iszero\n      tag_83\n      jumpi\n      revert(0x00, 0x00)\n    tag_83:\n      pop\n      tag_84\n      0x04\n      dup1\n      calldatasize\n      sub\n      dup2\n      add\n      swap1\n      tag_85\n      swap2\n      swap1\n      tag_59\n      jump\t// in\n    tag_85:\n      tag_86\n      jump\t// in\n    tag_84:\n      stop\n        /* \"contracts/escrowsystem.sol\":2736:3312  function createEscrow(address payable _seller) external onlyRegistered(Role.BUYER) returns (uint256) {... */\n    tag_16:\n      callvalue\n      dup1\n      iszero\n      tag_87\n      jumpi\n      revert(0x00, 0x00)\n    tag_87:\n      pop\n      tag_88\n      0x04\n      dup1\n      calldatasize\n      sub\n      dup2\n      add\n      swap1\n      tag_89\n      swap2\n      swap1\n      tag_90\n      jump\t// in\n    tag_89:\n      tag_91\n      jump\t// in\n    tag_88:\n      mload(0x40)\n      tag_92\n      swap2\n      swap1\n      tag_78\n      jump\t// in\n    tag_92:\n      mload(0x40)\n      dup1\n      swap2\n      sub\n      swap1\n      return\n        /* \"contracts/escrowsystem.sol\":3942:4551  function confirmDelivery(uint256 _escrowId) external nonReentrant escrowExists(_escrowId) {... */\n    tag_17:\n      callvalue\n      dup1\n      iszero\n      tag_93\n      jumpi\n      revert(0x00, 0x00)\n    tag_93:\n      pop\n      tag_94\n      0x04\n      dup1\n      calldatasize\n      sub\n      dup2\n      add\n      swap1\n      tag_95\n      swap2\n      swap1\n      tag_28\n      jump\t// in\n    tag_95:\n      tag_96\n      jump\t// in\n    tag_94:\n      stop\n        /* \"contracts/escrowsystem.sol\":1102:1143  mapping(uint256 => Escrow) public escrows */\n    tag_29:\n      mstore(0x20, 0x05)\n      dup1\n      0x00\n      mstore\n      keccak256(0x00, 0x40)\n      0x00\n      swap2\n      pop\n      swap1\n      pop\n      dup1\n      0x00\n      add\n      sload\n      swap1\n      dup1\n      0x01\n      add\n      0x00\n      swap1\n      sload\n      swap1\n      0x0100\n      exp\n      swap1\n      div\n      0xffffffffffffffffffffffffffffffffffffffff\n      and\n      swap1\n      dup1\n      0x02\n      add\n      0x00\n      swap1\n      sload\n      swap1\n      0x0100\n      exp\n      swap1\n      div\n      0xffffffffffffffffffffffffffffffffffffffff\n      and\n      swap1\n      dup1\n      0x03\n      add\n      sload\n      swap1\n      dup1\n      0x04\n      add\n      0x00\n      swap1\n      sload\n      swap1\n      0x0100\n      exp\n      swap1\n      div\n      0xff\n      and\n      swap1\n      dup1\n      0x04\n      add\n      0x01\n      swap1\n      sload\n      swap1\n      0x0100\n      exp\n      swap1\n      div\n      0xff\n      and\n      swap1\n      pop\n      dup7\n      jump\t// out\n        /* \"contracts/escrowsystem.sol\":5029:5964  function resolveDispute(uint256 _escrowId, bool releaseToSeller) external nonReentrant escrowExists(_escrowId) onlyRegistered(Role.ARBITER) {... */\n    tag_36:\n        /* \"@openzeppelin/contracts/security/ReentrancyGuard.sol\":2261:2282  _nonReentrantBefore() */\n      tag_98\n        /* \"@openzeppelin/contracts/security/ReentrancyGuard.sol\":2261:2280  _nonReentrantBefore */\n      tag_99\n        /* \"@openzeppelin/contracts/security/ReentrancyGuard.sol\":2261:2282  _nonReentrantBefore() */\n      jump\t// in\n    tag_98:\n        /* \"contracts/escrowsystem.sol\":5129:5138  _escrowId */\n      dup2\n        /* \"contracts/escrowsystem.sol\":1866:1873  escrows */\n      0x05\n        /* \"contracts/escrowsystem.sol\":1866:1878  escrows[_id] */\n      0x00\n        /* \"contracts/escrowsystem.sol\":1874:1877  _id */\n      dup3\n        /* \"contracts/escrowsystem.sol\":1866:1878  escrows[_id] */\n      dup2\n      mstore\n      0x20\n      add\n      swap1\n      dup2\n      mstore\n      0x20\n      add\n      0x00\n      keccak256\n        /* \"contracts/escrowsystem.sol\":1866:1885  escrows[_id].exists */\n      0x04\n      add\n      0x01\n      swap1\n      sload\n      swap1\n      0x0100\n      exp\n      swap1\n      div\n      0xff\n      and\n        /* \"contracts/escrowsystem.sol\":1858:1911  require(escrows[_id].exists, \"Escrow does not exist\") */\n      tag_101\n      jumpi\n      mload(0x40)\n      0x08c379a000000000000000000000000000000000000000000000000000000000\n      dup2\n      mstore\n      0x04\n      add\n      tag_102\n      swap1\n      tag_103\n      jump\t// in\n    tag_102:\n      mload(0x40)\n      dup1\n      swap2\n      sub\n      swap1\n      revert\n    tag_101:\n        /* \"contracts/escrowsystem.sol\":5155:5167  Role.ARBITER */\n      0x03\n        /* \"contracts/escrowsystem.sol\":1762:1767  _role */\n      dup1\n        /* \"contracts/escrowsystem.sol\":1728:1767  registrations[msg.sender].role == _role */\n      0x03\n      dup2\n      gt\n      iszero\n      tag_105\n      jumpi\n      tag_106\n      tag_107\n      jump\t// in\n    tag_106:\n    tag_105:\n        /* \"contracts/escrowsystem.sol\":1728:1741  registrations */\n      0x04\n        /* \"contracts/escrowsystem.sol\":1728:1753  registrations[msg.sender] */\n      0x00\n        /* \"contracts/escrowsystem.sol\":1742:1752  msg.sender */\n      caller\n        /* \"contracts/escrowsystem.sol\":1728:1753  registrations[msg.sender] */\n      0xffffffffffffffffffffffffffffffffffffffff\n      and\n      0xffffffffffffffffffffffffffffffffffffffff\n      and\n      dup2\n      mstore\n      0x20\n      add\n      swap1\n      dup2\n      mstore\n      0x20\n      add\n      0x00\n      keccak256\n        /* \"contracts/escrowsystem.sol\":1728:1758  registrations[msg.sender].role */\n      0x00\n      add\n      0x00\n      swap1\n      sload\n      swap1\n      0x0100\n      exp\n      swap1\n      div\n      0xff\n      and\n        /* \"contracts/escrowsystem.sol\":1728:1767  registrations[msg.sender].role == _role */\n      0x03\n      dup2\n      gt\n      iszero\n      tag_108\n      jumpi\n      tag_109\n      tag_107\n      jump\t// in\n    tag_109:\n    tag_108:\n      eq\n        /* \"contracts/escrowsystem.sol\":1720:1784  require(registrations[msg.sender].role == _role, \"Invalid role\") */\n      tag_110\n      jumpi\n      mload(0x40)\n      0x08c379a000000000000000000000000000000000000000000000000000000000\n      dup2\n      mstore\n      0x04\n      add\n      tag_111\n      swap1\n      tag_112\n      jump\t// in\n    tag_111:\n      mload(0x40)\n      dup1\n      swap2\n      sub\n      swap1\n      revert\n    tag_110:\n        /* \"contracts/escrowsystem.sol\":5188:5201  registrations */\n      0x04\n        /* \"contracts/escrowsystem.sol\":5188:5213  registrations[msg.sender] */\n      0x00\n        /* \"contracts/escrowsystem.sol\":5202:5212  msg.sender */\n      caller\n        /* \"contracts/escrowsystem.sol\":5188:5213  registrations[msg.sender] */\n      0xffffffffffffffffffffffffffffffffffffffff\n      and\n      0xffffffffffffffffffffffffffffffffffffffff\n      and\n      dup2\n      mstore\n      0x20\n      add\n      swap1\n      dup2\n      mstore\n      0x20\n      add\n      0x00\n      keccak256\n        /* \"contracts/escrowsystem.sol\":5188:5229  registrations[msg.sender].arbiterApproved */\n      0x00\n      add\n      0x01\n      swap1\n      sload\n      swap1\n      0x0100\n      exp\n      swap1\n      div\n      0xff\n      and\n        /* \"contracts/escrowsystem.sol\":5180:5254  require(registrations[msg.sender].arbiterApproved, \"Arbiter not approved\") */\n      tag_114\n      jumpi\n      mload(0x40)\n      0x08c379a000000000000000000000000000000000000000000000000000000000\n      dup2\n      mstore\n      0x04\n      add\n      tag_115\n      swap1\n      tag_116\n      jump\t// in\n    tag_115:\n      mload(0x40)\n      dup1\n      swap2\n      sub\n      swap1\n      revert\n    tag_114:\n        /* \"contracts/escrowsystem.sol\":5267:5288  Escrow storage escrow */\n      0x00\n        /* \"contracts/escrowsystem.sol\":5291:5298  escrows */\n      0x05\n        /* \"contracts/escrowsystem.sol\":5291:5309  escrows[_escrowId] */\n      0x00\n        /* \"contracts/escrowsystem.sol\":5299:5308  _escrowId */\n      dup7\n        /* \"contracts/escrowsystem.sol\":5291:5309  escrows[_escrowId] */\n      dup2\n      mstore\n      0x20\n      add\n      swap1\n      dup2\n      mstore\n      0x20\n      add\n      0x00\n      keccak256\n        /* \"contracts/escrowsystem.sol\":5267:5309  Escrow storage escrow = escrows[_escrowId] */\n      swap1\n      pop\n        /* \"contracts/escrowsystem.sol\":5346:5366  EscrowState.DISPUTED */\n      0x03\n        /* \"contracts/escrowsystem.sol\":5330:5366  escrow.state == EscrowState.DISPUTED */\n      0x04\n      dup2\n      gt\n      iszero\n      tag_117\n      jumpi\n      tag_118\n      tag_107\n      jump\t// in\n    tag_118:\n    tag_117:\n        /* \"contracts/escrowsystem.sol\":5330:5336  escrow */\n      dup2\n        /* \"contracts/escrowsystem.sol\":5330:5342  escrow.state */\n      0x04\n      add\n      0x00\n      swap1\n      sload\n      swap1\n      0x0100\n      exp\n      swap1\n      div\n      0xff\n      and\n        /* \"contracts/escrowsystem.sol\":5330:5366  escrow.state == EscrowState.DISPUTED */\n      0x04\n      dup2\n      gt\n      iszero\n      tag_119\n      jumpi\n      tag_120\n      tag_107\n      jump\t// in\n    tag_120:\n    tag_119:\n      eq\n        /* \"contracts/escrowsystem.sol\":5322:5383  require(escrow.state == EscrowState.DISPUTED, \"Not disputed\") */\n      tag_121\n      jumpi\n      mload(0x40)\n      0x08c379a000000000000000000000000000000000000000000000000000000000\n      dup2\n      mstore\n      0x04\n      add\n      tag_122\n      swap1\n      tag_123\n      jump\t// in\n    tag_122:\n      mload(0x40)\n      dup1\n      swap2\n      sub\n      swap1\n      revert\n    tag_121:\n        /* \"contracts/escrowsystem.sol\":5416:5422  escrow */\n      dup1\n        /* \"contracts/escrowsystem.sol\":5416:5429  escrow.amount */\n      0x03\n      add\n      sload\n        /* \"contracts/escrowsystem.sol\":5396:5412  totalFundsLocked */\n      0x03\n      0x00\n        /* \"contracts/escrowsystem.sol\":5396:5429  totalFundsLocked -= escrow.amount */\n      dup3\n      dup3\n      sload\n      tag_124\n      swap2\n      swap1\n      tag_125\n      jump\t// in\n    tag_124:\n      swap3\n      pop\n      pop\n      dup2\n      swap1\n      sstore\n      pop\n        /* \"contracts/escrowsystem.sol\":5442:5456  uint256 amount */\n      0x00\n        /* \"contracts/escrowsystem.sol\":5459:5465  escrow */\n      dup2\n        /* \"contracts/escrowsystem.sol\":5459:5472  escrow.amount */\n      0x03\n      add\n      sload\n        /* \"contracts/escrowsystem.sol\":5442:5472  uint256 amount = escrow.amount */\n      swap1\n      pop\n        /* \"contracts/escrowsystem.sol\":5499:5500  0 */\n      0x00\n        /* \"contracts/escrowsystem.sol\":5483:5489  escrow */\n      dup3\n        /* \"contracts/escrowsystem.sol\":5483:5496  escrow.amount */\n      0x03\n      add\n        /* \"contracts/escrowsystem.sol\":5483:5500  escrow.amount = 0 */\n      dup2\n      swap1\n      sstore\n      pop\n        /* \"contracts/escrowsystem.sol\":5517:5532  releaseToSeller */\n      dup5\n        /* \"contracts/escrowsystem.sol\":5513:5903  if (releaseToSeller) {... */\n      iszero\n      tag_126\n      jumpi\n        /* \"contracts/escrowsystem.sol\":5564:5584  EscrowState.COMPLETE */\n      0x02\n        /* \"contracts/escrowsystem.sol\":5549:5555  escrow */\n      dup3\n        /* \"contracts/escrowsystem.sol\":5549:5561  escrow.state */\n      0x04\n      add\n      0x00\n        /* \"contracts/escrowsystem.sol\":5549:5584  escrow.state = EscrowState.COMPLETE */\n      0x0100\n      exp\n      dup2\n      sload\n      dup2\n      0xff\n      mul\n      not\n      and\n      swap1\n      dup4\n      0x04\n      dup2\n      gt\n      iszero\n      tag_127\n      jumpi\n      tag_128\n      tag_107\n      jump\t// in\n    tag_128:\n    tag_127:\n      mul\n      or\n      swap1\n      sstore\n      pop\n        /* \"contracts/escrowsystem.sol\":5600:5612  bool success */\n      0x00\n        /* \"contracts/escrowsystem.sol\":5618:5624  escrow */\n      dup3\n        /* \"contracts/escrowsystem.sol\":5618:5631  escrow.seller */\n      0x02\n      add\n      0x00\n      swap1\n      sload\n      swap1\n      0x0100\n      exp\n      swap1\n      div\n      0xffffffffffffffffffffffffffffffffffffffff\n      and\n        /* \"contracts/escrowsystem.sol\":5618:5636  escrow.seller.call */\n      0xffffffffffffffffffffffffffffffffffffffff\n      and\n        /* \"contracts/escrowsystem.sol\":5644:5650  amount */\n      dup3\n        /* \"contracts/escrowsystem.sol\":5618:5655  escrow.seller.call{value: amount}(\"\") */\n      mload(0x40)\n      tag_129\n      swap1\n      tag_130\n      jump\t// in\n    tag_129:\n      0x00\n      mload(0x40)\n      dup1\n      dup4\n      sub\n      dup2\n      dup6\n      dup8\n      gas\n      call\n      swap3\n      pop\n      pop\n      pop\n      returndatasize\n      dup1\n      0x00\n      dup2\n      eq\n      tag_133\n      jumpi\n      mload(0x40)\n      swap2\n      pop\n      and(add(returndatasize, 0x3f), not(0x1f))\n      dup3\n      add\n      0x40\n      mstore\n      returndatasize\n      dup3\n      mstore\n      returndatasize\n      0x00\n      0x20\n      dup5\n      add\n      returndatacopy\n      jump(tag_132)\n    tag_133:\n      0x60\n      swap2\n      pop\n    tag_132:\n      pop\n        /* \"contracts/escrowsystem.sol\":5599:5655  (bool success, ) = escrow.seller.call{value: amount}(\"\") */\n      pop\n      swap1\n      pop\n        /* \"contracts/escrowsystem.sol\":5678:5685  success */\n      dup1\n        /* \"contracts/escrowsystem.sol\":5670:5705  require(success, \"Transfer failed\") */\n      tag_134\n      jumpi\n      mload(0x40)\n      0x08c379a000000000000000000000000000000000000000000000000000000000\n      dup2\n      mstore\n      0x04\n      add\n      tag_135\n      swap1\n      tag_136\n      jump\t// in\n    tag_135:\n      mload(0x40)\n      dup1\n      swap2\n      sub\n      swap1\n      revert\n    tag_134:\n        /* \"contracts/escrowsystem.sol\":5534:5717  {... */\n      pop\n        /* \"contracts/escrowsystem.sol\":5513:5903  if (releaseToSeller) {... */\n      jump(tag_137)\n    tag_126:\n        /* \"contracts/escrowsystem.sol\":5753:5773  EscrowState.REFUNDED */\n      0x04\n        /* \"contracts/escrowsystem.sol\":5738:5744  escrow */\n      dup3\n        /* \"contracts/escrowsystem.sol\":5738:5750  escrow.state */\n      0x04\n      add\n      0x00\n        /* \"contracts/escrowsystem.sol\":5738:5773  escrow.state = EscrowState.REFUNDED */\n      0x0100\n      exp\n      dup2\n      sload\n      dup2\n      0xff\n      mul\n      not\n      and\n      swap1\n      dup4\n      0x04\n      dup2\n      gt\n      iszero\n      tag_138\n      jumpi\n      tag_139\n      tag_107\n      jump\t// in\n    tag_139:\n    tag_138:\n      mul\n      or\n      swap1\n      sstore\n      pop\n        /* \"contracts/escrowsystem.sol\":5789:5801  bool success */\n      0x00\n        /* \"contracts/escrowsystem.sol\":5807:5813  escrow */\n      dup3\n        /* \"contracts/escrowsystem.sol\":5807:5819  escrow.buyer */\n      0x01\n      add\n      0x00\n      swap1\n      sload\n      swap1\n      0x0100\n      exp\n      swap1\n      div\n      0xffffffffffffffffffffffffffffffffffffffff\n      and\n        /* \"contracts/escrowsystem.sol\":5807:5824  escrow.buyer.call */\n      0xffffffffffffffffffffffffffffffffffffffff\n      and\n        /* \"contracts/escrowsystem.sol\":5832:5838  amount */\n      dup3\n        /* \"contracts/escrowsystem.sol\":5807:5843  escrow.buyer.call{value: amount}(\"\") */\n      mload(0x40)\n      tag_140\n      swap1\n      tag_130\n      jump\t// in\n    tag_140:\n      0x00\n      mload(0x40)\n      dup1\n      dup4\n      sub\n      dup2\n      dup6\n      dup8\n      gas\n      call\n      swap3\n      pop\n      pop\n      pop\n      returndatasize\n      dup1\n      0x00\n      dup2\n      eq\n      tag_143\n      jumpi\n      mload(0x40)\n      swap2\n      pop\n      and(add(returndatasize, 0x3f), not(0x1f))\n      dup3\n      add\n      0x40\n      mstore\n      returndatasize\n      dup3\n      mstore\n      returndatasize\n      0x00\n      0x20\n      dup5\n      add\n      returndatacopy\n      jump(tag_142)\n    tag_143:\n      0x60\n      swap2\n      pop\n    tag_142:\n      pop\n        /* \"contracts/escrowsystem.sol\":5788:5843  (bool success, ) = escrow.buyer.call{value: amount}(\"\") */\n      pop\n      swap1\n      pop\n        /* \"contracts/escrowsystem.sol\":5866:5873  success */\n      dup1\n        /* \"contracts/escrowsystem.sol\":5858:5891  require(success, \"Refund failed\") */\n      tag_144\n      jumpi\n      mload(0x40)\n      0x08c379a000000000000000000000000000000000000000000000000000000000\n      dup2\n      mstore\n      0x04\n      add\n      tag_145\n      swap1\n      tag_146\n      jump\t// in\n    tag_145:\n      mload(0x40)\n      dup1\n      swap2\n      sub\n      swap1\n      revert\n    tag_144:\n        /* \"contracts/escrowsystem.sol\":5723:5903  {... */\n      pop\n        /* \"contracts/escrowsystem.sol\":5513:5903  if (releaseToSeller) {... */\n    tag_137:\n        /* \"contracts/escrowsystem.sol\":5929:5938  _escrowId */\n      dup6\n        /* \"contracts/escrowsystem.sol\":5920:5956  Resolved(_escrowId, releaseToSeller) */\n      0xe940c2f4a2e1dda6ea582b576e35520a2ec6b80e436c26962c1150ddd7d07993\n        /* \"contracts/escrowsystem.sol\":5940:5955  releaseToSeller */\n      dup7\n        /* \"contracts/escrowsystem.sol\":5920:5956  Resolved(_escrowId, releaseToSeller) */\n      mload(0x40)\n      tag_147\n      swap2\n      swap1\n      tag_148\n      jump\t// in\n    tag_147:\n      mload(0x40)\n      dup1\n      swap2\n      sub\n      swap1\n      log2\n        /* \"contracts/escrowsystem.sol\":5169:5964  {... */\n      pop\n      pop\n        /* \"contracts/escrowsystem.sol\":1922:1923  _ */\n      pop\n        /* \"@openzeppelin/contracts/security/ReentrancyGuard.sol\":2292:2293  _ */\n      pop\n        /* \"@openzeppelin/contracts/security/ReentrancyGuard.sol\":2303:2323  _nonReentrantAfter() */\n      tag_149\n        /* \"@openzeppelin/contracts/security/ReentrancyGuard.sol\":2303:2321  _nonReentrantAfter */\n      tag_150\n        /* \"@openzeppelin/contracts/security/ReentrancyGuard.sol\":2303:2323  _nonReentrantAfter() */\n      jump\t// in\n    tag_149:\n        /* \"contracts/escrowsystem.sol\":5029:5964  function resolveDispute(uint256 _escrowId, bool releaseToSeller) external nonReentrant escrowExists(_escrowId) onlyRegistered(Role.ARBITER) {... */\n      pop\n      pop\n      jump\t// out\n        /* \"contracts/escrowsystem.sol\":1977:2387  function register(Role _role) external {... */\n    tag_41:\n        /* \"contracts/escrowsystem.sol\":2044:2053  Role.NONE */\n      0x00\n        /* \"contracts/escrowsystem.sol\":2035:2053  _role != Role.NONE */\n      0x03\n      dup2\n      gt\n      iszero\n      tag_152\n      jumpi\n      tag_153\n      tag_107\n      jump\t// in\n    tag_153:\n    tag_152:\n        /* \"contracts/escrowsystem.sol\":2035:2040  _role */\n      dup2\n        /* \"contracts/escrowsystem.sol\":2035:2053  _role != Role.NONE */\n      0x03\n      dup2\n      gt\n      iszero\n      tag_154\n      jumpi\n      tag_155\n      tag_107\n      jump\t// in\n    tag_155:\n    tag_154:\n      sub\n        /* \"contracts/escrowsystem.sol\":2027:2070  require(_role != Role.NONE, \"Invalid role\") */\n      tag_156\n      jumpi\n      mload(0x40)\n      0x08c379a000000000000000000000000000000000000000000000000000000000\n      dup2\n      mstore\n      0x04\n      add\n      tag_157\n      swap1\n      tag_112\n      jump\t// in\n    tag_157:\n      mload(0x40)\n      dup1\n      swap2\n      sub\n      swap1\n      revert\n    tag_156:\n        /* \"contracts/escrowsystem.sol\":2123:2132  Role.NONE */\n      0x00\n        /* \"contracts/escrowsystem.sol\":2089:2132  registrations[msg.sender].role == Role.NONE */\n      0x03\n      dup2\n      gt\n      iszero\n      tag_158\n      jumpi\n      tag_159\n      tag_107\n      jump\t// in\n    tag_159:\n    tag_158:\n        /* \"contracts/escrowsystem.sol\":2089:2102  registrations */\n      0x04\n        /* \"contracts/escrowsystem.sol\":2089:2114  registrations[msg.sender] */\n      0x00\n        /* \"contracts/escrowsystem.sol\":2103:2113  msg.sender */\n      caller\n        /* \"contracts/escrowsystem.sol\":2089:2114  registrations[msg.sender] */\n      0xffffffffffffffffffffffffffffffffffffffff\n      and\n      0xffffffffffffffffffffffffffffffffffffffff\n      and\n      dup2\n      mstore\n      0x20\n      add\n      swap1\n      dup2\n      mstore\n      0x20\n      add\n      0x00\n      keccak256\n        /* \"contracts/escrowsystem.sol\":2089:2119  registrations[msg.sender].role */\n      0x00\n      add\n      0x00\n      swap1\n      sload\n      swap1\n      0x0100\n      exp\n      swap1\n      div\n      0xff\n      and\n        /* \"contracts/escrowsystem.sol\":2089:2132  registrations[msg.sender].role == Role.NONE */\n      0x03\n      dup2\n      gt\n      iszero\n      tag_160\n      jumpi\n      tag_161\n      tag_107\n      jump\t// in\n    tag_161:\n    tag_160:\n      eq\n        /* \"contracts/escrowsystem.sol\":2081:2155  require(registrations[msg.sender].role == Role.NONE, \"Already registered\") */\n      tag_162\n      jumpi\n      mload(0x40)\n      0x08c379a000000000000000000000000000000000000000000000000000000000\n      dup2\n      mstore\n      0x04\n      add\n      tag_163\n      swap1\n      tag_164\n      jump\t// in\n    tag_163:\n      mload(0x40)\n      dup1\n      swap2\n      sub\n      swap1\n      revert\n    tag_162:\n        /* \"contracts/escrowsystem.sol\":2196:2328  Registration({... */\n      mload(0x40)\n      dup1\n      0x60\n      add\n      0x40\n      mstore\n      dup1\n        /* \"contracts/escrowsystem.sol\":2230:2235  _role */\n      dup3\n        /* \"contracts/escrowsystem.sol\":2196:2328  Registration({... */\n      0x03\n      dup2\n      gt\n      iszero\n      tag_165\n      jumpi\n      tag_166\n      tag_107\n      jump\t// in\n    tag_166:\n    tag_165:\n      dup2\n      mstore\n      0x20\n      add\n        /* \"contracts/escrowsystem.sol\":2267:2272  false */\n      0x00\n        /* \"contracts/escrowsystem.sol\":2196:2328  Registration({... */\n      iszero\n      iszero\n      dup2\n      mstore\n      0x20\n      add\n        /* \"contracts/escrowsystem.sol\":2301:2316  block.timestamp */\n      timestamp\n        /* \"contracts/escrowsystem.sol\":2196:2328  Registration({... */\n      dup2\n      mstore\n      pop\n        /* \"contracts/escrowsystem.sol\":2168:2181  registrations */\n      0x04\n        /* \"contracts/escrowsystem.sol\":2168:2193  registrations[msg.sender] */\n      0x00\n        /* \"contracts/escrowsystem.sol\":2182:2192  msg.sender */\n      caller\n        /* \"contracts/escrowsystem.sol\":2168:2193  registrations[msg.sender] */\n      0xffffffffffffffffffffffffffffffffffffffff\n      and\n      0xffffffffffffffffffffffffffffffffffffffff\n      and\n      dup2\n      mstore\n      0x20\n      add\n      swap1\n      dup2\n      mstore\n      0x20\n      add\n      0x00\n      keccak256\n        /* \"contracts/escrowsystem.sol\":2168:2328  registrations[msg.sender] = Registration({... */\n      0x00\n      dup3\n      add\n      mload\n      dup2\n      0x00\n      add\n      exp(0x0100, 0x00)\n      dup2\n      sload\n      dup2\n      0xff\n      mul\n      not\n      and\n      swap1\n      dup4\n      0x03\n      dup2\n      gt\n      iszero\n      tag_167\n      jumpi\n      tag_168\n      tag_107\n      jump\t// in\n    tag_168:\n    tag_167:\n      mul\n      or\n      swap1\n      sstore\n      pop\n      0x20\n      dup3\n      add\n      mload\n      dup2\n      0x00\n      add\n      exp(0x0100, 0x01)\n      dup2\n      sload\n      dup2\n      0xff\n      mul\n      not\n      and\n      swap1\n      dup4\n      iszero\n      iszero\n      mul\n      or\n      swap1\n      sstore\n      pop\n      0x40\n      dup3\n      add\n      mload\n      dup2\n      0x01\n      add\n      sstore\n      swap1\n      pop\n      pop\n        /* \"contracts/escrowsystem.sol\":2361:2371  msg.sender */\n      caller\n        /* \"contracts/escrowsystem.sol\":2346:2379  UserRegistered(msg.sender, _role) */\n      0xffffffffffffffffffffffffffffffffffffffff\n      and\n      0x8e18574f8a7333e6a87112742a55853a643e2f0550f4e1a3a2c3f1bb2994441d\n        /* \"contracts/escrowsystem.sol\":2373:2378  _role */\n      dup3\n        /* \"contracts/escrowsystem.sol\":2346:2379  UserRegistered(msg.sender, _role) */\n      mload(0x40)\n      tag_169\n      swap2\n      swap1\n      tag_170\n      jump\t// in\n    tag_169:\n      mload(0x40)\n      dup1\n      swap2\n      sub\n      swap1\n      log2\n        /* \"contracts/escrowsystem.sol\":1977:2387  function register(Role _role) external {... */\n      pop\n      jump\t// out\n        /* \"@openzeppelin/contracts/access/Ownable.sol\":2293:2394  function renounceOwnership() public virtual onlyOwner {... */\n    tag_44:\n        /* \"@openzeppelin/contracts/access/Ownable.sol\":1531:1544  _checkOwner() */\n      tag_172\n        /* \"@openzeppelin/contracts/access/Ownable.sol\":1531:1542  _checkOwner */\n      tag_173\n        /* \"@openzeppelin/contracts/access/Ownable.sol\":1531:1544  _checkOwner() */\n      jump\t// in\n    tag_172:\n        /* \"@openzeppelin/contracts/access/Ownable.sol\":2357:2387  _transferOwnership(address(0)) */\n      tag_175\n        /* \"@openzeppelin/contracts/access/Ownable.sol\":2384:2385  0 */\n      0x00\n        /* \"@openzeppelin/contracts/access/Ownable.sol\":2357:2375  _transferOwnership */\n      tag_176\n        /* \"@openzeppelin/contracts/access/Ownable.sol\":2357:2387  _transferOwnership(address(0)) */\n      jump\t// in\n    tag_175:\n        /* \"@openzeppelin/contracts/access/Ownable.sol\":2293:2394  function renounceOwnership() public virtual onlyOwner {... */\n      jump\t// out\n        /* \"contracts/escrowsystem.sol\":5996:6116  function getEscrow(uint256 _escrowId) external view returns (Escrow memory) {... */\n    tag_48:\n        /* \"contracts/escrowsystem.sol\":6057:6070  Escrow memory */\n      tag_177\n      tag_178\n      jump\t// in\n    tag_177:\n        /* \"contracts/escrowsystem.sol\":6090:6097  escrows */\n      0x05\n        /* \"contracts/escrowsystem.sol\":6090:6108  escrows[_escrowId] */\n      0x00\n        /* \"contracts/escrowsystem.sol\":6098:6107  _escrowId */\n      dup4\n        /* \"contracts/escrowsystem.sol\":6090:6108  escrows[_escrowId] */\n      dup2\n      mstore\n      0x20\n      add\n      swap1\n      dup2\n      mstore\n      0x20\n      add\n      0x00\n      keccak256\n        /* \"contracts/escrowsystem.sol\":6083:6108  return escrows[_escrowId] */\n      mload(0x40)\n      dup1\n      0xc0\n      add\n      0x40\n      mstore\n      swap1\n      dup2\n      0x00\n      dup3\n      add\n      sload\n      dup2\n      mstore\n      0x20\n      add\n      0x01\n      dup3\n      add\n      0x00\n      swap1\n      sload\n      swap1\n      0x0100\n      exp\n      swap1\n      div\n      0xffffffffffffffffffffffffffffffffffffffff\n      and\n      0xffffffffffffffffffffffffffffffffffffffff\n      and\n      0xffffffffffffffffffffffffffffffffffffffff\n      and\n      dup2\n      mstore\n      0x20\n      add\n      0x02\n      dup3\n      add\n      0x00\n      swap1\n      sload\n      swap1\n      0x0100\n      exp\n      swap1\n      div\n      0xffffffffffffffffffffffffffffffffffffffff\n      and\n      0xffffffffffffffffffffffffffffffffffffffff\n      and\n      0xffffffffffffffffffffffffffffffffffffffff\n      and\n      dup2\n      mstore\n      0x20\n      add\n      0x03\n      dup3\n      add\n      sload\n      dup2\n      mstore\n      0x20\n      add\n      0x04\n      dup3\n      add\n      0x00\n      swap1\n      sload\n      swap1\n      0x0100\n      exp\n      swap1\n      div\n      0xff\n      and\n      0x04\n      dup2\n      gt\n      iszero\n      tag_180\n      jumpi\n      tag_181\n      tag_107\n      jump\t// in\n    tag_181:\n    tag_180:\n      0x04\n      dup2\n      gt\n      iszero\n      tag_182\n      jumpi\n      tag_183\n      tag_107\n      jump\t// in\n    tag_183:\n    tag_182:\n      dup2\n      mstore\n      0x20\n      add\n      0x04\n      dup3\n      add\n      0x01\n      swap1\n      sload\n      swap1\n      0x0100\n      exp\n      swap1\n      div\n      0xff\n      and\n      iszero\n      iszero\n      iszero\n      iszero\n      dup2\n      mstore\n      pop\n      pop\n      swap1\n      pop\n        /* \"contracts/escrowsystem.sol\":5996:6116  function getEscrow(uint256 _escrowId) external view returns (Escrow memory) {... */\n      swap2\n      swap1\n      pop\n      jump\t// out\n        /* \"@openzeppelin/contracts/access/Ownable.sol\":1638:1723  function owner() public view virtual returns (address) {... */\n    tag_53:\n        /* \"@openzeppelin/contracts/access/Ownable.sol\":1684:1691  address */\n      0x00\n        /* \"@openzeppelin/contracts/access/Ownable.sol\":1710:1716  _owner */\n      0x01\n      0x00\n      swap1\n      sload\n      swap1\n      0x0100\n      exp\n      swap1\n      div\n      0xffffffffffffffffffffffffffffffffffffffff\n      and\n        /* \"@openzeppelin/contracts/access/Ownable.sol\":1703:1716  return _owner */\n      swap1\n      pop\n        /* \"@openzeppelin/contracts/access/Ownable.sol\":1638:1723  function owner() public view virtual returns (address) {... */\n      swap1\n      jump\t// out\n        /* \"contracts/escrowsystem.sol\":1042:1095  mapping(address => Registration) public registrations */\n    tag_60:\n      mstore(0x20, 0x04)\n      dup1\n      0x00\n      mstore\n      keccak256(0x00, 0x40)\n      0x00\n      swap2\n      pop\n      swap1\n      pop\n      dup1\n      0x00\n      add\n      0x00\n      swap1\n      sload\n      swap1\n      0x0100\n      exp\n      swap1\n      div\n      0xff\n      and\n      swap1\n      dup1\n      0x00\n      add\n      0x01\n      swap1\n      sload\n      swap1\n      0x0100\n      exp\n      swap1\n      div\n      0xff\n      and\n      swap1\n      dup1\n      0x01\n      add\n      sload\n      swap1\n      pop\n      dup4\n      jump\t// out\n        /* \"contracts/escrowsystem.sol\":4604:4980  function raiseDispute(uint256 _escrowId) external escrowExists(_escrowId){... */\n    tag_66:\n        /* \"contracts/escrowsystem.sol\":4667:4676  _escrowId */\n      dup1\n        /* \"contracts/escrowsystem.sol\":1866:1873  escrows */\n      0x05\n        /* \"contracts/escrowsystem.sol\":1866:1878  escrows[_id] */\n      0x00\n        /* \"contracts/escrowsystem.sol\":1874:1877  _id */\n      dup3\n        /* \"contracts/escrowsystem.sol\":1866:1878  escrows[_id] */\n      dup2\n      mstore\n      0x20\n      add\n      swap1\n      dup2\n      mstore\n      0x20\n      add\n      0x00\n      keccak256\n        /* \"contracts/escrowsystem.sol\":1866:1885  escrows[_id].exists */\n      0x04\n      add\n      0x01\n      swap1\n      sload\n      swap1\n      0x0100\n      exp\n      swap1\n      div\n      0xff\n      and\n        /* \"contracts/escrowsystem.sol\":1858:1911  require(escrows[_id].exists, \"Escrow does not exist\") */\n      tag_186\n      jumpi\n      mload(0x40)\n      0x08c379a000000000000000000000000000000000000000000000000000000000\n      dup2\n      mstore\n      0x04\n      add\n      tag_187\n      swap1\n      tag_103\n      jump\t// in\n    tag_187:\n      mload(0x40)\n      dup1\n      swap2\n      sub\n      swap1\n      revert\n    tag_186:\n        /* \"contracts/escrowsystem.sol\":4688:4709  Escrow storage escrow */\n      0x00\n        /* \"contracts/escrowsystem.sol\":4712:4719  escrows */\n      0x05\n        /* \"contracts/escrowsystem.sol\":4712:4730  escrows[_escrowId] */\n      0x00\n        /* \"contracts/escrowsystem.sol\":4720:4729  _escrowId */\n      dup5\n        /* \"contracts/escrowsystem.sol\":4712:4730  escrows[_escrowId] */\n      dup2\n      mstore\n      0x20\n      add\n      swap1\n      dup2\n      mstore\n      0x20\n      add\n      0x00\n      keccak256\n        /* \"contracts/escrowsystem.sol\":4688:4730  Escrow storage escrow = escrows[_escrowId] */\n      swap1\n      pop\n        /* \"contracts/escrowsystem.sol\":4765:4771  escrow */\n      dup1\n        /* \"contracts/escrowsystem.sol\":4765:4777  escrow.buyer */\n      0x01\n      add\n      0x00\n      swap1\n      sload\n      swap1\n      0x0100\n      exp\n      swap1\n      div\n      0xffffffffffffffffffffffffffffffffffffffff\n      and\n        /* \"contracts/escrowsystem.sol\":4751:4777  msg.sender == escrow.buyer */\n      0xffffffffffffffffffffffffffffffffffffffff\n      and\n        /* \"contracts/escrowsystem.sol\":4751:4761  msg.sender */\n      caller\n        /* \"contracts/escrowsystem.sol\":4751:4777  msg.sender == escrow.buyer */\n      0xffffffffffffffffffffffffffffffffffffffff\n      and\n      eq\n        /* \"contracts/escrowsystem.sol\":4743:4804  require(msg.sender == escrow.buyer, \"Only buyer can dispute\") */\n      tag_189\n      jumpi\n      mload(0x40)\n      0x08c379a000000000000000000000000000000000000000000000000000000000\n      dup2\n      mstore\n      0x04\n      add\n      tag_190\n      swap1\n      tag_191\n      jump\t// in\n    tag_190:\n      mload(0x40)\n      dup1\n      swap2\n      sub\n      swap1\n      revert\n    tag_189:\n        /* \"contracts/escrowsystem.sol\":4839:4868  EscrowState.AWAITING_DELIVERY */\n      0x01\n        /* \"contracts/escrowsystem.sol\":4823:4868  escrow.state == EscrowState.AWAITING_DELIVERY */\n      0x04\n      dup2\n      gt\n      iszero\n      tag_192\n      jumpi\n      tag_193\n      tag_107\n      jump\t// in\n    tag_193:\n    tag_192:\n        /* \"contracts/escrowsystem.sol\":4823:4829  escrow */\n      dup2\n        /* \"contracts/escrowsystem.sol\":4823:4835  escrow.state */\n      0x04\n      add\n      0x00\n      swap1\n      sload\n      swap1\n      0x0100\n      exp\n      swap1\n      div\n      0xff\n      and\n        /* \"contracts/escrowsystem.sol\":4823:4868  escrow.state == EscrowState.AWAITING_DELIVERY */\n      0x04\n      dup2\n      gt\n      iszero\n      tag_194\n      jumpi\n      tag_195\n      tag_107\n      jump\t// in\n    tag_195:\n    tag_194:\n      eq\n        /* \"contracts/escrowsystem.sol\":4815:4887  require(escrow.state == EscrowState.AWAITING_DELIVERY, \"Cannot dispute\") */\n      tag_196\n      jumpi\n      mload(0x40)\n      0x08c379a000000000000000000000000000000000000000000000000000000000\n      dup2\n      mstore\n      0x04\n      add\n      tag_197\n      swap1\n      tag_198\n      jump\t// in\n    tag_197:\n      mload(0x40)\n      dup1\n      swap2\n      sub\n      swap1\n      revert\n    tag_196:\n        /* \"contracts/escrowsystem.sol\":4915:4935  EscrowState.DISPUTED */\n      0x03\n        /* \"contracts/escrowsystem.sol\":4900:4906  escrow */\n      dup2\n        /* \"contracts/escrowsystem.sol\":4900:4912  escrow.state */\n      0x04\n      add\n      0x00\n        /* \"contracts/escrowsystem.sol\":4900:4935  escrow.state = EscrowState.DISPUTED */\n      0x0100\n      exp\n      dup2\n      sload\n      dup2\n      0xff\n      mul\n      not\n      and\n      swap1\n      dup4\n      0x04\n      dup2\n      gt\n      iszero\n      tag_199\n      jumpi\n      tag_200\n      tag_107\n      jump\t// in\n    tag_200:\n    tag_199:\n      mul\n      or\n      swap1\n      sstore\n      pop\n        /* \"contracts/escrowsystem.sol\":4962:4971  _escrowId */\n      dup3\n        /* \"contracts/escrowsystem.sol\":4953:4972  Disputed(_escrowId) */\n      0x7e3d476b0ad3176eefadbd6672356ef3884fad75f1344623a88d4a8087842336\n      mload(0x40)\n      mload(0x40)\n      dup1\n      swap2\n      sub\n      swap1\n      log2\n        /* \"contracts/escrowsystem.sol\":4677:4980  {... */\n      pop\n        /* \"contracts/escrowsystem.sol\":4604:4980  function raiseDispute(uint256 _escrowId) external escrowExists(_escrowId){... */\n      pop\n      pop\n      jump\t// out\n        /* \"contracts/escrowsystem.sol\":2445:2696  function approveArbiter(address _arbiter) external onlyOwner {... */\n    tag_70:\n        /* \"@openzeppelin/contracts/access/Ownable.sol\":1531:1544  _checkOwner() */\n      tag_202\n        /* \"@openzeppelin/contracts/access/Ownable.sol\":1531:1542  _checkOwner */\n      tag_173\n        /* \"@openzeppelin/contracts/access/Ownable.sol\":1531:1544  _checkOwner() */\n      jump\t// in\n    tag_202:\n        /* \"contracts/escrowsystem.sol\":2557:2569  Role.ARBITER */\n      0x03\n        /* \"contracts/escrowsystem.sol\":2525:2569  registrations[_arbiter].role == Role.ARBITER */\n      dup1\n      dup2\n      gt\n      iszero\n      tag_204\n      jumpi\n      tag_205\n      tag_107\n      jump\t// in\n    tag_205:\n    tag_204:\n        /* \"contracts/escrowsystem.sol\":2525:2538  registrations */\n      0x04\n        /* \"contracts/escrowsystem.sol\":2525:2548  registrations[_arbiter] */\n      0x00\n        /* \"contracts/escrowsystem.sol\":2539:2547  _arbiter */\n      dup4\n        /* \"contracts/escrowsystem.sol\":2525:2548  registrations[_arbiter] */\n      0xffffffffffffffffffffffffffffffffffffffff\n      and\n      0xffffffffffffffffffffffffffffffffffffffff\n      and\n      dup2\n      mstore\n      0x20\n      add\n      swap1\n      dup2\n      mstore\n      0x20\n      add\n      0x00\n      keccak256\n        /* \"contracts/escrowsystem.sol\":2525:2553  registrations[_arbiter].role */\n      0x00\n      add\n      0x00\n      swap1\n      sload\n      swap1\n      0x0100\n      exp\n      swap1\n      div\n      0xff\n      and\n        /* \"contracts/escrowsystem.sol\":2525:2569  registrations[_arbiter].role == Role.ARBITER */\n      0x03\n      dup2\n      gt\n      iszero\n      tag_206\n      jumpi\n      tag_207\n      tag_107\n      jump\t// in\n    tag_207:\n    tag_206:\n      eq\n        /* \"contracts/escrowsystem.sol\":2517:2588  require(registrations[_arbiter].role == Role.ARBITER, \"Not an arbiter\") */\n      tag_208\n      jumpi\n      mload(0x40)\n      0x08c379a000000000000000000000000000000000000000000000000000000000\n      dup2\n      mstore\n      0x04\n      add\n      tag_209\n      swap1\n      tag_210\n      jump\t// in\n    tag_209:\n      mload(0x40)\n      dup1\n      swap2\n      sub\n      swap1\n      revert\n    tag_208:\n        /* \"contracts/escrowsystem.sol\":2643:2647  true */\n      0x01\n        /* \"contracts/escrowsystem.sol\":2601:2614  registrations */\n      0x04\n        /* \"contracts/escrowsystem.sol\":2601:2624  registrations[_arbiter] */\n      0x00\n        /* \"contracts/escrowsystem.sol\":2615:2623  _arbiter */\n      dup4\n        /* \"contracts/escrowsystem.sol\":2601:2624  registrations[_arbiter] */\n      0xffffffffffffffffffffffffffffffffffffffff\n      and\n      0xffffffffffffffffffffffffffffffffffffffff\n      and\n      dup2\n      mstore\n      0x20\n      add\n      swap1\n      dup2\n      mstore\n      0x20\n      add\n      0x00\n      keccak256\n        /* \"contracts/escrowsystem.sol\":2601:2640  registrations[_arbiter].arbiterApproved */\n      0x00\n      add\n      0x01\n        /* \"contracts/escrowsystem.sol\":2601:2647  registrations[_arbiter].arbiterApproved = true */\n      0x0100\n      exp\n      dup2\n      sload\n      dup2\n      0xff\n      mul\n      not\n      and\n      swap1\n      dup4\n      iszero\n      iszero\n      mul\n      or\n      swap1\n      sstore\n      pop\n        /* \"contracts/escrowsystem.sol\":2679:2687  _arbiter */\n      dup1\n        /* \"contracts/escrowsystem.sol\":2663:2688  ArbiterApproved(_arbiter) */\n      0xffffffffffffffffffffffffffffffffffffffff\n      and\n      0xd85319faaa66ce15d8bd9cea58b03d0761cc5cdf60e879fb16dc07ab954933ee\n      mload(0x40)\n      mload(0x40)\n      dup1\n      swap2\n      sub\n      swap1\n      log2\n        /* \"contracts/escrowsystem.sol\":2445:2696  function approveArbiter(address _arbiter) external onlyOwner {... */\n      pop\n      jump\t// out\n        /* \"contracts/escrowsystem.sol\":3363:3890  function deposit(uint256 _escrowId) external payable nonReentrant escrowExists(_escrowId) {... */\n    tag_73:\n        /* \"@openzeppelin/contracts/security/ReentrancyGuard.sol\":2261:2282  _nonReentrantBefore() */\n      tag_212\n        /* \"@openzeppelin/contracts/security/ReentrancyGuard.sol\":2261:2280  _nonReentrantBefore */\n      tag_99\n        /* \"@openzeppelin/contracts/security/ReentrancyGuard.sol\":2261:2282  _nonReentrantBefore() */\n      jump\t// in\n    tag_212:\n        /* \"contracts/escrowsystem.sol\":3442:3451  _escrowId */\n      dup1\n        /* \"contracts/escrowsystem.sol\":1866:1873  escrows */\n      0x05\n        /* \"contracts/escrowsystem.sol\":1866:1878  escrows[_id] */\n      0x00\n        /* \"contracts/escrowsystem.sol\":1874:1877  _id */\n      dup3\n        /* \"contracts/escrowsystem.sol\":1866:1878  escrows[_id] */\n      dup2\n      mstore\n      0x20\n      add\n      swap1\n      dup2\n      mstore\n      0x20\n      add\n      0x00\n      keccak256\n        /* \"contracts/escrowsystem.sol\":1866:1885  escrows[_id].exists */\n      0x04\n      add\n      0x01\n      swap1\n      sload\n      swap1\n      0x0100\n      exp\n      swap1\n      div\n      0xff\n      and\n        /* \"contracts/escrowsystem.sol\":1858:1911  require(escrows[_id].exists, \"Escrow does not exist\") */\n      tag_214\n      jumpi\n      mload(0x40)\n      0x08c379a000000000000000000000000000000000000000000000000000000000\n      dup2\n      mstore\n      0x04\n      add\n      tag_215\n      swap1\n      tag_103\n      jump\t// in\n    tag_215:\n      mload(0x40)\n      dup1\n      swap2\n      sub\n      swap1\n      revert\n    tag_214:\n        /* \"contracts/escrowsystem.sol\":3464:3485  Escrow storage escrow */\n      0x00\n        /* \"contracts/escrowsystem.sol\":3488:3495  escrows */\n      0x05\n        /* \"contracts/escrowsystem.sol\":3488:3506  escrows[_escrowId] */\n      0x00\n        /* \"contracts/escrowsystem.sol\":3496:3505  _escrowId */\n      dup5\n        /* \"contracts/escrowsystem.sol\":3488:3506  escrows[_escrowId] */\n      dup2\n      mstore\n      0x20\n      add\n      swap1\n      dup2\n      mstore\n      0x20\n      add\n      0x00\n      keccak256\n        /* \"contracts/escrowsystem.sol\":3464:3506  Escrow storage escrow = escrows[_escrowId] */\n      swap1\n      pop\n        /* \"contracts/escrowsystem.sol\":3541:3547  escrow */\n      dup1\n        /* \"contracts/escrowsystem.sol\":3541:3553  escrow.buyer */\n      0x01\n      add\n      0x00\n      swap1\n      sload\n      swap1\n      0x0100\n      exp\n      swap1\n      div\n      0xffffffffffffffffffffffffffffffffffffffff\n      and\n        /* \"contracts/escrowsystem.sol\":3527:3553  msg.sender == escrow.buyer */\n      0xffffffffffffffffffffffffffffffffffffffff\n      and\n        /* \"contracts/escrowsystem.sol\":3527:3537  msg.sender */\n      caller\n        /* \"contracts/escrowsystem.sol\":3527:3553  msg.sender == escrow.buyer */\n      0xffffffffffffffffffffffffffffffffffffffff\n      and\n      eq\n        /* \"contracts/escrowsystem.sol\":3519:3567  require(msg.sender == escrow.buyer, \"Not buyer\") */\n      tag_217\n      jumpi\n      mload(0x40)\n      0x08c379a000000000000000000000000000000000000000000000000000000000\n      dup2\n      mstore\n      0x04\n      add\n      tag_218\n      swap1\n      tag_219\n      jump\t// in\n    tag_218:\n      mload(0x40)\n      dup1\n      swap2\n      sub\n      swap1\n      revert\n    tag_217:\n        /* \"contracts/escrowsystem.sol\":3602:3630  EscrowState.AWAITING_PAYMENT */\n      0x00\n        /* \"contracts/escrowsystem.sol\":3586:3630  escrow.state == EscrowState.AWAITING_PAYMENT */\n      0x04\n      dup2\n      gt\n      iszero\n      tag_220\n      jumpi\n      tag_221\n      tag_107\n      jump\t// in\n    tag_221:\n    tag_220:\n        /* \"contracts/escrowsystem.sol\":3586:3592  escrow */\n      dup2\n        /* \"contracts/escrowsystem.sol\":3586:3598  escrow.state */\n      0x04\n      add\n      0x00\n      swap1\n      sload\n      swap1\n      0x0100\n      exp\n      swap1\n      div\n      0xff\n      and\n        /* \"contracts/escrowsystem.sol\":3586:3630  escrow.state == EscrowState.AWAITING_PAYMENT */\n      0x04\n      dup2\n      gt\n      iszero\n      tag_222\n      jumpi\n      tag_223\n      tag_107\n      jump\t// in\n    tag_223:\n    tag_222:\n      eq\n        /* \"contracts/escrowsystem.sol\":3578:3648  require(escrow.state == EscrowState.AWAITING_PAYMENT, \"Invalid state\") */\n      tag_224\n      jumpi\n      mload(0x40)\n      0x08c379a000000000000000000000000000000000000000000000000000000000\n      dup2\n      mstore\n      0x04\n      add\n      tag_225\n      swap1\n      tag_226\n      jump\t// in\n    tag_225:\n      mload(0x40)\n      dup1\n      swap2\n      sub\n      swap1\n      revert\n    tag_224:\n        /* \"contracts/escrowsystem.sol\":3679:3680  0 */\n      0x00\n        /* \"contracts/escrowsystem.sol\":3667:3676  msg.value */\n      callvalue\n        /* \"contracts/escrowsystem.sol\":3667:3680  msg.value > 0 */\n      gt\n        /* \"contracts/escrowsystem.sol\":3659:3698  require(msg.value > 0, \"Must send ETH\") */\n      tag_227\n      jumpi\n      mload(0x40)\n      0x08c379a000000000000000000000000000000000000000000000000000000000\n      dup2\n      mstore\n      0x04\n      add\n      tag_228\n      swap1\n      tag_229\n      jump\t// in\n    tag_228:\n      mload(0x40)\n      dup1\n      swap2\n      sub\n      swap1\n      revert\n    tag_227:\n        /* \"contracts/escrowsystem.sol\":3727:3736  msg.value */\n      callvalue\n        /* \"contracts/escrowsystem.sol\":3711:3717  escrow */\n      dup2\n        /* \"contracts/escrowsystem.sol\":3711:3724  escrow.amount */\n      0x03\n      add\n        /* \"contracts/escrowsystem.sol\":3711:3736  escrow.amount = msg.value */\n      dup2\n      swap1\n      sstore\n      pop\n        /* \"contracts/escrowsystem.sol\":3762:3791  EscrowState.AWAITING_DELIVERY */\n      0x01\n        /* \"contracts/escrowsystem.sol\":3747:3753  escrow */\n      dup2\n        /* \"contracts/escrowsystem.sol\":3747:3759  escrow.state */\n      0x04\n      add\n      0x00\n        /* \"contracts/escrowsystem.sol\":3747:3791  escrow.state = EscrowState.AWAITING_DELIVERY */\n      0x0100\n      exp\n      dup2\n      sload\n      dup2\n      0xff\n      mul\n      not\n      and\n      swap1\n      dup4\n      0x04\n      dup2\n      gt\n      iszero\n      tag_230\n      jumpi\n      tag_231\n      tag_107\n      jump\t// in\n    tag_231:\n    tag_230:\n      mul\n      or\n      swap1\n      sstore\n      pop\n        /* \"contracts/escrowsystem.sol\":3824:3833  msg.value */\n      callvalue\n        /* \"contracts/escrowsystem.sol\":3804:3820  totalFundsLocked */\n      0x03\n      0x00\n        /* \"contracts/escrowsystem.sol\":3804:3833  totalFundsLocked += msg.value */\n      dup3\n      dup3\n      sload\n      tag_232\n      swap2\n      swap1\n      tag_233\n      jump\t// in\n    tag_232:\n      swap3\n      pop\n      pop\n      dup2\n      swap1\n      sstore\n      pop\n        /* \"contracts/escrowsystem.sol\":3861:3870  _escrowId */\n      dup3\n        /* \"contracts/escrowsystem.sol\":3851:3882  Deposited(_escrowId, msg.value) */\n      0x06da3309189fa49284f335d2c2bcb4cb0b8ad2a59ad92a9bdebeeb8f1ceba511\n        /* \"contracts/escrowsystem.sol\":3872:3881  msg.value */\n      callvalue\n        /* \"contracts/escrowsystem.sol\":3851:3882  Deposited(_escrowId, msg.value) */\n      mload(0x40)\n      tag_234\n      swap2\n      swap1\n      tag_78\n      jump\t// in\n    tag_234:\n      mload(0x40)\n      dup1\n      swap2\n      sub\n      swap1\n      log2\n        /* \"contracts/escrowsystem.sol\":3453:3890  {... */\n      pop\n        /* \"@openzeppelin/contracts/security/ReentrancyGuard.sol\":2292:2293  _ */\n      pop\n        /* \"@openzeppelin/contracts/security/ReentrancyGuard.sol\":2303:2323  _nonReentrantAfter() */\n      tag_235\n        /* \"@openzeppelin/contracts/security/ReentrancyGuard.sol\":2303:2321  _nonReentrantAfter */\n      tag_150\n        /* \"@openzeppelin/contracts/security/ReentrancyGuard.sol\":2303:2323  _nonReentrantAfter() */\n      jump\t// in\n    tag_235:\n        /* \"contracts/escrowsystem.sol\":3363:3890  function deposit(uint256 _escrowId) external payable nonReentrant escrowExists(_escrowId) {... */\n      pop\n      jump\t// out\n        /* \"contracts/escrowsystem.sol\":901:929  uint256 public escrowCounter */\n    tag_76:\n      sload(0x02)\n      dup2\n      jump\t// out\n        /* \"contracts/escrowsystem.sol\":972:1003  uint256 public totalFundsLocked */\n    tag_81:\n      sload(0x03)\n      dup2\n      jump\t// out\n        /* \"@openzeppelin/contracts/access/Ownable.sol\":2543:2758  function transferOwnership(address newOwner) public virtual onlyOwner {... */\n    tag_86:\n        /* \"@openzeppelin/contracts/access/Ownable.sol\":1531:1544  _checkOwner() */\n      tag_237\n        /* \"@openzeppelin/contracts/access/Ownable.sol\":1531:1542  _checkOwner */\n      tag_173\n        /* \"@openzeppelin/contracts/access/Ownable.sol\":1531:1544  _checkOwner() */\n      jump\t// in\n    tag_237:\n        /* \"@openzeppelin/contracts/access/Ownable.sol\":2647:2648  0 */\n      0x00\n        /* \"@openzeppelin/contracts/access/Ownable.sol\":2627:2649  newOwner == address(0) */\n      0xffffffffffffffffffffffffffffffffffffffff\n      and\n        /* \"@openzeppelin/contracts/access/Ownable.sol\":2627:2635  newOwner */\n      dup2\n        /* \"@openzeppelin/contracts/access/Ownable.sol\":2627:2649  newOwner == address(0) */\n      0xffffffffffffffffffffffffffffffffffffffff\n      and\n      sub\n        /* \"@openzeppelin/contracts/access/Ownable.sol\":2623:2714  if (newOwner == address(0)) {... */\n      tag_239\n      jumpi\n        /* \"@openzeppelin/contracts/access/Ownable.sol\":2700:2701  0 */\n      0x00\n        /* \"@openzeppelin/contracts/access/Ownable.sol\":2672:2703  OwnableInvalidOwner(address(0)) */\n      mload(0x40)\n      0x1e4fbdf700000000000000000000000000000000000000000000000000000000\n      dup2\n      mstore\n      0x04\n      add\n      tag_240\n      swap2\n      swap1\n      tag_55\n      jump\t// in\n    tag_240:\n      mload(0x40)\n      dup1\n      swap2\n      sub\n      swap1\n      revert\n        /* \"@openzeppelin/contracts/access/Ownable.sol\":2623:2714  if (newOwner == address(0)) {... */\n    tag_239:\n        /* \"@openzeppelin/contracts/access/Ownable.sol\":2723:2751  _transferOwnership(newOwner) */\n      tag_241\n        /* \"@openzeppelin/contracts/access/Ownable.sol\":2742:2750  newOwner */\n      dup2\n        /* \"@openzeppelin/contracts/access/Ownable.sol\":2723:2741  _transferOwnership */\n      tag_176\n        /* \"@openzeppelin/contracts/access/Ownable.sol\":2723:2751  _transferOwnership(newOwner) */\n      jump\t// in\n    tag_241:\n        /* \"@openzeppelin/contracts/access/Ownable.sol\":2543:2758  function transferOwnership(address newOwner) public virtual onlyOwner {... */\n      pop\n      jump\t// out\n        /* \"contracts/escrowsystem.sol\":2736:3312  function createEscrow(address payable _seller) external onlyRegistered(Role.BUYER) returns (uint256) {... */\n    tag_91:\n        /* \"contracts/escrowsystem.sol\":2828:2835  uint256 */\n      0x00\n        /* \"contracts/escrowsystem.sol\":2807:2817  Role.BUYER */\n      0x01\n        /* \"contracts/escrowsystem.sol\":1762:1767  _role */\n      dup1\n        /* \"contracts/escrowsystem.sol\":1728:1767  registrations[msg.sender].role == _role */\n      0x03\n      dup2\n      gt\n      iszero\n      tag_243\n      jumpi\n      tag_244\n      tag_107\n      jump\t// in\n    tag_244:\n    tag_243:\n        /* \"contracts/escrowsystem.sol\":1728:1741  registrations */\n      0x04\n        /* \"contracts/escrowsystem.sol\":1728:1753  registrations[msg.sender] */\n      0x00\n        /* \"contracts/escrowsystem.sol\":1742:1752  msg.sender */\n      caller\n        /* \"contracts/escrowsystem.sol\":1728:1753  registrations[msg.sender] */\n      0xffffffffffffffffffffffffffffffffffffffff\n      and\n      0xffffffffffffffffffffffffffffffffffffffff\n      and\n      dup2\n      mstore\n      0x20\n      add\n      swap1\n      dup2\n      mstore\n      0x20\n      add\n      0x00\n      keccak256\n        /* \"contracts/escrowsystem.sol\":1728:1758  registrations[msg.sender].role */\n      0x00\n      add\n      0x00\n      swap1\n      sload\n      swap1\n      0x0100\n      exp\n      swap1\n      div\n      0xff\n      and\n        /* \"contracts/escrowsystem.sol\":1728:1767  registrations[msg.sender].role == _role */\n      0x03\n      dup2\n      gt\n      iszero\n      tag_245\n      jumpi\n      tag_246\n      tag_107\n      jump\t// in\n    tag_246:\n    tag_245:\n      eq\n        /* \"contracts/escrowsystem.sol\":1720:1784  require(registrations[msg.sender].role == _role, \"Invalid role\") */\n      tag_247\n      jumpi\n      mload(0x40)\n      0x08c379a000000000000000000000000000000000000000000000000000000000\n      dup2\n      mstore\n      0x04\n      add\n      tag_248\n      swap1\n      tag_112\n      jump\t// in\n    tag_248:\n      mload(0x40)\n      dup1\n      swap2\n      sub\n      swap1\n      revert\n    tag_247:\n        /* \"contracts/escrowsystem.sol\":2887:2898  Role.SELLER */\n      0x02\n        /* \"contracts/escrowsystem.sol\":2856:2898  registrations[_seller].role == Role.SELLER */\n      0x03\n      dup2\n      gt\n      iszero\n      tag_250\n      jumpi\n      tag_251\n      tag_107\n      jump\t// in\n    tag_251:\n    tag_250:\n        /* \"contracts/escrowsystem.sol\":2856:2869  registrations */\n      0x04\n        /* \"contracts/escrowsystem.sol\":2856:2878  registrations[_seller] */\n      0x00\n        /* \"contracts/escrowsystem.sol\":2870:2877  _seller */\n      dup6\n        /* \"contracts/escrowsystem.sol\":2856:2878  registrations[_seller] */\n      0xffffffffffffffffffffffffffffffffffffffff\n      and\n      0xffffffffffffffffffffffffffffffffffffffff\n      and\n      dup2\n      mstore\n      0x20\n      add\n      swap1\n      dup2\n      mstore\n      0x20\n      add\n      0x00\n      keccak256\n        /* \"contracts/escrowsystem.sol\":2856:2883  registrations[_seller].role */\n      0x00\n      add\n      0x00\n      swap1\n      sload\n      swap1\n      0x0100\n      exp\n      swap1\n      div\n      0xff\n      and\n        /* \"contracts/escrowsystem.sol\":2856:2898  registrations[_seller].role == Role.SELLER */\n      0x03\n      dup2\n      gt\n      iszero\n      tag_252\n      jumpi\n      tag_253\n      tag_107\n      jump\t// in\n    tag_253:\n    tag_252:\n      eq\n        /* \"contracts/escrowsystem.sol\":2848:2917  require(registrations[_seller].role == Role.SELLER, \"Invalid seller\") */\n      tag_254\n      jumpi\n      mload(0x40)\n      0x08c379a000000000000000000000000000000000000000000000000000000000\n      dup2\n      mstore\n      0x04\n      add\n      tag_255\n      swap1\n      tag_256\n      jump\t// in\n    tag_255:\n      mload(0x40)\n      dup1\n      swap2\n      sub\n      swap1\n      revert\n    tag_254:\n        /* \"contracts/escrowsystem.sol\":2930:2943  escrowCounter */\n      0x02\n      0x00\n        /* \"contracts/escrowsystem.sol\":2930:2945  escrowCounter++ */\n      dup2\n      sload\n      dup1\n      swap3\n      swap2\n      swap1\n      tag_257\n      swap1\n      tag_258\n      jump\t// in\n    tag_257:\n      swap2\n      swap1\n      pop\n      sstore\n      pop\n        /* \"contracts/escrowsystem.sol\":2983:3206  Escrow({... */\n      mload(0x40)\n      dup1\n      0xc0\n      add\n      0x40\n      mstore\n      dup1\n        /* \"contracts/escrowsystem.sol\":3009:3022  escrowCounter */\n      sload(0x02)\n        /* \"contracts/escrowsystem.sol\":2983:3206  Escrow({... */\n      dup2\n      mstore\n      0x20\n      add\n        /* \"contracts/escrowsystem.sol\":3052:3062  msg.sender */\n      caller\n        /* \"contracts/escrowsystem.sol\":2983:3206  Escrow({... */\n      0xffffffffffffffffffffffffffffffffffffffff\n      and\n      dup2\n      mstore\n      0x20\n      add\n        /* \"contracts/escrowsystem.sol\":3086:3093  _seller */\n      dup5\n        /* \"contracts/escrowsystem.sol\":2983:3206  Escrow({... */\n      0xffffffffffffffffffffffffffffffffffffffff\n      and\n      dup2\n      mstore\n      0x20\n      add\n        /* \"contracts/escrowsystem.sol\":3116:3117  0 */\n      0x00\n        /* \"contracts/escrowsystem.sol\":2983:3206  Escrow({... */\n      dup2\n      mstore\n      0x20\n      add\n        /* \"contracts/escrowsystem.sol\":3139:3167  EscrowState.AWAITING_PAYMENT */\n      0x00\n        /* \"contracts/escrowsystem.sol\":2983:3206  Escrow({... */\n      0x04\n      dup2\n      gt\n      iszero\n      tag_259\n      jumpi\n      tag_260\n      tag_107\n      jump\t// in\n    tag_260:\n    tag_259:\n      dup2\n      mstore\n      0x20\n      add\n        /* \"contracts/escrowsystem.sol\":3190:3194  true */\n      0x01\n        /* \"contracts/escrowsystem.sol\":2983:3206  Escrow({... */\n      iszero\n      iszero\n      dup2\n      mstore\n      pop\n        /* \"contracts/escrowsystem.sol\":2958:2965  escrows */\n      0x05\n        /* \"contracts/escrowsystem.sol\":2958:2980  escrows[escrowCounter] */\n      0x00\n        /* \"contracts/escrowsystem.sol\":2966:2979  escrowCounter */\n      sload(0x02)\n        /* \"contracts/escrowsystem.sol\":2958:2980  escrows[escrowCounter] */\n      dup2\n      mstore\n      0x20\n      add\n      swap1\n      dup2\n      mstore\n      0x20\n      add\n      0x00\n      keccak256\n        /* \"contracts/escrowsystem.sol\":2958:3206  escrows[escrowCounter] = Escrow({... */\n      0x00\n      dup3\n      add\n      mload\n      dup2\n      0x00\n      add\n      sstore\n      0x20\n      dup3\n      add\n      mload\n      dup2\n      0x01\n      add\n      exp(0x0100, 0x00)\n      dup2\n      sload\n      dup2\n      0xffffffffffffffffffffffffffffffffffffffff\n      mul\n      not\n      and\n      swap1\n      dup4\n      0xffffffffffffffffffffffffffffffffffffffff\n      and\n      mul\n      or\n      swap1\n      sstore\n      pop\n      0x40\n      dup3\n      add\n      mload\n      dup2\n      0x02\n      add\n      exp(0x0100, 0x00)\n      dup2\n      sload\n      dup2\n      0xffffffffffffffffffffffffffffffffffffffff\n      mul\n      not\n      and\n      swap1\n      dup4\n      0xffffffffffffffffffffffffffffffffffffffff\n      and\n      mul\n      or\n      swap1\n      sstore\n      pop\n      0x60\n      dup3\n      add\n      mload\n      dup2\n      0x03\n      add\n      sstore\n      0x80\n      dup3\n      add\n      mload\n      dup2\n      0x04\n      add\n      exp(0x0100, 0x00)\n      dup2\n      sload\n      dup2\n      0xff\n      mul\n      not\n      and\n      swap1\n      dup4\n      0x04\n      dup2\n      gt\n      iszero\n      tag_261\n      jumpi\n      tag_262\n      tag_107\n      jump\t// in\n    tag_262:\n    tag_261:\n      mul\n      or\n      swap1\n      sstore\n      pop\n      0xa0\n      dup3\n      add\n      mload\n      dup2\n      0x04\n      add\n      exp(0x0100, 0x01)\n      dup2\n      sload\n      dup2\n      0xff\n      mul\n      not\n      and\n      swap1\n      dup4\n      iszero\n      iszero\n      mul\n      or\n      swap1\n      sstore\n      pop\n      swap1\n      pop\n      pop\n        /* \"contracts/escrowsystem.sol\":3238:3251  escrowCounter */\n      sload(0x02)\n        /* \"contracts/escrowsystem.sol\":3224:3273  EscrowCreated(escrowCounter, msg.sender, _seller) */\n      0xcc50a4e95294d36f3e612eabd37417678a3c52eb30d18039a0b2ed5cff4cfc0f\n        /* \"contracts/escrowsystem.sol\":3253:3263  msg.sender */\n      caller\n        /* \"contracts/escrowsystem.sol\":3265:3272  _seller */\n      dup6\n        /* \"contracts/escrowsystem.sol\":3224:3273  EscrowCreated(escrowCounter, msg.sender, _seller) */\n      mload(0x40)\n      tag_263\n      swap3\n      swap2\n      swap1\n      tag_264\n      jump\t// in\n    tag_263:\n      mload(0x40)\n      dup1\n      swap2\n      sub\n      swap1\n      log2\n        /* \"contracts/escrowsystem.sol\":3291:3304  escrowCounter */\n      sload(0x02)\n        /* \"contracts/escrowsystem.sol\":3284:3304  return escrowCounter */\n      swap2\n      pop\n        /* \"contracts/escrowsystem.sol\":2736:3312  function createEscrow(address payable _seller) external onlyRegistered(Role.BUYER) returns (uint256) {... */\n      pop\n      swap2\n      swap1\n      pop\n      jump\t// out\n        /* \"contracts/escrowsystem.sol\":3942:4551  function confirmDelivery(uint256 _escrowId) external nonReentrant escrowExists(_escrowId) {... */\n    tag_96:\n        /* \"@openzeppelin/contracts/security/ReentrancyGuard.sol\":2261:2282  _nonReentrantBefore() */\n      tag_266\n        /* \"@openzeppelin/contracts/security/ReentrancyGuard.sol\":2261:2280  _nonReentrantBefore */\n      tag_99\n        /* \"@openzeppelin/contracts/security/ReentrancyGuard.sol\":2261:2282  _nonReentrantBefore() */\n      jump\t// in\n    tag_266:\n        /* \"contracts/escrowsystem.sol\":4021:4030  _escrowId */\n      dup1\n        /* \"contracts/escrowsystem.sol\":1866:1873  escrows */\n      0x05\n        /* \"contracts/escrowsystem.sol\":1866:1878  escrows[_id] */\n      0x00\n        /* \"contracts/escrowsystem.sol\":1874:1877  _id */\n      dup3\n        /* \"contracts/escrowsystem.sol\":1866:1878  escrows[_id] */\n      dup2\n      mstore\n      0x20\n      add\n      swap1\n      dup2\n      mstore\n      0x20\n      add\n      0x00\n      keccak256\n        /* \"contracts/escrowsystem.sol\":1866:1885  escrows[_id].exists */\n      0x04\n      add\n      0x01\n      swap1\n      sload\n      swap1\n      0x0100\n      exp\n      swap1\n      div\n      0xff\n      and\n        /* \"contracts/escrowsystem.sol\":1858:1911  require(escrows[_id].exists, \"Escrow does not exist\") */\n      tag_268\n      jumpi\n      mload(0x40)\n      0x08c379a000000000000000000000000000000000000000000000000000000000\n      dup2\n      mstore\n      0x04\n      add\n      tag_269\n      swap1\n      tag_103\n      jump\t// in\n    tag_269:\n      mload(0x40)\n      dup1\n      swap2\n      sub\n      swap1\n      revert\n    tag_268:\n        /* \"contracts/escrowsystem.sol\":4043:4064  Escrow storage escrow */\n      0x00\n        /* \"contracts/escrowsystem.sol\":4067:4074  escrows */\n      0x05\n        /* \"contracts/escrowsystem.sol\":4067:4085  escrows[_escrowId] */\n      0x00\n        /* \"contracts/escrowsystem.sol\":4075:4084  _escrowId */\n      dup5\n        /* \"contracts/escrowsystem.sol\":4067:4085  escrows[_escrowId] */\n      dup2\n      mstore\n      0x20\n      add\n      swap1\n      dup2\n      mstore\n      0x20\n      add\n      0x00\n      keccak256\n        /* \"contracts/escrowsystem.sol\":4043:4085  Escrow storage escrow = escrows[_escrowId] */\n      swap1\n      pop\n        /* \"contracts/escrowsystem.sol\":4120:4126  escrow */\n      dup1\n        /* \"contracts/escrowsystem.sol\":4120:4132  escrow.buyer */\n      0x01\n      add\n      0x00\n      swap1\n      sload\n      swap1\n      0x0100\n      exp\n      swap1\n      div\n      0xffffffffffffffffffffffffffffffffffffffff\n      and\n        /* \"contracts/escrowsystem.sol\":4106:4132  msg.sender == escrow.buyer */\n      0xffffffffffffffffffffffffffffffffffffffff\n      and\n        /* \"contracts/escrowsystem.sol\":4106:4116  msg.sender */\n      caller\n        /* \"contracts/escrowsystem.sol\":4106:4132  msg.sender == escrow.buyer */\n      0xffffffffffffffffffffffffffffffffffffffff\n      and\n      eq\n        /* \"contracts/escrowsystem.sol\":4098:4146  require(msg.sender == escrow.buyer, \"Not buyer\") */\n      tag_271\n      jumpi\n      mload(0x40)\n      0x08c379a000000000000000000000000000000000000000000000000000000000\n      dup2\n      mstore\n      0x04\n      add\n      tag_272\n      swap1\n      tag_219\n      jump\t// in\n    tag_272:\n      mload(0x40)\n      dup1\n      swap2\n      sub\n      swap1\n      revert\n    tag_271:\n        /* \"contracts/escrowsystem.sol\":4181:4210  EscrowState.AWAITING_DELIVERY */\n      0x01\n        /* \"contracts/escrowsystem.sol\":4165:4210  escrow.state == EscrowState.AWAITING_DELIVERY */\n      0x04\n      dup2\n      gt\n      iszero\n      tag_273\n      jumpi\n      tag_274\n      tag_107\n      jump\t// in\n    tag_274:\n    tag_273:\n        /* \"contracts/escrowsystem.sol\":4165:4171  escrow */\n      dup2\n        /* \"contracts/escrowsystem.sol\":4165:4177  escrow.state */\n      0x04\n      add\n      0x00\n      swap1\n      sload\n      swap1\n      0x0100\n      exp\n      swap1\n      div\n      0xff\n      and\n        /* \"contracts/escrowsystem.sol\":4165:4210  escrow.state == EscrowState.AWAITING_DELIVERY */\n      0x04\n      dup2\n      gt\n      iszero\n      tag_275\n      jumpi\n      tag_276\n      tag_107\n      jump\t// in\n    tag_276:\n    tag_275:\n      eq\n        /* \"contracts/escrowsystem.sol\":4157:4228  require(escrow.state == EscrowState.AWAITING_DELIVERY, \"Invalid state\") */\n      tag_277\n      jumpi\n      mload(0x40)\n      0x08c379a000000000000000000000000000000000000000000000000000000000\n      dup2\n      mstore\n      0x04\n      add\n      tag_278\n      swap1\n      tag_226\n      jump\t// in\n    tag_278:\n      mload(0x40)\n      dup1\n      swap2\n      sub\n      swap1\n      revert\n    tag_277:\n        /* \"contracts/escrowsystem.sol\":4256:4276  EscrowState.COMPLETE */\n      0x02\n        /* \"contracts/escrowsystem.sol\":4241:4247  escrow */\n      dup2\n        /* \"contracts/escrowsystem.sol\":4241:4253  escrow.state */\n      0x04\n      add\n      0x00\n        /* \"contracts/escrowsystem.sol\":4241:4276  escrow.state = EscrowState.COMPLETE */\n      0x0100\n      exp\n      dup2\n      sload\n      dup2\n      0xff\n      mul\n      not\n      and\n      swap1\n      dup4\n      0x04\n      dup2\n      gt\n      iszero\n      tag_279\n      jumpi\n      tag_280\n      tag_107\n      jump\t// in\n    tag_280:\n    tag_279:\n      mul\n      or\n      swap1\n      sstore\n      pop\n        /* \"contracts/escrowsystem.sol\":4307:4313  escrow */\n      dup1\n        /* \"contracts/escrowsystem.sol\":4307:4320  escrow.amount */\n      0x03\n      add\n      sload\n        /* \"contracts/escrowsystem.sol\":4287:4303  totalFundsLocked */\n      0x03\n      0x00\n        /* \"contracts/escrowsystem.sol\":4287:4320  totalFundsLocked -= escrow.amount */\n      dup3\n      dup3\n      sload\n      tag_281\n      swap2\n      swap1\n      tag_125\n      jump\t// in\n    tag_281:\n      swap3\n      pop\n      pop\n      dup2\n      swap1\n      sstore\n      pop\n        /* \"contracts/escrowsystem.sol\":4333:4347  uint256 amount */\n      0x00\n        /* \"contracts/escrowsystem.sol\":4350:4356  escrow */\n      dup2\n        /* \"contracts/escrowsystem.sol\":4350:4363  escrow.amount */\n      0x03\n      add\n      sload\n        /* \"contracts/escrowsystem.sol\":4333:4363  uint256 amount = escrow.amount */\n      swap1\n      pop\n        /* \"contracts/escrowsystem.sol\":4390:4391  0 */\n      0x00\n        /* \"contracts/escrowsystem.sol\":4374:4380  escrow */\n      dup3\n        /* \"contracts/escrowsystem.sol\":4374:4387  escrow.amount */\n      0x03\n      add\n        /* \"contracts/escrowsystem.sol\":4374:4391  escrow.amount = 0 */\n      dup2\n      swap1\n      sstore\n      pop\n        /* \"contracts/escrowsystem.sol\":4405:4417  bool success */\n      0x00\n        /* \"contracts/escrowsystem.sol\":4423:4429  escrow */\n      dup3\n        /* \"contracts/escrowsystem.sol\":4423:4436  escrow.seller */\n      0x02\n      add\n      0x00\n      swap1\n      sload\n      swap1\n      0x0100\n      exp\n      swap1\n      div\n      0xffffffffffffffffffffffffffffffffffffffff\n      and\n        /* \"contracts/escrowsystem.sol\":4423:4441  escrow.seller.call */\n      0xffffffffffffffffffffffffffffffffffffffff\n      and\n        /* \"contracts/escrowsystem.sol\":4449:4455  amount */\n      dup3\n        /* \"contracts/escrowsystem.sol\":4423:4460  escrow.seller.call{value: amount}(\"\") */\n      mload(0x40)\n      tag_282\n      swap1\n      tag_130\n      jump\t// in\n    tag_282:\n      0x00\n      mload(0x40)\n      dup1\n      dup4\n      sub\n      dup2\n      dup6\n      dup8\n      gas\n      call\n      swap3\n      pop\n      pop\n      pop\n      returndatasize\n      dup1\n      0x00\n      dup2\n      eq\n      tag_285\n      jumpi\n      mload(0x40)\n      swap2\n      pop\n      and(add(returndatasize, 0x3f), not(0x1f))\n      dup3\n      add\n      0x40\n      mstore\n      returndatasize\n      dup3\n      mstore\n      returndatasize\n      0x00\n      0x20\n      dup5\n      add\n      returndatacopy\n      jump(tag_284)\n    tag_285:\n      0x60\n      swap2\n      pop\n    tag_284:\n      pop\n        /* \"contracts/escrowsystem.sol\":4404:4460  (bool success, ) = escrow.seller.call{value: amount}(\"\") */\n      pop\n      swap1\n      pop\n        /* \"contracts/escrowsystem.sol\":4479:4486  success */\n      dup1\n        /* \"contracts/escrowsystem.sol\":4471:4506  require(success, \"Transfer failed\") */\n      tag_286\n      jumpi\n      mload(0x40)\n      0x08c379a000000000000000000000000000000000000000000000000000000000\n      dup2\n      mstore\n      0x04\n      add\n      tag_287\n      swap1\n      tag_136\n      jump\t// in\n    tag_287:\n      mload(0x40)\n      dup1\n      swap2\n      sub\n      swap1\n      revert\n    tag_286:\n        /* \"contracts/escrowsystem.sol\":4533:4542  _escrowId */\n      dup5\n        /* \"contracts/escrowsystem.sol\":4524:4543  Released(_escrowId) */\n      0xfb81f9b30d73d830c3544b34d827c08142579ee75710b490bab0b3995468c565\n      mload(0x40)\n      mload(0x40)\n      dup1\n      swap2\n      sub\n      swap1\n      log2\n        /* \"contracts/escrowsystem.sol\":4032:4551  {... */\n      pop\n      pop\n      pop\n        /* \"@openzeppelin/contracts/security/ReentrancyGuard.sol\":2292:2293  _ */\n      pop\n        /* \"@openzeppelin/contracts/security/ReentrancyGuard.sol\":2303:2323  _nonReentrantAfter() */\n      tag_288\n        /* \"@openzeppelin/contracts/security/ReentrancyGuard.sol\":2303:2321  _nonReentrantAfter */\n      tag_150\n        /* \"@openzeppelin/contracts/security/ReentrancyGuard.sol\":2303:2323  _nonReentrantAfter() */\n      jump\t// in\n    tag_288:\n        /* \"contracts/escrowsystem.sol\":3942:4551  function confirmDelivery(uint256 _escrowId) external nonReentrant escrowExists(_escrowId) {... */\n      pop\n      jump\t// out\n        /* \"@openzeppelin/contracts/security/ReentrancyGuard.sol\":2336:2623  function _nonReentrantBefore() private {... */\n    tag_99:\n        /* \"@openzeppelin/contracts/security/ReentrancyGuard.sol\":1759:1760  2 */\n      0x02\n        /* \"@openzeppelin/contracts/security/ReentrancyGuard.sol\":2468:2475  _status */\n      sload(0x00)\n        /* \"@openzeppelin/contracts/security/ReentrancyGuard.sol\":2468:2487  _status != _ENTERED */\n      sub\n        /* \"@openzeppelin/contracts/security/ReentrancyGuard.sol\":2460:2523  require(_status != _ENTERED, \"ReentrancyGuard: reentrant call\") */\n      tag_290\n      jumpi\n      mload(0x40)\n      0x08c379a000000000000000000000000000000000000000000000000000000000\n      dup2\n      mstore\n      0x04\n      add\n      tag_291\n      swap1\n      tag_292\n      jump\t// in\n    tag_291:\n      mload(0x40)\n      dup1\n      swap2\n      sub\n      swap1\n      revert\n    tag_290:\n        /* \"@openzeppelin/contracts/security/ReentrancyGuard.sol\":1759:1760  2 */\n      0x02\n        /* \"@openzeppelin/contracts/security/ReentrancyGuard.sol\":2598:2605  _status */\n      0x00\n        /* \"@openzeppelin/contracts/security/ReentrancyGuard.sol\":2598:2616  _status = _ENTERED */\n      dup2\n      swap1\n      sstore\n      pop\n        /* \"@openzeppelin/contracts/security/ReentrancyGuard.sol\":2336:2623  function _nonReentrantBefore() private {... */\n      jump\t// out\n        /* \"@openzeppelin/contracts/security/ReentrancyGuard.sol\":2629:2838  function _nonReentrantAfter() private {... */\n    tag_150:\n        /* \"@openzeppelin/contracts/security/ReentrancyGuard.sol\":1716:1717  1 */\n      0x01\n        /* \"@openzeppelin/contracts/security/ReentrancyGuard.sol\":2809:2816  _status */\n      0x00\n        /* \"@openzeppelin/contracts/security/ReentrancyGuard.sol\":2809:2831  _status = _NOT_ENTERED */\n      dup2\n      swap1\n      sstore\n      pop\n        /* \"@openzeppelin/contracts/security/ReentrancyGuard.sol\":2629:2838  function _nonReentrantAfter() private {... */\n      jump\t// out\n        /* \"@openzeppelin/contracts/access/Ownable.sol\":1796:1958  function _checkOwner() internal view virtual {... */\n    tag_173:\n        /* \"@openzeppelin/contracts/access/Ownable.sol\":1866:1878  _msgSender() */\n      tag_295\n        /* \"@openzeppelin/contracts/access/Ownable.sol\":1866:1876  _msgSender */\n      tag_296\n        /* \"@openzeppelin/contracts/access/Ownable.sol\":1866:1878  _msgSender() */\n      jump\t// in\n    tag_295:\n        /* \"@openzeppelin/contracts/access/Ownable.sol\":1855:1878  owner() != _msgSender() */\n      0xffffffffffffffffffffffffffffffffffffffff\n      and\n        /* \"@openzeppelin/contracts/access/Ownable.sol\":1855:1862  owner() */\n      tag_297\n        /* \"@openzeppelin/contracts/access/Ownable.sol\":1855:1860  owner */\n      tag_53\n        /* \"@openzeppelin/contracts/access/Ownable.sol\":1855:1862  owner() */\n      jump\t// in\n    tag_297:\n        /* \"@openzeppelin/contracts/access/Ownable.sol\":1855:1878  owner() != _msgSender() */\n      0xffffffffffffffffffffffffffffffffffffffff\n      and\n      eq\n        /* \"@openzeppelin/contracts/access/Ownable.sol\":1851:1952  if (owner() != _msgSender()) {... */\n      tag_298\n      jumpi\n        /* \"@openzeppelin/contracts/access/Ownable.sol\":1928:1940  _msgSender() */\n      tag_299\n        /* \"@openzeppelin/contracts/access/Ownable.sol\":1928:1938  _msgSender */\n      tag_296\n        /* \"@openzeppelin/contracts/access/Ownable.sol\":1928:1940  _msgSender() */\n      jump\t// in\n    tag_299:\n        /* \"@openzeppelin/contracts/access/Ownable.sol\":1901:1941  OwnableUnauthorizedAccount(_msgSender()) */\n      mload(0x40)\n      0x118cdaa700000000000000000000000000000000000000000000000000000000\n      dup2\n      mstore\n      0x04\n      add\n      tag_300\n      swap2\n      swap1\n      tag_55\n      jump\t// in\n    tag_300:\n      mload(0x40)\n      dup1\n      swap2\n      sub\n      swap1\n      revert\n        /* \"@openzeppelin/contracts/access/Ownable.sol\":1851:1952  if (owner() != _msgSender()) {... */\n    tag_298:\n        /* \"@openzeppelin/contracts/access/Ownable.sol\":1796:1958  function _checkOwner() internal view virtual {... */\n      jump\t// out\n        /* \"@openzeppelin/contracts/access/Ownable.sol\":2912:3099  function _transferOwnership(address newOwner) internal virtual {... */\n    tag_176:\n        /* \"@openzeppelin/contracts/access/Ownable.sol\":2985:3001  address oldOwner */\n      0x00\n        /* \"@openzeppelin/contracts/access/Ownable.sol\":3004:3010  _owner */\n      0x01\n      0x00\n      swap1\n      sload\n      swap1\n      0x0100\n      exp\n      swap1\n      div\n      0xffffffffffffffffffffffffffffffffffffffff\n      and\n        /* \"@openzeppelin/contracts/access/Ownable.sol\":2985:3010  address oldOwner = _owner */\n      swap1\n      pop\n        /* \"@openzeppelin/contracts/access/Ownable.sol\":3029:3037  newOwner */\n      dup2\n        /* \"@openzeppelin/contracts/access/Ownable.sol\":3020:3026  _owner */\n      0x01\n      0x00\n        /* \"@openzeppelin/contracts/access/Ownable.sol\":3020:3037  _owner = newOwner */\n      0x0100\n      exp\n      dup2\n      sload\n      dup2\n      0xffffffffffffffffffffffffffffffffffffffff\n      mul\n      not\n      and\n      swap1\n      dup4\n      0xffffffffffffffffffffffffffffffffffffffff\n      and\n      mul\n      or\n      swap1\n      sstore\n      pop\n        /* \"@openzeppelin/contracts/access/Ownable.sol\":3083:3091  newOwner */\n      dup2\n        /* \"@openzeppelin/contracts/access/Ownable.sol\":3052:3092  OwnershipTransferred(oldOwner, newOwner) */\n      0xffffffffffffffffffffffffffffffffffffffff\n      and\n        /* \"@openzeppelin/contracts/access/Ownable.sol\":3073:3081  oldOwner */\n      dup2\n        /* \"@openzeppelin/contracts/access/Ownable.sol\":3052:3092  OwnershipTransferred(oldOwner, newOwner) */\n      0xffffffffffffffffffffffffffffffffffffffff\n      and\n      0x8be0079c531659141344cd1fd0a4f28419497f9722a3daafe3b4186f6b6457e0\n      mload(0x40)\n      mload(0x40)\n      dup1\n      swap2\n      sub\n      swap1\n      log3\n        /* \"@openzeppelin/contracts/access/Ownable.sol\":2975:3099  {... */\n      pop\n        /* \"@openzeppelin/contracts/access/Ownable.sol\":2912:3099  function _transferOwnership(address newOwner) internal virtual {... */\n      pop\n      jump\t// out\n        /* \"@openzeppelin/contracts/utils/Context.sol\":656:752  function _msgSender() internal view virtual returns (address) {... */\n    tag_296:\n        /* \"@openzeppelin/contracts/utils/Context.sol\":709:716  address */\n      0x00\n        /* \"@openzeppelin/contracts/utils/Context.sol\":735:745  msg.sender */\n      caller\n        /* \"@openzeppelin/contracts/utils/Context.sol\":728:745  return msg.sender */\n      swap1\n      pop\n        /* \"@openzeppelin/contracts/utils/Context.sol\":656:752  function _msgSender() internal view virtual returns (address) {... */\n      swap1\n      jump\t// out\n    tag_178:\n      mload(0x40)\n      dup1\n      0xc0\n      add\n      0x40\n      mstore\n      dup1\n      0x00\n      dup2\n      mstore\n      0x20\n      add\n      and(0xffffffffffffffffffffffffffffffffffffffff, 0x00)\n      dup2\n      mstore\n      0x20\n      add\n      and(0xffffffffffffffffffffffffffffffffffffffff, 0x00)\n      dup2\n      mstore\n      0x20\n      add\n      0x00\n      dup2\n      mstore\n      0x20\n      add\n      0x00\n      0x04\n      dup2\n      gt\n      iszero\n      tag_303\n      jumpi\n      tag_304\n      tag_107\n      jump\t// in\n    tag_304:\n    tag_303:\n      dup2\n      mstore\n      0x20\n      add\n      iszero(iszero(0x00))\n      dup2\n      mstore\n      pop\n      swap1\n      jump\t// out\n        /* \"#utility.yul\":7:176   */\n    tag_305:\n        /* \"#utility.yul\":91:102   */\n      0x00\n        /* \"#utility.yul\":125:131   */\n      dup3\n        /* \"#utility.yul\":120:123   */\n      dup3\n        /* \"#utility.yul\":113:132   */\n      mstore\n        /* \"#utility.yul\":165:169   */\n      0x20\n        /* \"#utility.yul\":160:163   */\n      dup3\n        /* \"#utility.yul\":156:170   */\n      add\n        /* \"#utility.yul\":141:170   */\n      swap1\n      pop\n        /* \"#utility.yul\":7:176   */\n      swap3\n      swap2\n      pop\n      pop\n      jump\t// out\n        /* \"#utility.yul\":182:359   */\n    tag_306:\n        /* \"#utility.yul\":322:351   */\n      0x446972656374207061796d656e7473206e6f7420616c6c6f7765640000000000\n        /* \"#utility.yul\":318:319   */\n      0x00\n        /* \"#utility.yul\":310:316   */\n      dup3\n        /* \"#utility.yul\":306:320   */\n      add\n        /* \"#utility.yul\":299:352   */\n      mstore\n        /* \"#utility.yul\":182:359   */\n      pop\n      jump\t// out\n        /* \"#utility.yul\":365:731   */\n    tag_307:\n        /* \"#utility.yul\":507:510   */\n      0x00\n        /* \"#utility.yul\":528:595   */\n      tag_386\n        /* \"#utility.yul\":592:594   */\n      0x1b\n        /* \"#utility.yul\":587:590   */\n      dup4\n        /* \"#utility.yul\":528:595   */\n      tag_305\n      jump\t// in\n    tag_386:\n        /* \"#utility.yul\":521:595   */\n      swap2\n      pop\n        /* \"#utility.yul\":604:697   */\n      tag_387\n        /* \"#utility.yul\":693:696   */\n      dup3\n        /* \"#utility.yul\":604:697   */\n      tag_306\n      jump\t// in\n    tag_387:\n        /* \"#utility.yul\":722:724   */\n      0x20\n        /* \"#utility.yul\":717:720   */\n      dup3\n        /* \"#utility.yul\":713:725   */\n      add\n        /* \"#utility.yul\":706:725   */\n      swap1\n      pop\n        /* \"#utility.yul\":365:731   */\n      swap2\n      swap1\n      pop\n      jump\t// out\n        /* \"#utility.yul\":737:1156   */\n    tag_24:\n        /* \"#utility.yul\":903:907   */\n      0x00\n        /* \"#utility.yul\":941:943   */\n      0x20\n        /* \"#utility.yul\":930:939   */\n      dup3\n        /* \"#utility.yul\":926:944   */\n      add\n        /* \"#utility.yul\":918:944   */\n      swap1\n      pop\n        /* \"#utility.yul\":990:999   */\n      dup2\n        /* \"#utility.yul\":984:988   */\n      dup2\n        /* \"#utility.yul\":980:1000   */\n      sub\n        /* \"#utility.yul\":976:977   */\n      0x00\n        /* \"#utility.yul\":965:974   */\n      dup4\n        /* \"#utility.yul\":961:978   */\n      add\n        /* \"#utility.yul\":954:1001   */\n      mstore\n        /* \"#utility.yul\":1018:1149   */\n      tag_389\n        /* \"#utility.yul\":1144:1148   */\n      dup2\n        /* \"#utility.yul\":1018:1149   */\n      tag_307\n      jump\t// in\n    tag_389:\n        /* \"#utility.yul\":1010:1149   */\n      swap1\n      pop\n        /* \"#utility.yul\":737:1156   */\n      swap2\n      swap1\n      pop\n      jump\t// out\n        /* \"#utility.yul\":1243:1360   */\n    tag_309:\n        /* \"#utility.yul\":1352:1353   */\n      0x00\n        /* \"#utility.yul\":1349:1350   */\n      0x00\n        /* \"#utility.yul\":1342:1354   */\n      revert\n        /* \"#utility.yul\":1489:1566   */\n    tag_311:\n        /* \"#utility.yul\":1526:1533   */\n      0x00\n        /* \"#utility.yul\":1555:1560   */\n      dup2\n        /* \"#utility.yul\":1544:1560   */\n      swap1\n      pop\n        /* \"#utility.yul\":1489:1566   */\n      swap2\n      swap1\n      pop\n      jump\t// out\n        /* \"#utility.yul\":1572:1694   */\n    tag_312:\n        /* \"#utility.yul\":1645:1669   */\n      tag_395\n        /* \"#utility.yul\":1663:1668   */\n      dup2\n        /* \"#utility.yul\":1645:1669   */\n      tag_311\n      jump\t// in\n    tag_395:\n        /* \"#utility.yul\":1638:1643   */\n      dup2\n        /* \"#utility.yul\":1635:1670   */\n      eq\n        /* \"#utility.yul\":1625:1688   */\n      tag_396\n      jumpi\n        /* \"#utility.yul\":1684:1685   */\n      0x00\n        /* \"#utility.yul\":1681:1682   */\n      0x00\n        /* \"#utility.yul\":1674:1686   */\n      revert\n        /* \"#utility.yul\":1625:1688   */\n    tag_396:\n        /* \"#utility.yul\":1572:1694   */\n      pop\n      jump\t// out\n        /* \"#utility.yul\":1700:1839   */\n    tag_313:\n        /* \"#utility.yul\":1746:1751   */\n      0x00\n        /* \"#utility.yul\":1784:1790   */\n      dup2\n        /* \"#utility.yul\":1771:1791   */\n      calldataload\n        /* \"#utility.yul\":1762:1791   */\n      swap1\n      pop\n        /* \"#utility.yul\":1800:1833   */\n      tag_398\n        /* \"#utility.yul\":1827:1832   */\n      dup2\n        /* \"#utility.yul\":1800:1833   */\n      tag_312\n      jump\t// in\n    tag_398:\n        /* \"#utility.yul\":1700:1839   */\n      swap3\n      swap2\n      pop\n      pop\n      jump\t// out\n        /* \"#utility.yul\":1845:2174   */\n    tag_28:\n        /* \"#utility.yul\":1904:1910   */\n      0x00\n        /* \"#utility.yul\":1953:1955   */\n      0x20\n        /* \"#utility.yul\":1941:1950   */\n      dup3\n        /* \"#utility.yul\":1932:1939   */\n      dup5\n        /* \"#utility.yul\":1928:1951   */\n      sub\n        /* \"#utility.yul\":1924:1956   */\n      slt\n        /* \"#utility.yul\":1921:2040   */\n      iszero\n      tag_400\n      jumpi\n        /* \"#utility.yul\":1959:2038   */\n      tag_401\n      tag_309\n      jump\t// in\n    tag_401:\n        /* \"#utility.yul\":1921:2040   */\n    tag_400:\n        /* \"#utility.yul\":2079:2080   */\n      0x00\n        /* \"#utility.yul\":2104:2157   */\n      tag_402\n        /* \"#utility.yul\":2149:2156   */\n      dup5\n        /* \"#utility.yul\":2140:2146   */\n      dup3\n        /* \"#utility.yul\":2129:2138   */\n      dup6\n        /* \"#utility.yul\":2125:2147   */\n      add\n        /* \"#utility.yul\":2104:2157   */\n      tag_313\n      jump\t// in\n    tag_402:\n        /* \"#utility.yul\":2094:2157   */\n      swap2\n      pop\n        /* \"#utility.yul\":2050:2167   */\n      pop\n        /* \"#utility.yul\":1845:2174   */\n      swap3\n      swap2\n      pop\n      pop\n      jump\t// out\n        /* \"#utility.yul\":2180:2298   */\n    tag_314:\n        /* \"#utility.yul\":2267:2291   */\n      tag_404\n        /* \"#utility.yul\":2285:2290   */\n      dup2\n        /* \"#utility.yul\":2267:2291   */\n      tag_311\n      jump\t// in\n    tag_404:\n        /* \"#utility.yul\":2262:2265   */\n      dup3\n        /* \"#utility.yul\":2255:2292   */\n      mstore\n        /* \"#utility.yul\":2180:2298   */\n      pop\n      pop\n      jump\t// out\n        /* \"#utility.yul\":2304:2430   */\n    tag_315:\n        /* \"#utility.yul\":2341:2348   */\n      0x00\n        /* \"#utility.yul\":2381:2423   */\n      0xffffffffffffffffffffffffffffffffffffffff\n        /* \"#utility.yul\":2374:2379   */\n      dup3\n        /* \"#utility.yul\":2370:2424   */\n      and\n        /* \"#utility.yul\":2359:2424   */\n      swap1\n      pop\n        /* \"#utility.yul\":2304:2430   */\n      swap2\n      swap1\n      pop\n      jump\t// out\n        /* \"#utility.yul\":2436:2540   */\n    tag_316:\n        /* \"#utility.yul\":2481:2488   */\n      0x00\n        /* \"#utility.yul\":2510:2534   */\n      tag_407\n        /* \"#utility.yul\":2528:2533   */\n      dup3\n        /* \"#utility.yul\":2510:2534   */\n      tag_315\n      jump\t// in\n    tag_407:\n        /* \"#utility.yul\":2499:2534   */\n      swap1\n      pop\n        /* \"#utility.yul\":2436:2540   */\n      swap2\n      swap1\n      pop\n      jump\t// out\n        /* \"#utility.yul\":2546:2688   */\n    tag_317:\n        /* \"#utility.yul\":2649:2681   */\n      tag_409\n        /* \"#utility.yul\":2675:2680   */\n      dup2\n        /* \"#utility.yul\":2649:2681   */\n      tag_316\n      jump\t// in\n    tag_409:\n        /* \"#utility.yul\":2644:2647   */\n      dup3\n        /* \"#utility.yul\":2637:2682   */\n      mstore\n        /* \"#utility.yul\":2546:2688   */\n      pop\n      pop\n      jump\t// out\n        /* \"#utility.yul\":2694:2874   */\n    tag_107:\n        /* \"#utility.yul\":2742:2819   */\n      0x4e487b7100000000000000000000000000000000000000000000000000000000\n        /* \"#utility.yul\":2739:2740   */\n      0x00\n        /* \"#utility.yul\":2732:2820   */\n      mstore\n        /* \"#utility.yul\":2839:2843   */\n      0x21\n        /* \"#utility.yul\":2836:2837   */\n      0x04\n        /* \"#utility.yul\":2829:2844   */\n      mstore\n        /* \"#utility.yul\":2863:2867   */\n      0x24\n        /* \"#utility.yul\":2860:2861   */\n      0x00\n        /* \"#utility.yul\":2853:2868   */\n      revert\n        /* \"#utility.yul\":2880:3000   */\n    tag_318:\n        /* \"#utility.yul\":2968:2969   */\n      0x05\n        /* \"#utility.yul\":2961:2966   */\n      dup2\n        /* \"#utility.yul\":2958:2970   */\n      lt\n        /* \"#utility.yul\":2948:2994   */\n      tag_412\n      jumpi\n        /* \"#utility.yul\":2974:2992   */\n      tag_413\n      tag_107\n      jump\t// in\n    tag_413:\n        /* \"#utility.yul\":2948:2994   */\n    tag_412:\n        /* \"#utility.yul\":2880:3000   */\n      pop\n      jump\t// out\n        /* \"#utility.yul\":3006:3147   */\n    tag_319:\n        /* \"#utility.yul\":3058:3065   */\n      0x00\n        /* \"#utility.yul\":3087:3092   */\n      dup2\n        /* \"#utility.yul\":3076:3092   */\n      swap1\n      pop\n        /* \"#utility.yul\":3093:3141   */\n      tag_415\n        /* \"#utility.yul\":3135:3140   */\n      dup3\n        /* \"#utility.yul\":3093:3141   */\n      tag_318\n      jump\t// in\n    tag_415:\n        /* \"#utility.yul\":3006:3147   */\n      swap2\n      swap1\n      pop\n      jump\t// out\n        /* \"#utility.yul\":3153:3294   */\n    tag_320:\n        /* \"#utility.yul\":3216:3225   */\n      0x00\n        /* \"#utility.yul\":3249:3288   */\n      tag_417\n        /* \"#utility.yul\":3282:3287   */\n      dup3\n        /* \"#utility.yul\":3249:3288   */\n      tag_319\n      jump\t// in\n    tag_417:\n        /* \"#utility.yul\":3236:3288   */\n      swap1\n      pop\n        /* \"#utility.yul\":3153:3294   */\n      swap2\n      swap1\n      pop\n      jump\t// out\n        /* \"#utility.yul\":3300:3457   */\n    tag_321:\n        /* \"#utility.yul\":3400:3450   */\n      tag_419\n        /* \"#utility.yul\":3444:3449   */\n      dup2\n        /* \"#utility.yul\":3400:3450   */\n      tag_320\n      jump\t// in\n    tag_419:\n        /* \"#utility.yul\":3395:3398   */\n      dup3\n        /* \"#utility.yul\":3388:3451   */\n      mstore\n        /* \"#utility.yul\":3300:3457   */\n      pop\n      pop\n      jump\t// out\n        /* \"#utility.yul\":3463:3553   */\n    tag_322:\n        /* \"#utility.yul\":3497:3504   */\n      0x00\n        /* \"#utility.yul\":3540:3545   */\n      dup2\n        /* \"#utility.yul\":3533:3546   */\n      iszero\n        /* \"#utility.yul\":3526:3547   */\n      iszero\n        /* \"#utility.yul\":3515:3547   */\n      swap1\n      pop\n        /* \"#utility.yul\":3463:3553   */\n      swap2\n      swap1\n      pop\n      jump\t// out\n        /* \"#utility.yul\":3559:3668   */\n    tag_323:\n        /* \"#utility.yul\":3640:3661   */\n      tag_422\n        /* \"#utility.yul\":3655:3660   */\n      dup2\n        /* \"#utility.yul\":3640:3661   */\n      tag_322\n      jump\t// in\n    tag_422:\n        /* \"#utility.yul\":3635:3638   */\n      dup3\n        /* \"#utility.yul\":3628:3662   */\n      mstore\n        /* \"#utility.yul\":3559:3668   */\n      pop\n      pop\n      jump\t// out\n        /* \"#utility.yul\":3674:4527   */\n    tag_31:\n        /* \"#utility.yul\":3946:3950   */\n      0x00\n        /* \"#utility.yul\":3984:3987   */\n      0xc0\n        /* \"#utility.yul\":3973:3982   */\n      dup3\n        /* \"#utility.yul\":3969:3988   */\n      add\n        /* \"#utility.yul\":3961:3988   */\n      swap1\n      pop\n        /* \"#utility.yul\":3998:4069   */\n      tag_424\n        /* \"#utility.yul\":4066:4067   */\n      0x00\n        /* \"#utility.yul\":4055:4064   */\n      dup4\n        /* \"#utility.yul\":4051:4068   */\n      add\n        /* \"#utility.yul\":4042:4048   */\n      dup10\n        /* \"#utility.yul\":3998:4069   */\n      tag_314\n      jump\t// in\n    tag_424:\n        /* \"#utility.yul\":4079:4167   */\n      tag_425\n        /* \"#utility.yul\":4163:4165   */\n      0x20\n        /* \"#utility.yul\":4152:4161   */\n      dup4\n        /* \"#utility.yul\":4148:4166   */\n      add\n        /* \"#utility.yul\":4139:4145   */\n      dup9\n        /* \"#utility.yul\":4079:4167   */\n      tag_317\n      jump\t// in\n    tag_425:\n        /* \"#utility.yul\":4177:4265   */\n      tag_426\n        /* \"#utility.yul\":4261:4263   */\n      0x40\n        /* \"#utility.yul\":4250:4259   */\n      dup4\n        /* \"#utility.yul\":4246:4264   */\n      add\n        /* \"#utility.yul\":4237:4243   */\n      dup8\n        /* \"#utility.yul\":4177:4265   */\n      tag_317\n      jump\t// in\n    tag_426:\n        /* \"#utility.yul\":4275:4347   */\n      tag_427\n        /* \"#utility.yul\":4343:4345   */\n      0x60\n        /* \"#utility.yul\":4332:4341   */\n      dup4\n        /* \"#utility.yul\":4328:4346   */\n      add\n        /* \"#utility.yul\":4319:4325   */\n      dup7\n        /* \"#utility.yul\":4275:4347   */\n      tag_314\n      jump\t// in\n    tag_427:\n        /* \"#utility.yul\":4357:4443   */\n      tag_428\n        /* \"#utility.yul\":4438:4441   */\n      0x80\n        /* \"#utility.yul\":4427:4436   */\n      dup4\n        /* \"#utility.yul\":4423:4442   */\n      add\n        /* \"#utility.yul\":4414:4420   */\n      dup6\n        /* \"#utility.yul\":4357:4443   */\n      tag_321\n      jump\t// in\n    tag_428:\n        /* \"#utility.yul\":4453:4520   */\n      tag_429\n        /* \"#utility.yul\":4515:4518   */\n      0xa0\n        /* \"#utility.yul\":4504:4513   */\n      dup4\n        /* \"#utility.yul\":4500:4519   */\n      add\n        /* \"#utility.yul\":4491:4497   */\n      dup5\n        /* \"#utility.yul\":4453:4520   */\n      tag_323\n      jump\t// in\n    tag_429:\n        /* \"#utility.yul\":3674:4527   */\n      swap8\n      swap7\n      pop\n      pop\n      pop\n      pop\n      pop\n      pop\n      pop\n      jump\t// out\n        /* \"#utility.yul\":4533:4649   */\n    tag_324:\n        /* \"#utility.yul\":4603:4624   */\n      tag_431\n        /* \"#utility.yul\":4618:4623   */\n      dup2\n        /* \"#utility.yul\":4603:4624   */\n      tag_322\n      jump\t// in\n    tag_431:\n        /* \"#utility.yul\":4596:4601   */\n      dup2\n        /* \"#utility.yul\":4593:4625   */\n      eq\n        /* \"#utility.yul\":4583:4643   */\n      tag_432\n      jumpi\n        /* \"#utility.yul\":4639:4640   */\n      0x00\n        /* \"#utility.yul\":4636:4637   */\n      0x00\n        /* \"#utility.yul\":4629:4641   */\n      revert\n        /* \"#utility.yul\":4583:4643   */\n    tag_432:\n        /* \"#utility.yul\":4533:4649   */\n      pop\n      jump\t// out\n        /* \"#utility.yul\":4655:4788   */\n    tag_325:\n        /* \"#utility.yul\":4698:4703   */\n      0x00\n        /* \"#utility.yul\":4736:4742   */\n      dup2\n        /* \"#utility.yul\":4723:4743   */\n      calldataload\n        /* \"#utility.yul\":4714:4743   */\n      swap1\n      pop\n        /* \"#utility.yul\":4752:4782   */\n      tag_434\n        /* \"#utility.yul\":4776:4781   */\n      dup2\n        /* \"#utility.yul\":4752:4782   */\n      tag_324\n      jump\t// in\n    tag_434:\n        /* \"#utility.yul\":4655:4788   */\n      swap3\n      swap2\n      pop\n      pop\n      jump\t// out\n        /* \"#utility.yul\":4794:5262   */\n    tag_35:\n        /* \"#utility.yul\":4859:4865   */\n      0x00\n        /* \"#utility.yul\":4867:4873   */\n      0x00\n        /* \"#utility.yul\":4916:4918   */\n      0x40\n        /* \"#utility.yul\":4904:4913   */\n      dup4\n        /* \"#utility.yul\":4895:4902   */\n      dup6\n        /* \"#utility.yul\":4891:4914   */\n      sub\n        /* \"#utility.yul\":4887:4919   */\n      slt\n        /* \"#utility.yul\":4884:5003   */\n      iszero\n      tag_436\n      jumpi\n        /* \"#utility.yul\":4922:5001   */\n      tag_437\n      tag_309\n      jump\t// in\n    tag_437:\n        /* \"#utility.yul\":4884:5003   */\n    tag_436:\n        /* \"#utility.yul\":5042:5043   */\n      0x00\n        /* \"#utility.yul\":5067:5120   */\n      tag_438\n        /* \"#utility.yul\":5112:5119   */\n      dup6\n        /* \"#utility.yul\":5103:5109   */\n      dup3\n        /* \"#utility.yul\":5092:5101   */\n      dup7\n        /* \"#utility.yul\":5088:5110   */\n      add\n        /* \"#utility.yul\":5067:5120   */\n      tag_313\n      jump\t// in\n    tag_438:\n        /* \"#utility.yul\":5057:5120   */\n      swap3\n      pop\n        /* \"#utility.yul\":5013:5130   */\n      pop\n        /* \"#utility.yul\":5169:5171   */\n      0x20\n        /* \"#utility.yul\":5195:5245   */\n      tag_439\n        /* \"#utility.yul\":5237:5244   */\n      dup6\n        /* \"#utility.yul\":5228:5234   */\n      dup3\n        /* \"#utility.yul\":5217:5226   */\n      dup7\n        /* \"#utility.yul\":5213:5235   */\n      add\n        /* \"#utility.yul\":5195:5245   */\n      tag_325\n      jump\t// in\n    tag_439:\n        /* \"#utility.yul\":5185:5245   */\n      swap2\n      pop\n        /* \"#utility.yul\":5140:5255   */\n      pop\n        /* \"#utility.yul\":4794:5262   */\n      swap3\n      pop\n      swap3\n      swap1\n      pop\n      jump\t// out\n        /* \"#utility.yul\":5268:5375   */\n    tag_326:\n        /* \"#utility.yul\":5349:5350   */\n      0x04\n        /* \"#utility.yul\":5342:5347   */\n      dup2\n        /* \"#utility.yul\":5339:5351   */\n      lt\n        /* \"#utility.yul\":5329:5369   */\n      tag_441\n      jumpi\n        /* \"#utility.yul\":5365:5366   */\n      0x00\n        /* \"#utility.yul\":5362:5363   */\n      0x00\n        /* \"#utility.yul\":5355:5367   */\n      revert\n        /* \"#utility.yul\":5329:5369   */\n    tag_441:\n        /* \"#utility.yul\":5268:5375   */\n      pop\n      jump\t// out\n        /* \"#utility.yul\":5381:5536   */\n    tag_327:\n        /* \"#utility.yul\":5435:5440   */\n      0x00\n        /* \"#utility.yul\":5473:5479   */\n      dup2\n        /* \"#utility.yul\":5460:5480   */\n      calldataload\n        /* \"#utility.yul\":5451:5480   */\n      swap1\n      pop\n        /* \"#utility.yul\":5489:5530   */\n      tag_443\n        /* \"#utility.yul\":5524:5529   */\n      dup2\n        /* \"#utility.yul\":5489:5530   */\n      tag_326\n      jump\t// in\n    tag_443:\n        /* \"#utility.yul\":5381:5536   */\n      swap3\n      swap2\n      pop\n      pop\n      jump\t// out\n        /* \"#utility.yul\":5542:5887   */\n    tag_40:\n        /* \"#utility.yul\":5609:5615   */\n      0x00\n        /* \"#utility.yul\":5658:5660   */\n      0x20\n        /* \"#utility.yul\":5646:5655   */\n      dup3\n        /* \"#utility.yul\":5637:5644   */\n      dup5\n        /* \"#utility.yul\":5633:5656   */\n      sub\n        /* \"#utility.yul\":5629:5661   */\n      slt\n        /* \"#utility.yul\":5626:5745   */\n      iszero\n      tag_445\n      jumpi\n        /* \"#utility.yul\":5664:5743   */\n      tag_446\n      tag_309\n      jump\t// in\n    tag_446:\n        /* \"#utility.yul\":5626:5745   */\n    tag_445:\n        /* \"#utility.yul\":5784:5785   */\n      0x00\n        /* \"#utility.yul\":5809:5870   */\n      tag_447\n        /* \"#utility.yul\":5862:5869   */\n      dup5\n        /* \"#utility.yul\":5853:5859   */\n      dup3\n        /* \"#utility.yul\":5842:5851   */\n      dup6\n        /* \"#utility.yul\":5838:5860   */\n      add\n        /* \"#utility.yul\":5809:5870   */\n      tag_327\n      jump\t// in\n    tag_447:\n        /* \"#utility.yul\":5799:5870   */\n      swap2\n      pop\n        /* \"#utility.yul\":5755:5880   */\n      pop\n        /* \"#utility.yul\":5542:5887   */\n      swap3\n      swap2\n      pop\n      pop\n      jump\t// out\n        /* \"#utility.yul\":5893:6001   */\n    tag_328:\n        /* \"#utility.yul\":5970:5994   */\n      tag_449\n        /* \"#utility.yul\":5988:5993   */\n      dup2\n        /* \"#utility.yul\":5970:5994   */\n      tag_311\n      jump\t// in\n    tag_449:\n        /* \"#utility.yul\":5965:5968   */\n      dup3\n        /* \"#utility.yul\":5958:5995   */\n      mstore\n        /* \"#utility.yul\":5893:6001   */\n      pop\n      pop\n      jump\t// out\n        /* \"#utility.yul\":6007:6139   */\n    tag_329:\n        /* \"#utility.yul\":6100:6132   */\n      tag_451\n        /* \"#utility.yul\":6126:6131   */\n      dup2\n        /* \"#utility.yul\":6100:6132   */\n      tag_316\n      jump\t// in\n    tag_451:\n        /* \"#utility.yul\":6095:6098   */\n      dup3\n        /* \"#utility.yul\":6088:6133   */\n      mstore\n        /* \"#utility.yul\":6007:6139   */\n      pop\n      pop\n      jump\t// out\n        /* \"#utility.yul\":6145:6292   */\n    tag_330:\n        /* \"#utility.yul\":6235:6285   */\n      tag_453\n        /* \"#utility.yul\":6279:6284   */\n      dup2\n        /* \"#utility.yul\":6235:6285   */\n      tag_320\n      jump\t// in\n    tag_453:\n        /* \"#utility.yul\":6230:6233   */\n      dup3\n        /* \"#utility.yul\":6223:6286   */\n      mstore\n        /* \"#utility.yul\":6145:6292   */\n      pop\n      pop\n      jump\t// out\n        /* \"#utility.yul\":6298:6397   */\n    tag_331:\n        /* \"#utility.yul\":6369:6390   */\n      tag_455\n        /* \"#utility.yul\":6384:6389   */\n      dup2\n        /* \"#utility.yul\":6369:6390   */\n      tag_322\n      jump\t// in\n    tag_455:\n        /* \"#utility.yul\":6364:6367   */\n      dup3\n        /* \"#utility.yul\":6357:6391   */\n      mstore\n        /* \"#utility.yul\":6298:6397   */\n      pop\n      pop\n      jump\t// out\n        /* \"#utility.yul\":6481:7725   */\n    tag_332:\n        /* \"#utility.yul\":6624:6628   */\n      0xc0\n        /* \"#utility.yul\":6619:6622   */\n      dup3\n        /* \"#utility.yul\":6615:6629   */\n      add\n        /* \"#utility.yul\":6709:6713   */\n      0x00\n        /* \"#utility.yul\":6702:6707   */\n      dup3\n        /* \"#utility.yul\":6698:6714   */\n      add\n        /* \"#utility.yul\":6692:6715   */\n      mload\n        /* \"#utility.yul\":6728:6791   */\n      tag_457\n        /* \"#utility.yul\":6785:6789   */\n      0x00\n        /* \"#utility.yul\":6780:6783   */\n      dup6\n        /* \"#utility.yul\":6776:6790   */\n      add\n        /* \"#utility.yul\":6762:6774   */\n      dup3\n        /* \"#utility.yul\":6728:6791   */\n      tag_328\n      jump\t// in\n    tag_457:\n        /* \"#utility.yul\":6639:6801   */\n      pop\n        /* \"#utility.yul\":6884:6888   */\n      0x20\n        /* \"#utility.yul\":6877:6882   */\n      dup3\n        /* \"#utility.yul\":6873:6889   */\n      add\n        /* \"#utility.yul\":6867:6890   */\n      mload\n        /* \"#utility.yul\":6903:6982   */\n      tag_458\n        /* \"#utility.yul\":6976:6980   */\n      0x20\n        /* \"#utility.yul\":6971:6974   */\n      dup6\n        /* \"#utility.yul\":6967:6981   */\n      add\n        /* \"#utility.yul\":6953:6965   */\n      dup3\n        /* \"#utility.yul\":6903:6982   */\n      tag_329\n      jump\t// in\n    tag_458:\n        /* \"#utility.yul\":6811:6992   */\n      pop\n        /* \"#utility.yul\":7076:7080   */\n      0x40\n        /* \"#utility.yul\":7069:7074   */\n      dup3\n        /* \"#utility.yul\":7065:7081   */\n      add\n        /* \"#utility.yul\":7059:7082   */\n      mload\n        /* \"#utility.yul\":7095:7174   */\n      tag_459\n        /* \"#utility.yul\":7168:7172   */\n      0x40\n        /* \"#utility.yul\":7163:7166   */\n      dup6\n        /* \"#utility.yul\":7159:7173   */\n      add\n        /* \"#utility.yul\":7145:7157   */\n      dup3\n        /* \"#utility.yul\":7095:7174   */\n      tag_329\n      jump\t// in\n    tag_459:\n        /* \"#utility.yul\":7002:7184   */\n      pop\n        /* \"#utility.yul\":7268:7272   */\n      0x60\n        /* \"#utility.yul\":7261:7266   */\n      dup3\n        /* \"#utility.yul\":7257:7273   */\n      add\n        /* \"#utility.yul\":7251:7274   */\n      mload\n        /* \"#utility.yul\":7287:7350   */\n      tag_460\n        /* \"#utility.yul\":7344:7348   */\n      0x60\n        /* \"#utility.yul\":7339:7342   */\n      dup6\n        /* \"#utility.yul\":7335:7349   */\n      add\n        /* \"#utility.yul\":7321:7333   */\n      dup3\n        /* \"#utility.yul\":7287:7350   */\n      tag_328\n      jump\t// in\n    tag_460:\n        /* \"#utility.yul\":7194:7360   */\n      pop\n        /* \"#utility.yul\":7443:7447   */\n      0x80\n        /* \"#utility.yul\":7436:7441   */\n      dup3\n        /* \"#utility.yul\":7432:7448   */\n      add\n        /* \"#utility.yul\":7426:7449   */\n      mload\n        /* \"#utility.yul\":7462:7538   */\n      tag_461\n        /* \"#utility.yul\":7532:7536   */\n      0x80\n        /* \"#utility.yul\":7527:7530   */\n      dup6\n        /* \"#utility.yul\":7523:7537   */\n      add\n        /* \"#utility.yul\":7509:7521   */\n      dup3\n        /* \"#utility.yul\":7462:7538   */\n      tag_330\n      jump\t// in\n    tag_461:\n        /* \"#utility.yul\":7370:7548   */\n      pop\n        /* \"#utility.yul\":7632:7636   */\n      0xa0\n        /* \"#utility.yul\":7625:7630   */\n      dup3\n        /* \"#utility.yul\":7621:7637   */\n      add\n        /* \"#utility.yul\":7615:7638   */\n      mload\n        /* \"#utility.yul\":7651:7708   */\n      tag_462\n        /* \"#utility.yul\":7702:7706   */\n      0xa0\n        /* \"#utility.yul\":7697:7700   */\n      dup6\n        /* \"#utility.yul\":7693:7707   */\n      add\n        /* \"#utility.yul\":7679:7691   */\n      dup3\n        /* \"#utility.yul\":7651:7708   */\n      tag_331\n      jump\t// in\n    tag_462:\n        /* \"#utility.yul\":7558:7718   */\n      pop\n        /* \"#utility.yul\":6593:7725   */\n      pop\n        /* \"#utility.yul\":6481:7725   */\n      pop\n      pop\n      jump\t// out\n        /* \"#utility.yul\":7731:8046   */\n    tag_50:\n        /* \"#utility.yul\":7870:7874   */\n      0x00\n        /* \"#utility.yul\":7908:7911   */\n      0xc0\n        /* \"#utility.yul\":7897:7906   */\n      dup3\n        /* \"#utility.yul\":7893:7912   */\n      add\n        /* \"#utility.yul\":7885:7912   */\n      swap1\n      pop\n        /* \"#utility.yul\":7922:8039   */\n      tag_464\n        /* \"#utility.yul\":8036:8037   */\n      0x00\n        /* \"#utility.yul\":8025:8034   */\n      dup4\n        /* \"#utility.yul\":8021:8038   */\n      add\n        /* \"#utility.yul\":8012:8018   */\n      dup5\n        /* \"#utility.yul\":7922:8039   */\n      tag_332\n      jump\t// in\n    tag_464:\n        /* \"#utility.yul\":7731:8046   */\n      swap3\n      swap2\n      pop\n      pop\n      jump\t// out\n        /* \"#utility.yul\":8052:8148   */\n    tag_333:\n        /* \"#utility.yul\":8089:8096   */\n      0x00\n        /* \"#utility.yul\":8118:8142   */\n      tag_466\n        /* \"#utility.yul\":8136:8141   */\n      dup3\n        /* \"#utility.yul\":8118:8142   */\n      tag_315\n      jump\t// in\n    tag_466:\n        /* \"#utility.yul\":8107:8142   */\n      swap1\n      pop\n        /* \"#utility.yul\":8052:8148   */\n      swap2\n      swap1\n      pop\n      jump\t// out\n        /* \"#utility.yul\":8154:8272   */\n    tag_334:\n        /* \"#utility.yul\":8241:8265   */\n      tag_468\n        /* \"#utility.yul\":8259:8264   */\n      dup2\n        /* \"#utility.yul\":8241:8265   */\n      tag_333\n      jump\t// in\n    tag_468:\n        /* \"#utility.yul\":8236:8239   */\n      dup3\n        /* \"#utility.yul\":8229:8266   */\n      mstore\n        /* \"#utility.yul\":8154:8272   */\n      pop\n      pop\n      jump\t// out\n        /* \"#utility.yul\":8278:8500   */\n    tag_55:\n        /* \"#utility.yul\":8371:8375   */\n      0x00\n        /* \"#utility.yul\":8409:8411   */\n      0x20\n        /* \"#utility.yul\":8398:8407   */\n      dup3\n        /* \"#utility.yul\":8394:8412   */\n      add\n        /* \"#utility.yul\":8386:8412   */\n      swap1\n      pop\n        /* \"#utility.yul\":8422:8493   */\n      tag_470\n        /* \"#utility.yul\":8490:8491   */\n      0x00\n        /* \"#utility.yul\":8479:8488   */\n      dup4\n        /* \"#utility.yul\":8475:8492   */\n      add\n        /* \"#utility.yul\":8466:8472   */\n      dup5\n        /* \"#utility.yul\":8422:8493   */\n      tag_334\n      jump\t// in\n    tag_470:\n        /* \"#utility.yul\":8278:8500   */\n      swap3\n      swap2\n      pop\n      pop\n      jump\t// out\n        /* \"#utility.yul\":8506:8628   */\n    tag_335:\n        /* \"#utility.yul\":8579:8603   */\n      tag_472\n        /* \"#utility.yul\":8597:8602   */\n      dup2\n        /* \"#utility.yul\":8579:8603   */\n      tag_333\n      jump\t// in\n    tag_472:\n        /* \"#utility.yul\":8572:8577   */\n      dup2\n        /* \"#utility.yul\":8569:8604   */\n      eq\n        /* \"#utility.yul\":8559:8622   */\n      tag_473\n      jumpi\n        /* \"#utility.yul\":8618:8619   */\n      0x00\n        /* \"#utility.yul\":8615:8616   */\n      0x00\n        /* \"#utility.yul\":8608:8620   */\n      revert\n        /* \"#utility.yul\":8559:8622   */\n    tag_473:\n        /* \"#utility.yul\":8506:8628   */\n      pop\n      jump\t// out\n        /* \"#utility.yul\":8634:8773   */\n    tag_336:\n        /* \"#utility.yul\":8680:8685   */\n      0x00\n        /* \"#utility.yul\":8718:8724   */\n      dup2\n        /* \"#utility.yul\":8705:8725   */\n      calldataload\n        /* \"#utility.yul\":8696:8725   */\n      swap1\n      pop\n        /* \"#utility.yul\":8734:8767   */\n      tag_475\n        /* \"#utility.yul\":8761:8766   */\n      dup2\n        /* \"#utility.yul\":8734:8767   */\n      tag_335\n      jump\t// in\n    tag_475:\n        /* \"#utility.yul\":8634:8773   */\n      swap3\n      swap2\n      pop\n      pop\n      jump\t// out\n        /* \"#utility.yul\":8779:9108   */\n    tag_59:\n        /* \"#utility.yul\":8838:8844   */\n      0x00\n        /* \"#utility.yul\":8887:8889   */\n      0x20\n        /* \"#utility.yul\":8875:8884   */\n      dup3\n        /* \"#utility.yul\":8866:8873   */\n      dup5\n        /* \"#utility.yul\":8862:8885   */\n      sub\n        /* \"#utility.yul\":8858:8890   */\n      slt\n        /* \"#utility.yul\":8855:8974   */\n      iszero\n      tag_477\n      jumpi\n        /* \"#utility.yul\":8893:8972   */\n      tag_478\n      tag_309\n      jump\t// in\n    tag_478:\n        /* \"#utility.yul\":8855:8974   */\n    tag_477:\n        /* \"#utility.yul\":9013:9014   */\n      0x00\n        /* \"#utility.yul\":9038:9091   */\n      tag_479\n        /* \"#utility.yul\":9083:9090   */\n      dup5\n        /* \"#utility.yul\":9074:9080   */\n      dup3\n        /* \"#utility.yul\":9063:9072   */\n      dup6\n        /* \"#utility.yul\":9059:9081   */\n      add\n        /* \"#utility.yul\":9038:9091   */\n      tag_336\n      jump\t// in\n    tag_479:\n        /* \"#utility.yul\":9028:9091   */\n      swap2\n      pop\n        /* \"#utility.yul\":8984:9101   */\n      pop\n        /* \"#utility.yul\":8779:9108   */\n      swap3\n      swap2\n      pop\n      pop\n      jump\t// out\n        /* \"#utility.yul\":9114:9227   */\n    tag_337:\n        /* \"#utility.yul\":9195:9196   */\n      0x04\n        /* \"#utility.yul\":9188:9193   */\n      dup2\n        /* \"#utility.yul\":9185:9197   */\n      lt\n        /* \"#utility.yul\":9175:9221   */\n      tag_481\n      jumpi\n        /* \"#utility.yul\":9201:9219   */\n      tag_482\n      tag_107\n      jump\t// in\n    tag_482:\n        /* \"#utility.yul\":9175:9221   */\n    tag_481:\n        /* \"#utility.yul\":9114:9227   */\n      pop\n      jump\t// out\n        /* \"#utility.yul\":9233:9360   */\n    tag_338:\n        /* \"#utility.yul\":9278:9285   */\n      0x00\n        /* \"#utility.yul\":9307:9312   */\n      dup2\n        /* \"#utility.yul\":9296:9312   */\n      swap1\n      pop\n        /* \"#utility.yul\":9313:9354   */\n      tag_484\n        /* \"#utility.yul\":9348:9353   */\n      dup3\n        /* \"#utility.yul\":9313:9354   */\n      tag_337\n      jump\t// in\n    tag_484:\n        /* \"#utility.yul\":9233:9360   */\n      swap2\n      swap1\n      pop\n      jump\t// out\n        /* \"#utility.yul\":9366:9493   */\n    tag_339:\n        /* \"#utility.yul\":9422:9431   */\n      0x00\n        /* \"#utility.yul\":9455:9487   */\n      tag_486\n        /* \"#utility.yul\":9481:9486   */\n      dup3\n        /* \"#utility.yul\":9455:9487   */\n      tag_338\n      jump\t// in\n    tag_486:\n        /* \"#utility.yul\":9442:9487   */\n      swap1\n      pop\n        /* \"#utility.yul\":9366:9493   */\n      swap2\n      swap1\n      pop\n      jump\t// out\n        /* \"#utility.yul\":9499:9642   */\n    tag_340:\n        /* \"#utility.yul\":9592:9635   */\n      tag_488\n        /* \"#utility.yul\":9629:9634   */\n      dup2\n        /* \"#utility.yul\":9592:9635   */\n      tag_339\n      jump\t// in\n    tag_488:\n        /* \"#utility.yul\":9587:9590   */\n      dup3\n        /* \"#utility.yul\":9580:9636   */\n      mstore\n        /* \"#utility.yul\":9499:9642   */\n      pop\n      pop\n      jump\t// out\n        /* \"#utility.yul\":9648:10090   */\n    tag_62:\n        /* \"#utility.yul\":9797:9801   */\n      0x00\n        /* \"#utility.yul\":9835:9837   */\n      0x60\n        /* \"#utility.yul\":9824:9833   */\n      dup3\n        /* \"#utility.yul\":9820:9838   */\n      add\n        /* \"#utility.yul\":9812:9838   */\n      swap1\n      pop\n        /* \"#utility.yul\":9848:9925   */\n      tag_490\n        /* \"#utility.yul\":9922:9923   */\n      0x00\n        /* \"#utility.yul\":9911:9920   */\n      dup4\n        /* \"#utility.yul\":9907:9924   */\n      add\n        /* \"#utility.yul\":9898:9904   */\n      dup7\n        /* \"#utility.yul\":9848:9925   */\n      tag_340\n      jump\t// in\n    tag_490:\n        /* \"#utility.yul\":9935:10001   */\n      tag_491\n        /* \"#utility.yul\":9997:9999   */\n      0x20\n        /* \"#utility.yul\":9986:9995   */\n      dup4\n        /* \"#utility.yul\":9982:10000   */\n      add\n        /* \"#utility.yul\":9973:9979   */\n      dup6\n        /* \"#utility.yul\":9935:10001   */\n      tag_323\n      jump\t// in\n    tag_491:\n        /* \"#utility.yul\":10011:10083   */\n      tag_492\n        /* \"#utility.yul\":10079:10081   */\n      0x40\n        /* \"#utility.yul\":10068:10077   */\n      dup4\n        /* \"#utility.yul\":10064:10082   */\n      add\n        /* \"#utility.yul\":10055:10061   */\n      dup5\n        /* \"#utility.yul\":10011:10083   */\n      tag_314\n      jump\t// in\n    tag_492:\n        /* \"#utility.yul\":9648:10090   */\n      swap5\n      swap4\n      pop\n      pop\n      pop\n      pop\n      jump\t// out\n        /* \"#utility.yul\":10096:10318   */\n    tag_78:\n        /* \"#utility.yul\":10189:10193   */\n      0x00\n        /* \"#utility.yul\":10227:10229   */\n      0x20\n        /* \"#utility.yul\":10216:10225   */\n      dup3\n        /* \"#utility.yul\":10212:10230   */\n      add\n        /* \"#utility.yul\":10204:10230   */\n      swap1\n      pop\n        /* \"#utility.yul\":10240:10311   */\n      tag_494\n        /* \"#utility.yul\":10308:10309   */\n      0x00\n        /* \"#utility.yul\":10297:10306   */\n      dup4\n        /* \"#utility.yul\":10293:10310   */\n      add\n        /* \"#utility.yul\":10284:10290   */\n      dup5\n        /* \"#utility.yul\":10240:10311   */\n      tag_314\n      jump\t// in\n    tag_494:\n        /* \"#utility.yul\":10096:10318   */\n      swap3\n      swap2\n      pop\n      pop\n      jump\t// out\n        /* \"#utility.yul\":10324:10462   */\n    tag_341:\n        /* \"#utility.yul\":10405:10437   */\n      tag_496\n        /* \"#utility.yul\":10431:10436   */\n      dup2\n        /* \"#utility.yul\":10405:10437   */\n      tag_316\n      jump\t// in\n    tag_496:\n        /* \"#utility.yul\":10398:10403   */\n      dup2\n        /* \"#utility.yul\":10395:10438   */\n      eq\n        /* \"#utility.yul\":10385:10456   */\n      tag_497\n      jumpi\n        /* \"#utility.yul\":10452:10453   */\n      0x00\n        /* \"#utility.yul\":10449:10450   */\n      0x00\n        /* \"#utility.yul\":10442:10454   */\n      revert\n        /* \"#utility.yul\":10385:10456   */\n    tag_497:\n        /* \"#utility.yul\":10324:10462   */\n      pop\n      jump\t// out\n        /* \"#utility.yul\":10468:10623   */\n    tag_342:\n        /* \"#utility.yul\":10522:10527   */\n      0x00\n        /* \"#utility.yul\":10560:10566   */\n      dup2\n        /* \"#utility.yul\":10547:10567   */\n      calldataload\n        /* \"#utility.yul\":10538:10567   */\n      swap1\n      pop\n        /* \"#utility.yul\":10576:10617   */\n      tag_499\n        /* \"#utility.yul\":10611:10616   */\n      dup2\n        /* \"#utility.yul\":10576:10617   */\n      tag_341\n      jump\t// in\n    tag_499:\n        /* \"#utility.yul\":10468:10623   */\n      swap3\n      swap2\n      pop\n      pop\n      jump\t// out\n        /* \"#utility.yul\":10629:10974   */\n    tag_90:\n        /* \"#utility.yul\":10696:10702   */\n      0x00\n        /* \"#utility.yul\":10745:10747   */\n      0x20\n        /* \"#utility.yul\":10733:10742   */\n      dup3\n        /* \"#utility.yul\":10724:10731   */\n      dup5\n        /* \"#utility.yul\":10720:10743   */\n      sub\n        /* \"#utility.yul\":10716:10748   */\n      slt\n        /* \"#utility.yul\":10713:10832   */\n      iszero\n      tag_501\n      jumpi\n        /* \"#utility.yul\":10751:10830   */\n      tag_502\n      tag_309\n      jump\t// in\n    tag_502:\n        /* \"#utility.yul\":10713:10832   */\n    tag_501:\n        /* \"#utility.yul\":10871:10872   */\n      0x00\n        /* \"#utility.yul\":10896:10957   */\n      tag_503\n        /* \"#utility.yul\":10949:10956   */\n      dup5\n        /* \"#utility.yul\":10940:10946   */\n      dup3\n        /* \"#utility.yul\":10929:10938   */\n      dup6\n        /* \"#utility.yul\":10925:10947   */\n      add\n        /* \"#utility.yul\":10896:10957   */\n      tag_342\n      jump\t// in\n    tag_503:\n        /* \"#utility.yul\":10886:10957   */\n      swap2\n      pop\n        /* \"#utility.yul\":10842:10967   */\n      pop\n        /* \"#utility.yul\":10629:10974   */\n      swap3\n      swap2\n      pop\n      pop\n      jump\t// out\n        /* \"#utility.yul\":10980:11151   */\n    tag_343:\n        /* \"#utility.yul\":11120:11143   */\n      0x457363726f7720646f6573206e6f742065786973740000000000000000000000\n        /* \"#utility.yul\":11116:11117   */\n      0x00\n        /* \"#utility.yul\":11108:11114   */\n      dup3\n        /* \"#utility.yul\":11104:11118   */\n      add\n        /* \"#utility.yul\":11097:11144   */\n      mstore\n        /* \"#utility.yul\":10980:11151   */\n      pop\n      jump\t// out\n        /* \"#utility.yul\":11157:11523   */\n    tag_344:\n        /* \"#utility.yul\":11299:11302   */\n      0x00\n        /* \"#utility.yul\":11320:11387   */\n      tag_506\n        /* \"#utility.yul\":11384:11386   */\n      0x15\n        /* \"#utility.yul\":11379:11382   */\n      dup4\n        /* \"#utility.yul\":11320:11387   */\n      tag_305\n      jump\t// in\n    tag_506:\n        /* \"#utility.yul\":11313:11387   */\n      swap2\n      pop\n        /* \"#utility.yul\":11396:11489   */\n      tag_507\n        /* \"#utility.yul\":11485:11488   */\n      dup3\n        /* \"#utility.yul\":11396:11489   */\n      tag_343\n      jump\t// in\n    tag_507:\n        /* \"#utility.yul\":11514:11516   */\n      0x20\n        /* \"#utility.yul\":11509:11512   */\n      dup3\n        /* \"#utility.yul\":11505:11517   */\n      add\n        /* \"#utility.yul\":11498:11517   */\n      swap1\n      pop\n        /* \"#utility.yul\":11157:11523   */\n      swap2\n      swap1\n      pop\n      jump\t// out\n        /* \"#utility.yul\":11529:11948   */\n    tag_103:\n        /* \"#utility.yul\":11695:11699   */\n      0x00\n        /* \"#utility.yul\":11733:11735   */\n      0x20\n        /* \"#utility.yul\":11722:11731   */\n      dup3\n        /* \"#utility.yul\":11718:11736   */\n      add\n        /* \"#utility.yul\":11710:11736   */\n      swap1\n      pop\n        /* \"#utility.yul\":11782:11791   */\n      dup2\n        /* \"#utility.yul\":11776:11780   */\n      dup2\n        /* \"#utility.yul\":11772:11792   */\n      sub\n        /* \"#utility.yul\":11768:11769   */\n      0x00\n        /* \"#utility.yul\":11757:11766   */\n      dup4\n        /* \"#utility.yul\":11753:11770   */\n      add\n        /* \"#utility.yul\":11746:11793   */\n      mstore\n        /* \"#utility.yul\":11810:11941   */\n      tag_509\n        /* \"#utility.yul\":11936:11940   */\n      dup2\n        /* \"#utility.yul\":11810:11941   */\n      tag_344\n      jump\t// in\n    tag_509:\n        /* \"#utility.yul\":11802:11941   */\n      swap1\n      pop\n        /* \"#utility.yul\":11529:11948   */\n      swap2\n      swap1\n      pop\n      jump\t// out\n        /* \"#utility.yul\":11954:12116   */\n    tag_345:\n        /* \"#utility.yul\":12094:12108   */\n      0x496e76616c696420726f6c650000000000000000000000000000000000000000\n        /* \"#utility.yul\":12090:12091   */\n      0x00\n        /* \"#utility.yul\":12082:12088   */\n      dup3\n        /* \"#utility.yul\":12078:12092   */\n      add\n        /* \"#utility.yul\":12071:12109   */\n      mstore\n        /* \"#utility.yul\":11954:12116   */\n      pop\n      jump\t// out\n        /* \"#utility.yul\":12122:12488   */\n    tag_346:\n        /* \"#utility.yul\":12264:12267   */\n      0x00\n        /* \"#utility.yul\":12285:12352   */\n      tag_512\n        /* \"#utility.yul\":12349:12351   */\n      0x0c\n        /* \"#utility.yul\":12344:12347   */\n      dup4\n        /* \"#utility.yul\":12285:12352   */\n      tag_305\n      jump\t// in\n    tag_512:\n        /* \"#utility.yul\":12278:12352   */\n      swap2\n      pop\n        /* \"#utility.yul\":12361:12454   */\n      tag_513\n        /* \"#utility.yul\":12450:12453   */\n      dup3\n        /* \"#utility.yul\":12361:12454   */\n      tag_345\n      jump\t// in\n    tag_513:\n        /* \"#utility.yul\":12479:12481   */\n      0x20\n        /* \"#utility.yul\":12474:12477   */\n      dup3\n        /* \"#utility.yul\":12470:12482   */\n      add\n        /* \"#utility.yul\":12463:12482   */\n      swap1\n      pop\n        /* \"#utility.yul\":12122:12488   */\n      swap2\n      swap1\n      pop\n      jump\t// out\n        /* \"#utility.yul\":12494:12913   */\n    tag_112:\n        /* \"#utility.yul\":12660:12664   */\n      0x00\n        /* \"#utility.yul\":12698:12700   */\n      0x20\n        /* \"#utility.yul\":12687:12696   */\n      dup3\n        /* \"#utility.yul\":12683:12701   */\n      add\n        /* \"#utility.yul\":12675:12701   */\n      swap1\n      pop\n        /* \"#utility.yul\":12747:12756   */\n      dup2\n        /* \"#utility.yul\":12741:12745   */\n      dup2\n        /* \"#utility.yul\":12737:12757   */\n      sub\n        /* \"#utility.yul\":12733:12734   */\n      0x00\n        /* \"#utility.yul\":12722:12731   */\n      dup4\n        /* \"#utility.yul\":12718:12735   */\n      add\n        /* \"#utility.yul\":12711:12758   */\n      mstore\n        /* \"#utility.yul\":12775:12906   */\n      tag_515\n        /* \"#utility.yul\":12901:12905   */\n      dup2\n        /* \"#utility.yul\":12775:12906   */\n      tag_346\n      jump\t// in\n    tag_515:\n        /* \"#utility.yul\":12767:12906   */\n      swap1\n      pop\n        /* \"#utility.yul\":12494:12913   */\n      swap2\n      swap1\n      pop\n      jump\t// out\n        /* \"#utility.yul\":12919:13089   */\n    tag_347:\n        /* \"#utility.yul\":13059:13081   */\n      0x41726269746572206e6f7420617070726f766564000000000000000000000000\n        /* \"#utility.yul\":13055:13056   */\n      0x00\n        /* \"#utility.yul\":13047:13053   */\n      dup3\n        /* \"#utility.yul\":13043:13057   */\n      add\n        /* \"#utility.yul\":13036:13082   */\n      mstore\n        /* \"#utility.yul\":12919:13089   */\n      pop\n      jump\t// out\n        /* \"#utility.yul\":13095:13461   */\n    tag_348:\n        /* \"#utility.yul\":13237:13240   */\n      0x00\n        /* \"#utility.yul\":13258:13325   */\n      tag_518\n        /* \"#utility.yul\":13322:13324   */\n      0x14\n        /* \"#utility.yul\":13317:13320   */\n      dup4\n        /* \"#utility.yul\":13258:13325   */\n      tag_305\n      jump\t// in\n    tag_518:\n        /* \"#utility.yul\":13251:13325   */\n      swap2\n      pop\n        /* \"#utility.yul\":13334:13427   */\n      tag_519\n        /* \"#utility.yul\":13423:13426   */\n      dup3\n        /* \"#utility.yul\":13334:13427   */\n      tag_347\n      jump\t// in\n    tag_519:\n        /* \"#utility.yul\":13452:13454   */\n      0x20\n        /* \"#utility.yul\":13447:13450   */\n      dup3\n        /* \"#utility.yul\":13443:13455   */\n      add\n        /* \"#utility.yul\":13436:13455   */\n      swap1\n      pop\n        /* \"#utility.yul\":13095:13461   */\n      swap2\n      swap1\n      pop\n      jump\t// out\n        /* \"#utility.yul\":13467:13886   */\n    tag_116:\n        /* \"#utility.yul\":13633:13637   */\n      0x00\n        /* \"#utility.yul\":13671:13673   */\n      0x20\n        /* \"#utility.yul\":13660:13669   */\n      dup3\n        /* \"#utility.yul\":13656:13674   */\n      add\n        /* \"#utility.yul\":13648:13674   */\n      swap1\n      pop\n        /* \"#utility.yul\":13720:13729   */\n      dup2\n        /* \"#utility.yul\":13714:13718   */\n      dup2\n        /* \"#utility.yul\":13710:13730   */\n      sub\n        /* \"#utility.yul\":13706:13707   */\n      0x00\n        /* \"#utility.yul\":13695:13704   */\n      dup4\n        /* \"#utility.yul\":13691:13708   */\n      add\n        /* \"#utility.yul\":13684:13731   */\n      mstore\n        /* \"#utility.yul\":13748:13879   */\n      tag_521\n        /* \"#utility.yul\":13874:13878   */\n      dup2\n        /* \"#utility.yul\":13748:13879   */\n      tag_348\n      jump\t// in\n    tag_521:\n        /* \"#utility.yul\":13740:13879   */\n      swap1\n      pop\n        /* \"#utility.yul\":13467:13886   */\n      swap2\n      swap1\n      pop\n      jump\t// out\n        /* \"#utility.yul\":13892:14054   */\n    tag_349:\n        /* \"#utility.yul\":14032:14046   */\n      0x4e6f742064697370757465640000000000000000000000000000000000000000\n        /* \"#utility.yul\":14028:14029   */\n      0x00\n        /* \"#utility.yul\":14020:14026   */\n      dup3\n        /* \"#utility.yul\":14016:14030   */\n      add\n        /* \"#utility.yul\":14009:14047   */\n      mstore\n        /* \"#utility.yul\":13892:14054   */\n      pop\n      jump\t// out\n        /* \"#utility.yul\":14060:14426   */\n    tag_350:\n        /* \"#utility.yul\":14202:14205   */\n      0x00\n        /* \"#utility.yul\":14223:14290   */\n      tag_524\n        /* \"#utility.yul\":14287:14289   */\n      0x0c\n        /* \"#utility.yul\":14282:14285   */\n      dup4\n        /* \"#utility.yul\":14223:14290   */\n      tag_305\n      jump\t// in\n    tag_524:\n        /* \"#utility.yul\":14216:14290   */\n      swap2\n      pop\n        /* \"#utility.yul\":14299:14392   */\n      tag_525\n        /* \"#utility.yul\":14388:14391   */\n      dup3\n        /* \"#utility.yul\":14299:14392   */\n      tag_349\n      jump\t// in\n    tag_525:\n        /* \"#utility.yul\":14417:14419   */\n      0x20\n        /* \"#utility.yul\":14412:14415   */\n      dup3\n        /* \"#utility.yul\":14408:14420   */\n      add\n        /* \"#utility.yul\":14401:14420   */\n      swap1\n      pop\n        /* \"#utility.yul\":14060:14426   */\n      swap2\n      swap1\n      pop\n      jump\t// out\n        /* \"#utility.yul\":14432:14851   */\n    tag_123:\n        /* \"#utility.yul\":14598:14602   */\n      0x00\n        /* \"#utility.yul\":14636:14638   */\n      0x20\n        /* \"#utility.yul\":14625:14634   */\n      dup3\n        /* \"#utility.yul\":14621:14639   */\n      add\n        /* \"#utility.yul\":14613:14639   */\n      swap1\n      pop\n        /* \"#utility.yul\":14685:14694   */\n      dup2\n        /* \"#utility.yul\":14679:14683   */\n      dup2\n        /* \"#utility.yul\":14675:14695   */\n      sub\n        /* \"#utility.yul\":14671:14672   */\n      0x00\n        /* \"#utility.yul\":14660:14669   */\n      dup4\n        /* \"#utility.yul\":14656:14673   */\n      add\n        /* \"#utility.yul\":14649:14696   */\n      mstore\n        /* \"#utility.yul\":14713:14844   */\n      tag_527\n        /* \"#utility.yul\":14839:14843   */\n      dup2\n        /* \"#utility.yul\":14713:14844   */\n      tag_350\n      jump\t// in\n    tag_527:\n        /* \"#utility.yul\":14705:14844   */\n      swap1\n      pop\n        /* \"#utility.yul\":14432:14851   */\n      swap2\n      swap1\n      pop\n      jump\t// out\n        /* \"#utility.yul\":14857:15037   */\n    tag_351:\n        /* \"#utility.yul\":14905:14982   */\n      0x4e487b7100000000000000000000000000000000000000000000000000000000\n        /* \"#utility.yul\":14902:14903   */\n      0x00\n        /* \"#utility.yul\":14895:14983   */\n      mstore\n        /* \"#utility.yul\":15002:15006   */\n      0x11\n        /* \"#utility.yul\":14999:15000   */\n      0x04\n        /* \"#utility.yul\":14992:15007   */\n      mstore\n        /* \"#utility.yul\":15026:15030   */\n      0x24\n        /* \"#utility.yul\":15023:15024   */\n      0x00\n        /* \"#utility.yul\":15016:15031   */\n      revert\n        /* \"#utility.yul\":15043:15237   */\n    tag_125:\n        /* \"#utility.yul\":15083:15087   */\n      0x00\n        /* \"#utility.yul\":15103:15123   */\n      tag_530\n        /* \"#utility.yul\":15121:15122   */\n      dup3\n        /* \"#utility.yul\":15103:15123   */\n      tag_311\n      jump\t// in\n    tag_530:\n        /* \"#utility.yul\":15098:15123   */\n      swap2\n      pop\n        /* \"#utility.yul\":15137:15157   */\n      tag_531\n        /* \"#utility.yul\":15155:15156   */\n      dup4\n        /* \"#utility.yul\":15137:15157   */\n      tag_311\n      jump\t// in\n    tag_531:\n        /* \"#utility.yul\":15132:15157   */\n      swap3\n      pop\n        /* \"#utility.yul\":15181:15182   */\n      dup3\n        /* \"#utility.yul\":15178:15179   */\n      dup3\n        /* \"#utility.yul\":15174:15183   */\n      sub\n        /* \"#utility.yul\":15166:15183   */\n      swap1\n      pop\n        /* \"#utility.yul\":15205:15206   */\n      dup2\n        /* \"#utility.yul\":15199:15203   */\n      dup2\n        /* \"#utility.yul\":15196:15207   */\n      gt\n        /* \"#utility.yul\":15193:15230   */\n      iszero\n      tag_532\n      jumpi\n        /* \"#utility.yul\":15210:15228   */\n      tag_533\n      tag_351\n      jump\t// in\n    tag_533:\n        /* \"#utility.yul\":15193:15230   */\n    tag_532:\n        /* \"#utility.yul\":15043:15237   */\n      swap3\n      swap2\n      pop\n      pop\n      jump\t// out\n        /* \"#utility.yul\":15243:15390   */\n    tag_352:\n        /* \"#utility.yul\":15344:15355   */\n      0x00\n        /* \"#utility.yul\":15381:15384   */\n      dup2\n        /* \"#utility.yul\":15366:15384   */\n      swap1\n      pop\n        /* \"#utility.yul\":15243:15390   */\n      swap3\n      swap2\n      pop\n      pop\n      jump\t// out\n        /* \"#utility.yul\":15396:15510   */\n    tag_353:\n      pop\n      jump\t// out\n        /* \"#utility.yul\":15516:15914   */\n    tag_354:\n        /* \"#utility.yul\":15675:15678   */\n      0x00\n        /* \"#utility.yul\":15696:15779   */\n      tag_537\n        /* \"#utility.yul\":15777:15778   */\n      0x00\n        /* \"#utility.yul\":15772:15775   */\n      dup4\n        /* \"#utility.yul\":15696:15779   */\n      tag_352\n      jump\t// in\n    tag_537:\n        /* \"#utility.yul\":15689:15779   */\n      swap2\n      pop\n        /* \"#utility.yul\":15788:15881   */\n      tag_538\n        /* \"#utility.yul\":15877:15880   */\n      dup3\n        /* \"#utility.yul\":15788:15881   */\n      tag_353\n      jump\t// in\n    tag_538:\n        /* \"#utility.yul\":15906:15907   */\n      0x00\n        /* \"#utility.yul\":15901:15904   */\n      dup3\n        /* \"#utility.yul\":15897:15908   */\n      add\n        /* \"#utility.yul\":15890:15908   */\n      swap1\n      pop\n        /* \"#utility.yul\":15516:15914   */\n      swap2\n      swap1\n      pop\n      jump\t// out\n        /* \"#utility.yul\":15920:16299   */\n    tag_130:\n        /* \"#utility.yul\":16104:16107   */\n      0x00\n        /* \"#utility.yul\":16126:16273   */\n      tag_540\n        /* \"#utility.yul\":16269:16272   */\n      dup3\n        /* \"#utility.yul\":16126:16273   */\n      tag_354\n      jump\t// in\n    tag_540:\n        /* \"#utility.yul\":16119:16273   */\n      swap2\n      pop\n        /* \"#utility.yul\":16290:16293   */\n      dup2\n        /* \"#utility.yul\":16283:16293   */\n      swap1\n      pop\n        /* \"#utility.yul\":15920:16299   */\n      swap2\n      swap1\n      pop\n      jump\t// out\n        /* \"#utility.yul\":16305:16470   */\n    tag_355:\n        /* \"#utility.yul\":16445:16462   */\n      0x5472616e73666572206661696c65640000000000000000000000000000000000\n        /* \"#utility.yul\":16441:16442   */\n      0x00\n        /* \"#utility.yul\":16433:16439   */\n      dup3\n        /* \"#utility.yul\":16429:16443   */\n      add\n        /* \"#utility.yul\":16422:16463   */\n      mstore\n        /* \"#utility.yul\":16305:16470   */\n      pop\n      jump\t// out\n        /* \"#utility.yul\":16476:16842   */\n    tag_356:\n        /* \"#utility.yul\":16618:16621   */\n      0x00\n        /* \"#utility.yul\":16639:16706   */\n      tag_543\n        /* \"#utility.yul\":16703:16705   */\n      0x0f\n        /* \"#utility.yul\":16698:16701   */\n      dup4\n        /* \"#utility.yul\":16639:16706   */\n      tag_305\n      jump\t// in\n    tag_543:\n        /* \"#utility.yul\":16632:16706   */\n      swap2\n      pop\n        /* \"#utility.yul\":16715:16808   */\n      tag_544\n        /* \"#utility.yul\":16804:16807   */\n      dup3\n        /* \"#utility.yul\":16715:16808   */\n      tag_355\n      jump\t// in\n    tag_544:\n        /* \"#utility.yul\":16833:16835   */\n      0x20\n        /* \"#utility.yul\":16828:16831   */\n      dup3\n        /* \"#utility.yul\":16824:16836   */\n      add\n        /* \"#utility.yul\":16817:16836   */\n      swap1\n      pop\n        /* \"#utility.yul\":16476:16842   */\n      swap2\n      swap1\n      pop\n      jump\t// out\n        /* \"#utility.yul\":16848:17267   */\n    tag_136:\n        /* \"#utility.yul\":17014:17018   */\n      0x00\n        /* \"#utility.yul\":17052:17054   */\n      0x20\n        /* \"#utility.yul\":17041:17050   */\n      dup3\n        /* \"#utility.yul\":17037:17055   */\n      add\n        /* \"#utility.yul\":17029:17055   */\n      swap1\n      pop\n        /* \"#utility.yul\":17101:17110   */\n      dup2\n        /* \"#utility.yul\":17095:17099   */\n      dup2\n        /* \"#utility.yul\":17091:17111   */\n      sub\n        /* \"#utility.yul\":17087:17088   */\n      0x00\n        /* \"#utility.yul\":17076:17085   */\n      dup4\n        /* \"#utility.yul\":17072:17089   */\n      add\n        /* \"#utility.yul\":17065:17112   */\n      mstore\n        /* \"#utility.yul\":17129:17260   */\n      tag_546\n        /* \"#utility.yul\":17255:17259   */\n      dup2\n        /* \"#utility.yul\":17129:17260   */\n      tag_356\n      jump\t// in\n    tag_546:\n        /* \"#utility.yul\":17121:17260   */\n      swap1\n      pop\n        /* \"#utility.yul\":16848:17267   */\n      swap2\n      swap1\n      pop\n      jump\t// out\n        /* \"#utility.yul\":17273:17436   */\n    tag_357:\n        /* \"#utility.yul\":17413:17428   */\n      0x526566756e64206661696c656400000000000000000000000000000000000000\n        /* \"#utility.yul\":17409:17410   */\n      0x00\n        /* \"#utility.yul\":17401:17407   */\n      dup3\n        /* \"#utility.yul\":17397:17411   */\n      add\n        /* \"#utility.yul\":17390:17429   */\n      mstore\n        /* \"#utility.yul\":17273:17436   */\n      pop\n      jump\t// out\n        /* \"#utility.yul\":17442:17808   */\n    tag_358:\n        /* \"#utility.yul\":17584:17587   */\n      0x00\n        /* \"#utility.yul\":17605:17672   */\n      tag_549\n        /* \"#utility.yul\":17669:17671   */\n      0x0d\n        /* \"#utility.yul\":17664:17667   */\n      dup4\n        /* \"#utility.yul\":17605:17672   */\n      tag_305\n      jump\t// in\n    tag_549:\n        /* \"#utility.yul\":17598:17672   */\n      swap2\n      pop\n        /* \"#utility.yul\":17681:17774   */\n      tag_550\n        /* \"#utility.yul\":17770:17773   */\n      dup3\n        /* \"#utility.yul\":17681:17774   */\n      tag_357\n      jump\t// in\n    tag_550:\n        /* \"#utility.yul\":17799:17801   */\n      0x20\n        /* \"#utility.yul\":17794:17797   */\n      dup3\n        /* \"#utility.yul\":17790:17802   */\n      add\n        /* \"#utility.yul\":17783:17802   */\n      swap1\n      pop\n        /* \"#utility.yul\":17442:17808   */\n      swap2\n      swap1\n      pop\n      jump\t// out\n        /* \"#utility.yul\":17814:18233   */\n    tag_146:\n        /* \"#utility.yul\":17980:17984   */\n      0x00\n        /* \"#utility.yul\":18018:18020   */\n      0x20\n        /* \"#utility.yul\":18007:18016   */\n      dup3\n        /* \"#utility.yul\":18003:18021   */\n      add\n        /* \"#utility.yul\":17995:18021   */\n      swap1\n      pop\n        /* \"#utility.yul\":18067:18076   */\n      dup2\n        /* \"#utility.yul\":18061:18065   */\n      dup2\n        /* \"#utility.yul\":18057:18077   */\n      sub\n        /* \"#utility.yul\":18053:18054   */\n      0x00\n        /* \"#utility.yul\":18042:18051   */\n      dup4\n        /* \"#utility.yul\":18038:18055   */\n      add\n        /* \"#utility.yul\":18031:18078   */\n      mstore\n        /* \"#utility.yul\":18095:18226   */\n      tag_552\n        /* \"#utility.yul\":18221:18225   */\n      dup2\n        /* \"#utility.yul\":18095:18226   */\n      tag_358\n      jump\t// in\n    tag_552:\n        /* \"#utility.yul\":18087:18226   */\n      swap1\n      pop\n        /* \"#utility.yul\":17814:18233   */\n      swap2\n      swap1\n      pop\n      jump\t// out\n        /* \"#utility.yul\":18239:18449   */\n    tag_148:\n        /* \"#utility.yul\":18326:18330   */\n      0x00\n        /* \"#utility.yul\":18364:18366   */\n      0x20\n        /* \"#utility.yul\":18353:18362   */\n      dup3\n        /* \"#utility.yul\":18349:18367   */\n      add\n        /* \"#utility.yul\":18341:18367   */\n      swap1\n      pop\n        /* \"#utility.yul\":18377:18442   */\n      tag_554\n        /* \"#utility.yul\":18439:18440   */\n      0x00\n        /* \"#utility.yul\":18428:18437   */\n      dup4\n        /* \"#utility.yul\":18424:18441   */\n      add\n        /* \"#utility.yul\":18415:18421   */\n      dup5\n        /* \"#utility.yul\":18377:18442   */\n      tag_323\n      jump\t// in\n    tag_554:\n        /* \"#utility.yul\":18239:18449   */\n      swap3\n      swap2\n      pop\n      pop\n      jump\t// out\n        /* \"#utility.yul\":18455:18623   */\n    tag_359:\n        /* \"#utility.yul\":18595:18615   */\n      0x416c726561647920726567697374657265640000000000000000000000000000\n        /* \"#utility.yul\":18591:18592   */\n      0x00\n        /* \"#utility.yul\":18583:18589   */\n      dup3\n        /* \"#utility.yul\":18579:18593   */\n      add\n        /* \"#utility.yul\":18572:18616   */\n      mstore\n        /* \"#utility.yul\":18455:18623   */\n      pop\n      jump\t// out\n        /* \"#utility.yul\":18629:18995   */\n    tag_360:\n        /* \"#utility.yul\":18771:18774   */\n      0x00\n        /* \"#utility.yul\":18792:18859   */\n      tag_557\n        /* \"#utility.yul\":18856:18858   */\n      0x12\n        /* \"#utility.yul\":18851:18854   */\n      dup4\n        /* \"#utility.yul\":18792:18859   */\n      tag_305\n      jump\t// in\n    tag_557:\n        /* \"#utility.yul\":18785:18859   */\n      swap2\n      pop\n        /* \"#utility.yul\":18868:18961   */\n      tag_558\n        /* \"#utility.yul\":18957:18960   */\n      dup3\n        /* \"#utility.yul\":18868:18961   */\n      tag_359\n      jump\t// in\n    tag_558:\n        /* \"#utility.yul\":18986:18988   */\n      0x20\n        /* \"#utility.yul\":18981:18984   */\n      dup3\n        /* \"#utility.yul\":18977:18989   */\n      add\n        /* \"#utility.yul\":18970:18989   */\n      swap1\n      pop\n        /* \"#utility.yul\":18629:18995   */\n      swap2\n      swap1\n      pop\n      jump\t// out\n        /* \"#utility.yul\":19001:19420   */\n    tag_164:\n        /* \"#utility.yul\":19167:19171   */\n      0x00\n        /* \"#utility.yul\":19205:19207   */\n      0x20\n        /* \"#utility.yul\":19194:19203   */\n      dup3\n        /* \"#utility.yul\":19190:19208   */\n      add\n        /* \"#utility.yul\":19182:19208   */\n      swap1\n      pop\n        /* \"#utility.yul\":19254:19263   */\n      dup2\n        /* \"#utility.yul\":19248:19252   */\n      dup2\n        /* \"#utility.yul\":19244:19264   */\n      sub\n        /* \"#utility.yul\":19240:19241   */\n      0x00\n        /* \"#utility.yul\":19229:19238   */\n      dup4\n        /* \"#utility.yul\":19225:19242   */\n      add\n        /* \"#utility.yul\":19218:19265   */\n      mstore\n        /* \"#utility.yul\":19282:19413   */\n      tag_560\n        /* \"#utility.yul\":19408:19412   */\n      dup2\n        /* \"#utility.yul\":19282:19413   */\n      tag_360\n      jump\t// in\n    tag_560:\n        /* \"#utility.yul\":19274:19413   */\n      swap1\n      pop\n        /* \"#utility.yul\":19001:19420   */\n      swap2\n      swap1\n      pop\n      jump\t// out\n        /* \"#utility.yul\":19426:19660   */\n    tag_170:\n        /* \"#utility.yul\":19525:19529   */\n      0x00\n        /* \"#utility.yul\":19563:19565   */\n      0x20\n        /* \"#utility.yul\":19552:19561   */\n      dup3\n        /* \"#utility.yul\":19548:19566   */\n      add\n        /* \"#utility.yul\":19540:19566   */\n      swap1\n      pop\n        /* \"#utility.yul\":19576:19653   */\n      tag_562\n        /* \"#utility.yul\":19650:19651   */\n      0x00\n        /* \"#utility.yul\":19639:19648   */\n      dup4\n        /* \"#utility.yul\":19635:19652   */\n      add\n        /* \"#utility.yul\":19626:19632   */\n      dup5\n        /* \"#utility.yul\":19576:19653   */\n      tag_340\n      jump\t// in\n    tag_562:\n        /* \"#utility.yul\":19426:19660   */\n      swap3\n      swap2\n      pop\n      pop\n      jump\t// out\n        /* \"#utility.yul\":19666:19838   */\n    tag_361:\n        /* \"#utility.yul\":19806:19830   */\n      0x4f6e6c792062757965722063616e206469737075746500000000000000000000\n        /* \"#utility.yul\":19802:19803   */\n      0x00\n        /* \"#utility.yul\":19794:19800   */\n      dup3\n        /* \"#utility.yul\":19790:19804   */\n      add\n        /* \"#utility.yul\":19783:19831   */\n      mstore\n        /* \"#utility.yul\":19666:19838   */\n      pop\n      jump\t// out\n        /* \"#utility.yul\":19844:20210   */\n    tag_362:\n        /* \"#utility.yul\":19986:19989   */\n      0x00\n        /* \"#utility.yul\":20007:20074   */\n      tag_565\n        /* \"#utility.yul\":20071:20073   */\n      0x16\n        /* \"#utility.yul\":20066:20069   */\n      dup4\n        /* \"#utility.yul\":20007:20074   */\n      tag_305\n      jump\t// in\n    tag_565:\n        /* \"#utility.yul\":20000:20074   */\n      swap2\n      pop\n        /* \"#utility.yul\":20083:20176   */\n      tag_566\n        /* \"#utility.yul\":20172:20175   */\n      dup3\n        /* \"#utility.yul\":20083:20176   */\n      tag_361\n      jump\t// in\n    tag_566:\n        /* \"#utility.yul\":20201:20203   */\n      0x20\n        /* \"#utility.yul\":20196:20199   */\n      dup3\n        /* \"#utility.yul\":20192:20204   */\n      add\n        /* \"#utility.yul\":20185:20204   */\n      swap1\n      pop\n        /* \"#utility.yul\":19844:20210   */\n      swap2\n      swap1\n      pop\n      jump\t// out\n        /* \"#utility.yul\":20216:20635   */\n    tag_191:\n        /* \"#utility.yul\":20382:20386   */\n      0x00\n        /* \"#utility.yul\":20420:20422   */\n      0x20\n        /* \"#utility.yul\":20409:20418   */\n      dup3\n        /* \"#utility.yul\":20405:20423   */\n      add\n        /* \"#utility.yul\":20397:20423   */\n      swap1\n      pop\n        /* \"#utility.yul\":20469:20478   */\n      dup2\n        /* \"#utility.yul\":20463:20467   */\n      dup2\n        /* \"#utility.yul\":20459:20479   */\n      sub\n        /* \"#utility.yul\":20455:20456   */\n      0x00\n        /* \"#utility.yul\":20444:20453   */\n      dup4\n        /* \"#utility.yul\":20440:20457   */\n      add\n        /* \"#utility.yul\":20433:20480   */\n      mstore\n        /* \"#utility.yul\":20497:20628   */\n      tag_568\n        /* \"#utility.yul\":20623:20627   */\n      dup2\n        /* \"#utility.yul\":20497:20628   */\n      tag_362\n      jump\t// in\n    tag_568:\n        /* \"#utility.yul\":20489:20628   */\n      swap1\n      pop\n        /* \"#utility.yul\":20216:20635   */\n      swap2\n      swap1\n      pop\n      jump\t// out\n        /* \"#utility.yul\":20641:20805   */\n    tag_363:\n        /* \"#utility.yul\":20781:20797   */\n      0x43616e6e6f742064697370757465000000000000000000000000000000000000\n        /* \"#utility.yul\":20777:20778   */\n      0x00\n        /* \"#utility.yul\":20769:20775   */\n      dup3\n        /* \"#utility.yul\":20765:20779   */\n      add\n        /* \"#utility.yul\":20758:20798   */\n      mstore\n        /* \"#utility.yul\":20641:20805   */\n      pop\n      jump\t// out\n        /* \"#utility.yul\":20811:21177   */\n    tag_364:\n        /* \"#utility.yul\":20953:20956   */\n      0x00\n        /* \"#utility.yul\":20974:21041   */\n      tag_571\n        /* \"#utility.yul\":21038:21040   */\n      0x0e\n        /* \"#utility.yul\":21033:21036   */\n      dup4\n        /* \"#utility.yul\":20974:21041   */\n      tag_305\n      jump\t// in\n    tag_571:\n        /* \"#utility.yul\":20967:21041   */\n      swap2\n      pop\n        /* \"#utility.yul\":21050:21143   */\n      tag_572\n        /* \"#utility.yul\":21139:21142   */\n      dup3\n        /* \"#utility.yul\":21050:21143   */\n      tag_363\n      jump\t// in\n    tag_572:\n        /* \"#utility.yul\":21168:21170   */\n      0x20\n        /* \"#utility.yul\":21163:21166   */\n      dup3\n        /* \"#utility.yul\":21159:21171   */\n      add\n        /* \"#utility.yul\":21152:21171   */\n      swap1\n      pop\n        /* \"#utility.yul\":20811:21177   */\n      swap2\n      swap1\n      pop\n      jump\t// out\n        /* \"#utility.yul\":21183:21602   */\n    tag_198:\n        /* \"#utility.yul\":21349:21353   */\n      0x00\n        /* \"#utility.yul\":21387:21389   */\n      0x20\n        /* \"#utility.yul\":21376:21385   */\n      dup3\n        /* \"#utility.yul\":21372:21390   */\n      add\n        /* \"#utility.yul\":21364:21390   */\n      swap1\n      pop\n        /* \"#utility.yul\":21436:21445   */\n      dup2\n        /* \"#utility.yul\":21430:21434   */\n      dup2\n        /* \"#utility.yul\":21426:21446   */\n      sub\n        /* \"#utility.yul\":21422:21423   */\n      0x00\n        /* \"#utility.yul\":21411:21420   */\n      dup4\n        /* \"#utility.yul\":21407:21424   */\n      add\n        /* \"#utility.yul\":21400:21447   */\n      mstore\n        /* \"#utility.yul\":21464:21595   */\n      tag_574\n        /* \"#utility.yul\":21590:21594   */\n      dup2\n        /* \"#utility.yul\":21464:21595   */\n      tag_364\n      jump\t// in\n    tag_574:\n        /* \"#utility.yul\":21456:21595   */\n      swap1\n      pop\n        /* \"#utility.yul\":21183:21602   */\n      swap2\n      swap1\n      pop\n      jump\t// out\n        /* \"#utility.yul\":21608:21772   */\n    tag_365:\n        /* \"#utility.yul\":21748:21764   */\n      0x4e6f7420616e2061726269746572000000000000000000000000000000000000\n        /* \"#utility.yul\":21744:21745   */\n      0x00\n        /* \"#utility.yul\":21736:21742   */\n      dup3\n        /* \"#utility.yul\":21732:21746   */\n      add\n        /* \"#utility.yul\":21725:21765   */\n      mstore\n        /* \"#utility.yul\":21608:21772   */\n      pop\n      jump\t// out\n        /* \"#utility.yul\":21778:22144   */\n    tag_366:\n        /* \"#utility.yul\":21920:21923   */\n      0x00\n        /* \"#utility.yul\":21941:22008   */\n      tag_577\n        /* \"#utility.yul\":22005:22007   */\n      0x0e\n        /* \"#utility.yul\":22000:22003   */\n      dup4\n        /* \"#utility.yul\":21941:22008   */\n      tag_305\n      jump\t// in\n    tag_577:\n        /* \"#utility.yul\":21934:22008   */\n      swap2\n      pop\n        /* \"#utility.yul\":22017:22110   */\n      tag_578\n        /* \"#utility.yul\":22106:22109   */\n      dup3\n        /* \"#utility.yul\":22017:22110   */\n      tag_365\n      jump\t// in\n    tag_578:\n        /* \"#utility.yul\":22135:22137   */\n      0x20\n        /* \"#utility.yul\":22130:22133   */\n      dup3\n        /* \"#utility.yul\":22126:22138   */\n      add\n        /* \"#utility.yul\":22119:22138   */\n      swap1\n      pop\n        /* \"#utility.yul\":21778:22144   */\n      swap2\n      swap1\n      pop\n      jump\t// out\n        /* \"#utility.yul\":22150:22569   */\n    tag_210:\n        /* \"#utility.yul\":22316:22320   */\n      0x00\n        /* \"#utility.yul\":22354:22356   */\n      0x20\n        /* \"#utility.yul\":22343:22352   */\n      dup3\n        /* \"#utility.yul\":22339:22357   */\n      add\n        /* \"#utility.yul\":22331:22357   */\n      swap1\n      pop\n        /* \"#utility.yul\":22403:22412   */\n      dup2\n        /* \"#utility.yul\":22397:22401   */\n      dup2\n        /* \"#utility.yul\":22393:22413   */\n      sub\n        /* \"#utility.yul\":22389:22390   */\n      0x00\n        /* \"#utility.yul\":22378:22387   */\n      dup4\n        /* \"#utility.yul\":22374:22391   */\n      add\n        /* \"#utility.yul\":22367:22414   */\n      mstore\n        /* \"#utility.yul\":22431:22562   */\n      tag_580\n        /* \"#utility.yul\":22557:22561   */\n      dup2\n        /* \"#utility.yul\":22431:22562   */\n      tag_366\n      jump\t// in\n    tag_580:\n        /* \"#utility.yul\":22423:22562   */\n      swap1\n      pop\n        /* \"#utility.yul\":22150:22569   */\n      swap2\n      swap1\n      pop\n      jump\t// out\n        /* \"#utility.yul\":22575:22734   */\n    tag_367:\n        /* \"#utility.yul\":22715:22726   */\n      0x4e6f742062757965720000000000000000000000000000000000000000000000\n        /* \"#utility.yul\":22711:22712   */\n      0x00\n        /* \"#utility.yul\":22703:22709   */\n      dup3\n        /* \"#utility.yul\":22699:22713   */\n      add\n        /* \"#utility.yul\":22692:22727   */\n      mstore\n        /* \"#utility.yul\":22575:22734   */\n      pop\n      jump\t// out\n        /* \"#utility.yul\":22740:23105   */\n    tag_368:\n        /* \"#utility.yul\":22882:22885   */\n      0x00\n        /* \"#utility.yul\":22903:22969   */\n      tag_583\n        /* \"#utility.yul\":22967:22968   */\n      0x09\n        /* \"#utility.yul\":22962:22965   */\n      dup4\n        /* \"#utility.yul\":22903:22969   */\n      tag_305\n      jump\t// in\n    tag_583:\n        /* \"#utility.yul\":22896:22969   */\n      swap2\n      pop\n        /* \"#utility.yul\":22978:23071   */\n      tag_584\n        /* \"#utility.yul\":23067:23070   */\n      dup3\n        /* \"#utility.yul\":22978:23071   */\n      tag_367\n      jump\t// in\n    tag_584:\n        /* \"#utility.yul\":23096:23098   */\n      0x20\n        /* \"#utility.yul\":23091:23094   */\n      dup3\n        /* \"#utility.yul\":23087:23099   */\n      add\n        /* \"#utility.yul\":23080:23099   */\n      swap1\n      pop\n        /* \"#utility.yul\":22740:23105   */\n      swap2\n      swap1\n      pop\n      jump\t// out\n        /* \"#utility.yul\":23111:23530   */\n    tag_219:\n        /* \"#utility.yul\":23277:23281   */\n      0x00\n        /* \"#utility.yul\":23315:23317   */\n      0x20\n        /* \"#utility.yul\":23304:23313   */\n      dup3\n        /* \"#utility.yul\":23300:23318   */\n      add\n        /* \"#utility.yul\":23292:23318   */\n      swap1\n      pop\n        /* \"#utility.yul\":23364:23373   */\n      dup2\n        /* \"#utility.yul\":23358:23362   */\n      dup2\n        /* \"#utility.yul\":23354:23374   */\n      sub\n        /* \"#utility.yul\":23350:23351   */\n      0x00\n        /* \"#utility.yul\":23339:23348   */\n      dup4\n        /* \"#utility.yul\":23335:23352   */\n      add\n        /* \"#utility.yul\":23328:23375   */\n      mstore\n        /* \"#utility.yul\":23392:23523   */\n      tag_586\n        /* \"#utility.yul\":23518:23522   */\n      dup2\n        /* \"#utility.yul\":23392:23523   */\n      tag_368\n      jump\t// in\n    tag_586:\n        /* \"#utility.yul\":23384:23523   */\n      swap1\n      pop\n        /* \"#utility.yul\":23111:23530   */\n      swap2\n      swap1\n      pop\n      jump\t// out\n        /* \"#utility.yul\":23536:23699   */\n    tag_369:\n        /* \"#utility.yul\":23676:23691   */\n      0x496e76616c696420737461746500000000000000000000000000000000000000\n        /* \"#utility.yul\":23672:23673   */\n      0x00\n        /* \"#utility.yul\":23664:23670   */\n      dup3\n        /* \"#utility.yul\":23660:23674   */\n      add\n        /* \"#utility.yul\":23653:23692   */\n      mstore\n        /* \"#utility.yul\":23536:23699   */\n      pop\n      jump\t// out\n        /* \"#utility.yul\":23705:24071   */\n    tag_370:\n        /* \"#utility.yul\":23847:23850   */\n      0x00\n        /* \"#utility.yul\":23868:23935   */\n      tag_589\n        /* \"#utility.yul\":23932:23934   */\n      0x0d\n        /* \"#utility.yul\":23927:23930   */\n      dup4\n        /* \"#utility.yul\":23868:23935   */\n      tag_305\n      jump\t// in\n    tag_589:\n        /* \"#utility.yul\":23861:23935   */\n      swap2\n      pop\n        /* \"#utility.yul\":23944:24037   */\n      tag_590\n        /* \"#utility.yul\":24033:24036   */\n      dup3\n        /* \"#utility.yul\":23944:24037   */\n      tag_369\n      jump\t// in\n    tag_590:\n        /* \"#utility.yul\":24062:24064   */\n      0x20\n        /* \"#utility.yul\":24057:24060   */\n      dup3\n        /* \"#utility.yul\":24053:24065   */\n      add\n        /* \"#utility.yul\":24046:24065   */\n      swap1\n      pop\n        /* \"#utility.yul\":23705:24071   */\n      swap2\n      swap1\n      pop\n      jump\t// out\n        /* \"#utility.yul\":24077:24496   */\n    tag_226:\n        /* \"#utility.yul\":24243:24247   */\n      0x00\n        /* \"#utility.yul\":24281:24283   */\n      0x20\n        /* \"#utility.yul\":24270:24279   */\n      dup3\n        /* \"#utility.yul\":24266:24284   */\n      add\n        /* \"#utility.yul\":24258:24284   */\n      swap1\n      pop\n        /* \"#utility.yul\":24330:24339   */\n      dup2\n        /* \"#utility.yul\":24324:24328   */\n      dup2\n        /* \"#utility.yul\":24320:24340   */\n      sub\n        /* \"#utility.yul\":24316:24317   */\n      0x00\n        /* \"#utility.yul\":24305:24314   */\n      dup4\n        /* \"#utility.yul\":24301:24318   */\n      add\n        /* \"#utility.yul\":24294:24341   */\n      mstore\n        /* \"#utility.yul\":24358:24489   */\n      tag_592\n        /* \"#utility.yul\":24484:24488   */\n      dup2\n        /* \"#utility.yul\":24358:24489   */\n      tag_370\n      jump\t// in\n    tag_592:\n        /* \"#utility.yul\":24350:24489   */\n      swap1\n      pop\n        /* \"#utility.yul\":24077:24496   */\n      swap2\n      swap1\n      pop\n      jump\t// out\n        /* \"#utility.yul\":24502:24665   */\n    tag_371:\n        /* \"#utility.yul\":24642:24657   */\n      0x4d7573742073656e642045544800000000000000000000000000000000000000\n        /* \"#utility.yul\":24638:24639   */\n      0x00\n        /* \"#utility.yul\":24630:24636   */\n      dup3\n        /* \"#utility.yul\":24626:24640   */\n      add\n        /* \"#utility.yul\":24619:24658   */\n      mstore\n        /* \"#utility.yul\":24502:24665   */\n      pop\n      jump\t// out\n        /* \"#utility.yul\":24671:25037   */\n    tag_372:\n        /* \"#utility.yul\":24813:24816   */\n      0x00\n        /* \"#utility.yul\":24834:24901   */\n      tag_595\n        /* \"#utility.yul\":24898:24900   */\n      0x0d\n        /* \"#utility.yul\":24893:24896   */\n      dup4\n        /* \"#utility.yul\":24834:24901   */\n      tag_305\n      jump\t// in\n    tag_595:\n        /* \"#utility.yul\":24827:24901   */\n      swap2\n      pop\n        /* \"#utility.yul\":24910:25003   */\n      tag_596\n        /* \"#utility.yul\":24999:25002   */\n      dup3\n        /* \"#utility.yul\":24910:25003   */\n      tag_371\n      jump\t// in\n    tag_596:\n        /* \"#utility.yul\":25028:25030   */\n      0x20\n        /* \"#utility.yul\":25023:25026   */\n      dup3\n        /* \"#utility.yul\":25019:25031   */\n      add\n        /* \"#utility.yul\":25012:25031   */\n      swap1\n      pop\n        /* \"#utility.yul\":24671:25037   */\n      swap2\n      swap1\n      pop\n      jump\t// out\n        /* \"#utility.yul\":25043:25462   */\n    tag_229:\n        /* \"#utility.yul\":25209:25213   */\n      0x00\n        /* \"#utility.yul\":25247:25249   */\n      0x20\n        /* \"#utility.yul\":25236:25245   */\n      dup3\n        /* \"#utility.yul\":25232:25250   */\n      add\n        /* \"#utility.yul\":25224:25250   */\n      swap1\n      pop\n        /* \"#utility.yul\":25296:25305   */\n      dup2\n        /* \"#utility.yul\":25290:25294   */\n      dup2\n        /* \"#utility.yul\":25286:25306   */\n      sub\n        /* \"#utility.yul\":25282:25283   */\n      0x00\n        /* \"#utility.yul\":25271:25280   */\n      dup4\n        /* \"#utility.yul\":25267:25284   */\n      add\n        /* \"#utility.yul\":25260:25307   */\n      mstore\n        /* \"#utility.yul\":25324:25455   */\n      tag_598\n        /* \"#utility.yul\":25450:25454   */\n      dup2\n        /* \"#utility.yul\":25324:25455   */\n      tag_372\n      jump\t// in\n    tag_598:\n        /* \"#utility.yul\":25316:25455   */\n      swap1\n      pop\n        /* \"#utility.yul\":25043:25462   */\n      swap2\n      swap1\n      pop\n      jump\t// out\n        /* \"#utility.yul\":25468:25659   */\n    tag_233:\n        /* \"#utility.yul\":25508:25511   */\n      0x00\n        /* \"#utility.yul\":25527:25547   */\n      tag_600\n        /* \"#utility.yul\":25545:25546   */\n      dup3\n        /* \"#utility.yul\":25527:25547   */\n      tag_311\n      jump\t// in\n    tag_600:\n        /* \"#utility.yul\":25522:25547   */\n      swap2\n      pop\n        /* \"#utility.yul\":25561:25581   */\n      tag_601\n        /* \"#utility.yul\":25579:25580   */\n      dup4\n        /* \"#utility.yul\":25561:25581   */\n      tag_311\n      jump\t// in\n    tag_601:\n        /* \"#utility.yul\":25556:25581   */\n      swap3\n      pop\n        /* \"#utility.yul\":25604:25605   */\n      dup3\n        /* \"#utility.yul\":25601:25602   */\n      dup3\n        /* \"#utility.yul\":25597:25606   */\n      add\n        /* \"#utility.yul\":25590:25606   */\n      swap1\n      pop\n        /* \"#utility.yul\":25625:25628   */\n      dup1\n        /* \"#utility.yul\":25622:25623   */\n      dup3\n        /* \"#utility.yul\":25619:25629   */\n      gt\n        /* \"#utility.yul\":25616:25652   */\n      iszero\n      tag_602\n      jumpi\n        /* \"#utility.yul\":25632:25650   */\n      tag_603\n      tag_351\n      jump\t// in\n    tag_603:\n        /* \"#utility.yul\":25616:25652   */\n    tag_602:\n        /* \"#utility.yul\":25468:25659   */\n      swap3\n      swap2\n      pop\n      pop\n      jump\t// out\n        /* \"#utility.yul\":25665:25829   */\n    tag_373:\n        /* \"#utility.yul\":25805:25821   */\n      0x496e76616c69642073656c6c6572000000000000000000000000000000000000\n        /* \"#utility.yul\":25801:25802   */\n      0x00\n        /* \"#utility.yul\":25793:25799   */\n      dup3\n        /* \"#utility.yul\":25789:25803   */\n      add\n        /* \"#utility.yul\":25782:25822   */\n      mstore\n        /* \"#utility.yul\":25665:25829   */\n      pop\n      jump\t// out\n        /* \"#utility.yul\":25835:26201   */\n    tag_374:\n        /* \"#utility.yul\":25977:25980   */\n      0x00\n        /* \"#utility.yul\":25998:26065   */\n      tag_606\n        /* \"#utility.yul\":26062:26064   */\n      0x0e\n        /* \"#utility.yul\":26057:26060   */\n      dup4\n        /* \"#utility.yul\":25998:26065   */\n      tag_305\n      jump\t// in\n    tag_606:\n        /* \"#utility.yul\":25991:26065   */\n      swap2\n      pop\n        /* \"#utility.yul\":26074:26167   */\n      tag_607\n        /* \"#utility.yul\":26163:26166   */\n      dup3\n        /* \"#utility.yul\":26074:26167   */\n      tag_373\n      jump\t// in\n    tag_607:\n        /* \"#utility.yul\":26192:26194   */\n      0x20\n        /* \"#utility.yul\":26187:26190   */\n      dup3\n        /* \"#utility.yul\":26183:26195   */\n      add\n        /* \"#utility.yul\":26176:26195   */\n      swap1\n      pop\n        /* \"#utility.yul\":25835:26201   */\n      swap2\n      swap1\n      pop\n      jump\t// out\n        /* \"#utility.yul\":26207:26626   */\n    tag_256:\n        /* \"#utility.yul\":26373:26377   */\n      0x00\n        /* \"#utility.yul\":26411:26413   */\n      0x20\n        /* \"#utility.yul\":26400:26409   */\n      dup3\n        /* \"#utility.yul\":26396:26414   */\n      add\n        /* \"#utility.yul\":26388:26414   */\n      swap1\n      pop\n        /* \"#utility.yul\":26460:26469   */\n      dup2\n        /* \"#utility.yul\":26454:26458   */\n      dup2\n        /* \"#utility.yul\":26450:26470   */\n      sub\n        /* \"#utility.yul\":26446:26447   */\n      0x00\n        /* \"#utility.yul\":26435:26444   */\n      dup4\n        /* \"#utility.yul\":26431:26448   */\n      add\n        /* \"#utility.yul\":26424:26471   */\n      mstore\n        /* \"#utility.yul\":26488:26619   */\n      tag_609\n        /* \"#utility.yul\":26614:26618   */\n      dup2\n        /* \"#utility.yul\":26488:26619   */\n      tag_374\n      jump\t// in\n    tag_609:\n        /* \"#utility.yul\":26480:26619   */\n      swap1\n      pop\n        /* \"#utility.yul\":26207:26626   */\n      swap2\n      swap1\n      pop\n      jump\t// out\n        /* \"#utility.yul\":26632:26865   */\n    tag_258:\n        /* \"#utility.yul\":26671:26674   */\n      0x00\n        /* \"#utility.yul\":26694:26718   */\n      tag_611\n        /* \"#utility.yul\":26712:26717   */\n      dup3\n        /* \"#utility.yul\":26694:26718   */\n      tag_311\n      jump\t// in\n    tag_611:\n        /* \"#utility.yul\":26685:26718   */\n      swap2\n      pop\n        /* \"#utility.yul\":26740:26806   */\n      0xffffffffffffffffffffffffffffffffffffffffffffffffffffffffffffffff\n        /* \"#utility.yul\":26733:26738   */\n      dup3\n        /* \"#utility.yul\":26730:26807   */\n      sub\n        /* \"#utility.yul\":26727:26830   */\n      tag_612\n      jumpi\n        /* \"#utility.yul\":26810:26828   */\n      tag_613\n      tag_351\n      jump\t// in\n    tag_613:\n        /* \"#utility.yul\":26727:26830   */\n    tag_612:\n        /* \"#utility.yul\":26857:26858   */\n      0x01\n        /* \"#utility.yul\":26850:26855   */\n      dup3\n        /* \"#utility.yul\":26846:26859   */\n      add\n        /* \"#utility.yul\":26839:26859   */\n      swap1\n      pop\n        /* \"#utility.yul\":26632:26865   */\n      swap2\n      swap1\n      pop\n      jump\t// out\n        /* \"#utility.yul\":26871:26931   */\n    tag_375:\n        /* \"#utility.yul\":26899:26902   */\n      0x00\n        /* \"#utility.yul\":26920:26925   */\n      dup2\n        /* \"#utility.yul\":26913:26925   */\n      swap1\n      pop\n        /* \"#utility.yul\":26871:26931   */\n      swap2\n      swap1\n      pop\n      jump\t// out\n        /* \"#utility.yul\":26937:27079   */\n    tag_376:\n        /* \"#utility.yul\":26987:26996   */\n      0x00\n        /* \"#utility.yul\":27020:27073   */\n      tag_616\n        /* \"#utility.yul\":27038:27072   */\n      tag_617\n        /* \"#utility.yul\":27047:27071   */\n      tag_618\n        /* \"#utility.yul\":27065:27070   */\n      dup5\n        /* \"#utility.yul\":27047:27071   */\n      tag_315\n      jump\t// in\n    tag_618:\n        /* \"#utility.yul\":27038:27072   */\n      tag_375\n      jump\t// in\n    tag_617:\n        /* \"#utility.yul\":27020:27073   */\n      tag_315\n      jump\t// in\n    tag_616:\n        /* \"#utility.yul\":27007:27073   */\n      swap1\n      pop\n        /* \"#utility.yul\":26937:27079   */\n      swap2\n      swap1\n      pop\n      jump\t// out\n        /* \"#utility.yul\":27085:27211   */\n    tag_377:\n        /* \"#utility.yul\":27135:27144   */\n      0x00\n        /* \"#utility.yul\":27168:27205   */\n      tag_620\n        /* \"#utility.yul\":27199:27204   */\n      dup3\n        /* \"#utility.yul\":27168:27205   */\n      tag_376\n      jump\t// in\n    tag_620:\n        /* \"#utility.yul\":27155:27205   */\n      swap1\n      pop\n        /* \"#utility.yul\":27085:27211   */\n      swap2\n      swap1\n      pop\n      jump\t// out\n        /* \"#utility.yul\":27217:27351   */\n    tag_378:\n        /* \"#utility.yul\":27275:27284   */\n      0x00\n        /* \"#utility.yul\":27308:27345   */\n      tag_622\n        /* \"#utility.yul\":27339:27344   */\n      dup3\n        /* \"#utility.yul\":27308:27345   */\n      tag_377\n      jump\t// in\n    tag_622:\n        /* \"#utility.yul\":27295:27345   */\n      swap1\n      pop\n        /* \"#utility.yul\":27217:27351   */\n      swap2\n      swap1\n      pop\n      jump\t// out\n        /* \"#utility.yul\":27357:27504   */\n    tag_379:\n        /* \"#utility.yul\":27452:27497   */\n      tag_624\n        /* \"#utility.yul\":27491:27496   */\n      dup2\n        /* \"#utility.yul\":27452:27497   */\n      tag_378\n      jump\t// in\n    tag_624:\n        /* \"#utility.yul\":27447:27450   */\n      dup3\n        /* \"#utility.yul\":27440:27498   */\n      mstore\n        /* \"#utility.yul\":27357:27504   */\n      pop\n      pop\n      jump\t// out\n        /* \"#utility.yul\":27510:27858   */\n    tag_264:\n        /* \"#utility.yul\":27639:27643   */\n      0x00\n        /* \"#utility.yul\":27677:27679   */\n      0x40\n        /* \"#utility.yul\":27666:27675   */\n      dup3\n        /* \"#utility.yul\":27662:27680   */\n      add\n        /* \"#utility.yul\":27654:27680   */\n      swap1\n      pop\n        /* \"#utility.yul\":27690:27761   */\n      tag_626\n        /* \"#utility.yul\":27758:27759   */\n      0x00\n        /* \"#utility.yul\":27747:27756   */\n      dup4\n        /* \"#utility.yul\":27743:27760   */\n      add\n        /* \"#utility.yul\":27734:27740   */\n      dup6\n        /* \"#utility.yul\":27690:27761   */\n      tag_334\n      jump\t// in\n    tag_626:\n        /* \"#utility.yul\":27771:27851   */\n      tag_627\n        /* \"#utility.yul\":27847:27849   */\n      0x20\n        /* \"#utility.yul\":27836:27845   */\n      dup4\n        /* \"#utility.yul\":27832:27850   */\n      add\n        /* \"#utility.yul\":27823:27829   */\n      dup5\n        /* \"#utility.yul\":27771:27851   */\n      tag_379\n      jump\t// in\n    tag_627:\n        /* \"#utility.yul\":27510:27858   */\n      swap4\n      swap3\n      pop\n      pop\n      pop\n      jump\t// out\n        /* \"#utility.yul\":27864:28045   */\n    tag_380:\n        /* \"#utility.yul\":28004:28037   */\n      0x5265656e7472616e637947756172643a207265656e7472616e742063616c6c00\n        /* \"#utility.yul\":28000:28001   */\n      0x00\n        /* \"#utility.yul\":27992:27998   */\n      dup3\n        /* \"#utility.yul\":27988:28002   */\n      add\n        /* \"#utility.yul\":27981:28038   */\n      mstore\n        /* \"#utility.yul\":27864:28045   */\n      pop\n      jump\t// out\n        /* \"#utility.yul\":28051:28417   */\n    tag_381:\n        /* \"#utility.yul\":28193:28196   */\n      0x00\n        /* \"#utility.yul\":28214:28281   */\n      tag_630\n        /* \"#utility.yul\":28278:28280   */\n      0x1f\n        /* \"#utility.yul\":28273:28276   */\n      dup4\n        /* \"#utility.yul\":28214:28281   */\n      tag_305\n      jump\t// in\n    tag_630:\n        /* \"#utility.yul\":28207:28281   */\n      swap2\n      pop\n        /* \"#utility.yul\":28290:28383   */\n      tag_631\n        /* \"#utility.yul\":28379:28382   */\n      dup3\n        /* \"#utility.yul\":28290:28383   */\n      tag_380\n      jump\t// in\n    tag_631:\n        /* \"#utility.yul\":28408:28410   */\n      0x20\n        /* \"#utility.yul\":28403:28406   */\n      dup3\n        /* \"#utility.yul\":28399:28411   */\n      add\n        /* \"#utility.yul\":28392:28411   */\n      swap1\n      pop\n        /* \"#utility.yul\":28051:28417   */\n      swap2\n      swap1\n      pop\n      jump\t// out\n        /* \"#utility.yul\":28423:28842   */\n    tag_292:\n        /* \"#utility.yul\":28589:28593   */\n      0x00\n        /* \"#utility.yul\":28627:28629   */\n      0x20\n        /* \"#utility.yul\":28616:28625   */\n      dup3\n        /* \"#utility.yul\":28612:28630   */\n      add\n        /* \"#utility.yul\":28604:28630   */\n      swap1\n      pop\n        /* \"#utility.yul\":28676:28685   */\n      dup2\n        /* \"#utility.yul\":28670:28674   */\n      dup2\n        /* \"#utility.yul\":28666:28686   */\n      sub\n        /* \"#utility.yul\":28662:28663   */\n      0x00\n        /* \"#utility.yul\":28651:28660   */\n      dup4\n        /* \"#utility.yul\":28647:28664   */\n      add\n        /* \"#utility.yul\":28640:28687   */\n      mstore\n        /* \"#utility.yul\":28704:28835   */\n      tag_633\n        /* \"#utility.yul\":28830:28834   */\n      dup2\n        /* \"#utility.yul\":28704:28835   */\n      tag_381\n      jump\t// in\n    tag_633:\n        /* \"#utility.yul\":28696:28835   */\n      swap1\n      pop\n        /* \"#utility.yul\":28423:28842   */\n      swap2\n      swap1\n      pop\n      jump\t// out\n\n    auxdata: 0xa26469706673582212207d1e4de4e8c629f0f997d7885631f83db0d471c6fe14e8ac79837a29aab1790964736f6c63430008220033\n}\n",
				"bytecode": {
					"linkReferences": {},
					"object": "608060405234801561000f575f5ffd5b503360015f819055505f73ffffffffffffffffffffffffffffffffffffffff168173ffffffffffffffffffffffffffffffffffffffff1603610088575f6040517f1e4fbdf700000000000000000000000000000000000000000000000000000000815260040161007f919061019f565b60405180910390fd5b6100978161009d60201b60201c565b506101b8565b5f60015f9054906101000a900473ffffffffffffffffffffffffffffffffffffffff1690508160015f6101000a81548173ffffffffffffffffffffffffffffffffffffffff021916908373ffffffffffffffffffffffffffffffffffffffff1602179055508173ffffffffffffffffffffffffffffffffffffffff168173ffffffffffffffffffffffffffffffffffffffff167f8be0079c531659141344cd1fd0a4f28419497f9722a3daafe3b4186f6b6457e060405160405180910390a35050565b5f73ffffffffffffffffffffffffffffffffffffffff82169050919050565b5f61018982610160565b9050919050565b6101998161017f565b82525050565b5f6020820190506101b25f830184610190565b92915050565b612859806101c55f395ff3fe6080604052600436106100eb575f3560e01c8063a5c1674e11610089578063ee2d865711610058578063ee2d865714610310578063f2fde38b1461033a578063f6a8419e14610362578063fd84cb971461039e5761012b565b8063a5c1674e1461027a578063b592d3a1146102a2578063b6b55f25146102ca578063c7ceafea146102e65761012b565b8063715018a6116100c5578063715018a6146101c05780637d19e596146101d65780638da5cb5b14610212578063942e6bcf1461023c5761012b565b8063012f52ee1461012f57806334b25ee21461017057806361d689fa146101985761012b565b3661012b576040517f08c379a000000000000000000000000000000000000000000000000000000000815260040161012290611b87565b60405180910390fd5b5f5ffd5b34801561013a575f5ffd5b5061015560048036038101906101509190611bdc565b6103c6565b60405161016796959493929190611ce2565b60405180910390f35b34801561017b575f5ffd5b5061019660048036038101906101919190611d6b565b610455565b005b3480156101a3575f5ffd5b506101be60048036038101906101b99190611dcc565b6108fa565b005b3480156101cb575f5ffd5b506101d4610b27565b005b3480156101e1575f5ffd5b506101fc60048036038101906101f79190611bdc565b610b3a565b6040516102099190611eac565b60405180910390f35b34801561021d575f5ffd5b50610226610c77565b6040516102339190611ee5565b60405180910390f35b348015610247575f5ffd5b50610262600480360381019061025d9190611f28565b610c9f565b60405161027193929190611f99565b60405180910390f35b348015610285575f5ffd5b506102a0600480360381019061029b9190611bdc565b610cdd565b005b3480156102ad575f5ffd5b506102c860048036038101906102c39190611f28565b610eb9565b005b6102e460048036038101906102df9190611bdc565b611010565b005b3480156102f1575f5ffd5b506102fa611269565b6040516103079190611fce565b60405180910390f35b34801561031b575f5ffd5b5061032461126f565b6040516103319190611fce565b60405180910390f35b348015610345575f5ffd5b50610360600480360381019061035b9190611f28565b611275565b005b34801561036d575f5ffd5b5061038860048036038101906103839190612011565b6112f9565b6040516103959190611fce565b60405180910390f35b3480156103a9575f5ffd5b506103c460048036038101906103bf9190611bdc565b611630565b005b6005602052805f5260405f205f91509050805f015490806001015f9054906101000a900473ffffffffffffffffffffffffffffffffffffffff1690806002015f9054906101000a900473ffffffffffffffffffffffffffffffffffffffff1690806003015490806004015f9054906101000a900460ff16908060040160019054906101000a900460ff16905086565b61045d611916565b8160055f8281526020019081526020015f2060040160019054906101000a900460ff166104bf576040517f08c379a00000000000000000000000000000000000000000000000000000000081526004016104b690612086565b60405180910390fd5b60038060038111156104d4576104d3611c55565b5b60045f3373ffffffffffffffffffffffffffffffffffffffff1673ffffffffffffffffffffffffffffffffffffffff1681526020019081526020015f205f015f9054906101000a900460ff16600381111561053257610531611c55565b5b14610572576040517f08c379a0000000000000000000000000000000000000000000000000000000008152600401610569906120ee565b60405180910390fd5b60045f3373ffffffffffffffffffffffffffffffffffffffff1673ffffffffffffffffffffffffffffffffffffffff1681526020019081526020015f205f0160019054906101000a900460ff166105fe576040517f08c379a00000000000000000000000000000000000000000000000000000000081526004016105f590612156565b60405180910390fd5b5f60055f8681526020019081526020015f2090506003600481111561062657610625611c55565b5b816004015f9054906101000a900460ff16600481111561064957610648611c55565b5b14610689576040517f08c379a0000000000000000000000000000000000000000000000000000000008152600401610680906121be565b60405180910390fd5b806003015460035f82825461069e9190612209565b925050819055505f816003015490505f826003018190555084156107b9576002826004015f6101000a81548160ff021916908360048111156106e3576106e2611c55565b5b02179055505f826002015f9054906101000a900473ffffffffffffffffffffffffffffffffffffffff1673ffffffffffffffffffffffffffffffffffffffff168260405161073090612269565b5f6040518083038185875af1925050503d805f811461076a576040519150601f19603f3d011682016040523d82523d5f602084013e61076f565b606091505b50509050806107b3576040517f08c379a00000000000000000000000000000000000000000000000000000000081526004016107aa906122c7565b60405180910390fd5b506108b2565b6004826004015f6101000a81548160ff021916908360048111156107e0576107df611c55565b5b02179055505f826001015f9054906101000a900473ffffffffffffffffffffffffffffffffffffffff1673ffffffffffffffffffffffffffffffffffffffff168260405161082d90612269565b5f6040518083038185875af1925050503d805f8114610867576040519150601f19603f3d011682016040523d82523d5f602084013e61086c565b606091505b50509050806108b0576040517f08c379a00000000000000000000000000000000000000000000000000000000081526004016108a79061232f565b60405180910390fd5b505b857fe940c2f4a2e1dda6ea582b576e35520a2ec6b80e436c26962c1150ddd7d07993866040516108e2919061234d565b60405180910390a2505050506108f6611963565b5050565b5f600381111561090d5761090c611c55565b5b8160038111156109205761091f611c55565b5b03610960576040517f08c379a0000000000000000000000000000000000000000000000000000000008152600401610957906120ee565b60405180910390fd5b5f600381111561097357610972611c55565b5b60045f3373ffffffffffffffffffffffffffffffffffffffff1673ffffffffffffffffffffffffffffffffffffffff1681526020019081526020015f205f015f9054906101000a900460ff1660038111156109d1576109d0611c55565b5b14610a11576040517f08c379a0000000000000000000000000000000000000000000000000000000008152600401610a08906123b0565b60405180910390fd5b6040518060600160405280826003811115610a2f57610a2e611c55565b5b81526020015f151581526020014281525060045f3373ffffffffffffffffffffffffffffffffffffffff1673ffffffffffffffffffffffffffffffffffffffff1681526020019081526020015f205f820151815f015f6101000a81548160ff02191690836003811115610aa557610aa4611c55565b5b02179055506020820151815f0160016101000a81548160ff021916908315150217905550604082015181600101559050503373ffffffffffffffffffffffffffffffffffffffff167f8e18574f8a7333e6a87112742a55853a643e2f0550f4e1a3a2c3f1bb2994441d82604051610b1c91906123ce565b60405180910390a250565b610b2f61196c565b610b385f6119f3565b565b610b42611abd565b60055f8381526020019081526020015f206040518060c00160405290815f8201548152602001600182015f9054906101000a900473ffffffffffffffffffffffffffffffffffffffff1673ffffffffffffffffffffffffffffffffffffffff1673ffffffffffffffffffffffffffffffffffffffff168152602001600282015f9054906101000a900473ffffffffffffffffffffffffffffffffffffffff1673ffffffffffffffffffffffffffffffffffffffff1673ffffffffffffffffffffffffffffffffffffffff16815260200160038201548152602001600482015f9054906101000a900460ff166004811115610c3f57610c3e611c55565b5b6004811115610c5157610c50611c55565b5b81526020016004820160019054906101000a900460ff1615151515815250509050919050565b5f60015f9054906101000a900473ffffffffffffffffffffffffffffffffffffffff16905090565b6004602052805f5260405f205f91509050805f015f9054906101000a900460ff1690805f0160019054906101000a900460ff16908060010154905083565b8060055f8281526020019081526020015f2060040160019054906101000a900460ff16610d3f576040517f08c379a0000000000000000000000000000000000000000000000000000000008152600401610d3690612086565b60405180910390fd5b5f60055f8481526020019081526020015f209050806001015f9054906101000a900473ffffffffffffffffffffffffffffffffffffffff1673ffffffffffffffffffffffffffffffffffffffff163373ffffffffffffffffffffffffffffffffffffffff1614610de4576040517f08c379a0000000000000000000000000000000000000000000000000000000008152600401610ddb90612431565b60405180910390fd5b60016004811115610df857610df7611c55565b5b816004015f9054906101000a900460ff166004811115610e1b57610e1a611c55565b5b14610e5b576040517f08c379a0000000000000000000000000000000000000000000000000000000008152600401610e5290612499565b60405180910390fd5b6003816004015f6101000a81548160ff02191690836004811115610e8257610e81611c55565b5b0217905550827f7e3d476b0ad3176eefadbd6672356ef3884fad75f1344623a88d4a808784233660405160405180910390a2505050565b610ec161196c565b600380811115610ed457610ed3611c55565b5b60045f8373ffffffffffffffffffffffffffffffffffffffff1673ffffffffffffffffffffffffffffffffffffffff1681526020019081526020015f205f015f9054906101000a900460ff166003811115610f3257610f31611c55565b5b14610f72576040517f08c379a0000000000000000000000000000000000000000000000000000000008152600401610f6990612501565b60405180910390fd5b600160045f8373ffffffffffffffffffffffffffffffffffffffff1673ffffffffffffffffffffffffffffffffffffffff1681526020019081526020015f205f0160016101000a81548160ff0219169083151502179055508073ffffffffffffffffffffffffffffffffffffffff167fd85319faaa66ce15d8bd9cea58b03d0761cc5cdf60e879fb16dc07ab954933ee60405160405180910390a250565b611018611916565b8060055f8281526020019081526020015f2060040160019054906101000a900460ff1661107a576040517f08c379a000000000000000000000000000000000000000000000000000000000815260040161107190612086565b60405180910390fd5b5f60055f8481526020019081526020015f209050806001015f9054906101000a900473ffffffffffffffffffffffffffffffffffffffff1673ffffffffffffffffffffffffffffffffffffffff163373ffffffffffffffffffffffffffffffffffffffff161461111f576040517f08c379a000000000000000000000000000000000000000000000000000000000815260040161111690612569565b60405180910390fd5b5f600481111561113257611131611c55565b5b816004015f9054906101000a900460ff16600481111561115557611154611c55565b5b14611195576040517f08c379a000000000000000000000000000000000000000000000000000000000815260040161118c906125d1565b60405180910390fd5b5f34116111d7576040517f08c379a00000000000000000000000000000000000000000000000000000000081526004016111ce90612639565b60405180910390fd5b3481600301819055506001816004015f6101000a81548160ff0219169083600481111561120757611206611c55565b5b02179055503460035f82825461121d9190612657565b92505081905550827f06da3309189fa49284f335d2c2bcb4cb0b8ad2a59ad92a9bdebeeb8f1ceba511346040516112549190611fce565b60405180910390a25050611266611963565b50565b60025481565b60035481565b61127d61196c565b5f73ffffffffffffffffffffffffffffffffffffffff168173ffffffffffffffffffffffffffffffffffffffff16036112ed575f6040517f1e4fbdf70000000000000000000000000000000000000000000000000000000081526004016112e49190611ee5565b60405180910390fd5b6112f6816119f3565b50565b5f600180600381111561130f5761130e611c55565b5b60045f3373ffffffffffffffffffffffffffffffffffffffff1673ffffffffffffffffffffffffffffffffffffffff1681526020019081526020015f205f015f9054906101000a900460ff16600381111561136d5761136c611c55565b5b146113ad576040517f08c379a00000000000000000000000000000000000000000000000000000000081526004016113a4906120ee565b60405180910390fd5b600260038111156113c1576113c0611c55565b5b60045f8573ffffffffffffffffffffffffffffffffffffffff1673ffffffffffffffffffffffffffffffffffffffff1681526020019081526020015f205f015f9054906101000a900460ff16600381111561141f5761141e611c55565b5b1461145f576040517f08c379a0000000000000000000000000000000000000000000000000000000008152600401611456906126d4565b60405180910390fd5b60025f815480929190611471906126f2565b91905055506040518060c0016040528060025481526020013373ffffffffffffffffffffffffffffffffffffffff1681526020018473ffffffffffffffffffffffffffffffffffffffff1681526020015f81526020015f60048111156114da576114d9611c55565b5b81526020016001151581525060055f60025481526020019081526020015f205f820151815f01556020820151816001015f6101000a81548173ffffffffffffffffffffffffffffffffffffffff021916908373ffffffffffffffffffffffffffffffffffffffff1602179055506040820151816002015f6101000a81548173ffffffffffffffffffffffffffffffffffffffff021916908373ffffffffffffffffffffffffffffffffffffffff160217905550606082015181600301556080820151816004015f6101000a81548160ff021916908360048111156115c1576115c0611c55565b5b021790555060a08201518160040160016101000a81548160ff0219169083151502179055509050506002547fcc50a4e95294d36f3e612eabd37417678a3c52eb30d18039a0b2ed5cff4cfc0f338560405161161d929190612794565b60405180910390a2600254915050919050565b611638611916565b8060055f8281526020019081526020015f2060040160019054906101000a900460ff1661169a576040517f08c379a000000000000000000000000000000000000000000000000000000000815260040161169190612086565b60405180910390fd5b5f60055f8481526020019081526020015f209050806001015f9054906101000a900473ffffffffffffffffffffffffffffffffffffffff1673ffffffffffffffffffffffffffffffffffffffff163373ffffffffffffffffffffffffffffffffffffffff161461173f576040517f08c379a000000000000000000000000000000000000000000000000000000000815260040161173690612569565b60405180910390fd5b6001600481111561175357611752611c55565b5b816004015f9054906101000a900460ff16600481111561177657611775611c55565b5b146117b6576040517f08c379a00000000000000000000000000000000000000000000000000000000081526004016117ad906125d1565b60405180910390fd5b6002816004015f6101000a81548160ff021916908360048111156117dd576117dc611c55565b5b0217905550806003015460035f8282546117f79190612209565b925050819055505f816003015490505f82600301819055505f826002015f9054906101000a900473ffffffffffffffffffffffffffffffffffffffff1673ffffffffffffffffffffffffffffffffffffffff168260405161185790612269565b5f6040518083038185875af1925050503d805f8114611891576040519150601f19603f3d011682016040523d82523d5f602084013e611896565b606091505b50509050806118da576040517f08c379a00000000000000000000000000000000000000000000000000000000081526004016118d1906122c7565b60405180910390fd5b847ffb81f9b30d73d830c3544b34d827c08142579ee75710b490bab0b3995468c56560405160405180910390a250505050611913611963565b50565b60025f540361195a576040517f08c379a000000000000000000000000000000000000000000000000000000000815260040161195190612805565b60405180910390fd5b60025f81905550565b60015f81905550565b611974611ab6565b73ffffffffffffffffffffffffffffffffffffffff16611992610c77565b73ffffffffffffffffffffffffffffffffffffffff16146119f1576119b5611ab6565b6040517f118cdaa70000000000000000000000000000000000000000000000000000000081526004016119e89190611ee5565b60405180910390fd5b565b5f60015f9054906101000a900473ffffffffffffffffffffffffffffffffffffffff1690508160015f6101000a81548173ffffffffffffffffffffffffffffffffffffffff021916908373ffffffffffffffffffffffffffffffffffffffff1602179055508173ffffffffffffffffffffffffffffffffffffffff168173ffffffffffffffffffffffffffffffffffffffff167f8be0079c531659141344cd1fd0a4f28419497f9722a3daafe3b4186f6b6457e060405160405180910390a35050565b5f33905090565b6040518060c001604052805f81526020015f73ffffffffffffffffffffffffffffffffffffffff1681526020015f73ffffffffffffffffffffffffffffffffffffffff1681526020015f81526020015f6004811115611b1f57611b1e611c55565b5b81526020015f151581525090565b5f82825260208201905092915050565b7f446972656374207061796d656e7473206e6f7420616c6c6f77656400000000005f82015250565b5f611b71601b83611b2d565b9150611b7c82611b3d565b602082019050919050565b5f6020820190508181035f830152611b9e81611b65565b9050919050565b5f5ffd5b5f819050919050565b611bbb81611ba9565b8114611bc5575f5ffd5b50565b5f81359050611bd681611bb2565b92915050565b5f60208284031215611bf157611bf0611ba5565b5b5f611bfe84828501611bc8565b91505092915050565b611c1081611ba9565b82525050565b5f73ffffffffffffffffffffffffffffffffffffffff82169050919050565b5f611c3f82611c16565b9050919050565b611c4f81611c35565b82525050565b7f4e487b71000000000000000000000000000000000000000000000000000000005f52602160045260245ffd5b60058110611c9357611c92611c55565b5b50565b5f819050611ca382611c82565b919050565b5f611cb282611c96565b9050919050565b611cc281611ca8565b82525050565b5f8115159050919050565b611cdc81611cc8565b82525050565b5f60c082019050611cf55f830189611c07565b611d026020830188611c46565b611d0f6040830187611c46565b611d1c6060830186611c07565b611d296080830185611cb9565b611d3660a0830184611cd3565b979650505050505050565b611d4a81611cc8565b8114611d54575f5ffd5b50565b5f81359050611d6581611d41565b92915050565b5f5f60408385031215611d8157611d80611ba5565b5b5f611d8e85828601611bc8565b9250506020611d9f85828601611d57565b9150509250929050565b60048110611db5575f5ffd5b50565b5f81359050611dc681611da9565b92915050565b5f60208284031215611de157611de0611ba5565b5b5f611dee84828501611db8565b91505092915050565b611e0081611ba9565b82525050565b611e0f81611c35565b82525050565b611e1e81611ca8565b82525050565b611e2d81611cc8565b82525050565b60c082015f820151611e475f850182611df7565b506020820151611e5a6020850182611e06565b506040820151611e6d6040850182611e06565b506060820151611e806060850182611df7565b506080820151611e936080850182611e15565b5060a0820151611ea660a0850182611e24565b50505050565b5f60c082019050611ebf5f830184611e33565b92915050565b5f611ecf82611c16565b9050919050565b611edf81611ec5565b82525050565b5f602082019050611ef85f830184611ed6565b92915050565b611f0781611ec5565b8114611f11575f5ffd5b50565b5f81359050611f2281611efe565b92915050565b5f60208284031215611f3d57611f3c611ba5565b5b5f611f4a84828501611f14565b91505092915050565b60048110611f6457611f63611c55565b5b50565b5f819050611f7482611f53565b919050565b5f611f8382611f67565b9050919050565b611f9381611f79565b82525050565b5f606082019050611fac5f830186611f8a565b611fb96020830185611cd3565b611fc66040830184611c07565b949350505050565b5f602082019050611fe15f830184611c07565b92915050565b611ff081611c35565b8114611ffa575f5ffd5b50565b5f8135905061200b81611fe7565b92915050565b5f6020828403121561202657612025611ba5565b5b5f61203384828501611ffd565b91505092915050565b7f457363726f7720646f6573206e6f7420657869737400000000000000000000005f82015250565b5f612070601583611b2d565b915061207b8261203c565b602082019050919050565b5f6020820190508181035f83015261209d81612064565b9050919050565b7f496e76616c696420726f6c6500000000000000000000000000000000000000005f82015250565b5f6120d8600c83611b2d565b91506120e3826120a4565b602082019050919050565b5f6020820190508181035f830152612105816120cc565b9050919050565b7f41726269746572206e6f7420617070726f7665640000000000000000000000005f82015250565b5f612140601483611b2d565b915061214b8261210c565b602082019050919050565b5f6020820190508181035f83015261216d81612134565b9050919050565b7f4e6f7420646973707574656400000000000000000000000000000000000000005f82015250565b5f6121a8600c83611b2d565b91506121b382612174565b602082019050919050565b5f6020820190508181035f8301526121d58161219c565b9050919050565b7f4e487b71000000000000000000000000000000000000000000000000000000005f52601160045260245ffd5b5f61221382611ba9565b915061221e83611ba9565b9250828203905081811115612236576122356121dc565b5b92915050565b5f81905092915050565b50565b5f6122545f8361223c565b915061225f82612246565b5f82019050919050565b5f61227382612249565b9150819050919050565b7f5472616e73666572206661696c656400000000000000000000000000000000005f82015250565b5f6122b1600f83611b2d565b91506122bc8261227d565b602082019050919050565b5f6020820190508181035f8301526122de816122a5565b9050919050565b7f526566756e64206661696c6564000000000000000000000000000000000000005f82015250565b5f612319600d83611b2d565b9150612324826122e5565b602082019050919050565b5f6020820190508181035f8301526123468161230d565b9050919050565b5f6020820190506123605f830184611cd3565b92915050565b7f416c7265616479207265676973746572656400000000000000000000000000005f82015250565b5f61239a601283611b2d565b91506123a582612366565b602082019050919050565b5f6020820190508181035f8301526123c78161238e565b9050919050565b5f6020820190506123e15f830184611f8a565b92915050565b7f4f6e6c792062757965722063616e2064697370757465000000000000000000005f82015250565b5f61241b601683611b2d565b9150612426826123e7565b602082019050919050565b5f6020820190508181035f8301526124488161240f565b9050919050565b7f43616e6e6f7420646973707574650000000000000000000000000000000000005f82015250565b5f612483600e83611b2d565b915061248e8261244f565b602082019050919050565b5f6020820190508181035f8301526124b081612477565b9050919050565b7f4e6f7420616e20617262697465720000000000000000000000000000000000005f82015250565b5f6124eb600e83611b2d565b91506124f6826124b7565b602082019050919050565b5f6020820190508181035f830152612518816124df565b9050919050565b7f4e6f7420627579657200000000000000000000000000000000000000000000005f82015250565b5f612553600983611b2d565b915061255e8261251f565b602082019050919050565b5f6020820190508181035f83015261258081612547565b9050919050565b7f496e76616c6964207374617465000000000000000000000000000000000000005f82015250565b5f6125bb600d83611b2d565b91506125c682612587565b602082019050919050565b5f6020820190508181035f8301526125e8816125af565b9050919050565b7f4d7573742073656e6420455448000000000000000000000000000000000000005f82015250565b5f612623600d83611b2d565b915061262e826125ef565b602082019050919050565b5f6020820190508181035f83015261265081612617565b9050919050565b5f61266182611ba9565b915061266c83611ba9565b9250828201905080821115612684576126836121dc565b5b92915050565b7f496e76616c69642073656c6c65720000000000000000000000000000000000005f82015250565b5f6126be600e83611b2d565b91506126c98261268a565b602082019050919050565b5f6020820190508181035f8301526126eb816126b2565b9050919050565b5f6126fc82611ba9565b91507fffffffffffffffffffffffffffffffffffffffffffffffffffffffffffffffff820361272e5761272d6121dc565b5b600182019050919050565b5f819050919050565b5f61275c61275761275284611c16565b612739565b611c16565b9050919050565b5f61276d82612742565b9050919050565b5f61277e82612763565b9050919050565b61278e81612774565b82525050565b5f6040820190506127a75f830185611ed6565b6127b46020830184612785565b9392505050565b7f5265656e7472616e637947756172643a207265656e7472616e742063616c6c005f82015250565b5f6127ef601f83611b2d565b91506127fa826127bb565b602082019050919050565b5f6020820190508181035f83015261281c816127e3565b905091905056fea26469706673582212207d1e4de4e8c629f0f997d7885631f83db0d471c6fe14e8ac79837a29aab1790964736f6c63430008220033",
					"opcodes": "PUSH1 0x80 PUSH1 0x40 MSTORE CALLVALUE DUP1 ISZERO PUSH2 0xF JUMPI PUSH0 PUSH0 REVERT JUMPDEST POP CALLER PUSH1 0x1 PUSH0 DUP2 SWAP1 SSTORE POP PUSH0 PUSH20 0xFFFFFFFFFFFFFFFFFFFFFFFFFFFFFFFFFFFFFFFF AND DUP2 PUSH20 0xFFFFFFFFFFFFFFFFFFFFFFFFFFFFFFFFFFFFFFFF AND SUB PUSH2 0x88 JUMPI PUSH0 PUSH1 0x40 MLOAD PUSH32 0x1E4FBDF700000000000000000000000000000000000000000000000000000000 DUP2 MSTORE PUSH1 0x4 ADD PUSH2 0x7F SWAP2 SWAP1 PUSH2 0x19F JUMP JUMPDEST PUSH1 0x40 MLOAD DUP1 SWAP2 SUB SWAP1 REVERT JUMPDEST PUSH2 0x97 DUP2 PUSH2 0x9D PUSH1 0x20 SHL PUSH1 0x20 SHR JUMP JUMPDEST POP PUSH2 0x1B8 JUMP JUMPDEST PUSH0 PUSH1 0x1 PUSH0 SWAP1 SLOAD SWAP1 PUSH2 0x100 EXP SWAP1 DIV PUSH20 0xFFFFFFFFFFFFFFFFFFFFFFFFFFFFFFFFFFFFFFFF AND SWAP1 POP DUP2 PUSH1 0x1 PUSH0 PUSH2 0x100 EXP DUP2 SLOAD DUP2 PUSH20 0xFFFFFFFFFFFFFFFFFFFFFFFFFFFFFFFFFFFFFFFF MUL NOT AND SWAP1 DUP4 PUSH20 0xFFFFFFFFFFFFFFFFFFFFFFFFFFFFFFFFFFFFFFFF AND MUL OR SWAP1 SSTORE POP DUP2 PUSH20 0xFFFFFFFFFFFFFFFFFFFFFFFFFFFFFFFFFFFFFFFF AND DUP2 PUSH20 0xFFFFFFFFFFFFFFFFFFFFFFFFFFFFFFFFFFFFFFFF AND PUSH32 0x8BE0079C531659141344CD1FD0A4F28419497F9722A3DAAFE3B4186F6B6457E0 PUSH1 0x40 MLOAD PUSH1 0x40 MLOAD DUP1 SWAP2 SUB SWAP1 LOG3 POP POP JUMP JUMPDEST PUSH0 PUSH20 0xFFFFFFFFFFFFFFFFFFFFFFFFFFFFFFFFFFFFFFFF DUP3 AND SWAP1 POP SWAP2 SWAP1 POP JUMP JUMPDEST PUSH0 PUSH2 0x189 DUP3 PUSH2 0x160 JUMP JUMPDEST SWAP1 POP SWAP2 SWAP1 POP JUMP JUMPDEST PUSH2 0x199 DUP2 PUSH2 0x17F JUMP JUMPDEST DUP3 MSTORE POP POP JUMP JUMPDEST PUSH0 PUSH1 0x20 DUP3 ADD SWAP1 POP PUSH2 0x1B2 PUSH0 DUP4 ADD DUP5 PUSH2 0x190 JUMP JUMPDEST SWAP3 SWAP2 POP POP JUMP JUMPDEST PUSH2 0x2859 DUP1 PUSH2 0x1C5 PUSH0 CODECOPY PUSH0 RETURN INVALID PUSH1 0x80 PUSH1 0x40 MSTORE PUSH1 0x4 CALLDATASIZE LT PUSH2 0xEB JUMPI PUSH0 CALLDATALOAD PUSH1 0xE0 SHR DUP1 PUSH4 0xA5C1674E GT PUSH2 0x89 JUMPI DUP1 PUSH4 0xEE2D8657 GT PUSH2 0x58 JUMPI DUP1 PUSH4 0xEE2D8657 EQ PUSH2 0x310 JUMPI DUP1 PUSH4 0xF2FDE38B EQ PUSH2 0x33A JUMPI DUP1 PUSH4 0xF6A8419E EQ PUSH2 0x362 JUMPI DUP1 PUSH4 0xFD84CB97 EQ PUSH2 0x39E JUMPI PUSH2 0x12B JUMP JUMPDEST DUP1 PUSH4 0xA5C1674E EQ PUSH2 0x27A JUMPI DUP1 PUSH4 0xB592D3A1 EQ PUSH2 0x2A2 JUMPI DUP1 PUSH4 0xB6B55F25 EQ PUSH2 0x2CA JUMPI DUP1 PUSH4 0xC7CEAFEA EQ PUSH2 0x2E6 JUMPI PUSH2 0x12B JUMP JUMPDEST DUP1 PUSH4 0x715018A6 GT PUSH2 0xC5 JUMPI DUP1 PUSH4 0x715018A6 EQ PUSH2 0x1C0 JUMPI DUP1 PUSH4 0x7D19E596 EQ PUSH2 0x1D6 JUMPI DUP1 PUSH4 0x8DA5CB5B EQ PUSH2 0x212 JUMPI DUP1 PUSH4 0x942E6BCF EQ PUSH2 0x23C JUMPI PUSH2 0x12B JUMP JUMPDEST DUP1 PUSH4 0x12F52EE EQ PUSH2 0x12F JUMPI DUP1 PUSH4 0x34B25EE2 EQ PUSH2 0x170 JUMPI DUP1 PUSH4 0x61D689FA EQ PUSH2 0x198 JUMPI PUSH2 0x12B JUMP JUMPDEST CALLDATASIZE PUSH2 0x12B JUMPI PUSH1 0x40 MLOAD PUSH32 0x8C379A000000000000000000000000000000000000000000000000000000000 DUP2 MSTORE PUSH1 0x4 ADD PUSH2 0x122 SWAP1 PUSH2 0x1B87 JUMP JUMPDEST PUSH1 0x40 MLOAD DUP1 SWAP2 SUB SWAP1 REVERT JUMPDEST PUSH0 PUSH0 REVERT JUMPDEST CALLVALUE DUP1 ISZERO PUSH2 0x13A JUMPI PUSH0 PUSH0 REVERT JUMPDEST POP PUSH2 0x155 PUSH1 0x4 DUP1 CALLDATASIZE SUB DUP2 ADD SWAP1 PUSH2 0x150 SWAP2 SWAP1 PUSH2 0x1BDC JUMP JUMPDEST PUSH2 0x3C6 JUMP JUMPDEST PUSH1 0x40 MLOAD PUSH2 0x167 SWAP7 SWAP6 SWAP5 SWAP4 SWAP3 SWAP2 SWAP1 PUSH2 0x1CE2 JUMP JUMPDEST PUSH1 0x40 MLOAD DUP1 SWAP2 SUB SWAP1 RETURN JUMPDEST CALLVALUE DUP1 ISZERO PUSH2 0x17B JUMPI PUSH0 PUSH0 REVERT JUMPDEST POP PUSH2 0x196 PUSH1 0x4 DUP1 CALLDATASIZE SUB DUP2 ADD SWAP1 PUSH2 0x191 SWAP2 SWAP1 PUSH2 0x1D6B JUMP JUMPDEST PUSH2 0x455 JUMP JUMPDEST STOP JUMPDEST CALLVALUE DUP1 ISZERO PUSH2 0x1A3 JUMPI PUSH0 PUSH0 REVERT JUMPDEST POP PUSH2 0x1BE PUSH1 0x4 DUP1 CALLDATASIZE SUB DUP2 ADD SWAP1 PUSH2 0x1B9 SWAP2 SWAP1 PUSH2 0x1DCC JUMP JUMPDEST PUSH2 0x8FA JUMP JUMPDEST STOP JUMPDEST CALLVALUE DUP1 ISZERO PUSH2 0x1CB JUMPI PUSH0 PUSH0 REVERT JUMPDEST POP PUSH2 0x1D4 PUSH2 0xB27 JUMP JUMPDEST STOP JUMPDEST CALLVALUE DUP1 ISZERO PUSH2 0x1E1 JUMPI PUSH0 PUSH0 REVERT JUMPDEST POP PUSH2 0x1FC PUSH1 0x4 DUP1 CALLDATASIZE SUB DUP2 ADD SWAP1 PUSH2 0x1F7 SWAP2 SWAP1 PUSH2 0x1BDC JUMP JUMPDEST PUSH2 0xB3A JUMP JUMPDEST PUSH1 0x40 MLOAD PUSH2 0x209 SWAP2 SWAP1 PUSH2 0x1EAC JUMP JUMPDEST PUSH1 0x40 MLOAD DUP1 SWAP2 SUB SWAP1 RETURN JUMPDEST CALLVALUE DUP1 ISZERO PUSH2 0x21D JUMPI PUSH0 PUSH0 REVERT JUMPDEST POP PUSH2 0x226 PUSH2 0xC77 JUMP JUMPDEST PUSH1 0x40 MLOAD PUSH2 0x233 SWAP2 SWAP1 PUSH2 0x1EE5 JUMP JUMPDEST PUSH1 0x40 MLOAD DUP1 SWAP2 SUB SWAP1 RETURN JUMPDEST CALLVALUE DUP1 ISZERO PUSH2 0x247 JUMPI PUSH0 PUSH0 REVERT JUMPDEST POP PUSH2 0x262 PUSH1 0x4 DUP1 CALLDATASIZE SUB DUP2 ADD SWAP1 PUSH2 0x25D SWAP2 SWAP1 PUSH2 0x1F28 JUMP JUMPDEST PUSH2 0xC9F JUMP JUMPDEST PUSH1 0x40 MLOAD PUSH2 0x271 SWAP4 SWAP3 SWAP2 SWAP1 PUSH2 0x1F99 JUMP JUMPDEST PUSH1 0x40 MLOAD DUP1 SWAP2 SUB SWAP1 RETURN JUMPDEST CALLVALUE DUP1 ISZERO PUSH2 0x285 JUMPI PUSH0 PUSH0 REVERT JUMPDEST POP PUSH2 0x2A0 PUSH1 0x4 DUP1 CALLDATASIZE SUB DUP2 ADD SWAP1 PUSH2 0x29B SWAP2 SWAP1 PUSH2 0x1BDC JUMP JUMPDEST PUSH2 0xCDD JUMP JUMPDEST STOP JUMPDEST CALLVALUE DUP1 ISZERO PUSH2 0x2AD JUMPI PUSH0 PUSH0 REVERT JUMPDEST POP PUSH2 0x2C8 PUSH1 0x4 DUP1 CALLDATASIZE SUB DUP2 ADD SWAP1 PUSH2 0x2C3 SWAP2 SWAP1 PUSH2 0x1F28 JUMP JUMPDEST PUSH2 0xEB9 JUMP JUMPDEST STOP JUMPDEST PUSH2 0x2E4 PUSH1 0x4 DUP1 CALLDATASIZE SUB DUP2 ADD SWAP1 PUSH2 0x2DF SWAP2 SWAP1 PUSH2 0x1BDC JUMP JUMPDEST PUSH2 0x1010 JUMP JUMPDEST STOP JUMPDEST CALLVALUE DUP1 ISZERO PUSH2 0x2F1 JUMPI PUSH0 PUSH0 REVERT JUMPDEST POP PUSH2 0x2FA PUSH2 0x1269 JUMP JUMPDEST PUSH1 0x40 MLOAD PUSH2 0x307 SWAP2 SWAP1 PUSH2 0x1FCE JUMP JUMPDEST PUSH1 0x40 MLOAD DUP1 SWAP2 SUB SWAP1 RETURN JUMPDEST CALLVALUE DUP1 ISZERO PUSH2 0x31B JUMPI PUSH0 PUSH0 REVERT JUMPDEST POP PUSH2 0x324 PUSH2 0x126F JUMP JUMPDEST PUSH1 0x40 MLOAD PUSH2 0x331 SWAP2 SWAP1 PUSH2 0x1FCE JUMP JUMPDEST PUSH1 0x40 MLOAD DUP1 SWAP2 SUB SWAP1 RETURN JUMPDEST CALLVALUE DUP1 ISZERO PUSH2 0x345 JUMPI PUSH0 PUSH0 REVERT JUMPDEST POP PUSH2 0x360 PUSH1 0x4 DUP1 CALLDATASIZE SUB DUP2 ADD SWAP1 PUSH2 0x35B SWAP2 SWAP1 PUSH2 0x1F28 JUMP JUMPDEST PUSH2 0x1275 JUMP JUMPDEST STOP JUMPDEST CALLVALUE DUP1 ISZERO PUSH2 0x36D JUMPI PUSH0 PUSH0 REVERT JUMPDEST POP PUSH2 0x388 PUSH1 0x4 DUP1 CALLDATASIZE SUB DUP2 ADD SWAP1 PUSH2 0x383 SWAP2 SWAP1 PUSH2 0x2011 JUMP JUMPDEST PUSH2 0x12F9 JUMP JUMPDEST PUSH1 0x40 MLOAD PUSH2 0x395 SWAP2 SWAP1 PUSH2 0x1FCE JUMP JUMPDEST PUSH1 0x40 MLOAD DUP1 SWAP2 SUB SWAP1 RETURN JUMPDEST CALLVALUE DUP1 ISZERO PUSH2 0x3A9 JUMPI PUSH0 PUSH0 REVERT JUMPDEST POP PUSH2 0x3C4 PUSH1 0x4 DUP1 CALLDATASIZE SUB DUP2 ADD SWAP1 PUSH2 0x3BF SWAP2 SWAP1 PUSH2 0x1BDC JUMP JUMPDEST PUSH2 0x1630 JUMP JUMPDEST STOP JUMPDEST PUSH1 0x5 PUSH1 0x20 MSTORE DUP1 PUSH0 MSTORE PUSH1 0x40 PUSH0 KECCAK256 PUSH0 SWAP2 POP SWAP1 POP DUP1 PUSH0 ADD SLOAD SWAP1 DUP1 PUSH1 0x1 ADD PUSH0 SWAP1 SLOAD SWAP1 PUSH2 0x100 EXP SWAP1 DIV PUSH20 0xFFFFFFFFFFFFFFFFFFFFFFFFFFFFFFFFFFFFFFFF AND SWAP1 DUP1 PUSH1 0x2 ADD PUSH0 SWAP1 SLOAD SWAP1 PUSH2 0x100 EXP SWAP1 DIV PUSH20 0xFFFFFFFFFFFFFFFFFFFFFFFFFFFFFFFFFFFFFFFF AND SWAP1 DUP1 PUSH1 0x3 ADD SLOAD SWAP1 DUP1 PUSH1 0x4 ADD PUSH0 SWAP1 SLOAD SWAP1 PUSH2 0x100 EXP SWAP1 DIV PUSH1 0xFF AND SWAP1 DUP1 PUSH1 0x4 ADD PUSH1 0x1 SWAP1 SLOAD SWAP1 PUSH2 0x100 EXP SWAP1 DIV PUSH1 0xFF AND SWAP1 POP DUP7 JUMP JUMPDEST PUSH2 0x45D PUSH2 0x1916 JUMP JUMPDEST DUP2 PUSH1 0x5 PUSH0 DUP3 DUP2 MSTORE PUSH1 0x20 ADD SWAP1 DUP2 MSTORE PUSH1 0x20 ADD PUSH0 KECCAK256 PUSH1 0x4 ADD PUSH1 0x1 SWAP1 SLOAD SWAP1 PUSH2 0x100 EXP SWAP1 DIV PUSH1 0xFF AND PUSH2 0x4BF JUMPI PUSH1 0x40 MLOAD PUSH32 0x8C379A000000000000000000000000000000000000000000000000000000000 DUP2 MSTORE PUSH1 0x4 ADD PUSH2 0x4B6 SWAP1 PUSH2 0x2086 JUMP JUMPDEST PUSH1 0x40 MLOAD DUP1 SWAP2 SUB SWAP1 REVERT JUMPDEST PUSH1 0x3 DUP1 PUSH1 0x3 DUP2 GT ISZERO PUSH2 0x4D4 JUMPI PUSH2 0x4D3 PUSH2 0x1C55 JUMP JUMPDEST JUMPDEST PUSH1 0x4 PUSH0 CALLER PUSH20 0xFFFFFFFFFFFFFFFFFFFFFFFFFFFFFFFFFFFFFFFF AND PUSH20 0xFFFFFFFFFFFFFFFFFFFFFFFFFFFFFFFFFFFFFFFF AND DUP2 MSTORE PUSH1 0x20 ADD SWAP1 DUP2 MSTORE PUSH1 0x20 ADD PUSH0 KECCAK256 PUSH0 ADD PUSH0 SWAP1 SLOAD SWAP1 PUSH2 0x100 EXP SWAP1 DIV PUSH1 0xFF AND PUSH1 0x3 DUP2 GT ISZERO PUSH2 0x532 JUMPI PUSH2 0x531 PUSH2 0x1C55 JUMP JUMPDEST JUMPDEST EQ PUSH2 0x572 JUMPI PUSH1 0x40 MLOAD PUSH32 0x8C379A000000000000000000000000000000000000000000000000000000000 DUP2 MSTORE PUSH1 0x4 ADD PUSH2 0x569 SWAP1 PUSH2 0x20EE JUMP JUMPDEST PUSH1 0x40 MLOAD DUP1 SWAP2 SUB SWAP1 REVERT JUMPDEST PUSH1 0x4 PUSH0 CALLER PUSH20 0xFFFFFFFFFFFFFFFFFFFFFFFFFFFFFFFFFFFFFFFF AND PUSH20 0xFFFFFFFFFFFFFFFFFFFFFFFFFFFFFFFFFFFFFFFF AND DUP2 MSTORE PUSH1 0x20 ADD SWAP1 DUP2 MSTORE PUSH1 0x20 ADD PUSH0 KECCAK256 PUSH0 ADD PUSH1 0x1 SWAP1 SLOAD SWAP1 PUSH2 0x100 EXP SWAP1 DIV PUSH1 0xFF AND PUSH2 0x5FE JUMPI PUSH1 0x40 MLOAD PUSH32 0x8C379A000000000000000000000000000000000000000000000000000000000 DUP2 MSTORE PUSH1 0x4 ADD PUSH2 0x5F5 SWAP1 PUSH2 0x2156 JUMP JUMPDEST PUSH1 0x40 MLOAD DUP1 SWAP2 SUB SWAP1 REVERT JUMPDEST PUSH0 PUSH1 0x5 PUSH0 DUP7 DUP2 MSTORE PUSH1 0x20 ADD SWAP1 DUP2 MSTORE PUSH1 0x20 ADD PUSH0 KECCAK256 SWAP1 POP PUSH1 0x3 PUSH1 0x4 DUP2 GT ISZERO PUSH2 0x626 JUMPI PUSH2 0x625 PUSH2 0x1C55 JUMP JUMPDEST JUMPDEST DUP2 PUSH1 0x4 ADD PUSH0 SWAP1 SLOAD SWAP1 PUSH2 0x100 EXP SWAP1 DIV PUSH1 0xFF AND PUSH1 0x4 DUP2 GT ISZERO PUSH2 0x649 JUMPI PUSH2 0x648 PUSH2 0x1C55 JUMP JUMPDEST JUMPDEST EQ PUSH2 0x689 JUMPI PUSH1 0x40 MLOAD PUSH32 0x8C379A000000000000000000000000000000000000000000000000000000000 DUP2 MSTORE PUSH1 0x4 ADD PUSH2 0x680 SWAP1 PUSH2 0x21BE JUMP JUMPDEST PUSH1 0x40 MLOAD DUP1 SWAP2 SUB SWAP1 REVERT JUMPDEST DUP1 PUSH1 0x3 ADD SLOAD PUSH1 0x3 PUSH0 DUP3 DUP3 SLOAD PUSH2 0x69E SWAP2 SWAP1 PUSH2 0x2209 JUMP JUMPDEST SWAP3 POP POP DUP2 SWAP1 SSTORE POP PUSH0 DUP2 PUSH1 0x3 ADD SLOAD SWAP1 POP PUSH0 DUP3 PUSH1 0x3 ADD DUP2 SWAP1 SSTORE POP DUP5 ISZERO PUSH2 0x7B9 JUMPI PUSH1 0x2 DUP3 PUSH1 0x4 ADD PUSH0 PUSH2 0x100 EXP DUP2 SLOAD DUP2 PUSH1 0xFF MUL NOT AND SWAP1 DUP4 PUSH1 0x4 DUP2 GT ISZERO PUSH2 0x6E3 JUMPI PUSH2 0x6E2 PUSH2 0x1C55 JUMP JUMPDEST JUMPDEST MUL OR SWAP1 SSTORE POP PUSH0 DUP3 PUSH1 0x2 ADD PUSH0 SWAP1 SLOAD SWAP1 PUSH2 0x100 EXP SWAP1 DIV PUSH20 0xFFFFFFFFFFFFFFFFFFFFFFFFFFFFFFFFFFFFFFFF AND PUSH20 0xFFFFFFFFFFFFFFFFFFFFFFFFFFFFFFFFFFFFFFFF AND DUP3 PUSH1 0x40 MLOAD PUSH2 0x730 SWAP1 PUSH2 0x2269 JUMP JUMPDEST PUSH0 PUSH1 0x40 MLOAD DUP1 DUP4 SUB DUP2 DUP6 DUP8 GAS CALL SWAP3 POP POP POP RETURNDATASIZE DUP1 PUSH0 DUP2 EQ PUSH2 0x76A JUMPI PUSH1 0x40 MLOAD SWAP2 POP PUSH1 0x1F NOT PUSH1 0x3F RETURNDATASIZE ADD AND DUP3 ADD PUSH1 0x40 MSTORE RETURNDATASIZE DUP3 MSTORE RETURNDATASIZE PUSH0 PUSH1 0x20 DUP5 ADD RETURNDATACOPY PUSH2 0x76F JUMP JUMPDEST PUSH1 0x60 SWAP2 POP JUMPDEST POP POP SWAP1 POP DUP1 PUSH2 0x7B3 JUMPI PUSH1 0x40 MLOAD PUSH32 0x8C379A000000000000000000000000000000000000000000000000000000000 DUP2 MSTORE PUSH1 0x4 ADD PUSH2 0x7AA SWAP1 PUSH2 0x22C7 JUMP JUMPDEST PUSH1 0x40 MLOAD DUP1 SWAP2 SUB SWAP1 REVERT JUMPDEST POP PUSH2 0x8B2 JUMP JUMPDEST PUSH1 0x4 DUP3 PUSH1 0x4 ADD PUSH0 PUSH2 0x100 EXP DUP2 SLOAD DUP2 PUSH1 0xFF MUL NOT AND SWAP1 DUP4 PUSH1 0x4 DUP2 GT ISZERO PUSH2 0x7E0 JUMPI PUSH2 0x7DF PUSH2 0x1C55 JUMP JUMPDEST JUMPDEST MUL OR SWAP1 SSTORE POP PUSH0 DUP3 PUSH1 0x1 ADD PUSH0 SWAP1 SLOAD SWAP1 PUSH2 0x100 EXP SWAP1 DIV PUSH20 0xFFFFFFFFFFFFFFFFFFFFFFFFFFFFFFFFFFFFFFFF AND PUSH20 0xFFFFFFFFFFFFFFFFFFFFFFFFFFFFFFFFFFFFFFFF AND DUP3 PUSH1 0x40 MLOAD PUSH2 0x82D SWAP1 PUSH2 0x2269 JUMP JUMPDEST PUSH0 PUSH1 0x40 MLOAD DUP1 DUP4 SUB DUP2 DUP6 DUP8 GAS CALL SWAP3 POP POP POP RETURNDATASIZE DUP1 PUSH0 DUP2 EQ PUSH2 0x867 JUMPI PUSH1 0x40 MLOAD SWAP2 POP PUSH1 0x1F NOT PUSH1 0x3F RETURNDATASIZE ADD AND DUP3 ADD PUSH1 0x40 MSTORE RETURNDATASIZE DUP3 MSTORE RETURNDATASIZE PUSH0 PUSH1 0x20 DUP5 ADD RETURNDATACOPY PUSH2 0x86C JUMP JUMPDEST PUSH1 0x60 SWAP2 POP JUMPDEST POP POP SWAP1 POP DUP1 PUSH2 0x8B0 JUMPI PUSH1 0x40 MLOAD PUSH32 0x8C379A000000000000000000000000000000000000000000000000000000000 DUP2 MSTORE PUSH1 0x4 ADD PUSH2 0x8A7 SWAP1 PUSH2 0x232F JUMP JUMPDEST PUSH1 0x40 MLOAD DUP1 SWAP2 SUB SWAP1 REVERT JUMPDEST POP JUMPDEST DUP6 PUSH32 0xE940C2F4A2E1DDA6EA582B576E35520A2EC6B80E436C26962C1150DDD7D07993 DUP7 PUSH1 0x40 MLOAD PUSH2 0x8E2 SWAP2 SWAP1 PUSH2 0x234D JUMP JUMPDEST PUSH1 0x40 MLOAD DUP1 SWAP2 SUB SWAP1 LOG2 POP POP POP POP PUSH2 0x8F6 PUSH2 0x1963 JUMP JUMPDEST POP POP JUMP JUMPDEST PUSH0 PUSH1 0x3 DUP2 GT ISZERO PUSH2 0x90D JUMPI PUSH2 0x90C PUSH2 0x1C55 JUMP JUMPDEST JUMPDEST DUP2 PUSH1 0x3 DUP2 GT ISZERO PUSH2 0x920 JUMPI PUSH2 0x91F PUSH2 0x1C55 JUMP JUMPDEST JUMPDEST SUB PUSH2 0x960 JUMPI PUSH1 0x40 MLOAD PUSH32 0x8C379A000000000000000000000000000000000000000000000000000000000 DUP2 MSTORE PUSH1 0x4 ADD PUSH2 0x957 SWAP1 PUSH2 0x20EE JUMP JUMPDEST PUSH1 0x40 MLOAD DUP1 SWAP2 SUB SWAP1 REVERT JUMPDEST PUSH0 PUSH1 0x3 DUP2 GT ISZERO PUSH2 0x973 JUMPI PUSH2 0x972 PUSH2 0x1C55 JUMP JUMPDEST JUMPDEST PUSH1 0x4 PUSH0 CALLER PUSH20 0xFFFFFFFFFFFFFFFFFFFFFFFFFFFFFFFFFFFFFFFF AND PUSH20 0xFFFFFFFFFFFFFFFFFFFFFFFFFFFFFFFFFFFFFFFF AND DUP2 MSTORE PUSH1 0x20 ADD SWAP1 DUP2 MSTORE PUSH1 0x20 ADD PUSH0 KECCAK256 PUSH0 ADD PUSH0 SWAP1 SLOAD SWAP1 PUSH2 0x100 EXP SWAP1 DIV PUSH1 0xFF AND PUSH1 0x3 DUP2 GT ISZERO PUSH2 0x9D1 JUMPI PUSH2 0x9D0 PUSH2 0x1C55 JUMP JUMPDEST JUMPDEST EQ PUSH2 0xA11 JUMPI PUSH1 0x40 MLOAD PUSH32 0x8C379A000000000000000000000000000000000000000000000000000000000 DUP2 MSTORE PUSH1 0x4 ADD PUSH2 0xA08 SWAP1 PUSH2 0x23B0 JUMP JUMPDEST PUSH1 0x40 MLOAD DUP1 SWAP2 SUB SWAP1 REVERT JUMPDEST PUSH1 0x40 MLOAD DUP1 PUSH1 0x60 ADD PUSH1 0x40 MSTORE DUP1 DUP3 PUSH1 0x3 DUP2 GT ISZERO PUSH2 0xA2F JUMPI PUSH2 0xA2E PUSH2 0x1C55 JUMP JUMPDEST JUMPDEST DUP2 MSTORE PUSH1 0x20 ADD PUSH0 ISZERO ISZERO DUP2 MSTORE PUSH1 0x20 ADD TIMESTAMP DUP2 MSTORE POP PUSH1 0x4 PUSH0 CALLER PUSH20 0xFFFFFFFFFFFFFFFFFFFFFFFFFFFFFFFFFFFFFFFF AND PUSH20 0xFFFFFFFFFFFFFFFFFFFFFFFFFFFFFFFFFFFFFFFF AND DUP2 MSTORE PUSH1 0x20 ADD SWAP1 DUP2 MSTORE PUSH1 0x20 ADD PUSH0 KECCAK256 PUSH0 DUP3 ADD MLOAD DUP2 PUSH0 ADD PUSH0 PUSH2 0x100 EXP DUP2 SLOAD DUP2 PUSH1 0xFF MUL NOT AND SWAP1 DUP4 PUSH1 0x3 DUP2 GT ISZERO PUSH2 0xAA5 JUMPI PUSH2 0xAA4 PUSH2 0x1C55 JUMP JUMPDEST JUMPDEST MUL OR SWAP1 SSTORE POP PUSH1 0x20 DUP3 ADD MLOAD DUP2 PUSH0 ADD PUSH1 0x1 PUSH2 0x100 EXP DUP2 SLOAD DUP2 PUSH1 0xFF MUL NOT AND SWAP1 DUP4 ISZERO ISZERO MUL OR SWAP1 SSTORE POP PUSH1 0x40 DUP3 ADD MLOAD DUP2 PUSH1 0x1 ADD SSTORE SWAP1 POP POP CALLER PUSH20 0xFFFFFFFFFFFFFFFFFFFFFFFFFFFFFFFFFFFFFFFF AND PUSH32 0x8E18574F8A7333E6A87112742A55853A643E2F0550F4E1A3A2C3F1BB2994441D DUP3 PUSH1 0x40 MLOAD PUSH2 0xB1C SWAP2 SWAP1 PUSH2 0x23CE JUMP JUMPDEST PUSH1 0x40 MLOAD DUP1 SWAP2 SUB SWAP1 LOG2 POP JUMP JUMPDEST PUSH2 0xB2F PUSH2 0x196C JUMP JUMPDEST PUSH2 0xB38 PUSH0 PUSH2 0x19F3 JUMP JUMPDEST JUMP JUMPDEST PUSH2 0xB42 PUSH2 0x1ABD JUMP JUMPDEST PUSH1 0x5 PUSH0 DUP4 DUP2 MSTORE PUSH1 0x20 ADD SWAP1 DUP2 MSTORE PUSH1 0x20 ADD PUSH0 KECCAK256 PUSH1 0x40 MLOAD DUP1 PUSH1 0xC0 ADD PUSH1 0x40 MSTORE SWAP1 DUP2 PUSH0 DUP3 ADD SLOAD DUP2 MSTORE PUSH1 0x20 ADD PUSH1 0x1 DUP3 ADD PUSH0 SWAP1 SLOAD SWAP1 PUSH2 0x100 EXP SWAP1 DIV PUSH20 0xFFFFFFFFFFFFFFFFFFFFFFFFFFFFFFFFFFFFFFFF AND PUSH20 0xFFFFFFFFFFFFFFFFFFFFFFFFFFFFFFFFFFFFFFFF AND PUSH20 0xFFFFFFFFFFFFFFFFFFFFFFFFFFFFFFFFFFFFFFFF AND DUP2 MSTORE PUSH1 0x20 ADD PUSH1 0x2 DUP3 ADD PUSH0 SWAP1 SLOAD SWAP1 PUSH2 0x100 EXP SWAP1 DIV PUSH20 0xFFFFFFFFFFFFFFFFFFFFFFFFFFFFFFFFFFFFFFFF AND PUSH20 0xFFFFFFFFFFFFFFFFFFFFFFFFFFFFFFFFFFFFFFFF AND PUSH20 0xFFFFFFFFFFFFFFFFFFFFFFFFFFFFFFFFFFFFFFFF AND DUP2 MSTORE PUSH1 0x20 ADD PUSH1 0x3 DUP3 ADD SLOAD DUP2 MSTORE PUSH1 0x20 ADD PUSH1 0x4 DUP3 ADD PUSH0 SWAP1 SLOAD SWAP1 PUSH2 0x100 EXP SWAP1 DIV PUSH1 0xFF AND PUSH1 0x4 DUP2 GT ISZERO PUSH2 0xC3F JUMPI PUSH2 0xC3E PUSH2 0x1C55 JUMP JUMPDEST JUMPDEST PUSH1 0x4 DUP2 GT ISZERO PUSH2 0xC51 JUMPI PUSH2 0xC50 PUSH2 0x1C55 JUMP JUMPDEST JUMPDEST DUP2 MSTORE PUSH1 0x20 ADD PUSH1 0x4 DUP3 ADD PUSH1 0x1 SWAP1 SLOAD SWAP1 PUSH2 0x100 EXP SWAP1 DIV PUSH1 0xFF AND ISZERO ISZERO ISZERO ISZERO DUP2 MSTORE POP POP SWAP1 POP SWAP2 SWAP1 POP JUMP JUMPDEST PUSH0 PUSH1 0x1 PUSH0 SWAP1 SLOAD SWAP1 PUSH2 0x100 EXP SWAP1 DIV PUSH20 0xFFFFFFFFFFFFFFFFFFFFFFFFFFFFFFFFFFFFFFFF AND SWAP1 POP SWAP1 JUMP JUMPDEST PUSH1 0x4 PUSH1 0x20 MSTORE DUP1 PUSH0 MSTORE PUSH1 0x40 PUSH0 KECCAK256 PUSH0 SWAP2 POP SWAP1 POP DUP1 PUSH0 ADD PUSH0 SWAP1 SLOAD SWAP1 PUSH2 0x100 EXP SWAP1 DIV PUSH1 0xFF AND SWAP1 DUP1 PUSH0 ADD PUSH1 0x1 SWAP1 SLOAD SWAP1 PUSH2 0x100 EXP SWAP1 DIV PUSH1 0xFF AND SWAP1 DUP1 PUSH1 0x1 ADD SLOAD SWAP1 POP DUP4 JUMP JUMPDEST DUP1 PUSH1 0x5 PUSH0 DUP3 DUP2 MSTORE PUSH1 0x20 ADD SWAP1 DUP2 MSTORE PUSH1 0x20 ADD PUSH0 KECCAK256 PUSH1 0x4 ADD PUSH1 0x1 SWAP1 SLOAD SWAP1 PUSH2 0x100 EXP SWAP1 DIV PUSH1 0xFF AND PUSH2 0xD3F JUMPI PUSH1 0x40 MLOAD PUSH32 0x8C379A000000000000000000000000000000000000000000000000000000000 DUP2 MSTORE PUSH1 0x4 ADD PUSH2 0xD36 SWAP1 PUSH2 0x2086 JUMP JUMPDEST PUSH1 0x40 MLOAD DUP1 SWAP2 SUB SWAP1 REVERT JUMPDEST PUSH0 PUSH1 0x5 PUSH0 DUP5 DUP2 MSTORE PUSH1 0x20 ADD SWAP1 DUP2 MSTORE PUSH1 0x20 ADD PUSH0 KECCAK256 SWAP1 POP DUP1 PUSH1 0x1 ADD PUSH0 SWAP1 SLOAD SWAP1 PUSH2 0x100 EXP SWAP1 DIV PUSH20 0xFFFFFFFFFFFFFFFFFFFFFFFFFFFFFFFFFFFFFFFF AND PUSH20 0xFFFFFFFFFFFFFFFFFFFFFFFFFFFFFFFFFFFFFFFF AND CALLER PUSH20 0xFFFFFFFFFFFFFFFFFFFFFFFFFFFFFFFFFFFFFFFF AND EQ PUSH2 0xDE4 JUMPI PUSH1 0x40 MLOAD PUSH32 0x8C379A000000000000000000000000000000000000000000000000000000000 DUP2 MSTORE PUSH1 0x4 ADD PUSH2 0xDDB SWAP1 PUSH2 0x2431 JUMP JUMPDEST PUSH1 0x40 MLOAD DUP1 SWAP2 SUB SWAP1 REVERT JUMPDEST PUSH1 0x1 PUSH1 0x4 DUP2 GT ISZERO PUSH2 0xDF8 JUMPI PUSH2 0xDF7 PUSH2 0x1C55 JUMP JUMPDEST JUMPDEST DUP2 PUSH1 0x4 ADD PUSH0 SWAP1 SLOAD SWAP1 PUSH2 0x100 EXP SWAP1 DIV PUSH1 0xFF AND PUSH1 0x4 DUP2 GT ISZERO PUSH2 0xE1B JUMPI PUSH2 0xE1A PUSH2 0x1C55 JUMP JUMPDEST JUMPDEST EQ PUSH2 0xE5B JUMPI PUSH1 0x40 MLOAD PUSH32 0x8C379A000000000000000000000000000000000000000000000000000000000 DUP2 MSTORE PUSH1 0x4 ADD PUSH2 0xE52 SWAP1 PUSH2 0x2499 JUMP JUMPDEST PUSH1 0x40 MLOAD DUP1 SWAP2 SUB SWAP1 REVERT JUMPDEST PUSH1 0x3 DUP2 PUSH1 0x4 ADD PUSH0 PUSH2 0x100 EXP DUP2 SLOAD DUP2 PUSH1 0xFF MUL NOT AND SWAP1 DUP4 PUSH1 0x4 DUP2 GT ISZERO PUSH2 0xE82 JUMPI PUSH2 0xE81 PUSH2 0x1C55 JUMP JUMPDEST JUMPDEST MUL OR SWAP1 SSTORE POP DUP3 PUSH32 0x7E3D476B0AD3176EEFADBD6672356EF3884FAD75F1344623A88D4A8087842336 PUSH1 0x40 MLOAD PUSH1 0x40 MLOAD DUP1 SWAP2 SUB SWAP1 LOG2 POP POP POP JUMP JUMPDEST PUSH2 0xEC1 PUSH2 0x196C JUMP JUMPDEST PUSH1 0x3 DUP1 DUP2 GT ISZERO PUSH2 0xED4 JUMPI PUSH2 0xED3 PUSH2 0x1C55 JUMP JUMPDEST JUMPDEST PUSH1 0x4 PUSH0 DUP4 PUSH20 0xFFFFFFFFFFFFFFFFFFFFFFFFFFFFFFFFFFFFFFFF AND PUSH20 0xFFFFFFFFFFFFFFFFFFFFFFFFFFFFFFFFFFFFFFFF AND DUP2 MSTORE PUSH1 0x20 ADD SWAP1 DUP2 MSTORE PUSH1 0x20 ADD PUSH0 KECCAK256 PUSH0 ADD PUSH0 SWAP1 SLOAD SWAP1 PUSH2 0x100 EXP SWAP1 DIV PUSH1 0xFF AND PUSH1 0x3 DUP2 GT ISZERO PUSH2 0xF32 JUMPI PUSH2 0xF31 PUSH2 0x1C55 JUMP JUMPDEST JUMPDEST EQ PUSH2 0xF72 JUMPI PUSH1 0x40 MLOAD PUSH32 0x8C379A000000000000000000000000000000000000000000000000000000000 DUP2 MSTORE PUSH1 0x4 ADD PUSH2 0xF69 SWAP1 PUSH2 0x2501 JUMP JUMPDEST PUSH1 0x40 MLOAD DUP1 SWAP2 SUB SWAP1 REVERT JUMPDEST PUSH1 0x1 PUSH1 0x4 PUSH0 DUP4 PUSH20 0xFFFFFFFFFFFFFFFFFFFFFFFFFFFFFFFFFFFFFFFF AND PUSH20 0xFFFFFFFFFFFFFFFFFFFFFFFFFFFFFFFFFFFFFFFF AND DUP2 MSTORE PUSH1 0x20 ADD SWAP1 DUP2 MSTORE PUSH1 0x20 ADD PUSH0 KECCAK256 PUSH0 ADD PUSH1 0x1 PUSH2 0x100 EXP DUP2 SLOAD DUP2 PUSH1 0xFF MUL NOT AND SWAP1 DUP4 ISZERO ISZERO MUL OR SWAP1 SSTORE POP DUP1 PUSH20 0xFFFFFFFFFFFFFFFFFFFFFFFFFFFFFFFFFFFFFFFF AND PUSH32 0xD85319FAAA66CE15D8BD9CEA58B03D0761CC5CDF60E879FB16DC07AB954933EE PUSH1 0x40 MLOAD PUSH1 0x40 MLOAD DUP1 SWAP2 SUB SWAP1 LOG2 POP JUMP JUMPDEST PUSH2 0x1018 PUSH2 0x1916 JUMP JUMPDEST DUP1 PUSH1 0x5 PUSH0 DUP3 DUP2 MSTORE PUSH1 0x20 ADD SWAP1 DUP2 MSTORE PUSH1 0x20 ADD PUSH0 KECCAK256 PUSH1 0x4 ADD PUSH1 0x1 SWAP1 SLOAD SWAP1 PUSH2 0x100 EXP SWAP1 DIV PUSH1 0xFF AND PUSH2 0x107A JUMPI PUSH1 0x40 MLOAD PUSH32 0x8C379A000000000000000000000000000000000000000000000000000000000 DUP2 MSTORE PUSH1 0x4 ADD PUSH2 0x1071 SWAP1 PUSH2 0x2086 JUMP JUMPDEST PUSH1 0x40 MLOAD DUP1 SWAP2 SUB SWAP1 REVERT JUMPDEST PUSH0 PUSH1 0x5 PUSH0 DUP5 DUP2 MSTORE PUSH1 0x20 ADD SWAP1 DUP2 MSTORE PUSH1 0x20 ADD PUSH0 KECCAK256 SWAP1 POP DUP1 PUSH1 0x1 ADD PUSH0 SWAP1 SLOAD SWAP1 PUSH2 0x100 EXP SWAP1 DIV PUSH20 0xFFFFFFFFFFFFFFFFFFFFFFFFFFFFFFFFFFFFFFFF AND PUSH20 0xFFFFFFFFFFFFFFFFFFFFFFFFFFFFFFFFFFFFFFFF AND CALLER PUSH20 0xFFFFFFFFFFFFFFFFFFFFFFFFFFFFFFFFFFFFFFFF AND EQ PUSH2 0x111F JUMPI PUSH1 0x40 MLOAD PUSH32 0x8C379A000000000000000000000000000000000000000000000000000000000 DUP2 MSTORE PUSH1 0x4 ADD PUSH2 0x1116 SWAP1 PUSH2 0x2569 JUMP JUMPDEST PUSH1 0x40 MLOAD DUP1 SWAP2 SUB SWAP1 REVERT JUMPDEST PUSH0 PUSH1 0x4 DUP2 GT ISZERO PUSH2 0x1132 JUMPI PUSH2 0x1131 PUSH2 0x1C55 JUMP JUMPDEST JUMPDEST DUP2 PUSH1 0x4 ADD PUSH0 SWAP1 SLOAD SWAP1 PUSH2 0x100 EXP SWAP1 DIV PUSH1 0xFF AND PUSH1 0x4 DUP2 GT ISZERO PUSH2 0x1155 JUMPI PUSH2 0x1154 PUSH2 0x1C55 JUMP JUMPDEST JUMPDEST EQ PUSH2 0x1195 JUMPI PUSH1 0x40 MLOAD PUSH32 0x8C379A000000000000000000000000000000000000000000000000000000000 DUP2 MSTORE PUSH1 0x4 ADD PUSH2 0x118C SWAP1 PUSH2 0x25D1 JUMP JUMPDEST PUSH1 0x40 MLOAD DUP1 SWAP2 SUB SWAP1 REVERT JUMPDEST PUSH0 CALLVALUE GT PUSH2 0x11D7 JUMPI PUSH1 0x40 MLOAD PUSH32 0x8C379A000000000000000000000000000000000000000000000000000000000 DUP2 MSTORE PUSH1 0x4 ADD PUSH2 0x11CE SWAP1 PUSH2 0x2639 JUMP JUMPDEST PUSH1 0x40 MLOAD DUP1 SWAP2 SUB SWAP1 REVERT JUMPDEST CALLVALUE DUP2 PUSH1 0x3 ADD DUP2 SWAP1 SSTORE POP PUSH1 0x1 DUP2 PUSH1 0x4 ADD PUSH0 PUSH2 0x100 EXP DUP2 SLOAD DUP2 PUSH1 0xFF MUL NOT AND SWAP1 DUP4 PUSH1 0x4 DUP2 GT ISZERO PUSH2 0x1207 JUMPI PUSH2 0x1206 PUSH2 0x1C55 JUMP JUMPDEST JUMPDEST MUL OR SWAP1 SSTORE POP CALLVALUE PUSH1 0x3 PUSH0 DUP3 DUP3 SLOAD PUSH2 0x121D SWAP2 SWAP1 PUSH2 0x2657 JUMP JUMPDEST SWAP3 POP POP DUP2 SWAP1 SSTORE POP DUP3 PUSH32 0x6DA3309189FA49284F335D2C2BCB4CB0B8AD2A59AD92A9BDEBEEB8F1CEBA511 CALLVALUE PUSH1 0x40 MLOAD PUSH2 0x1254 SWAP2 SWAP1 PUSH2 0x1FCE JUMP JUMPDEST PUSH1 0x40 MLOAD DUP1 SWAP2 SUB SWAP1 LOG2 POP POP PUSH2 0x1266 PUSH2 0x1963 JUMP JUMPDEST POP JUMP JUMPDEST PUSH1 0x2 SLOAD DUP2 JUMP JUMPDEST PUSH1 0x3 SLOAD DUP2 JUMP JUMPDEST PUSH2 0x127D PUSH2 0x196C JUMP JUMPDEST PUSH0 PUSH20 0xFFFFFFFFFFFFFFFFFFFFFFFFFFFFFFFFFFFFFFFF AND DUP2 PUSH20 0xFFFFFFFFFFFFFFFFFFFFFFFFFFFFFFFFFFFFFFFF AND SUB PUSH2 0x12ED JUMPI PUSH0 PUSH1 0x40 MLOAD PUSH32 0x1E4FBDF700000000000000000000000000000000000000000000000000000000 DUP2 MSTORE PUSH1 0x4 ADD PUSH2 0x12E4 SWAP2 SWAP1 PUSH2 0x1EE5 JUMP JUMPDEST PUSH1 0x40 MLOAD DUP1 SWAP2 SUB SWAP1 REVERT JUMPDEST PUSH2 0x12F6 DUP2 PUSH2 0x19F3 JUMP JUMPDEST POP JUMP JUMPDEST PUSH0 PUSH1 0x1 DUP1 PUSH1 0x3 DUP2 GT ISZERO PUSH2 0x130F JUMPI PUSH2 0x130E PUSH2 0x1C55 JUMP JUMPDEST JUMPDEST PUSH1 0x4 PUSH0 CALLER PUSH20 0xFFFFFFFFFFFFFFFFFFFFFFFFFFFFFFFFFFFFFFFF AND PUSH20 0xFFFFFFFFFFFFFFFFFFFFFFFFFFFFFFFFFFFFFFFF AND DUP2 MSTORE PUSH1 0x20 ADD SWAP1 DUP2 MSTORE PUSH1 0x20 ADD PUSH0 KECCAK256 PUSH0 ADD PUSH0 SWAP1 SLOAD SWAP1 PUSH2 0x100 EXP SWAP1 DIV PUSH1 0xFF AND PUSH1 0x3 DUP2 GT ISZERO PUSH2 0x136D JUMPI PUSH2 0x136C PUSH2 0x1C55 JUMP JUMPDEST JUMPDEST EQ PUSH2 0x13AD JUMPI PUSH1 0x40 MLOAD PUSH32 0x8C379A000000000000000000000000000000000000000000000000000000000 DUP2 MSTORE PUSH1 0x4 ADD PUSH2 0x13A4 SWAP1 PUSH2 0x20EE JUMP JUMPDEST PUSH1 0x40 MLOAD DUP1 SWAP2 SUB SWAP1 REVERT JUMPDEST PUSH1 0x2 PUSH1 0x3 DUP2 GT ISZERO PUSH2 0x13C1 JUMPI PUSH2 0x13C0 PUSH2 0x1C55 JUMP JUMPDEST JUMPDEST PUSH1 0x4 PUSH0 DUP6 PUSH20 0xFFFFFFFFFFFFFFFFFFFFFFFFFFFFFFFFFFFFFFFF AND PUSH20 0xFFFFFFFFFFFFFFFFFFFFFFFFFFFFFFFFFFFFFFFF AND DUP2 MSTORE PUSH1 0x20 ADD SWAP1 DUP2 MSTORE PUSH1 0x20 ADD PUSH0 KECCAK256 PUSH0 ADD PUSH0 SWAP1 SLOAD SWAP1 PUSH2 0x100 EXP SWAP1 DIV PUSH1 0xFF AND PUSH1 0x3 DUP2 GT ISZERO PUSH2 0x141F JUMPI PUSH2 0x141E PUSH2 0x1C55 JUMP JUMPDEST JUMPDEST EQ PUSH2 0x145F JUMPI PUSH1 0x40 MLOAD PUSH32 0x8C379A000000000000000000000000000000000000000000000000000000000 DUP2 MSTORE PUSH1 0x4 ADD PUSH2 0x1456 SWAP1 PUSH2 0x26D4 JUMP JUMPDEST PUSH1 0x40 MLOAD DUP1 SWAP2 SUB SWAP1 REVERT JUMPDEST PUSH1 0x2 PUSH0 DUP2 SLOAD DUP1 SWAP3 SWAP2 SWAP1 PUSH2 0x1471 SWAP1 PUSH2 0x26F2 JUMP JUMPDEST SWAP2 SWAP1 POP SSTORE POP PUSH1 0x40 MLOAD DUP1 PUSH1 0xC0 ADD PUSH1 0x40 MSTORE DUP1 PUSH1 0x2 SLOAD DUP2 MSTORE PUSH1 0x20 ADD CALLER PUSH20 0xFFFFFFFFFFFFFFFFFFFFFFFFFFFFFFFFFFFFFFFF AND DUP2 MSTORE PUSH1 0x20 ADD DUP5 PUSH20 0xFFFFFFFFFFFFFFFFFFFFFFFFFFFFFFFFFFFFFFFF AND DUP2 MSTORE PUSH1 0x20 ADD PUSH0 DUP2 MSTORE PUSH1 0x20 ADD PUSH0 PUSH1 0x4 DUP2 GT ISZERO PUSH2 0x14DA JUMPI PUSH2 0x14D9 PUSH2 0x1C55 JUMP JUMPDEST JUMPDEST DUP2 MSTORE PUSH1 0x20 ADD PUSH1 0x1 ISZERO ISZERO DUP2 MSTORE POP PUSH1 0x5 PUSH0 PUSH1 0x2 SLOAD DUP2 MSTORE PUSH1 0x20 ADD SWAP1 DUP2 MSTORE PUSH1 0x20 ADD PUSH0 KECCAK256 PUSH0 DUP3 ADD MLOAD DUP2 PUSH0 ADD SSTORE PUSH1 0x20 DUP3 ADD MLOAD DUP2 PUSH1 0x1 ADD PUSH0 PUSH2 0x100 EXP DUP2 SLOAD DUP2 PUSH20 0xFFFFFFFFFFFFFFFFFFFFFFFFFFFFFFFFFFFFFFFF MUL NOT AND SWAP1 DUP4 PUSH20 0xFFFFFFFFFFFFFFFFFFFFFFFFFFFFFFFFFFFFFFFF AND MUL OR SWAP1 SSTORE POP PUSH1 0x40 DUP3 ADD MLOAD DUP2 PUSH1 0x2 ADD PUSH0 PUSH2 0x100 EXP DUP2 SLOAD DUP2 PUSH20 0xFFFFFFFFFFFFFFFFFFFFFFFFFFFFFFFFFFFFFFFF MUL NOT AND SWAP1 DUP4 PUSH20 0xFFFFFFFFFFFFFFFFFFFFFFFFFFFFFFFFFFFFFFFF AND MUL OR SWAP1 SSTORE POP PUSH1 0x60 DUP3 ADD MLOAD DUP2 PUSH1 0x3 ADD SSTORE PUSH1 0x80 DUP3 ADD MLOAD DUP2 PUSH1 0x4 ADD PUSH0 PUSH2 0x100 EXP DUP2 SLOAD DUP2 PUSH1 0xFF MUL NOT AND SWAP1 DUP4 PUSH1 0x4 DUP2 GT ISZERO PUSH2 0x15C1 JUMPI PUSH2 0x15C0 PUSH2 0x1C55 JUMP JUMPDEST JUMPDEST MUL OR SWAP1 SSTORE POP PUSH1 0xA0 DUP3 ADD MLOAD DUP2 PUSH1 0x4 ADD PUSH1 0x1 PUSH2 0x100 EXP DUP2 SLOAD DUP2 PUSH1 0xFF MUL NOT AND SWAP1 DUP4 ISZERO ISZERO MUL OR SWAP1 SSTORE POP SWAP1 POP POP PUSH1 0x2 SLOAD PUSH32 0xCC50A4E95294D36F3E612EABD37417678A3C52EB30D18039A0B2ED5CFF4CFC0F CALLER DUP6 PUSH1 0x40 MLOAD PUSH2 0x161D SWAP3 SWAP2 SWAP1 PUSH2 0x2794 JUMP JUMPDEST PUSH1 0x40 MLOAD DUP1 SWAP2 SUB SWAP1 LOG2 PUSH1 0x2 SLOAD SWAP2 POP POP SWAP2 SWAP1 POP JUMP JUMPDEST PUSH2 0x1638 PUSH2 0x1916 JUMP JUMPDEST DUP1 PUSH1 0x5 PUSH0 DUP3 DUP2 MSTORE PUSH1 0x20 ADD SWAP1 DUP2 MSTORE PUSH1 0x20 ADD PUSH0 KECCAK256 PUSH1 0x4 ADD PUSH1 0x1 SWAP1 SLOAD SWAP1 PUSH2 0x100 EXP SWAP1 DIV PUSH1 0xFF AND PUSH2 0x169A JUMPI PUSH1 0x40 MLOAD PUSH32 0x8C379A000000000000000000000000000000000000000000000000000000000 DUP2 MSTORE PUSH1 0x4 ADD PUSH2 0x1691 SWAP1 PUSH2 0x2086 JUMP JUMPDEST PUSH1 0x40 MLOAD DUP1 SWAP2 SUB SWAP1 REVERT JUMPDEST PUSH0 PUSH1 0x5 PUSH0 DUP5 DUP2 MSTORE PUSH1 0x20 ADD SWAP1 DUP2 MSTORE PUSH1 0x20 ADD PUSH0 KECCAK256 SWAP1 POP DUP1 PUSH1 0x1 ADD PUSH0 SWAP1 SLOAD SWAP1 PUSH2 0x100 EXP SWAP1 DIV PUSH20 0xFFFFFFFFFFFFFFFFFFFFFFFFFFFFFFFFFFFFFFFF AND PUSH20 0xFFFFFFFFFFFFFFFFFFFFFFFFFFFFFFFFFFFFFFFF AND CALLER PUSH20 0xFFFFFFFFFFFFFFFFFFFFFFFFFFFFFFFFFFFFFFFF AND EQ PUSH2 0x173F JUMPI PUSH1 0x40 MLOAD PUSH32 0x8C379A000000000000000000000000000000000000000000000000000000000 DUP2 MSTORE PUSH1 0x4 ADD PUSH2 0x1736 SWAP1 PUSH2 0x2569 JUMP JUMPDEST PUSH1 0x40 MLOAD DUP1 SWAP2 SUB SWAP1 REVERT JUMPDEST PUSH1 0x1 PUSH1 0x4 DUP2 GT ISZERO PUSH2 0x1753 JUMPI PUSH2 0x1752 PUSH2 0x1C55 JUMP JUMPDEST JUMPDEST DUP2 PUSH1 0x4 ADD PUSH0 SWAP1 SLOAD SWAP1 PUSH2 0x100 EXP SWAP1 DIV PUSH1 0xFF AND PUSH1 0x4 DUP2 GT ISZERO PUSH2 0x1776 JUMPI PUSH2 0x1775 PUSH2 0x1C55 JUMP JUMPDEST JUMPDEST EQ PUSH2 0x17B6 JUMPI PUSH1 0x40 MLOAD PUSH32 0x8C379A000000000000000000000000000000000000000000000000000000000 DUP2 MSTORE PUSH1 0x4 ADD PUSH2 0x17AD SWAP1 PUSH2 0x25D1 JUMP JUMPDEST PUSH1 0x40 MLOAD DUP1 SWAP2 SUB SWAP1 REVERT JUMPDEST PUSH1 0x2 DUP2 PUSH1 0x4 ADD PUSH0 PUSH2 0x100 EXP DUP2 SLOAD DUP2 PUSH1 0xFF MUL NOT AND SWAP1 DUP4 PUSH1 0x4 DUP2 GT ISZERO PUSH2 0x17DD JUMPI PUSH2 0x17DC PUSH2 0x1C55 JUMP JUMPDEST JUMPDEST MUL OR SWAP1 SSTORE POP DUP1 PUSH1 0x3 ADD SLOAD PUSH1 0x3 PUSH0 DUP3 DUP3 SLOAD PUSH2 0x17F7 SWAP2 SWAP1 PUSH2 0x2209 JUMP JUMPDEST SWAP3 POP POP DUP2 SWAP1 SSTORE POP PUSH0 DUP2 PUSH1 0x3 ADD SLOAD SWAP1 POP PUSH0 DUP3 PUSH1 0x3 ADD DUP2 SWAP1 SSTORE POP PUSH0 DUP3 PUSH1 0x2 ADD PUSH0 SWAP1 SLOAD SWAP1 PUSH2 0x100 EXP SWAP1 DIV PUSH20 0xFFFFFFFFFFFFFFFFFFFFFFFFFFFFFFFFFFFFFFFF AND PUSH20 0xFFFFFFFFFFFFFFFFFFFFFFFFFFFFFFFFFFFFFFFF AND DUP3 PUSH1 0x40 MLOAD PUSH2 0x1857 SWAP1 PUSH2 0x2269 JUMP JUMPDEST PUSH0 PUSH1 0x40 MLOAD DUP1 DUP4 SUB DUP2 DUP6 DUP8 GAS CALL SWAP3 POP POP POP RETURNDATASIZE DUP1 PUSH0 DUP2 EQ PUSH2 0x1891 JUMPI PUSH1 0x40 MLOAD SWAP2 POP PUSH1 0x1F NOT PUSH1 0x3F RETURNDATASIZE ADD AND DUP3 ADD PUSH1 0x40 MSTORE RETURNDATASIZE DUP3 MSTORE RETURNDATASIZE PUSH0 PUSH1 0x20 DUP5 ADD RETURNDATACOPY PUSH2 0x1896 JUMP JUMPDEST PUSH1 0x60 SWAP2 POP JUMPDEST POP POP SWAP1 POP DUP1 PUSH2 0x18DA JUMPI PUSH1 0x40 MLOAD PUSH32 0x8C379A000000000000000000000000000000000000000000000000000000000 DUP2 MSTORE PUSH1 0x4 ADD PUSH2 0x18D1 SWAP1 PUSH2 0x22C7 JUMP JUMPDEST PUSH1 0x40 MLOAD DUP1 SWAP2 SUB SWAP1 REVERT JUMPDEST DUP5 PUSH32 0xFB81F9B30D73D830C3544B34D827C08142579EE75710B490BAB0B3995468C565 PUSH1 0x40 MLOAD PUSH1 0x40 MLOAD DUP1 SWAP2 SUB SWAP1 LOG2 POP POP POP POP PUSH2 0x1913 PUSH2 0x1963 JUMP JUMPDEST POP JUMP JUMPDEST PUSH1 0x2 PUSH0 SLOAD SUB PUSH2 0x195A JUMPI PUSH1 0x40 MLOAD PUSH32 0x8C379A000000000000000000000000000000000000000000000000000000000 DUP2 MSTORE PUSH1 0x4 ADD PUSH2 0x1951 SWAP1 PUSH2 0x2805 JUMP JUMPDEST PUSH1 0x40 MLOAD DUP1 SWAP2 SUB SWAP1 REVERT JUMPDEST PUSH1 0x2 PUSH0 DUP2 SWAP1 SSTORE POP JUMP JUMPDEST PUSH1 0x1 PUSH0 DUP2 SWAP1 SSTORE POP JUMP JUMPDEST PUSH2 0x1974 PUSH2 0x1AB6 JUMP JUMPDEST PUSH20 0xFFFFFFFFFFFFFFFFFFFFFFFFFFFFFFFFFFFFFFFF AND PUSH2 0x1992 PUSH2 0xC77 JUMP JUMPDEST PUSH20 0xFFFFFFFFFFFFFFFFFFFFFFFFFFFFFFFFFFFFFFFF AND EQ PUSH2 0x19F1 JUMPI PUSH2 0x19B5 PUSH2 0x1AB6 JUMP JUMPDEST PUSH1 0x40 MLOAD PUSH32 0x118CDAA700000000000000000000000000000000000000000000000000000000 DUP2 MSTORE PUSH1 0x4 ADD PUSH2 0x19E8 SWAP2 SWAP1 PUSH2 0x1EE5 JUMP JUMPDEST PUSH1 0x40 MLOAD DUP1 SWAP2 SUB SWAP1 REVERT JUMPDEST JUMP JUMPDEST PUSH0 PUSH1 0x1 PUSH0 SWAP1 SLOAD SWAP1 PUSH2 0x100 EXP SWAP1 DIV PUSH20 0xFFFFFFFFFFFFFFFFFFFFFFFFFFFFFFFFFFFFFFFF AND SWAP1 POP DUP2 PUSH1 0x1 PUSH0 PUSH2 0x100 EXP DUP2 SLOAD DUP2 PUSH20 0xFFFFFFFFFFFFFFFFFFFFFFFFFFFFFFFFFFFFFFFF MUL NOT AND SWAP1 DUP4 PUSH20 0xFFFFFFFFFFFFFFFFFFFFFFFFFFFFFFFFFFFFFFFF AND MUL OR SWAP1 SSTORE POP DUP2 PUSH20 0xFFFFFFFFFFFFFFFFFFFFFFFFFFFFFFFFFFFFFFFF AND DUP2 PUSH20 0xFFFFFFFFFFFFFFFFFFFFFFFFFFFFFFFFFFFFFFFF AND PUSH32 0x8BE0079C531659141344CD1FD0A4F28419497F9722A3DAAFE3B4186F6B6457E0 PUSH1 0x40 MLOAD PUSH1 0x40 MLOAD DUP1 SWAP2 SUB SWAP1 LOG3 POP POP JUMP JUMPDEST PUSH0 CALLER SWAP1 POP SWAP1 JUMP JUMPDEST PUSH1 0x40 MLOAD DUP1 PUSH1 0xC0 ADD PUSH1 0x40 MSTORE DUP1 PUSH0 DUP2 MSTORE PUSH1 0x20 ADD PUSH0 PUSH20 0xFFFFFFFFFFFFFFFFFFFFFFFFFFFFFFFFFFFFFFFF AND DUP2 MSTORE PUSH1 0x20 ADD PUSH0 PUSH20 0xFFFFFFFFFFFFFFFFFFFFFFFFFFFFFFFFFFFFFFFF AND DUP2 MSTORE PUSH1 0x20 ADD PUSH0 DUP2 MSTORE PUSH1 0x20 ADD PUSH0 PUSH1 0x4 DUP2 GT ISZERO PUSH2 0x1B1F JUMPI PUSH2 0x1B1E PUSH2 0x1C55 JUMP JUMPDEST JUMPDEST DUP2 MSTORE PUSH1 0x20 ADD PUSH0 ISZERO ISZERO DUP2 MSTORE POP SWAP1 JUMP JUMPDEST PUSH0 DUP3 DUP3 MSTORE PUSH1 0x20 DUP3 ADD SWAP1 POP SWAP3 SWAP2 POP POP JUMP JUMPDEST PUSH32 0x446972656374207061796D656E7473206E6F7420616C6C6F7765640000000000 PUSH0 DUP3 ADD MSTORE POP JUMP JUMPDEST PUSH0 PUSH2 0x1B71 PUSH1 0x1B DUP4 PUSH2 0x1B2D JUMP JUMPDEST SWAP2 POP PUSH2 0x1B7C DUP3 PUSH2 0x1B3D JUMP JUMPDEST PUSH1 0x20 DUP3 ADD SWAP1 POP SWAP2 SWAP1 POP JUMP JUMPDEST PUSH0 PUSH1 0x20 DUP3 ADD SWAP1 POP DUP2 DUP2 SUB PUSH0 DUP4 ADD MSTORE PUSH2 0x1B9E DUP2 PUSH2 0x1B65 JUMP JUMPDEST SWAP1 POP SWAP2 SWAP1 POP JUMP JUMPDEST PUSH0 PUSH0 REVERT JUMPDEST PUSH0 DUP2 SWAP1 POP SWAP2 SWAP1 POP JUMP JUMPDEST PUSH2 0x1BBB DUP2 PUSH2 0x1BA9 JUMP JUMPDEST DUP2 EQ PUSH2 0x1BC5 JUMPI PUSH0 PUSH0 REVERT JUMPDEST POP JUMP JUMPDEST PUSH0 DUP2 CALLDATALOAD SWAP1 POP PUSH2 0x1BD6 DUP2 PUSH2 0x1BB2 JUMP JUMPDEST SWAP3 SWAP2 POP POP JUMP JUMPDEST PUSH0 PUSH1 0x20 DUP3 DUP5 SUB SLT ISZERO PUSH2 0x1BF1 JUMPI PUSH2 0x1BF0 PUSH2 0x1BA5 JUMP JUMPDEST JUMPDEST PUSH0 PUSH2 0x1BFE DUP5 DUP3 DUP6 ADD PUSH2 0x1BC8 JUMP JUMPDEST SWAP2 POP POP SWAP3 SWAP2 POP POP JUMP JUMPDEST PUSH2 0x1C10 DUP2 PUSH2 0x1BA9 JUMP JUMPDEST DUP3 MSTORE POP POP JUMP JUMPDEST PUSH0 PUSH20 0xFFFFFFFFFFFFFFFFFFFFFFFFFFFFFFFFFFFFFFFF DUP3 AND SWAP1 POP SWAP2 SWAP1 POP JUMP JUMPDEST PUSH0 PUSH2 0x1C3F DUP3 PUSH2 0x1C16 JUMP JUMPDEST SWAP1 POP SWAP2 SWAP1 POP JUMP JUMPDEST PUSH2 0x1C4F DUP2 PUSH2 0x1C35 JUMP JUMPDEST DUP3 MSTORE POP POP JUMP JUMPDEST PUSH32 0x4E487B7100000000000000000000000000000000000000000000000000000000 PUSH0 MSTORE PUSH1 0x21 PUSH1 0x4 MSTORE PUSH1 0x24 PUSH0 REVERT JUMPDEST PUSH1 0x5 DUP2 LT PUSH2 0x1C93 JUMPI PUSH2 0x1C92 PUSH2 0x1C55 JUMP JUMPDEST JUMPDEST POP JUMP JUMPDEST PUSH0 DUP2 SWAP1 POP PUSH2 0x1CA3 DUP3 PUSH2 0x1C82 JUMP JUMPDEST SWAP2 SWAP1 POP JUMP JUMPDEST PUSH0 PUSH2 0x1CB2 DUP3 PUSH2 0x1C96 JUMP JUMPDEST SWAP1 POP SWAP2 SWAP1 POP JUMP JUMPDEST PUSH2 0x1CC2 DUP2 PUSH2 0x1CA8 JUMP JUMPDEST DUP3 MSTORE POP POP JUMP JUMPDEST PUSH0 DUP2 ISZERO ISZERO SWAP1 POP SWAP2 SWAP1 POP JUMP JUMPDEST PUSH2 0x1CDC DUP2 PUSH2 0x1CC8 JUMP JUMPDEST DUP3 MSTORE POP POP JUMP JUMPDEST PUSH0 PUSH1 0xC0 DUP3 ADD SWAP1 POP PUSH2 0x1CF5 PUSH0 DUP4 ADD DUP10 PUSH2 0x1C07 JUMP JUMPDEST PUSH2 0x1D02 PUSH1 0x20 DUP4 ADD DUP9 PUSH2 0x1C46 JUMP JUMPDEST PUSH2 0x1D0F PUSH1 0x40 DUP4 ADD DUP8 PUSH2 0x1C46 JUMP JUMPDEST PUSH2 0x1D1C PUSH1 0x60 DUP4 ADD DUP7 PUSH2 0x1C07 JUMP JUMPDEST PUSH2 0x1D29 PUSH1 0x80 DUP4 ADD DUP6 PUSH2 0x1CB9 JUMP JUMPDEST PUSH2 0x1D36 PUSH1 0xA0 DUP4 ADD DUP5 PUSH2 0x1CD3 JUMP JUMPDEST SWAP8 SWAP7 POP POP POP POP POP POP POP JUMP JUMPDEST PUSH2 0x1D4A DUP2 PUSH2 0x1CC8 JUMP JUMPDEST DUP2 EQ PUSH2 0x1D54 JUMPI PUSH0 PUSH0 REVERT JUMPDEST POP JUMP JUMPDEST PUSH0 DUP2 CALLDATALOAD SWAP1 POP PUSH2 0x1D65 DUP2 PUSH2 0x1D41 JUMP JUMPDEST SWAP3 SWAP2 POP POP JUMP JUMPDEST PUSH0 PUSH0 PUSH1 0x40 DUP4 DUP6 SUB SLT ISZERO PUSH2 0x1D81 JUMPI PUSH2 0x1D80 PUSH2 0x1BA5 JUMP JUMPDEST JUMPDEST PUSH0 PUSH2 0x1D8E DUP6 DUP3 DUP7 ADD PUSH2 0x1BC8 JUMP JUMPDEST SWAP3 POP POP PUSH1 0x20 PUSH2 0x1D9F DUP6 DUP3 DUP7 ADD PUSH2 0x1D57 JUMP JUMPDEST SWAP2 POP POP SWAP3 POP SWAP3 SWAP1 POP JUMP JUMPDEST PUSH1 0x4 DUP2 LT PUSH2 0x1DB5 JUMPI PUSH0 PUSH0 REVERT JUMPDEST POP JUMP JUMPDEST PUSH0 DUP2 CALLDATALOAD SWAP1 POP PUSH2 0x1DC6 DUP2 PUSH2 0x1DA9 JUMP JUMPDEST SWAP3 SWAP2 POP POP JUMP JUMPDEST PUSH0 PUSH1 0x20 DUP3 DUP5 SUB SLT ISZERO PUSH2 0x1DE1 JUMPI PUSH2 0x1DE0 PUSH2 0x1BA5 JUMP JUMPDEST JUMPDEST PUSH0 PUSH2 0x1DEE DUP5 DUP3 DUP6 ADD PUSH2 0x1DB8 JUMP JUMPDEST SWAP2 POP POP SWAP3 SWAP2 POP POP JUMP JUMPDEST PUSH2 0x1E00 DUP2 PUSH2 0x1BA9 JUMP JUMPDEST DUP3 MSTORE POP POP JUMP JUMPDEST PUSH2 0x1E0F DUP2 PUSH2 0x1C35 JUMP JUMPDEST DUP3 MSTORE POP POP JUMP JUMPDEST PUSH2 0x1E1E DUP2 PUSH2 0x1CA8 JUMP JUMPDEST DUP3 MSTORE POP POP JUMP JUMPDEST PUSH2 0x1E2D DUP2 PUSH2 0x1CC8 JUMP JUMPDEST DUP3 MSTORE POP POP JUMP JUMPDEST PUSH1 0xC0 DUP3 ADD PUSH0 DUP3 ADD MLOAD PUSH2 0x1E47 PUSH0 DUP6 ADD DUP3 PUSH2 0x1DF7 JUMP JUMPDEST POP PUSH1 0x20 DUP3 ADD MLOAD PUSH2 0x1E5A PUSH1 0x20 DUP6 ADD DUP3 PUSH2 0x1E06 JUMP JUMPDEST POP PUSH1 0x40 DUP3 ADD MLOAD PUSH2 0x1E6D PUSH1 0x40 DUP6 ADD DUP3 PUSH2 0x1E06 JUMP JUMPDEST POP PUSH1 0x60 DUP3 ADD MLOAD PUSH2 0x1E80 PUSH1 0x60 DUP6 ADD DUP3 PUSH2 0x1DF7 JUMP JUMPDEST POP PUSH1 0x80 DUP3 ADD MLOAD PUSH2 0x1E93 PUSH1 0x80 DUP6 ADD DUP3 PUSH2 0x1E15 JUMP JUMPDEST POP PUSH1 0xA0 DUP3 ADD MLOAD PUSH2 0x1EA6 PUSH1 0xA0 DUP6 ADD DUP3 PUSH2 0x1E24 JUMP JUMPDEST POP POP POP POP JUMP JUMPDEST PUSH0 PUSH1 0xC0 DUP3 ADD SWAP1 POP PUSH2 0x1EBF PUSH0 DUP4 ADD DUP5 PUSH2 0x1E33 JUMP JUMPDEST SWAP3 SWAP2 POP POP JUMP JUMPDEST PUSH0 PUSH2 0x1ECF DUP3 PUSH2 0x1C16 JUMP JUMPDEST SWAP1 POP SWAP2 SWAP1 POP JUMP JUMPDEST PUSH2 0x1EDF DUP2 PUSH2 0x1EC5 JUMP JUMPDEST DUP3 MSTORE POP POP JUMP JUMPDEST PUSH0 PUSH1 0x20 DUP3 ADD SWAP1 POP PUSH2 0x1EF8 PUSH0 DUP4 ADD DUP5 PUSH2 0x1ED6 JUMP JUMPDEST SWAP3 SWAP2 POP POP JUMP JUMPDEST PUSH2 0x1F07 DUP2 PUSH2 0x1EC5 JUMP JUMPDEST DUP2 EQ PUSH2 0x1F11 JUMPI PUSH0 PUSH0 REVERT JUMPDEST POP JUMP JUMPDEST PUSH0 DUP2 CALLDATALOAD SWAP1 POP PUSH2 0x1F22 DUP2 PUSH2 0x1EFE JUMP JUMPDEST SWAP3 SWAP2 POP POP JUMP JUMPDEST PUSH0 PUSH1 0x20 DUP3 DUP5 SUB SLT ISZERO PUSH2 0x1F3D JUMPI PUSH2 0x1F3C PUSH2 0x1BA5 JUMP JUMPDEST JUMPDEST PUSH0 PUSH2 0x1F4A DUP5 DUP3 DUP6 ADD PUSH2 0x1F14 JUMP JUMPDEST SWAP2 POP POP SWAP3 SWAP2 POP POP JUMP JUMPDEST PUSH1 0x4 DUP2 LT PUSH2 0x1F64 JUMPI PUSH2 0x1F63 PUSH2 0x1C55 JUMP JUMPDEST JUMPDEST POP JUMP JUMPDEST PUSH0 DUP2 SWAP1 POP PUSH2 0x1F74 DUP3 PUSH2 0x1F53 JUMP JUMPDEST SWAP2 SWAP1 POP JUMP JUMPDEST PUSH0 PUSH2 0x1F83 DUP3 PUSH2 0x1F67 JUMP JUMPDEST SWAP1 POP SWAP2 SWAP1 POP JUMP JUMPDEST PUSH2 0x1F93 DUP2 PUSH2 0x1F79 JUMP JUMPDEST DUP3 MSTORE POP POP JUMP JUMPDEST PUSH0 PUSH1 0x60 DUP3 ADD SWAP1 POP PUSH2 0x1FAC PUSH0 DUP4 ADD DUP7 PUSH2 0x1F8A JUMP JUMPDEST PUSH2 0x1FB9 PUSH1 0x20 DUP4 ADD DUP6 PUSH2 0x1CD3 JUMP JUMPDEST PUSH2 0x1FC6 PUSH1 0x40 DUP4 ADD DUP5 PUSH2 0x1C07 JUMP JUMPDEST SWAP5 SWAP4 POP POP POP POP JUMP JUMPDEST PUSH0 PUSH1 0x20 DUP3 ADD SWAP1 POP PUSH2 0x1FE1 PUSH0 DUP4 ADD DUP5 PUSH2 0x1C07 JUMP JUMPDEST SWAP3 SWAP2 POP POP JUMP JUMPDEST PUSH2 0x1FF0 DUP2 PUSH2 0x1C35 JUMP JUMPDEST DUP2 EQ PUSH2 0x1FFA JUMPI PUSH0 PUSH0 REVERT JUMPDEST POP JUMP JUMPDEST PUSH0 DUP2 CALLDATALOAD SWAP1 POP PUSH2 0x200B DUP2 PUSH2 0x1FE7 JUMP JUMPDEST SWAP3 SWAP2 POP POP JUMP JUMPDEST PUSH0 PUSH1 0x20 DUP3 DUP5 SUB SLT ISZERO PUSH2 0x2026 JUMPI PUSH2 0x2025 PUSH2 0x1BA5 JUMP JUMPDEST JUMPDEST PUSH0 PUSH2 0x2033 DUP5 DUP3 DUP6 ADD PUSH2 0x1FFD JUMP JUMPDEST SWAP2 POP POP SWAP3 SWAP2 POP POP JUMP JUMPDEST PUSH32 0x457363726F7720646F6573206E6F742065786973740000000000000000000000 PUSH0 DUP3 ADD MSTORE POP JUMP JUMPDEST PUSH0 PUSH2 0x2070 PUSH1 0x15 DUP4 PUSH2 0x1B2D JUMP JUMPDEST SWAP2 POP PUSH2 0x207B DUP3 PUSH2 0x203C JUMP JUMPDEST PUSH1 0x20 DUP3 ADD SWAP1 POP SWAP2 SWAP1 POP JUMP JUMPDEST PUSH0 PUSH1 0x20 DUP3 ADD SWAP1 POP DUP2 DUP2 SUB PUSH0 DUP4 ADD MSTORE PUSH2 0x209D DUP2 PUSH2 0x2064 JUMP JUMPDEST SWAP1 POP SWAP2 SWAP1 POP JUMP JUMPDEST PUSH32 0x496E76616C696420726F6C650000000000000000000000000000000000000000 PUSH0 DUP3 ADD MSTORE POP JUMP JUMPDEST PUSH0 PUSH2 0x20D8 PUSH1 0xC DUP4 PUSH2 0x1B2D JUMP JUMPDEST SWAP2 POP PUSH2 0x20E3 DUP3 PUSH2 0x20A4 JUMP JUMPDEST PUSH1 0x20 DUP3 ADD SWAP1 POP SWAP2 SWAP1 POP JUMP JUMPDEST PUSH0 PUSH1 0x20 DUP3 ADD SWAP1 POP DUP2 DUP2 SUB PUSH0 DUP4 ADD MSTORE PUSH2 0x2105 DUP2 PUSH2 0x20CC JUMP JUMPDEST SWAP1 POP SWAP2 SWAP1 POP JUMP JUMPDEST PUSH32 0x41726269746572206E6F7420617070726F766564000000000000000000000000 PUSH0 DUP3 ADD MSTORE POP JUMP JUMPDEST PUSH0 PUSH2 0x2140 PUSH1 0x14 DUP4 PUSH2 0x1B2D JUMP JUMPDEST SWAP2 POP PUSH2 0x214B DUP3 PUSH2 0x210C JUMP JUMPDEST PUSH1 0x20 DUP3 ADD SWAP1 POP SWAP2 SWAP1 POP JUMP JUMPDEST PUSH0 PUSH1 0x20 DUP3 ADD SWAP1 POP DUP2 DUP2 SUB PUSH0 DUP4 ADD MSTORE PUSH2 0x216D DUP2 PUSH2 0x2134 JUMP JUMPDEST SWAP1 POP SWAP2 SWAP1 POP JUMP JUMPDEST PUSH32 0x4E6F742064697370757465640000000000000000000000000000000000000000 PUSH0 DUP3 ADD MSTORE POP JUMP JUMPDEST PUSH0 PUSH2 0x21A8 PUSH1 0xC DUP4 PUSH2 0x1B2D JUMP JUMPDEST SWAP2 POP PUSH2 0x21B3 DUP3 PUSH2 0x2174 JUMP JUMPDEST PUSH1 0x20 DUP3 ADD SWAP1 POP SWAP2 SWAP1 POP JUMP JUMPDEST PUSH0 PUSH1 0x20 DUP3 ADD SWAP1 POP DUP2 DUP2 SUB PUSH0 DUP4 ADD MSTORE PUSH2 0x21D5 DUP2 PUSH2 0x219C JUMP JUMPDEST SWAP1 POP SWAP2 SWAP1 POP JUMP JUMPDEST PUSH32 0x4E487B7100000000000000000000000000000000000000000000000000000000 PUSH0 MSTORE PUSH1 0x11 PUSH1 0x4 MSTORE PUSH1 0x24 PUSH0 REVERT JUMPDEST PUSH0 PUSH2 0x2213 DUP3 PUSH2 0x1BA9 JUMP JUMPDEST SWAP2 POP PUSH2 0x221E DUP4 PUSH2 0x1BA9 JUMP JUMPDEST SWAP3 POP DUP3 DUP3 SUB SWAP1 POP DUP2 DUP2 GT ISZERO PUSH2 0x2236 JUMPI PUSH2 0x2235 PUSH2 0x21DC JUMP JUMPDEST JUMPDEST SWAP3 SWAP2 POP POP JUMP JUMPDEST PUSH0 DUP2 SWAP1 POP SWAP3 SWAP2 POP POP JUMP JUMPDEST POP JUMP JUMPDEST PUSH0 PUSH2 0x2254 PUSH0 DUP4 PUSH2 0x223C JUMP JUMPDEST SWAP2 POP PUSH2 0x225F DUP3 PUSH2 0x2246 JUMP JUMPDEST PUSH0 DUP3 ADD SWAP1 POP SWAP2 SWAP1 POP JUMP JUMPDEST PUSH0 PUSH2 0x2273 DUP3 PUSH2 0x2249 JUMP JUMPDEST SWAP2 POP DUP2 SWAP1 POP SWAP2 SWAP1 POP JUMP JUMPDEST PUSH32 0x5472616E73666572206661696C65640000000000000000000000000000000000 PUSH0 DUP3 ADD MSTORE POP JUMP JUMPDEST PUSH0 PUSH2 0x22B1 PUSH1 0xF DUP4 PUSH2 0x1B2D JUMP JUMPDEST SWAP2 POP PUSH2 0x22BC DUP3 PUSH2 0x227D JUMP JUMPDEST PUSH1 0x20 DUP3 ADD SWAP1 POP SWAP2 SWAP1 POP JUMP JUMPDEST PUSH0 PUSH1 0x20 DUP3 ADD SWAP1 POP DUP2 DUP2 SUB PUSH0 DUP4 ADD MSTORE PUSH2 0x22DE DUP2 PUSH2 0x22A5 JUMP JUMPDEST SWAP1 POP SWAP2 SWAP1 POP JUMP JUMPDEST PUSH32 0x526566756E64206661696C656400000000000000000000000000000000000000 PUSH0 DUP3 ADD MSTORE POP JUMP JUMPDEST PUSH0 PUSH2 0x2319 PUSH1 0xD DUP4 PUSH2 0x1B2D JUMP JUMPDEST SWAP2 POP PUSH2 0x2324 DUP3 PUSH2 0x22E5 JUMP JUMPDEST PUSH1 0x20 DUP3 ADD SWAP1 POP SWAP2 SWAP1 POP JUMP JUMPDEST PUSH0 PUSH1 0x20 DUP3 ADD SWAP1 POP DUP2 DUP2 SUB PUSH0 DUP4 ADD MSTORE PUSH2 0x2346 DUP2 PUSH2 0x230D JUMP JUMPDEST SWAP1 POP SWAP2 SWAP1 POP JUMP JUMPDEST PUSH0 PUSH1 0x20 DUP3 ADD SWAP1 POP PUSH2 0x2360 PUSH0 DUP4 ADD DUP5 PUSH2 0x1CD3 JUMP JUMPDEST SWAP3 SWAP2 POP POP JUMP JUMPDEST PUSH32 0x416C726561647920726567697374657265640000000000000000000000000000 PUSH0 DUP3 ADD MSTORE POP JUMP JUMPDEST PUSH0 PUSH2 0x239A PUSH1 0x12 DUP4 PUSH2 0x1B2D JUMP JUMPDEST SWAP2 POP PUSH2 0x23A5 DUP3 PUSH2 0x2366 JUMP JUMPDEST PUSH1 0x20 DUP3 ADD SWAP1 POP SWAP2 SWAP1 POP JUMP JUMPDEST PUSH0 PUSH1 0x20 DUP3 ADD SWAP1 POP DUP2 DUP2 SUB PUSH0 DUP4 ADD MSTORE PUSH2 0x23C7 DUP2 PUSH2 0x238E JUMP JUMPDEST SWAP1 POP SWAP2 SWAP1 POP JUMP JUMPDEST PUSH0 PUSH1 0x20 DUP3 ADD SWAP1 POP PUSH2 0x23E1 PUSH0 DUP4 ADD DUP5 PUSH2 0x1F8A JUMP JUMPDEST SWAP3 SWAP2 POP POP JUMP JUMPDEST PUSH32 0x4F6E6C792062757965722063616E206469737075746500000000000000000000 PUSH0 DUP3 ADD MSTORE POP JUMP JUMPDEST PUSH0 PUSH2 0x241B PUSH1 0x16 DUP4 PUSH2 0x1B2D JUMP JUMPDEST SWAP2 POP PUSH2 0x2426 DUP3 PUSH2 0x23E7 JUMP JUMPDEST PUSH1 0x20 DUP3 ADD SWAP1 POP SWAP2 SWAP1 POP JUMP JUMPDEST PUSH0 PUSH1 0x20 DUP3 ADD SWAP1 POP DUP2 DUP2 SUB PUSH0 DUP4 ADD MSTORE PUSH2 0x2448 DUP2 PUSH2 0x240F JUMP JUMPDEST SWAP1 POP SWAP2 SWAP1 POP JUMP JUMPDEST PUSH32 0x43616E6E6F742064697370757465000000000000000000000000000000000000 PUSH0 DUP3 ADD MSTORE POP JUMP JUMPDEST PUSH0 PUSH2 0x2483 PUSH1 0xE DUP4 PUSH2 0x1B2D JUMP JUMPDEST SWAP2 POP PUSH2 0x248E DUP3 PUSH2 0x244F JUMP JUMPDEST PUSH1 0x20 DUP3 ADD SWAP1 POP SWAP2 SWAP1 POP JUMP JUMPDEST PUSH0 PUSH1 0x20 DUP3 ADD SWAP1 POP DUP2 DUP2 SUB PUSH0 DUP4 ADD MSTORE PUSH2 0x24B0 DUP2 PUSH2 0x2477 JUMP JUMPDEST SWAP1 POP SWAP2 SWAP1 POP JUMP JUMPDEST PUSH32 0x4E6F7420616E2061726269746572000000000000000000000000000000000000 PUSH0 DUP3 ADD MSTORE POP JUMP JUMPDEST PUSH0 PUSH2 0x24EB PUSH1 0xE DUP4 PUSH2 0x1B2D JUMP JUMPDEST SWAP2 POP PUSH2 0x24F6 DUP3 PUSH2 0x24B7 JUMP JUMPDEST PUSH1 0x20 DUP3 ADD SWAP1 POP SWAP2 SWAP1 POP JUMP JUMPDEST PUSH0 PUSH1 0x20 DUP3 ADD SWAP1 POP DUP2 DUP2 SUB PUSH0 DUP4 ADD MSTORE PUSH2 0x2518 DUP2 PUSH2 0x24DF JUMP JUMPDEST SWAP1 POP SWAP2 SWAP1 POP JUMP JUMPDEST PUSH32 0x4E6F742062757965720000000000000000000000000000000000000000000000 PUSH0 DUP3 ADD MSTORE POP JUMP JUMPDEST PUSH0 PUSH2 0x2553 PUSH1 0x9 DUP4 PUSH2 0x1B2D JUMP JUMPDEST SWAP2 POP PUSH2 0x255E DUP3 PUSH2 0x251F JUMP JUMPDEST PUSH1 0x20 DUP3 ADD SWAP1 POP SWAP2 SWAP1 POP JUMP JUMPDEST PUSH0 PUSH1 0x20 DUP3 ADD SWAP1 POP DUP2 DUP2 SUB PUSH0 DUP4 ADD MSTORE PUSH2 0x2580 DUP2 PUSH2 0x2547 JUMP JUMPDEST SWAP1 POP SWAP2 SWAP1 POP JUMP JUMPDEST PUSH32 0x496E76616C696420737461746500000000000000000000000000000000000000 PUSH0 DUP3 ADD MSTORE POP JUMP JUMPDEST PUSH0 PUSH2 0x25BB PUSH1 0xD DUP4 PUSH2 0x1B2D JUMP JUMPDEST SWAP2 POP PUSH2 0x25C6 DUP3 PUSH2 0x2587 JUMP JUMPDEST PUSH1 0x20 DUP3 ADD SWAP1 POP SWAP2 SWAP1 POP JUMP JUMPDEST PUSH0 PUSH1 0x20 DUP3 ADD SWAP1 POP DUP2 DUP2 SUB PUSH0 DUP4 ADD MSTORE PUSH2 0x25E8 DUP2 PUSH2 0x25AF JUMP JUMPDEST SWAP1 POP SWAP2 SWAP1 POP JUMP JUMPDEST PUSH32 0x4D7573742073656E642045544800000000000000000000000000000000000000 PUSH0 DUP3 ADD MSTORE POP JUMP JUMPDEST PUSH0 PUSH2 0x2623 PUSH1 0xD DUP4 PUSH2 0x1B2D JUMP JUMPDEST SWAP2 POP PUSH2 0x262E DUP3 PUSH2 0x25EF JUMP JUMPDEST PUSH1 0x20 DUP3 ADD SWAP1 POP SWAP2 SWAP1 POP JUMP JUMPDEST PUSH0 PUSH1 0x20 DUP3 ADD SWAP1 POP DUP2 DUP2 SUB PUSH0 DUP4 ADD MSTORE PUSH2 0x2650 DUP2 PUSH2 0x2617 JUMP JUMPDEST SWAP1 POP SWAP2 SWAP1 POP JUMP JUMPDEST PUSH0 PUSH2 0x2661 DUP3 PUSH2 0x1BA9 JUMP JUMPDEST SWAP2 POP PUSH2 0x266C DUP4 PUSH2 0x1BA9 JUMP JUMPDEST SWAP3 POP DUP3 DUP3 ADD SWAP1 POP DUP1 DUP3 GT ISZERO PUSH2 0x2684 JUMPI PUSH2 0x2683 PUSH2 0x21DC JUMP JUMPDEST JUMPDEST SWAP3 SWAP2 POP POP JUMP JUMPDEST PUSH32 0x496E76616C69642073656C6C6572000000000000000000000000000000000000 PUSH0 DUP3 ADD MSTORE POP JUMP JUMPDEST PUSH0 PUSH2 0x26BE PUSH1 0xE DUP4 PUSH2 0x1B2D JUMP JUMPDEST SWAP2 POP PUSH2 0x26C9 DUP3 PUSH2 0x268A JUMP JUMPDEST PUSH1 0x20 DUP3 ADD SWAP1 POP SWAP2 SWAP1 POP JUMP JUMPDEST PUSH0 PUSH1 0x20 DUP3 ADD SWAP1 POP DUP2 DUP2 SUB PUSH0 DUP4 ADD MSTORE PUSH2 0x26EB DUP2 PUSH2 0x26B2 JUMP JUMPDEST SWAP1 POP SWAP2 SWAP1 POP JUMP JUMPDEST PUSH0 PUSH2 0x26FC DUP3 PUSH2 0x1BA9 JUMP JUMPDEST SWAP2 POP PUSH32 0xFFFFFFFFFFFFFFFFFFFFFFFFFFFFFFFFFFFFFFFFFFFFFFFFFFFFFFFFFFFFFFFF DUP3 SUB PUSH2 0x272E JUMPI PUSH2 0x272D PUSH2 0x21DC JUMP JUMPDEST JUMPDEST PUSH1 0x1 DUP3 ADD SWAP1 POP SWAP2 SWAP1 POP JUMP JUMPDEST PUSH0 DUP2 SWAP1 POP SWAP2 SWAP1 POP JUMP JUMPDEST PUSH0 PUSH2 0x275C PUSH2 0x2757 PUSH2 0x2752 DUP5 PUSH2 0x1C16 JUMP JUMPDEST PUSH2 0x2739 JUMP JUMPDEST PUSH2 0x1C16 JUMP JUMPDEST SWAP1 POP SWAP2 SWAP1 POP JUMP JUMPDEST PUSH0 PUSH2 0x276D DUP3 PUSH2 0x2742 JUMP JUMPDEST SWAP1 POP SWAP2 SWAP1 POP JUMP JUMPDEST PUSH0 PUSH2 0x277E DUP3 PUSH2 0x2763 JUMP JUMPDEST SWAP1 POP SWAP2 SWAP1 POP JUMP JUMPDEST PUSH2 0x278E DUP2 PUSH2 0x2774 JUMP JUMPDEST DUP3 MSTORE POP POP JUMP JUMPDEST PUSH0 PUSH1 0x40 DUP3 ADD SWAP1 POP PUSH2 0x27A7 PUSH0 DUP4 ADD DUP6 PUSH2 0x1ED6 JUMP JUMPDEST PUSH2 0x27B4 PUSH1 0x20 DUP4 ADD DUP5 PUSH2 0x2785 JUMP JUMPDEST SWAP4 SWAP3 POP POP POP JUMP JUMPDEST PUSH32 0x5265656E7472616E637947756172643A207265656E7472616E742063616C6C00 PUSH0 DUP3 ADD MSTORE POP JUMP JUMPDEST PUSH0 PUSH2 0x27EF PUSH1 0x1F DUP4 PUSH2 0x1B2D JUMP JUMPDEST SWAP2 POP PUSH2 0x27FA DUP3 PUSH2 0x27BB JUMP JUMPDEST PUSH1 0x20 DUP3 ADD SWAP1 POP SWAP2 SWAP1 POP JUMP JUMPDEST PUSH0 PUSH1 0x20 DUP3 ADD SWAP1 POP DUP2 DUP2 SUB PUSH0 DUP4 ADD MSTORE PUSH2 0x281C DUP2 PUSH2 0x27E3 JUMP JUMPDEST SWAP1 POP SWAP2 SWAP1 POP JUMP INVALID LOG2 PUSH5 0x6970667358 0x22 SLT KECCAK256 PUSH30 0x1E4DE4E8C629F0F997D7885631F83DB0D471C6FE14E8AC79837A29AAB179 MULMOD PUSH5 0x736F6C6343 STOP ADDMOD 0x22 STOP CALLER "
				},
				"gasEstimates": {
					"creation": {
						"codeDepositCost": "2065800",
						"executionCost": "infinite",
						"totalCost": "infinite"
					},
					"external": {
						"approveArbiter(address)": "infinite",
						"confirmDelivery(uint256)": "infinite",
						"createEscrow(address)": "infinite",
						"deposit(uint256)": "infinite",
						"escrowCounter()": "2514",
						"escrows(uint256)": "infinite",
						"getEscrow(uint256)": "infinite",
						"owner()": "2582",
						"raiseDispute(uint256)": "32640",
						"register(uint8)": "75419",
						"registrations(address)": "7546",
						"renounceOwnership()": "infinite",
						"resolveDispute(uint256,bool)": "infinite",
						"totalFundsLocked()": "2447",
						"transferOwnership(address)": "infinite"
					}
				},
				"methodIdentifiers": {
					"approveArbiter(address)": "b592d3a1",
					"confirmDelivery(uint256)": "fd84cb97",
					"createEscrow(address)": "f6a8419e",
					"deposit(uint256)": "b6b55f25",
					"escrowCounter()": "c7ceafea",
					"escrows(uint256)": "012f52ee",
					"getEscrow(uint256)": "7d19e596",
					"owner()": "8da5cb5b",
					"raiseDispute(uint256)": "a5c1674e",
					"register(uint8)": "61d689fa",
					"registrations(address)": "942e6bcf",
					"renounceOwnership()": "715018a6",
					"resolveDispute(uint256,bool)": "34b25ee2",
					"totalFundsLocked()": "ee2d8657",
					"transferOwnership(address)": "f2fde38b"
				}
			},
			"storageLayout": {
				"storage": [
					{
						"astId": 158,
						"contract": "contracts/escrowsystem.sol:EscrowSmartContract",
						"label": "_status",
						"offset": 0,
						"slot": "0",
						"type": "t_uint256"
					},
					{
						"astId": 8,
						"contract": "contracts/escrowsystem.sol:EscrowSmartContract",
						"label": "_owner",
						"offset": 0,
						"slot": "1",
						"type": "t_address"
					},
					{
						"astId": 287,
						"contract": "contracts/escrowsystem.sol:EscrowSmartContract",
						"label": "escrowCounter",
						"offset": 0,
						"slot": "2",
						"type": "t_uint256"
					},
					{
						"astId": 289,
						"contract": "contracts/escrowsystem.sol:EscrowSmartContract",
						"label": "totalFundsLocked",
						"offset": 0,
						"slot": "3",
						"type": "t_uint256"
					},
					{
						"astId": 294,
						"contract": "contracts/escrowsystem.sol:EscrowSmartContract",
						"label": "registrations",
						"offset": 0,
						"slot": "4",
						"type": "t_mapping(t_address,t_struct(Registration)271_storage)"
					},
					{
						"astId": 299,
						"contract": "contracts/escrowsystem.sol:EscrowSmartContract",
						"label": "escrows",
						"offset": 0,
						"slot": "5",
						"type": "t_mapping(t_uint256,t_struct(Escrow)285_storage)"
					}
				],
				"types": {
					"t_address": {
						"encoding": "inplace",
						"label": "address",
						"numberOfBytes": "20"
					},
					"t_address_payable": {
						"encoding": "inplace",
						"label": "address payable",
						"numberOfBytes": "20"
					},
					"t_bool": {
						"encoding": "inplace",
						"label": "bool",
						"numberOfBytes": "1"
					},
					"t_enum(EscrowState)263": {
						"encoding": "inplace",
						"label": "enum EscrowSmartContract.EscrowState",
						"numberOfBytes": "1"
					},
					"t_enum(Role)257": {
						"encoding": "inplace",
						"label": "enum EscrowSmartContract.Role",
						"numberOfBytes": "1"
					},
					"t_mapping(t_address,t_struct(Registration)271_storage)": {
						"encoding": "mapping",
						"key": "t_address",
						"label": "mapping(address => struct EscrowSmartContract.Registration)",
						"numberOfBytes": "32",
						"value": "t_struct(Registration)271_storage"
					},
					"t_mapping(t_uint256,t_struct(Escrow)285_storage)": {
						"encoding": "mapping",
						"key": "t_uint256",
						"label": "mapping(uint256 => struct EscrowSmartContract.Escrow)",
						"numberOfBytes": "32",
						"value": "t_struct(Escrow)285_storage"
					},
					"t_struct(Escrow)285_storage": {
						"encoding": "inplace",
						"label": "struct EscrowSmartContract.Escrow",
						"members": [
							{
								"astId": 273,
								"contract": "contracts/escrowsystem.sol:EscrowSmartContract",
								"label": "id",
								"offset": 0,
								"slot": "0",
								"type": "t_uint256"
							},
							{
								"astId": 275,
								"contract": "contracts/escrowsystem.sol:EscrowSmartContract",
								"label": "buyer",
								"offset": 0,
								"slot": "1",
								"type": "t_address_payable"
							},
							{
								"astId": 277,
								"contract": "contracts/escrowsystem.sol:EscrowSmartContract",
								"label": "seller",
								"offset": 0,
								"slot": "2",
								"type": "t_address_payable"
							},
							{
								"astId": 279,
								"contract": "contracts/escrowsystem.sol:EscrowSmartContract",
								"label": "amount",
								"offset": 0,
								"slot": "3",
								"type": "t_uint256"
							},
							{
								"astId": 282,
								"contract": "contracts/escrowsystem.sol:EscrowSmartContract",
								"label": "state",
								"offset": 0,
								"slot": "4",
								"type": "t_enum(EscrowState)263"
							},
							{
								"astId": 284,
								"contract": "contracts/escrowsystem.sol:EscrowSmartContract",
								"label": "exists",
								"offset": 1,
								"slot": "4",
								"type": "t_bool"
							}
						],
						"numberOfBytes": "160"
					},
					"t_struct(Registration)271_storage": {
						"encoding": "inplace",
						"label": "struct EscrowSmartContract.Registration",
						"members": [
							{
								"astId": 266,
								"contract": "contracts/escrowsystem.sol:EscrowSmartContract",
								"label": "role",
								"offset": 0,
								"slot": "0",
								"type": "t_enum(Role)257"
							},
							{
								"astId": 268,
								"contract": "contracts/escrowsystem.sol:EscrowSmartContract",
								"label": "arbiterApproved",
								"offset": 1,
								"slot": "0",
								"type": "t_bool"
							},
							{
								"astId": 270,
								"contract": "contracts/escrowsystem.sol:EscrowSmartContract",
								"label": "registeredAt",
								"offset": 0,
								"slot": "1",
								"type": "t_uint256"
							}
						],
						"numberOfBytes": "64"
					},
					"t_uint256": {
						"encoding": "inplace",
						"label": "uint256",
						"numberOfBytes": "32"
					}
				}
			},
			"userdoc": {
				"kind": "user",
				"methods": {},
				"version": 1
			}
		}
	}
}