{
	"contracts/9_crowdfunding.sol": {
		"smartCrowdFundingContract": {
			"abi": [
				{
					"inputs": [],
					"stateMutability": "nonpayable",
					"type": "constructor"
				},
				{
					"inputs": [
						{
							"internalType": "address",
							"name": "",
							"type": "address"
						}
					],
					"name": "Deposits",
					"outputs": [
						{
							"internalType": "address",
							"name": "from",
							"type": "address"
						},
						{
							"internalType": "uint256",
							"name": "amount",
							"type": "uint256"
						},
						{
							"internalType": "uint256",
							"name": "timestamp",
							"type": "uint256"
						}
					],
					"stateMutability": "view",
					"type": "function"
				},
				{
					"inputs": [],
					"name": "donateFundToContract",
					"outputs": [],
					"stateMutability": "payable",
					"type": "function"
				},
				{
					"inputs": [],
					"name": "fundingDetails",
					"outputs": [
						{
							"internalType": "uint256",
							"name": "fundingAmount",
							"type": "uint256"
						},
						{
							"internalType": "uint256",
							"name": "availableAmount",
							"type": "uint256"
						},
						{
							"internalType": "uint256",
							"name": "deadline",
							"type": "uint256"
						}
					],
					"stateMutability": "view",
					"type": "function"
				},
				{
					"inputs": [],
					"name": "numOfDeposits",
					"outputs": [
						{
							"internalType": "uint256",
							"name": "",
							"type": "uint256"
						}
					],
					"stateMutability": "view",
					"type": "function"
				},
				{
					"inputs": [],
					"name": "withDrawEthFromContract",
					"outputs": [],
					"stateMutability": "nonpayable",
					"type": "function"
				}
			],
			"devdoc": {
				"kind": "dev",
				"methods": {},
				"version": 1
			},
			"evm": {
				"assembly": "    /* \"contracts/9_crowdfunding.sol\":66:2119  contract smartCrowdFundingContract {... */\n  mstore(0x40, 0x80)\n    /* \"contracts/9_crowdfunding.sol\":444:622  constructor() {... */\n  callvalue\n  dup1\n  iszero\n  tag_1\n  jumpi\n  0x00\n  dup1\n  revert\ntag_1:\n  pop\n    /* \"contracts/9_crowdfunding.sol\":488:498  msg.sender */\n  caller\n    /* \"contracts/9_crowdfunding.sol\":469:477  ownerAdd */\n  0x00\n  dup1\n    /* \"contracts/9_crowdfunding.sol\":469:499  ownerAdd = payable(msg.sender) */\n  0x0100\n  exp\n  dup2\n  sload\n  dup2\n  0xffffffffffffffffffffffffffffffffffffffff\n  mul\n  not\n  and\n  swap1\n  dup4\n  0xffffffffffffffffffffffffffffffffffffffff\n  and\n  mul\n  or\n  swap1\n  sstore\n  pop\n    /* \"contracts/9_crowdfunding.sol\":528:582  FundingStruct( 100 , 0 , block.timestamp + 5 minutes ) */\n  mload(0x40)\n  dup1\n  0x60\n  add\n  0x40\n  mstore\n  dup1\n    /* \"contracts/9_crowdfunding.sol\":543:546  100 */\n  0x64\n    /* \"contracts/9_crowdfunding.sol\":528:582  FundingStruct( 100 , 0 , block.timestamp + 5 minutes ) */\n  dup2\n  mstore\n  0x20\n  add\n    /* \"contracts/9_crowdfunding.sol\":549:550  0 */\n  0x00\n    /* \"contracts/9_crowdfunding.sol\":528:582  FundingStruct( 100 , 0 , block.timestamp + 5 minutes ) */\n  dup2\n  mstore\n  0x20\n  add\n    /* \"contracts/9_crowdfunding.sol\":571:580  5 minutes */\n  0x012c\n    /* \"contracts/9_crowdfunding.sol\":553:568  block.timestamp */\n  timestamp\n    /* \"contracts/9_crowdfunding.sol\":553:580  block.timestamp + 5 minutes */\n  tag_4\n  swap2\n  swap1\n  tag_5\n  jump\t// in\ntag_4:\n    /* \"contracts/9_crowdfunding.sol\":528:582  FundingStruct( 100 , 0 , block.timestamp + 5 minutes ) */\n  dup2\n  mstore\n  pop\n    /* \"contracts/9_crowdfunding.sol\":511:525  fundingDetails */\n  0x01\n    /* \"contracts/9_crowdfunding.sol\":511:582  fundingDetails = FundingStruct( 100 , 0 , block.timestamp + 5 minutes ) */\n  0x00\n  dup3\n  add\n  mload\n  dup2\n  0x00\n  add\n  sstore\n  0x20\n  dup3\n  add\n  mload\n  dup2\n  0x01\n  add\n  sstore\n  0x40\n  dup3\n  add\n  mload\n  dup2\n  0x02\n  add\n  sstore\n  swap1\n  pop\n  pop\n    /* \"contracts/9_crowdfunding.sol\":66:2119  contract smartCrowdFundingContract {... */\n  jump(tag_6)\n    /* \"#utility.yul\":7:84   */\ntag_7:\n    /* \"#utility.yul\":44:51   */\n  0x00\n    /* \"#utility.yul\":73:78   */\n  dup2\n    /* \"#utility.yul\":62:78   */\n  swap1\n  pop\n    /* \"#utility.yul\":7:84   */\n  swap2\n  swap1\n  pop\n  jump\t// out\n    /* \"#utility.yul\":90:270   */\ntag_8:\n    /* \"#utility.yul\":138:215   */\n  0x4e487b7100000000000000000000000000000000000000000000000000000000\n    /* \"#utility.yul\":135:136   */\n  0x00\n    /* \"#utility.yul\":128:216   */\n  mstore\n    /* \"#utility.yul\":235:239   */\n  0x11\n    /* \"#utility.yul\":232:233   */\n  0x04\n    /* \"#utility.yul\":225:240   */\n  mstore\n    /* \"#utility.yul\":259:263   */\n  0x24\n    /* \"#utility.yul\":256:257   */\n  0x00\n    /* \"#utility.yul\":249:264   */\n  revert\n    /* \"#utility.yul\":276:581   */\ntag_5:\n    /* \"#utility.yul\":316:319   */\n  0x00\n    /* \"#utility.yul\":335:355   */\n  tag_13\n    /* \"#utility.yul\":353:354   */\n  dup3\n    /* \"#utility.yul\":335:355   */\n  tag_7\n  jump\t// in\ntag_13:\n    /* \"#utility.yul\":330:355   */\n  swap2\n  pop\n    /* \"#utility.yul\":369:389   */\n  tag_14\n    /* \"#utility.yul\":387:388   */\n  dup4\n    /* \"#utility.yul\":369:389   */\n  tag_7\n  jump\t// in\ntag_14:\n    /* \"#utility.yul\":364:389   */\n  swap3\n  pop\n    /* \"#utility.yul\":523:524   */\n  dup3\n    /* \"#utility.yul\":455:521   */\n  0xffffffffffffffffffffffffffffffffffffffffffffffffffffffffffffffff\n    /* \"#utility.yul\":451:525   */\n  sub\n    /* \"#utility.yul\":448:449   */\n  dup3\n    /* \"#utility.yul\":445:526   */\n  gt\n    /* \"#utility.yul\":442:549   */\n  iszero\n  tag_15\n  jumpi\n    /* \"#utility.yul\":529:547   */\n  tag_16\n  tag_8\n  jump\t// in\ntag_16:\n    /* \"#utility.yul\":442:549   */\ntag_15:\n    /* \"#utility.yul\":573:574   */\n  dup3\n    /* \"#utility.yul\":570:571   */\n  dup3\n    /* \"#utility.yul\":566:575   */\n  add\n    /* \"#utility.yul\":559:575   */\n  swap1\n  pop\n    /* \"#utility.yul\":276:581   */\n  swap3\n  swap2\n  pop\n  pop\n  jump\t// out\n    /* \"contracts/9_crowdfunding.sol\":66:2119  contract smartCrowdFundingContract {... */\ntag_6:\n  dataSize(sub_0)\n  dup1\n  dataOffset(sub_0)\n  0x00\n  codecopy\n  0x00\n  return\nstop\n\nsub_0: assembly {\n        /* \"contracts/9_crowdfunding.sol\":66:2119  contract smartCrowdFundingContract {... */\n      mstore(0x40, 0x80)\n      jumpi(tag_1, lt(calldatasize, 0x04))\n      shr(0xe0, calldataload(0x00))\n      dup1\n      0x3ee2d7c2\n      eq\n      tag_2\n      jumpi\n      dup1\n      0x72b264b6\n      eq\n      tag_3\n      jumpi\n      dup1\n      0xb8afac45\n      eq\n      tag_4\n      jumpi\n      dup1\n      0xcd16ebf7\n      eq\n      tag_5\n      jumpi\n      dup1\n      0xf0c9f010\n      eq\n      tag_6\n      jumpi\n    tag_1:\n      0x00\n      dup1\n      revert\n        /* \"contracts/9_crowdfunding.sol\":628:675  mapping (address => deposition) public Deposits */\n    tag_2:\n      callvalue\n      dup1\n      iszero\n      tag_7\n      jumpi\n      0x00\n      dup1\n      revert\n    tag_7:\n      pop\n      tag_8\n      0x04\n      dup1\n      calldatasize\n      sub\n      dup2\n      add\n      swap1\n      tag_9\n      swap2\n      swap1\n      tag_10\n      jump\t// in\n    tag_9:\n      tag_11\n      jump\t// in\n    tag_8:\n      mload(0x40)\n      tag_12\n      swap4\n      swap3\n      swap2\n      swap1\n      tag_13\n      jump\t// in\n    tag_12:\n      mload(0x40)\n      dup1\n      swap2\n      sub\n      swap1\n      return\n        /* \"contracts/9_crowdfunding.sol\":401:436  FundingStruct public fundingDetails */\n    tag_3:\n      callvalue\n      dup1\n      iszero\n      tag_14\n      jumpi\n      0x00\n      dup1\n      revert\n    tag_14:\n      pop\n      tag_15\n      tag_16\n      jump\t// in\n    tag_15:\n      mload(0x40)\n      tag_17\n      swap4\n      swap3\n      swap2\n      swap1\n      tag_18\n      jump\t// in\n    tag_17:\n      mload(0x40)\n      dup1\n      swap2\n      sub\n      swap1\n      return\n        /* \"contracts/9_crowdfunding.sol\":1244:2116  function withDrawEthFromContract() public {... */\n    tag_4:\n      callvalue\n      dup1\n      iszero\n      tag_19\n      jumpi\n      0x00\n      dup1\n      revert\n    tag_19:\n      pop\n      tag_20\n      tag_21\n      jump\t// in\n    tag_20:\n      stop\n        /* \"contracts/9_crowdfunding.sol\":683:708  uint public numOfDeposits */\n    tag_5:\n      callvalue\n      dup1\n      iszero\n      tag_22\n      jumpi\n      0x00\n      dup1\n      revert\n    tag_22:\n      pop\n      tag_23\n      tag_24\n      jump\t// in\n    tag_23:\n      mload(0x40)\n      tag_25\n      swap2\n      swap1\n      tag_26\n      jump\t// in\n    tag_25:\n      mload(0x40)\n      dup1\n      swap2\n      sub\n      swap1\n      return\n        /* \"contracts/9_crowdfunding.sol\":716:1236  function donateFundToContract() public payable {... */\n    tag_6:\n      tag_27\n      tag_28\n      jump\t// in\n    tag_27:\n      stop\n        /* \"contracts/9_crowdfunding.sol\":628:675  mapping (address => deposition) public Deposits */\n    tag_11:\n      mstore(0x20, 0x04)\n      dup1\n      0x00\n      mstore\n      keccak256(0x00, 0x40)\n      0x00\n      swap2\n      pop\n      swap1\n      pop\n      dup1\n      0x00\n      add\n      0x00\n      swap1\n      sload\n      swap1\n      0x0100\n      exp\n      swap1\n      div\n      0xffffffffffffffffffffffffffffffffffffffff\n      and\n      swap1\n      dup1\n      0x01\n      add\n      sload\n      swap1\n      dup1\n      0x02\n      add\n      sload\n      swap1\n      pop\n      dup4\n      jump\t// out\n        /* \"contracts/9_crowdfunding.sol\":401:436  FundingStruct public fundingDetails */\n    tag_16:\n      0x01\n      dup1\n      0x00\n      add\n      sload\n      swap1\n      dup1\n      0x01\n      add\n      sload\n      swap1\n      dup1\n      0x02\n      add\n      sload\n      swap1\n      pop\n      dup4\n      jump\t// out\n        /* \"contracts/9_crowdfunding.sol\":1244:2116  function withDrawEthFromContract() public {... */\n    tag_21:\n        /* \"contracts/9_crowdfunding.sol\":1320:1334  fundingDetails */\n      0x01\n        /* \"contracts/9_crowdfunding.sol\":1320:1343  fundingDetails.deadline */\n      0x02\n      add\n      sload\n        /* \"contracts/9_crowdfunding.sol\":1301:1316  block.timestamp */\n      timestamp\n        /* \"contracts/9_crowdfunding.sol\":1301:1343  block.timestamp <= fundingDetails.deadline */\n      gt\n        /* \"contracts/9_crowdfunding.sol\":1297:2109  if (block.timestamp <= fundingDetails.deadline)  {... */\n      tag_30\n      jumpi\n        /* \"contracts/9_crowdfunding.sol\":1403:1417  fundingDetails */\n      0x01\n        /* \"contracts/9_crowdfunding.sol\":1403:1431  fundingDetails.fundingAmount */\n      0x00\n      add\n      sload\n        /* \"contracts/9_crowdfunding.sol\":1369:1383  fundingDetails */\n      0x01\n        /* \"contracts/9_crowdfunding.sol\":1369:1399  fundingDetails.availableAmount */\n      dup1\n      add\n      sload\n        /* \"contracts/9_crowdfunding.sol\":1369:1431  fundingDetails.availableAmount >= fundingDetails.fundingAmount */\n      lt\n      iszero\n        /* \"contracts/9_crowdfunding.sol\":1361:1432  require(fundingDetails.availableAmount >= fundingDetails.fundingAmount) */\n      tag_31\n      jumpi\n      0x00\n      dup1\n      revert\n    tag_31:\n        /* \"contracts/9_crowdfunding.sol\":1447:1455  ownerAdd */\n      0x00\n      dup1\n      sload\n      swap1\n      0x0100\n      exp\n      swap1\n      div\n      0xffffffffffffffffffffffffffffffffffffffff\n      and\n        /* \"contracts/9_crowdfunding.sol\":1447:1464  ownerAdd.transfer */\n      0xffffffffffffffffffffffffffffffffffffffff\n      and\n        /* \"contracts/9_crowdfunding.sol\":1447:1496  ownerAdd.transfer(fundingDetails.availableAmount) */\n      0x08fc\n        /* \"contracts/9_crowdfunding.sol\":1465:1479  fundingDetails */\n      0x01\n        /* \"contracts/9_crowdfunding.sol\":1465:1495  fundingDetails.availableAmount */\n      dup1\n      add\n      sload\n        /* \"contracts/9_crowdfunding.sol\":1447:1496  ownerAdd.transfer(fundingDetails.availableAmount) */\n      swap1\n      dup2\n      iszero\n      mul\n      swap1\n      mload(0x40)\n      0x00\n      mload(0x40)\n      dup1\n      dup4\n      sub\n      dup2\n      dup6\n      dup9\n      dup9\n      call\n      swap4\n      pop\n      pop\n      pop\n      pop\n      iszero\n      dup1\n      iszero\n      tag_33\n      jumpi\n      returndatasize\n      0x00\n      dup1\n      returndatacopy\n      revert(0x00, returndatasize)\n    tag_33:\n      pop\n        /* \"contracts/9_crowdfunding.sol\":1584:1585  0 */\n      0x00\n        /* \"contracts/9_crowdfunding.sol\":1551:1565  fundingDetails */\n      0x01\n        /* \"contracts/9_crowdfunding.sol\":1551:1581  fundingDetails.availableAmount */\n      dup1\n      add\n        /* \"contracts/9_crowdfunding.sol\":1551:1585  fundingDetails.availableAmount = 0 */\n      dup2\n      swap1\n      sstore\n      pop\n        /* \"contracts/9_crowdfunding.sol\":1668:1669  0 */\n      0x00\n        /* \"contracts/9_crowdfunding.sol\":1637:1651  fundingDetails */\n      0x01\n        /* \"contracts/9_crowdfunding.sol\":1637:1665  fundingDetails.fundingAmount */\n      0x00\n      add\n        /* \"contracts/9_crowdfunding.sol\":1637:1669  fundingDetails.fundingAmount = 0 */\n      dup2\n      swap1\n      sstore\n      pop\n        /* \"contracts/9_crowdfunding.sol\":1297:2109  if (block.timestamp <= fundingDetails.deadline)  {... */\n      jump(tag_34)\n    tag_30:\n        /* \"contracts/9_crowdfunding.sol\":1737:1767  deposition memory depositeMade */\n      0x00\n        /* \"contracts/9_crowdfunding.sol\":1770:1778  Deposits */\n      0x04\n        /* \"contracts/9_crowdfunding.sol\":1770:1790  Deposits[msg.sender] */\n      0x00\n        /* \"contracts/9_crowdfunding.sol\":1779:1789  msg.sender */\n      caller\n        /* \"contracts/9_crowdfunding.sol\":1770:1790  Deposits[msg.sender] */\n      0xffffffffffffffffffffffffffffffffffffffff\n      and\n      0xffffffffffffffffffffffffffffffffffffffff\n      and\n      dup2\n      mstore\n      0x20\n      add\n      swap1\n      dup2\n      mstore\n      0x20\n      add\n      0x00\n      keccak256\n        /* \"contracts/9_crowdfunding.sol\":1737:1790  deposition memory depositeMade = Deposits[msg.sender] */\n      mload(0x40)\n      dup1\n      0x60\n      add\n      0x40\n      mstore\n      swap1\n      dup2\n      0x00\n      dup3\n      add\n      0x00\n      swap1\n      sload\n      swap1\n      0x0100\n      exp\n      swap1\n      div\n      0xffffffffffffffffffffffffffffffffffffffff\n      and\n      0xffffffffffffffffffffffffffffffffffffffff\n      and\n      0xffffffffffffffffffffffffffffffffffffffff\n      and\n      dup2\n      mstore\n      0x20\n      add\n      0x01\n      dup3\n      add\n      sload\n      dup2\n      mstore\n      0x20\n      add\n      0x02\n      dup3\n      add\n      sload\n      dup2\n      mstore\n      pop\n      pop\n      swap1\n      pop\n        /* \"contracts/9_crowdfunding.sol\":1835:1845  msg.sender */\n      caller\n        /* \"contracts/9_crowdfunding.sol\":1814:1845  depositeMade.from == msg.sender */\n      0xffffffffffffffffffffffffffffffffffffffff\n      and\n        /* \"contracts/9_crowdfunding.sol\":1814:1826  depositeMade */\n      dup2\n        /* \"contracts/9_crowdfunding.sol\":1814:1831  depositeMade.from */\n      0x00\n      add\n      mload\n        /* \"contracts/9_crowdfunding.sol\":1814:1845  depositeMade.from == msg.sender */\n      0xffffffffffffffffffffffffffffffffffffffff\n      and\n      eq\n        /* \"contracts/9_crowdfunding.sol\":1806:1888  require(depositeMade.from == msg.sender, \"UNAUTHORIZED for withdrawl ABORTING !!\") */\n      tag_35\n      jumpi\n      mload(0x40)\n      0x08c379a000000000000000000000000000000000000000000000000000000000\n      dup2\n      mstore\n      0x04\n      add\n      tag_36\n      swap1\n      tag_37\n      jump\t// in\n    tag_36:\n      mload(0x40)\n      dup1\n      swap2\n      sub\n      swap1\n      revert\n    tag_35:\n        /* \"contracts/9_crowdfunding.sol\":1911:1923  depositeMade */\n      dup1\n        /* \"contracts/9_crowdfunding.sol\":1911:1928  depositeMade.from */\n      0x00\n      add\n      mload\n        /* \"contracts/9_crowdfunding.sol\":1903:1938  payable(depositeMade.from).transfer */\n      0xffffffffffffffffffffffffffffffffffffffff\n      and\n        /* \"contracts/9_crowdfunding.sol\":1903:1959  payable(depositeMade.from).transfer(depositeMade.amount) */\n      0x08fc\n        /* \"contracts/9_crowdfunding.sol\":1939:1951  depositeMade */\n      dup3\n        /* \"contracts/9_crowdfunding.sol\":1939:1958  depositeMade.amount */\n      0x20\n      add\n      mload\n        /* \"contracts/9_crowdfunding.sol\":1903:1959  payable(depositeMade.from).transfer(depositeMade.amount) */\n      swap1\n      dup2\n      iszero\n      mul\n      swap1\n      mload(0x40)\n      0x00\n      mload(0x40)\n      dup1\n      dup4\n      sub\n      dup2\n      dup6\n      dup9\n      dup9\n      call\n      swap4\n      pop\n      pop\n      pop\n      pop\n      iszero\n      dup1\n      iszero\n      tag_39\n      jumpi\n      returndatasize\n      0x00\n      dup1\n      returndatacopy\n      revert(0x00, returndatasize)\n    tag_39:\n      pop\n        /* \"contracts/9_crowdfunding.sol\":2016:2024  Deposits */\n      0x04\n        /* \"contracts/9_crowdfunding.sol\":2016:2036  Deposits[msg.sender] */\n      0x00\n        /* \"contracts/9_crowdfunding.sol\":2025:2035  msg.sender */\n      caller\n        /* \"contracts/9_crowdfunding.sol\":2016:2036  Deposits[msg.sender] */\n      0xffffffffffffffffffffffffffffffffffffffff\n      and\n      0xffffffffffffffffffffffffffffffffffffffff\n      and\n      dup2\n      mstore\n      0x20\n      add\n      swap1\n      dup2\n      mstore\n      0x20\n      add\n      0x00\n      keccak256\n      0x00\n        /* \"contracts/9_crowdfunding.sol\":2008:2036  delete  Deposits[msg.sender] */\n      dup1\n      dup3\n      add\n      exp(0x0100, 0x00)\n      dup2\n      sload\n      swap1\n      0xffffffffffffffffffffffffffffffffffffffff\n      mul\n      not\n      and\n      swap1\n      sstore\n      0x01\n      dup3\n      add\n      0x00\n      swap1\n      sstore\n      0x02\n      dup3\n      add\n      0x00\n      swap1\n      sstore\n      pop\n      pop\n        /* \"contracts/9_crowdfunding.sol\":2080:2093  numOfDeposits */\n      0x05\n      0x00\n        /* \"contracts/9_crowdfunding.sol\":2080:2096  numOfDeposits -- */\n      dup2\n      sload\n      dup1\n      swap3\n      swap2\n      swap1\n      tag_40\n      swap1\n      tag_41\n      jump\t// in\n    tag_40:\n      swap2\n      swap1\n      pop\n      sstore\n      pop\n        /* \"contracts/9_crowdfunding.sol\":1722:2109  {... */\n      pop\n        /* \"contracts/9_crowdfunding.sol\":1297:2109  if (block.timestamp <= fundingDetails.deadline)  {... */\n    tag_34:\n        /* \"contracts/9_crowdfunding.sol\":1244:2116  function withDrawEthFromContract() public {... */\n      jump\t// out\n        /* \"contracts/9_crowdfunding.sol\":683:708  uint public numOfDeposits */\n    tag_24:\n      sload(0x05)\n      dup2\n      jump\t// out\n        /* \"contracts/9_crowdfunding.sol\":716:1236  function donateFundToContract() public payable {... */\n    tag_28:\n        /* \"contracts/9_crowdfunding.sol\":815:829  fundingDetails */\n      0x01\n        /* \"contracts/9_crowdfunding.sol\":815:838  fundingDetails.deadline */\n      0x02\n      add\n      sload\n        /* \"contracts/9_crowdfunding.sol\":796:811  block.timestamp */\n      timestamp\n        /* \"contracts/9_crowdfunding.sol\":796:838  block.timestamp <= fundingDetails.deadline */\n      gt\n      iszero\n        /* \"contracts/9_crowdfunding.sol\":796:903  block.timestamp <= fundingDetails.deadline && fundingDetails.availableAmount < fundingDetails.fundingAmount */\n      dup1\n      iszero\n      tag_43\n      jumpi\n      pop\n        /* \"contracts/9_crowdfunding.sol\":875:889  fundingDetails */\n      0x01\n        /* \"contracts/9_crowdfunding.sol\":875:903  fundingDetails.fundingAmount */\n      0x00\n      add\n      sload\n        /* \"contracts/9_crowdfunding.sol\":842:856  fundingDetails */\n      0x01\n        /* \"contracts/9_crowdfunding.sol\":842:872  fundingDetails.availableAmount */\n      dup1\n      add\n      sload\n        /* \"contracts/9_crowdfunding.sol\":842:903  fundingDetails.availableAmount < fundingDetails.fundingAmount */\n      lt\n        /* \"contracts/9_crowdfunding.sol\":796:903  block.timestamp <= fundingDetails.deadline && fundingDetails.availableAmount < fundingDetails.fundingAmount */\n    tag_43:\n        /* \"contracts/9_crowdfunding.sol\":774:975  require(... */\n      tag_44\n      jumpi\n      mload(0x40)\n      0x08c379a000000000000000000000000000000000000000000000000000000000\n      dup2\n      mstore\n      0x04\n      add\n      tag_45\n      swap1\n      tag_46\n      jump\t// in\n    tag_45:\n      mload(0x40)\n      dup1\n      swap2\n      sub\n      swap1\n      revert\n    tag_44:\n        /* \"contracts/9_crowdfunding.sol\":986:1012  deposition memory deposite */\n      0x00\n        /* \"contracts/9_crowdfunding.sol\":1015:1063  deposition(msg.sender,msg.value,block.timestamp) */\n      mload(0x40)\n      dup1\n      0x60\n      add\n      0x40\n      mstore\n      dup1\n        /* \"contracts/9_crowdfunding.sol\":1026:1036  msg.sender */\n      caller\n        /* \"contracts/9_crowdfunding.sol\":1015:1063  deposition(msg.sender,msg.value,block.timestamp) */\n      0xffffffffffffffffffffffffffffffffffffffff\n      and\n      dup2\n      mstore\n      0x20\n      add\n        /* \"contracts/9_crowdfunding.sol\":1037:1046  msg.value */\n      callvalue\n        /* \"contracts/9_crowdfunding.sol\":1015:1063  deposition(msg.sender,msg.value,block.timestamp) */\n      dup2\n      mstore\n      0x20\n      add\n        /* \"contracts/9_crowdfunding.sol\":1047:1062  block.timestamp */\n      timestamp\n        /* \"contracts/9_crowdfunding.sol\":1015:1063  deposition(msg.sender,msg.value,block.timestamp) */\n      dup2\n      mstore\n      pop\n        /* \"contracts/9_crowdfunding.sol\":986:1063  deposition memory deposite = deposition(msg.sender,msg.value,block.timestamp) */\n      swap1\n      pop\n        /* \"contracts/9_crowdfunding.sol\":1136:1144  deposite */\n      dup1\n        /* \"contracts/9_crowdfunding.sol\":1113:1121  Deposits */\n      0x04\n        /* \"contracts/9_crowdfunding.sol\":1113:1133  Deposits[msg.sender] */\n      0x00\n        /* \"contracts/9_crowdfunding.sol\":1122:1132  msg.sender */\n      caller\n        /* \"contracts/9_crowdfunding.sol\":1113:1133  Deposits[msg.sender] */\n      0xffffffffffffffffffffffffffffffffffffffff\n      and\n      0xffffffffffffffffffffffffffffffffffffffff\n      and\n      dup2\n      mstore\n      0x20\n      add\n      swap1\n      dup2\n      mstore\n      0x20\n      add\n      0x00\n      keccak256\n        /* \"contracts/9_crowdfunding.sol\":1113:1144  Deposits[msg.sender] = deposite */\n      0x00\n      dup3\n      add\n      mload\n      dup2\n      0x00\n      add\n      exp(0x0100, 0x00)\n      dup2\n      sload\n      dup2\n      0xffffffffffffffffffffffffffffffffffffffff\n      mul\n      not\n      and\n      swap1\n      dup4\n      0xffffffffffffffffffffffffffffffffffffffff\n      and\n      mul\n      or\n      swap1\n      sstore\n      pop\n      0x20\n      dup3\n      add\n      mload\n      dup2\n      0x01\n      add\n      sstore\n      0x40\n      dup3\n      add\n      mload\n      dup2\n      0x02\n      add\n      sstore\n      swap1\n      pop\n      pop\n        /* \"contracts/9_crowdfunding.sol\":1156:1169  numOfDeposits */\n      0x05\n      0x00\n        /* \"contracts/9_crowdfunding.sol\":1156:1172  numOfDeposits ++ */\n      dup2\n      sload\n      dup1\n      swap3\n      swap2\n      swap1\n      tag_47\n      swap1\n      tag_48\n      jump\t// in\n    tag_47:\n      swap2\n      swap1\n      pop\n      sstore\n      pop\n        /* \"contracts/9_crowdfunding.sol\":1218:1227  msg.value */\n      callvalue\n        /* \"contracts/9_crowdfunding.sol\":1184:1198  fundingDetails */\n      0x01\n        /* \"contracts/9_crowdfunding.sol\":1184:1214  fundingDetails.availableAmount */\n      dup1\n      add\n      0x00\n        /* \"contracts/9_crowdfunding.sol\":1184:1227  fundingDetails.availableAmount += msg.value */\n      dup3\n      dup3\n      sload\n      tag_49\n      swap2\n      swap1\n      tag_50\n      jump\t// in\n    tag_49:\n      swap3\n      pop\n      pop\n      dup2\n      swap1\n      sstore\n      pop\n        /* \"contracts/9_crowdfunding.sol\":763:1236  {... */\n      pop\n        /* \"contracts/9_crowdfunding.sol\":716:1236  function donateFundToContract() public payable {... */\n      jump\t// out\n        /* \"#utility.yul\":88:205   */\n    tag_52:\n        /* \"#utility.yul\":197:198   */\n      0x00\n        /* \"#utility.yul\":194:195   */\n      dup1\n        /* \"#utility.yul\":187:199   */\n      revert\n        /* \"#utility.yul\":334:460   */\n    tag_54:\n        /* \"#utility.yul\":371:378   */\n      0x00\n        /* \"#utility.yul\":411:453   */\n      0xffffffffffffffffffffffffffffffffffffffff\n        /* \"#utility.yul\":404:409   */\n      dup3\n        /* \"#utility.yul\":400:454   */\n      and\n        /* \"#utility.yul\":389:454   */\n      swap1\n      pop\n        /* \"#utility.yul\":334:460   */\n      swap2\n      swap1\n      pop\n      jump\t// out\n        /* \"#utility.yul\":466:562   */\n    tag_55:\n        /* \"#utility.yul\":503:510   */\n      0x00\n        /* \"#utility.yul\":532:556   */\n      tag_73\n        /* \"#utility.yul\":550:555   */\n      dup3\n        /* \"#utility.yul\":532:556   */\n      tag_54\n      jump\t// in\n    tag_73:\n        /* \"#utility.yul\":521:556   */\n      swap1\n      pop\n        /* \"#utility.yul\":466:562   */\n      swap2\n      swap1\n      pop\n      jump\t// out\n        /* \"#utility.yul\":568:690   */\n    tag_56:\n        /* \"#utility.yul\":641:665   */\n      tag_75\n        /* \"#utility.yul\":659:664   */\n      dup2\n        /* \"#utility.yul\":641:665   */\n      tag_55\n      jump\t// in\n    tag_75:\n        /* \"#utility.yul\":634:639   */\n      dup2\n        /* \"#utility.yul\":631:666   */\n      eq\n        /* \"#utility.yul\":621:684   */\n      tag_76\n      jumpi\n        /* \"#utility.yul\":680:681   */\n      0x00\n        /* \"#utility.yul\":677:678   */\n      dup1\n        /* \"#utility.yul\":670:682   */\n      revert\n        /* \"#utility.yul\":621:684   */\n    tag_76:\n        /* \"#utility.yul\":568:690   */\n      pop\n      jump\t// out\n        /* \"#utility.yul\":696:835   */\n    tag_57:\n        /* \"#utility.yul\":742:747   */\n      0x00\n        /* \"#utility.yul\":780:786   */\n      dup2\n        /* \"#utility.yul\":767:787   */\n      calldataload\n        /* \"#utility.yul\":758:787   */\n      swap1\n      pop\n        /* \"#utility.yul\":796:829   */\n      tag_78\n        /* \"#utility.yul\":823:828   */\n      dup2\n        /* \"#utility.yul\":796:829   */\n      tag_56\n      jump\t// in\n    tag_78:\n        /* \"#utility.yul\":696:835   */\n      swap3\n      swap2\n      pop\n      pop\n      jump\t// out\n        /* \"#utility.yul\":841:1170   */\n    tag_10:\n        /* \"#utility.yul\":900:906   */\n      0x00\n        /* \"#utility.yul\":949:951   */\n      0x20\n        /* \"#utility.yul\":937:946   */\n      dup3\n        /* \"#utility.yul\":928:935   */\n      dup5\n        /* \"#utility.yul\":924:947   */\n      sub\n        /* \"#utility.yul\":920:952   */\n      slt\n        /* \"#utility.yul\":917:1036   */\n      iszero\n      tag_80\n      jumpi\n        /* \"#utility.yul\":955:1034   */\n      tag_81\n      tag_52\n      jump\t// in\n    tag_81:\n        /* \"#utility.yul\":917:1036   */\n    tag_80:\n        /* \"#utility.yul\":1075:1076   */\n      0x00\n        /* \"#utility.yul\":1100:1153   */\n      tag_82\n        /* \"#utility.yul\":1145:1152   */\n      dup5\n        /* \"#utility.yul\":1136:1142   */\n      dup3\n        /* \"#utility.yul\":1125:1134   */\n      dup6\n        /* \"#utility.yul\":1121:1143   */\n      add\n        /* \"#utility.yul\":1100:1153   */\n      tag_57\n      jump\t// in\n    tag_82:\n        /* \"#utility.yul\":1090:1153   */\n      swap2\n      pop\n        /* \"#utility.yul\":1046:1163   */\n      pop\n        /* \"#utility.yul\":841:1170   */\n      swap3\n      swap2\n      pop\n      pop\n      jump\t// out\n        /* \"#utility.yul\":1176:1294   */\n    tag_58:\n        /* \"#utility.yul\":1263:1287   */\n      tag_84\n        /* \"#utility.yul\":1281:1286   */\n      dup2\n        /* \"#utility.yul\":1263:1287   */\n      tag_55\n      jump\t// in\n    tag_84:\n        /* \"#utility.yul\":1258:1261   */\n      dup3\n        /* \"#utility.yul\":1251:1288   */\n      mstore\n        /* \"#utility.yul\":1176:1294   */\n      pop\n      pop\n      jump\t// out\n        /* \"#utility.yul\":1300:1377   */\n    tag_59:\n        /* \"#utility.yul\":1337:1344   */\n      0x00\n        /* \"#utility.yul\":1366:1371   */\n      dup2\n        /* \"#utility.yul\":1355:1371   */\n      swap1\n      pop\n        /* \"#utility.yul\":1300:1377   */\n      swap2\n      swap1\n      pop\n      jump\t// out\n        /* \"#utility.yul\":1383:1501   */\n    tag_60:\n        /* \"#utility.yul\":1470:1494   */\n      tag_87\n        /* \"#utility.yul\":1488:1493   */\n      dup2\n        /* \"#utility.yul\":1470:1494   */\n      tag_59\n      jump\t// in\n    tag_87:\n        /* \"#utility.yul\":1465:1468   */\n      dup3\n        /* \"#utility.yul\":1458:1495   */\n      mstore\n        /* \"#utility.yul\":1383:1501   */\n      pop\n      pop\n      jump\t// out\n        /* \"#utility.yul\":1507:1949   */\n    tag_13:\n        /* \"#utility.yul\":1656:1660   */\n      0x00\n        /* \"#utility.yul\":1694:1696   */\n      0x60\n        /* \"#utility.yul\":1683:1692   */\n      dup3\n        /* \"#utility.yul\":1679:1697   */\n      add\n        /* \"#utility.yul\":1671:1697   */\n      swap1\n      pop\n        /* \"#utility.yul\":1707:1778   */\n      tag_89\n        /* \"#utility.yul\":1775:1776   */\n      0x00\n        /* \"#utility.yul\":1764:1773   */\n      dup4\n        /* \"#utility.yul\":1760:1777   */\n      add\n        /* \"#utility.yul\":1751:1757   */\n      dup7\n        /* \"#utility.yul\":1707:1778   */\n      tag_58\n      jump\t// in\n    tag_89:\n        /* \"#utility.yul\":1788:1860   */\n      tag_90\n        /* \"#utility.yul\":1856:1858   */\n      0x20\n        /* \"#utility.yul\":1845:1854   */\n      dup4\n        /* \"#utility.yul\":1841:1859   */\n      add\n        /* \"#utility.yul\":1832:1838   */\n      dup6\n        /* \"#utility.yul\":1788:1860   */\n      tag_60\n      jump\t// in\n    tag_90:\n        /* \"#utility.yul\":1870:1942   */\n      tag_91\n        /* \"#utility.yul\":1938:1940   */\n      0x40\n        /* \"#utility.yul\":1927:1936   */\n      dup4\n        /* \"#utility.yul\":1923:1941   */\n      add\n        /* \"#utility.yul\":1914:1920   */\n      dup5\n        /* \"#utility.yul\":1870:1942   */\n      tag_60\n      jump\t// in\n    tag_91:\n        /* \"#utility.yul\":1507:1949   */\n      swap5\n      swap4\n      pop\n      pop\n      pop\n      pop\n      jump\t// out\n        /* \"#utility.yul\":1955:2397   */\n    tag_18:\n        /* \"#utility.yul\":2104:2108   */\n      0x00\n        /* \"#utility.yul\":2142:2144   */\n      0x60\n        /* \"#utility.yul\":2131:2140   */\n      dup3\n        /* \"#utility.yul\":2127:2145   */\n      add\n        /* \"#utility.yul\":2119:2145   */\n      swap1\n      pop\n        /* \"#utility.yul\":2155:2226   */\n      tag_93\n        /* \"#utility.yul\":2223:2224   */\n      0x00\n        /* \"#utility.yul\":2212:2221   */\n      dup4\n        /* \"#utility.yul\":2208:2225   */\n      add\n        /* \"#utility.yul\":2199:2205   */\n      dup7\n        /* \"#utility.yul\":2155:2226   */\n      tag_60\n      jump\t// in\n    tag_93:\n        /* \"#utility.yul\":2236:2308   */\n      tag_94\n        /* \"#utility.yul\":2304:2306   */\n      0x20\n        /* \"#utility.yul\":2293:2302   */\n      dup4\n        /* \"#utility.yul\":2289:2307   */\n      add\n        /* \"#utility.yul\":2280:2286   */\n      dup6\n        /* \"#utility.yul\":2236:2308   */\n      tag_60\n      jump\t// in\n    tag_94:\n        /* \"#utility.yul\":2318:2390   */\n      tag_95\n        /* \"#utility.yul\":2386:2388   */\n      0x40\n        /* \"#utility.yul\":2375:2384   */\n      dup4\n        /* \"#utility.yul\":2371:2389   */\n      add\n        /* \"#utility.yul\":2362:2368   */\n      dup5\n        /* \"#utility.yul\":2318:2390   */\n      tag_60\n      jump\t// in\n    tag_95:\n        /* \"#utility.yul\":1955:2397   */\n      swap5\n      swap4\n      pop\n      pop\n      pop\n      pop\n      jump\t// out\n        /* \"#utility.yul\":2403:2625   */\n    tag_26:\n        /* \"#utility.yul\":2496:2500   */\n      0x00\n        /* \"#utility.yul\":2534:2536   */\n      0x20\n        /* \"#utility.yul\":2523:2532   */\n      dup3\n        /* \"#utility.yul\":2519:2537   */\n      add\n        /* \"#utility.yul\":2511:2537   */\n      swap1\n      pop\n        /* \"#utility.yul\":2547:2618   */\n      tag_97\n        /* \"#utility.yul\":2615:2616   */\n      0x00\n        /* \"#utility.yul\":2604:2613   */\n      dup4\n        /* \"#utility.yul\":2600:2617   */\n      add\n        /* \"#utility.yul\":2591:2597   */\n      dup5\n        /* \"#utility.yul\":2547:2618   */\n      tag_60\n      jump\t// in\n    tag_97:\n        /* \"#utility.yul\":2403:2625   */\n      swap3\n      swap2\n      pop\n      pop\n      jump\t// out\n        /* \"#utility.yul\":2631:2800   */\n    tag_61:\n        /* \"#utility.yul\":2715:2726   */\n      0x00\n        /* \"#utility.yul\":2749:2755   */\n      dup3\n        /* \"#utility.yul\":2744:2747   */\n      dup3\n        /* \"#utility.yul\":2737:2756   */\n      mstore\n        /* \"#utility.yul\":2789:2793   */\n      0x20\n        /* \"#utility.yul\":2784:2787   */\n      dup3\n        /* \"#utility.yul\":2780:2794   */\n      add\n        /* \"#utility.yul\":2765:2794   */\n      swap1\n      pop\n        /* \"#utility.yul\":2631:2800   */\n      swap3\n      swap2\n      pop\n      pop\n      jump\t// out\n        /* \"#utility.yul\":2806:3031   */\n    tag_62:\n        /* \"#utility.yul\":2946:2980   */\n      0x554e415554484f52495a454420666f722077697468647261776c2041424f5254\n        /* \"#utility.yul\":2942:2943   */\n      0x00\n        /* \"#utility.yul\":2934:2940   */\n      dup3\n        /* \"#utility.yul\":2930:2944   */\n      add\n        /* \"#utility.yul\":2923:2981   */\n      mstore\n        /* \"#utility.yul\":3015:3023   */\n      0x494e472021210000000000000000000000000000000000000000000000000000\n        /* \"#utility.yul\":3010:3012   */\n      0x20\n        /* \"#utility.yul\":3002:3008   */\n      dup3\n        /* \"#utility.yul\":2998:3013   */\n      add\n        /* \"#utility.yul\":2991:3024   */\n      mstore\n        /* \"#utility.yul\":2806:3031   */\n      pop\n      jump\t// out\n        /* \"#utility.yul\":3037:3403   */\n    tag_63:\n        /* \"#utility.yul\":3179:3182   */\n      0x00\n        /* \"#utility.yul\":3200:3267   */\n      tag_101\n        /* \"#utility.yul\":3264:3266   */\n      0x26\n        /* \"#utility.yul\":3259:3262   */\n      dup4\n        /* \"#utility.yul\":3200:3267   */\n      tag_61\n      jump\t// in\n    tag_101:\n        /* \"#utility.yul\":3193:3267   */\n      swap2\n      pop\n        /* \"#utility.yul\":3276:3369   */\n      tag_102\n        /* \"#utility.yul\":3365:3368   */\n      dup3\n        /* \"#utility.yul\":3276:3369   */\n      tag_62\n      jump\t// in\n    tag_102:\n        /* \"#utility.yul\":3394:3396   */\n      0x40\n        /* \"#utility.yul\":3389:3392   */\n      dup3\n        /* \"#utility.yul\":3385:3397   */\n      add\n        /* \"#utility.yul\":3378:3397   */\n      swap1\n      pop\n        /* \"#utility.yul\":3037:3403   */\n      swap2\n      swap1\n      pop\n      jump\t// out\n        /* \"#utility.yul\":3409:3828   */\n    tag_37:\n        /* \"#utility.yul\":3575:3579   */\n      0x00\n        /* \"#utility.yul\":3613:3615   */\n      0x20\n        /* \"#utility.yul\":3602:3611   */\n      dup3\n        /* \"#utility.yul\":3598:3616   */\n      add\n        /* \"#utility.yul\":3590:3616   */\n      swap1\n      pop\n        /* \"#utility.yul\":3662:3671   */\n      dup2\n        /* \"#utility.yul\":3656:3660   */\n      dup2\n        /* \"#utility.yul\":3652:3672   */\n      sub\n        /* \"#utility.yul\":3648:3649   */\n      0x00\n        /* \"#utility.yul\":3637:3646   */\n      dup4\n        /* \"#utility.yul\":3633:3650   */\n      add\n        /* \"#utility.yul\":3626:3673   */\n      mstore\n        /* \"#utility.yul\":3690:3821   */\n      tag_104\n        /* \"#utility.yul\":3816:3820   */\n      dup2\n        /* \"#utility.yul\":3690:3821   */\n      tag_63\n      jump\t// in\n    tag_104:\n        /* \"#utility.yul\":3682:3821   */\n      swap1\n      pop\n        /* \"#utility.yul\":3409:3828   */\n      swap2\n      swap1\n      pop\n      jump\t// out\n        /* \"#utility.yul\":3834:4014   */\n    tag_64:\n        /* \"#utility.yul\":3882:3959   */\n      0x4e487b7100000000000000000000000000000000000000000000000000000000\n        /* \"#utility.yul\":3879:3880   */\n      0x00\n        /* \"#utility.yul\":3872:3960   */\n      mstore\n        /* \"#utility.yul\":3979:3983   */\n      0x11\n        /* \"#utility.yul\":3976:3977   */\n      0x04\n        /* \"#utility.yul\":3969:3984   */\n      mstore\n        /* \"#utility.yul\":4003:4007   */\n      0x24\n        /* \"#utility.yul\":4000:4001   */\n      0x00\n        /* \"#utility.yul\":3993:4008   */\n      revert\n        /* \"#utility.yul\":4020:4191   */\n    tag_41:\n        /* \"#utility.yul\":4059:4062   */\n      0x00\n        /* \"#utility.yul\":4082:4106   */\n      tag_107\n        /* \"#utility.yul\":4100:4105   */\n      dup3\n        /* \"#utility.yul\":4082:4106   */\n      tag_59\n      jump\t// in\n    tag_107:\n        /* \"#utility.yul\":4073:4106   */\n      swap2\n      pop\n        /* \"#utility.yul\":4128:4132   */\n      0x00\n        /* \"#utility.yul\":4121:4126   */\n      dup3\n        /* \"#utility.yul\":4118:4133   */\n      sub\n        /* \"#utility.yul\":4115:4156   */\n      tag_108\n      jumpi\n        /* \"#utility.yul\":4136:4154   */\n      tag_109\n      tag_64\n      jump\t// in\n    tag_109:\n        /* \"#utility.yul\":4115:4156   */\n    tag_108:\n        /* \"#utility.yul\":4183:4184   */\n      0x01\n        /* \"#utility.yul\":4176:4181   */\n      dup3\n        /* \"#utility.yul\":4172:4185   */\n      sub\n        /* \"#utility.yul\":4165:4185   */\n      swap1\n      pop\n        /* \"#utility.yul\":4020:4191   */\n      swap2\n      swap1\n      pop\n      jump\t// out\n        /* \"#utility.yul\":4197:4426   */\n    tag_65:\n        /* \"#utility.yul\":4337:4371   */\n      0x43616e277420446f6e6174652c20646561646c696e6520657863656564656420\n        /* \"#utility.yul\":4333:4334   */\n      0x00\n        /* \"#utility.yul\":4325:4331   */\n      dup3\n        /* \"#utility.yul\":4321:4335   */\n      add\n        /* \"#utility.yul\":4314:4372   */\n      mstore\n        /* \"#utility.yul\":4406:4418   */\n      0x41424f5254494e47212100000000000000000000000000000000000000000000\n        /* \"#utility.yul\":4401:4403   */\n      0x20\n        /* \"#utility.yul\":4393:4399   */\n      dup3\n        /* \"#utility.yul\":4389:4404   */\n      add\n        /* \"#utility.yul\":4382:4419   */\n      mstore\n        /* \"#utility.yul\":4197:4426   */\n      pop\n      jump\t// out\n        /* \"#utility.yul\":4432:4798   */\n    tag_66:\n        /* \"#utility.yul\":4574:4577   */\n      0x00\n        /* \"#utility.yul\":4595:4662   */\n      tag_112\n        /* \"#utility.yul\":4659:4661   */\n      0x2a\n        /* \"#utility.yul\":4654:4657   */\n      dup4\n        /* \"#utility.yul\":4595:4662   */\n      tag_61\n      jump\t// in\n    tag_112:\n        /* \"#utility.yul\":4588:4662   */\n      swap2\n      pop\n        /* \"#utility.yul\":4671:4764   */\n      tag_113\n        /* \"#utility.yul\":4760:4763   */\n      dup3\n        /* \"#utility.yul\":4671:4764   */\n      tag_65\n      jump\t// in\n    tag_113:\n        /* \"#utility.yul\":4789:4791   */\n      0x40\n        /* \"#utility.yul\":4784:4787   */\n      dup3\n        /* \"#utility.yul\":4780:4792   */\n      add\n        /* \"#utility.yul\":4773:4792   */\n      swap1\n      pop\n        /* \"#utility.yul\":4432:4798   */\n      swap2\n      swap1\n      pop\n      jump\t// out\n        /* \"#utility.yul\":4804:5223   */\n    tag_46:\n        /* \"#utility.yul\":4970:4974   */\n      0x00\n        /* \"#utility.yul\":5008:5010   */\n      0x20\n        /* \"#utility.yul\":4997:5006   */\n      dup3\n        /* \"#utility.yul\":4993:5011   */\n      add\n        /* \"#utility.yul\":4985:5011   */\n      swap1\n      pop\n        /* \"#utility.yul\":5057:5066   */\n      dup2\n        /* \"#utility.yul\":5051:5055   */\n      dup2\n        /* \"#utility.yul\":5047:5067   */\n      sub\n        /* \"#utility.yul\":5043:5044   */\n      0x00\n        /* \"#utility.yul\":5032:5041   */\n      dup4\n        /* \"#utility.yul\":5028:5045   */\n      add\n        /* \"#utility.yul\":5021:5068   */\n      mstore\n        /* \"#utility.yul\":5085:5216   */\n      tag_115\n        /* \"#utility.yul\":5211:5215   */\n      dup2\n        /* \"#utility.yul\":5085:5216   */\n      tag_66\n      jump\t// in\n    tag_115:\n        /* \"#utility.yul\":5077:5216   */\n      swap1\n      pop\n        /* \"#utility.yul\":4804:5223   */\n      swap2\n      swap1\n      pop\n      jump\t// out\n        /* \"#utility.yul\":5229:5462   */\n    tag_48:\n        /* \"#utility.yul\":5268:5271   */\n      0x00\n        /* \"#utility.yul\":5291:5315   */\n      tag_117\n        /* \"#utility.yul\":5309:5314   */\n      dup3\n        /* \"#utility.yul\":5291:5315   */\n      tag_59\n      jump\t// in\n    tag_117:\n        /* \"#utility.yul\":5282:5315   */\n      swap2\n      pop\n        /* \"#utility.yul\":5337:5403   */\n      0xffffffffffffffffffffffffffffffffffffffffffffffffffffffffffffffff\n        /* \"#utility.yul\":5330:5335   */\n      dup3\n        /* \"#utility.yul\":5327:5404   */\n      sub\n        /* \"#utility.yul\":5324:5427   */\n      tag_118\n      jumpi\n        /* \"#utility.yul\":5407:5425   */\n      tag_119\n      tag_64\n      jump\t// in\n    tag_119:\n        /* \"#utility.yul\":5324:5427   */\n    tag_118:\n        /* \"#utility.yul\":5454:5455   */\n      0x01\n        /* \"#utility.yul\":5447:5452   */\n      dup3\n        /* \"#utility.yul\":5443:5456   */\n      add\n        /* \"#utility.yul\":5436:5456   */\n      swap1\n      pop\n        /* \"#utility.yul\":5229:5462   */\n      swap2\n      swap1\n      pop\n      jump\t// out\n        /* \"#utility.yul\":5468:5773   */\n    tag_50:\n        /* \"#utility.yul\":5508:5511   */\n      0x00\n        /* \"#utility.yul\":5527:5547   */\n      tag_121\n        /* \"#utility.yul\":5545:5546   */\n      dup3\n        /* \"#utility.yul\":5527:5547   */\n      tag_59\n      jump\t// in\n    tag_121:\n        /* \"#utility.yul\":5522:5547   */\n      swap2\n      pop\n        /* \"#utility.yul\":5561:5581   */\n      tag_122\n        /* \"#utility.yul\":5579:5580   */\n      dup4\n        /* \"#utility.yul\":5561:5581   */\n      tag_59\n      jump\t// in\n    tag_122:\n        /* \"#utility.yul\":5556:5581   */\n      swap3\n      pop\n        /* \"#utility.yul\":5715:5716   */\n      dup3\n        /* \"#utility.yul\":5647:5713   */\n      0xffffffffffffffffffffffffffffffffffffffffffffffffffffffffffffffff\n        /* \"#utility.yul\":5643:5717   */\n      sub\n        /* \"#utility.yul\":5640:5641   */\n      dup3\n        /* \"#utility.yul\":5637:5718   */\n      gt\n        /* \"#utility.yul\":5634:5741   */\n      iszero\n      tag_123\n      jumpi\n        /* \"#utility.yul\":5721:5739   */\n      tag_124\n      tag_64\n      jump\t// in\n    tag_124:\n        /* \"#utility.yul\":5634:5741   */\n    tag_123:\n        /* \"#utility.yul\":5765:5766   */\n      dup3\n        /* \"#utility.yul\":5762:5763   */\n      dup3\n        /* \"#utility.yul\":5758:5767   */\n      add\n        /* \"#utility.yul\":5751:5767   */\n      swap1\n      pop\n        /* \"#utility.yul\":5468:5773   */\n      swap3\n      swap2\n      pop\n      pop\n      jump\t// out\n\n    auxdata: 0xa26469706673582212208dd136ff7733d7fdbd12de5a788fbdea4c8859ac4b8c9569bcacea4bd92cf34f64736f6c634300080f0033\n}\n",
				"bytecode": {
					"linkReferences": {},
					"object": "608060405234801561001057600080fd5b50336000806101000a81548173ffffffffffffffffffffffffffffffffffffffff021916908373ffffffffffffffffffffffffffffffffffffffff1602179055506040518060600160405280606481526020016000815260200161012c4261007891906100dc565b8152506001600082015181600001556020820151816001015560408201518160020155905050610132565b6000819050919050565b7f4e487b7100000000000000000000000000000000000000000000000000000000600052601160045260246000fd5b60006100e7826100a3565b91506100f2836100a3565b9250827fffffffffffffffffffffffffffffffffffffffffffffffffffffffffffffffff03821115610127576101266100ad565b5b828201905092915050565b61092b806101416000396000f3fe60806040526004361061004a5760003560e01c80633ee2d7c21461004f57806372b264b61461008e578063b8afac45146100bb578063cd16ebf7146100d2578063f0c9f010146100fd575b600080fd5b34801561005b57600080fd5b50610076600480360381019061007191906105ec565b610107565b60405161008593929190610641565b60405180910390f35b34801561009a57600080fd5b506100a3610151565b6040516100b293929190610678565b60405180910390f35b3480156100c757600080fd5b506100d0610169565b005b3480156100de57600080fd5b506100e761041e565b6040516100f491906106af565b60405180910390f35b610105610424565b005b60046020528060005260406000206000915090508060000160009054906101000a900473ffffffffffffffffffffffffffffffffffffffff16908060010154908060020154905083565b60018060000154908060010154908060020154905083565b6001600201544211610210576001600001546001800154101561018b57600080fd5b60008054906101000a900473ffffffffffffffffffffffffffffffffffffffff1673ffffffffffffffffffffffffffffffffffffffff166108fc60018001549081150290604051600060405180830381858888f193505050501580156101f5573d6000803e3d6000fd5b5060006001800181905550600060016000018190555061041c565b6000600460003373ffffffffffffffffffffffffffffffffffffffff1673ffffffffffffffffffffffffffffffffffffffff1681526020019081526020016000206040518060600160405290816000820160009054906101000a900473ffffffffffffffffffffffffffffffffffffffff1673ffffffffffffffffffffffffffffffffffffffff1673ffffffffffffffffffffffffffffffffffffffff1681526020016001820154815260200160028201548152505090503373ffffffffffffffffffffffffffffffffffffffff16816000015173ffffffffffffffffffffffffffffffffffffffff161461033a576040517f08c379a00000000000000000000000000000000000000000000000000000000081526004016103319061074d565b60405180910390fd5b806000015173ffffffffffffffffffffffffffffffffffffffff166108fc82602001519081150290604051600060405180830381858888f19350505050158015610388573d6000803e3d6000fd5b50600460003373ffffffffffffffffffffffffffffffffffffffff1673ffffffffffffffffffffffffffffffffffffffff168152602001908152602001600020600080820160006101000a81549073ffffffffffffffffffffffffffffffffffffffff0219169055600182016000905560028201600090555050600560008154809291906104159061079c565b9190505550505b565b60055481565b600160020154421115801561044157506001600001546001800154105b610480576040517f08c379a000000000000000000000000000000000000000000000000000000000815260040161047790610837565b60405180910390fd5b600060405180606001604052803373ffffffffffffffffffffffffffffffffffffffff16815260200134815260200142815250905080600460003373ffffffffffffffffffffffffffffffffffffffff1673ffffffffffffffffffffffffffffffffffffffff16815260200190815260200160002060008201518160000160006101000a81548173ffffffffffffffffffffffffffffffffffffffff021916908373ffffffffffffffffffffffffffffffffffffffff16021790555060208201518160010155604082015181600201559050506005600081548092919061056690610857565b91905055503460018001600082825461057f919061089f565b9250508190555050565b600080fd5b600073ffffffffffffffffffffffffffffffffffffffff82169050919050565b60006105b98261058e565b9050919050565b6105c9816105ae565b81146105d457600080fd5b50565b6000813590506105e6816105c0565b92915050565b60006020828403121561060257610601610589565b5b6000610610848285016105d7565b91505092915050565b610622816105ae565b82525050565b6000819050919050565b61063b81610628565b82525050565b60006060820190506106566000830186610619565b6106636020830185610632565b6106706040830184610632565b949350505050565b600060608201905061068d6000830186610632565b61069a6020830185610632565b6106a76040830184610632565b949350505050565b60006020820190506106c46000830184610632565b92915050565b600082825260208201905092915050565b7f554e415554484f52495a454420666f722077697468647261776c2041424f525460008201527f494e472021210000000000000000000000000000000000000000000000000000602082015250565b60006107376026836106ca565b9150610742826106db565b604082019050919050565b600060208201905081810360008301526107668161072a565b9050919050565b7f4e487b7100000000000000000000000000000000000000000000000000000000600052601160045260246000fd5b60006107a782610628565b9150600082036107ba576107b961076d565b5b600182039050919050565b7f43616e277420446f6e6174652c20646561646c696e652065786365656465642060008201527f41424f5254494e47212100000000000000000000000000000000000000000000602082015250565b6000610821602a836106ca565b915061082c826107c5565b604082019050919050565b6000602082019050818103600083015261085081610814565b9050919050565b600061086282610628565b91507fffffffffffffffffffffffffffffffffffffffffffffffffffffffffffffffff82036108945761089361076d565b5b600182019050919050565b60006108aa82610628565b91506108b583610628565b9250827fffffffffffffffffffffffffffffffffffffffffffffffffffffffffffffffff038211156108ea576108e961076d565b5b82820190509291505056fea26469706673582212208dd136ff7733d7fdbd12de5a788fbdea4c8859ac4b8c9569bcacea4bd92cf34f64736f6c634300080f0033",
					"opcodes": "PUSH1 0x80 PUSH1 0x40 MSTORE CALLVALUE DUP1 ISZERO PUSH2 0x10 JUMPI PUSH1 0x0 DUP1 REVERT JUMPDEST POP CALLER PUSH1 0x0 DUP1 PUSH2 0x100 EXP DUP2 SLOAD DUP2 PUSH20 0xFFFFFFFFFFFFFFFFFFFFFFFFFFFFFFFFFFFFFFFF MUL NOT AND SWAP1 DUP4 PUSH20 0xFFFFFFFFFFFFFFFFFFFFFFFFFFFFFFFFFFFFFFFF AND MUL OR SWAP1 SSTORE POP PUSH1 0x40 MLOAD DUP1 PUSH1 0x60 ADD PUSH1 0x40 MSTORE DUP1 PUSH1 0x64 DUP2 MSTORE PUSH1 0x20 ADD PUSH1 0x0 DUP2 MSTORE PUSH1 0x20 ADD PUSH2 0x12C TIMESTAMP PUSH2 0x78 SWAP2 SWAP1 PUSH2 0xDC JUMP JUMPDEST DUP2 MSTORE POP PUSH1 0x1 PUSH1 0x0 DUP3 ADD MLOAD DUP2 PUSH1 0x0 ADD SSTORE PUSH1 0x20 DUP3 ADD MLOAD DUP2 PUSH1 0x1 ADD SSTORE PUSH1 0x40 DUP3 ADD MLOAD DUP2 PUSH1 0x2 ADD SSTORE SWAP1 POP POP PUSH2 0x132 JUMP JUMPDEST PUSH1 0x0 DUP2 SWAP1 POP SWAP2 SWAP1 POP JUMP JUMPDEST PUSH32 0x4E487B7100000000000000000000000000000000000000000000000000000000 PUSH1 0x0 MSTORE PUSH1 0x11 PUSH1 0x4 MSTORE PUSH1 0x24 PUSH1 0x0 REVERT JUMPDEST PUSH1 0x0 PUSH2 0xE7 DUP3 PUSH2 0xA3 JUMP JUMPDEST SWAP2 POP PUSH2 0xF2 DUP4 PUSH2 0xA3 JUMP JUMPDEST SWAP3 POP DUP3 PUSH32 0xFFFFFFFFFFFFFFFFFFFFFFFFFFFFFFFFFFFFFFFFFFFFFFFFFFFFFFFFFFFFFFFF SUB DUP3 GT ISZERO PUSH2 0x127 JUMPI PUSH2 0x126 PUSH2 0xAD JUMP JUMPDEST JUMPDEST DUP3 DUP3 ADD SWAP1 POP SWAP3 SWAP2 POP POP JUMP JUMPDEST PUSH2 0x92B DUP1 PUSH2 0x141 PUSH1 0x0 CODECOPY PUSH1 0x0 RETURN INVALID PUSH1 0x80 PUSH1 0x40 MSTORE PUSH1 0x4 CALLDATASIZE LT PUSH2 0x4A JUMPI PUSH1 0x0 CALLDATALOAD PUSH1 0xE0 SHR DUP1 PUSH4 0x3EE2D7C2 EQ PUSH2 0x4F JUMPI DUP1 PUSH4 0x72B264B6 EQ PUSH2 0x8E JUMPI DUP1 PUSH4 0xB8AFAC45 EQ PUSH2 0xBB JUMPI DUP1 PUSH4 0xCD16EBF7 EQ PUSH2 0xD2 JUMPI DUP1 PUSH4 0xF0C9F010 EQ PUSH2 0xFD JUMPI JUMPDEST PUSH1 0x0 DUP1 REVERT JUMPDEST CALLVALUE DUP1 ISZERO PUSH2 0x5B JUMPI PUSH1 0x0 DUP1 REVERT JUMPDEST POP PUSH2 0x76 PUSH1 0x4 DUP1 CALLDATASIZE SUB DUP2 ADD SWAP1 PUSH2 0x71 SWAP2 SWAP1 PUSH2 0x5EC JUMP JUMPDEST PUSH2 0x107 JUMP JUMPDEST PUSH1 0x40 MLOAD PUSH2 0x85 SWAP4 SWAP3 SWAP2 SWAP1 PUSH2 0x641 JUMP JUMPDEST PUSH1 0x40 MLOAD DUP1 SWAP2 SUB SWAP1 RETURN JUMPDEST CALLVALUE DUP1 ISZERO PUSH2 0x9A JUMPI PUSH1 0x0 DUP1 REVERT JUMPDEST POP PUSH2 0xA3 PUSH2 0x151 JUMP JUMPDEST PUSH1 0x40 MLOAD PUSH2 0xB2 SWAP4 SWAP3 SWAP2 SWAP1 PUSH2 0x678 JUMP JUMPDEST PUSH1 0x40 MLOAD DUP1 SWAP2 SUB SWAP1 RETURN JUMPDEST CALLVALUE DUP1 ISZERO PUSH2 0xC7 JUMPI PUSH1 0x0 DUP1 REVERT JUMPDEST POP PUSH2 0xD0 PUSH2 0x169 JUMP JUMPDEST STOP JUMPDEST CALLVALUE DUP1 ISZERO PUSH2 0xDE JUMPI PUSH1 0x0 DUP1 REVERT JUMPDEST POP PUSH2 0xE7 PUSH2 0x41E JUMP JUMPDEST PUSH1 0x40 MLOAD PUSH2 0xF4 SWAP2 SWAP1 PUSH2 0x6AF JUMP JUMPDEST PUSH1 0x40 MLOAD DUP1 SWAP2 SUB SWAP1 RETURN JUMPDEST PUSH2 0x105 PUSH2 0x424 JUMP JUMPDEST STOP JUMPDEST PUSH1 0x4 PUSH1 0x20 MSTORE DUP1 PUSH1 0x0 MSTORE PUSH1 0x40 PUSH1 0x0 KECCAK256 PUSH1 0x0 SWAP2 POP SWAP1 POP DUP1 PUSH1 0x0 ADD PUSH1 0x0 SWAP1 SLOAD SWAP1 PUSH2 0x100 EXP SWAP1 DIV PUSH20 0xFFFFFFFFFFFFFFFFFFFFFFFFFFFFFFFFFFFFFFFF AND SWAP1 DUP1 PUSH1 0x1 ADD SLOAD SWAP1 DUP1 PUSH1 0x2 ADD SLOAD SWAP1 POP DUP4 JUMP JUMPDEST PUSH1 0x1 DUP1 PUSH1 0x0 ADD SLOAD SWAP1 DUP1 PUSH1 0x1 ADD SLOAD SWAP1 DUP1 PUSH1 0x2 ADD SLOAD SWAP1 POP DUP4 JUMP JUMPDEST PUSH1 0x1 PUSH1 0x2 ADD SLOAD TIMESTAMP GT PUSH2 0x210 JUMPI PUSH1 0x1 PUSH1 0x0 ADD SLOAD PUSH1 0x1 DUP1 ADD SLOAD LT ISZERO PUSH2 0x18B JUMPI PUSH1 0x0 DUP1 REVERT JUMPDEST PUSH1 0x0 DUP1 SLOAD SWAP1 PUSH2 0x100 EXP SWAP1 DIV PUSH20 0xFFFFFFFFFFFFFFFFFFFFFFFFFFFFFFFFFFFFFFFF AND PUSH20 0xFFFFFFFFFFFFFFFFFFFFFFFFFFFFFFFFFFFFFFFF AND PUSH2 0x8FC PUSH1 0x1 DUP1 ADD SLOAD SWAP1 DUP2 ISZERO MUL SWAP1 PUSH1 0x40 MLOAD PUSH1 0x0 PUSH1 0x40 MLOAD DUP1 DUP4 SUB DUP2 DUP6 DUP9 DUP9 CALL SWAP4 POP POP POP POP ISZERO DUP1 ISZERO PUSH2 0x1F5 JUMPI RETURNDATASIZE PUSH1 0x0 DUP1 RETURNDATACOPY RETURNDATASIZE PUSH1 0x0 REVERT JUMPDEST POP PUSH1 0x0 PUSH1 0x1 DUP1 ADD DUP2 SWAP1 SSTORE POP PUSH1 0x0 PUSH1 0x1 PUSH1 0x0 ADD DUP2 SWAP1 SSTORE POP PUSH2 0x41C JUMP JUMPDEST PUSH1 0x0 PUSH1 0x4 PUSH1 0x0 CALLER PUSH20 0xFFFFFFFFFFFFFFFFFFFFFFFFFFFFFFFFFFFFFFFF AND PUSH20 0xFFFFFFFFFFFFFFFFFFFFFFFFFFFFFFFFFFFFFFFF AND DUP2 MSTORE PUSH1 0x20 ADD SWAP1 DUP2 MSTORE PUSH1 0x20 ADD PUSH1 0x0 KECCAK256 PUSH1 0x40 MLOAD DUP1 PUSH1 0x60 ADD PUSH1 0x40 MSTORE SWAP1 DUP2 PUSH1 0x0 DUP3 ADD PUSH1 0x0 SWAP1 SLOAD SWAP1 PUSH2 0x100 EXP SWAP1 DIV PUSH20 0xFFFFFFFFFFFFFFFFFFFFFFFFFFFFFFFFFFFFFFFF AND PUSH20 0xFFFFFFFFFFFFFFFFFFFFFFFFFFFFFFFFFFFFFFFF AND PUSH20 0xFFFFFFFFFFFFFFFFFFFFFFFFFFFFFFFFFFFFFFFF AND DUP2 MSTORE PUSH1 0x20 ADD PUSH1 0x1 DUP3 ADD SLOAD DUP2 MSTORE PUSH1 0x20 ADD PUSH1 0x2 DUP3 ADD SLOAD DUP2 MSTORE POP POP SWAP1 POP CALLER PUSH20 0xFFFFFFFFFFFFFFFFFFFFFFFFFFFFFFFFFFFFFFFF AND DUP2 PUSH1 0x0 ADD MLOAD PUSH20 0xFFFFFFFFFFFFFFFFFFFFFFFFFFFFFFFFFFFFFFFF AND EQ PUSH2 0x33A JUMPI PUSH1 0x40 MLOAD PUSH32 0x8C379A000000000000000000000000000000000000000000000000000000000 DUP2 MSTORE PUSH1 0x4 ADD PUSH2 0x331 SWAP1 PUSH2 0x74D JUMP JUMPDEST PUSH1 0x40 MLOAD DUP1 SWAP2 SUB SWAP1 REVERT JUMPDEST DUP1 PUSH1 0x0 ADD MLOAD PUSH20 0xFFFFFFFFFFFFFFFFFFFFFFFFFFFFFFFFFFFFFFFF AND PUSH2 0x8FC DUP3 PUSH1 0x20 ADD MLOAD SWAP1 DUP2 ISZERO MUL SWAP1 PUSH1 0x40 MLOAD PUSH1 0x0 PUSH1 0x40 MLOAD DUP1 DUP4 SUB DUP2 DUP6 DUP9 DUP9 CALL SWAP4 POP POP POP POP ISZERO DUP1 ISZERO PUSH2 0x388 JUMPI RETURNDATASIZE PUSH1 0x0 DUP1 RETURNDATACOPY RETURNDATASIZE PUSH1 0x0 REVERT JUMPDEST POP PUSH1 0x4 PUSH1 0x0 CALLER PUSH20 0xFFFFFFFFFFFFFFFFFFFFFFFFFFFFFFFFFFFFFFFF AND PUSH20 0xFFFFFFFFFFFFFFFFFFFFFFFFFFFFFFFFFFFFFFFF AND DUP2 MSTORE PUSH1 0x20 ADD SWAP1 DUP2 MSTORE PUSH1 0x20 ADD PUSH1 0x0 KECCAK256 PUSH1 0x0 DUP1 DUP3 ADD PUSH1 0x0 PUSH2 0x100 EXP DUP2 SLOAD SWAP1 PUSH20 0xFFFFFFFFFFFFFFFFFFFFFFFFFFFFFFFFFFFFFFFF MUL NOT AND SWAP1 SSTORE PUSH1 0x1 DUP3 ADD PUSH1 0x0 SWAP1 SSTORE PUSH1 0x2 DUP3 ADD PUSH1 0x0 SWAP1 SSTORE POP POP PUSH1 0x5 PUSH1 0x0 DUP2 SLOAD DUP1 SWAP3 SWAP2 SWAP1 PUSH2 0x415 SWAP1 PUSH2 0x79C JUMP JUMPDEST SWAP2 SWAP1 POP SSTORE POP POP JUMPDEST JUMP JUMPDEST PUSH1 0x5 SLOAD DUP2 JUMP JUMPDEST PUSH1 0x1 PUSH1 0x2 ADD SLOAD TIMESTAMP GT ISZERO DUP1 ISZERO PUSH2 0x441 JUMPI POP PUSH1 0x1 PUSH1 0x0 ADD SLOAD PUSH1 0x1 DUP1 ADD SLOAD LT JUMPDEST PUSH2 0x480 JUMPI PUSH1 0x40 MLOAD PUSH32 0x8C379A000000000000000000000000000000000000000000000000000000000 DUP2 MSTORE PUSH1 0x4 ADD PUSH2 0x477 SWAP1 PUSH2 0x837 JUMP JUMPDEST PUSH1 0x40 MLOAD DUP1 SWAP2 SUB SWAP1 REVERT JUMPDEST PUSH1 0x0 PUSH1 0x40 MLOAD DUP1 PUSH1 0x60 ADD PUSH1 0x40 MSTORE DUP1 CALLER PUSH20 0xFFFFFFFFFFFFFFFFFFFFFFFFFFFFFFFFFFFFFFFF AND DUP2 MSTORE PUSH1 0x20 ADD CALLVALUE DUP2 MSTORE PUSH1 0x20 ADD TIMESTAMP DUP2 MSTORE POP SWAP1 POP DUP1 PUSH1 0x4 PUSH1 0x0 CALLER PUSH20 0xFFFFFFFFFFFFFFFFFFFFFFFFFFFFFFFFFFFFFFFF AND PUSH20 0xFFFFFFFFFFFFFFFFFFFFFFFFFFFFFFFFFFFFFFFF AND DUP2 MSTORE PUSH1 0x20 ADD SWAP1 DUP2 MSTORE PUSH1 0x20 ADD PUSH1 0x0 KECCAK256 PUSH1 0x0 DUP3 ADD MLOAD DUP2 PUSH1 0x0 ADD PUSH1 0x0 PUSH2 0x100 EXP DUP2 SLOAD DUP2 PUSH20 0xFFFFFFFFFFFFFFFFFFFFFFFFFFFFFFFFFFFFFFFF MUL NOT AND SWAP1 DUP4 PUSH20 0xFFFFFFFFFFFFFFFFFFFFFFFFFFFFFFFFFFFFFFFF AND MUL OR SWAP1 SSTORE POP PUSH1 0x20 DUP3 ADD MLOAD DUP2 PUSH1 0x1 ADD SSTORE PUSH1 0x40 DUP3 ADD MLOAD DUP2 PUSH1 0x2 ADD SSTORE SWAP1 POP POP PUSH1 0x5 PUSH1 0x0 DUP2 SLOAD DUP1 SWAP3 SWAP2 SWAP1 PUSH2 0x566 SWAP1 PUSH2 0x857 JUMP JUMPDEST SWAP2 SWAP1 POP SSTORE POP CALLVALUE PUSH1 0x1 DUP1 ADD PUSH1 0x0 DUP3 DUP3 SLOAD PUSH2 0x57F SWAP2 SWAP1 PUSH2 0x89F JUMP JUMPDEST SWAP3 POP POP DUP2 SWAP1 SSTORE POP POP JUMP JUMPDEST PUSH1 0x0 DUP1 REVERT JUMPDEST PUSH1 0x0 PUSH20 0xFFFFFFFFFFFFFFFFFFFFFFFFFFFFFFFFFFFFFFFF DUP3 AND SWAP1 POP SWAP2 SWAP1 POP JUMP JUMPDEST PUSH1 0x0 PUSH2 0x5B9 DUP3 PUSH2 0x58E JUMP JUMPDEST SWAP1 POP SWAP2 SWAP1 POP JUMP JUMPDEST PUSH2 0x5C9 DUP2 PUSH2 0x5AE JUMP JUMPDEST DUP2 EQ PUSH2 0x5D4 JUMPI PUSH1 0x0 DUP1 REVERT JUMPDEST POP JUMP JUMPDEST PUSH1 0x0 DUP2 CALLDATALOAD SWAP1 POP PUSH2 0x5E6 DUP2 PUSH2 0x5C0 JUMP JUMPDEST SWAP3 SWAP2 POP POP JUMP JUMPDEST PUSH1 0x0 PUSH1 0x20 DUP3 DUP5 SUB SLT ISZERO PUSH2 0x602 JUMPI PUSH2 0x601 PUSH2 0x589 JUMP JUMPDEST JUMPDEST PUSH1 0x0 PUSH2 0x610 DUP5 DUP3 DUP6 ADD PUSH2 0x5D7 JUMP JUMPDEST SWAP2 POP POP SWAP3 SWAP2 POP POP JUMP JUMPDEST PUSH2 0x622 DUP2 PUSH2 0x5AE JUMP JUMPDEST DUP3 MSTORE POP POP JUMP JUMPDEST PUSH1 0x0 DUP2 SWAP1 POP SWAP2 SWAP1 POP JUMP JUMPDEST PUSH2 0x63B DUP2 PUSH2 0x628 JUMP JUMPDEST DUP3 MSTORE POP POP JUMP JUMPDEST PUSH1 0x0 PUSH1 0x60 DUP3 ADD SWAP1 POP PUSH2 0x656 PUSH1 0x0 DUP4 ADD DUP7 PUSH2 0x619 JUMP JUMPDEST PUSH2 0x663 PUSH1 0x20 DUP4 ADD DUP6 PUSH2 0x632 JUMP JUMPDEST PUSH2 0x670 PUSH1 0x40 DUP4 ADD DUP5 PUSH2 0x632 JUMP JUMPDEST SWAP5 SWAP4 POP POP POP POP JUMP JUMPDEST PUSH1 0x0 PUSH1 0x60 DUP3 ADD SWAP1 POP PUSH2 0x68D PUSH1 0x0 DUP4 ADD DUP7 PUSH2 0x632 JUMP JUMPDEST PUSH2 0x69A PUSH1 0x20 DUP4 ADD DUP6 PUSH2 0x632 JUMP JUMPDEST PUSH2 0x6A7 PUSH1 0x40 DUP4 ADD DUP5 PUSH2 0x632 JUMP JUMPDEST SWAP5 SWAP4 POP POP POP POP JUMP JUMPDEST PUSH1 0x0 PUSH1 0x20 DUP3 ADD SWAP1 POP PUSH2 0x6C4 PUSH1 0x0 DUP4 ADD DUP5 PUSH2 0x632 JUMP JUMPDEST SWAP3 SWAP2 POP POP JUMP JUMPDEST PUSH1 0x0 DUP3 DUP3 MSTORE PUSH1 0x20 DUP3 ADD SWAP1 POP SWAP3 SWAP2 POP POP JUMP JUMPDEST PUSH32 0x554E415554484F52495A454420666F722077697468647261776C2041424F5254 PUSH1 0x0 DUP3 ADD MSTORE PUSH32 0x494E472021210000000000000000000000000000000000000000000000000000 PUSH1 0x20 DUP3 ADD MSTORE POP JUMP JUMPDEST PUSH1 0x0 PUSH2 0x737 PUSH1 0x26 DUP4 PUSH2 0x6CA JUMP JUMPDEST SWAP2 POP PUSH2 0x742 DUP3 PUSH2 0x6DB JUMP JUMPDEST PUSH1 0x40 DUP3 ADD SWAP1 POP SWAP2 SWAP1 POP JUMP JUMPDEST PUSH1 0x0 PUSH1 0x20 DUP3 ADD SWAP1 POP DUP2 DUP2 SUB PUSH1 0x0 DUP4 ADD MSTORE PUSH2 0x766 DUP2 PUSH2 0x72A JUMP JUMPDEST SWAP1 POP SWAP2 SWAP1 POP JUMP JUMPDEST PUSH32 0x4E487B7100000000000000000000000000000000000000000000000000000000 PUSH1 0x0 MSTORE PUSH1 0x11 PUSH1 0x4 MSTORE PUSH1 0x24 PUSH1 0x0 REVERT JUMPDEST PUSH1 0x0 PUSH2 0x7A7 DUP3 PUSH2 0x628 JUMP JUMPDEST SWAP2 POP PUSH1 0x0 DUP3 SUB PUSH2 0x7BA JUMPI PUSH2 0x7B9 PUSH2 0x76D JUMP JUMPDEST JUMPDEST PUSH1 0x1 DUP3 SUB SWAP1 POP SWAP2 SWAP1 POP JUMP JUMPDEST PUSH32 0x43616E277420446F6E6174652C20646561646C696E6520657863656564656420 PUSH1 0x0 DUP3 ADD MSTORE PUSH32 0x41424F5254494E47212100000000000000000000000000000000000000000000 PUSH1 0x20 DUP3 ADD MSTORE POP JUMP JUMPDEST PUSH1 0x0 PUSH2 0x821 PUSH1 0x2A DUP4 PUSH2 0x6CA JUMP JUMPDEST SWAP2 POP PUSH2 0x82C DUP3 PUSH2 0x7C5 JUMP JUMPDEST PUSH1 0x40 DUP3 ADD SWAP1 POP SWAP2 SWAP1 POP JUMP JUMPDEST PUSH1 0x0 PUSH1 0x20 DUP3 ADD SWAP1 POP DUP2 DUP2 SUB PUSH1 0x0 DUP4 ADD MSTORE PUSH2 0x850 DUP2 PUSH2 0x814 JUMP JUMPDEST SWAP1 POP SWAP2 SWAP1 POP JUMP JUMPDEST PUSH1 0x0 PUSH2 0x862 DUP3 PUSH2 0x628 JUMP JUMPDEST SWAP2 POP PUSH32 0xFFFFFFFFFFFFFFFFFFFFFFFFFFFFFFFFFFFFFFFFFFFFFFFFFFFFFFFFFFFFFFFF DUP3 SUB PUSH2 0x894 JUMPI PUSH2 0x893 PUSH2 0x76D JUMP JUMPDEST JUMPDEST PUSH1 0x1 DUP3 ADD SWAP1 POP SWAP2 SWAP1 POP JUMP JUMPDEST PUSH1 0x0 PUSH2 0x8AA DUP3 PUSH2 0x628 JUMP JUMPDEST SWAP2 POP PUSH2 0x8B5 DUP4 PUSH2 0x628 JUMP JUMPDEST SWAP3 POP DUP3 PUSH32 0xFFFFFFFFFFFFFFFFFFFFFFFFFFFFFFFFFFFFFFFFFFFFFFFFFFFFFFFFFFFFFFFF SUB DUP3 GT ISZERO PUSH2 0x8EA JUMPI PUSH2 0x8E9 PUSH2 0x76D JUMP JUMPDEST JUMPDEST DUP3 DUP3 ADD SWAP1 POP SWAP3 SWAP2 POP POP JUMP INVALID LOG2 PUSH5 0x6970667358 0x22 SLT KECCAK256 DUP14 0xD1 CALLDATASIZE SELFDESTRUCT PUSH24 0x33D7FDBD12DE5A788FBDEA4C8859AC4B8C9569BCACEA4BD9 0x2C RETURN 0x4F PUSH5 0x736F6C6343 STOP ADDMOD 0xF STOP CALLER "
				},
				"gasEstimates": {
					"creation": {
						"codeDepositCost": "469400",
						"executionCost": "infinite",
						"totalCost": "infinite"
					},
					"external": {
						"Deposits(address)": "infinite",
						"donateFundToContract()": "infinite",
						"fundingDetails()": "infinite",
						"numOfDeposits()": "2473",
						"withDrawEthFromContract()": "infinite"
					}
				},
				"methodIdentifiers": {
					"Deposits(address)": "3ee2d7c2",
					"donateFundToContract()": "f0c9f010",
					"fundingDetails()": "72b264b6",
					"numOfDeposits()": "cd16ebf7",
					"withDrawEthFromContract()": "b8afac45"
				}
			},
			"storageLayout": {
				"storage": [
					{
						"astId": 17,
						"contract": "contracts/9_crowdfunding.sol:smartCrowdFundingContract",
						"label": "ownerAdd",
						"offset": 0,
						"slot": "0",
						"type": "t_address_payable"
					},
					{
						"astId": 20,
						"contract": "contracts/9_crowdfunding.sol:smartCrowdFundingContract",
						"label": "fundingDetails",
						"offset": 0,
						"slot": "1",
						"type": "t_struct(FundingStruct)15_storage"
					},
					{
						"astId": 48,
						"contract": "contracts/9_crowdfunding.sol:smartCrowdFundingContract",
						"label": "Deposits",
						"offset": 0,
						"slot": "4",
						"type": "t_mapping(t_address,t_struct(deposition)8_storage)"
					},
					{
						"astId": 50,
						"contract": "contracts/9_crowdfunding.sol:smartCrowdFundingContract",
						"label": "numOfDeposits",
						"offset": 0,
						"slot": "5",
						"type": "t_uint256"
					}
				],
				"types": {
					"t_address": {
						"encoding": "inplace",
						"label": "address",
						"numberOfBytes": "20"
					},
					"t_address_payable": {
						"encoding": "inplace",
						"label": "address payable",
						"numberOfBytes": "20"
					},
					"t_mapping(t_address,t_struct(deposition)8_storage)": {
						"encoding": "mapping",
						"key": "t_address",
						"label": "mapping(address => struct smartCrowdFundingContract.deposition)",
						"numberOfBytes": "32",
						"value": "t_struct(deposition)8_storage"
					},
					"t_struct(FundingStruct)15_storage": {
						"encoding": "inplace",
						"label": "struct smartCrowdFundingContract.FundingStruct",
						"members": [
							{
								"astId": 10,
								"contract": "contracts/9_crowdfunding.sol:smartCrowdFundingContract",
								"label": "fundingAmount",
								"offset": 0,
								"slot": "0",
								"type": "t_uint256"
							},
							{
								"astId": 12,
								"contract": "contracts/9_crowdfunding.sol:smartCrowdFundingContract",
								"label": "availableAmount",
								"offset": 0,
								"slot": "1",
								"type": "t_uint256"
							},
							{
								"astId": 14,
								"contract": "contracts/9_crowdfunding.sol:smartCrowdFundingContract",
								"label": "deadline",
								"offset": 0,
								"slot": "2",
								"type": "t_uint256"
							}
						],
						"numberOfBytes": "96"
					},
					"t_struct(deposition)8_storage": {
						"encoding": "inplace",
						"label": "struct smartCrowdFundingContract.deposition",
						"members": [
							{
								"astId": 3,
								"contract": "contracts/9_crowdfunding.sol:smartCrowdFundingContract",
								"label": "from",
								"offset": 0,
								"slot": "0",
								"type": "t_address"
							},
							{
								"astId": 5,
								"contract": "contracts/9_crowdfunding.sol:smartCrowdFundingContract",
								"label": "amount",
								"offset": 0,
								"slot": "1",
								"type": "t_uint256"
							},
							{
								"astId": 7,
								"contract": "contracts/9_crowdfunding.sol:smartCrowdFundingContract",
								"label": "timestamp",
								"offset": 0,
								"slot": "2",
								"type": "t_uint256"
							}
						],
						"numberOfBytes": "96"
					},
					"t_uint256": {
						"encoding": "inplace",
						"label": "uint256",
						"numberOfBytes": "32"
					}
				}
			},
			"userdoc": {
				"kind": "user",
				"methods": {},
				"version": 1
			}
		}
	}
}