{
	"contracts/subscriptionsystem.sol": {
		"SubscriptionContract": {
			"abi": [
				{
					"inputs": [],
					"stateMutability": "nonpayable",
					"type": "constructor"
				},
				{
					"inputs": [
						{
							"internalType": "address",
							"name": "owner",
							"type": "address"
						}
					],
					"name": "OwnableInvalidOwner",
					"type": "error"
				},
				{
					"inputs": [
						{
							"internalType": "address",
							"name": "account",
							"type": "address"
						}
					],
					"name": "OwnableUnauthorizedAccount",
					"type": "error"
				},
				{
					"anonymous": false,
					"inputs": [
						{
							"indexed": true,
							"internalType": "address",
							"name": "previousOwner",
							"type": "address"
						},
						{
							"indexed": true,
							"internalType": "address",
							"name": "newOwner",
							"type": "address"
						}
					],
					"name": "OwnershipTransferred",
					"type": "event"
				},
				{
					"anonymous": false,
					"inputs": [
						{
							"indexed": true,
							"internalType": "address",
							"name": "subscriber",
							"type": "address"
						},
						{
							"indexed": false,
							"internalType": "enum SubscriptionContract.PlanType",
							"name": "planType",
							"type": "uint8"
						}
					],
					"name": "SubscriptionCreated",
					"type": "event"
				},
				{
					"anonymous": false,
					"inputs": [
						{
							"indexed": true,
							"internalType": "address",
							"name": "subscriber",
							"type": "address"
						},
						{
							"indexed": false,
							"internalType": "enum SubscriptionContract.PlanType",
							"name": "planType",
							"type": "uint8"
						}
					],
					"name": "SubscriptionRenewed",
					"type": "event"
				},
				{
					"inputs": [],
					"name": "getOrUpdateSubscription",
					"outputs": [],
					"stateMutability": "payable",
					"type": "function"
				},
				{
					"inputs": [
						{
							"internalType": "enum SubscriptionContract.PlanType",
							"name": "_planType",
							"type": "uint8"
						}
					],
					"name": "getPlanCost",
					"outputs": [
						{
							"internalType": "uint256",
							"name": "",
							"type": "uint256"
						}
					],
					"stateMutability": "view",
					"type": "function"
				},
				{
					"inputs": [
						{
							"internalType": "address",
							"name": "_address",
							"type": "address"
						}
					],
					"name": "isAddressSubscribed",
					"outputs": [
						{
							"internalType": "bool",
							"name": "",
							"type": "bool"
						}
					],
					"stateMutability": "view",
					"type": "function"
				},
				{
					"inputs": [],
					"name": "owner",
					"outputs": [
						{
							"internalType": "address",
							"name": "",
							"type": "address"
						}
					],
					"stateMutability": "view",
					"type": "function"
				},
				{
					"inputs": [],
					"name": "renounceOwnership",
					"outputs": [],
					"stateMutability": "nonpayable",
					"type": "function"
				},
				{
					"inputs": [],
					"name": "subscriptionProtectedService",
					"outputs": [
						{
							"internalType": "string",
							"name": "",
							"type": "string"
						}
					],
					"stateMutability": "view",
					"type": "function"
				},
				{
					"inputs": [
						{
							"internalType": "address",
							"name": "",
							"type": "address"
						}
					],
					"name": "subscriptions",
					"outputs": [
						{
							"internalType": "address",
							"name": "subscriber",
							"type": "address"
						},
						{
							"components": [
								{
									"internalType": "uint256",
									"name": "cost",
									"type": "uint256"
								},
								{
									"internalType": "enum SubscriptionContract.PlanType",
									"name": "Type",
									"type": "uint8"
								}
							],
							"internalType": "struct SubscriptionContract.Plan",
							"name": "plan",
							"type": "tuple"
						},
						{
							"internalType": "uint256",
							"name": "expiryTime",
							"type": "uint256"
						}
					],
					"stateMutability": "view",
					"type": "function"
				},
				{
					"inputs": [],
					"name": "totalSubs",
					"outputs": [
						{
							"internalType": "uint256",
							"name": "",
							"type": "uint256"
						}
					],
					"stateMutability": "view",
					"type": "function"
				},
				{
					"inputs": [
						{
							"internalType": "address",
							"name": "newOwner",
							"type": "address"
						}
					],
					"name": "transferOwnership",
					"outputs": [],
					"stateMutability": "nonpayable",
					"type": "function"
				}
			],
			"devdoc": {
				"errors": {
					"OwnableInvalidOwner(address)": [
						{
							"details": "The owner is not a valid owner account. (eg. `address(0)`)"
						}
					],
					"OwnableUnauthorizedAccount(address)": [
						{
							"details": "The caller account is not authorized to perform an operation."
						}
					]
				},
				"kind": "dev",
				"methods": {
					"owner()": {
						"details": "Returns the address of the current owner."
					},
					"renounceOwnership()": {
						"details": "Leaves the contract without owner. It will not be possible to call `onlyOwner` functions. Can only be called by the current owner. NOTE: Renouncing ownership will leave the contract without an owner, thereby disabling any functionality that is only available to the owner."
					},
					"transferOwnership(address)": {
						"details": "Transfers ownership of the contract to a new account (`newOwner`). Can only be called by the current owner."
					}
				},
				"version": 1
			},
			"evm": {
				"assembly": "    /* \"contracts/subscriptionsystem.sol\":117:3032  contract SubscriptionContract is Ownable(msg.sender) {... */\n  mstore(0x40, 0x80)\n    /* \"contracts/subscriptionsystem.sol\":732:896  constructor() {... */\n  callvalue\n  dup1\n  iszero\n  tag_1\n  jumpi\n  revert(0x00, 0x00)\ntag_1:\n  pop\n    /* \"contracts/subscriptionsystem.sol\":158:168  msg.sender */\n  caller\n    /* \"@openzeppelin/contracts/access/Ownable.sol\":1297:1298  0 */\n  0x00\n    /* \"@openzeppelin/contracts/access/Ownable.sol\":1273:1299  initialOwner == address(0) */\n  0xffffffffffffffffffffffffffffffffffffffff\n  and\n    /* \"@openzeppelin/contracts/access/Ownable.sol\":1273:1285  initialOwner */\n  dup2\n    /* \"@openzeppelin/contracts/access/Ownable.sol\":1273:1299  initialOwner == address(0) */\n  0xffffffffffffffffffffffffffffffffffffffff\n  and\n  sub\n    /* \"@openzeppelin/contracts/access/Ownable.sol\":1269:1364  if (initialOwner == address(0)) {... */\n  tag_5\n  jumpi\n    /* \"@openzeppelin/contracts/access/Ownable.sol\":1350:1351  0 */\n  0x00\n    /* \"@openzeppelin/contracts/access/Ownable.sol\":1322:1353  OwnableInvalidOwner(address(0)) */\n  mload(0x40)\n  0x1e4fbdf700000000000000000000000000000000000000000000000000000000\n  dup2\n  mstore\n  0x04\n  add\n  tag_6\n  swap2\n  swap1\n  tag_7\n  jump\t// in\ntag_6:\n  mload(0x40)\n  dup1\n  swap2\n  sub\n  swap1\n  revert\n    /* \"@openzeppelin/contracts/access/Ownable.sol\":1269:1364  if (initialOwner == address(0)) {... */\ntag_5:\n    /* \"@openzeppelin/contracts/access/Ownable.sol\":1373:1405  _transferOwnership(initialOwner) */\n  tag_8\n    /* \"@openzeppelin/contracts/access/Ownable.sol\":1392:1404  initialOwner */\n  dup2\n    /* \"@openzeppelin/contracts/access/Ownable.sol\":1373:1391  _transferOwnership */\n  shl(0x20, tag_9)\n    /* \"@openzeppelin/contracts/access/Ownable.sol\":1373:1405  _transferOwnership(initialOwner) */\n  0x20\n  shr\n  jump\t// in\ntag_8:\n    /* \"@openzeppelin/contracts/access/Ownable.sol\":1225:1412  constructor(address initialOwner) {... */\n  pop\n    /* \"contracts/subscriptionsystem.sol\":788:795  1 ether */\n  0x0de0b6b3a7640000\n    /* \"contracts/subscriptionsystem.sol\":757:766  planCosts */\n  0x03\n    /* \"contracts/subscriptionsystem.sol\":757:785  planCosts[PlanType.Standard] */\n  0x00\n    /* \"contracts/subscriptionsystem.sol\":767:784  PlanType.Standard */\n  0x00\n    /* \"contracts/subscriptionsystem.sol\":757:785  planCosts[PlanType.Standard] */\n  0x02\n  dup2\n  gt\n  iszero\n  tag_11\n  jumpi\n  tag_12\n  tag_13\n  jump\t// in\ntag_12:\ntag_11:\n  0x02\n  dup2\n  gt\n  iszero\n  tag_14\n  jumpi\n  tag_15\n  tag_13\n  jump\t// in\ntag_15:\ntag_14:\n  dup2\n  mstore\n  0x20\n  add\n  swap1\n  dup2\n  mstore\n  0x20\n  add\n  0x00\n  keccak256\n    /* \"contracts/subscriptionsystem.sol\":757:795  planCosts[PlanType.Standard] = 1 ether */\n  dup2\n  swap1\n  sstore\n  pop\n    /* \"contracts/subscriptionsystem.sol\":832:839  5 ether */\n  0x4563918244f40000\n    /* \"contracts/subscriptionsystem.sol\":806:815  planCosts */\n  0x03\n    /* \"contracts/subscriptionsystem.sol\":806:829  planCosts[PlanType.Pro] */\n  0x00\n    /* \"contracts/subscriptionsystem.sol\":816:828  PlanType.Pro */\n  0x01\n    /* \"contracts/subscriptionsystem.sol\":806:829  planCosts[PlanType.Pro] */\n  0x02\n  dup2\n  gt\n  iszero\n  tag_16\n  jumpi\n  tag_17\n  tag_13\n  jump\t// in\ntag_17:\ntag_16:\n  0x02\n  dup2\n  gt\n  iszero\n  tag_18\n  jumpi\n  tag_19\n  tag_13\n  jump\t// in\ntag_19:\ntag_18:\n  dup2\n  mstore\n  0x20\n  add\n  swap1\n  dup2\n  mstore\n  0x20\n  add\n  0x00\n  keccak256\n    /* \"contracts/subscriptionsystem.sol\":806:839  planCosts[PlanType.Pro] = 5 ether */\n  dup2\n  swap1\n  sstore\n  pop\n    /* \"contracts/subscriptionsystem.sol\":880:888  10 ether */\n  0x8ac7230489e80000\n    /* \"contracts/subscriptionsystem.sol\":850:859  planCosts */\n  0x03\n    /* \"contracts/subscriptionsystem.sol\":850:877  planCosts[PlanType.Premium] */\n  0x00\n    /* \"contracts/subscriptionsystem.sol\":860:876  PlanType.Premium */\n  0x02\n    /* \"contracts/subscriptionsystem.sol\":850:877  planCosts[PlanType.Premium] */\n  dup1\n  dup2\n  gt\n  iszero\n  tag_20\n  jumpi\n  tag_21\n  tag_13\n  jump\t// in\ntag_21:\ntag_20:\n  0x02\n  dup2\n  gt\n  iszero\n  tag_22\n  jumpi\n  tag_23\n  tag_13\n  jump\t// in\ntag_23:\ntag_22:\n  dup2\n  mstore\n  0x20\n  add\n  swap1\n  dup2\n  mstore\n  0x20\n  add\n  0x00\n  keccak256\n    /* \"contracts/subscriptionsystem.sol\":850:888  planCosts[PlanType.Premium] = 10 ether */\n  dup2\n  swap1\n  sstore\n  pop\n    /* \"contracts/subscriptionsystem.sol\":117:3032  contract SubscriptionContract is Ownable(msg.sender) {... */\n  jump(tag_24)\n    /* \"@openzeppelin/contracts/access/Ownable.sol\":2912:3099  function _transferOwnership(address newOwner) internal virtual {... */\ntag_9:\n    /* \"@openzeppelin/contracts/access/Ownable.sol\":2985:3001  address oldOwner */\n  0x00\n    /* \"@openzeppelin/contracts/access/Ownable.sol\":3004:3010  _owner */\n  0x00\n  0x00\n  swap1\n  sload\n  swap1\n  0x0100\n  exp\n  swap1\n  div\n  0xffffffffffffffffffffffffffffffffffffffff\n  and\n    /* \"@openzeppelin/contracts/access/Ownable.sol\":2985:3010  address oldOwner = _owner */\n  swap1\n  pop\n    /* \"@openzeppelin/contracts/access/Ownable.sol\":3029:3037  newOwner */\n  dup2\n    /* \"@openzeppelin/contracts/access/Ownable.sol\":3020:3026  _owner */\n  0x00\n  0x00\n    /* \"@openzeppelin/contracts/access/Ownable.sol\":3020:3037  _owner = newOwner */\n  0x0100\n  exp\n  dup2\n  sload\n  dup2\n  0xffffffffffffffffffffffffffffffffffffffff\n  mul\n  not\n  and\n  swap1\n  dup4\n  0xffffffffffffffffffffffffffffffffffffffff\n  and\n  mul\n  or\n  swap1\n  sstore\n  pop\n    /* \"@openzeppelin/contracts/access/Ownable.sol\":3083:3091  newOwner */\n  dup2\n    /* \"@openzeppelin/contracts/access/Ownable.sol\":3052:3092  OwnershipTransferred(oldOwner, newOwner) */\n  0xffffffffffffffffffffffffffffffffffffffff\n  and\n    /* \"@openzeppelin/contracts/access/Ownable.sol\":3073:3081  oldOwner */\n  dup2\n    /* \"@openzeppelin/contracts/access/Ownable.sol\":3052:3092  OwnershipTransferred(oldOwner, newOwner) */\n  0xffffffffffffffffffffffffffffffffffffffff\n  and\n  0x8be0079c531659141344cd1fd0a4f28419497f9722a3daafe3b4186f6b6457e0\n  mload(0x40)\n  mload(0x40)\n  dup1\n  swap2\n  sub\n  swap1\n  log3\n    /* \"@openzeppelin/contracts/access/Ownable.sol\":2975:3099  {... */\n  pop\n    /* \"@openzeppelin/contracts/access/Ownable.sol\":2912:3099  function _transferOwnership(address newOwner) internal virtual {... */\n  pop\n  jump\t// out\n    /* \"#utility.yul\":7:133   */\ntag_26:\n    /* \"#utility.yul\":44:51   */\n  0x00\n    /* \"#utility.yul\":84:126   */\n  0xffffffffffffffffffffffffffffffffffffffff\n    /* \"#utility.yul\":77:82   */\n  dup3\n    /* \"#utility.yul\":73:127   */\n  and\n    /* \"#utility.yul\":62:127   */\n  swap1\n  pop\n    /* \"#utility.yul\":7:133   */\n  swap2\n  swap1\n  pop\n  jump\t// out\n    /* \"#utility.yul\":139:235   */\ntag_27:\n    /* \"#utility.yul\":176:183   */\n  0x00\n    /* \"#utility.yul\":205:229   */\n  tag_32\n    /* \"#utility.yul\":223:228   */\n  dup3\n    /* \"#utility.yul\":205:229   */\n  tag_26\n  jump\t// in\ntag_32:\n    /* \"#utility.yul\":194:229   */\n  swap1\n  pop\n    /* \"#utility.yul\":139:235   */\n  swap2\n  swap1\n  pop\n  jump\t// out\n    /* \"#utility.yul\":241:359   */\ntag_28:\n    /* \"#utility.yul\":328:352   */\n  tag_34\n    /* \"#utility.yul\":346:351   */\n  dup2\n    /* \"#utility.yul\":328:352   */\n  tag_27\n  jump\t// in\ntag_34:\n    /* \"#utility.yul\":323:326   */\n  dup3\n    /* \"#utility.yul\":316:353   */\n  mstore\n    /* \"#utility.yul\":241:359   */\n  pop\n  pop\n  jump\t// out\n    /* \"#utility.yul\":365:587   */\ntag_7:\n    /* \"#utility.yul\":458:462   */\n  0x00\n    /* \"#utility.yul\":496:498   */\n  0x20\n    /* \"#utility.yul\":485:494   */\n  dup3\n    /* \"#utility.yul\":481:499   */\n  add\n    /* \"#utility.yul\":473:499   */\n  swap1\n  pop\n    /* \"#utility.yul\":509:580   */\n  tag_36\n    /* \"#utility.yul\":577:578   */\n  0x00\n    /* \"#utility.yul\":566:575   */\n  dup4\n    /* \"#utility.yul\":562:579   */\n  add\n    /* \"#utility.yul\":553:559   */\n  dup5\n    /* \"#utility.yul\":509:580   */\n  tag_28\n  jump\t// in\ntag_36:\n    /* \"#utility.yul\":365:587   */\n  swap3\n  swap2\n  pop\n  pop\n  jump\t// out\n    /* \"#utility.yul\":593:773   */\ntag_13:\n    /* \"#utility.yul\":641:718   */\n  0x4e487b7100000000000000000000000000000000000000000000000000000000\n    /* \"#utility.yul\":638:639   */\n  0x00\n    /* \"#utility.yul\":631:719   */\n  mstore\n    /* \"#utility.yul\":738:742   */\n  0x21\n    /* \"#utility.yul\":735:736   */\n  0x04\n    /* \"#utility.yul\":728:743   */\n  mstore\n    /* \"#utility.yul\":762:766   */\n  0x24\n    /* \"#utility.yul\":759:760   */\n  0x00\n    /* \"#utility.yul\":752:767   */\n  revert\n    /* \"contracts/subscriptionsystem.sol\":117:3032  contract SubscriptionContract is Ownable(msg.sender) {... */\ntag_24:\n  dataSize(sub_0)\n  dup1\n  dataOffset(sub_0)\n  0x00\n  codecopy\n  0x00\n  return\nstop\n\nsub_0: assembly {\n        /* \"contracts/subscriptionsystem.sol\":117:3032  contract SubscriptionContract is Ownable(msg.sender) {... */\n      mstore(0x40, 0x80)\n      jumpi(tag_1, lt(calldatasize, 0x04))\n      shr(0xe0, calldataload(0x00))\n      dup1\n      0xc34ae78c\n      gt\n      tag_11\n      jumpi\n      dup1\n      0xc34ae78c\n      eq\n      tag_6\n      jumpi\n      dup1\n      0xd538a1b0\n      eq\n      tag_7\n      jumpi\n      dup1\n      0xf046395a\n      eq\n      tag_8\n      jumpi\n      dup1\n      0xf2fde38b\n      eq\n      tag_9\n      jumpi\n      dup1\n      0xf5676f8f\n      eq\n      tag_10\n      jumpi\n      jump(tag_1)\n    tag_11:\n      dup1\n      0x715018a6\n      eq\n      tag_2\n      jumpi\n      dup1\n      0x88607b4e\n      eq\n      tag_3\n      jumpi\n      dup1\n      0x8da5cb5b\n      eq\n      tag_4\n      jumpi\n      dup1\n      0x97810097\n      eq\n      tag_5\n      jumpi\n    tag_1:\n      revert(0x00, 0x00)\n        /* \"@openzeppelin/contracts/access/Ownable.sol\":2293:2394  function renounceOwnership() public virtual onlyOwner {... */\n    tag_2:\n      callvalue\n      dup1\n      iszero\n      tag_12\n      jumpi\n      revert(0x00, 0x00)\n    tag_12:\n      pop\n      tag_13\n      tag_14\n      jump\t// in\n    tag_13:\n      stop\n        /* \"contracts/subscriptionsystem.sol\":1445:2653  function getOrUpdateSubscription() public payable validPlanCost(msg.value) {... */\n    tag_3:\n      tag_15\n      tag_16\n      jump\t// in\n    tag_15:\n      stop\n        /* \"@openzeppelin/contracts/access/Ownable.sol\":1638:1723  function owner() public view virtual returns (address) {... */\n    tag_4:\n      callvalue\n      dup1\n      iszero\n      tag_17\n      jumpi\n      revert(0x00, 0x00)\n    tag_17:\n      pop\n      tag_18\n      tag_19\n      jump\t// in\n    tag_18:\n      mload(0x40)\n      tag_20\n      swap2\n      swap1\n      tag_21\n      jump\t// in\n    tag_20:\n      mload(0x40)\n      dup1\n      swap2\n      sub\n      swap1\n      return\n        /* \"contracts/subscriptionsystem.sol\":2661:2904  function isAddressSubscribed(address _address) public view returns (bool) {... */\n    tag_5:\n      callvalue\n      dup1\n      iszero\n      tag_22\n      jumpi\n      revert(0x00, 0x00)\n    tag_22:\n      pop\n      tag_23\n      0x04\n      dup1\n      calldatasize\n      sub\n      dup2\n      add\n      swap1\n      tag_24\n      swap2\n      swap1\n      tag_25\n      jump\t// in\n    tag_24:\n      tag_26\n      jump\t// in\n    tag_23:\n      mload(0x40)\n      tag_27\n      swap2\n      swap1\n      tag_28\n      jump\t// in\n    tag_27:\n      mload(0x40)\n      dup1\n      swap2\n      sub\n      swap1\n      return\n        /* \"contracts/subscriptionsystem.sol\":2912:3029  function getPlanCost(PlanType _planType) public view returns (uint256) {... */\n    tag_6:\n      callvalue\n      dup1\n      iszero\n      tag_29\n      jumpi\n      revert(0x00, 0x00)\n    tag_29:\n      pop\n      tag_30\n      0x04\n      dup1\n      calldatasize\n      sub\n      dup2\n      add\n      swap1\n      tag_31\n      swap2\n      swap1\n      tag_32\n      jump\t// in\n    tag_31:\n      tag_33\n      jump\t// in\n    tag_30:\n      mload(0x40)\n      tag_34\n      swap2\n      swap1\n      tag_35\n      jump\t// in\n    tag_34:\n      mload(0x40)\n      dup1\n      swap2\n      sub\n      swap1\n      return\n        /* \"contracts/subscriptionsystem.sol\":1187:1437  function subscriptionProtectedService() public view returns (string memory) {... */\n    tag_7:\n      callvalue\n      dup1\n      iszero\n      tag_36\n      jumpi\n      revert(0x00, 0x00)\n    tag_36:\n      pop\n      tag_37\n      tag_38\n      jump\t// in\n    tag_37:\n      mload(0x40)\n      tag_39\n      swap2\n      swap1\n      tag_40\n      jump\t// in\n    tag_39:\n      mload(0x40)\n      dup1\n      swap2\n      sub\n      swap1\n      return\n        /* \"contracts/subscriptionsystem.sol\":453:510  mapping(address => SubscriptionInfo) public subscriptions */\n    tag_8:\n      callvalue\n      dup1\n      iszero\n      tag_41\n      jumpi\n      revert(0x00, 0x00)\n    tag_41:\n      pop\n      tag_42\n      0x04\n      dup1\n      calldatasize\n      sub\n      dup2\n      add\n      swap1\n      tag_43\n      swap2\n      swap1\n      tag_25\n      jump\t// in\n    tag_43:\n      tag_44\n      jump\t// in\n    tag_42:\n      mload(0x40)\n      tag_45\n      swap4\n      swap3\n      swap2\n      swap1\n      tag_46\n      jump\t// in\n    tag_45:\n      mload(0x40)\n      dup1\n      swap2\n      sub\n      swap1\n      return\n        /* \"@openzeppelin/contracts/access/Ownable.sol\":2543:2758  function transferOwnership(address newOwner) public virtual onlyOwner {... */\n    tag_9:\n      callvalue\n      dup1\n      iszero\n      tag_47\n      jumpi\n      revert(0x00, 0x00)\n    tag_47:\n      pop\n      tag_48\n      0x04\n      dup1\n      calldatasize\n      sub\n      dup2\n      add\n      swap1\n      tag_49\n      swap2\n      swap1\n      tag_25\n      jump\t// in\n    tag_49:\n      tag_50\n      jump\t// in\n    tag_48:\n      stop\n        /* \"contracts/subscriptionsystem.sol\":422:446  uint256 public totalSubs */\n    tag_10:\n      callvalue\n      dup1\n      iszero\n      tag_51\n      jumpi\n      revert(0x00, 0x00)\n    tag_51:\n      pop\n      tag_52\n      tag_53\n      jump\t// in\n    tag_52:\n      mload(0x40)\n      tag_54\n      swap2\n      swap1\n      tag_35\n      jump\t// in\n    tag_54:\n      mload(0x40)\n      dup1\n      swap2\n      sub\n      swap1\n      return\n        /* \"@openzeppelin/contracts/access/Ownable.sol\":2293:2394  function renounceOwnership() public virtual onlyOwner {... */\n    tag_14:\n        /* \"@openzeppelin/contracts/access/Ownable.sol\":1531:1544  _checkOwner() */\n      tag_56\n        /* \"@openzeppelin/contracts/access/Ownable.sol\":1531:1542  _checkOwner */\n      tag_57\n        /* \"@openzeppelin/contracts/access/Ownable.sol\":1531:1544  _checkOwner() */\n      jump\t// in\n    tag_56:\n        /* \"@openzeppelin/contracts/access/Ownable.sol\":2357:2387  _transferOwnership(address(0)) */\n      tag_59\n        /* \"@openzeppelin/contracts/access/Ownable.sol\":2384:2385  0 */\n      0x00\n        /* \"@openzeppelin/contracts/access/Ownable.sol\":2357:2375  _transferOwnership */\n      tag_60\n        /* \"@openzeppelin/contracts/access/Ownable.sol\":2357:2387  _transferOwnership(address(0)) */\n      jump\t// in\n    tag_59:\n        /* \"@openzeppelin/contracts/access/Ownable.sol\":2293:2394  function renounceOwnership() public virtual onlyOwner {... */\n      jump\t// out\n        /* \"contracts/subscriptionsystem.sol\":1445:2653  function getOrUpdateSubscription() public payable validPlanCost(msg.value) {... */\n    tag_16:\n        /* \"contracts/subscriptionsystem.sol\":1509:1518  msg.value */\n      callvalue\n        /* \"contracts/subscriptionsystem.sol\":970:979  planCosts */\n      0x03\n        /* \"contracts/subscriptionsystem.sol\":970:998  planCosts[PlanType.Standard] */\n      0x00\n        /* \"contracts/subscriptionsystem.sol\":980:997  PlanType.Standard */\n      0x00\n        /* \"contracts/subscriptionsystem.sol\":970:998  planCosts[PlanType.Standard] */\n      0x02\n      dup2\n      gt\n      iszero\n      tag_62\n      jumpi\n      tag_63\n      tag_64\n      jump\t// in\n    tag_63:\n    tag_62:\n      0x02\n      dup2\n      gt\n      iszero\n      tag_65\n      jumpi\n      tag_66\n      tag_64\n      jump\t// in\n    tag_66:\n    tag_65:\n      dup2\n      mstore\n      0x20\n      add\n      swap1\n      dup2\n      mstore\n      0x20\n      add\n      0x00\n      keccak256\n      sload\n        /* \"contracts/subscriptionsystem.sol\":959:966  _amount */\n      dup2\n        /* \"contracts/subscriptionsystem.sol\":959:998  _amount != planCosts[PlanType.Standard] */\n      eq\n      iszero\n        /* \"contracts/subscriptionsystem.sol\":959:1049  _amount != planCosts[PlanType.Standard] &&... */\n      dup1\n      iszero\n      tag_67\n      jumpi\n      pop\n        /* \"contracts/subscriptionsystem.sol\":1026:1035  planCosts */\n      0x03\n        /* \"contracts/subscriptionsystem.sol\":1026:1049  planCosts[PlanType.Pro] */\n      0x00\n        /* \"contracts/subscriptionsystem.sol\":1036:1048  PlanType.Pro */\n      0x01\n        /* \"contracts/subscriptionsystem.sol\":1026:1049  planCosts[PlanType.Pro] */\n      0x02\n      dup2\n      gt\n      iszero\n      tag_68\n      jumpi\n      tag_69\n      tag_64\n      jump\t// in\n    tag_69:\n    tag_68:\n      0x02\n      dup2\n      gt\n      iszero\n      tag_70\n      jumpi\n      tag_71\n      tag_64\n      jump\t// in\n    tag_71:\n    tag_70:\n      dup2\n      mstore\n      0x20\n      add\n      swap1\n      dup2\n      mstore\n      0x20\n      add\n      0x00\n      keccak256\n      sload\n        /* \"contracts/subscriptionsystem.sol\":1015:1022  _amount */\n      dup2\n        /* \"contracts/subscriptionsystem.sol\":1015:1049  _amount != planCosts[PlanType.Pro] */\n      eq\n      iszero\n        /* \"contracts/subscriptionsystem.sol\":959:1049  _amount != planCosts[PlanType.Standard] &&... */\n    tag_67:\n        /* \"contracts/subscriptionsystem.sol\":959:1104  _amount != planCosts[PlanType.Standard] &&... */\n      dup1\n      iszero\n      tag_72\n      jumpi\n      pop\n        /* \"contracts/subscriptionsystem.sol\":1077:1086  planCosts */\n      0x03\n        /* \"contracts/subscriptionsystem.sol\":1077:1104  planCosts[PlanType.Premium] */\n      0x00\n        /* \"contracts/subscriptionsystem.sol\":1087:1103  PlanType.Premium */\n      0x02\n        /* \"contracts/subscriptionsystem.sol\":1077:1104  planCosts[PlanType.Premium] */\n      dup1\n      dup2\n      gt\n      iszero\n      tag_73\n      jumpi\n      tag_74\n      tag_64\n      jump\t// in\n    tag_74:\n    tag_73:\n      0x02\n      dup2\n      gt\n      iszero\n      tag_75\n      jumpi\n      tag_76\n      tag_64\n      jump\t// in\n    tag_76:\n    tag_75:\n      dup2\n      mstore\n      0x20\n      add\n      swap1\n      dup2\n      mstore\n      0x20\n      add\n      0x00\n      keccak256\n      sload\n        /* \"contracts/subscriptionsystem.sol\":1066:1073  _amount */\n      dup2\n        /* \"contracts/subscriptionsystem.sol\":1066:1104  _amount != planCosts[PlanType.Premium] */\n      eq\n      iszero\n        /* \"contracts/subscriptionsystem.sol\":959:1104  _amount != planCosts[PlanType.Standard] &&... */\n    tag_72:\n        /* \"contracts/subscriptionsystem.sol\":955:1160  if (_amount != planCosts[PlanType.Standard] &&... */\n      iszero\n      tag_77\n      jumpi\n        /* \"contracts/subscriptionsystem.sol\":1121:1148  revert(\"Invalid plan cost\") */\n      mload(0x40)\n      0x08c379a000000000000000000000000000000000000000000000000000000000\n      dup2\n      mstore\n      0x04\n      add\n      tag_78\n      swap1\n      tag_79\n      jump\t// in\n    tag_78:\n      mload(0x40)\n      dup1\n      swap2\n      sub\n      swap1\n      revert\n        /* \"contracts/subscriptionsystem.sol\":955:1160  if (_amount != planCosts[PlanType.Standard] &&... */\n    tag_77:\n        /* \"contracts/subscriptionsystem.sol\":1531:1548  PlanType planType */\n      0x00\n        /* \"contracts/subscriptionsystem.sol\":1576:1585  planCosts */\n      0x03\n        /* \"contracts/subscriptionsystem.sol\":1576:1604  planCosts[PlanType.Standard] */\n      0x00\n        /* \"contracts/subscriptionsystem.sol\":1586:1603  PlanType.Standard */\n      0x00\n        /* \"contracts/subscriptionsystem.sol\":1576:1604  planCosts[PlanType.Standard] */\n      0x02\n      dup2\n      gt\n      iszero\n      tag_81\n      jumpi\n      tag_82\n      tag_64\n      jump\t// in\n    tag_82:\n    tag_81:\n      0x02\n      dup2\n      gt\n      iszero\n      tag_83\n      jumpi\n      tag_84\n      tag_64\n      jump\t// in\n    tag_84:\n    tag_83:\n      dup2\n      mstore\n      0x20\n      add\n      swap1\n      dup2\n      mstore\n      0x20\n      add\n      0x00\n      keccak256\n      sload\n        /* \"contracts/subscriptionsystem.sol\":1563:1572  msg.value */\n      callvalue\n        /* \"contracts/subscriptionsystem.sol\":1563:1604  msg.value == planCosts[PlanType.Standard] */\n      sub\n        /* \"contracts/subscriptionsystem.sol\":1559:1819  if (msg.value == planCosts[PlanType.Standard]) {... */\n      tag_85\n      jumpi\n        /* \"contracts/subscriptionsystem.sol\":1632:1649  PlanType.Standard */\n      0x00\n        /* \"contracts/subscriptionsystem.sol\":1621:1649  planType = PlanType.Standard */\n      swap1\n      pop\n        /* \"contracts/subscriptionsystem.sol\":1559:1819  if (msg.value == planCosts[PlanType.Standard]) {... */\n      jump(tag_86)\n    tag_85:\n        /* \"contracts/subscriptionsystem.sol\":1684:1693  planCosts */\n      0x03\n        /* \"contracts/subscriptionsystem.sol\":1684:1707  planCosts[PlanType.Pro] */\n      0x00\n        /* \"contracts/subscriptionsystem.sol\":1694:1706  PlanType.Pro */\n      0x01\n        /* \"contracts/subscriptionsystem.sol\":1684:1707  planCosts[PlanType.Pro] */\n      0x02\n      dup2\n      gt\n      iszero\n      tag_87\n      jumpi\n      tag_88\n      tag_64\n      jump\t// in\n    tag_88:\n    tag_87:\n      0x02\n      dup2\n      gt\n      iszero\n      tag_89\n      jumpi\n      tag_90\n      tag_64\n      jump\t// in\n    tag_90:\n    tag_89:\n      dup2\n      mstore\n      0x20\n      add\n      swap1\n      dup2\n      mstore\n      0x20\n      add\n      0x00\n      keccak256\n      sload\n        /* \"contracts/subscriptionsystem.sol\":1671:1680  msg.value */\n      callvalue\n        /* \"contracts/subscriptionsystem.sol\":1671:1707  msg.value == planCosts[PlanType.Pro] */\n      sub\n        /* \"contracts/subscriptionsystem.sol\":1667:1819  if (msg.value == planCosts[PlanType.Pro]) {... */\n      tag_91\n      jumpi\n        /* \"contracts/subscriptionsystem.sol\":1735:1747  PlanType.Pro */\n      0x01\n        /* \"contracts/subscriptionsystem.sol\":1724:1747  planType = PlanType.Pro */\n      swap1\n      pop\n        /* \"contracts/subscriptionsystem.sol\":1667:1819  if (msg.value == planCosts[PlanType.Pro]) {... */\n      jump(tag_92)\n    tag_91:\n        /* \"contracts/subscriptionsystem.sol\":1791:1807  PlanType.Premium */\n      0x02\n        /* \"contracts/subscriptionsystem.sol\":1780:1807  planType = PlanType.Premium */\n      swap1\n      pop\n        /* \"contracts/subscriptionsystem.sol\":1667:1819  if (msg.value == planCosts[PlanType.Pro]) {... */\n    tag_92:\n        /* \"contracts/subscriptionsystem.sol\":1559:1819  if (msg.value == planCosts[PlanType.Standard]) {... */\n    tag_86:\n        /* \"contracts/subscriptionsystem.sol\":1883:1884  0 */\n      0x00\n        /* \"contracts/subscriptionsystem.sol\":1835:1885  subscriptions[msg.sender].subscriber == address(0) */\n      0xffffffffffffffffffffffffffffffffffffffff\n      and\n        /* \"contracts/subscriptionsystem.sol\":1835:1848  subscriptions */\n      0x02\n        /* \"contracts/subscriptionsystem.sol\":1835:1860  subscriptions[msg.sender] */\n      0x00\n        /* \"contracts/subscriptionsystem.sol\":1849:1859  msg.sender */\n      caller\n        /* \"contracts/subscriptionsystem.sol\":1835:1860  subscriptions[msg.sender] */\n      0xffffffffffffffffffffffffffffffffffffffff\n      and\n      0xffffffffffffffffffffffffffffffffffffffff\n      and\n      dup2\n      mstore\n      0x20\n      add\n      swap1\n      dup2\n      mstore\n      0x20\n      add\n      0x00\n      keccak256\n        /* \"contracts/subscriptionsystem.sol\":1835:1871  subscriptions[msg.sender].subscriber */\n      0x00\n      add\n      0x00\n      swap1\n      sload\n      swap1\n      0x0100\n      exp\n      swap1\n      div\n      0xffffffffffffffffffffffffffffffffffffffff\n      and\n        /* \"contracts/subscriptionsystem.sol\":1835:1885  subscriptions[msg.sender].subscriber == address(0) */\n      0xffffffffffffffffffffffffffffffffffffffff\n      and\n      sub\n        /* \"contracts/subscriptionsystem.sol\":1831:2646  if (subscriptions[msg.sender].subscriber == address(0)) {... */\n      tag_93\n      jumpi\n        /* \"contracts/subscriptionsystem.sol\":1963:2218  SubscriptionInfo({... */\n      mload(0x40)\n      dup1\n      0x60\n      add\n      0x40\n      mstore\n      dup1\n        /* \"contracts/subscriptionsystem.sol\":2011:2021  msg.sender */\n      caller\n        /* \"contracts/subscriptionsystem.sol\":1963:2218  SubscriptionInfo({... */\n      0xffffffffffffffffffffffffffffffffffffffff\n      and\n      dup2\n      mstore\n      0x20\n      add\n        /* \"contracts/subscriptionsystem.sol\":2046:2146  Plan({... */\n      mload(0x40)\n      dup1\n      0x40\n      add\n      0x40\n      mstore\n      dup1\n        /* \"contracts/subscriptionsystem.sol\":2080:2089  msg.value */\n      callvalue\n        /* \"contracts/subscriptionsystem.sol\":2046:2146  Plan({... */\n      dup2\n      mstore\n      0x20\n      add\n        /* \"contracts/subscriptionsystem.sol\":2118:2126  planType */\n      dup5\n        /* \"contracts/subscriptionsystem.sol\":2046:2146  Plan({... */\n      0x02\n      dup2\n      gt\n      iszero\n      tag_94\n      jumpi\n      tag_95\n      tag_64\n      jump\t// in\n    tag_95:\n    tag_94:\n      dup2\n      mstore\n      pop\n        /* \"contracts/subscriptionsystem.sol\":1963:2218  SubscriptionInfo({... */\n      dup2\n      mstore\n      0x20\n      add\n        /* \"contracts/subscriptionsystem.sol\":2195:2202  4 weeks */\n      0x24ea00\n        /* \"contracts/subscriptionsystem.sol\":2177:2192  block.timestamp */\n      timestamp\n        /* \"contracts/subscriptionsystem.sol\":2177:2202  block.timestamp + 4 weeks */\n      tag_96\n      swap2\n      swap1\n      tag_97\n      jump\t// in\n    tag_96:\n        /* \"contracts/subscriptionsystem.sol\":1963:2218  SubscriptionInfo({... */\n      dup2\n      mstore\n      pop\n        /* \"contracts/subscriptionsystem.sol\":1935:1948  subscriptions */\n      0x02\n        /* \"contracts/subscriptionsystem.sol\":1935:1960  subscriptions[msg.sender] */\n      0x00\n        /* \"contracts/subscriptionsystem.sol\":1949:1959  msg.sender */\n      caller\n        /* \"contracts/subscriptionsystem.sol\":1935:1960  subscriptions[msg.sender] */\n      0xffffffffffffffffffffffffffffffffffffffff\n      and\n      0xffffffffffffffffffffffffffffffffffffffff\n      and\n      dup2\n      mstore\n      0x20\n      add\n      swap1\n      dup2\n      mstore\n      0x20\n      add\n      0x00\n      keccak256\n        /* \"contracts/subscriptionsystem.sol\":1935:2218  subscriptions[msg.sender] = SubscriptionInfo({... */\n      0x00\n      dup3\n      add\n      mload\n      dup2\n      0x00\n      add\n      exp(0x0100, 0x00)\n      dup2\n      sload\n      dup2\n      0xffffffffffffffffffffffffffffffffffffffff\n      mul\n      not\n      and\n      swap1\n      dup4\n      0xffffffffffffffffffffffffffffffffffffffff\n      and\n      mul\n      or\n      swap1\n      sstore\n      pop\n      0x20\n      dup3\n      add\n      mload\n      dup2\n      0x01\n      add\n      0x00\n      dup3\n      add\n      mload\n      dup2\n      0x00\n      add\n      sstore\n      0x20\n      dup3\n      add\n      mload\n      dup2\n      0x01\n      add\n      exp(0x0100, 0x00)\n      dup2\n      sload\n      dup2\n      0xff\n      mul\n      not\n      and\n      swap1\n      dup4\n      0x02\n      dup2\n      gt\n      iszero\n      tag_98\n      jumpi\n      tag_99\n      tag_64\n      jump\t// in\n    tag_99:\n    tag_98:\n      mul\n      or\n      swap1\n      sstore\n      pop\n      pop\n      pop\n      0x40\n      dup3\n      add\n      mload\n      dup2\n      0x03\n      add\n      sstore\n      swap1\n      pop\n      pop\n        /* \"contracts/subscriptionsystem.sol\":2233:2242  totalSubs */\n      0x01\n      0x00\n        /* \"contracts/subscriptionsystem.sol\":2233:2244  totalSubs++ */\n      dup2\n      sload\n      dup1\n      swap3\n      swap2\n      swap1\n      tag_100\n      swap1\n      tag_101\n      jump\t// in\n    tag_100:\n      swap2\n      swap1\n      pop\n      sstore\n      pop\n        /* \"contracts/subscriptionsystem.sol\":2284:2294  msg.sender */\n      caller\n        /* \"contracts/subscriptionsystem.sol\":2264:2305  SubscriptionCreated(msg.sender, planType) */\n      0xffffffffffffffffffffffffffffffffffffffff\n      and\n      0x2e4de4763ff296355744cea42c5fcedd2c6a9b7a89aa8890cf060ddb2d4f8d10\n        /* \"contracts/subscriptionsystem.sol\":2296:2304  planType */\n      dup3\n        /* \"contracts/subscriptionsystem.sol\":2264:2305  SubscriptionCreated(msg.sender, planType) */\n      mload(0x40)\n      tag_102\n      swap2\n      swap1\n      tag_103\n      jump\t// in\n    tag_102:\n      mload(0x40)\n      dup1\n      swap2\n      sub\n      swap1\n      log2\n        /* \"contracts/subscriptionsystem.sol\":1831:2646  if (subscriptions[msg.sender].subscriber == address(0)) {... */\n      jump(tag_104)\n    tag_93:\n        /* \"contracts/subscriptionsystem.sol\":2406:2494  Plan({... */\n      mload(0x40)\n      dup1\n      0x40\n      add\n      0x40\n      mstore\n      dup1\n        /* \"contracts/subscriptionsystem.sol\":2436:2445  msg.value */\n      callvalue\n        /* \"contracts/subscriptionsystem.sol\":2406:2494  Plan({... */\n      dup2\n      mstore\n      0x20\n      add\n        /* \"contracts/subscriptionsystem.sol\":2470:2478  planType */\n      dup3\n        /* \"contracts/subscriptionsystem.sol\":2406:2494  Plan({... */\n      0x02\n      dup2\n      gt\n      iszero\n      tag_105\n      jumpi\n      tag_106\n      tag_64\n      jump\t// in\n    tag_106:\n    tag_105:\n      dup2\n      mstore\n      pop\n        /* \"contracts/subscriptionsystem.sol\":2373:2386  subscriptions */\n      0x02\n        /* \"contracts/subscriptionsystem.sol\":2373:2398  subscriptions[msg.sender] */\n      0x00\n        /* \"contracts/subscriptionsystem.sol\":2387:2397  msg.sender */\n      caller\n        /* \"contracts/subscriptionsystem.sol\":2373:2398  subscriptions[msg.sender] */\n      0xffffffffffffffffffffffffffffffffffffffff\n      and\n      0xffffffffffffffffffffffffffffffffffffffff\n      and\n      dup2\n      mstore\n      0x20\n      add\n      swap1\n      dup2\n      mstore\n      0x20\n      add\n      0x00\n      keccak256\n        /* \"contracts/subscriptionsystem.sol\":2373:2403  subscriptions[msg.sender].plan */\n      0x01\n      add\n        /* \"contracts/subscriptionsystem.sol\":2373:2494  subscriptions[msg.sender].plan = Plan({... */\n      0x00\n      dup3\n      add\n      mload\n      dup2\n      0x00\n      add\n      sstore\n      0x20\n      dup3\n      add\n      mload\n      dup2\n      0x01\n      add\n      exp(0x0100, 0x00)\n      dup2\n      sload\n      dup2\n      0xff\n      mul\n      not\n      and\n      swap1\n      dup4\n      0x02\n      dup2\n      gt\n      iszero\n      tag_107\n      jumpi\n      tag_108\n      tag_64\n      jump\t// in\n    tag_108:\n    tag_107:\n      mul\n      or\n      swap1\n      sstore\n      pop\n      swap1\n      pop\n      pop\n        /* \"contracts/subscriptionsystem.sol\":2566:2573  4 weeks */\n      0x24ea00\n        /* \"contracts/subscriptionsystem.sol\":2548:2563  block.timestamp */\n      timestamp\n        /* \"contracts/subscriptionsystem.sol\":2548:2573  block.timestamp + 4 weeks */\n      tag_109\n      swap2\n      swap1\n      tag_97\n      jump\t// in\n    tag_109:\n        /* \"contracts/subscriptionsystem.sol\":2509:2522  subscriptions */\n      0x02\n        /* \"contracts/subscriptionsystem.sol\":2509:2534  subscriptions[msg.sender] */\n      0x00\n        /* \"contracts/subscriptionsystem.sol\":2523:2533  msg.sender */\n      caller\n        /* \"contracts/subscriptionsystem.sol\":2509:2534  subscriptions[msg.sender] */\n      0xffffffffffffffffffffffffffffffffffffffff\n      and\n      0xffffffffffffffffffffffffffffffffffffffff\n      and\n      dup2\n      mstore\n      0x20\n      add\n      swap1\n      dup2\n      mstore\n      0x20\n      add\n      0x00\n      keccak256\n        /* \"contracts/subscriptionsystem.sol\":2509:2545  subscriptions[msg.sender].expiryTime */\n      0x03\n      add\n        /* \"contracts/subscriptionsystem.sol\":2509:2573  subscriptions[msg.sender].expiryTime = block.timestamp + 4 weeks */\n      dup2\n      swap1\n      sstore\n      pop\n        /* \"contracts/subscriptionsystem.sol\":2613:2623  msg.sender */\n      caller\n        /* \"contracts/subscriptionsystem.sol\":2593:2634  SubscriptionRenewed(msg.sender, planType) */\n      0xffffffffffffffffffffffffffffffffffffffff\n      and\n      0x433732c822f1ed99a1d488372cc89e9a8e8cb5b7f572344df5811bd16d258315\n        /* \"contracts/subscriptionsystem.sol\":2625:2633  planType */\n      dup3\n        /* \"contracts/subscriptionsystem.sol\":2593:2634  SubscriptionRenewed(msg.sender, planType) */\n      mload(0x40)\n      tag_110\n      swap2\n      swap1\n      tag_103\n      jump\t// in\n    tag_110:\n      mload(0x40)\n      dup1\n      swap2\n      sub\n      swap1\n      log2\n        /* \"contracts/subscriptionsystem.sol\":1831:2646  if (subscriptions[msg.sender].subscriber == address(0)) {... */\n    tag_104:\n        /* \"contracts/subscriptionsystem.sol\":1520:2653  {... */\n      pop\n        /* \"contracts/subscriptionsystem.sol\":1445:2653  function getOrUpdateSubscription() public payable validPlanCost(msg.value) {... */\n      pop\n      jump\t// out\n        /* \"@openzeppelin/contracts/access/Ownable.sol\":1638:1723  function owner() public view virtual returns (address) {... */\n    tag_19:\n        /* \"@openzeppelin/contracts/access/Ownable.sol\":1684:1691  address */\n      0x00\n        /* \"@openzeppelin/contracts/access/Ownable.sol\":1710:1716  _owner */\n      0x00\n      0x00\n      swap1\n      sload\n      swap1\n      0x0100\n      exp\n      swap1\n      div\n      0xffffffffffffffffffffffffffffffffffffffff\n      and\n        /* \"@openzeppelin/contracts/access/Ownable.sol\":1703:1716  return _owner */\n      swap1\n      pop\n        /* \"@openzeppelin/contracts/access/Ownable.sol\":1638:1723  function owner() public view virtual returns (address) {... */\n      swap1\n      jump\t// out\n        /* \"contracts/subscriptionsystem.sol\":2661:2904  function isAddressSubscribed(address _address) public view returns (bool) {... */\n    tag_26:\n        /* \"contracts/subscriptionsystem.sol\":2729:2733  bool */\n      0x00\n        /* \"contracts/subscriptionsystem.sol\":2746:2777  SubscriptionInfo memory subInfo */\n      0x00\n        /* \"contracts/subscriptionsystem.sol\":2780:2793  subscriptions */\n      0x02\n        /* \"contracts/subscriptionsystem.sol\":2780:2803  subscriptions[_address] */\n      0x00\n        /* \"contracts/subscriptionsystem.sol\":2794:2802  _address */\n      dup5\n        /* \"contracts/subscriptionsystem.sol\":2780:2803  subscriptions[_address] */\n      0xffffffffffffffffffffffffffffffffffffffff\n      and\n      0xffffffffffffffffffffffffffffffffffffffff\n      and\n      dup2\n      mstore\n      0x20\n      add\n      swap1\n      dup2\n      mstore\n      0x20\n      add\n      0x00\n      keccak256\n        /* \"contracts/subscriptionsystem.sol\":2746:2803  SubscriptionInfo memory subInfo = subscriptions[_address] */\n      mload(0x40)\n      dup1\n      0x60\n      add\n      0x40\n      mstore\n      swap1\n      dup2\n      0x00\n      dup3\n      add\n      0x00\n      swap1\n      sload\n      swap1\n      0x0100\n      exp\n      swap1\n      div\n      0xffffffffffffffffffffffffffffffffffffffff\n      and\n      0xffffffffffffffffffffffffffffffffffffffff\n      and\n      0xffffffffffffffffffffffffffffffffffffffff\n      and\n      dup2\n      mstore\n      0x20\n      add\n      0x01\n      dup3\n      add\n      mload(0x40)\n      dup1\n      0x40\n      add\n      0x40\n      mstore\n      swap1\n      dup2\n      0x00\n      dup3\n      add\n      sload\n      dup2\n      mstore\n      0x20\n      add\n      0x01\n      dup3\n      add\n      0x00\n      swap1\n      sload\n      swap1\n      0x0100\n      exp\n      swap1\n      div\n      0xff\n      and\n      0x02\n      dup2\n      gt\n      iszero\n      tag_113\n      jumpi\n      tag_114\n      tag_64\n      jump\t// in\n    tag_114:\n    tag_113:\n      0x02\n      dup2\n      gt\n      iszero\n      tag_115\n      jumpi\n      tag_116\n      tag_64\n      jump\t// in\n    tag_116:\n    tag_115:\n      dup2\n      mstore\n      pop\n      pop\n      dup2\n      mstore\n      0x20\n      add\n      0x03\n      dup3\n      add\n      sload\n      dup2\n      mstore\n      pop\n      pop\n      swap1\n      pop\n        /* \"contracts/subscriptionsystem.sol\":2852:2853  0 */\n      0x00\n        /* \"contracts/subscriptionsystem.sol\":2822:2854  subInfo.subscriber != address(0) */\n      0xffffffffffffffffffffffffffffffffffffffff\n      and\n        /* \"contracts/subscriptionsystem.sol\":2822:2829  subInfo */\n      dup2\n        /* \"contracts/subscriptionsystem.sol\":2822:2840  subInfo.subscriber */\n      0x00\n      add\n      mload\n        /* \"contracts/subscriptionsystem.sol\":2822:2854  subInfo.subscriber != address(0) */\n      0xffffffffffffffffffffffffffffffffffffffff\n      and\n      eq\n      iszero\n        /* \"contracts/subscriptionsystem.sol\":2822:2895  subInfo.subscriber != address(0) && subInfo.expiryTime >= block.timestamp */\n      dup1\n      iszero\n      tag_117\n      jumpi\n      pop\n        /* \"contracts/subscriptionsystem.sol\":2880:2895  block.timestamp */\n      timestamp\n        /* \"contracts/subscriptionsystem.sol\":2858:2865  subInfo */\n      dup2\n        /* \"contracts/subscriptionsystem.sol\":2858:2876  subInfo.expiryTime */\n      0x40\n      add\n      mload\n        /* \"contracts/subscriptionsystem.sol\":2858:2895  subInfo.expiryTime >= block.timestamp */\n      lt\n      iszero\n        /* \"contracts/subscriptionsystem.sol\":2822:2895  subInfo.subscriber != address(0) && subInfo.expiryTime >= block.timestamp */\n    tag_117:\n        /* \"contracts/subscriptionsystem.sol\":2814:2896  return (subInfo.subscriber != address(0) && subInfo.expiryTime >= block.timestamp) */\n      swap2\n      pop\n      pop\n        /* \"contracts/subscriptionsystem.sol\":2661:2904  function isAddressSubscribed(address _address) public view returns (bool) {... */\n      swap2\n      swap1\n      pop\n      jump\t// out\n        /* \"contracts/subscriptionsystem.sol\":2912:3029  function getPlanCost(PlanType _planType) public view returns (uint256) {... */\n    tag_33:\n        /* \"contracts/subscriptionsystem.sol\":2974:2981  uint256 */\n      0x00\n        /* \"contracts/subscriptionsystem.sol\":3001:3010  planCosts */\n      0x03\n        /* \"contracts/subscriptionsystem.sol\":3001:3021  planCosts[_planType] */\n      0x00\n        /* \"contracts/subscriptionsystem.sol\":3011:3020  _planType */\n      dup4\n        /* \"contracts/subscriptionsystem.sol\":3001:3021  planCosts[_planType] */\n      0x02\n      dup2\n      gt\n      iszero\n      tag_119\n      jumpi\n      tag_120\n      tag_64\n      jump\t// in\n    tag_120:\n    tag_119:\n      0x02\n      dup2\n      gt\n      iszero\n      tag_121\n      jumpi\n      tag_122\n      tag_64\n      jump\t// in\n    tag_122:\n    tag_121:\n      dup2\n      mstore\n      0x20\n      add\n      swap1\n      dup2\n      mstore\n      0x20\n      add\n      0x00\n      keccak256\n      sload\n        /* \"contracts/subscriptionsystem.sol\":2994:3021  return planCosts[_planType] */\n      swap1\n      pop\n        /* \"contracts/subscriptionsystem.sol\":2912:3029  function getPlanCost(PlanType _planType) public view returns (uint256) {... */\n      swap2\n      swap1\n      pop\n      jump\t// out\n        /* \"contracts/subscriptionsystem.sol\":1187:1437  function subscriptionProtectedService() public view returns (string memory) {... */\n    tag_38:\n        /* \"contracts/subscriptionsystem.sol\":1248:1261  string memory */\n      0x60\n        /* \"contracts/subscriptionsystem.sol\":1278:1309  isAddressSubscribed(msg.sender) */\n      tag_124\n        /* \"contracts/subscriptionsystem.sol\":1298:1308  msg.sender */\n      caller\n        /* \"contracts/subscriptionsystem.sol\":1278:1297  isAddressSubscribed */\n      tag_26\n        /* \"contracts/subscriptionsystem.sol\":1278:1309  isAddressSubscribed(msg.sender) */\n      jump\t// in\n    tag_124:\n        /* \"contracts/subscriptionsystem.sol\":1274:1419  if (isAddressSubscribed(msg.sender)) return \"Access granted. Enjoy the service!\";... */\n      iszero\n      tag_125\n      jumpi\n        /* \"contracts/subscriptionsystem.sol\":1311:1354  return \"Access granted. Enjoy the service!\" */\n      mload(0x40)\n      dup1\n      0x60\n      add\n      0x40\n      mstore\n      dup1\n      0x22\n      dup2\n      mstore\n      0x20\n      add\n      data_308628906ab4a43ff72886ae93909c761acf61fca6e168e3c60a77799ef1ccbf\n      0x22\n      swap2\n      codecopy\n      swap1\n      pop\n      jump(tag_123)\n        /* \"contracts/subscriptionsystem.sol\":1274:1419  if (isAddressSubscribed(msg.sender)) return \"Access granted. Enjoy the service!\";... */\n    tag_125:\n        /* \"contracts/subscriptionsystem.sol\":1370:1419  return \"Please subscribe to access this service.\" */\n      mload(0x40)\n      dup1\n      0x60\n      add\n      0x40\n      mstore\n      dup1\n      0x28\n      dup2\n      mstore\n      0x20\n      add\n      data_31b9620a2fe61a23b33949397fc4c8a43bcd035cb24f68ec1ea550d90ae9c163\n      0x28\n      swap2\n      codecopy\n      swap1\n      pop\n        /* \"contracts/subscriptionsystem.sol\":1187:1437  function subscriptionProtectedService() public view returns (string memory) {... */\n    tag_123:\n      swap1\n      jump\t// out\n        /* \"contracts/subscriptionsystem.sol\":453:510  mapping(address => SubscriptionInfo) public subscriptions */\n    tag_44:\n      mstore(0x20, 0x02)\n      dup1\n      0x00\n      mstore\n      keccak256(0x00, 0x40)\n      0x00\n      swap2\n      pop\n      swap1\n      pop\n      dup1\n      0x00\n      add\n      0x00\n      swap1\n      sload\n      swap1\n      0x0100\n      exp\n      swap1\n      div\n      0xffffffffffffffffffffffffffffffffffffffff\n      and\n      swap1\n      dup1\n      0x01\n      add\n      mload(0x40)\n      dup1\n      0x40\n      add\n      0x40\n      mstore\n      swap1\n      dup2\n      0x00\n      dup3\n      add\n      sload\n      dup2\n      mstore\n      0x20\n      add\n      0x01\n      dup3\n      add\n      0x00\n      swap1\n      sload\n      swap1\n      0x0100\n      exp\n      swap1\n      div\n      0xff\n      and\n      0x02\n      dup2\n      gt\n      iszero\n      tag_127\n      jumpi\n      tag_128\n      tag_64\n      jump\t// in\n    tag_128:\n    tag_127:\n      0x02\n      dup2\n      gt\n      iszero\n      tag_129\n      jumpi\n      tag_130\n      tag_64\n      jump\t// in\n    tag_130:\n    tag_129:\n      dup2\n      mstore\n      pop\n      pop\n      swap1\n      dup1\n      0x03\n      add\n      sload\n      swap1\n      pop\n      dup4\n      jump\t// out\n        /* \"@openzeppelin/contracts/access/Ownable.sol\":2543:2758  function transferOwnership(address newOwner) public virtual onlyOwner {... */\n    tag_50:\n        /* \"@openzeppelin/contracts/access/Ownable.sol\":1531:1544  _checkOwner() */\n      tag_132\n        /* \"@openzeppelin/contracts/access/Ownable.sol\":1531:1542  _checkOwner */\n      tag_57\n        /* \"@openzeppelin/contracts/access/Ownable.sol\":1531:1544  _checkOwner() */\n      jump\t// in\n    tag_132:\n        /* \"@openzeppelin/contracts/access/Ownable.sol\":2647:2648  0 */\n      0x00\n        /* \"@openzeppelin/contracts/access/Ownable.sol\":2627:2649  newOwner == address(0) */\n      0xffffffffffffffffffffffffffffffffffffffff\n      and\n        /* \"@openzeppelin/contracts/access/Ownable.sol\":2627:2635  newOwner */\n      dup2\n        /* \"@openzeppelin/contracts/access/Ownable.sol\":2627:2649  newOwner == address(0) */\n      0xffffffffffffffffffffffffffffffffffffffff\n      and\n      sub\n        /* \"@openzeppelin/contracts/access/Ownable.sol\":2623:2714  if (newOwner == address(0)) {... */\n      tag_134\n      jumpi\n        /* \"@openzeppelin/contracts/access/Ownable.sol\":2700:2701  0 */\n      0x00\n        /* \"@openzeppelin/contracts/access/Ownable.sol\":2672:2703  OwnableInvalidOwner(address(0)) */\n      mload(0x40)\n      0x1e4fbdf700000000000000000000000000000000000000000000000000000000\n      dup2\n      mstore\n      0x04\n      add\n      tag_135\n      swap2\n      swap1\n      tag_21\n      jump\t// in\n    tag_135:\n      mload(0x40)\n      dup1\n      swap2\n      sub\n      swap1\n      revert\n        /* \"@openzeppelin/contracts/access/Ownable.sol\":2623:2714  if (newOwner == address(0)) {... */\n    tag_134:\n        /* \"@openzeppelin/contracts/access/Ownable.sol\":2723:2751  _transferOwnership(newOwner) */\n      tag_136\n        /* \"@openzeppelin/contracts/access/Ownable.sol\":2742:2750  newOwner */\n      dup2\n        /* \"@openzeppelin/contracts/access/Ownable.sol\":2723:2741  _transferOwnership */\n      tag_60\n        /* \"@openzeppelin/contracts/access/Ownable.sol\":2723:2751  _transferOwnership(newOwner) */\n      jump\t// in\n    tag_136:\n        /* \"@openzeppelin/contracts/access/Ownable.sol\":2543:2758  function transferOwnership(address newOwner) public virtual onlyOwner {... */\n      pop\n      jump\t// out\n        /* \"contracts/subscriptionsystem.sol\":422:446  uint256 public totalSubs */\n    tag_53:\n      sload(0x01)\n      dup2\n      jump\t// out\n        /* \"@openzeppelin/contracts/access/Ownable.sol\":1796:1958  function _checkOwner() internal view virtual {... */\n    tag_57:\n        /* \"@openzeppelin/contracts/access/Ownable.sol\":1866:1878  _msgSender() */\n      tag_138\n        /* \"@openzeppelin/contracts/access/Ownable.sol\":1866:1876  _msgSender */\n      tag_139\n        /* \"@openzeppelin/contracts/access/Ownable.sol\":1866:1878  _msgSender() */\n      jump\t// in\n    tag_138:\n        /* \"@openzeppelin/contracts/access/Ownable.sol\":1855:1878  owner() != _msgSender() */\n      0xffffffffffffffffffffffffffffffffffffffff\n      and\n        /* \"@openzeppelin/contracts/access/Ownable.sol\":1855:1862  owner() */\n      tag_140\n        /* \"@openzeppelin/contracts/access/Ownable.sol\":1855:1860  owner */\n      tag_19\n        /* \"@openzeppelin/contracts/access/Ownable.sol\":1855:1862  owner() */\n      jump\t// in\n    tag_140:\n        /* \"@openzeppelin/contracts/access/Ownable.sol\":1855:1878  owner() != _msgSender() */\n      0xffffffffffffffffffffffffffffffffffffffff\n      and\n      eq\n        /* \"@openzeppelin/contracts/access/Ownable.sol\":1851:1952  if (owner() != _msgSender()) {... */\n      tag_141\n      jumpi\n        /* \"@openzeppelin/contracts/access/Ownable.sol\":1928:1940  _msgSender() */\n      tag_142\n        /* \"@openzeppelin/contracts/access/Ownable.sol\":1928:1938  _msgSender */\n      tag_139\n        /* \"@openzeppelin/contracts/access/Ownable.sol\":1928:1940  _msgSender() */\n      jump\t// in\n    tag_142:\n        /* \"@openzeppelin/contracts/access/Ownable.sol\":1901:1941  OwnableUnauthorizedAccount(_msgSender()) */\n      mload(0x40)\n      0x118cdaa700000000000000000000000000000000000000000000000000000000\n      dup2\n      mstore\n      0x04\n      add\n      tag_143\n      swap2\n      swap1\n      tag_21\n      jump\t// in\n    tag_143:\n      mload(0x40)\n      dup1\n      swap2\n      sub\n      swap1\n      revert\n        /* \"@openzeppelin/contracts/access/Ownable.sol\":1851:1952  if (owner() != _msgSender()) {... */\n    tag_141:\n        /* \"@openzeppelin/contracts/access/Ownable.sol\":1796:1958  function _checkOwner() internal view virtual {... */\n      jump\t// out\n        /* \"@openzeppelin/contracts/access/Ownable.sol\":2912:3099  function _transferOwnership(address newOwner) internal virtual {... */\n    tag_60:\n        /* \"@openzeppelin/contracts/access/Ownable.sol\":2985:3001  address oldOwner */\n      0x00\n        /* \"@openzeppelin/contracts/access/Ownable.sol\":3004:3010  _owner */\n      0x00\n      0x00\n      swap1\n      sload\n      swap1\n      0x0100\n      exp\n      swap1\n      div\n      0xffffffffffffffffffffffffffffffffffffffff\n      and\n        /* \"@openzeppelin/contracts/access/Ownable.sol\":2985:3010  address oldOwner = _owner */\n      swap1\n      pop\n        /* \"@openzeppelin/contracts/access/Ownable.sol\":3029:3037  newOwner */\n      dup2\n        /* \"@openzeppelin/contracts/access/Ownable.sol\":3020:3026  _owner */\n      0x00\n      0x00\n        /* \"@openzeppelin/contracts/access/Ownable.sol\":3020:3037  _owner = newOwner */\n      0x0100\n      exp\n      dup2\n      sload\n      dup2\n      0xffffffffffffffffffffffffffffffffffffffff\n      mul\n      not\n      and\n      swap1\n      dup4\n      0xffffffffffffffffffffffffffffffffffffffff\n      and\n      mul\n      or\n      swap1\n      sstore\n      pop\n        /* \"@openzeppelin/contracts/access/Ownable.sol\":3083:3091  newOwner */\n      dup2\n        /* \"@openzeppelin/contracts/access/Ownable.sol\":3052:3092  OwnershipTransferred(oldOwner, newOwner) */\n      0xffffffffffffffffffffffffffffffffffffffff\n      and\n        /* \"@openzeppelin/contracts/access/Ownable.sol\":3073:3081  oldOwner */\n      dup2\n        /* \"@openzeppelin/contracts/access/Ownable.sol\":3052:3092  OwnershipTransferred(oldOwner, newOwner) */\n      0xffffffffffffffffffffffffffffffffffffffff\n      and\n      0x8be0079c531659141344cd1fd0a4f28419497f9722a3daafe3b4186f6b6457e0\n      mload(0x40)\n      mload(0x40)\n      dup1\n      swap2\n      sub\n      swap1\n      log3\n        /* \"@openzeppelin/contracts/access/Ownable.sol\":2975:3099  {... */\n      pop\n        /* \"@openzeppelin/contracts/access/Ownable.sol\":2912:3099  function _transferOwnership(address newOwner) internal virtual {... */\n      pop\n      jump\t// out\n        /* \"@openzeppelin/contracts/utils/Context.sol\":656:752  function _msgSender() internal view virtual returns (address) {... */\n    tag_139:\n        /* \"@openzeppelin/contracts/utils/Context.sol\":709:716  address */\n      0x00\n        /* \"@openzeppelin/contracts/utils/Context.sol\":735:745  msg.sender */\n      caller\n        /* \"@openzeppelin/contracts/utils/Context.sol\":728:745  return msg.sender */\n      swap1\n      pop\n        /* \"@openzeppelin/contracts/utils/Context.sol\":656:752  function _msgSender() internal view virtual returns (address) {... */\n      swap1\n      jump\t// out\n        /* \"#utility.yul\":7:133   */\n    tag_146:\n        /* \"#utility.yul\":44:51   */\n      0x00\n        /* \"#utility.yul\":84:126   */\n      0xffffffffffffffffffffffffffffffffffffffff\n        /* \"#utility.yul\":77:82   */\n      dup3\n        /* \"#utility.yul\":73:127   */\n      and\n        /* \"#utility.yul\":62:127   */\n      swap1\n      pop\n        /* \"#utility.yul\":7:133   */\n      swap2\n      swap1\n      pop\n      jump\t// out\n        /* \"#utility.yul\":139:235   */\n    tag_147:\n        /* \"#utility.yul\":176:183   */\n      0x00\n        /* \"#utility.yul\":205:229   */\n      tag_178\n        /* \"#utility.yul\":223:228   */\n      dup3\n        /* \"#utility.yul\":205:229   */\n      tag_146\n      jump\t// in\n    tag_178:\n        /* \"#utility.yul\":194:229   */\n      swap1\n      pop\n        /* \"#utility.yul\":139:235   */\n      swap2\n      swap1\n      pop\n      jump\t// out\n        /* \"#utility.yul\":241:359   */\n    tag_148:\n        /* \"#utility.yul\":328:352   */\n      tag_180\n        /* \"#utility.yul\":346:351   */\n      dup2\n        /* \"#utility.yul\":328:352   */\n      tag_147\n      jump\t// in\n    tag_180:\n        /* \"#utility.yul\":323:326   */\n      dup3\n        /* \"#utility.yul\":316:353   */\n      mstore\n        /* \"#utility.yul\":241:359   */\n      pop\n      pop\n      jump\t// out\n        /* \"#utility.yul\":365:587   */\n    tag_21:\n        /* \"#utility.yul\":458:462   */\n      0x00\n        /* \"#utility.yul\":496:498   */\n      0x20\n        /* \"#utility.yul\":485:494   */\n      dup3\n        /* \"#utility.yul\":481:499   */\n      add\n        /* \"#utility.yul\":473:499   */\n      swap1\n      pop\n        /* \"#utility.yul\":509:580   */\n      tag_182\n        /* \"#utility.yul\":577:578   */\n      0x00\n        /* \"#utility.yul\":566:575   */\n      dup4\n        /* \"#utility.yul\":562:579   */\n      add\n        /* \"#utility.yul\":553:559   */\n      dup5\n        /* \"#utility.yul\":509:580   */\n      tag_148\n      jump\t// in\n    tag_182:\n        /* \"#utility.yul\":365:587   */\n      swap3\n      swap2\n      pop\n      pop\n      jump\t// out\n        /* \"#utility.yul\":674:791   */\n    tag_150:\n        /* \"#utility.yul\":783:784   */\n      0x00\n        /* \"#utility.yul\":780:781   */\n      0x00\n        /* \"#utility.yul\":773:785   */\n      revert\n        /* \"#utility.yul\":920:1042   */\n    tag_152:\n        /* \"#utility.yul\":993:1017   */\n      tag_187\n        /* \"#utility.yul\":1011:1016   */\n      dup2\n        /* \"#utility.yul\":993:1017   */\n      tag_147\n      jump\t// in\n    tag_187:\n        /* \"#utility.yul\":986:991   */\n      dup2\n        /* \"#utility.yul\":983:1018   */\n      eq\n        /* \"#utility.yul\":973:1036   */\n      tag_188\n      jumpi\n        /* \"#utility.yul\":1032:1033   */\n      0x00\n        /* \"#utility.yul\":1029:1030   */\n      0x00\n        /* \"#utility.yul\":1022:1034   */\n      revert\n        /* \"#utility.yul\":973:1036   */\n    tag_188:\n        /* \"#utility.yul\":920:1042   */\n      pop\n      jump\t// out\n        /* \"#utility.yul\":1048:1187   */\n    tag_153:\n        /* \"#utility.yul\":1094:1099   */\n      0x00\n        /* \"#utility.yul\":1132:1138   */\n      dup2\n        /* \"#utility.yul\":1119:1139   */\n      calldataload\n        /* \"#utility.yul\":1110:1139   */\n      swap1\n      pop\n        /* \"#utility.yul\":1148:1181   */\n      tag_190\n        /* \"#utility.yul\":1175:1180   */\n      dup2\n        /* \"#utility.yul\":1148:1181   */\n      tag_152\n      jump\t// in\n    tag_190:\n        /* \"#utility.yul\":1048:1187   */\n      swap3\n      swap2\n      pop\n      pop\n      jump\t// out\n        /* \"#utility.yul\":1193:1522   */\n    tag_25:\n        /* \"#utility.yul\":1252:1258   */\n      0x00\n        /* \"#utility.yul\":1301:1303   */\n      0x20\n        /* \"#utility.yul\":1289:1298   */\n      dup3\n        /* \"#utility.yul\":1280:1287   */\n      dup5\n        /* \"#utility.yul\":1276:1299   */\n      sub\n        /* \"#utility.yul\":1272:1304   */\n      slt\n        /* \"#utility.yul\":1269:1388   */\n      iszero\n      tag_192\n      jumpi\n        /* \"#utility.yul\":1307:1386   */\n      tag_193\n      tag_150\n      jump\t// in\n    tag_193:\n        /* \"#utility.yul\":1269:1388   */\n    tag_192:\n        /* \"#utility.yul\":1427:1428   */\n      0x00\n        /* \"#utility.yul\":1452:1505   */\n      tag_194\n        /* \"#utility.yul\":1497:1504   */\n      dup5\n        /* \"#utility.yul\":1488:1494   */\n      dup3\n        /* \"#utility.yul\":1477:1486   */\n      dup6\n        /* \"#utility.yul\":1473:1495   */\n      add\n        /* \"#utility.yul\":1452:1505   */\n      tag_153\n      jump\t// in\n    tag_194:\n        /* \"#utility.yul\":1442:1505   */\n      swap2\n      pop\n        /* \"#utility.yul\":1398:1515   */\n      pop\n        /* \"#utility.yul\":1193:1522   */\n      swap3\n      swap2\n      pop\n      pop\n      jump\t// out\n        /* \"#utility.yul\":1528:1618   */\n    tag_154:\n        /* \"#utility.yul\":1562:1569   */\n      0x00\n        /* \"#utility.yul\":1605:1610   */\n      dup2\n        /* \"#utility.yul\":1598:1611   */\n      iszero\n        /* \"#utility.yul\":1591:1612   */\n      iszero\n        /* \"#utility.yul\":1580:1612   */\n      swap1\n      pop\n        /* \"#utility.yul\":1528:1618   */\n      swap2\n      swap1\n      pop\n      jump\t// out\n        /* \"#utility.yul\":1624:1733   */\n    tag_155:\n        /* \"#utility.yul\":1705:1726   */\n      tag_197\n        /* \"#utility.yul\":1720:1725   */\n      dup2\n        /* \"#utility.yul\":1705:1726   */\n      tag_154\n      jump\t// in\n    tag_197:\n        /* \"#utility.yul\":1700:1703   */\n      dup3\n        /* \"#utility.yul\":1693:1727   */\n      mstore\n        /* \"#utility.yul\":1624:1733   */\n      pop\n      pop\n      jump\t// out\n        /* \"#utility.yul\":1739:1949   */\n    tag_28:\n        /* \"#utility.yul\":1826:1830   */\n      0x00\n        /* \"#utility.yul\":1864:1866   */\n      0x20\n        /* \"#utility.yul\":1853:1862   */\n      dup3\n        /* \"#utility.yul\":1849:1867   */\n      add\n        /* \"#utility.yul\":1841:1867   */\n      swap1\n      pop\n        /* \"#utility.yul\":1877:1942   */\n      tag_199\n        /* \"#utility.yul\":1939:1940   */\n      0x00\n        /* \"#utility.yul\":1928:1937   */\n      dup4\n        /* \"#utility.yul\":1924:1941   */\n      add\n        /* \"#utility.yul\":1915:1921   */\n      dup5\n        /* \"#utility.yul\":1877:1942   */\n      tag_155\n      jump\t// in\n    tag_199:\n        /* \"#utility.yul\":1739:1949   */\n      swap3\n      swap2\n      pop\n      pop\n      jump\t// out\n        /* \"#utility.yul\":1955:2066   */\n    tag_156:\n        /* \"#utility.yul\":2040:2041   */\n      0x03\n        /* \"#utility.yul\":2033:2038   */\n      dup2\n        /* \"#utility.yul\":2030:2042   */\n      lt\n        /* \"#utility.yul\":2020:2060   */\n      tag_201\n      jumpi\n        /* \"#utility.yul\":2056:2057   */\n      0x00\n        /* \"#utility.yul\":2053:2054   */\n      0x00\n        /* \"#utility.yul\":2046:2058   */\n      revert\n        /* \"#utility.yul\":2020:2060   */\n    tag_201:\n        /* \"#utility.yul\":1955:2066   */\n      pop\n      jump\t// out\n        /* \"#utility.yul\":2072:2235   */\n    tag_157:\n        /* \"#utility.yul\":2130:2135   */\n      0x00\n        /* \"#utility.yul\":2168:2174   */\n      dup2\n        /* \"#utility.yul\":2155:2175   */\n      calldataload\n        /* \"#utility.yul\":2146:2175   */\n      swap1\n      pop\n        /* \"#utility.yul\":2184:2229   */\n      tag_203\n        /* \"#utility.yul\":2223:2228   */\n      dup2\n        /* \"#utility.yul\":2184:2229   */\n      tag_156\n      jump\t// in\n    tag_203:\n        /* \"#utility.yul\":2072:2235   */\n      swap3\n      swap2\n      pop\n      pop\n      jump\t// out\n        /* \"#utility.yul\":2241:2594   */\n    tag_32:\n        /* \"#utility.yul\":2312:2318   */\n      0x00\n        /* \"#utility.yul\":2361:2363   */\n      0x20\n        /* \"#utility.yul\":2349:2358   */\n      dup3\n        /* \"#utility.yul\":2340:2347   */\n      dup5\n        /* \"#utility.yul\":2336:2359   */\n      sub\n        /* \"#utility.yul\":2332:2364   */\n      slt\n        /* \"#utility.yul\":2329:2448   */\n      iszero\n      tag_205\n      jumpi\n        /* \"#utility.yul\":2367:2446   */\n      tag_206\n      tag_150\n      jump\t// in\n    tag_206:\n        /* \"#utility.yul\":2329:2448   */\n    tag_205:\n        /* \"#utility.yul\":2487:2488   */\n      0x00\n        /* \"#utility.yul\":2512:2577   */\n      tag_207\n        /* \"#utility.yul\":2569:2576   */\n      dup5\n        /* \"#utility.yul\":2560:2566   */\n      dup3\n        /* \"#utility.yul\":2549:2558   */\n      dup6\n        /* \"#utility.yul\":2545:2567   */\n      add\n        /* \"#utility.yul\":2512:2577   */\n      tag_157\n      jump\t// in\n    tag_207:\n        /* \"#utility.yul\":2502:2577   */\n      swap2\n      pop\n        /* \"#utility.yul\":2458:2587   */\n      pop\n        /* \"#utility.yul\":2241:2594   */\n      swap3\n      swap2\n      pop\n      pop\n      jump\t// out\n        /* \"#utility.yul\":2600:2677   */\n    tag_158:\n        /* \"#utility.yul\":2637:2644   */\n      0x00\n        /* \"#utility.yul\":2666:2671   */\n      dup2\n        /* \"#utility.yul\":2655:2671   */\n      swap1\n      pop\n        /* \"#utility.yul\":2600:2677   */\n      swap2\n      swap1\n      pop\n      jump\t// out\n        /* \"#utility.yul\":2683:2801   */\n    tag_159:\n        /* \"#utility.yul\":2770:2794   */\n      tag_210\n        /* \"#utility.yul\":2788:2793   */\n      dup2\n        /* \"#utility.yul\":2770:2794   */\n      tag_158\n      jump\t// in\n    tag_210:\n        /* \"#utility.yul\":2765:2768   */\n      dup3\n        /* \"#utility.yul\":2758:2795   */\n      mstore\n        /* \"#utility.yul\":2683:2801   */\n      pop\n      pop\n      jump\t// out\n        /* \"#utility.yul\":2807:3029   */\n    tag_35:\n        /* \"#utility.yul\":2900:2904   */\n      0x00\n        /* \"#utility.yul\":2938:2940   */\n      0x20\n        /* \"#utility.yul\":2927:2936   */\n      dup3\n        /* \"#utility.yul\":2923:2941   */\n      add\n        /* \"#utility.yul\":2915:2941   */\n      swap1\n      pop\n        /* \"#utility.yul\":2951:3022   */\n      tag_212\n        /* \"#utility.yul\":3019:3020   */\n      0x00\n        /* \"#utility.yul\":3008:3017   */\n      dup4\n        /* \"#utility.yul\":3004:3021   */\n      add\n        /* \"#utility.yul\":2995:3001   */\n      dup5\n        /* \"#utility.yul\":2951:3022   */\n      tag_159\n      jump\t// in\n    tag_212:\n        /* \"#utility.yul\":2807:3029   */\n      swap3\n      swap2\n      pop\n      pop\n      jump\t// out\n        /* \"#utility.yul\":3035:3134   */\n    tag_160:\n        /* \"#utility.yul\":3087:3093   */\n      0x00\n        /* \"#utility.yul\":3121:3126   */\n      dup2\n        /* \"#utility.yul\":3115:3127   */\n      mload\n        /* \"#utility.yul\":3105:3127   */\n      swap1\n      pop\n        /* \"#utility.yul\":3035:3134   */\n      swap2\n      swap1\n      pop\n      jump\t// out\n        /* \"#utility.yul\":3140:3309   */\n    tag_161:\n        /* \"#utility.yul\":3224:3235   */\n      0x00\n        /* \"#utility.yul\":3258:3264   */\n      dup3\n        /* \"#utility.yul\":3253:3256   */\n      dup3\n        /* \"#utility.yul\":3246:3265   */\n      mstore\n        /* \"#utility.yul\":3298:3302   */\n      0x20\n        /* \"#utility.yul\":3293:3296   */\n      dup3\n        /* \"#utility.yul\":3289:3303   */\n      add\n        /* \"#utility.yul\":3274:3303   */\n      swap1\n      pop\n        /* \"#utility.yul\":3140:3309   */\n      swap3\n      swap2\n      pop\n      pop\n      jump\t// out\n        /* \"#utility.yul\":3315:3454   */\n    tag_162:\n        /* \"#utility.yul\":3404:3410   */\n      dup3\n        /* \"#utility.yul\":3399:3402   */\n      dup2\n        /* \"#utility.yul\":3394:3397   */\n      dup4\n        /* \"#utility.yul\":3388:3411   */\n      mcopy\n        /* \"#utility.yul\":3445:3446   */\n      0x00\n        /* \"#utility.yul\":3436:3442   */\n      dup4\n        /* \"#utility.yul\":3431:3434   */\n      dup4\n        /* \"#utility.yul\":3427:3443   */\n      add\n        /* \"#utility.yul\":3420:3447   */\n      mstore\n        /* \"#utility.yul\":3315:3454   */\n      pop\n      pop\n      pop\n      jump\t// out\n        /* \"#utility.yul\":3460:3562   */\n    tag_163:\n        /* \"#utility.yul\":3501:3507   */\n      0x00\n        /* \"#utility.yul\":3552:3554   */\n      0x1f\n        /* \"#utility.yul\":3548:3555   */\n      not\n        /* \"#utility.yul\":3543:3545   */\n      0x1f\n        /* \"#utility.yul\":3536:3541   */\n      dup4\n        /* \"#utility.yul\":3532:3546   */\n      add\n        /* \"#utility.yul\":3528:3556   */\n      and\n        /* \"#utility.yul\":3518:3556   */\n      swap1\n      pop\n        /* \"#utility.yul\":3460:3562   */\n      swap2\n      swap1\n      pop\n      jump\t// out\n        /* \"#utility.yul\":3568:3945   */\n    tag_164:\n        /* \"#utility.yul\":3656:3659   */\n      0x00\n        /* \"#utility.yul\":3684:3723   */\n      tag_218\n        /* \"#utility.yul\":3717:3722   */\n      dup3\n        /* \"#utility.yul\":3684:3723   */\n      tag_160\n      jump\t// in\n    tag_218:\n        /* \"#utility.yul\":3739:3810   */\n      tag_219\n        /* \"#utility.yul\":3803:3809   */\n      dup2\n        /* \"#utility.yul\":3798:3801   */\n      dup6\n        /* \"#utility.yul\":3739:3810   */\n      tag_161\n      jump\t// in\n    tag_219:\n        /* \"#utility.yul\":3732:3810   */\n      swap4\n      pop\n        /* \"#utility.yul\":3819:3884   */\n      tag_220\n        /* \"#utility.yul\":3877:3883   */\n      dup2\n        /* \"#utility.yul\":3872:3875   */\n      dup6\n        /* \"#utility.yul\":3865:3869   */\n      0x20\n        /* \"#utility.yul\":3858:3863   */\n      dup7\n        /* \"#utility.yul\":3854:3870   */\n      add\n        /* \"#utility.yul\":3819:3884   */\n      tag_162\n      jump\t// in\n    tag_220:\n        /* \"#utility.yul\":3909:3938   */\n      tag_221\n        /* \"#utility.yul\":3931:3937   */\n      dup2\n        /* \"#utility.yul\":3909:3938   */\n      tag_163\n      jump\t// in\n    tag_221:\n        /* \"#utility.yul\":3904:3907   */\n      dup5\n        /* \"#utility.yul\":3900:3939   */\n      add\n        /* \"#utility.yul\":3893:3939   */\n      swap2\n      pop\n        /* \"#utility.yul\":3660:3945   */\n      pop\n        /* \"#utility.yul\":3568:3945   */\n      swap3\n      swap2\n      pop\n      pop\n      jump\t// out\n        /* \"#utility.yul\":3951:4264   */\n    tag_40:\n        /* \"#utility.yul\":4064:4068   */\n      0x00\n        /* \"#utility.yul\":4102:4104   */\n      0x20\n        /* \"#utility.yul\":4091:4100   */\n      dup3\n        /* \"#utility.yul\":4087:4105   */\n      add\n        /* \"#utility.yul\":4079:4105   */\n      swap1\n      pop\n        /* \"#utility.yul\":4151:4160   */\n      dup2\n        /* \"#utility.yul\":4145:4149   */\n      dup2\n        /* \"#utility.yul\":4141:4161   */\n      sub\n        /* \"#utility.yul\":4137:4138   */\n      0x00\n        /* \"#utility.yul\":4126:4135   */\n      dup4\n        /* \"#utility.yul\":4122:4139   */\n      add\n        /* \"#utility.yul\":4115:4162   */\n      mstore\n        /* \"#utility.yul\":4179:4257   */\n      tag_223\n        /* \"#utility.yul\":4252:4256   */\n      dup2\n        /* \"#utility.yul\":4243:4249   */\n      dup5\n        /* \"#utility.yul\":4179:4257   */\n      tag_164\n      jump\t// in\n    tag_223:\n        /* \"#utility.yul\":4171:4257   */\n      swap1\n      pop\n        /* \"#utility.yul\":3951:4264   */\n      swap3\n      swap2\n      pop\n      pop\n      jump\t// out\n        /* \"#utility.yul\":4270:4378   */\n    tag_165:\n        /* \"#utility.yul\":4347:4371   */\n      tag_225\n        /* \"#utility.yul\":4365:4370   */\n      dup2\n        /* \"#utility.yul\":4347:4371   */\n      tag_158\n      jump\t// in\n    tag_225:\n        /* \"#utility.yul\":4342:4345   */\n      dup3\n        /* \"#utility.yul\":4335:4372   */\n      mstore\n        /* \"#utility.yul\":4270:4378   */\n      pop\n      pop\n      jump\t// out\n        /* \"#utility.yul\":4384:4564   */\n    tag_64:\n        /* \"#utility.yul\":4432:4509   */\n      0x4e487b7100000000000000000000000000000000000000000000000000000000\n        /* \"#utility.yul\":4429:4430   */\n      0x00\n        /* \"#utility.yul\":4422:4510   */\n      mstore\n        /* \"#utility.yul\":4529:4533   */\n      0x21\n        /* \"#utility.yul\":4526:4527   */\n      0x04\n        /* \"#utility.yul\":4519:4534   */\n      mstore\n        /* \"#utility.yul\":4553:4557   */\n      0x24\n        /* \"#utility.yul\":4550:4551   */\n      0x00\n        /* \"#utility.yul\":4543:4558   */\n      revert\n        /* \"#utility.yul\":4570:4687   */\n    tag_166:\n        /* \"#utility.yul\":4655:4656   */\n      0x03\n        /* \"#utility.yul\":4648:4653   */\n      dup2\n        /* \"#utility.yul\":4645:4657   */\n      lt\n        /* \"#utility.yul\":4635:4681   */\n      tag_228\n      jumpi\n        /* \"#utility.yul\":4661:4679   */\n      tag_229\n      tag_64\n      jump\t// in\n    tag_229:\n        /* \"#utility.yul\":4635:4681   */\n    tag_228:\n        /* \"#utility.yul\":4570:4687   */\n      pop\n      jump\t// out\n        /* \"#utility.yul\":4693:4828   */\n    tag_167:\n        /* \"#utility.yul\":4742:4749   */\n      0x00\n        /* \"#utility.yul\":4771:4776   */\n      dup2\n        /* \"#utility.yul\":4760:4776   */\n      swap1\n      pop\n        /* \"#utility.yul\":4777:4822   */\n      tag_231\n        /* \"#utility.yul\":4816:4821   */\n      dup3\n        /* \"#utility.yul\":4777:4822   */\n      tag_166\n      jump\t// in\n    tag_231:\n        /* \"#utility.yul\":4693:4828   */\n      swap2\n      swap1\n      pop\n      jump\t// out\n        /* \"#utility.yul\":4834:4969   */\n    tag_168:\n        /* \"#utility.yul\":4894:4903   */\n      0x00\n        /* \"#utility.yul\":4927:4963   */\n      tag_233\n        /* \"#utility.yul\":4957:4962   */\n      dup3\n        /* \"#utility.yul\":4927:4963   */\n      tag_167\n      jump\t// in\n    tag_233:\n        /* \"#utility.yul\":4914:4963   */\n      swap1\n      pop\n        /* \"#utility.yul\":4834:4969   */\n      swap2\n      swap1\n      pop\n      jump\t// out\n        /* \"#utility.yul\":4975:5116   */\n    tag_169:\n        /* \"#utility.yul\":5062:5109   */\n      tag_235\n        /* \"#utility.yul\":5103:5108   */\n      dup2\n        /* \"#utility.yul\":5062:5109   */\n      tag_168\n      jump\t// in\n    tag_235:\n        /* \"#utility.yul\":5057:5060   */\n      dup3\n        /* \"#utility.yul\":5050:5110   */\n      mstore\n        /* \"#utility.yul\":4975:5116   */\n      pop\n      pop\n      jump\t// out\n        /* \"#utility.yul\":5198:5707   */\n    tag_170:\n        /* \"#utility.yul\":5337:5341   */\n      0x40\n        /* \"#utility.yul\":5332:5335   */\n      dup3\n        /* \"#utility.yul\":5328:5342   */\n      add\n        /* \"#utility.yul\":5424:5428   */\n      0x00\n        /* \"#utility.yul\":5417:5422   */\n      dup3\n        /* \"#utility.yul\":5413:5429   */\n      add\n        /* \"#utility.yul\":5407:5430   */\n      mload\n        /* \"#utility.yul\":5443:5506   */\n      tag_237\n        /* \"#utility.yul\":5500:5504   */\n      0x00\n        /* \"#utility.yul\":5495:5498   */\n      dup6\n        /* \"#utility.yul\":5491:5505   */\n      add\n        /* \"#utility.yul\":5477:5489   */\n      dup3\n        /* \"#utility.yul\":5443:5506   */\n      tag_165\n      jump\t// in\n    tag_237:\n        /* \"#utility.yul\":5352:5516   */\n      pop\n        /* \"#utility.yul\":5598:5602   */\n      0x20\n        /* \"#utility.yul\":5591:5596   */\n      dup3\n        /* \"#utility.yul\":5587:5603   */\n      add\n        /* \"#utility.yul\":5581:5604   */\n      mload\n        /* \"#utility.yul\":5617:5690   */\n      tag_238\n        /* \"#utility.yul\":5684:5688   */\n      0x20\n        /* \"#utility.yul\":5679:5682   */\n      dup6\n        /* \"#utility.yul\":5675:5689   */\n      add\n        /* \"#utility.yul\":5661:5673   */\n      dup3\n        /* \"#utility.yul\":5617:5690   */\n      tag_169\n      jump\t// in\n    tag_238:\n        /* \"#utility.yul\":5526:5700   */\n      pop\n        /* \"#utility.yul\":5306:5707   */\n      pop\n        /* \"#utility.yul\":5198:5707   */\n      pop\n      pop\n      jump\t// out\n        /* \"#utility.yul\":5713:6240   */\n    tag_46:\n        /* \"#utility.yul\":5904:5908   */\n      0x00\n        /* \"#utility.yul\":5942:5945   */\n      0x80\n        /* \"#utility.yul\":5931:5940   */\n      dup3\n        /* \"#utility.yul\":5927:5946   */\n      add\n        /* \"#utility.yul\":5919:5946   */\n      swap1\n      pop\n        /* \"#utility.yul\":5956:6027   */\n      tag_240\n        /* \"#utility.yul\":6024:6025   */\n      0x00\n        /* \"#utility.yul\":6013:6022   */\n      dup4\n        /* \"#utility.yul\":6009:6026   */\n      add\n        /* \"#utility.yul\":6000:6006   */\n      dup7\n        /* \"#utility.yul\":5956:6027   */\n      tag_148\n      jump\t// in\n    tag_240:\n        /* \"#utility.yul\":6037:6151   */\n      tag_241\n        /* \"#utility.yul\":6147:6149   */\n      0x20\n        /* \"#utility.yul\":6136:6145   */\n      dup4\n        /* \"#utility.yul\":6132:6150   */\n      add\n        /* \"#utility.yul\":6123:6129   */\n      dup6\n        /* \"#utility.yul\":6037:6151   */\n      tag_170\n      jump\t// in\n    tag_241:\n        /* \"#utility.yul\":6161:6233   */\n      tag_242\n        /* \"#utility.yul\":6229:6231   */\n      0x60\n        /* \"#utility.yul\":6218:6227   */\n      dup4\n        /* \"#utility.yul\":6214:6232   */\n      add\n        /* \"#utility.yul\":6205:6211   */\n      dup5\n        /* \"#utility.yul\":6161:6233   */\n      tag_159\n      jump\t// in\n    tag_242:\n        /* \"#utility.yul\":5713:6240   */\n      swap5\n      swap4\n      pop\n      pop\n      pop\n      pop\n      jump\t// out\n        /* \"#utility.yul\":6246:6413   */\n    tag_171:\n        /* \"#utility.yul\":6386:6405   */\n      0x496e76616c696420706c616e20636f7374000000000000000000000000000000\n        /* \"#utility.yul\":6382:6383   */\n      0x00\n        /* \"#utility.yul\":6374:6380   */\n      dup3\n        /* \"#utility.yul\":6370:6384   */\n      add\n        /* \"#utility.yul\":6363:6406   */\n      mstore\n        /* \"#utility.yul\":6246:6413   */\n      pop\n      jump\t// out\n        /* \"#utility.yul\":6419:6785   */\n    tag_172:\n        /* \"#utility.yul\":6561:6564   */\n      0x00\n        /* \"#utility.yul\":6582:6649   */\n      tag_245\n        /* \"#utility.yul\":6646:6648   */\n      0x11\n        /* \"#utility.yul\":6641:6644   */\n      dup4\n        /* \"#utility.yul\":6582:6649   */\n      tag_161\n      jump\t// in\n    tag_245:\n        /* \"#utility.yul\":6575:6649   */\n      swap2\n      pop\n        /* \"#utility.yul\":6658:6751   */\n      tag_246\n        /* \"#utility.yul\":6747:6750   */\n      dup3\n        /* \"#utility.yul\":6658:6751   */\n      tag_171\n      jump\t// in\n    tag_246:\n        /* \"#utility.yul\":6776:6778   */\n      0x20\n        /* \"#utility.yul\":6771:6774   */\n      dup3\n        /* \"#utility.yul\":6767:6779   */\n      add\n        /* \"#utility.yul\":6760:6779   */\n      swap1\n      pop\n        /* \"#utility.yul\":6419:6785   */\n      swap2\n      swap1\n      pop\n      jump\t// out\n        /* \"#utility.yul\":6791:7210   */\n    tag_79:\n        /* \"#utility.yul\":6957:6961   */\n      0x00\n        /* \"#utility.yul\":6995:6997   */\n      0x20\n        /* \"#utility.yul\":6984:6993   */\n      dup3\n        /* \"#utility.yul\":6980:6998   */\n      add\n        /* \"#utility.yul\":6972:6998   */\n      swap1\n      pop\n        /* \"#utility.yul\":7044:7053   */\n      dup2\n        /* \"#utility.yul\":7038:7042   */\n      dup2\n        /* \"#utility.yul\":7034:7054   */\n      sub\n        /* \"#utility.yul\":7030:7031   */\n      0x00\n        /* \"#utility.yul\":7019:7028   */\n      dup4\n        /* \"#utility.yul\":7015:7032   */\n      add\n        /* \"#utility.yul\":7008:7055   */\n      mstore\n        /* \"#utility.yul\":7072:7203   */\n      tag_248\n        /* \"#utility.yul\":7198:7202   */\n      dup2\n        /* \"#utility.yul\":7072:7203   */\n      tag_172\n      jump\t// in\n    tag_248:\n        /* \"#utility.yul\":7064:7203   */\n      swap1\n      pop\n        /* \"#utility.yul\":6791:7210   */\n      swap2\n      swap1\n      pop\n      jump\t// out\n        /* \"#utility.yul\":7216:7396   */\n    tag_173:\n        /* \"#utility.yul\":7264:7341   */\n      0x4e487b7100000000000000000000000000000000000000000000000000000000\n        /* \"#utility.yul\":7261:7262   */\n      0x00\n        /* \"#utility.yul\":7254:7342   */\n      mstore\n        /* \"#utility.yul\":7361:7365   */\n      0x11\n        /* \"#utility.yul\":7358:7359   */\n      0x04\n        /* \"#utility.yul\":7351:7366   */\n      mstore\n        /* \"#utility.yul\":7385:7389   */\n      0x24\n        /* \"#utility.yul\":7382:7383   */\n      0x00\n        /* \"#utility.yul\":7375:7390   */\n      revert\n        /* \"#utility.yul\":7402:7593   */\n    tag_97:\n        /* \"#utility.yul\":7442:7445   */\n      0x00\n        /* \"#utility.yul\":7461:7481   */\n      tag_251\n        /* \"#utility.yul\":7479:7480   */\n      dup3\n        /* \"#utility.yul\":7461:7481   */\n      tag_158\n      jump\t// in\n    tag_251:\n        /* \"#utility.yul\":7456:7481   */\n      swap2\n      pop\n        /* \"#utility.yul\":7495:7515   */\n      tag_252\n        /* \"#utility.yul\":7513:7514   */\n      dup4\n        /* \"#utility.yul\":7495:7515   */\n      tag_158\n      jump\t// in\n    tag_252:\n        /* \"#utility.yul\":7490:7515   */\n      swap3\n      pop\n        /* \"#utility.yul\":7538:7539   */\n      dup3\n        /* \"#utility.yul\":7535:7536   */\n      dup3\n        /* \"#utility.yul\":7531:7540   */\n      add\n        /* \"#utility.yul\":7524:7540   */\n      swap1\n      pop\n        /* \"#utility.yul\":7559:7562   */\n      dup1\n        /* \"#utility.yul\":7556:7557   */\n      dup3\n        /* \"#utility.yul\":7553:7563   */\n      gt\n        /* \"#utility.yul\":7550:7586   */\n      iszero\n      tag_253\n      jumpi\n        /* \"#utility.yul\":7566:7584   */\n      tag_254\n      tag_173\n      jump\t// in\n    tag_254:\n        /* \"#utility.yul\":7550:7586   */\n    tag_253:\n        /* \"#utility.yul\":7402:7593   */\n      swap3\n      swap2\n      pop\n      pop\n      jump\t// out\n        /* \"#utility.yul\":7599:7832   */\n    tag_101:\n        /* \"#utility.yul\":7638:7641   */\n      0x00\n        /* \"#utility.yul\":7661:7685   */\n      tag_256\n        /* \"#utility.yul\":7679:7684   */\n      dup3\n        /* \"#utility.yul\":7661:7685   */\n      tag_158\n      jump\t// in\n    tag_256:\n        /* \"#utility.yul\":7652:7685   */\n      swap2\n      pop\n        /* \"#utility.yul\":7707:7773   */\n      0xffffffffffffffffffffffffffffffffffffffffffffffffffffffffffffffff\n        /* \"#utility.yul\":7700:7705   */\n      dup3\n        /* \"#utility.yul\":7697:7774   */\n      sub\n        /* \"#utility.yul\":7694:7797   */\n      tag_257\n      jumpi\n        /* \"#utility.yul\":7777:7795   */\n      tag_258\n      tag_173\n      jump\t// in\n    tag_258:\n        /* \"#utility.yul\":7694:7797   */\n    tag_257:\n        /* \"#utility.yul\":7824:7825   */\n      0x01\n        /* \"#utility.yul\":7817:7822   */\n      dup3\n        /* \"#utility.yul\":7813:7826   */\n      add\n        /* \"#utility.yul\":7806:7826   */\n      swap1\n      pop\n        /* \"#utility.yul\":7599:7832   */\n      swap2\n      swap1\n      pop\n      jump\t// out\n        /* \"#utility.yul\":7838:7989   */\n    tag_174:\n        /* \"#utility.yul\":7935:7982   */\n      tag_260\n        /* \"#utility.yul\":7976:7981   */\n      dup2\n        /* \"#utility.yul\":7935:7982   */\n      tag_168\n      jump\t// in\n    tag_260:\n        /* \"#utility.yul\":7930:7933   */\n      dup3\n        /* \"#utility.yul\":7923:7983   */\n      mstore\n        /* \"#utility.yul\":7838:7989   */\n      pop\n      pop\n      jump\t// out\n        /* \"#utility.yul\":7995:8237   */\n    tag_103:\n        /* \"#utility.yul\":8098:8102   */\n      0x00\n        /* \"#utility.yul\":8136:8138   */\n      0x20\n        /* \"#utility.yul\":8125:8134   */\n      dup3\n        /* \"#utility.yul\":8121:8139   */\n      add\n        /* \"#utility.yul\":8113:8139   */\n      swap1\n      pop\n        /* \"#utility.yul\":8149:8230   */\n      tag_262\n        /* \"#utility.yul\":8227:8228   */\n      0x00\n        /* \"#utility.yul\":8216:8225   */\n      dup4\n        /* \"#utility.yul\":8212:8229   */\n      add\n        /* \"#utility.yul\":8203:8209   */\n      dup5\n        /* \"#utility.yul\":8149:8230   */\n      tag_174\n      jump\t// in\n    tag_262:\n        /* \"#utility.yul\":7995:8237   */\n      swap3\n      swap2\n      pop\n      pop\n      jump\t// out\n    stop\n    data_308628906ab4a43ff72886ae93909c761acf61fca6e168e3c60a77799ef1ccbf 416363657373206772616e7465642e20456e6a6f7920746865207365727669636521\n    data_31b9620a2fe61a23b33949397fc4c8a43bcd035cb24f68ec1ea550d90ae9c163 506c656173652073756273637269626520746f20616363657373207468697320736572766963652e\n\n    auxdata: 0xa26469706673582212204006043128c74bb5d0b8e5dc5de50ebf2fa8c794d1fc5aea1eab89c20dc20ea364736f6c63430008220033\n}\n",
				"bytecode": {
					"linkReferences": {},
					"object": "608060405234801561000f575f5ffd5b50335f73ffffffffffffffffffffffffffffffffffffffff168173ffffffffffffffffffffffffffffffffffffffff1603610081575f6040517f1e4fbdf7000000000000000000000000000000000000000000000000000000008152600401610078919061025d565b60405180910390fd5b6100908161015d60201b60201c565b50670de0b6b3a764000060035f5f60028111156100b0576100af610276565b5b60028111156100c2576100c1610276565b5b81526020019081526020015f2081905550674563918244f4000060035f600160028111156100f3576100f2610276565b5b600281111561010557610104610276565b5b81526020019081526020015f2081905550678ac7230489e8000060035f60028081111561013557610134610276565b5b600281111561014757610146610276565b5b81526020019081526020015f20819055506102a3565b5f5f5f9054906101000a900473ffffffffffffffffffffffffffffffffffffffff169050815f5f6101000a81548173ffffffffffffffffffffffffffffffffffffffff021916908373ffffffffffffffffffffffffffffffffffffffff1602179055508173ffffffffffffffffffffffffffffffffffffffff168173ffffffffffffffffffffffffffffffffffffffff167f8be0079c531659141344cd1fd0a4f28419497f9722a3daafe3b4186f6b6457e060405160405180910390a35050565b5f73ffffffffffffffffffffffffffffffffffffffff82169050919050565b5f6102478261021e565b9050919050565b6102578161023d565b82525050565b5f6020820190506102705f83018461024e565b92915050565b7f4e487b71000000000000000000000000000000000000000000000000000000005f52602160045260245ffd5b611016806102b05f395ff3fe608060405260043610610085575f3560e01c8063c34ae78c11610058578063c34ae78c1461010f578063d538a1b01461014b578063f046395a14610175578063f2fde38b146101b3578063f5676f8f146101db57610085565b8063715018a61461008957806388607b4e1461009f5780638da5cb5b146100a957806397810097146100d3575b5f5ffd5b348015610094575f5ffd5b5061009d610205565b005b6100a7610218565b005b3480156100b4575f5ffd5b506100bd61071d565b6040516100ca9190610bc7565b60405180910390f35b3480156100de575f5ffd5b506100f960048036038101906100f49190610c0e565b610744565b6040516101069190610c53565b60405180910390f35b34801561011a575f5ffd5b5061013560048036038101906101309190610c8f565b610890565b6040516101429190610cd2565b60405180910390f35b348015610156575f5ffd5b5061015f6108ce565b60405161016c9190610d5b565b60405180910390f35b348015610180575f5ffd5b5061019b60048036038101906101969190610c0e565b61091d565b6040516101aa93929190610e2a565b60405180910390f35b3480156101be575f5ffd5b506101d960048036038101906101d49190610c0e565b6109af565b005b3480156101e6575f5ffd5b506101ef610a33565b6040516101fc9190610cd2565b60405180910390f35b61020d610a39565b6102165f610ac0565b565b3460035f5f600281111561022f5761022e610d8a565b5b600281111561024157610240610d8a565b5b81526020019081526020015f20548114158015610294575060035f600160028111156102705761026f610d8a565b5b600281111561028257610281610d8a565b5b81526020019081526020015f20548114155b80156102d5575060035f6002808111156102b1576102b0610d8a565b5b60028111156102c3576102c2610d8a565b5b81526020019081526020015f20548114155b15610315576040517f08c379a000000000000000000000000000000000000000000000000000000000815260040161030c90610ea9565b60405180910390fd5b5f60035f5f600281111561032c5761032b610d8a565b5b600281111561033e5761033d610d8a565b5b81526020019081526020015f2054340361035a575f90506103a6565b60035f6001600281111561037157610370610d8a565b5b600281111561038357610382610d8a565b5b81526020019081526020015f205434036103a057600190506103a5565b600290505b5b5f73ffffffffffffffffffffffffffffffffffffffff1660025f3373ffffffffffffffffffffffffffffffffffffffff1673ffffffffffffffffffffffffffffffffffffffff1681526020019081526020015f205f015f9054906101000a900473ffffffffffffffffffffffffffffffffffffffff1673ffffffffffffffffffffffffffffffffffffffff16036105d65760405180606001604052803373ffffffffffffffffffffffffffffffffffffffff168152602001604051806040016040528034815260200184600281111561048257610481610d8a565b5b81525081526020016224ea00426104999190610ef4565b81525060025f3373ffffffffffffffffffffffffffffffffffffffff1673ffffffffffffffffffffffffffffffffffffffff1681526020019081526020015f205f820151815f015f6101000a81548173ffffffffffffffffffffffffffffffffffffffff021916908373ffffffffffffffffffffffffffffffffffffffff1602179055506020820151816001015f820151815f01556020820151816001015f6101000a81548160ff0219169083600281111561055857610557610d8a565b5b021790555050506040820151816003015590505060015f81548092919061057e90610f27565b91905055503373ffffffffffffffffffffffffffffffffffffffff167f2e4de4763ff296355744cea42c5fcedd2c6a9b7a89aa8890cf060ddb2d4f8d10826040516105c99190610f7d565b60405180910390a2610719565b60405180604001604052803481526020018260028111156105fa576105f9610d8a565b5b81525060025f3373ffffffffffffffffffffffffffffffffffffffff1673ffffffffffffffffffffffffffffffffffffffff1681526020019081526020015f206001015f820151815f01556020820151816001015f6101000a81548160ff0219169083600281111561066f5761066e610d8a565b5b02179055509050506224ea00426106869190610ef4565b60025f3373ffffffffffffffffffffffffffffffffffffffff1673ffffffffffffffffffffffffffffffffffffffff1681526020019081526020015f20600301819055503373ffffffffffffffffffffffffffffffffffffffff167f433732c822f1ed99a1d488372cc89e9a8e8cb5b7f572344df5811bd16d258315826040516107109190610f7d565b60405180910390a25b5050565b5f5f5f9054906101000a900473ffffffffffffffffffffffffffffffffffffffff16905090565b5f5f60025f8473ffffffffffffffffffffffffffffffffffffffff1673ffffffffffffffffffffffffffffffffffffffff1681526020019081526020015f206040518060600160405290815f82015f9054906101000a900473ffffffffffffffffffffffffffffffffffffffff1673ffffffffffffffffffffffffffffffffffffffff1673ffffffffffffffffffffffffffffffffffffffff168152602001600182016040518060400160405290815f8201548152602001600182015f9054906101000a900460ff16600281111561081f5761081e610d8a565b5b600281111561083157610830610d8a565b5b81525050815260200160038201548152505090505f73ffffffffffffffffffffffffffffffffffffffff16815f015173ffffffffffffffffffffffffffffffffffffffff1614158015610888575042816040015110155b915050919050565b5f60035f8360028111156108a7576108a6610d8a565b5b60028111156108b9576108b8610d8a565b5b81526020019081526020015f20549050919050565b60606108d933610744565b156108fe57604051806060016040528060228152602001610f9760229139905061091a565b604051806060016040528060288152602001610fb96028913990505b90565b6002602052805f5260405f205f91509050805f015f9054906101000a900473ffffffffffffffffffffffffffffffffffffffff1690806001016040518060400160405290815f8201548152602001600182015f9054906101000a900460ff16600281111561098e5761098d610d8a565b5b60028111156109a05761099f610d8a565b5b81525050908060030154905083565b6109b7610a39565b5f73ffffffffffffffffffffffffffffffffffffffff168173ffffffffffffffffffffffffffffffffffffffff1603610a27575f6040517f1e4fbdf7000000000000000000000000000000000000000000000000000000008152600401610a1e9190610bc7565b60405180910390fd5b610a3081610ac0565b50565b60015481565b610a41610b81565b73ffffffffffffffffffffffffffffffffffffffff16610a5f61071d565b73ffffffffffffffffffffffffffffffffffffffff1614610abe57610a82610b81565b6040517f118cdaa7000000000000000000000000000000000000000000000000000000008152600401610ab59190610bc7565b60405180910390fd5b565b5f5f5f9054906101000a900473ffffffffffffffffffffffffffffffffffffffff169050815f5f6101000a81548173ffffffffffffffffffffffffffffffffffffffff021916908373ffffffffffffffffffffffffffffffffffffffff1602179055508173ffffffffffffffffffffffffffffffffffffffff168173ffffffffffffffffffffffffffffffffffffffff167f8be0079c531659141344cd1fd0a4f28419497f9722a3daafe3b4186f6b6457e060405160405180910390a35050565b5f33905090565b5f73ffffffffffffffffffffffffffffffffffffffff82169050919050565b5f610bb182610b88565b9050919050565b610bc181610ba7565b82525050565b5f602082019050610bda5f830184610bb8565b92915050565b5f5ffd5b610bed81610ba7565b8114610bf7575f5ffd5b50565b5f81359050610c0881610be4565b92915050565b5f60208284031215610c2357610c22610be0565b5b5f610c3084828501610bfa565b91505092915050565b5f8115159050919050565b610c4d81610c39565b82525050565b5f602082019050610c665f830184610c44565b92915050565b60038110610c78575f5ffd5b50565b5f81359050610c8981610c6c565b92915050565b5f60208284031215610ca457610ca3610be0565b5b5f610cb184828501610c7b565b91505092915050565b5f819050919050565b610ccc81610cba565b82525050565b5f602082019050610ce55f830184610cc3565b92915050565b5f81519050919050565b5f82825260208201905092915050565b8281835e5f83830152505050565b5f601f19601f8301169050919050565b5f610d2d82610ceb565b610d378185610cf5565b9350610d47818560208601610d05565b610d5081610d13565b840191505092915050565b5f6020820190508181035f830152610d738184610d23565b905092915050565b610d8481610cba565b82525050565b7f4e487b71000000000000000000000000000000000000000000000000000000005f52602160045260245ffd5b60038110610dc857610dc7610d8a565b5b50565b5f819050610dd882610db7565b919050565b5f610de782610dcb565b9050919050565b610df781610ddd565b82525050565b604082015f820151610e115f850182610d7b565b506020820151610e246020850182610dee565b50505050565b5f608082019050610e3d5f830186610bb8565b610e4a6020830185610dfd565b610e576060830184610cc3565b949350505050565b7f496e76616c696420706c616e20636f73740000000000000000000000000000005f82015250565b5f610e93601183610cf5565b9150610e9e82610e5f565b602082019050919050565b5f6020820190508181035f830152610ec081610e87565b9050919050565b7f4e487b71000000000000000000000000000000000000000000000000000000005f52601160045260245ffd5b5f610efe82610cba565b9150610f0983610cba565b9250828201905080821115610f2157610f20610ec7565b5b92915050565b5f610f3182610cba565b91507fffffffffffffffffffffffffffffffffffffffffffffffffffffffffffffffff8203610f6357610f62610ec7565b5b600182019050919050565b610f7781610ddd565b82525050565b5f602082019050610f905f830184610f6e565b9291505056fe416363657373206772616e7465642e20456e6a6f7920746865207365727669636521506c656173652073756273637269626520746f20616363657373207468697320736572766963652ea26469706673582212204006043128c74bb5d0b8e5dc5de50ebf2fa8c794d1fc5aea1eab89c20dc20ea364736f6c63430008220033",
					"opcodes": "PUSH1 0x80 PUSH1 0x40 MSTORE CALLVALUE DUP1 ISZERO PUSH2 0xF JUMPI PUSH0 PUSH0 REVERT JUMPDEST POP CALLER PUSH0 PUSH20 0xFFFFFFFFFFFFFFFFFFFFFFFFFFFFFFFFFFFFFFFF AND DUP2 PUSH20 0xFFFFFFFFFFFFFFFFFFFFFFFFFFFFFFFFFFFFFFFF AND SUB PUSH2 0x81 JUMPI PUSH0 PUSH1 0x40 MLOAD PUSH32 0x1E4FBDF700000000000000000000000000000000000000000000000000000000 DUP2 MSTORE PUSH1 0x4 ADD PUSH2 0x78 SWAP2 SWAP1 PUSH2 0x25D JUMP JUMPDEST PUSH1 0x40 MLOAD DUP1 SWAP2 SUB SWAP1 REVERT JUMPDEST PUSH2 0x90 DUP2 PUSH2 0x15D PUSH1 0x20 SHL PUSH1 0x20 SHR JUMP JUMPDEST POP PUSH8 0xDE0B6B3A7640000 PUSH1 0x3 PUSH0 PUSH0 PUSH1 0x2 DUP2 GT ISZERO PUSH2 0xB0 JUMPI PUSH2 0xAF PUSH2 0x276 JUMP JUMPDEST JUMPDEST PUSH1 0x2 DUP2 GT ISZERO PUSH2 0xC2 JUMPI PUSH2 0xC1 PUSH2 0x276 JUMP JUMPDEST JUMPDEST DUP2 MSTORE PUSH1 0x20 ADD SWAP1 DUP2 MSTORE PUSH1 0x20 ADD PUSH0 KECCAK256 DUP2 SWAP1 SSTORE POP PUSH8 0x4563918244F40000 PUSH1 0x3 PUSH0 PUSH1 0x1 PUSH1 0x2 DUP2 GT ISZERO PUSH2 0xF3 JUMPI PUSH2 0xF2 PUSH2 0x276 JUMP JUMPDEST JUMPDEST PUSH1 0x2 DUP2 GT ISZERO PUSH2 0x105 JUMPI PUSH2 0x104 PUSH2 0x276 JUMP JUMPDEST JUMPDEST DUP2 MSTORE PUSH1 0x20 ADD SWAP1 DUP2 MSTORE PUSH1 0x20 ADD PUSH0 KECCAK256 DUP2 SWAP1 SSTORE POP PUSH8 0x8AC7230489E80000 PUSH1 0x3 PUSH0 PUSH1 0x2 DUP1 DUP2 GT ISZERO PUSH2 0x135 JUMPI PUSH2 0x134 PUSH2 0x276 JUMP JUMPDEST JUMPDEST PUSH1 0x2 DUP2 GT ISZERO PUSH2 0x147 JUMPI PUSH2 0x146 PUSH2 0x276 JUMP JUMPDEST JUMPDEST DUP2 MSTORE PUSH1 0x20 ADD SWAP1 DUP2 MSTORE PUSH1 0x20 ADD PUSH0 KECCAK256 DUP2 SWAP1 SSTORE POP PUSH2 0x2A3 JUMP JUMPDEST PUSH0 PUSH0 PUSH0 SWAP1 SLOAD SWAP1 PUSH2 0x100 EXP SWAP1 DIV PUSH20 0xFFFFFFFFFFFFFFFFFFFFFFFFFFFFFFFFFFFFFFFF AND SWAP1 POP DUP2 PUSH0 PUSH0 PUSH2 0x100 EXP DUP2 SLOAD DUP2 PUSH20 0xFFFFFFFFFFFFFFFFFFFFFFFFFFFFFFFFFFFFFFFF MUL NOT AND SWAP1 DUP4 PUSH20 0xFFFFFFFFFFFFFFFFFFFFFFFFFFFFFFFFFFFFFFFF AND MUL OR SWAP1 SSTORE POP DUP2 PUSH20 0xFFFFFFFFFFFFFFFFFFFFFFFFFFFFFFFFFFFFFFFF AND DUP2 PUSH20 0xFFFFFFFFFFFFFFFFFFFFFFFFFFFFFFFFFFFFFFFF AND PUSH32 0x8BE0079C531659141344CD1FD0A4F28419497F9722A3DAAFE3B4186F6B6457E0 PUSH1 0x40 MLOAD PUSH1 0x40 MLOAD DUP1 SWAP2 SUB SWAP1 LOG3 POP POP JUMP JUMPDEST PUSH0 PUSH20 0xFFFFFFFFFFFFFFFFFFFFFFFFFFFFFFFFFFFFFFFF DUP3 AND SWAP1 POP SWAP2 SWAP1 POP JUMP JUMPDEST PUSH0 PUSH2 0x247 DUP3 PUSH2 0x21E JUMP JUMPDEST SWAP1 POP SWAP2 SWAP1 POP JUMP JUMPDEST PUSH2 0x257 DUP2 PUSH2 0x23D JUMP JUMPDEST DUP3 MSTORE POP POP JUMP JUMPDEST PUSH0 PUSH1 0x20 DUP3 ADD SWAP1 POP PUSH2 0x270 PUSH0 DUP4 ADD DUP5 PUSH2 0x24E JUMP JUMPDEST SWAP3 SWAP2 POP POP JUMP JUMPDEST PUSH32 0x4E487B7100000000000000000000000000000000000000000000000000000000 PUSH0 MSTORE PUSH1 0x21 PUSH1 0x4 MSTORE PUSH1 0x24 PUSH0 REVERT JUMPDEST PUSH2 0x1016 DUP1 PUSH2 0x2B0 PUSH0 CODECOPY PUSH0 RETURN INVALID PUSH1 0x80 PUSH1 0x40 MSTORE PUSH1 0x4 CALLDATASIZE LT PUSH2 0x85 JUMPI PUSH0 CALLDATALOAD PUSH1 0xE0 SHR DUP1 PUSH4 0xC34AE78C GT PUSH2 0x58 JUMPI DUP1 PUSH4 0xC34AE78C EQ PUSH2 0x10F JUMPI DUP1 PUSH4 0xD538A1B0 EQ PUSH2 0x14B JUMPI DUP1 PUSH4 0xF046395A EQ PUSH2 0x175 JUMPI DUP1 PUSH4 0xF2FDE38B EQ PUSH2 0x1B3 JUMPI DUP1 PUSH4 0xF5676F8F EQ PUSH2 0x1DB JUMPI PUSH2 0x85 JUMP JUMPDEST DUP1 PUSH4 0x715018A6 EQ PUSH2 0x89 JUMPI DUP1 PUSH4 0x88607B4E EQ PUSH2 0x9F JUMPI DUP1 PUSH4 0x8DA5CB5B EQ PUSH2 0xA9 JUMPI DUP1 PUSH4 0x97810097 EQ PUSH2 0xD3 JUMPI JUMPDEST PUSH0 PUSH0 REVERT JUMPDEST CALLVALUE DUP1 ISZERO PUSH2 0x94 JUMPI PUSH0 PUSH0 REVERT JUMPDEST POP PUSH2 0x9D PUSH2 0x205 JUMP JUMPDEST STOP JUMPDEST PUSH2 0xA7 PUSH2 0x218 JUMP JUMPDEST STOP JUMPDEST CALLVALUE DUP1 ISZERO PUSH2 0xB4 JUMPI PUSH0 PUSH0 REVERT JUMPDEST POP PUSH2 0xBD PUSH2 0x71D JUMP JUMPDEST PUSH1 0x40 MLOAD PUSH2 0xCA SWAP2 SWAP1 PUSH2 0xBC7 JUMP JUMPDEST PUSH1 0x40 MLOAD DUP1 SWAP2 SUB SWAP1 RETURN JUMPDEST CALLVALUE DUP1 ISZERO PUSH2 0xDE JUMPI PUSH0 PUSH0 REVERT JUMPDEST POP PUSH2 0xF9 PUSH1 0x4 DUP1 CALLDATASIZE SUB DUP2 ADD SWAP1 PUSH2 0xF4 SWAP2 SWAP1 PUSH2 0xC0E JUMP JUMPDEST PUSH2 0x744 JUMP JUMPDEST PUSH1 0x40 MLOAD PUSH2 0x106 SWAP2 SWAP1 PUSH2 0xC53 JUMP JUMPDEST PUSH1 0x40 MLOAD DUP1 SWAP2 SUB SWAP1 RETURN JUMPDEST CALLVALUE DUP1 ISZERO PUSH2 0x11A JUMPI PUSH0 PUSH0 REVERT JUMPDEST POP PUSH2 0x135 PUSH1 0x4 DUP1 CALLDATASIZE SUB DUP2 ADD SWAP1 PUSH2 0x130 SWAP2 SWAP1 PUSH2 0xC8F JUMP JUMPDEST PUSH2 0x890 JUMP JUMPDEST PUSH1 0x40 MLOAD PUSH2 0x142 SWAP2 SWAP1 PUSH2 0xCD2 JUMP JUMPDEST PUSH1 0x40 MLOAD DUP1 SWAP2 SUB SWAP1 RETURN JUMPDEST CALLVALUE DUP1 ISZERO PUSH2 0x156 JUMPI PUSH0 PUSH0 REVERT JUMPDEST POP PUSH2 0x15F PUSH2 0x8CE JUMP JUMPDEST PUSH1 0x40 MLOAD PUSH2 0x16C SWAP2 SWAP1 PUSH2 0xD5B JUMP JUMPDEST PUSH1 0x40 MLOAD DUP1 SWAP2 SUB SWAP1 RETURN JUMPDEST CALLVALUE DUP1 ISZERO PUSH2 0x180 JUMPI PUSH0 PUSH0 REVERT JUMPDEST POP PUSH2 0x19B PUSH1 0x4 DUP1 CALLDATASIZE SUB DUP2 ADD SWAP1 PUSH2 0x196 SWAP2 SWAP1 PUSH2 0xC0E JUMP JUMPDEST PUSH2 0x91D JUMP JUMPDEST PUSH1 0x40 MLOAD PUSH2 0x1AA SWAP4 SWAP3 SWAP2 SWAP1 PUSH2 0xE2A JUMP JUMPDEST PUSH1 0x40 MLOAD DUP1 SWAP2 SUB SWAP1 RETURN JUMPDEST CALLVALUE DUP1 ISZERO PUSH2 0x1BE JUMPI PUSH0 PUSH0 REVERT JUMPDEST POP PUSH2 0x1D9 PUSH1 0x4 DUP1 CALLDATASIZE SUB DUP2 ADD SWAP1 PUSH2 0x1D4 SWAP2 SWAP1 PUSH2 0xC0E JUMP JUMPDEST PUSH2 0x9AF JUMP JUMPDEST STOP JUMPDEST CALLVALUE DUP1 ISZERO PUSH2 0x1E6 JUMPI PUSH0 PUSH0 REVERT JUMPDEST POP PUSH2 0x1EF PUSH2 0xA33 JUMP JUMPDEST PUSH1 0x40 MLOAD PUSH2 0x1FC SWAP2 SWAP1 PUSH2 0xCD2 JUMP JUMPDEST PUSH1 0x40 MLOAD DUP1 SWAP2 SUB SWAP1 RETURN JUMPDEST PUSH2 0x20D PUSH2 0xA39 JUMP JUMPDEST PUSH2 0x216 PUSH0 PUSH2 0xAC0 JUMP JUMPDEST JUMP JUMPDEST CALLVALUE PUSH1 0x3 PUSH0 PUSH0 PUSH1 0x2 DUP2 GT ISZERO PUSH2 0x22F JUMPI PUSH2 0x22E PUSH2 0xD8A JUMP JUMPDEST JUMPDEST PUSH1 0x2 DUP2 GT ISZERO PUSH2 0x241 JUMPI PUSH2 0x240 PUSH2 0xD8A JUMP JUMPDEST JUMPDEST DUP2 MSTORE PUSH1 0x20 ADD SWAP1 DUP2 MSTORE PUSH1 0x20 ADD PUSH0 KECCAK256 SLOAD DUP2 EQ ISZERO DUP1 ISZERO PUSH2 0x294 JUMPI POP PUSH1 0x3 PUSH0 PUSH1 0x1 PUSH1 0x2 DUP2 GT ISZERO PUSH2 0x270 JUMPI PUSH2 0x26F PUSH2 0xD8A JUMP JUMPDEST JUMPDEST PUSH1 0x2 DUP2 GT ISZERO PUSH2 0x282 JUMPI PUSH2 0x281 PUSH2 0xD8A JUMP JUMPDEST JUMPDEST DUP2 MSTORE PUSH1 0x20 ADD SWAP1 DUP2 MSTORE PUSH1 0x20 ADD PUSH0 KECCAK256 SLOAD DUP2 EQ ISZERO JUMPDEST DUP1 ISZERO PUSH2 0x2D5 JUMPI POP PUSH1 0x3 PUSH0 PUSH1 0x2 DUP1 DUP2 GT ISZERO PUSH2 0x2B1 JUMPI PUSH2 0x2B0 PUSH2 0xD8A JUMP JUMPDEST JUMPDEST PUSH1 0x2 DUP2 GT ISZERO PUSH2 0x2C3 JUMPI PUSH2 0x2C2 PUSH2 0xD8A JUMP JUMPDEST JUMPDEST DUP2 MSTORE PUSH1 0x20 ADD SWAP1 DUP2 MSTORE PUSH1 0x20 ADD PUSH0 KECCAK256 SLOAD DUP2 EQ ISZERO JUMPDEST ISZERO PUSH2 0x315 JUMPI PUSH1 0x40 MLOAD PUSH32 0x8C379A000000000000000000000000000000000000000000000000000000000 DUP2 MSTORE PUSH1 0x4 ADD PUSH2 0x30C SWAP1 PUSH2 0xEA9 JUMP JUMPDEST PUSH1 0x40 MLOAD DUP1 SWAP2 SUB SWAP1 REVERT JUMPDEST PUSH0 PUSH1 0x3 PUSH0 PUSH0 PUSH1 0x2 DUP2 GT ISZERO PUSH2 0x32C JUMPI PUSH2 0x32B PUSH2 0xD8A JUMP JUMPDEST JUMPDEST PUSH1 0x2 DUP2 GT ISZERO PUSH2 0x33E JUMPI PUSH2 0x33D PUSH2 0xD8A JUMP JUMPDEST JUMPDEST DUP2 MSTORE PUSH1 0x20 ADD SWAP1 DUP2 MSTORE PUSH1 0x20 ADD PUSH0 KECCAK256 SLOAD CALLVALUE SUB PUSH2 0x35A JUMPI PUSH0 SWAP1 POP PUSH2 0x3A6 JUMP JUMPDEST PUSH1 0x3 PUSH0 PUSH1 0x1 PUSH1 0x2 DUP2 GT ISZERO PUSH2 0x371 JUMPI PUSH2 0x370 PUSH2 0xD8A JUMP JUMPDEST JUMPDEST PUSH1 0x2 DUP2 GT ISZERO PUSH2 0x383 JUMPI PUSH2 0x382 PUSH2 0xD8A JUMP JUMPDEST JUMPDEST DUP2 MSTORE PUSH1 0x20 ADD SWAP1 DUP2 MSTORE PUSH1 0x20 ADD PUSH0 KECCAK256 SLOAD CALLVALUE SUB PUSH2 0x3A0 JUMPI PUSH1 0x1 SWAP1 POP PUSH2 0x3A5 JUMP JUMPDEST PUSH1 0x2 SWAP1 POP JUMPDEST JUMPDEST PUSH0 PUSH20 0xFFFFFFFFFFFFFFFFFFFFFFFFFFFFFFFFFFFFFFFF AND PUSH1 0x2 PUSH0 CALLER PUSH20 0xFFFFFFFFFFFFFFFFFFFFFFFFFFFFFFFFFFFFFFFF AND PUSH20 0xFFFFFFFFFFFFFFFFFFFFFFFFFFFFFFFFFFFFFFFF AND DUP2 MSTORE PUSH1 0x20 ADD SWAP1 DUP2 MSTORE PUSH1 0x20 ADD PUSH0 KECCAK256 PUSH0 ADD PUSH0 SWAP1 SLOAD SWAP1 PUSH2 0x100 EXP SWAP1 DIV PUSH20 0xFFFFFFFFFFFFFFFFFFFFFFFFFFFFFFFFFFFFFFFF AND PUSH20 0xFFFFFFFFFFFFFFFFFFFFFFFFFFFFFFFFFFFFFFFF AND SUB PUSH2 0x5D6 JUMPI PUSH1 0x40 MLOAD DUP1 PUSH1 0x60 ADD PUSH1 0x40 MSTORE DUP1 CALLER PUSH20 0xFFFFFFFFFFFFFFFFFFFFFFFFFFFFFFFFFFFFFFFF AND DUP2 MSTORE PUSH1 0x20 ADD PUSH1 0x40 MLOAD DUP1 PUSH1 0x40 ADD PUSH1 0x40 MSTORE DUP1 CALLVALUE DUP2 MSTORE PUSH1 0x20 ADD DUP5 PUSH1 0x2 DUP2 GT ISZERO PUSH2 0x482 JUMPI PUSH2 0x481 PUSH2 0xD8A JUMP JUMPDEST JUMPDEST DUP2 MSTORE POP DUP2 MSTORE PUSH1 0x20 ADD PUSH3 0x24EA00 TIMESTAMP PUSH2 0x499 SWAP2 SWAP1 PUSH2 0xEF4 JUMP JUMPDEST DUP2 MSTORE POP PUSH1 0x2 PUSH0 CALLER PUSH20 0xFFFFFFFFFFFFFFFFFFFFFFFFFFFFFFFFFFFFFFFF AND PUSH20 0xFFFFFFFFFFFFFFFFFFFFFFFFFFFFFFFFFFFFFFFF AND DUP2 MSTORE PUSH1 0x20 ADD SWAP1 DUP2 MSTORE PUSH1 0x20 ADD PUSH0 KECCAK256 PUSH0 DUP3 ADD MLOAD DUP2 PUSH0 ADD PUSH0 PUSH2 0x100 EXP DUP2 SLOAD DUP2 PUSH20 0xFFFFFFFFFFFFFFFFFFFFFFFFFFFFFFFFFFFFFFFF MUL NOT AND SWAP1 DUP4 PUSH20 0xFFFFFFFFFFFFFFFFFFFFFFFFFFFFFFFFFFFFFFFF AND MUL OR SWAP1 SSTORE POP PUSH1 0x20 DUP3 ADD MLOAD DUP2 PUSH1 0x1 ADD PUSH0 DUP3 ADD MLOAD DUP2 PUSH0 ADD SSTORE PUSH1 0x20 DUP3 ADD MLOAD DUP2 PUSH1 0x1 ADD PUSH0 PUSH2 0x100 EXP DUP2 SLOAD DUP2 PUSH1 0xFF MUL NOT AND SWAP1 DUP4 PUSH1 0x2 DUP2 GT ISZERO PUSH2 0x558 JUMPI PUSH2 0x557 PUSH2 0xD8A JUMP JUMPDEST JUMPDEST MUL OR SWAP1 SSTORE POP POP POP PUSH1 0x40 DUP3 ADD MLOAD DUP2 PUSH1 0x3 ADD SSTORE SWAP1 POP POP PUSH1 0x1 PUSH0 DUP2 SLOAD DUP1 SWAP3 SWAP2 SWAP1 PUSH2 0x57E SWAP1 PUSH2 0xF27 JUMP JUMPDEST SWAP2 SWAP1 POP SSTORE POP CALLER PUSH20 0xFFFFFFFFFFFFFFFFFFFFFFFFFFFFFFFFFFFFFFFF AND PUSH32 0x2E4DE4763FF296355744CEA42C5FCEDD2C6A9B7A89AA8890CF060DDB2D4F8D10 DUP3 PUSH1 0x40 MLOAD PUSH2 0x5C9 SWAP2 SWAP1 PUSH2 0xF7D JUMP JUMPDEST PUSH1 0x40 MLOAD DUP1 SWAP2 SUB SWAP1 LOG2 PUSH2 0x719 JUMP JUMPDEST PUSH1 0x40 MLOAD DUP1 PUSH1 0x40 ADD PUSH1 0x40 MSTORE DUP1 CALLVALUE DUP2 MSTORE PUSH1 0x20 ADD DUP3 PUSH1 0x2 DUP2 GT ISZERO PUSH2 0x5FA JUMPI PUSH2 0x5F9 PUSH2 0xD8A JUMP JUMPDEST JUMPDEST DUP2 MSTORE POP PUSH1 0x2 PUSH0 CALLER PUSH20 0xFFFFFFFFFFFFFFFFFFFFFFFFFFFFFFFFFFFFFFFF AND PUSH20 0xFFFFFFFFFFFFFFFFFFFFFFFFFFFFFFFFFFFFFFFF AND DUP2 MSTORE PUSH1 0x20 ADD SWAP1 DUP2 MSTORE PUSH1 0x20 ADD PUSH0 KECCAK256 PUSH1 0x1 ADD PUSH0 DUP3 ADD MLOAD DUP2 PUSH0 ADD SSTORE PUSH1 0x20 DUP3 ADD MLOAD DUP2 PUSH1 0x1 ADD PUSH0 PUSH2 0x100 EXP DUP2 SLOAD DUP2 PUSH1 0xFF MUL NOT AND SWAP1 DUP4 PUSH1 0x2 DUP2 GT ISZERO PUSH2 0x66F JUMPI PUSH2 0x66E PUSH2 0xD8A JUMP JUMPDEST JUMPDEST MUL OR SWAP1 SSTORE POP SWAP1 POP POP PUSH3 0x24EA00 TIMESTAMP PUSH2 0x686 SWAP2 SWAP1 PUSH2 0xEF4 JUMP JUMPDEST PUSH1 0x2 PUSH0 CALLER PUSH20 0xFFFFFFFFFFFFFFFFFFFFFFFFFFFFFFFFFFFFFFFF AND PUSH20 0xFFFFFFFFFFFFFFFFFFFFFFFFFFFFFFFFFFFFFFFF AND DUP2 MSTORE PUSH1 0x20 ADD SWAP1 DUP2 MSTORE PUSH1 0x20 ADD PUSH0 KECCAK256 PUSH1 0x3 ADD DUP2 SWAP1 SSTORE POP CALLER PUSH20 0xFFFFFFFFFFFFFFFFFFFFFFFFFFFFFFFFFFFFFFFF AND PUSH32 0x433732C822F1ED99A1D488372CC89E9A8E8CB5B7F572344DF5811BD16D258315 DUP3 PUSH1 0x40 MLOAD PUSH2 0x710 SWAP2 SWAP1 PUSH2 0xF7D JUMP JUMPDEST PUSH1 0x40 MLOAD DUP1 SWAP2 SUB SWAP1 LOG2 JUMPDEST POP POP JUMP JUMPDEST PUSH0 PUSH0 PUSH0 SWAP1 SLOAD SWAP1 PUSH2 0x100 EXP SWAP1 DIV PUSH20 0xFFFFFFFFFFFFFFFFFFFFFFFFFFFFFFFFFFFFFFFF AND SWAP1 POP SWAP1 JUMP JUMPDEST PUSH0 PUSH0 PUSH1 0x2 PUSH0 DUP5 PUSH20 0xFFFFFFFFFFFFFFFFFFFFFFFFFFFFFFFFFFFFFFFF AND PUSH20 0xFFFFFFFFFFFFFFFFFFFFFFFFFFFFFFFFFFFFFFFF AND DUP2 MSTORE PUSH1 0x20 ADD SWAP1 DUP2 MSTORE PUSH1 0x20 ADD PUSH0 KECCAK256 PUSH1 0x40 MLOAD DUP1 PUSH1 0x60 ADD PUSH1 0x40 MSTORE SWAP1 DUP2 PUSH0 DUP3 ADD PUSH0 SWAP1 SLOAD SWAP1 PUSH2 0x100 EXP SWAP1 DIV PUSH20 0xFFFFFFFFFFFFFFFFFFFFFFFFFFFFFFFFFFFFFFFF AND PUSH20 0xFFFFFFFFFFFFFFFFFFFFFFFFFFFFFFFFFFFFFFFF AND PUSH20 0xFFFFFFFFFFFFFFFFFFFFFFFFFFFFFFFFFFFFFFFF AND DUP2 MSTORE PUSH1 0x20 ADD PUSH1 0x1 DUP3 ADD PUSH1 0x40 MLOAD DUP1 PUSH1 0x40 ADD PUSH1 0x40 MSTORE SWAP1 DUP2 PUSH0 DUP3 ADD SLOAD DUP2 MSTORE PUSH1 0x20 ADD PUSH1 0x1 DUP3 ADD PUSH0 SWAP1 SLOAD SWAP1 PUSH2 0x100 EXP SWAP1 DIV PUSH1 0xFF AND PUSH1 0x2 DUP2 GT ISZERO PUSH2 0x81F JUMPI PUSH2 0x81E PUSH2 0xD8A JUMP JUMPDEST JUMPDEST PUSH1 0x2 DUP2 GT ISZERO PUSH2 0x831 JUMPI PUSH2 0x830 PUSH2 0xD8A JUMP JUMPDEST JUMPDEST DUP2 MSTORE POP POP DUP2 MSTORE PUSH1 0x20 ADD PUSH1 0x3 DUP3 ADD SLOAD DUP2 MSTORE POP POP SWAP1 POP PUSH0 PUSH20 0xFFFFFFFFFFFFFFFFFFFFFFFFFFFFFFFFFFFFFFFF AND DUP2 PUSH0 ADD MLOAD PUSH20 0xFFFFFFFFFFFFFFFFFFFFFFFFFFFFFFFFFFFFFFFF AND EQ ISZERO DUP1 ISZERO PUSH2 0x888 JUMPI POP TIMESTAMP DUP2 PUSH1 0x40 ADD MLOAD LT ISZERO JUMPDEST SWAP2 POP POP SWAP2 SWAP1 POP JUMP JUMPDEST PUSH0 PUSH1 0x3 PUSH0 DUP4 PUSH1 0x2 DUP2 GT ISZERO PUSH2 0x8A7 JUMPI PUSH2 0x8A6 PUSH2 0xD8A JUMP JUMPDEST JUMPDEST PUSH1 0x2 DUP2 GT ISZERO PUSH2 0x8B9 JUMPI PUSH2 0x8B8 PUSH2 0xD8A JUMP JUMPDEST JUMPDEST DUP2 MSTORE PUSH1 0x20 ADD SWAP1 DUP2 MSTORE PUSH1 0x20 ADD PUSH0 KECCAK256 SLOAD SWAP1 POP SWAP2 SWAP1 POP JUMP JUMPDEST PUSH1 0x60 PUSH2 0x8D9 CALLER PUSH2 0x744 JUMP JUMPDEST ISZERO PUSH2 0x8FE JUMPI PUSH1 0x40 MLOAD DUP1 PUSH1 0x60 ADD PUSH1 0x40 MSTORE DUP1 PUSH1 0x22 DUP2 MSTORE PUSH1 0x20 ADD PUSH2 0xF97 PUSH1 0x22 SWAP2 CODECOPY SWAP1 POP PUSH2 0x91A JUMP JUMPDEST PUSH1 0x40 MLOAD DUP1 PUSH1 0x60 ADD PUSH1 0x40 MSTORE DUP1 PUSH1 0x28 DUP2 MSTORE PUSH1 0x20 ADD PUSH2 0xFB9 PUSH1 0x28 SWAP2 CODECOPY SWAP1 POP JUMPDEST SWAP1 JUMP JUMPDEST PUSH1 0x2 PUSH1 0x20 MSTORE DUP1 PUSH0 MSTORE PUSH1 0x40 PUSH0 KECCAK256 PUSH0 SWAP2 POP SWAP1 POP DUP1 PUSH0 ADD PUSH0 SWAP1 SLOAD SWAP1 PUSH2 0x100 EXP SWAP1 DIV PUSH20 0xFFFFFFFFFFFFFFFFFFFFFFFFFFFFFFFFFFFFFFFF AND SWAP1 DUP1 PUSH1 0x1 ADD PUSH1 0x40 MLOAD DUP1 PUSH1 0x40 ADD PUSH1 0x40 MSTORE SWAP1 DUP2 PUSH0 DUP3 ADD SLOAD DUP2 MSTORE PUSH1 0x20 ADD PUSH1 0x1 DUP3 ADD PUSH0 SWAP1 SLOAD SWAP1 PUSH2 0x100 EXP SWAP1 DIV PUSH1 0xFF AND PUSH1 0x2 DUP2 GT ISZERO PUSH2 0x98E JUMPI PUSH2 0x98D PUSH2 0xD8A JUMP JUMPDEST JUMPDEST PUSH1 0x2 DUP2 GT ISZERO PUSH2 0x9A0 JUMPI PUSH2 0x99F PUSH2 0xD8A JUMP JUMPDEST JUMPDEST DUP2 MSTORE POP POP SWAP1 DUP1 PUSH1 0x3 ADD SLOAD SWAP1 POP DUP4 JUMP JUMPDEST PUSH2 0x9B7 PUSH2 0xA39 JUMP JUMPDEST PUSH0 PUSH20 0xFFFFFFFFFFFFFFFFFFFFFFFFFFFFFFFFFFFFFFFF AND DUP2 PUSH20 0xFFFFFFFFFFFFFFFFFFFFFFFFFFFFFFFFFFFFFFFF AND SUB PUSH2 0xA27 JUMPI PUSH0 PUSH1 0x40 MLOAD PUSH32 0x1E4FBDF700000000000000000000000000000000000000000000000000000000 DUP2 MSTORE PUSH1 0x4 ADD PUSH2 0xA1E SWAP2 SWAP1 PUSH2 0xBC7 JUMP JUMPDEST PUSH1 0x40 MLOAD DUP1 SWAP2 SUB SWAP1 REVERT JUMPDEST PUSH2 0xA30 DUP2 PUSH2 0xAC0 JUMP JUMPDEST POP JUMP JUMPDEST PUSH1 0x1 SLOAD DUP2 JUMP JUMPDEST PUSH2 0xA41 PUSH2 0xB81 JUMP JUMPDEST PUSH20 0xFFFFFFFFFFFFFFFFFFFFFFFFFFFFFFFFFFFFFFFF AND PUSH2 0xA5F PUSH2 0x71D JUMP JUMPDEST PUSH20 0xFFFFFFFFFFFFFFFFFFFFFFFFFFFFFFFFFFFFFFFF AND EQ PUSH2 0xABE JUMPI PUSH2 0xA82 PUSH2 0xB81 JUMP JUMPDEST PUSH1 0x40 MLOAD PUSH32 0x118CDAA700000000000000000000000000000000000000000000000000000000 DUP2 MSTORE PUSH1 0x4 ADD PUSH2 0xAB5 SWAP2 SWAP1 PUSH2 0xBC7 JUMP JUMPDEST PUSH1 0x40 MLOAD DUP1 SWAP2 SUB SWAP1 REVERT JUMPDEST JUMP JUMPDEST PUSH0 PUSH0 PUSH0 SWAP1 SLOAD SWAP1 PUSH2 0x100 EXP SWAP1 DIV PUSH20 0xFFFFFFFFFFFFFFFFFFFFFFFFFFFFFFFFFFFFFFFF AND SWAP1 POP DUP2 PUSH0 PUSH0 PUSH2 0x100 EXP DUP2 SLOAD DUP2 PUSH20 0xFFFFFFFFFFFFFFFFFFFFFFFFFFFFFFFFFFFFFFFF MUL NOT AND SWAP1 DUP4 PUSH20 0xFFFFFFFFFFFFFFFFFFFFFFFFFFFFFFFFFFFFFFFF AND MUL OR SWAP1 SSTORE POP DUP2 PUSH20 0xFFFFFFFFFFFFFFFFFFFFFFFFFFFFFFFFFFFFFFFF AND DUP2 PUSH20 0xFFFFFFFFFFFFFFFFFFFFFFFFFFFFFFFFFFFFFFFF AND PUSH32 0x8BE0079C531659141344CD1FD0A4F28419497F9722A3DAAFE3B4186F6B6457E0 PUSH1 0x40 MLOAD PUSH1 0x40 MLOAD DUP1 SWAP2 SUB SWAP1 LOG3 POP POP JUMP JUMPDEST PUSH0 CALLER SWAP1 POP SWAP1 JUMP JUMPDEST PUSH0 PUSH20 0xFFFFFFFFFFFFFFFFFFFFFFFFFFFFFFFFFFFFFFFF DUP3 AND SWAP1 POP SWAP2 SWAP1 POP JUMP JUMPDEST PUSH0 PUSH2 0xBB1 DUP3 PUSH2 0xB88 JUMP JUMPDEST SWAP1 POP SWAP2 SWAP1 POP JUMP JUMPDEST PUSH2 0xBC1 DUP2 PUSH2 0xBA7 JUMP JUMPDEST DUP3 MSTORE POP POP JUMP JUMPDEST PUSH0 PUSH1 0x20 DUP3 ADD SWAP1 POP PUSH2 0xBDA PUSH0 DUP4 ADD DUP5 PUSH2 0xBB8 JUMP JUMPDEST SWAP3 SWAP2 POP POP JUMP JUMPDEST PUSH0 PUSH0 REVERT JUMPDEST PUSH2 0xBED DUP2 PUSH2 0xBA7 JUMP JUMPDEST DUP2 EQ PUSH2 0xBF7 JUMPI PUSH0 PUSH0 REVERT JUMPDEST POP JUMP JUMPDEST PUSH0 DUP2 CALLDATALOAD SWAP1 POP PUSH2 0xC08 DUP2 PUSH2 0xBE4 JUMP JUMPDEST SWAP3 SWAP2 POP POP JUMP JUMPDEST PUSH0 PUSH1 0x20 DUP3 DUP5 SUB SLT ISZERO PUSH2 0xC23 JUMPI PUSH2 0xC22 PUSH2 0xBE0 JUMP JUMPDEST JUMPDEST PUSH0 PUSH2 0xC30 DUP5 DUP3 DUP6 ADD PUSH2 0xBFA JUMP JUMPDEST SWAP2 POP POP SWAP3 SWAP2 POP POP JUMP JUMPDEST PUSH0 DUP2 ISZERO ISZERO SWAP1 POP SWAP2 SWAP1 POP JUMP JUMPDEST PUSH2 0xC4D DUP2 PUSH2 0xC39 JUMP JUMPDEST DUP3 MSTORE POP POP JUMP JUMPDEST PUSH0 PUSH1 0x20 DUP3 ADD SWAP1 POP PUSH2 0xC66 PUSH0 DUP4 ADD DUP5 PUSH2 0xC44 JUMP JUMPDEST SWAP3 SWAP2 POP POP JUMP JUMPDEST PUSH1 0x3 DUP2 LT PUSH2 0xC78 JUMPI PUSH0 PUSH0 REVERT JUMPDEST POP JUMP JUMPDEST PUSH0 DUP2 CALLDATALOAD SWAP1 POP PUSH2 0xC89 DUP2 PUSH2 0xC6C JUMP JUMPDEST SWAP3 SWAP2 POP POP JUMP JUMPDEST PUSH0 PUSH1 0x20 DUP3 DUP5 SUB SLT ISZERO PUSH2 0xCA4 JUMPI PUSH2 0xCA3 PUSH2 0xBE0 JUMP JUMPDEST JUMPDEST PUSH0 PUSH2 0xCB1 DUP5 DUP3 DUP6 ADD PUSH2 0xC7B JUMP JUMPDEST SWAP2 POP POP SWAP3 SWAP2 POP POP JUMP JUMPDEST PUSH0 DUP2 SWAP1 POP SWAP2 SWAP1 POP JUMP JUMPDEST PUSH2 0xCCC DUP2 PUSH2 0xCBA JUMP JUMPDEST DUP3 MSTORE POP POP JUMP JUMPDEST PUSH0 PUSH1 0x20 DUP3 ADD SWAP1 POP PUSH2 0xCE5 PUSH0 DUP4 ADD DUP5 PUSH2 0xCC3 JUMP JUMPDEST SWAP3 SWAP2 POP POP JUMP JUMPDEST PUSH0 DUP2 MLOAD SWAP1 POP SWAP2 SWAP1 POP JUMP JUMPDEST PUSH0 DUP3 DUP3 MSTORE PUSH1 0x20 DUP3 ADD SWAP1 POP SWAP3 SWAP2 POP POP JUMP JUMPDEST DUP3 DUP2 DUP4 MCOPY PUSH0 DUP4 DUP4 ADD MSTORE POP POP POP JUMP JUMPDEST PUSH0 PUSH1 0x1F NOT PUSH1 0x1F DUP4 ADD AND SWAP1 POP SWAP2 SWAP1 POP JUMP JUMPDEST PUSH0 PUSH2 0xD2D DUP3 PUSH2 0xCEB JUMP JUMPDEST PUSH2 0xD37 DUP2 DUP6 PUSH2 0xCF5 JUMP JUMPDEST SWAP4 POP PUSH2 0xD47 DUP2 DUP6 PUSH1 0x20 DUP7 ADD PUSH2 0xD05 JUMP JUMPDEST PUSH2 0xD50 DUP2 PUSH2 0xD13 JUMP JUMPDEST DUP5 ADD SWAP2 POP POP SWAP3 SWAP2 POP POP JUMP JUMPDEST PUSH0 PUSH1 0x20 DUP3 ADD SWAP1 POP DUP2 DUP2 SUB PUSH0 DUP4 ADD MSTORE PUSH2 0xD73 DUP2 DUP5 PUSH2 0xD23 JUMP JUMPDEST SWAP1 POP SWAP3 SWAP2 POP POP JUMP JUMPDEST PUSH2 0xD84 DUP2 PUSH2 0xCBA JUMP JUMPDEST DUP3 MSTORE POP POP JUMP JUMPDEST PUSH32 0x4E487B7100000000000000000000000000000000000000000000000000000000 PUSH0 MSTORE PUSH1 0x21 PUSH1 0x4 MSTORE PUSH1 0x24 PUSH0 REVERT JUMPDEST PUSH1 0x3 DUP2 LT PUSH2 0xDC8 JUMPI PUSH2 0xDC7 PUSH2 0xD8A JUMP JUMPDEST JUMPDEST POP JUMP JUMPDEST PUSH0 DUP2 SWAP1 POP PUSH2 0xDD8 DUP3 PUSH2 0xDB7 JUMP JUMPDEST SWAP2 SWAP1 POP JUMP JUMPDEST PUSH0 PUSH2 0xDE7 DUP3 PUSH2 0xDCB JUMP JUMPDEST SWAP1 POP SWAP2 SWAP1 POP JUMP JUMPDEST PUSH2 0xDF7 DUP2 PUSH2 0xDDD JUMP JUMPDEST DUP3 MSTORE POP POP JUMP JUMPDEST PUSH1 0x40 DUP3 ADD PUSH0 DUP3 ADD MLOAD PUSH2 0xE11 PUSH0 DUP6 ADD DUP3 PUSH2 0xD7B JUMP JUMPDEST POP PUSH1 0x20 DUP3 ADD MLOAD PUSH2 0xE24 PUSH1 0x20 DUP6 ADD DUP3 PUSH2 0xDEE JUMP JUMPDEST POP POP POP POP JUMP JUMPDEST PUSH0 PUSH1 0x80 DUP3 ADD SWAP1 POP PUSH2 0xE3D PUSH0 DUP4 ADD DUP7 PUSH2 0xBB8 JUMP JUMPDEST PUSH2 0xE4A PUSH1 0x20 DUP4 ADD DUP6 PUSH2 0xDFD JUMP JUMPDEST PUSH2 0xE57 PUSH1 0x60 DUP4 ADD DUP5 PUSH2 0xCC3 JUMP JUMPDEST SWAP5 SWAP4 POP POP POP POP JUMP JUMPDEST PUSH32 0x496E76616C696420706C616E20636F7374000000000000000000000000000000 PUSH0 DUP3 ADD MSTORE POP JUMP JUMPDEST PUSH0 PUSH2 0xE93 PUSH1 0x11 DUP4 PUSH2 0xCF5 JUMP JUMPDEST SWAP2 POP PUSH2 0xE9E DUP3 PUSH2 0xE5F JUMP JUMPDEST PUSH1 0x20 DUP3 ADD SWAP1 POP SWAP2 SWAP1 POP JUMP JUMPDEST PUSH0 PUSH1 0x20 DUP3 ADD SWAP1 POP DUP2 DUP2 SUB PUSH0 DUP4 ADD MSTORE PUSH2 0xEC0 DUP2 PUSH2 0xE87 JUMP JUMPDEST SWAP1 POP SWAP2 SWAP1 POP JUMP JUMPDEST PUSH32 0x4E487B7100000000000000000000000000000000000000000000000000000000 PUSH0 MSTORE PUSH1 0x11 PUSH1 0x4 MSTORE PUSH1 0x24 PUSH0 REVERT JUMPDEST PUSH0 PUSH2 0xEFE DUP3 PUSH2 0xCBA JUMP JUMPDEST SWAP2 POP PUSH2 0xF09 DUP4 PUSH2 0xCBA JUMP JUMPDEST SWAP3 POP DUP3 DUP3 ADD SWAP1 POP DUP1 DUP3 GT ISZERO PUSH2 0xF21 JUMPI PUSH2 0xF20 PUSH2 0xEC7 JUMP JUMPDEST JUMPDEST SWAP3 SWAP2 POP POP JUMP JUMPDEST PUSH0 PUSH2 0xF31 DUP3 PUSH2 0xCBA JUMP JUMPDEST SWAP2 POP PUSH32 0xFFFFFFFFFFFFFFFFFFFFFFFFFFFFFFFFFFFFFFFFFFFFFFFFFFFFFFFFFFFFFFFF DUP3 SUB PUSH2 0xF63 JUMPI PUSH2 0xF62 PUSH2 0xEC7 JUMP JUMPDEST JUMPDEST PUSH1 0x1 DUP3 ADD SWAP1 POP SWAP2 SWAP1 POP JUMP JUMPDEST PUSH2 0xF77 DUP2 PUSH2 0xDDD JUMP JUMPDEST DUP3 MSTORE POP POP JUMP JUMPDEST PUSH0 PUSH1 0x20 DUP3 ADD SWAP1 POP PUSH2 0xF90 PUSH0 DUP4 ADD DUP5 PUSH2 0xF6E JUMP JUMPDEST SWAP3 SWAP2 POP POP JUMP INVALID COINBASE PUSH4 0x63657373 KECCAK256 PUSH8 0x72616E7465642E20 GASLIMIT PUSH15 0x6A6F79207468652073657276696365 0x21 POP PUSH13 0x65617365207375627363726962 PUSH6 0x20746F206163 PUSH4 0x65737320 PUSH21 0x68697320736572766963652EA26469706673582212 KECCAK256 BLOCKHASH MOD DIV BALANCE 0x28 0xC7 0x4B 0xB5 0xD0 0xB8 JUMPF 0xDC5D JUMPF 0xEBF 0x2F 0xA8 0xC7 SWAP5 DATALOADN 0xFC5A 0xEA CLZ 0xAB DUP10 0xC2 0xD 0xC2 0xE LOG3 PUSH5 0x736F6C6343 STOP ADDMOD 0x22 STOP CALLER "
				},
				"gasEstimates": {
					"creation": {
						"codeDepositCost": "823600",
						"executionCost": "infinite",
						"totalCost": "infinite"
					},
					"external": {
						"getOrUpdateSubscription()": "infinite",
						"getPlanCost(uint8)": "2779",
						"isAddressSubscribed(address)": "9586",
						"owner()": "2559",
						"renounceOwnership()": "infinite",
						"subscriptionProtectedService()": "infinite",
						"subscriptions(address)": "infinite",
						"totalSubs()": "2513",
						"transferOwnership(address)": "infinite"
					}
				},
				"methodIdentifiers": {
					"getOrUpdateSubscription()": "88607b4e",
					"getPlanCost(uint8)": "c34ae78c",
					"isAddressSubscribed(address)": "97810097",
					"owner()": "8da5cb5b",
					"renounceOwnership()": "715018a6",
					"subscriptionProtectedService()": "d538a1b0",
					"subscriptions(address)": "f046395a",
					"totalSubs()": "f5676f8f",
					"transferOwnership(address)": "f2fde38b"
				}
			},
			"storageLayout": {
				"storage": [
					{
						"astId": 8,
						"contract": "contracts/subscriptionsystem.sol:SubscriptionContract",
						"label": "_owner",
						"offset": 0,
						"slot": "0",
						"type": "t_address"
					},
					{
						"astId": 204,
						"contract": "contracts/subscriptionsystem.sol:SubscriptionContract",
						"label": "totalSubs",
						"offset": 0,
						"slot": "1",
						"type": "t_uint256"
					},
					{
						"astId": 209,
						"contract": "contracts/subscriptionsystem.sol:SubscriptionContract",
						"label": "subscriptions",
						"offset": 0,
						"slot": "2",
						"type": "t_mapping(t_address,t_struct(SubscriptionInfo)202_storage)"
					},
					{
						"astId": 214,
						"contract": "contracts/subscriptionsystem.sol:SubscriptionContract",
						"label": "planCosts",
						"offset": 0,
						"slot": "3",
						"type": "t_mapping(t_enum(PlanType)188,t_uint256)"
					}
				],
				"types": {
					"t_address": {
						"encoding": "inplace",
						"label": "address",
						"numberOfBytes": "20"
					},
					"t_enum(PlanType)188": {
						"encoding": "inplace",
						"label": "enum SubscriptionContract.PlanType",
						"numberOfBytes": "1"
					},
					"t_mapping(t_address,t_struct(SubscriptionInfo)202_storage)": {
						"encoding": "mapping",
						"key": "t_address",
						"label": "mapping(address => struct SubscriptionContract.SubscriptionInfo)",
						"numberOfBytes": "32",
						"value": "t_struct(SubscriptionInfo)202_storage"
					},
					"t_mapping(t_enum(PlanType)188,t_uint256)": {
						"encoding": "mapping",
						"key": "t_enum(PlanType)188",
						"label": "mapping(enum SubscriptionContract.PlanType => uint256)",
						"numberOfBytes": "32",
						"value": "t_uint256"
					},
					"t_struct(Plan)194_storage": {
						"encoding": "inplace",
						"label": "struct SubscriptionContract.Plan",
						"members": [
							{
								"astId": 190,
								"contract": "contracts/subscriptionsystem.sol:SubscriptionContract",
								"label": "cost",
								"offset": 0,
								"slot": "0",
								"type": "t_uint256"
							},
							{
								"astId": 193,
								"contract": "contracts/subscriptionsystem.sol:SubscriptionContract",
								"label": "Type",
								"offset": 0,
								"slot": "1",
								"type": "t_enum(PlanType)188"
							}
						],
						"numberOfBytes": "64"
					},
					"t_struct(SubscriptionInfo)202_storage": {
						"encoding": "inplace",
						"label": "struct SubscriptionContract.SubscriptionInfo",
						"members": [
							{
								"astId": 196,
								"contract": "contracts/subscriptionsystem.sol:SubscriptionContract",
								"label": "subscriber",
								"offset": 0,
								"slot": "0",
								"type": "t_address"
							},
							{
								"astId": 199,
								"contract": "contracts/subscriptionsystem.sol:SubscriptionContract",
								"label": "plan",
								"offset": 0,
								"slot": "1",
								"type": "t_struct(Plan)194_storage"
							},
							{
								"astId": 201,
								"contract": "contracts/subscriptionsystem.sol:SubscriptionContract",
								"label": "expiryTime",
								"offset": 0,
								"slot": "3",
								"type": "t_uint256"
							}
						],
						"numberOfBytes": "128"
					},
					"t_uint256": {
						"encoding": "inplace",
						"label": "uint256",
						"numberOfBytes": "32"
					}
				}
			},
			"userdoc": {
				"kind": "user",
				"methods": {},
				"version": 1
			}
		}
	}
}