{
	"contracts/subscriptionsystem.sol": {
		"SubscriptionContract": {
			"abi": [
				{
					"inputs": [],
					"stateMutability": "nonpayable",
					"type": "constructor"
				},
				{
					"inputs": [
						{
							"internalType": "uint256",
							"name": "_amountpaid",
							"type": "uint256"
						}
					],
					"name": "getOrUpdateSubscription",
					"outputs": [],
					"stateMutability": "payable",
					"type": "function"
				},
				{
					"inputs": [
						{
							"internalType": "address",
							"name": "_accountAddess",
							"type": "address"
						}
					],
					"name": "isAddressSubscribed",
					"outputs": [
						{
							"internalType": "bool",
							"name": "",
							"type": "bool"
						}
					],
					"stateMutability": "view",
					"type": "function"
				},
				{
					"inputs": [
						{
							"internalType": "enum SubscriptionContract.planType",
							"name": "",
							"type": "uint8"
						}
					],
					"name": "planCosts",
					"outputs": [
						{
							"internalType": "uint256",
							"name": "",
							"type": "uint256"
						}
					],
					"stateMutability": "view",
					"type": "function"
				},
				{
					"inputs": [],
					"name": "subscriptionProtectedService",
					"outputs": [
						{
							"internalType": "string",
							"name": "",
							"type": "string"
						}
					],
					"stateMutability": "view",
					"type": "function"
				},
				{
					"inputs": [],
					"name": "totalSubs",
					"outputs": [
						{
							"internalType": "uint256",
							"name": "",
							"type": "uint256"
						}
					],
					"stateMutability": "view",
					"type": "function"
				}
			],
			"devdoc": {
				"kind": "dev",
				"methods": {},
				"version": 1
			},
			"evm": {
				"assembly": "    /* \"contracts/subscriptionsystem.sol\":64:2592  contract SubscriptionContract {... */\n  mstore(0x40, 0x80)\n    /* \"contracts/subscriptionsystem.sol\":839:1040  constructor () {... */\n  callvalue\n  dup1\n  iszero\n  tag_1\n  jumpi\n  0x00\n  dup1\n  revert\ntag_1:\n  pop\n    /* \"contracts/subscriptionsystem.sol\":881:891  msg.sender */\n  caller\n    /* \"contracts/subscriptionsystem.sol\":865:870  owner */\n  0x00\n  dup1\n    /* \"contracts/subscriptionsystem.sol\":865:892  owner = payable(msg.sender) */\n  0x0100\n  exp\n  dup2\n  sload\n  dup2\n  0xffffffffffffffffffffffffffffffffffffffff\n  mul\n  not\n  and\n  swap1\n  dup4\n  0xffffffffffffffffffffffffffffffffffffffff\n  and\n  mul\n  or\n  swap1\n  sstore\n  pop\n    /* \"contracts/subscriptionsystem.sol\":936:942  19 wei */\n  0x13\n    /* \"contracts/subscriptionsystem.sol\":905:914  planCosts */\n  0x02\n    /* \"contracts/subscriptionsystem.sol\":905:933  planCosts[planType.standard] */\n  0x00\n    /* \"contracts/subscriptionsystem.sol\":915:932  planType.standard */\n  dup1\n    /* \"contracts/subscriptionsystem.sol\":905:933  planCosts[planType.standard] */\n  0x02\n  dup2\n  gt\n  iszero\n  tag_4\n  jumpi\n  tag_5\n  tag_6\n  jump\t// in\ntag_5:\ntag_4:\n  0x02\n  dup2\n  gt\n  iszero\n  tag_7\n  jumpi\n  tag_8\n  tag_6\n  jump\t// in\ntag_8:\ntag_7:\n  dup2\n  mstore\n  0x20\n  add\n  swap1\n  dup2\n  mstore\n  0x20\n  add\n  0x00\n  keccak256\n    /* \"contracts/subscriptionsystem.sol\":905:942  planCosts[planType.standard] = 19 wei */\n  dup2\n  swap1\n  sstore\n  pop\n    /* \"contracts/subscriptionsystem.sol\":979:985  39 wei */\n  0x27\n    /* \"contracts/subscriptionsystem.sol\":953:962  planCosts */\n  0x02\n    /* \"contracts/subscriptionsystem.sol\":953:976  planCosts[planType.pro] */\n  0x00\n    /* \"contracts/subscriptionsystem.sol\":963:975  planType.pro */\n  0x01\n    /* \"contracts/subscriptionsystem.sol\":953:976  planCosts[planType.pro] */\n  0x02\n  dup2\n  gt\n  iszero\n  tag_9\n  jumpi\n  tag_10\n  tag_6\n  jump\t// in\ntag_10:\ntag_9:\n  0x02\n  dup2\n  gt\n  iszero\n  tag_11\n  jumpi\n  tag_12\n  tag_6\n  jump\t// in\ntag_12:\ntag_11:\n  dup2\n  mstore\n  0x20\n  add\n  swap1\n  dup2\n  mstore\n  0x20\n  add\n  0x00\n  keccak256\n    /* \"contracts/subscriptionsystem.sol\":953:985  planCosts[planType.pro] = 39 wei */\n  dup2\n  swap1\n  sstore\n  pop\n    /* \"contracts/subscriptionsystem.sol\":1026:1032  99 wei */\n  0x63\n    /* \"contracts/subscriptionsystem.sol\":996:1005  planCosts */\n  0x02\n    /* \"contracts/subscriptionsystem.sol\":996:1023  planCosts[planType.premium] */\n  0x00\n    /* \"contracts/subscriptionsystem.sol\":1006:1022  planType.premium */\n  0x02\n    /* \"contracts/subscriptionsystem.sol\":996:1023  planCosts[planType.premium] */\n  dup1\n  dup2\n  gt\n  iszero\n  tag_13\n  jumpi\n  tag_14\n  tag_6\n  jump\t// in\ntag_14:\ntag_13:\n  0x02\n  dup2\n  gt\n  iszero\n  tag_15\n  jumpi\n  tag_16\n  tag_6\n  jump\t// in\ntag_16:\ntag_15:\n  dup2\n  mstore\n  0x20\n  add\n  swap1\n  dup2\n  mstore\n  0x20\n  add\n  0x00\n  keccak256\n    /* \"contracts/subscriptionsystem.sol\":996:1032  planCosts[planType.premium] = 99 wei */\n  dup2\n  swap1\n  sstore\n  pop\n    /* \"contracts/subscriptionsystem.sol\":64:2592  contract SubscriptionContract {... */\n  jump(tag_17)\n    /* \"#utility.yul\":7:187   */\ntag_6:\n    /* \"#utility.yul\":55:132   */\n  0x4e487b7100000000000000000000000000000000000000000000000000000000\n    /* \"#utility.yul\":52:53   */\n  0x00\n    /* \"#utility.yul\":45:133   */\n  mstore\n    /* \"#utility.yul\":152:156   */\n  0x21\n    /* \"#utility.yul\":149:150   */\n  0x04\n    /* \"#utility.yul\":142:157   */\n  mstore\n    /* \"#utility.yul\":176:180   */\n  0x24\n    /* \"#utility.yul\":173:174   */\n  0x00\n    /* \"#utility.yul\":166:181   */\n  revert\n    /* \"contracts/subscriptionsystem.sol\":64:2592  contract SubscriptionContract {... */\ntag_17:\n  dataSize(sub_0)\n  dup1\n  dataOffset(sub_0)\n  0x00\n  codecopy\n  0x00\n  return\nstop\n\nsub_0: assembly {\n        /* \"contracts/subscriptionsystem.sol\":64:2592  contract SubscriptionContract {... */\n      mstore(0x40, 0x80)\n      jumpi(tag_1, lt(calldatasize, 0x04))\n      shr(0xe0, calldataload(0x00))\n      dup1\n      0x086cec91\n      eq\n      tag_2\n      jumpi\n      dup1\n      0x1341adc0\n      eq\n      tag_3\n      jumpi\n      dup1\n      0x97810097\n      eq\n      tag_4\n      jumpi\n      dup1\n      0xd538a1b0\n      eq\n      tag_5\n      jumpi\n      dup1\n      0xf5676f8f\n      eq\n      tag_6\n      jumpi\n    tag_1:\n      0x00\n      dup1\n      revert\n        /* \"contracts/subscriptionsystem.sol\":1415:2172  function getOrUpdateSubscription(uint _amountpaid) public payable {... */\n    tag_2:\n      tag_7\n      0x04\n      dup1\n      calldatasize\n      sub\n      dup2\n      add\n      swap1\n      tag_8\n      swap2\n      swap1\n      tag_9\n      jump\t// in\n    tag_8:\n      tag_10\n      jump\t// in\n    tag_7:\n      stop\n        /* \"contracts/subscriptionsystem.sol\":589:634  mapping(planType => uint256) public planCosts */\n    tag_3:\n      callvalue\n      dup1\n      iszero\n      tag_11\n      jumpi\n      0x00\n      dup1\n      revert\n    tag_11:\n      pop\n      tag_12\n      0x04\n      dup1\n      calldatasize\n      sub\n      dup2\n      add\n      swap1\n      tag_13\n      swap2\n      swap1\n      tag_14\n      jump\t// in\n    tag_13:\n      tag_15\n      jump\t// in\n    tag_12:\n      mload(0x40)\n      tag_16\n      swap2\n      swap1\n      tag_17\n      jump\t// in\n    tag_16:\n      mload(0x40)\n      dup1\n      swap2\n      sub\n      swap1\n      return\n        /* \"contracts/subscriptionsystem.sol\":2234:2587  function isAddressSubscribed(address _accountAddess) public view returns(bool) {... */\n    tag_4:\n      callvalue\n      dup1\n      iszero\n      tag_18\n      jumpi\n      0x00\n      dup1\n      revert\n    tag_18:\n      pop\n      tag_19\n      0x04\n      dup1\n      calldatasize\n      sub\n      dup2\n      add\n      swap1\n      tag_20\n      swap2\n      swap1\n      tag_21\n      jump\t// in\n    tag_20:\n      tag_22\n      jump\t// in\n    tag_19:\n      mload(0x40)\n      tag_23\n      swap2\n      swap1\n      tag_24\n      jump\t// in\n    tag_23:\n      mload(0x40)\n      dup1\n      swap2\n      sub\n      swap1\n      return\n        /* \"contracts/subscriptionsystem.sol\":1105:1363  function subscriptionProtectedService() public view returns(string memory) {... */\n    tag_5:\n      callvalue\n      dup1\n      iszero\n      tag_25\n      jumpi\n      0x00\n      dup1\n      revert\n    tag_25:\n      pop\n      tag_26\n      tag_27\n      jump\t// in\n    tag_26:\n      mload(0x40)\n      tag_28\n      swap2\n      swap1\n      tag_29\n      jump\t// in\n    tag_28:\n      mload(0x40)\n      dup1\n      swap2\n      sub\n      swap1\n      return\n        /* \"contracts/subscriptionsystem.sol\":560:581  uint public totalSubs */\n    tag_6:\n      callvalue\n      dup1\n      iszero\n      tag_30\n      jumpi\n      0x00\n      dup1\n      revert\n    tag_30:\n      pop\n      tag_31\n      tag_32\n      jump\t// in\n    tag_31:\n      mload(0x40)\n      tag_33\n      swap2\n      swap1\n      tag_17\n      jump\t// in\n    tag_33:\n      mload(0x40)\n      dup1\n      swap2\n      sub\n      swap1\n      return\n        /* \"contracts/subscriptionsystem.sol\":1415:2172  function getOrUpdateSubscription(uint _amountpaid) public payable {... */\n    tag_10:\n        /* \"contracts/subscriptionsystem.sol\":1515:1524  planCosts */\n      0x02\n        /* \"contracts/subscriptionsystem.sol\":1515:1543  planCosts[planType.standard] */\n      0x00\n        /* \"contracts/subscriptionsystem.sol\":1525:1542  planType.standard */\n      dup1\n        /* \"contracts/subscriptionsystem.sol\":1515:1543  planCosts[planType.standard] */\n      0x02\n      dup2\n      gt\n      iszero\n      tag_35\n      jumpi\n      tag_36\n      tag_37\n      jump\t// in\n    tag_36:\n    tag_35:\n      0x02\n      dup2\n      gt\n      iszero\n      tag_38\n      jumpi\n      tag_39\n      tag_37\n      jump\t// in\n    tag_39:\n    tag_38:\n      dup2\n      mstore\n      0x20\n      add\n      swap1\n      dup2\n      mstore\n      0x20\n      add\n      0x00\n      keccak256\n      sload\n        /* \"contracts/subscriptionsystem.sol\":1500:1511  _amountpaid */\n      dup2\n        /* \"contracts/subscriptionsystem.sol\":1500:1543  _amountpaid == planCosts[planType.standard] */\n      eq\n        /* \"contracts/subscriptionsystem.sol\":1500:1585  _amountpaid == planCosts[planType.standard] || _amountpaid == planCosts[planType.pro] */\n      dup1\n      tag_40\n      jumpi\n      pop\n        /* \"contracts/subscriptionsystem.sol\":1562:1571  planCosts */\n      0x02\n        /* \"contracts/subscriptionsystem.sol\":1562:1585  planCosts[planType.pro] */\n      0x00\n        /* \"contracts/subscriptionsystem.sol\":1572:1584  planType.pro */\n      0x01\n        /* \"contracts/subscriptionsystem.sol\":1562:1585  planCosts[planType.pro] */\n      0x02\n      dup2\n      gt\n      iszero\n      tag_41\n      jumpi\n      tag_42\n      tag_37\n      jump\t// in\n    tag_42:\n    tag_41:\n      0x02\n      dup2\n      gt\n      iszero\n      tag_43\n      jumpi\n      tag_44\n      tag_37\n      jump\t// in\n    tag_44:\n    tag_43:\n      dup2\n      mstore\n      0x20\n      add\n      swap1\n      dup2\n      mstore\n      0x20\n      add\n      0x00\n      keccak256\n      sload\n        /* \"contracts/subscriptionsystem.sol\":1547:1558  _amountpaid */\n      dup2\n        /* \"contracts/subscriptionsystem.sol\":1547:1585  _amountpaid == planCosts[planType.pro] */\n      eq\n        /* \"contracts/subscriptionsystem.sol\":1500:1585  _amountpaid == planCosts[planType.standard] || _amountpaid == planCosts[planType.pro] */\n    tag_40:\n        /* \"contracts/subscriptionsystem.sol\":1500:1631  _amountpaid == planCosts[planType.standard] || _amountpaid == planCosts[planType.pro] || _amountpaid == planCosts[planType.premium] */\n      dup1\n      tag_45\n      jumpi\n      pop\n        /* \"contracts/subscriptionsystem.sol\":1604:1613  planCosts */\n      0x02\n        /* \"contracts/subscriptionsystem.sol\":1604:1631  planCosts[planType.premium] */\n      0x00\n        /* \"contracts/subscriptionsystem.sol\":1614:1630  planType.premium */\n      0x02\n        /* \"contracts/subscriptionsystem.sol\":1604:1631  planCosts[planType.premium] */\n      dup1\n      dup2\n      gt\n      iszero\n      tag_46\n      jumpi\n      tag_47\n      tag_37\n      jump\t// in\n    tag_47:\n    tag_46:\n      0x02\n      dup2\n      gt\n      iszero\n      tag_48\n      jumpi\n      tag_49\n      tag_37\n      jump\t// in\n    tag_49:\n    tag_48:\n      dup2\n      mstore\n      0x20\n      add\n      swap1\n      dup2\n      mstore\n      0x20\n      add\n      0x00\n      keccak256\n      sload\n        /* \"contracts/subscriptionsystem.sol\":1589:1600  _amountpaid */\n      dup2\n        /* \"contracts/subscriptionsystem.sol\":1589:1631  _amountpaid == planCosts[planType.premium] */\n      eq\n        /* \"contracts/subscriptionsystem.sol\":1500:1631  _amountpaid == planCosts[planType.standard] || _amountpaid == planCosts[planType.pro] || _amountpaid == planCosts[planType.premium] */\n    tag_45:\n        /* \"contracts/subscriptionsystem.sol\":1492:1632  require(_amountpaid == planCosts[planType.standard] || _amountpaid == planCosts[planType.pro] || _amountpaid == planCosts[planType.premium]) */\n      tag_50\n      jumpi\n      0x00\n      dup1\n      revert\n    tag_50:\n        /* \"contracts/subscriptionsystem.sol\":1724:1725  0 */\n      0x00\n        /* \"contracts/subscriptionsystem.sol\":1688:1701  subscriptions */\n      0x04\n        /* \"contracts/subscriptionsystem.sol\":1688:1713  subscriptions[msg.sender] */\n      0x00\n        /* \"contracts/subscriptionsystem.sol\":1702:1712  msg.sender */\n      caller\n        /* \"contracts/subscriptionsystem.sol\":1688:1713  subscriptions[msg.sender] */\n      0xffffffffffffffffffffffffffffffffffffffff\n      and\n      0xffffffffffffffffffffffffffffffffffffffff\n      and\n      dup2\n      mstore\n      0x20\n      add\n      swap1\n      dup2\n      mstore\n      0x20\n      add\n      0x00\n      keccak256\n        /* \"contracts/subscriptionsystem.sol\":1688:1720  subscriptions[msg.sender].expiry */\n      0x03\n      add\n      sload\n        /* \"contracts/subscriptionsystem.sol\":1688:1725  subscriptions[msg.sender].expiry == 0 */\n      sub\n        /* \"contracts/subscriptionsystem.sol\":1684:2045  if (subscriptions[msg.sender].expiry == 0) {... */\n      tag_51\n      jumpi\n        /* \"contracts/subscriptionsystem.sol\":1742:1763  plan memory exactPlan */\n      0x00\n        /* \"contracts/subscriptionsystem.sol\":1766:1813  plan( _amountpaid , specificPlan[_amountpaid] ) */\n      mload(0x40)\n      dup1\n      0x40\n      add\n      0x40\n      mstore\n      dup1\n        /* \"contracts/subscriptionsystem.sol\":1772:1783  _amountpaid */\n      dup4\n        /* \"contracts/subscriptionsystem.sol\":1766:1813  plan( _amountpaid , specificPlan[_amountpaid] ) */\n      dup2\n      mstore\n      0x20\n      add\n        /* \"contracts/subscriptionsystem.sol\":1786:1798  specificPlan */\n      0x03\n        /* \"contracts/subscriptionsystem.sol\":1786:1811  specificPlan[_amountpaid] */\n      0x00\n        /* \"contracts/subscriptionsystem.sol\":1799:1810  _amountpaid */\n      dup6\n        /* \"contracts/subscriptionsystem.sol\":1786:1811  specificPlan[_amountpaid] */\n      dup2\n      mstore\n      0x20\n      add\n      swap1\n      dup2\n      mstore\n      0x20\n      add\n      0x00\n      keccak256\n      0x00\n      swap1\n      sload\n      swap1\n      0x0100\n      exp\n      swap1\n      div\n      0xff\n      and\n        /* \"contracts/subscriptionsystem.sol\":1766:1813  plan( _amountpaid , specificPlan[_amountpaid] ) */\n      0x02\n      dup2\n      gt\n      iszero\n      tag_52\n      jumpi\n      tag_53\n      tag_37\n      jump\t// in\n    tag_53:\n    tag_52:\n      dup2\n      mstore\n      pop\n        /* \"contracts/subscriptionsystem.sol\":1742:1813  plan memory exactPlan = plan( _amountpaid , specificPlan[_amountpaid] ) */\n      swap1\n      pop\n        /* \"contracts/subscriptionsystem.sol\":1828:1858  subscritionInfo memory newSubs */\n      0x00\n        /* \"contracts/subscriptionsystem.sol\":1861:1930  subscritionInfo( msg.sender , exactPlan , block.timestamp + 2592000 ) */\n      mload(0x40)\n      dup1\n      0x60\n      add\n      0x40\n      mstore\n      dup1\n        /* \"contracts/subscriptionsystem.sol\":1878:1888  msg.sender */\n      caller\n        /* \"contracts/subscriptionsystem.sol\":1861:1930  subscritionInfo( msg.sender , exactPlan , block.timestamp + 2592000 ) */\n      0xffffffffffffffffffffffffffffffffffffffff\n      and\n      dup2\n      mstore\n      0x20\n      add\n        /* \"contracts/subscriptionsystem.sol\":1891:1900  exactPlan */\n      dup4\n        /* \"contracts/subscriptionsystem.sol\":1861:1930  subscritionInfo( msg.sender , exactPlan , block.timestamp + 2592000 ) */\n      dup2\n      mstore\n      0x20\n      add\n        /* \"contracts/subscriptionsystem.sol\":1921:1928  2592000 */\n      0x278d00\n        /* \"contracts/subscriptionsystem.sol\":1903:1918  block.timestamp */\n      timestamp\n        /* \"contracts/subscriptionsystem.sol\":1903:1928  block.timestamp + 2592000 */\n      tag_54\n      swap2\n      swap1\n      tag_55\n      jump\t// in\n    tag_54:\n        /* \"contracts/subscriptionsystem.sol\":1861:1930  subscritionInfo( msg.sender , exactPlan , block.timestamp + 2592000 ) */\n      dup2\n      mstore\n      pop\n        /* \"contracts/subscriptionsystem.sol\":1828:1930  subscritionInfo memory newSubs = subscritionInfo( msg.sender , exactPlan , block.timestamp + 2592000 ) */\n      swap1\n      pop\n        /* \"contracts/subscriptionsystem.sol\":1996:2003  newSubs */\n      dup1\n        /* \"contracts/subscriptionsystem.sol\":1968:1981  subscriptions */\n      0x04\n        /* \"contracts/subscriptionsystem.sol\":1968:1993  subscriptions[msg.sender] */\n      0x00\n        /* \"contracts/subscriptionsystem.sol\":1982:1992  msg.sender */\n      caller\n        /* \"contracts/subscriptionsystem.sol\":1968:1993  subscriptions[msg.sender] */\n      0xffffffffffffffffffffffffffffffffffffffff\n      and\n      0xffffffffffffffffffffffffffffffffffffffff\n      and\n      dup2\n      mstore\n      0x20\n      add\n      swap1\n      dup2\n      mstore\n      0x20\n      add\n      0x00\n      keccak256\n        /* \"contracts/subscriptionsystem.sol\":1968:2003  subscriptions[msg.sender] = newSubs */\n      0x00\n      dup3\n      add\n      mload\n      dup2\n      0x00\n      add\n      exp(0x0100, 0x00)\n      dup2\n      sload\n      dup2\n      0xffffffffffffffffffffffffffffffffffffffff\n      mul\n      not\n      and\n      swap1\n      dup4\n      0xffffffffffffffffffffffffffffffffffffffff\n      and\n      mul\n      or\n      swap1\n      sstore\n      pop\n      0x20\n      dup3\n      add\n      mload\n      dup2\n      0x01\n      add\n      0x00\n      dup3\n      add\n      mload\n      dup2\n      0x00\n      add\n      sstore\n      0x20\n      dup3\n      add\n      mload\n      dup2\n      0x01\n      add\n      exp(0x0100, 0x00)\n      dup2\n      sload\n      dup2\n      0xff\n      mul\n      not\n      and\n      swap1\n      dup4\n      0x02\n      dup2\n      gt\n      iszero\n      tag_56\n      jumpi\n      tag_57\n      tag_37\n      jump\t// in\n    tag_57:\n    tag_56:\n      mul\n      or\n      swap1\n      sstore\n      pop\n      pop\n      pop\n      0x40\n      dup3\n      add\n      mload\n      dup2\n      0x03\n      add\n      sstore\n      swap1\n      pop\n      pop\n        /* \"contracts/subscriptionsystem.sol\":2021:2030  totalSubs */\n      0x01\n      0x00\n        /* \"contracts/subscriptionsystem.sol\":2021:2032  totalSubs++ */\n      dup2\n      sload\n      dup1\n      swap3\n      swap2\n      swap1\n      tag_58\n      swap1\n      tag_59\n      jump\t// in\n    tag_58:\n      swap2\n      swap1\n      pop\n      sstore\n      pop\n        /* \"contracts/subscriptionsystem.sol\":1727:2045  {... */\n      pop\n      pop\n        /* \"contracts/subscriptionsystem.sol\":1684:2045  if (subscriptions[msg.sender].expiry == 0) {... */\n    tag_51:\n        /* \"contracts/subscriptionsystem.sol\":2156:2163  2592000 */\n      0x278d00\n        /* \"contracts/subscriptionsystem.sol\":2138:2153  block.timestamp */\n      timestamp\n        /* \"contracts/subscriptionsystem.sol\":2138:2163  block.timestamp + 2592000 */\n      tag_60\n      swap2\n      swap1\n      tag_55\n      jump\t// in\n    tag_60:\n        /* \"contracts/subscriptionsystem.sol\":2103:2116  subscriptions */\n      0x04\n        /* \"contracts/subscriptionsystem.sol\":2103:2128  subscriptions[msg.sender] */\n      0x00\n        /* \"contracts/subscriptionsystem.sol\":2117:2127  msg.sender */\n      caller\n        /* \"contracts/subscriptionsystem.sol\":2103:2128  subscriptions[msg.sender] */\n      0xffffffffffffffffffffffffffffffffffffffff\n      and\n      0xffffffffffffffffffffffffffffffffffffffff\n      and\n      dup2\n      mstore\n      0x20\n      add\n      swap1\n      dup2\n      mstore\n      0x20\n      add\n      0x00\n      keccak256\n        /* \"contracts/subscriptionsystem.sol\":2103:2135  subscriptions[msg.sender].expiry */\n      0x03\n      add\n        /* \"contracts/subscriptionsystem.sol\":2103:2163  subscriptions[msg.sender].expiry = block.timestamp + 2592000 */\n      dup2\n      swap1\n      sstore\n      pop\n        /* \"contracts/subscriptionsystem.sol\":1415:2172  function getOrUpdateSubscription(uint _amountpaid) public payable {... */\n      pop\n      jump\t// out\n        /* \"contracts/subscriptionsystem.sol\":589:634  mapping(planType => uint256) public planCosts */\n    tag_15:\n      mstore(0x20, 0x02)\n      dup1\n      0x00\n      mstore\n      keccak256(0x00, 0x40)\n      0x00\n      swap2\n      pop\n      swap1\n      pop\n      sload\n      dup2\n      jump\t// out\n        /* \"contracts/subscriptionsystem.sol\":2234:2587  function isAddressSubscribed(address _accountAddess) public view returns(bool) {... */\n    tag_22:\n        /* \"contracts/subscriptionsystem.sol\":2307:2311  bool */\n      0x00\n        /* \"contracts/subscriptionsystem.sol\":2324:2355  subscritionInfo memory subscObj */\n      dup1\n        /* \"contracts/subscriptionsystem.sol\":2358:2371  subscriptions */\n      0x04\n        /* \"contracts/subscriptionsystem.sol\":2358:2387  subscriptions[_accountAddess] */\n      0x00\n        /* \"contracts/subscriptionsystem.sol\":2372:2386  _accountAddess */\n      dup5\n        /* \"contracts/subscriptionsystem.sol\":2358:2387  subscriptions[_accountAddess] */\n      0xffffffffffffffffffffffffffffffffffffffff\n      and\n      0xffffffffffffffffffffffffffffffffffffffff\n      and\n      dup2\n      mstore\n      0x20\n      add\n      swap1\n      dup2\n      mstore\n      0x20\n      add\n      0x00\n      keccak256\n        /* \"contracts/subscriptionsystem.sol\":2324:2387  subscritionInfo memory subscObj = subscriptions[_accountAddess] */\n      mload(0x40)\n      dup1\n      0x60\n      add\n      0x40\n      mstore\n      swap1\n      dup2\n      0x00\n      dup3\n      add\n      0x00\n      swap1\n      sload\n      swap1\n      0x0100\n      exp\n      swap1\n      div\n      0xffffffffffffffffffffffffffffffffffffffff\n      and\n      0xffffffffffffffffffffffffffffffffffffffff\n      and\n      0xffffffffffffffffffffffffffffffffffffffff\n      and\n      dup2\n      mstore\n      0x20\n      add\n      0x01\n      dup3\n      add\n      mload(0x40)\n      dup1\n      0x40\n      add\n      0x40\n      mstore\n      swap1\n      dup2\n      0x00\n      dup3\n      add\n      sload\n      dup2\n      mstore\n      0x20\n      add\n      0x01\n      dup3\n      add\n      0x00\n      swap1\n      sload\n      swap1\n      0x0100\n      exp\n      swap1\n      div\n      0xff\n      and\n      0x02\n      dup2\n      gt\n      iszero\n      tag_62\n      jumpi\n      tag_63\n      tag_37\n      jump\t// in\n    tag_63:\n    tag_62:\n      0x02\n      dup2\n      gt\n      iszero\n      tag_64\n      jumpi\n      tag_65\n      tag_37\n      jump\t// in\n    tag_65:\n    tag_64:\n      dup2\n      mstore\n      pop\n      pop\n      dup2\n      mstore\n      0x20\n      add\n      0x03\n      dup3\n      add\n      sload\n      dup2\n      mstore\n      pop\n      pop\n      swap1\n      pop\n        /* \"contracts/subscriptionsystem.sol\":2499:2500  0 */\n      0x00\n        /* \"contracts/subscriptionsystem.sol\":2480:2488  subscObj */\n      dup2\n        /* \"contracts/subscriptionsystem.sol\":2480:2495  subscObj.expiry */\n      0x40\n      add\n      mload\n        /* \"contracts/subscriptionsystem.sol\":2480:2500  subscObj.expiry != 0 */\n      eq\n        /* \"contracts/subscriptionsystem.sol\":2476:2544  if (subscObj.expiry != 0) return true ;... */\n      tag_66\n      jumpi\n        /* \"contracts/subscriptionsystem.sol\":2509:2513  true */\n      0x01\n        /* \"contracts/subscriptionsystem.sol\":2502:2513  return true */\n      swap2\n      pop\n      pop\n      jump(tag_61)\n        /* \"contracts/subscriptionsystem.sol\":2476:2544  if (subscObj.expiry != 0) return true ;... */\n    tag_66:\n        /* \"contracts/subscriptionsystem.sol\":2539:2544  false */\n      0x00\n        /* \"contracts/subscriptionsystem.sol\":2532:2544  return false */\n      swap2\n      pop\n      pop\n        /* \"contracts/subscriptionsystem.sol\":2234:2587  function isAddressSubscribed(address _accountAddess) public view returns(bool) {... */\n    tag_61:\n      swap2\n      swap1\n      pop\n      jump\t// out\n        /* \"contracts/subscriptionsystem.sol\":1105:1363  function subscriptionProtectedService() public view returns(string memory) {... */\n    tag_27:\n        /* \"contracts/subscriptionsystem.sol\":1165:1178  string memory */\n      0x60\n        /* \"contracts/subscriptionsystem.sol\":1218:1231  subscriptions */\n      0x04\n        /* \"contracts/subscriptionsystem.sol\":1218:1243  subscriptions[msg.sender] */\n      0x00\n        /* \"contracts/subscriptionsystem.sol\":1232:1242  msg.sender */\n      caller\n        /* \"contracts/subscriptionsystem.sol\":1218:1243  subscriptions[msg.sender] */\n      0xffffffffffffffffffffffffffffffffffffffff\n      and\n      0xffffffffffffffffffffffffffffffffffffffff\n      and\n      dup2\n      mstore\n      0x20\n      add\n      swap1\n      dup2\n      mstore\n      0x20\n      add\n      0x00\n      keccak256\n        /* \"contracts/subscriptionsystem.sol\":1218:1250  subscriptions[msg.sender].expiry */\n      0x03\n      add\n      sload\n        /* \"contracts/subscriptionsystem.sol\":1200:1215  block.timestamp */\n      timestamp\n        /* \"contracts/subscriptionsystem.sol\":1200:1250  block.timestamp < subscriptions[msg.sender].expiry */\n      lt\n        /* \"contracts/subscriptionsystem.sol\":1191:1300  require( block.timestamp < subscriptions[msg.sender].expiry , \"You're subscription is expired , ABORTING !!\") */\n      tag_69\n      jumpi\n      mload(0x40)\n      0x08c379a000000000000000000000000000000000000000000000000000000000\n      dup2\n      mstore\n      0x04\n      add\n      tag_70\n      swap1\n      tag_71\n      jump\t// in\n    tag_70:\n      mload(0x40)\n      dup1\n      swap2\n      sub\n      swap1\n      revert\n    tag_69:\n        /* \"contracts/subscriptionsystem.sol\":1311:1354  return \"SCAMMED Successfully , FUCK OFF !!\" */\n      mload(0x40)\n      dup1\n      0x60\n      add\n      0x40\n      mstore\n      dup1\n      0x22\n      dup2\n      mstore\n      0x20\n      add\n      data_585c964bd3e9792422f9ee01cb82353a831cf7a9bd6854bfc38516144c52f07b\n      0x22\n      swap2\n      codecopy\n      swap1\n      pop\n        /* \"contracts/subscriptionsystem.sol\":1105:1363  function subscriptionProtectedService() public view returns(string memory) {... */\n      swap1\n      jump\t// out\n        /* \"contracts/subscriptionsystem.sol\":560:581  uint public totalSubs */\n    tag_32:\n      sload(0x01)\n      dup2\n      jump\t// out\n        /* \"#utility.yul\":88:205   */\n    tag_73:\n        /* \"#utility.yul\":197:198   */\n      0x00\n        /* \"#utility.yul\":194:195   */\n      dup1\n        /* \"#utility.yul\":187:199   */\n      revert\n        /* \"#utility.yul\":334:411   */\n    tag_75:\n        /* \"#utility.yul\":371:378   */\n      0x00\n        /* \"#utility.yul\":400:405   */\n      dup2\n        /* \"#utility.yul\":389:405   */\n      swap1\n      pop\n        /* \"#utility.yul\":334:411   */\n      swap2\n      swap1\n      pop\n      jump\t// out\n        /* \"#utility.yul\":417:539   */\n    tag_76:\n        /* \"#utility.yul\":490:514   */\n      tag_101\n        /* \"#utility.yul\":508:513   */\n      dup2\n        /* \"#utility.yul\":490:514   */\n      tag_75\n      jump\t// in\n    tag_101:\n        /* \"#utility.yul\":483:488   */\n      dup2\n        /* \"#utility.yul\":480:515   */\n      eq\n        /* \"#utility.yul\":470:533   */\n      tag_102\n      jumpi\n        /* \"#utility.yul\":529:530   */\n      0x00\n        /* \"#utility.yul\":526:527   */\n      dup1\n        /* \"#utility.yul\":519:531   */\n      revert\n        /* \"#utility.yul\":470:533   */\n    tag_102:\n        /* \"#utility.yul\":417:539   */\n      pop\n      jump\t// out\n        /* \"#utility.yul\":545:684   */\n    tag_77:\n        /* \"#utility.yul\":591:596   */\n      0x00\n        /* \"#utility.yul\":629:635   */\n      dup2\n        /* \"#utility.yul\":616:636   */\n      calldataload\n        /* \"#utility.yul\":607:636   */\n      swap1\n      pop\n        /* \"#utility.yul\":645:678   */\n      tag_104\n        /* \"#utility.yul\":672:677   */\n      dup2\n        /* \"#utility.yul\":645:678   */\n      tag_76\n      jump\t// in\n    tag_104:\n        /* \"#utility.yul\":545:684   */\n      swap3\n      swap2\n      pop\n      pop\n      jump\t// out\n        /* \"#utility.yul\":690:1019   */\n    tag_9:\n        /* \"#utility.yul\":749:755   */\n      0x00\n        /* \"#utility.yul\":798:800   */\n      0x20\n        /* \"#utility.yul\":786:795   */\n      dup3\n        /* \"#utility.yul\":777:784   */\n      dup5\n        /* \"#utility.yul\":773:796   */\n      sub\n        /* \"#utility.yul\":769:801   */\n      slt\n        /* \"#utility.yul\":766:885   */\n      iszero\n      tag_106\n      jumpi\n        /* \"#utility.yul\":804:883   */\n      tag_107\n      tag_73\n      jump\t// in\n    tag_107:\n        /* \"#utility.yul\":766:885   */\n    tag_106:\n        /* \"#utility.yul\":924:925   */\n      0x00\n        /* \"#utility.yul\":949:1002   */\n      tag_108\n        /* \"#utility.yul\":994:1001   */\n      dup5\n        /* \"#utility.yul\":985:991   */\n      dup3\n        /* \"#utility.yul\":974:983   */\n      dup6\n        /* \"#utility.yul\":970:992   */\n      add\n        /* \"#utility.yul\":949:1002   */\n      tag_77\n      jump\t// in\n    tag_108:\n        /* \"#utility.yul\":939:1002   */\n      swap2\n      pop\n        /* \"#utility.yul\":895:1012   */\n      pop\n        /* \"#utility.yul\":690:1019   */\n      swap3\n      swap2\n      pop\n      pop\n      jump\t// out\n        /* \"#utility.yul\":1025:1134   */\n    tag_78:\n        /* \"#utility.yul\":1108:1109   */\n      0x03\n        /* \"#utility.yul\":1101:1106   */\n      dup2\n        /* \"#utility.yul\":1098:1110   */\n      lt\n        /* \"#utility.yul\":1088:1128   */\n      tag_110\n      jumpi\n        /* \"#utility.yul\":1124:1125   */\n      0x00\n        /* \"#utility.yul\":1121:1122   */\n      dup1\n        /* \"#utility.yul\":1114:1126   */\n      revert\n        /* \"#utility.yul\":1088:1128   */\n    tag_110:\n        /* \"#utility.yul\":1025:1134   */\n      pop\n      jump\t// out\n        /* \"#utility.yul\":1140:1299   */\n    tag_79:\n        /* \"#utility.yul\":1196:1201   */\n      0x00\n        /* \"#utility.yul\":1234:1240   */\n      dup2\n        /* \"#utility.yul\":1221:1241   */\n      calldataload\n        /* \"#utility.yul\":1212:1241   */\n      swap1\n      pop\n        /* \"#utility.yul\":1250:1293   */\n      tag_112\n        /* \"#utility.yul\":1287:1292   */\n      dup2\n        /* \"#utility.yul\":1250:1293   */\n      tag_78\n      jump\t// in\n    tag_112:\n        /* \"#utility.yul\":1140:1299   */\n      swap3\n      swap2\n      pop\n      pop\n      jump\t// out\n        /* \"#utility.yul\":1305:1654   */\n    tag_14:\n        /* \"#utility.yul\":1374:1380   */\n      0x00\n        /* \"#utility.yul\":1423:1425   */\n      0x20\n        /* \"#utility.yul\":1411:1420   */\n      dup3\n        /* \"#utility.yul\":1402:1409   */\n      dup5\n        /* \"#utility.yul\":1398:1421   */\n      sub\n        /* \"#utility.yul\":1394:1426   */\n      slt\n        /* \"#utility.yul\":1391:1510   */\n      iszero\n      tag_114\n      jumpi\n        /* \"#utility.yul\":1429:1508   */\n      tag_115\n      tag_73\n      jump\t// in\n    tag_115:\n        /* \"#utility.yul\":1391:1510   */\n    tag_114:\n        /* \"#utility.yul\":1549:1550   */\n      0x00\n        /* \"#utility.yul\":1574:1637   */\n      tag_116\n        /* \"#utility.yul\":1629:1636   */\n      dup5\n        /* \"#utility.yul\":1620:1626   */\n      dup3\n        /* \"#utility.yul\":1609:1618   */\n      dup6\n        /* \"#utility.yul\":1605:1627   */\n      add\n        /* \"#utility.yul\":1574:1637   */\n      tag_79\n      jump\t// in\n    tag_116:\n        /* \"#utility.yul\":1564:1637   */\n      swap2\n      pop\n        /* \"#utility.yul\":1520:1647   */\n      pop\n        /* \"#utility.yul\":1305:1654   */\n      swap3\n      swap2\n      pop\n      pop\n      jump\t// out\n        /* \"#utility.yul\":1660:1778   */\n    tag_80:\n        /* \"#utility.yul\":1747:1771   */\n      tag_118\n        /* \"#utility.yul\":1765:1770   */\n      dup2\n        /* \"#utility.yul\":1747:1771   */\n      tag_75\n      jump\t// in\n    tag_118:\n        /* \"#utility.yul\":1742:1745   */\n      dup3\n        /* \"#utility.yul\":1735:1772   */\n      mstore\n        /* \"#utility.yul\":1660:1778   */\n      pop\n      pop\n      jump\t// out\n        /* \"#utility.yul\":1784:2006   */\n    tag_17:\n        /* \"#utility.yul\":1877:1881   */\n      0x00\n        /* \"#utility.yul\":1915:1917   */\n      0x20\n        /* \"#utility.yul\":1904:1913   */\n      dup3\n        /* \"#utility.yul\":1900:1918   */\n      add\n        /* \"#utility.yul\":1892:1918   */\n      swap1\n      pop\n        /* \"#utility.yul\":1928:1999   */\n      tag_120\n        /* \"#utility.yul\":1996:1997   */\n      0x00\n        /* \"#utility.yul\":1985:1994   */\n      dup4\n        /* \"#utility.yul\":1981:1998   */\n      add\n        /* \"#utility.yul\":1972:1978   */\n      dup5\n        /* \"#utility.yul\":1928:1999   */\n      tag_80\n      jump\t// in\n    tag_120:\n        /* \"#utility.yul\":1784:2006   */\n      swap3\n      swap2\n      pop\n      pop\n      jump\t// out\n        /* \"#utility.yul\":2012:2138   */\n    tag_81:\n        /* \"#utility.yul\":2049:2056   */\n      0x00\n        /* \"#utility.yul\":2089:2131   */\n      0xffffffffffffffffffffffffffffffffffffffff\n        /* \"#utility.yul\":2082:2087   */\n      dup3\n        /* \"#utility.yul\":2078:2132   */\n      and\n        /* \"#utility.yul\":2067:2132   */\n      swap1\n      pop\n        /* \"#utility.yul\":2012:2138   */\n      swap2\n      swap1\n      pop\n      jump\t// out\n        /* \"#utility.yul\":2144:2240   */\n    tag_82:\n        /* \"#utility.yul\":2181:2188   */\n      0x00\n        /* \"#utility.yul\":2210:2234   */\n      tag_123\n        /* \"#utility.yul\":2228:2233   */\n      dup3\n        /* \"#utility.yul\":2210:2234   */\n      tag_81\n      jump\t// in\n    tag_123:\n        /* \"#utility.yul\":2199:2234   */\n      swap1\n      pop\n        /* \"#utility.yul\":2144:2240   */\n      swap2\n      swap1\n      pop\n      jump\t// out\n        /* \"#utility.yul\":2246:2368   */\n    tag_83:\n        /* \"#utility.yul\":2319:2343   */\n      tag_125\n        /* \"#utility.yul\":2337:2342   */\n      dup2\n        /* \"#utility.yul\":2319:2343   */\n      tag_82\n      jump\t// in\n    tag_125:\n        /* \"#utility.yul\":2312:2317   */\n      dup2\n        /* \"#utility.yul\":2309:2344   */\n      eq\n        /* \"#utility.yul\":2299:2362   */\n      tag_126\n      jumpi\n        /* \"#utility.yul\":2358:2359   */\n      0x00\n        /* \"#utility.yul\":2355:2356   */\n      dup1\n        /* \"#utility.yul\":2348:2360   */\n      revert\n        /* \"#utility.yul\":2299:2362   */\n    tag_126:\n        /* \"#utility.yul\":2246:2368   */\n      pop\n      jump\t// out\n        /* \"#utility.yul\":2374:2513   */\n    tag_84:\n        /* \"#utility.yul\":2420:2425   */\n      0x00\n        /* \"#utility.yul\":2458:2464   */\n      dup2\n        /* \"#utility.yul\":2445:2465   */\n      calldataload\n        /* \"#utility.yul\":2436:2465   */\n      swap1\n      pop\n        /* \"#utility.yul\":2474:2507   */\n      tag_128\n        /* \"#utility.yul\":2501:2506   */\n      dup2\n        /* \"#utility.yul\":2474:2507   */\n      tag_83\n      jump\t// in\n    tag_128:\n        /* \"#utility.yul\":2374:2513   */\n      swap3\n      swap2\n      pop\n      pop\n      jump\t// out\n        /* \"#utility.yul\":2519:2848   */\n    tag_21:\n        /* \"#utility.yul\":2578:2584   */\n      0x00\n        /* \"#utility.yul\":2627:2629   */\n      0x20\n        /* \"#utility.yul\":2615:2624   */\n      dup3\n        /* \"#utility.yul\":2606:2613   */\n      dup5\n        /* \"#utility.yul\":2602:2625   */\n      sub\n        /* \"#utility.yul\":2598:2630   */\n      slt\n        /* \"#utility.yul\":2595:2714   */\n      iszero\n      tag_130\n      jumpi\n        /* \"#utility.yul\":2633:2712   */\n      tag_131\n      tag_73\n      jump\t// in\n    tag_131:\n        /* \"#utility.yul\":2595:2714   */\n    tag_130:\n        /* \"#utility.yul\":2753:2754   */\n      0x00\n        /* \"#utility.yul\":2778:2831   */\n      tag_132\n        /* \"#utility.yul\":2823:2830   */\n      dup5\n        /* \"#utility.yul\":2814:2820   */\n      dup3\n        /* \"#utility.yul\":2803:2812   */\n      dup6\n        /* \"#utility.yul\":2799:2821   */\n      add\n        /* \"#utility.yul\":2778:2831   */\n      tag_84\n      jump\t// in\n    tag_132:\n        /* \"#utility.yul\":2768:2831   */\n      swap2\n      pop\n        /* \"#utility.yul\":2724:2841   */\n      pop\n        /* \"#utility.yul\":2519:2848   */\n      swap3\n      swap2\n      pop\n      pop\n      jump\t// out\n        /* \"#utility.yul\":2854:2944   */\n    tag_85:\n        /* \"#utility.yul\":2888:2895   */\n      0x00\n        /* \"#utility.yul\":2931:2936   */\n      dup2\n        /* \"#utility.yul\":2924:2937   */\n      iszero\n        /* \"#utility.yul\":2917:2938   */\n      iszero\n        /* \"#utility.yul\":2906:2938   */\n      swap1\n      pop\n        /* \"#utility.yul\":2854:2944   */\n      swap2\n      swap1\n      pop\n      jump\t// out\n        /* \"#utility.yul\":2950:3059   */\n    tag_86:\n        /* \"#utility.yul\":3031:3052   */\n      tag_135\n        /* \"#utility.yul\":3046:3051   */\n      dup2\n        /* \"#utility.yul\":3031:3052   */\n      tag_85\n      jump\t// in\n    tag_135:\n        /* \"#utility.yul\":3026:3029   */\n      dup3\n        /* \"#utility.yul\":3019:3053   */\n      mstore\n        /* \"#utility.yul\":2950:3059   */\n      pop\n      pop\n      jump\t// out\n        /* \"#utility.yul\":3065:3275   */\n    tag_24:\n        /* \"#utility.yul\":3152:3156   */\n      0x00\n        /* \"#utility.yul\":3190:3192   */\n      0x20\n        /* \"#utility.yul\":3179:3188   */\n      dup3\n        /* \"#utility.yul\":3175:3193   */\n      add\n        /* \"#utility.yul\":3167:3193   */\n      swap1\n      pop\n        /* \"#utility.yul\":3203:3268   */\n      tag_137\n        /* \"#utility.yul\":3265:3266   */\n      0x00\n        /* \"#utility.yul\":3254:3263   */\n      dup4\n        /* \"#utility.yul\":3250:3267   */\n      add\n        /* \"#utility.yul\":3241:3247   */\n      dup5\n        /* \"#utility.yul\":3203:3268   */\n      tag_86\n      jump\t// in\n    tag_137:\n        /* \"#utility.yul\":3065:3275   */\n      swap3\n      swap2\n      pop\n      pop\n      jump\t// out\n        /* \"#utility.yul\":3281:3380   */\n    tag_87:\n        /* \"#utility.yul\":3333:3339   */\n      0x00\n        /* \"#utility.yul\":3367:3372   */\n      dup2\n        /* \"#utility.yul\":3361:3373   */\n      mload\n        /* \"#utility.yul\":3351:3373   */\n      swap1\n      pop\n        /* \"#utility.yul\":3281:3380   */\n      swap2\n      swap1\n      pop\n      jump\t// out\n        /* \"#utility.yul\":3386:3555   */\n    tag_88:\n        /* \"#utility.yul\":3470:3481   */\n      0x00\n        /* \"#utility.yul\":3504:3510   */\n      dup3\n        /* \"#utility.yul\":3499:3502   */\n      dup3\n        /* \"#utility.yul\":3492:3511   */\n      mstore\n        /* \"#utility.yul\":3544:3548   */\n      0x20\n        /* \"#utility.yul\":3539:3542   */\n      dup3\n        /* \"#utility.yul\":3535:3549   */\n      add\n        /* \"#utility.yul\":3520:3549   */\n      swap1\n      pop\n        /* \"#utility.yul\":3386:3555   */\n      swap3\n      swap2\n      pop\n      pop\n      jump\t// out\n        /* \"#utility.yul\":3561:3868   */\n    tag_89:\n        /* \"#utility.yul\":3629:3630   */\n      0x00\n        /* \"#utility.yul\":3639:3752   */\n    tag_141:\n        /* \"#utility.yul\":3653:3659   */\n      dup4\n        /* \"#utility.yul\":3650:3651   */\n      dup2\n        /* \"#utility.yul\":3647:3660   */\n      lt\n        /* \"#utility.yul\":3639:3752   */\n      iszero\n      tag_143\n      jumpi\n        /* \"#utility.yul\":3738:3739   */\n      dup1\n        /* \"#utility.yul\":3733:3736   */\n      dup3\n        /* \"#utility.yul\":3729:3740   */\n      add\n        /* \"#utility.yul\":3723:3741   */\n      mload\n        /* \"#utility.yul\":3719:3720   */\n      dup2\n        /* \"#utility.yul\":3714:3717   */\n      dup5\n        /* \"#utility.yul\":3710:3721   */\n      add\n        /* \"#utility.yul\":3703:3742   */\n      mstore\n        /* \"#utility.yul\":3675:3677   */\n      0x20\n        /* \"#utility.yul\":3672:3673   */\n      dup2\n        /* \"#utility.yul\":3668:3678   */\n      add\n        /* \"#utility.yul\":3663:3678   */\n      swap1\n      pop\n        /* \"#utility.yul\":3639:3752   */\n      jump(tag_141)\n    tag_143:\n        /* \"#utility.yul\":3770:3776   */\n      dup4\n        /* \"#utility.yul\":3767:3768   */\n      dup2\n        /* \"#utility.yul\":3764:3777   */\n      gt\n        /* \"#utility.yul\":3761:3862   */\n      iszero\n      tag_144\n      jumpi\n        /* \"#utility.yul\":3850:3851   */\n      0x00\n        /* \"#utility.yul\":3841:3847   */\n      dup5\n        /* \"#utility.yul\":3836:3839   */\n      dup5\n        /* \"#utility.yul\":3832:3848   */\n      add\n        /* \"#utility.yul\":3825:3852   */\n      mstore\n        /* \"#utility.yul\":3761:3862   */\n    tag_144:\n        /* \"#utility.yul\":3610:3868   */\n      pop\n        /* \"#utility.yul\":3561:3868   */\n      pop\n      pop\n      pop\n      jump\t// out\n        /* \"#utility.yul\":3874:3976   */\n    tag_90:\n        /* \"#utility.yul\":3915:3921   */\n      0x00\n        /* \"#utility.yul\":3966:3968   */\n      0x1f\n        /* \"#utility.yul\":3962:3969   */\n      not\n        /* \"#utility.yul\":3957:3959   */\n      0x1f\n        /* \"#utility.yul\":3950:3955   */\n      dup4\n        /* \"#utility.yul\":3946:3960   */\n      add\n        /* \"#utility.yul\":3942:3970   */\n      and\n        /* \"#utility.yul\":3932:3970   */\n      swap1\n      pop\n        /* \"#utility.yul\":3874:3976   */\n      swap2\n      swap1\n      pop\n      jump\t// out\n        /* \"#utility.yul\":3982:4346   */\n    tag_91:\n        /* \"#utility.yul\":4070:4073   */\n      0x00\n        /* \"#utility.yul\":4098:4137   */\n      tag_147\n        /* \"#utility.yul\":4131:4136   */\n      dup3\n        /* \"#utility.yul\":4098:4137   */\n      tag_87\n      jump\t// in\n    tag_147:\n        /* \"#utility.yul\":4153:4224   */\n      tag_148\n        /* \"#utility.yul\":4217:4223   */\n      dup2\n        /* \"#utility.yul\":4212:4215   */\n      dup6\n        /* \"#utility.yul\":4153:4224   */\n      tag_88\n      jump\t// in\n    tag_148:\n        /* \"#utility.yul\":4146:4224   */\n      swap4\n      pop\n        /* \"#utility.yul\":4233:4285   */\n      tag_149\n        /* \"#utility.yul\":4278:4284   */\n      dup2\n        /* \"#utility.yul\":4273:4276   */\n      dup6\n        /* \"#utility.yul\":4266:4270   */\n      0x20\n        /* \"#utility.yul\":4259:4264   */\n      dup7\n        /* \"#utility.yul\":4255:4271   */\n      add\n        /* \"#utility.yul\":4233:4285   */\n      tag_89\n      jump\t// in\n    tag_149:\n        /* \"#utility.yul\":4310:4339   */\n      tag_150\n        /* \"#utility.yul\":4332:4338   */\n      dup2\n        /* \"#utility.yul\":4310:4339   */\n      tag_90\n      jump\t// in\n    tag_150:\n        /* \"#utility.yul\":4305:4308   */\n      dup5\n        /* \"#utility.yul\":4301:4340   */\n      add\n        /* \"#utility.yul\":4294:4340   */\n      swap2\n      pop\n        /* \"#utility.yul\":4074:4346   */\n      pop\n        /* \"#utility.yul\":3982:4346   */\n      swap3\n      swap2\n      pop\n      pop\n      jump\t// out\n        /* \"#utility.yul\":4352:4665   */\n    tag_29:\n        /* \"#utility.yul\":4465:4469   */\n      0x00\n        /* \"#utility.yul\":4503:4505   */\n      0x20\n        /* \"#utility.yul\":4492:4501   */\n      dup3\n        /* \"#utility.yul\":4488:4506   */\n      add\n        /* \"#utility.yul\":4480:4506   */\n      swap1\n      pop\n        /* \"#utility.yul\":4552:4561   */\n      dup2\n        /* \"#utility.yul\":4546:4550   */\n      dup2\n        /* \"#utility.yul\":4542:4562   */\n      sub\n        /* \"#utility.yul\":4538:4539   */\n      0x00\n        /* \"#utility.yul\":4527:4536   */\n      dup4\n        /* \"#utility.yul\":4523:4540   */\n      add\n        /* \"#utility.yul\":4516:4563   */\n      mstore\n        /* \"#utility.yul\":4580:4658   */\n      tag_152\n        /* \"#utility.yul\":4653:4657   */\n      dup2\n        /* \"#utility.yul\":4644:4650   */\n      dup5\n        /* \"#utility.yul\":4580:4658   */\n      tag_91\n      jump\t// in\n    tag_152:\n        /* \"#utility.yul\":4572:4658   */\n      swap1\n      pop\n        /* \"#utility.yul\":4352:4665   */\n      swap3\n      swap2\n      pop\n      pop\n      jump\t// out\n        /* \"#utility.yul\":4671:4851   */\n    tag_37:\n        /* \"#utility.yul\":4719:4796   */\n      0x4e487b7100000000000000000000000000000000000000000000000000000000\n        /* \"#utility.yul\":4716:4717   */\n      0x00\n        /* \"#utility.yul\":4709:4797   */\n      mstore\n        /* \"#utility.yul\":4816:4820   */\n      0x21\n        /* \"#utility.yul\":4813:4814   */\n      0x04\n        /* \"#utility.yul\":4806:4821   */\n      mstore\n        /* \"#utility.yul\":4840:4844   */\n      0x24\n        /* \"#utility.yul\":4837:4838   */\n      0x00\n        /* \"#utility.yul\":4830:4845   */\n      revert\n        /* \"#utility.yul\":4857:5037   */\n    tag_92:\n        /* \"#utility.yul\":4905:4982   */\n      0x4e487b7100000000000000000000000000000000000000000000000000000000\n        /* \"#utility.yul\":4902:4903   */\n      0x00\n        /* \"#utility.yul\":4895:4983   */\n      mstore\n        /* \"#utility.yul\":5002:5006   */\n      0x11\n        /* \"#utility.yul\":4999:5000   */\n      0x04\n        /* \"#utility.yul\":4992:5007   */\n      mstore\n        /* \"#utility.yul\":5026:5030   */\n      0x24\n        /* \"#utility.yul\":5023:5024   */\n      0x00\n        /* \"#utility.yul\":5016:5031   */\n      revert\n        /* \"#utility.yul\":5043:5348   */\n    tag_55:\n        /* \"#utility.yul\":5083:5086   */\n      0x00\n        /* \"#utility.yul\":5102:5122   */\n      tag_156\n        /* \"#utility.yul\":5120:5121   */\n      dup3\n        /* \"#utility.yul\":5102:5122   */\n      tag_75\n      jump\t// in\n    tag_156:\n        /* \"#utility.yul\":5097:5122   */\n      swap2\n      pop\n        /* \"#utility.yul\":5136:5156   */\n      tag_157\n        /* \"#utility.yul\":5154:5155   */\n      dup4\n        /* \"#utility.yul\":5136:5156   */\n      tag_75\n      jump\t// in\n    tag_157:\n        /* \"#utility.yul\":5131:5156   */\n      swap3\n      pop\n        /* \"#utility.yul\":5290:5291   */\n      dup3\n        /* \"#utility.yul\":5222:5288   */\n      0xffffffffffffffffffffffffffffffffffffffffffffffffffffffffffffffff\n        /* \"#utility.yul\":5218:5292   */\n      sub\n        /* \"#utility.yul\":5215:5216   */\n      dup3\n        /* \"#utility.yul\":5212:5293   */\n      gt\n        /* \"#utility.yul\":5209:5316   */\n      iszero\n      tag_158\n      jumpi\n        /* \"#utility.yul\":5296:5314   */\n      tag_159\n      tag_92\n      jump\t// in\n    tag_159:\n        /* \"#utility.yul\":5209:5316   */\n    tag_158:\n        /* \"#utility.yul\":5340:5341   */\n      dup3\n        /* \"#utility.yul\":5337:5338   */\n      dup3\n        /* \"#utility.yul\":5333:5342   */\n      add\n        /* \"#utility.yul\":5326:5342   */\n      swap1\n      pop\n        /* \"#utility.yul\":5043:5348   */\n      swap3\n      swap2\n      pop\n      pop\n      jump\t// out\n        /* \"#utility.yul\":5354:5587   */\n    tag_59:\n        /* \"#utility.yul\":5393:5396   */\n      0x00\n        /* \"#utility.yul\":5416:5440   */\n      tag_161\n        /* \"#utility.yul\":5434:5439   */\n      dup3\n        /* \"#utility.yul\":5416:5440   */\n      tag_75\n      jump\t// in\n    tag_161:\n        /* \"#utility.yul\":5407:5440   */\n      swap2\n      pop\n        /* \"#utility.yul\":5462:5528   */\n      0xffffffffffffffffffffffffffffffffffffffffffffffffffffffffffffffff\n        /* \"#utility.yul\":5455:5460   */\n      dup3\n        /* \"#utility.yul\":5452:5529   */\n      sub\n        /* \"#utility.yul\":5449:5552   */\n      tag_162\n      jumpi\n        /* \"#utility.yul\":5532:5550   */\n      tag_163\n      tag_92\n      jump\t// in\n    tag_163:\n        /* \"#utility.yul\":5449:5552   */\n    tag_162:\n        /* \"#utility.yul\":5579:5580   */\n      0x01\n        /* \"#utility.yul\":5572:5577   */\n      dup3\n        /* \"#utility.yul\":5568:5581   */\n      add\n        /* \"#utility.yul\":5561:5581   */\n      swap1\n      pop\n        /* \"#utility.yul\":5354:5587   */\n      swap2\n      swap1\n      pop\n      jump\t// out\n        /* \"#utility.yul\":5593:5824   */\n    tag_93:\n        /* \"#utility.yul\":5733:5767   */\n      0x596f7527726520737562736372697074696f6e2069732065787069726564202c\n        /* \"#utility.yul\":5729:5730   */\n      0x00\n        /* \"#utility.yul\":5721:5727   */\n      dup3\n        /* \"#utility.yul\":5717:5731   */\n      add\n        /* \"#utility.yul\":5710:5768   */\n      mstore\n        /* \"#utility.yul\":5802:5816   */\n      0x2041424f5254494e472021210000000000000000000000000000000000000000\n        /* \"#utility.yul\":5797:5799   */\n      0x20\n        /* \"#utility.yul\":5789:5795   */\n      dup3\n        /* \"#utility.yul\":5785:5800   */\n      add\n        /* \"#utility.yul\":5778:5817   */\n      mstore\n        /* \"#utility.yul\":5593:5824   */\n      pop\n      jump\t// out\n        /* \"#utility.yul\":5830:6196   */\n    tag_94:\n        /* \"#utility.yul\":5972:5975   */\n      0x00\n        /* \"#utility.yul\":5993:6060   */\n      tag_166\n        /* \"#utility.yul\":6057:6059   */\n      0x2c\n        /* \"#utility.yul\":6052:6055   */\n      dup4\n        /* \"#utility.yul\":5993:6060   */\n      tag_88\n      jump\t// in\n    tag_166:\n        /* \"#utility.yul\":5986:6060   */\n      swap2\n      pop\n        /* \"#utility.yul\":6069:6162   */\n      tag_167\n        /* \"#utility.yul\":6158:6161   */\n      dup3\n        /* \"#utility.yul\":6069:6162   */\n      tag_93\n      jump\t// in\n    tag_167:\n        /* \"#utility.yul\":6187:6189   */\n      0x40\n        /* \"#utility.yul\":6182:6185   */\n      dup3\n        /* \"#utility.yul\":6178:6190   */\n      add\n        /* \"#utility.yul\":6171:6190   */\n      swap1\n      pop\n        /* \"#utility.yul\":5830:6196   */\n      swap2\n      swap1\n      pop\n      jump\t// out\n        /* \"#utility.yul\":6202:6621   */\n    tag_71:\n        /* \"#utility.yul\":6368:6372   */\n      0x00\n        /* \"#utility.yul\":6406:6408   */\n      0x20\n        /* \"#utility.yul\":6395:6404   */\n      dup3\n        /* \"#utility.yul\":6391:6409   */\n      add\n        /* \"#utility.yul\":6383:6409   */\n      swap1\n      pop\n        /* \"#utility.yul\":6455:6464   */\n      dup2\n        /* \"#utility.yul\":6449:6453   */\n      dup2\n        /* \"#utility.yul\":6445:6465   */\n      sub\n        /* \"#utility.yul\":6441:6442   */\n      0x00\n        /* \"#utility.yul\":6430:6439   */\n      dup4\n        /* \"#utility.yul\":6426:6443   */\n      add\n        /* \"#utility.yul\":6419:6466   */\n      mstore\n        /* \"#utility.yul\":6483:6614   */\n      tag_169\n        /* \"#utility.yul\":6609:6613   */\n      dup2\n        /* \"#utility.yul\":6483:6614   */\n      tag_94\n      jump\t// in\n    tag_169:\n        /* \"#utility.yul\":6475:6614   */\n      swap1\n      pop\n        /* \"#utility.yul\":6202:6621   */\n      swap2\n      swap1\n      pop\n      jump\t// out\n    stop\n    data_585c964bd3e9792422f9ee01cb82353a831cf7a9bd6854bfc38516144c52f07b 5343414d4d4544205375636365737366756c6c79202c204655434b204f4646202121\n\n    auxdata: 0xa264697066735822122057943c8dcac42aa78bf478da4cd5694c91f692b2e62d02835fdacb1d9f4d341f64736f6c634300080f0033\n}\n",
				"bytecode": {
					"linkReferences": {},
					"object": "608060405234801561001057600080fd5b50336000806101000a81548173ffffffffffffffffffffffffffffffffffffffff021916908373ffffffffffffffffffffffffffffffffffffffff16021790555060136002600080600281111561006a5761006961010e565b5b600281111561007c5761007b61010e565b5b815260200190815260200160002081905550602760026000600160028111156100a8576100a761010e565b5b60028111156100ba576100b961010e565b5b8152602001908152602001600020819055506063600260006002808111156100e5576100e461010e565b5b60028111156100f7576100f661010e565b5b81526020019081526020016000208190555061013d565b7f4e487b7100000000000000000000000000000000000000000000000000000000600052602160045260246000fd5b610a568061014c6000396000f3fe60806040526004361061004a5760003560e01c8063086cec911461004f5780631341adc01461006b57806397810097146100a8578063d538a1b0146100e5578063f5676f8f14610110575b600080fd5b6100696004803603810190610064919061064b565b61013b565b005b34801561007757600080fd5b50610092600480360381019061008d919061069d565b610425565b60405161009f91906106d9565b60405180910390f35b3480156100b457600080fd5b506100cf60048036038101906100ca9190610752565b61043d565b6040516100dc919061079a565b60405180910390f35b3480156100f157600080fd5b506100fa610566565b604051610107919061084e565b60405180910390f35b34801561011c57600080fd5b5061012561060a565b60405161013291906106d9565b60405180910390f35b6002600080600281111561015257610151610870565b5b600281111561016457610163610870565b5b8152602001908152602001600020548114806101b75750600260006001600281111561019357610192610870565b5b60028111156101a5576101a4610870565b5b81526020019081526020016000205481145b806101f85750600260006002808111156101d4576101d3610870565b5b60028111156101e6576101e5610870565b5b81526020019081526020016000205481145b61020157600080fd5b6000600460003373ffffffffffffffffffffffffffffffffffffffff1673ffffffffffffffffffffffffffffffffffffffff16815260200190815260200160002060030154036103cd57600060405180604001604052808381526020016003600085815260200190815260200160002060009054906101000a900460ff16600281111561029157610290610870565b5b8152509050600060405180606001604052803373ffffffffffffffffffffffffffffffffffffffff16815260200183815260200162278d00426102d491906108ce565b815250905080600460003373ffffffffffffffffffffffffffffffffffffffff1673ffffffffffffffffffffffffffffffffffffffff16815260200190815260200160002060008201518160000160006101000a81548173ffffffffffffffffffffffffffffffffffffffff021916908373ffffffffffffffffffffffffffffffffffffffff1602179055506020820151816001016000820151816000015560208201518160010160006101000a81548160ff0219169083600281111561039e5761039d610870565b5b0217905550505060408201518160030155905050600160008154809291906103c590610924565b919050555050505b62278d00426103dc91906108ce565b600460003373ffffffffffffffffffffffffffffffffffffffff1673ffffffffffffffffffffffffffffffffffffffff1681526020019081526020016000206003018190555050565b60026020528060005260406000206000915090505481565b600080600460008473ffffffffffffffffffffffffffffffffffffffff1673ffffffffffffffffffffffffffffffffffffffff1681526020019081526020016000206040518060600160405290816000820160009054906101000a900473ffffffffffffffffffffffffffffffffffffffff1673ffffffffffffffffffffffffffffffffffffffff1673ffffffffffffffffffffffffffffffffffffffff16815260200160018201604051806040016040529081600082015481526020016001820160009054906101000a900460ff16600281111561051f5761051e610870565b5b600281111561053157610530610870565b5b8152505081526020016003820154815250509050600081604001511461055b576001915050610561565b60009150505b919050565b6060600460003373ffffffffffffffffffffffffffffffffffffffff1673ffffffffffffffffffffffffffffffffffffffff1681526020019081526020016000206003015442106105ec576040517f08c379a00000000000000000000000000000000000000000000000000000000081526004016105e3906109de565b60405180910390fd5b6040518060600160405280602281526020016109ff60229139905090565b60015481565b600080fd5b6000819050919050565b61062881610615565b811461063357600080fd5b50565b6000813590506106458161061f565b92915050565b60006020828403121561066157610660610610565b5b600061066f84828501610636565b91505092915050565b6003811061068557600080fd5b50565b60008135905061069781610678565b92915050565b6000602082840312156106b3576106b2610610565b5b60006106c184828501610688565b91505092915050565b6106d381610615565b82525050565b60006020820190506106ee60008301846106ca565b92915050565b600073ffffffffffffffffffffffffffffffffffffffff82169050919050565b600061071f826106f4565b9050919050565b61072f81610714565b811461073a57600080fd5b50565b60008135905061074c81610726565b92915050565b60006020828403121561076857610767610610565b5b60006107768482850161073d565b91505092915050565b60008115159050919050565b6107948161077f565b82525050565b60006020820190506107af600083018461078b565b92915050565b600081519050919050565b600082825260208201905092915050565b60005b838110156107ef5780820151818401526020810190506107d4565b838111156107fe576000848401525b50505050565b6000601f19601f8301169050919050565b6000610820826107b5565b61082a81856107c0565b935061083a8185602086016107d1565b61084381610804565b840191505092915050565b600060208201905081810360008301526108688184610815565b905092915050565b7f4e487b7100000000000000000000000000000000000000000000000000000000600052602160045260246000fd5b7f4e487b7100000000000000000000000000000000000000000000000000000000600052601160045260246000fd5b60006108d982610615565b91506108e483610615565b9250827fffffffffffffffffffffffffffffffffffffffffffffffffffffffffffffffff038211156109195761091861089f565b5b828201905092915050565b600061092f82610615565b91507fffffffffffffffffffffffffffffffffffffffffffffffffffffffffffffffff82036109615761096061089f565b5b600182019050919050565b7f596f7527726520737562736372697074696f6e2069732065787069726564202c60008201527f2041424f5254494e472021210000000000000000000000000000000000000000602082015250565b60006109c8602c836107c0565b91506109d38261096c565b604082019050919050565b600060208201905081810360008301526109f7816109bb565b905091905056fe5343414d4d4544205375636365737366756c6c79202c204655434b204f4646202121a264697066735822122057943c8dcac42aa78bf478da4cd5694c91f692b2e62d02835fdacb1d9f4d341f64736f6c634300080f0033",
					"opcodes": "PUSH1 0x80 PUSH1 0x40 MSTORE CALLVALUE DUP1 ISZERO PUSH2 0x10 JUMPI PUSH1 0x0 DUP1 REVERT JUMPDEST POP CALLER PUSH1 0x0 DUP1 PUSH2 0x100 EXP DUP2 SLOAD DUP2 PUSH20 0xFFFFFFFFFFFFFFFFFFFFFFFFFFFFFFFFFFFFFFFF MUL NOT AND SWAP1 DUP4 PUSH20 0xFFFFFFFFFFFFFFFFFFFFFFFFFFFFFFFFFFFFFFFF AND MUL OR SWAP1 SSTORE POP PUSH1 0x13 PUSH1 0x2 PUSH1 0x0 DUP1 PUSH1 0x2 DUP2 GT ISZERO PUSH2 0x6A JUMPI PUSH2 0x69 PUSH2 0x10E JUMP JUMPDEST JUMPDEST PUSH1 0x2 DUP2 GT ISZERO PUSH2 0x7C JUMPI PUSH2 0x7B PUSH2 0x10E JUMP JUMPDEST JUMPDEST DUP2 MSTORE PUSH1 0x20 ADD SWAP1 DUP2 MSTORE PUSH1 0x20 ADD PUSH1 0x0 KECCAK256 DUP2 SWAP1 SSTORE POP PUSH1 0x27 PUSH1 0x2 PUSH1 0x0 PUSH1 0x1 PUSH1 0x2 DUP2 GT ISZERO PUSH2 0xA8 JUMPI PUSH2 0xA7 PUSH2 0x10E JUMP JUMPDEST JUMPDEST PUSH1 0x2 DUP2 GT ISZERO PUSH2 0xBA JUMPI PUSH2 0xB9 PUSH2 0x10E JUMP JUMPDEST JUMPDEST DUP2 MSTORE PUSH1 0x20 ADD SWAP1 DUP2 MSTORE PUSH1 0x20 ADD PUSH1 0x0 KECCAK256 DUP2 SWAP1 SSTORE POP PUSH1 0x63 PUSH1 0x2 PUSH1 0x0 PUSH1 0x2 DUP1 DUP2 GT ISZERO PUSH2 0xE5 JUMPI PUSH2 0xE4 PUSH2 0x10E JUMP JUMPDEST JUMPDEST PUSH1 0x2 DUP2 GT ISZERO PUSH2 0xF7 JUMPI PUSH2 0xF6 PUSH2 0x10E JUMP JUMPDEST JUMPDEST DUP2 MSTORE PUSH1 0x20 ADD SWAP1 DUP2 MSTORE PUSH1 0x20 ADD PUSH1 0x0 KECCAK256 DUP2 SWAP1 SSTORE POP PUSH2 0x13D JUMP JUMPDEST PUSH32 0x4E487B7100000000000000000000000000000000000000000000000000000000 PUSH1 0x0 MSTORE PUSH1 0x21 PUSH1 0x4 MSTORE PUSH1 0x24 PUSH1 0x0 REVERT JUMPDEST PUSH2 0xA56 DUP1 PUSH2 0x14C PUSH1 0x0 CODECOPY PUSH1 0x0 RETURN INVALID PUSH1 0x80 PUSH1 0x40 MSTORE PUSH1 0x4 CALLDATASIZE LT PUSH2 0x4A JUMPI PUSH1 0x0 CALLDATALOAD PUSH1 0xE0 SHR DUP1 PUSH4 0x86CEC91 EQ PUSH2 0x4F JUMPI DUP1 PUSH4 0x1341ADC0 EQ PUSH2 0x6B JUMPI DUP1 PUSH4 0x97810097 EQ PUSH2 0xA8 JUMPI DUP1 PUSH4 0xD538A1B0 EQ PUSH2 0xE5 JUMPI DUP1 PUSH4 0xF5676F8F EQ PUSH2 0x110 JUMPI JUMPDEST PUSH1 0x0 DUP1 REVERT JUMPDEST PUSH2 0x69 PUSH1 0x4 DUP1 CALLDATASIZE SUB DUP2 ADD SWAP1 PUSH2 0x64 SWAP2 SWAP1 PUSH2 0x64B JUMP JUMPDEST PUSH2 0x13B JUMP JUMPDEST STOP JUMPDEST CALLVALUE DUP1 ISZERO PUSH2 0x77 JUMPI PUSH1 0x0 DUP1 REVERT JUMPDEST POP PUSH2 0x92 PUSH1 0x4 DUP1 CALLDATASIZE SUB DUP2 ADD SWAP1 PUSH2 0x8D SWAP2 SWAP1 PUSH2 0x69D JUMP JUMPDEST PUSH2 0x425 JUMP JUMPDEST PUSH1 0x40 MLOAD PUSH2 0x9F SWAP2 SWAP1 PUSH2 0x6D9 JUMP JUMPDEST PUSH1 0x40 MLOAD DUP1 SWAP2 SUB SWAP1 RETURN JUMPDEST CALLVALUE DUP1 ISZERO PUSH2 0xB4 JUMPI PUSH1 0x0 DUP1 REVERT JUMPDEST POP PUSH2 0xCF PUSH1 0x4 DUP1 CALLDATASIZE SUB DUP2 ADD SWAP1 PUSH2 0xCA SWAP2 SWAP1 PUSH2 0x752 JUMP JUMPDEST PUSH2 0x43D JUMP JUMPDEST PUSH1 0x40 MLOAD PUSH2 0xDC SWAP2 SWAP1 PUSH2 0x79A JUMP JUMPDEST PUSH1 0x40 MLOAD DUP1 SWAP2 SUB SWAP1 RETURN JUMPDEST CALLVALUE DUP1 ISZERO PUSH2 0xF1 JUMPI PUSH1 0x0 DUP1 REVERT JUMPDEST POP PUSH2 0xFA PUSH2 0x566 JUMP JUMPDEST PUSH1 0x40 MLOAD PUSH2 0x107 SWAP2 SWAP1 PUSH2 0x84E JUMP JUMPDEST PUSH1 0x40 MLOAD DUP1 SWAP2 SUB SWAP1 RETURN JUMPDEST CALLVALUE DUP1 ISZERO PUSH2 0x11C JUMPI PUSH1 0x0 DUP1 REVERT JUMPDEST POP PUSH2 0x125 PUSH2 0x60A JUMP JUMPDEST PUSH1 0x40 MLOAD PUSH2 0x132 SWAP2 SWAP1 PUSH2 0x6D9 JUMP JUMPDEST PUSH1 0x40 MLOAD DUP1 SWAP2 SUB SWAP1 RETURN JUMPDEST PUSH1 0x2 PUSH1 0x0 DUP1 PUSH1 0x2 DUP2 GT ISZERO PUSH2 0x152 JUMPI PUSH2 0x151 PUSH2 0x870 JUMP JUMPDEST JUMPDEST PUSH1 0x2 DUP2 GT ISZERO PUSH2 0x164 JUMPI PUSH2 0x163 PUSH2 0x870 JUMP JUMPDEST JUMPDEST DUP2 MSTORE PUSH1 0x20 ADD SWAP1 DUP2 MSTORE PUSH1 0x20 ADD PUSH1 0x0 KECCAK256 SLOAD DUP2 EQ DUP1 PUSH2 0x1B7 JUMPI POP PUSH1 0x2 PUSH1 0x0 PUSH1 0x1 PUSH1 0x2 DUP2 GT ISZERO PUSH2 0x193 JUMPI PUSH2 0x192 PUSH2 0x870 JUMP JUMPDEST JUMPDEST PUSH1 0x2 DUP2 GT ISZERO PUSH2 0x1A5 JUMPI PUSH2 0x1A4 PUSH2 0x870 JUMP JUMPDEST JUMPDEST DUP2 MSTORE PUSH1 0x20 ADD SWAP1 DUP2 MSTORE PUSH1 0x20 ADD PUSH1 0x0 KECCAK256 SLOAD DUP2 EQ JUMPDEST DUP1 PUSH2 0x1F8 JUMPI POP PUSH1 0x2 PUSH1 0x0 PUSH1 0x2 DUP1 DUP2 GT ISZERO PUSH2 0x1D4 JUMPI PUSH2 0x1D3 PUSH2 0x870 JUMP JUMPDEST JUMPDEST PUSH1 0x2 DUP2 GT ISZERO PUSH2 0x1E6 JUMPI PUSH2 0x1E5 PUSH2 0x870 JUMP JUMPDEST JUMPDEST DUP2 MSTORE PUSH1 0x20 ADD SWAP1 DUP2 MSTORE PUSH1 0x20 ADD PUSH1 0x0 KECCAK256 SLOAD DUP2 EQ JUMPDEST PUSH2 0x201 JUMPI PUSH1 0x0 DUP1 REVERT JUMPDEST PUSH1 0x0 PUSH1 0x4 PUSH1 0x0 CALLER PUSH20 0xFFFFFFFFFFFFFFFFFFFFFFFFFFFFFFFFFFFFFFFF AND PUSH20 0xFFFFFFFFFFFFFFFFFFFFFFFFFFFFFFFFFFFFFFFF AND DUP2 MSTORE PUSH1 0x20 ADD SWAP1 DUP2 MSTORE PUSH1 0x20 ADD PUSH1 0x0 KECCAK256 PUSH1 0x3 ADD SLOAD SUB PUSH2 0x3CD JUMPI PUSH1 0x0 PUSH1 0x40 MLOAD DUP1 PUSH1 0x40 ADD PUSH1 0x40 MSTORE DUP1 DUP4 DUP2 MSTORE PUSH1 0x20 ADD PUSH1 0x3 PUSH1 0x0 DUP6 DUP2 MSTORE PUSH1 0x20 ADD SWAP1 DUP2 MSTORE PUSH1 0x20 ADD PUSH1 0x0 KECCAK256 PUSH1 0x0 SWAP1 SLOAD SWAP1 PUSH2 0x100 EXP SWAP1 DIV PUSH1 0xFF AND PUSH1 0x2 DUP2 GT ISZERO PUSH2 0x291 JUMPI PUSH2 0x290 PUSH2 0x870 JUMP JUMPDEST JUMPDEST DUP2 MSTORE POP SWAP1 POP PUSH1 0x0 PUSH1 0x40 MLOAD DUP1 PUSH1 0x60 ADD PUSH1 0x40 MSTORE DUP1 CALLER PUSH20 0xFFFFFFFFFFFFFFFFFFFFFFFFFFFFFFFFFFFFFFFF AND DUP2 MSTORE PUSH1 0x20 ADD DUP4 DUP2 MSTORE PUSH1 0x20 ADD PUSH3 0x278D00 TIMESTAMP PUSH2 0x2D4 SWAP2 SWAP1 PUSH2 0x8CE JUMP JUMPDEST DUP2 MSTORE POP SWAP1 POP DUP1 PUSH1 0x4 PUSH1 0x0 CALLER PUSH20 0xFFFFFFFFFFFFFFFFFFFFFFFFFFFFFFFFFFFFFFFF AND PUSH20 0xFFFFFFFFFFFFFFFFFFFFFFFFFFFFFFFFFFFFFFFF AND DUP2 MSTORE PUSH1 0x20 ADD SWAP1 DUP2 MSTORE PUSH1 0x20 ADD PUSH1 0x0 KECCAK256 PUSH1 0x0 DUP3 ADD MLOAD DUP2 PUSH1 0x0 ADD PUSH1 0x0 PUSH2 0x100 EXP DUP2 SLOAD DUP2 PUSH20 0xFFFFFFFFFFFFFFFFFFFFFFFFFFFFFFFFFFFFFFFF MUL NOT AND SWAP1 DUP4 PUSH20 0xFFFFFFFFFFFFFFFFFFFFFFFFFFFFFFFFFFFFFFFF AND MUL OR SWAP1 SSTORE POP PUSH1 0x20 DUP3 ADD MLOAD DUP2 PUSH1 0x1 ADD PUSH1 0x0 DUP3 ADD MLOAD DUP2 PUSH1 0x0 ADD SSTORE PUSH1 0x20 DUP3 ADD MLOAD DUP2 PUSH1 0x1 ADD PUSH1 0x0 PUSH2 0x100 EXP DUP2 SLOAD DUP2 PUSH1 0xFF MUL NOT AND SWAP1 DUP4 PUSH1 0x2 DUP2 GT ISZERO PUSH2 0x39E JUMPI PUSH2 0x39D PUSH2 0x870 JUMP JUMPDEST JUMPDEST MUL OR SWAP1 SSTORE POP POP POP PUSH1 0x40 DUP3 ADD MLOAD DUP2 PUSH1 0x3 ADD SSTORE SWAP1 POP POP PUSH1 0x1 PUSH1 0x0 DUP2 SLOAD DUP1 SWAP3 SWAP2 SWAP1 PUSH2 0x3C5 SWAP1 PUSH2 0x924 JUMP JUMPDEST SWAP2 SWAP1 POP SSTORE POP POP POP JUMPDEST PUSH3 0x278D00 TIMESTAMP PUSH2 0x3DC SWAP2 SWAP1 PUSH2 0x8CE JUMP JUMPDEST PUSH1 0x4 PUSH1 0x0 CALLER PUSH20 0xFFFFFFFFFFFFFFFFFFFFFFFFFFFFFFFFFFFFFFFF AND PUSH20 0xFFFFFFFFFFFFFFFFFFFFFFFFFFFFFFFFFFFFFFFF AND DUP2 MSTORE PUSH1 0x20 ADD SWAP1 DUP2 MSTORE PUSH1 0x20 ADD PUSH1 0x0 KECCAK256 PUSH1 0x3 ADD DUP2 SWAP1 SSTORE POP POP JUMP JUMPDEST PUSH1 0x2 PUSH1 0x20 MSTORE DUP1 PUSH1 0x0 MSTORE PUSH1 0x40 PUSH1 0x0 KECCAK256 PUSH1 0x0 SWAP2 POP SWAP1 POP SLOAD DUP2 JUMP JUMPDEST PUSH1 0x0 DUP1 PUSH1 0x4 PUSH1 0x0 DUP5 PUSH20 0xFFFFFFFFFFFFFFFFFFFFFFFFFFFFFFFFFFFFFFFF AND PUSH20 0xFFFFFFFFFFFFFFFFFFFFFFFFFFFFFFFFFFFFFFFF AND DUP2 MSTORE PUSH1 0x20 ADD SWAP1 DUP2 MSTORE PUSH1 0x20 ADD PUSH1 0x0 KECCAK256 PUSH1 0x40 MLOAD DUP1 PUSH1 0x60 ADD PUSH1 0x40 MSTORE SWAP1 DUP2 PUSH1 0x0 DUP3 ADD PUSH1 0x0 SWAP1 SLOAD SWAP1 PUSH2 0x100 EXP SWAP1 DIV PUSH20 0xFFFFFFFFFFFFFFFFFFFFFFFFFFFFFFFFFFFFFFFF AND PUSH20 0xFFFFFFFFFFFFFFFFFFFFFFFFFFFFFFFFFFFFFFFF AND PUSH20 0xFFFFFFFFFFFFFFFFFFFFFFFFFFFFFFFFFFFFFFFF AND DUP2 MSTORE PUSH1 0x20 ADD PUSH1 0x1 DUP3 ADD PUSH1 0x40 MLOAD DUP1 PUSH1 0x40 ADD PUSH1 0x40 MSTORE SWAP1 DUP2 PUSH1 0x0 DUP3 ADD SLOAD DUP2 MSTORE PUSH1 0x20 ADD PUSH1 0x1 DUP3 ADD PUSH1 0x0 SWAP1 SLOAD SWAP1 PUSH2 0x100 EXP SWAP1 DIV PUSH1 0xFF AND PUSH1 0x2 DUP2 GT ISZERO PUSH2 0x51F JUMPI PUSH2 0x51E PUSH2 0x870 JUMP JUMPDEST JUMPDEST PUSH1 0x2 DUP2 GT ISZERO PUSH2 0x531 JUMPI PUSH2 0x530 PUSH2 0x870 JUMP JUMPDEST JUMPDEST DUP2 MSTORE POP POP DUP2 MSTORE PUSH1 0x20 ADD PUSH1 0x3 DUP3 ADD SLOAD DUP2 MSTORE POP POP SWAP1 POP PUSH1 0x0 DUP2 PUSH1 0x40 ADD MLOAD EQ PUSH2 0x55B JUMPI PUSH1 0x1 SWAP2 POP POP PUSH2 0x561 JUMP JUMPDEST PUSH1 0x0 SWAP2 POP POP JUMPDEST SWAP2 SWAP1 POP JUMP JUMPDEST PUSH1 0x60 PUSH1 0x4 PUSH1 0x0 CALLER PUSH20 0xFFFFFFFFFFFFFFFFFFFFFFFFFFFFFFFFFFFFFFFF AND PUSH20 0xFFFFFFFFFFFFFFFFFFFFFFFFFFFFFFFFFFFFFFFF AND DUP2 MSTORE PUSH1 0x20 ADD SWAP1 DUP2 MSTORE PUSH1 0x20 ADD PUSH1 0x0 KECCAK256 PUSH1 0x3 ADD SLOAD TIMESTAMP LT PUSH2 0x5EC JUMPI PUSH1 0x40 MLOAD PUSH32 0x8C379A000000000000000000000000000000000000000000000000000000000 DUP2 MSTORE PUSH1 0x4 ADD PUSH2 0x5E3 SWAP1 PUSH2 0x9DE JUMP JUMPDEST PUSH1 0x40 MLOAD DUP1 SWAP2 SUB SWAP1 REVERT JUMPDEST PUSH1 0x40 MLOAD DUP1 PUSH1 0x60 ADD PUSH1 0x40 MSTORE DUP1 PUSH1 0x22 DUP2 MSTORE PUSH1 0x20 ADD PUSH2 0x9FF PUSH1 0x22 SWAP2 CODECOPY SWAP1 POP SWAP1 JUMP JUMPDEST PUSH1 0x1 SLOAD DUP2 JUMP JUMPDEST PUSH1 0x0 DUP1 REVERT JUMPDEST PUSH1 0x0 DUP2 SWAP1 POP SWAP2 SWAP1 POP JUMP JUMPDEST PUSH2 0x628 DUP2 PUSH2 0x615 JUMP JUMPDEST DUP2 EQ PUSH2 0x633 JUMPI PUSH1 0x0 DUP1 REVERT JUMPDEST POP JUMP JUMPDEST PUSH1 0x0 DUP2 CALLDATALOAD SWAP1 POP PUSH2 0x645 DUP2 PUSH2 0x61F JUMP JUMPDEST SWAP3 SWAP2 POP POP JUMP JUMPDEST PUSH1 0x0 PUSH1 0x20 DUP3 DUP5 SUB SLT ISZERO PUSH2 0x661 JUMPI PUSH2 0x660 PUSH2 0x610 JUMP JUMPDEST JUMPDEST PUSH1 0x0 PUSH2 0x66F DUP5 DUP3 DUP6 ADD PUSH2 0x636 JUMP JUMPDEST SWAP2 POP POP SWAP3 SWAP2 POP POP JUMP JUMPDEST PUSH1 0x3 DUP2 LT PUSH2 0x685 JUMPI PUSH1 0x0 DUP1 REVERT JUMPDEST POP JUMP JUMPDEST PUSH1 0x0 DUP2 CALLDATALOAD SWAP1 POP PUSH2 0x697 DUP2 PUSH2 0x678 JUMP JUMPDEST SWAP3 SWAP2 POP POP JUMP JUMPDEST PUSH1 0x0 PUSH1 0x20 DUP3 DUP5 SUB SLT ISZERO PUSH2 0x6B3 JUMPI PUSH2 0x6B2 PUSH2 0x610 JUMP JUMPDEST JUMPDEST PUSH1 0x0 PUSH2 0x6C1 DUP5 DUP3 DUP6 ADD PUSH2 0x688 JUMP JUMPDEST SWAP2 POP POP SWAP3 SWAP2 POP POP JUMP JUMPDEST PUSH2 0x6D3 DUP2 PUSH2 0x615 JUMP JUMPDEST DUP3 MSTORE POP POP JUMP JUMPDEST PUSH1 0x0 PUSH1 0x20 DUP3 ADD SWAP1 POP PUSH2 0x6EE PUSH1 0x0 DUP4 ADD DUP5 PUSH2 0x6CA JUMP JUMPDEST SWAP3 SWAP2 POP POP JUMP JUMPDEST PUSH1 0x0 PUSH20 0xFFFFFFFFFFFFFFFFFFFFFFFFFFFFFFFFFFFFFFFF DUP3 AND SWAP1 POP SWAP2 SWAP1 POP JUMP JUMPDEST PUSH1 0x0 PUSH2 0x71F DUP3 PUSH2 0x6F4 JUMP JUMPDEST SWAP1 POP SWAP2 SWAP1 POP JUMP JUMPDEST PUSH2 0x72F DUP2 PUSH2 0x714 JUMP JUMPDEST DUP2 EQ PUSH2 0x73A JUMPI PUSH1 0x0 DUP1 REVERT JUMPDEST POP JUMP JUMPDEST PUSH1 0x0 DUP2 CALLDATALOAD SWAP1 POP PUSH2 0x74C DUP2 PUSH2 0x726 JUMP JUMPDEST SWAP3 SWAP2 POP POP JUMP JUMPDEST PUSH1 0x0 PUSH1 0x20 DUP3 DUP5 SUB SLT ISZERO PUSH2 0x768 JUMPI PUSH2 0x767 PUSH2 0x610 JUMP JUMPDEST JUMPDEST PUSH1 0x0 PUSH2 0x776 DUP5 DUP3 DUP6 ADD PUSH2 0x73D JUMP JUMPDEST SWAP2 POP POP SWAP3 SWAP2 POP POP JUMP JUMPDEST PUSH1 0x0 DUP2 ISZERO ISZERO SWAP1 POP SWAP2 SWAP1 POP JUMP JUMPDEST PUSH2 0x794 DUP2 PUSH2 0x77F JUMP JUMPDEST DUP3 MSTORE POP POP JUMP JUMPDEST PUSH1 0x0 PUSH1 0x20 DUP3 ADD SWAP1 POP PUSH2 0x7AF PUSH1 0x0 DUP4 ADD DUP5 PUSH2 0x78B JUMP JUMPDEST SWAP3 SWAP2 POP POP JUMP JUMPDEST PUSH1 0x0 DUP2 MLOAD SWAP1 POP SWAP2 SWAP1 POP JUMP JUMPDEST PUSH1 0x0 DUP3 DUP3 MSTORE PUSH1 0x20 DUP3 ADD SWAP1 POP SWAP3 SWAP2 POP POP JUMP JUMPDEST PUSH1 0x0 JUMPDEST DUP4 DUP2 LT ISZERO PUSH2 0x7EF JUMPI DUP1 DUP3 ADD MLOAD DUP2 DUP5 ADD MSTORE PUSH1 0x20 DUP2 ADD SWAP1 POP PUSH2 0x7D4 JUMP JUMPDEST DUP4 DUP2 GT ISZERO PUSH2 0x7FE JUMPI PUSH1 0x0 DUP5 DUP5 ADD MSTORE JUMPDEST POP POP POP POP JUMP JUMPDEST PUSH1 0x0 PUSH1 0x1F NOT PUSH1 0x1F DUP4 ADD AND SWAP1 POP SWAP2 SWAP1 POP JUMP JUMPDEST PUSH1 0x0 PUSH2 0x820 DUP3 PUSH2 0x7B5 JUMP JUMPDEST PUSH2 0x82A DUP2 DUP6 PUSH2 0x7C0 JUMP JUMPDEST SWAP4 POP PUSH2 0x83A DUP2 DUP6 PUSH1 0x20 DUP7 ADD PUSH2 0x7D1 JUMP JUMPDEST PUSH2 0x843 DUP2 PUSH2 0x804 JUMP JUMPDEST DUP5 ADD SWAP2 POP POP SWAP3 SWAP2 POP POP JUMP JUMPDEST PUSH1 0x0 PUSH1 0x20 DUP3 ADD SWAP1 POP DUP2 DUP2 SUB PUSH1 0x0 DUP4 ADD MSTORE PUSH2 0x868 DUP2 DUP5 PUSH2 0x815 JUMP JUMPDEST SWAP1 POP SWAP3 SWAP2 POP POP JUMP JUMPDEST PUSH32 0x4E487B7100000000000000000000000000000000000000000000000000000000 PUSH1 0x0 MSTORE PUSH1 0x21 PUSH1 0x4 MSTORE PUSH1 0x24 PUSH1 0x0 REVERT JUMPDEST PUSH32 0x4E487B7100000000000000000000000000000000000000000000000000000000 PUSH1 0x0 MSTORE PUSH1 0x11 PUSH1 0x4 MSTORE PUSH1 0x24 PUSH1 0x0 REVERT JUMPDEST PUSH1 0x0 PUSH2 0x8D9 DUP3 PUSH2 0x615 JUMP JUMPDEST SWAP2 POP PUSH2 0x8E4 DUP4 PUSH2 0x615 JUMP JUMPDEST SWAP3 POP DUP3 PUSH32 0xFFFFFFFFFFFFFFFFFFFFFFFFFFFFFFFFFFFFFFFFFFFFFFFFFFFFFFFFFFFFFFFF SUB DUP3 GT ISZERO PUSH2 0x919 JUMPI PUSH2 0x918 PUSH2 0x89F JUMP JUMPDEST JUMPDEST DUP3 DUP3 ADD SWAP1 POP SWAP3 SWAP2 POP POP JUMP JUMPDEST PUSH1 0x0 PUSH2 0x92F DUP3 PUSH2 0x615 JUMP JUMPDEST SWAP2 POP PUSH32 0xFFFFFFFFFFFFFFFFFFFFFFFFFFFFFFFFFFFFFFFFFFFFFFFFFFFFFFFFFFFFFFFF DUP3 SUB PUSH2 0x961 JUMPI PUSH2 0x960 PUSH2 0x89F JUMP JUMPDEST JUMPDEST PUSH1 0x1 DUP3 ADD SWAP1 POP SWAP2 SWAP1 POP JUMP JUMPDEST PUSH32 0x596F7527726520737562736372697074696F6E2069732065787069726564202C PUSH1 0x0 DUP3 ADD MSTORE PUSH32 0x2041424F5254494E472021210000000000000000000000000000000000000000 PUSH1 0x20 DUP3 ADD MSTORE POP JUMP JUMPDEST PUSH1 0x0 PUSH2 0x9C8 PUSH1 0x2C DUP4 PUSH2 0x7C0 JUMP JUMPDEST SWAP2 POP PUSH2 0x9D3 DUP3 PUSH2 0x96C JUMP JUMPDEST PUSH1 0x40 DUP3 ADD SWAP1 POP SWAP2 SWAP1 POP JUMP JUMPDEST PUSH1 0x0 PUSH1 0x20 DUP3 ADD SWAP1 POP DUP2 DUP2 SUB PUSH1 0x0 DUP4 ADD MSTORE PUSH2 0x9F7 DUP2 PUSH2 0x9BB JUMP JUMPDEST SWAP1 POP SWAP2 SWAP1 POP JUMP INVALID MSTORE8 NUMBER COINBASE 0x4D 0x4D GASLIMIT DIFFICULTY KECCAK256 MSTORE8 PUSH22 0x636365737366756C6C79202C204655434B204F464620 0x21 0x21 LOG2 PUSH5 0x6970667358 0x22 SLT KECCAK256 JUMPI SWAP5 EXTCODECOPY DUP14 0xCA 0xC4 0x2A 0xA7 DUP12 DELEGATECALL PUSH25 0xDA4CD5694C91F692B2E62D02835FDACB1D9F4D341F64736F6C PUSH4 0x4300080F STOP CALLER "
				},
				"gasEstimates": {
					"creation": {
						"codeDepositCost": "529200",
						"executionCost": "91572",
						"totalCost": "620772"
					},
					"external": {
						"getOrUpdateSubscription(uint256)": "infinite",
						"isAddressSubscribed(address)": "9531",
						"planCosts(uint8)": "2722",
						"subscriptionProtectedService()": "infinite",
						"totalSubs()": "2495"
					}
				},
				"methodIdentifiers": {
					"getOrUpdateSubscription(uint256)": "086cec91",
					"isAddressSubscribed(address)": "97810097",
					"planCosts(uint8)": "1341adc0",
					"subscriptionProtectedService()": "d538a1b0",
					"totalSubs()": "f5676f8f"
				}
			},
			"storageLayout": {
				"storage": [
					{
						"astId": 21,
						"contract": "contracts/subscriptionsystem.sol:SubscriptionContract",
						"label": "owner",
						"offset": 0,
						"slot": "0",
						"type": "t_address_payable"
					},
					{
						"astId": 23,
						"contract": "contracts/subscriptionsystem.sol:SubscriptionContract",
						"label": "totalSubs",
						"offset": 0,
						"slot": "1",
						"type": "t_uint256"
					},
					{
						"astId": 28,
						"contract": "contracts/subscriptionsystem.sol:SubscriptionContract",
						"label": "planCosts",
						"offset": 0,
						"slot": "2",
						"type": "t_mapping(t_enum(planType)5,t_uint256)"
					},
					{
						"astId": 33,
						"contract": "contracts/subscriptionsystem.sol:SubscriptionContract",
						"label": "specificPlan",
						"offset": 0,
						"slot": "3",
						"type": "t_mapping(t_uint256,t_enum(planType)5)"
					},
					{
						"astId": 38,
						"contract": "contracts/subscriptionsystem.sol:SubscriptionContract",
						"label": "subscriptions",
						"offset": 0,
						"slot": "4",
						"type": "t_mapping(t_address,t_struct(subscritionInfo)19_storage)"
					}
				],
				"types": {
					"t_address": {
						"encoding": "inplace",
						"label": "address",
						"numberOfBytes": "20"
					},
					"t_address_payable": {
						"encoding": "inplace",
						"label": "address payable",
						"numberOfBytes": "20"
					},
					"t_enum(planType)5": {
						"encoding": "inplace",
						"label": "enum SubscriptionContract.planType",
						"numberOfBytes": "1"
					},
					"t_mapping(t_address,t_struct(subscritionInfo)19_storage)": {
						"encoding": "mapping",
						"key": "t_address",
						"label": "mapping(address => struct SubscriptionContract.subscritionInfo)",
						"numberOfBytes": "32",
						"value": "t_struct(subscritionInfo)19_storage"
					},
					"t_mapping(t_enum(planType)5,t_uint256)": {
						"encoding": "mapping",
						"key": "t_enum(planType)5",
						"label": "mapping(enum SubscriptionContract.planType => uint256)",
						"numberOfBytes": "32",
						"value": "t_uint256"
					},
					"t_mapping(t_uint256,t_enum(planType)5)": {
						"encoding": "mapping",
						"key": "t_uint256",
						"label": "mapping(uint256 => enum SubscriptionContract.planType)",
						"numberOfBytes": "32",
						"value": "t_enum(planType)5"
					},
					"t_struct(plan)11_storage": {
						"encoding": "inplace",
						"label": "struct SubscriptionContract.plan",
						"members": [
							{
								"astId": 7,
								"contract": "contracts/subscriptionsystem.sol:SubscriptionContract",
								"label": "monthlyCost",
								"offset": 0,
								"slot": "0",
								"type": "t_uint256"
							},
							{
								"astId": 10,
								"contract": "contracts/subscriptionsystem.sol:SubscriptionContract",
								"label": "planName",
								"offset": 0,
								"slot": "1",
								"type": "t_enum(planType)5"
							}
						],
						"numberOfBytes": "64"
					},
					"t_struct(subscritionInfo)19_storage": {
						"encoding": "inplace",
						"label": "struct SubscriptionContract.subscritionInfo",
						"members": [
							{
								"astId": 13,
								"contract": "contracts/subscriptionsystem.sol:SubscriptionContract",
								"label": "subscribedBy",
								"offset": 0,
								"slot": "0",
								"type": "t_address"
							},
							{
								"astId": 16,
								"contract": "contracts/subscriptionsystem.sol:SubscriptionContract",
								"label": "PlanBought",
								"offset": 0,
								"slot": "1",
								"type": "t_struct(plan)11_storage"
							},
							{
								"astId": 18,
								"contract": "contracts/subscriptionsystem.sol:SubscriptionContract",
								"label": "expiry",
								"offset": 0,
								"slot": "3",
								"type": "t_uint256"
							}
						],
						"numberOfBytes": "128"
					},
					"t_uint256": {
						"encoding": "inplace",
						"label": "uint256",
						"numberOfBytes": "32"
					}
				}
			},
			"userdoc": {
				"kind": "user",
				"methods": {},
				"version": 1
			}
		}
	}
}