{
	"data": {
		"bytecode": {
			"linkReferences": {},
			"object": "608060405267016345785d8a0000600a556702c68af0bb140000600b55348015610027575f80fd5b506040516134143803806134148339818101604052810190610049919061029e565b6040518060400160405280600c81526020017f4c6f79616c6974794361726400000000000000000000000000000000000000008152506040518060400160405280600381526020017f4c4c430000000000000000000000000000000000000000000000000000000000815250825f73ffffffffffffffffffffffffffffffffffffffff168173ffffffffffffffffffffffffffffffffffffffff1603610126575f6040517f1e4fbdf700000000000000000000000000000000000000000000000000000000815260040161011d91906102d8565b60405180910390fd5b6101358161017f60201b60201c565b508160019081610145919061052b565b508060029081610155919061052b565b5050505f60075f6101000a81548160ff0219169083151502179055506001600881905550506105fa565b5f805f9054906101000a900473ffffffffffffffffffffffffffffffffffffffff169050815f806101000a81548173ffffffffffffffffffffffffffffffffffffffff021916908373ffffffffffffffffffffffffffffffffffffffff1602179055508173ffffffffffffffffffffffffffffffffffffffff168173ffffffffffffffffffffffffffffffffffffffff167f8be0079c531659141344cd1fd0a4f28419497f9722a3daafe3b4186f6b6457e060405160405180910390a35050565b5f80fd5b5f73ffffffffffffffffffffffffffffffffffffffff82169050919050565b5f61026d82610244565b9050919050565b61027d81610263565b8114610287575f80fd5b50565b5f8151905061029881610274565b92915050565b5f602082840312156102b3576102b2610240565b5b5f6102c08482850161028a565b91505092915050565b6102d281610263565b82525050565b5f6020820190506102eb5f8301846102c9565b92915050565b5f81519050919050565b7f4e487b71000000000000000000000000000000000000000000000000000000005f52604160045260245ffd5b7f4e487b71000000000000000000000000000000000000000000000000000000005f52602260045260245ffd5b5f600282049050600182168061036c57607f821691505b60208210810361037f5761037e610328565b5b50919050565b5f819050815f5260205f209050919050565b5f6020601f8301049050919050565b5f82821b905092915050565b5f600883026103e17fffffffffffffffffffffffffffffffffffffffffffffffffffffffffffffffff826103a6565b6103eb86836103a6565b95508019841693508086168417925050509392505050565b5f819050919050565b5f819050919050565b5f61042f61042a61042584610403565b61040c565b610403565b9050919050565b5f819050919050565b61044883610415565b61045c61045482610436565b8484546103b2565b825550505050565b5f90565b610470610464565b61047b81848461043f565b505050565b5b8181101561049e576104935f82610468565b600181019050610481565b5050565b601f8211156104e3576104b481610385565b6104bd84610397565b810160208510156104cc578190505b6104e06104d885610397565b830182610480565b50505b505050565b5f82821c905092915050565b5f6105035f19846008026104e8565b1980831691505092915050565b5f61051b83836104f4565b9150826002028217905092915050565b610534826102f1565b67ffffffffffffffff81111561054d5761054c6102fb565b5b6105578254610355565b6105628282856104a2565b5f60209050601f831160018114610593575f8415610581578287015190505b61058b8582610510565b8655506105f2565b601f1984166105a186610385565b5f5b828110156105c8578489015182556001820191506020850194506020810190506105a3565b868310156105e557848901516105e1601f8916826104f4565b8355505b6001600288020188555050505b505050505050565b612e0d806106075f395ff3fe6080604052600436106101b6575f3560e01c8063715018a6116100eb578063bfab3db911610089578063ce21270e11610063578063ce21270e14610598578063d338b03c146105c2578063e985e9c5146105de578063f2fde38b1461061a576101b6565b8063bfab3db914610530578063c4ae316814610546578063c87b56dd1461055c576101b6565b80638da5cb5b116100c55780638da5cb5b1461048c57806395d89b41146104b6578063a22cb465146104e0578063b88d4fde14610508576101b6565b8063715018a6146104265780637cb647591461043c5780638c9ce82d14610464576101b6565b80632eb4a7ab116101585780635c975abb116101325780635c975abb1461035a5780636352211e1461038457806365c8e850146103c057806370a08231146103ea576101b6565b80632eb4a7ab146102e05780633a1f2c8c1461030a57806342842e0e14610332576101b6565b8063095ea7b311610194578063095ea7b31461025c5780630d1360161461028457806323b872dd146102ae5780632abadeca146102d6576101b6565b806301ffc9a7146101ba57806306fdde03146101f6578063081812fc14610220575b5f80fd5b3480156101c5575f80fd5b506101e060048036038101906101db91906121da565b610642565b6040516101ed919061221f565b60405180910390f35b348015610201575f80fd5b5061020a610723565b60405161021791906122a8565b60405180910390f35b34801561022b575f80fd5b50610246600480360381019061024191906122fb565b6107b3565b6040516102539190612365565b60405180910390f35b348015610267575f80fd5b50610282600480360381019061027d91906123a8565b6107ce565b005b34801561028f575f80fd5b506102986107e4565b6040516102a591906123f5565b60405180910390f35b3480156102b9575f80fd5b506102d460048036038101906102cf919061240e565b6107ea565b005b6102de6108e9565b005b3480156102eb575f80fd5b506102f46109a6565b6040516103019190612476565b60405180910390f35b348015610315575f80fd5b50610330600480360381019061032b91906122fb565b6109ac565b005b34801561033d575f80fd5b506103586004803603810190610353919061240e565b6109be565b005b348015610365575f80fd5b5061036e6109dd565b60405161037b919061221f565b60405180910390f35b34801561038f575f80fd5b506103aa60048036038101906103a591906122fb565b6109f2565b6040516103b79190612365565b60405180910390f35b3480156103cb575f80fd5b506103d4610a03565b6040516103e191906123f5565b60405180910390f35b3480156103f5575f80fd5b50610410600480360381019061040b919061248f565b610a08565b60405161041d91906123f5565b60405180910390f35b348015610431575f80fd5b5061043a610abe565b005b348015610447575f80fd5b50610462600480360381019061045d91906124e4565b610ad1565b005b34801561046f575f80fd5b5061048a600480360381019061048591906122fb565b610ae3565b005b348015610497575f80fd5b506104a0610af5565b6040516104ad9190612365565b60405180910390f35b3480156104c1575f80fd5b506104ca610b1c565b6040516104d791906122a8565b60405180910390f35b3480156104eb575f80fd5b5061050660048036038101906105019190612539565b610bac565b005b348015610513575f80fd5b5061052e600480360381019061052991906126a3565b610bc2565b005b34801561053b575f80fd5b50610544610be7565b005b348015610551575f80fd5b5061055a610c4c565b005b348015610567575f80fd5b50610582600480360381019061057d91906122fb565b610c79565b60405161058f91906122a8565b60405180910390f35b3480156105a3575f80fd5b506105ac610cdf565b6040516105b991906123f5565b60405180910390f35b6105dc60048036038101906105d79190612780565b610ce5565b005b3480156105e9575f80fd5b5061060460048036038101906105ff91906127cb565b610f39565b604051610611919061221f565b60405180910390f35b348015610625575f80fd5b50610640600480360381019061063b919061248f565b610fc7565b005b5f7f80ac58cd000000000000000000000000000000000000000000000000000000007bffffffffffffffffffffffffffffffffffffffffffffffffffffffff1916827bffffffffffffffffffffffffffffffffffffffffffffffffffffffff1916148061070c57507f5b5e139f000000000000000000000000000000000000000000000000000000007bffffffffffffffffffffffffffffffffffffffffffffffffffffffff1916827bffffffffffffffffffffffffffffffffffffffffffffffffffffffff1916145b8061071c575061071b8261104b565b5b9050919050565b60606001805461073290612836565b80601f016020809104026020016040519081016040528092919081815260200182805461075e90612836565b80156107a95780601f10610780576101008083540402835291602001916107a9565b820191905f5260205f20905b81548152906001019060200180831161078c57829003601f168201915b5050505050905090565b5f6107bd826110b4565b506107c78261113a565b9050919050565b6107e082826107db611173565b61117a565b5050565b600a5481565b5f73ffffffffffffffffffffffffffffffffffffffff168273ffffffffffffffffffffffffffffffffffffffff160361085a575f6040517f64a0ae920000000000000000000000000000000000000000000000000000000081526004016108519190612365565b60405180910390fd5b5f61086d8383610868611173565b61118c565b90508373ffffffffffffffffffffffffffffffffffffffff168173ffffffffffffffffffffffffffffffffffffffff16146108e3578382826040517f64283d7b0000000000000000000000000000000000000000000000000000000081526004016108da93929190612866565b60405180910390fd5b50505050565b6108f1611397565b60646108fd60096113e1565b111561093e576040517f08c379a0000000000000000000000000000000000000000000000000000000008152600401610935906128e5565b60405180910390fd5b600b543414610982576040517f08c379a000000000000000000000000000000000000000000000000000000000815260040161097990612973565b60405180910390fd5b61098c60096113ed565b5f61099760096113e1565b90506109a33382611401565b50565b600c5481565b6109b46114f4565b80600b8190555050565b6109d883838360405180602001604052805f815250610bc2565b505050565b5f60075f9054906101000a900460ff16905090565b5f6109fc826110b4565b9050919050565b606481565b5f8073ffffffffffffffffffffffffffffffffffffffff168273ffffffffffffffffffffffffffffffffffffffff1603610a79575f6040517f89c62b64000000000000000000000000000000000000000000000000000000008152600401610a709190612365565b60405180910390fd5b60045f8373ffffffffffffffffffffffffffffffffffffffff1673ffffffffffffffffffffffffffffffffffffffff1681526020019081526020015f20549050919050565b610ac66114f4565b610acf5f61157b565b565b610ad96114f4565b80600c8190555050565b610aeb6114f4565b80600a8190555050565b5f805f9054906101000a900473ffffffffffffffffffffffffffffffffffffffff16905090565b606060028054610b2b90612836565b80601f0160208091040260200160405190810160405280929190818152602001828054610b5790612836565b8015610ba25780601f10610b7957610100808354040283529160200191610ba2565b820191905f5260205f20905b815481529060010190602001808311610b8557829003601f168201915b5050505050905090565b610bbe610bb7611173565b838361163c565b5050565b610bcd8484846107ea565b610be1610bd8611173565b85858585611815565b50505050565b610bef6114f4565b610bf76119c1565b610bff610af5565b73ffffffffffffffffffffffffffffffffffffffff166108fc4790811502906040515f60405180830381858888f19350505050158015610c41573d5f803e3d5ffd5b50610c4a611a10565b565b610c546114f4565b610c5c6109dd565b15610c6e57610c69611a1a565b610c77565b610c76611a7b565b5b565b6060610c84826110b4565b505f610c8e611add565b90505f815111610cac5760405180602001604052805f815250610cd7565b80610cb684611af3565b604051602001610cc79291906129cb565b6040516020818303038152906040525b915050919050565b600b5481565b610ced611397565b6064610cf960096113e1565b10610d39576040517f08c379a0000000000000000000000000000000000000000000000000000000008152600401610d30906128e5565b60405180910390fd5b600a543414610d7d576040517f08c379a0000000000000000000000000000000000000000000000000000000008152600401610d7490612973565b60405180910390fd5b5f33604051602001610d8f9190612a33565b604051602081830303815290604052805190602001209050610df48383808060200260200160405190810160405280939291908181526020018383602002808284375f81840152601f19601f82011690508083019250505050505050600c5483611bbd565b610e33576040517f08c379a0000000000000000000000000000000000000000000000000000000008152600401610e2a90612abd565b60405180910390fd5b600d5f3373ffffffffffffffffffffffffffffffffffffffff1673ffffffffffffffffffffffffffffffffffffffff1681526020019081526020015f205f9054906101000a900460ff1615610ebd576040517f08c379a0000000000000000000000000000000000000000000000000000000008152600401610eb490612b25565b60405180910390fd5b610ec760096113ed565b5f610ed260096113e1565b9050610ede3382611401565b6001600d5f3373ffffffffffffffffffffffffffffffffffffffff1673ffffffffffffffffffffffffffffffffffffffff1681526020019081526020015f205f6101000a81548160ff02191690831515021790555050505050565b5f60065f8473ffffffffffffffffffffffffffffffffffffffff1673ffffffffffffffffffffffffffffffffffffffff1681526020019081526020015f205f8373ffffffffffffffffffffffffffffffffffffffff1673ffffffffffffffffffffffffffffffffffffffff1681526020019081526020015f205f9054906101000a900460ff16905092915050565b610fcf6114f4565b5f73ffffffffffffffffffffffffffffffffffffffff168173ffffffffffffffffffffffffffffffffffffffff160361103f575f6040517f1e4fbdf70000000000000000000000000000000000000000000000000000000081526004016110369190612365565b60405180910390fd5b6110488161157b565b50565b5f7f01ffc9a7000000000000000000000000000000000000000000000000000000007bffffffffffffffffffffffffffffffffffffffffffffffffffffffff1916827bffffffffffffffffffffffffffffffffffffffffffffffffffffffff1916149050919050565b5f806110bf83611bd3565b90505f73ffffffffffffffffffffffffffffffffffffffff168173ffffffffffffffffffffffffffffffffffffffff160361113157826040517f7e27328900000000000000000000000000000000000000000000000000000000815260040161112891906123f5565b60405180910390fd5b80915050919050565b5f60055f8381526020019081526020015f205f9054906101000a900473ffffffffffffffffffffffffffffffffffffffff169050919050565b5f33905090565b6111878383836001611c0c565b505050565b5f8061119784611bd3565b90505f73ffffffffffffffffffffffffffffffffffffffff168373ffffffffffffffffffffffffffffffffffffffff16146111d8576111d7818486611dcb565b5b5f73ffffffffffffffffffffffffffffffffffffffff168173ffffffffffffffffffffffffffffffffffffffff1614611263576112175f855f80611c0c565b600160045f8373ffffffffffffffffffffffffffffffffffffffff1673ffffffffffffffffffffffffffffffffffffffff1681526020019081526020015f205f82825403925050819055505b5f73ffffffffffffffffffffffffffffffffffffffff168573ffffffffffffffffffffffffffffffffffffffff16146112e257600160045f8773ffffffffffffffffffffffffffffffffffffffff1673ffffffffffffffffffffffffffffffffffffffff1681526020019081526020015f205f82825401925050819055505b8460035f8681526020019081526020015f205f6101000a81548173ffffffffffffffffffffffffffffffffffffffff021916908373ffffffffffffffffffffffffffffffffffffffff160217905550838573ffffffffffffffffffffffffffffffffffffffff168273ffffffffffffffffffffffffffffffffffffffff167fddf252ad1be2c89b69c2b068fc378daa952ba7f163c4a11628f55a4df523b3ef60405160405180910390a4809150509392505050565b61139f6109dd565b156113df576040517f08c379a00000000000000000000000000000000000000000000000000000000081526004016113d690612b8d565b60405180910390fd5b565b5f815f01549050919050565b6001815f015f828254019250508190555050565b5f73ffffffffffffffffffffffffffffffffffffffff168273ffffffffffffffffffffffffffffffffffffffff1603611471575f6040517f64a0ae920000000000000000000000000000000000000000000000000000000081526004016114689190612365565b60405180910390fd5b5f61147d83835f61118c565b90505f73ffffffffffffffffffffffffffffffffffffffff168173ffffffffffffffffffffffffffffffffffffffff16146114ef575f6040517f73c6ac6e0000000000000000000000000000000000000000000000000000000081526004016114e69190612365565b60405180910390fd5b505050565b6114fc611173565b73ffffffffffffffffffffffffffffffffffffffff1661151a610af5565b73ffffffffffffffffffffffffffffffffffffffff16146115795761153d611173565b6040517f118cdaa70000000000000000000000000000000000000000000000000000000081526004016115709190612365565b60405180910390fd5b565b5f805f9054906101000a900473ffffffffffffffffffffffffffffffffffffffff169050815f806101000a81548173ffffffffffffffffffffffffffffffffffffffff021916908373ffffffffffffffffffffffffffffffffffffffff1602179055508173ffffffffffffffffffffffffffffffffffffffff168173ffffffffffffffffffffffffffffffffffffffff167f8be0079c531659141344cd1fd0a4f28419497f9722a3daafe3b4186f6b6457e060405160405180910390a35050565b5f73ffffffffffffffffffffffffffffffffffffffff168373ffffffffffffffffffffffffffffffffffffffff16036116ac575f6040517fa9fbf51f0000000000000000000000000000000000000000000000000000000081526004016116a39190612365565b60405180910390fd5b5f73ffffffffffffffffffffffffffffffffffffffff168273ffffffffffffffffffffffffffffffffffffffff160361171c57816040517f5b08ba180000000000000000000000000000000000000000000000000000000081526004016117139190612365565b60405180910390fd5b8060065f8573ffffffffffffffffffffffffffffffffffffffff1673ffffffffffffffffffffffffffffffffffffffff1681526020019081526020015f205f8473ffffffffffffffffffffffffffffffffffffffff1673ffffffffffffffffffffffffffffffffffffffff1681526020019081526020015f205f6101000a81548160ff0219169083151502179055508173ffffffffffffffffffffffffffffffffffffffff168373ffffffffffffffffffffffffffffffffffffffff167f17307eab39ab6107e8899845ad3d59bd9653f200f220920489ca2b5937696c3183604051611808919061221f565b60405180910390a3505050565b5f8373ffffffffffffffffffffffffffffffffffffffff163b11156119ba578273ffffffffffffffffffffffffffffffffffffffff1663150b7a02868685856040518563ffffffff1660e01b81526004016118739493929190612bfd565b6020604051808303815f875af19250505080156118ae57506040513d601f19601f820116820180604052508101906118ab9190612c5b565b60015b61192f573d805f81146118dc576040519150601f19603f3d011682016040523d82523d5f602084013e6118e1565b606091505b505f81510361192757836040517f64a0ae9200000000000000000000000000000000000000000000000000000000815260040161191e9190612365565b60405180910390fd5b805160208201fd5b63150b7a0260e01b7bffffffffffffffffffffffffffffffffffffffffffffffffffffffff1916817bffffffffffffffffffffffffffffffffffffffffffffffffffffffff1916146119b857836040517f64a0ae920000000000000000000000000000000000000000000000000000000081526004016119af9190612365565b60405180910390fd5b505b5050505050565b600260085403611a06576040517f08c379a00000000000000000000000000000000000000000000000000000000081526004016119fd90612cd0565b60405180910390fd5b6002600881905550565b6001600881905550565b611a22611e8e565b5f60075f6101000a81548160ff0219169083151502179055507f5db9ee0a495bf2e6ff9c91a7834c1ba4fdd244a5e8aa4e537bd38aeae4b073aa611a64611173565b604051611a719190612365565b60405180910390a1565b611a83611397565b600160075f6101000a81548160ff0219169083151502179055507f62e78cea01bee320cd4e420270b5ea74000d11b0c9f74754ebdbfc544b05a258611ac6611173565b604051611ad39190612365565b60405180910390a1565b606060405180602001604052805f815250905090565b60605f6001611b0184611ed7565b0190505f8167ffffffffffffffff811115611b1f57611b1e61257f565b5b6040519080825280601f01601f191660200182016040528015611b515781602001600182028036833780820191505090505b5090505f82602083010190505b600115611bb2578080600190039150507f3031323334353637383961626364656600000000000000000000000000000000600a86061a8153600a8581611ba757611ba6612cee565b5b0494505f8503611b5e575b819350505050919050565b5f82611bc98584612028565b1490509392505050565b5f60035f8381526020019081526020015f205f9054906101000a900473ffffffffffffffffffffffffffffffffffffffff169050919050565b8080611c4457505f73ffffffffffffffffffffffffffffffffffffffff168273ffffffffffffffffffffffffffffffffffffffff1614155b15611d76575f611c53846110b4565b90505f73ffffffffffffffffffffffffffffffffffffffff168373ffffffffffffffffffffffffffffffffffffffff1614158015611cbd57508273ffffffffffffffffffffffffffffffffffffffff168173ffffffffffffffffffffffffffffffffffffffff1614155b8015611cd05750611cce8184610f39565b155b15611d1257826040517fa9fbf51f000000000000000000000000000000000000000000000000000000008152600401611d099190612365565b60405180910390fd5b8115611d7457838573ffffffffffffffffffffffffffffffffffffffff168273ffffffffffffffffffffffffffffffffffffffff167f8c5be1e5ebec7d5bd14f71427d1e84f3dd0314c0f7b2291e5b200ac8c7c3b92560405160405180910390a45b505b8360055f8581526020019081526020015f205f6101000a81548173ffffffffffffffffffffffffffffffffffffffff021916908373ffffffffffffffffffffffffffffffffffffffff16021790555050505050565b611dd6838383612076565b611e89575f73ffffffffffffffffffffffffffffffffffffffff168373ffffffffffffffffffffffffffffffffffffffff1603611e4a57806040517f7e273289000000000000000000000000000000000000000000000000000000008152600401611e4191906123f5565b60405180910390fd5b81816040517f177e802f000000000000000000000000000000000000000000000000000000008152600401611e80929190612d1b565b60405180910390fd5b505050565b611e966109dd565b611ed5576040517f08c379a0000000000000000000000000000000000000000000000000000000008152600401611ecc90612d8c565b60405180910390fd5b565b5f805f90507a184f03e93ff9f4daa797ed6e38ed64bf6a1f0100000000000000008310611f33577a184f03e93ff9f4daa797ed6e38ed64bf6a1f0100000000000000008381611f2957611f28612cee565b5b0492506040810190505b6d04ee2d6d415b85acef81000000008310611f70576d04ee2d6d415b85acef81000000008381611f6657611f65612cee565b5b0492506020810190505b662386f26fc100008310611f9f57662386f26fc100008381611f9557611f94612cee565b5b0492506010810190505b6305f5e1008310611fc8576305f5e1008381611fbe57611fbd612cee565b5b0492506008810190505b6127108310611fed576127108381611fe357611fe2612cee565b5b0492506004810190505b60648310612010576064838161200657612005612cee565b5b0492506002810190505b600a831061201f576001810190505b80915050919050565b5f808290505f5b845181101561206b5761205c8286838151811061204f5761204e612daa565b5b6020026020010151612136565b9150808060010191505061202f565b508091505092915050565b5f8073ffffffffffffffffffffffffffffffffffffffff168373ffffffffffffffffffffffffffffffffffffffff161415801561212d57508273ffffffffffffffffffffffffffffffffffffffff168473ffffffffffffffffffffffffffffffffffffffff1614806120ee57506120ed8484610f39565b5b8061212c57508273ffffffffffffffffffffffffffffffffffffffff166121148361113a565b73ffffffffffffffffffffffffffffffffffffffff16145b5b90509392505050565b5f81831061214d576121488284612160565b612158565b6121578383612160565b5b905092915050565b5f825f528160205260405f20905092915050565b5f604051905090565b5f80fd5b5f80fd5b5f7fffffffff0000000000000000000000000000000000000000000000000000000082169050919050565b6121b981612185565b81146121c3575f80fd5b50565b5f813590506121d4816121b0565b92915050565b5f602082840312156121ef576121ee61217d565b5b5f6121fc848285016121c6565b91505092915050565b5f8115159050919050565b61221981612205565b82525050565b5f6020820190506122325f830184612210565b92915050565b5f81519050919050565b5f82825260208201905092915050565b8281835e5f83830152505050565b5f601f19601f8301169050919050565b5f61227a82612238565b6122848185612242565b9350612294818560208601612252565b61229d81612260565b840191505092915050565b5f6020820190508181035f8301526122c08184612270565b905092915050565b5f819050919050565b6122da816122c8565b81146122e4575f80fd5b50565b5f813590506122f5816122d1565b92915050565b5f602082840312156123105761230f61217d565b5b5f61231d848285016122e7565b91505092915050565b5f73ffffffffffffffffffffffffffffffffffffffff82169050919050565b5f61234f82612326565b9050919050565b61235f81612345565b82525050565b5f6020820190506123785f830184612356565b92915050565b61238781612345565b8114612391575f80fd5b50565b5f813590506123a28161237e565b92915050565b5f80604083850312156123be576123bd61217d565b5b5f6123cb85828601612394565b92505060206123dc858286016122e7565b9150509250929050565b6123ef816122c8565b82525050565b5f6020820190506124085f8301846123e6565b92915050565b5f805f606084860312156124255761242461217d565b5b5f61243286828701612394565b935050602061244386828701612394565b9250506040612454868287016122e7565b9150509250925092565b5f819050919050565b6124708161245e565b82525050565b5f6020820190506124895f830184612467565b92915050565b5f602082840312156124a4576124a361217d565b5b5f6124b184828501612394565b91505092915050565b6124c38161245e565b81146124cd575f80fd5b50565b5f813590506124de816124ba565b92915050565b5f602082840312156124f9576124f861217d565b5b5f612506848285016124d0565b91505092915050565b61251881612205565b8114612522575f80fd5b50565b5f813590506125338161250f565b92915050565b5f806040838503121561254f5761254e61217d565b5b5f61255c85828601612394565b925050602061256d85828601612525565b9150509250929050565b5f80fd5b5f80fd5b7f4e487b71000000000000000000000000000000000000000000000000000000005f52604160045260245ffd5b6125b582612260565b810181811067ffffffffffffffff821117156125d4576125d361257f565b5b80604052505050565b5f6125e6612174565b90506125f282826125ac565b919050565b5f67ffffffffffffffff8211156126115761261061257f565b5b61261a82612260565b9050602081019050919050565b828183375f83830152505050565b5f612647612642846125f7565b6125dd565b9050828152602081018484840111156126635761266261257b565b5b61266e848285612627565b509392505050565b5f82601f83011261268a57612689612577565b5b813561269a848260208601612635565b91505092915050565b5f805f80608085870312156126bb576126ba61217d565b5b5f6126c887828801612394565b94505060206126d987828801612394565b93505060406126ea878288016122e7565b925050606085013567ffffffffffffffff81111561270b5761270a612181565b5b61271787828801612676565b91505092959194509250565b5f80fd5b5f80fd5b5f8083601f8401126127405761273f612577565b5b8235905067ffffffffffffffff81111561275d5761275c612723565b5b60208301915083602082028301111561277957612778612727565b5b9250929050565b5f80602083850312156127965761279561217d565b5b5f83013567ffffffffffffffff8111156127b3576127b2612181565b5b6127bf8582860161272b565b92509250509250929050565b5f80604083850312156127e1576127e061217d565b5b5f6127ee85828601612394565b92505060206127ff85828601612394565b9150509250929050565b7f4e487b71000000000000000000000000000000000000000000000000000000005f52602260045260245ffd5b5f600282049050600182168061284d57607f821691505b6020821081036128605761285f612809565b5b50919050565b5f6060820190506128795f830186612356565b61288660208301856123e6565b6128936040830184612356565b949350505050565b7f537570706c79206578636565646564202c2041424f5254494e472021210000005f82015250565b5f6128cf601d83612242565b91506128da8261289b565b602082019050919050565b5f6020820190508181035f8301526128fc816128c3565b9050919050565b7f45786163742070726963652076616c7565206e6f742073656e74202c2041424f5f8201527f5254494e47202121000000000000000000000000000000000000000000000000602082015250565b5f61295d602883612242565b915061296882612903565b604082019050919050565b5f6020820190508181035f83015261298a81612951565b9050919050565b5f81905092915050565b5f6129a582612238565b6129af8185612991565b93506129bf818560208601612252565b80840191505092915050565b5f6129d6828561299b565b91506129e2828461299b565b91508190509392505050565b5f8160601b9050919050565b5f612a04826129ee565b9050919050565b5f612a15826129fa565b9050919050565b612a2d612a2882612345565b612a0b565b82525050565b5f612a3e8284612a1c565b60148201915081905092915050565b7f496e76616c69642070726f6f66206f662057686974656c697374202c2041424f5f8201527f5254494e47202121000000000000000000000000000000000000000000000000602082015250565b5f612aa7602883612242565b9150612ab282612a4d565b604082019050919050565b5f6020820190508181035f830152612ad481612a9b565b9050919050565b7f416c726561647920636c61696d656400000000000000000000000000000000005f82015250565b5f612b0f600f83612242565b9150612b1a82612adb565b602082019050919050565b5f6020820190508181035f830152612b3c81612b03565b9050919050565b7f5061757361626c653a20706175736564000000000000000000000000000000005f82015250565b5f612b77601083612242565b9150612b8282612b43565b602082019050919050565b5f6020820190508181035f830152612ba481612b6b565b9050919050565b5f81519050919050565b5f82825260208201905092915050565b5f612bcf82612bab565b612bd98185612bb5565b9350612be9818560208601612252565b612bf281612260565b840191505092915050565b5f608082019050612c105f830187612356565b612c1d6020830186612356565b612c2a60408301856123e6565b8181036060830152612c3c8184612bc5565b905095945050505050565b5f81519050612c55816121b0565b92915050565b5f60208284031215612c7057612c6f61217d565b5b5f612c7d84828501612c47565b91505092915050565b7f5265656e7472616e637947756172643a207265656e7472616e742063616c6c005f82015250565b5f612cba601f83612242565b9150612cc582612c86565b602082019050919050565b5f6020820190508181035f830152612ce781612cae565b9050919050565b7f4e487b71000000000000000000000000000000000000000000000000000000005f52601260045260245ffd5b5f604082019050612d2e5f830185612356565b612d3b60208301846123e6565b9392505050565b7f5061757361626c653a206e6f74207061757365640000000000000000000000005f82015250565b5f612d76601483612242565b9150612d8182612d42565b602082019050919050565b5f6020820190508181035f830152612da381612d6a565b9050919050565b7f4e487b71000000000000000000000000000000000000000000000000000000005f52603260045260245ffdfea264697066735822122081b58ee96772f07fac46acea08d944676283056a0387286d289e9e50bbaa58d064736f6c63430008190033",
			"opcodes": "PUSH1 0x80 PUSH1 0x40 MSTORE PUSH8 0x16345785D8A0000 PUSH1 0xA SSTORE PUSH8 0x2C68AF0BB140000 PUSH1 0xB SSTORE CALLVALUE DUP1 ISZERO PUSH2 0x27 JUMPI PUSH0 DUP1 REVERT JUMPDEST POP PUSH1 0x40 MLOAD PUSH2 0x3414 CODESIZE SUB DUP1 PUSH2 0x3414 DUP4 CODECOPY DUP2 DUP2 ADD PUSH1 0x40 MSTORE DUP2 ADD SWAP1 PUSH2 0x49 SWAP2 SWAP1 PUSH2 0x29E JUMP JUMPDEST PUSH1 0x40 MLOAD DUP1 PUSH1 0x40 ADD PUSH1 0x40 MSTORE DUP1 PUSH1 0xC DUP2 MSTORE PUSH1 0x20 ADD PUSH32 0x4C6F79616C697479436172640000000000000000000000000000000000000000 DUP2 MSTORE POP PUSH1 0x40 MLOAD DUP1 PUSH1 0x40 ADD PUSH1 0x40 MSTORE DUP1 PUSH1 0x3 DUP2 MSTORE PUSH1 0x20 ADD PUSH32 0x4C4C430000000000000000000000000000000000000000000000000000000000 DUP2 MSTORE POP DUP3 PUSH0 PUSH20 0xFFFFFFFFFFFFFFFFFFFFFFFFFFFFFFFFFFFFFFFF AND DUP2 PUSH20 0xFFFFFFFFFFFFFFFFFFFFFFFFFFFFFFFFFFFFFFFF AND SUB PUSH2 0x126 JUMPI PUSH0 PUSH1 0x40 MLOAD PUSH32 0x1E4FBDF700000000000000000000000000000000000000000000000000000000 DUP2 MSTORE PUSH1 0x4 ADD PUSH2 0x11D SWAP2 SWAP1 PUSH2 0x2D8 JUMP JUMPDEST PUSH1 0x40 MLOAD DUP1 SWAP2 SUB SWAP1 REVERT JUMPDEST PUSH2 0x135 DUP2 PUSH2 0x17F PUSH1 0x20 SHL PUSH1 0x20 SHR JUMP JUMPDEST POP DUP2 PUSH1 0x1 SWAP1 DUP2 PUSH2 0x145 SWAP2 SWAP1 PUSH2 0x52B JUMP JUMPDEST POP DUP1 PUSH1 0x2 SWAP1 DUP2 PUSH2 0x155 SWAP2 SWAP1 PUSH2 0x52B JUMP JUMPDEST POP POP POP PUSH0 PUSH1 0x7 PUSH0 PUSH2 0x100 EXP DUP2 SLOAD DUP2 PUSH1 0xFF MUL NOT AND SWAP1 DUP4 ISZERO ISZERO MUL OR SWAP1 SSTORE POP PUSH1 0x1 PUSH1 0x8 DUP2 SWAP1 SSTORE POP POP PUSH2 0x5FA JUMP JUMPDEST PUSH0 DUP1 PUSH0 SWAP1 SLOAD SWAP1 PUSH2 0x100 EXP SWAP1 DIV PUSH20 0xFFFFFFFFFFFFFFFFFFFFFFFFFFFFFFFFFFFFFFFF AND SWAP1 POP DUP2 PUSH0 DUP1 PUSH2 0x100 EXP DUP2 SLOAD DUP2 PUSH20 0xFFFFFFFFFFFFFFFFFFFFFFFFFFFFFFFFFFFFFFFF MUL NOT AND SWAP1 DUP4 PUSH20 0xFFFFFFFFFFFFFFFFFFFFFFFFFFFFFFFFFFFFFFFF AND MUL OR SWAP1 SSTORE POP DUP2 PUSH20 0xFFFFFFFFFFFFFFFFFFFFFFFFFFFFFFFFFFFFFFFF AND DUP2 PUSH20 0xFFFFFFFFFFFFFFFFFFFFFFFFFFFFFFFFFFFFFFFF AND PUSH32 0x8BE0079C531659141344CD1FD0A4F28419497F9722A3DAAFE3B4186F6B6457E0 PUSH1 0x40 MLOAD PUSH1 0x40 MLOAD DUP1 SWAP2 SUB SWAP1 LOG3 POP POP JUMP JUMPDEST PUSH0 DUP1 REVERT JUMPDEST PUSH0 PUSH20 0xFFFFFFFFFFFFFFFFFFFFFFFFFFFFFFFFFFFFFFFF DUP3 AND SWAP1 POP SWAP2 SWAP1 POP JUMP JUMPDEST PUSH0 PUSH2 0x26D DUP3 PUSH2 0x244 JUMP JUMPDEST SWAP1 POP SWAP2 SWAP1 POP JUMP JUMPDEST PUSH2 0x27D DUP2 PUSH2 0x263 JUMP JUMPDEST DUP2 EQ PUSH2 0x287 JUMPI PUSH0 DUP1 REVERT JUMPDEST POP JUMP JUMPDEST PUSH0 DUP2 MLOAD SWAP1 POP PUSH2 0x298 DUP2 PUSH2 0x274 JUMP JUMPDEST SWAP3 SWAP2 POP POP JUMP JUMPDEST PUSH0 PUSH1 0x20 DUP3 DUP5 SUB SLT ISZERO PUSH2 0x2B3 JUMPI PUSH2 0x2B2 PUSH2 0x240 JUMP JUMPDEST JUMPDEST PUSH0 PUSH2 0x2C0 DUP5 DUP3 DUP6 ADD PUSH2 0x28A JUMP JUMPDEST SWAP2 POP POP SWAP3 SWAP2 POP POP JUMP JUMPDEST PUSH2 0x2D2 DUP2 PUSH2 0x263 JUMP JUMPDEST DUP3 MSTORE POP POP JUMP JUMPDEST PUSH0 PUSH1 0x20 DUP3 ADD SWAP1 POP PUSH2 0x2EB PUSH0 DUP4 ADD DUP5 PUSH2 0x2C9 JUMP JUMPDEST SWAP3 SWAP2 POP POP JUMP JUMPDEST PUSH0 DUP2 MLOAD SWAP1 POP SWAP2 SWAP1 POP JUMP JUMPDEST PUSH32 0x4E487B7100000000000000000000000000000000000000000000000000000000 PUSH0 MSTORE PUSH1 0x41 PUSH1 0x4 MSTORE PUSH1 0x24 PUSH0 REVERT JUMPDEST PUSH32 0x4E487B7100000000000000000000000000000000000000000000000000000000 PUSH0 MSTORE PUSH1 0x22 PUSH1 0x4 MSTORE PUSH1 0x24 PUSH0 REVERT JUMPDEST PUSH0 PUSH1 0x2 DUP3 DIV SWAP1 POP PUSH1 0x1 DUP3 AND DUP1 PUSH2 0x36C JUMPI PUSH1 0x7F DUP3 AND SWAP2 POP JUMPDEST PUSH1 0x20 DUP3 LT DUP2 SUB PUSH2 0x37F JUMPI PUSH2 0x37E PUSH2 0x328 JUMP JUMPDEST JUMPDEST POP SWAP2 SWAP1 POP JUMP JUMPDEST PUSH0 DUP2 SWAP1 POP DUP2 PUSH0 MSTORE PUSH1 0x20 PUSH0 KECCAK256 SWAP1 POP SWAP2 SWAP1 POP JUMP JUMPDEST PUSH0 PUSH1 0x20 PUSH1 0x1F DUP4 ADD DIV SWAP1 POP SWAP2 SWAP1 POP JUMP JUMPDEST PUSH0 DUP3 DUP3 SHL SWAP1 POP SWAP3 SWAP2 POP POP JUMP JUMPDEST PUSH0 PUSH1 0x8 DUP4 MUL PUSH2 0x3E1 PUSH32 0xFFFFFFFFFFFFFFFFFFFFFFFFFFFFFFFFFFFFFFFFFFFFFFFFFFFFFFFFFFFFFFFF DUP3 PUSH2 0x3A6 JUMP JUMPDEST PUSH2 0x3EB DUP7 DUP4 PUSH2 0x3A6 JUMP JUMPDEST SWAP6 POP DUP1 NOT DUP5 AND SWAP4 POP DUP1 DUP7 AND DUP5 OR SWAP3 POP POP POP SWAP4 SWAP3 POP POP POP JUMP JUMPDEST PUSH0 DUP2 SWAP1 POP SWAP2 SWAP1 POP JUMP JUMPDEST PUSH0 DUP2 SWAP1 POP SWAP2 SWAP1 POP JUMP JUMPDEST PUSH0 PUSH2 0x42F PUSH2 0x42A PUSH2 0x425 DUP5 PUSH2 0x403 JUMP JUMPDEST PUSH2 0x40C JUMP JUMPDEST PUSH2 0x403 JUMP JUMPDEST SWAP1 POP SWAP2 SWAP1 POP JUMP JUMPDEST PUSH0 DUP2 SWAP1 POP SWAP2 SWAP1 POP JUMP JUMPDEST PUSH2 0x448 DUP4 PUSH2 0x415 JUMP JUMPDEST PUSH2 0x45C PUSH2 0x454 DUP3 PUSH2 0x436 JUMP JUMPDEST DUP5 DUP5 SLOAD PUSH2 0x3B2 JUMP JUMPDEST DUP3 SSTORE POP POP POP POP JUMP JUMPDEST PUSH0 SWAP1 JUMP JUMPDEST PUSH2 0x470 PUSH2 0x464 JUMP JUMPDEST PUSH2 0x47B DUP2 DUP5 DUP5 PUSH2 0x43F JUMP JUMPDEST POP POP POP JUMP JUMPDEST JUMPDEST DUP2 DUP2 LT ISZERO PUSH2 0x49E JUMPI PUSH2 0x493 PUSH0 DUP3 PUSH2 0x468 JUMP JUMPDEST PUSH1 0x1 DUP2 ADD SWAP1 POP PUSH2 0x481 JUMP JUMPDEST POP POP JUMP JUMPDEST PUSH1 0x1F DUP3 GT ISZERO PUSH2 0x4E3 JUMPI PUSH2 0x4B4 DUP2 PUSH2 0x385 JUMP JUMPDEST PUSH2 0x4BD DUP5 PUSH2 0x397 JUMP JUMPDEST DUP2 ADD PUSH1 0x20 DUP6 LT ISZERO PUSH2 0x4CC JUMPI DUP2 SWAP1 POP JUMPDEST PUSH2 0x4E0 PUSH2 0x4D8 DUP6 PUSH2 0x397 JUMP JUMPDEST DUP4 ADD DUP3 PUSH2 0x480 JUMP JUMPDEST POP POP JUMPDEST POP POP POP JUMP JUMPDEST PUSH0 DUP3 DUP3 SHR SWAP1 POP SWAP3 SWAP2 POP POP JUMP JUMPDEST PUSH0 PUSH2 0x503 PUSH0 NOT DUP5 PUSH1 0x8 MUL PUSH2 0x4E8 JUMP JUMPDEST NOT DUP1 DUP4 AND SWAP2 POP POP SWAP3 SWAP2 POP POP JUMP JUMPDEST PUSH0 PUSH2 0x51B DUP4 DUP4 PUSH2 0x4F4 JUMP JUMPDEST SWAP2 POP DUP3 PUSH1 0x2 MUL DUP3 OR SWAP1 POP SWAP3 SWAP2 POP POP JUMP JUMPDEST PUSH2 0x534 DUP3 PUSH2 0x2F1 JUMP JUMPDEST PUSH8 0xFFFFFFFFFFFFFFFF DUP2 GT ISZERO PUSH2 0x54D JUMPI PUSH2 0x54C PUSH2 0x2FB JUMP JUMPDEST JUMPDEST PUSH2 0x557 DUP3 SLOAD PUSH2 0x355 JUMP JUMPDEST PUSH2 0x562 DUP3 DUP3 DUP6 PUSH2 0x4A2 JUMP JUMPDEST PUSH0 PUSH1 0x20 SWAP1 POP PUSH1 0x1F DUP4 GT PUSH1 0x1 DUP2 EQ PUSH2 0x593 JUMPI PUSH0 DUP5 ISZERO PUSH2 0x581 JUMPI DUP3 DUP8 ADD MLOAD SWAP1 POP JUMPDEST PUSH2 0x58B DUP6 DUP3 PUSH2 0x510 JUMP JUMPDEST DUP7 SSTORE POP PUSH2 0x5F2 JUMP JUMPDEST PUSH1 0x1F NOT DUP5 AND PUSH2 0x5A1 DUP7 PUSH2 0x385 JUMP JUMPDEST PUSH0 JUMPDEST DUP3 DUP2 LT ISZERO PUSH2 0x5C8 JUMPI DUP5 DUP10 ADD MLOAD DUP3 SSTORE PUSH1 0x1 DUP3 ADD SWAP2 POP PUSH1 0x20 DUP6 ADD SWAP5 POP PUSH1 0x20 DUP2 ADD SWAP1 POP PUSH2 0x5A3 JUMP JUMPDEST DUP7 DUP4 LT ISZERO PUSH2 0x5E5 JUMPI DUP5 DUP10 ADD MLOAD PUSH2 0x5E1 PUSH1 0x1F DUP10 AND DUP3 PUSH2 0x4F4 JUMP JUMPDEST DUP4 SSTORE POP JUMPDEST PUSH1 0x1 PUSH1 0x2 DUP9 MUL ADD DUP9 SSTORE POP POP POP JUMPDEST POP POP POP POP POP POP JUMP JUMPDEST PUSH2 0x2E0D DUP1 PUSH2 0x607 PUSH0 CODECOPY PUSH0 RETURN INVALID PUSH1 0x80 PUSH1 0x40 MSTORE PUSH1 0x4 CALLDATASIZE LT PUSH2 0x1B6 JUMPI PUSH0 CALLDATALOAD PUSH1 0xE0 SHR DUP1 PUSH4 0x715018A6 GT PUSH2 0xEB JUMPI DUP1 PUSH4 0xBFAB3DB9 GT PUSH2 0x89 JUMPI DUP1 PUSH4 0xCE21270E GT PUSH2 0x63 JUMPI DUP1 PUSH4 0xCE21270E EQ PUSH2 0x598 JUMPI DUP1 PUSH4 0xD338B03C EQ PUSH2 0x5C2 JUMPI DUP1 PUSH4 0xE985E9C5 EQ PUSH2 0x5DE JUMPI DUP1 PUSH4 0xF2FDE38B EQ PUSH2 0x61A JUMPI PUSH2 0x1B6 JUMP JUMPDEST DUP1 PUSH4 0xBFAB3DB9 EQ PUSH2 0x530 JUMPI DUP1 PUSH4 0xC4AE3168 EQ PUSH2 0x546 JUMPI DUP1 PUSH4 0xC87B56DD EQ PUSH2 0x55C JUMPI PUSH2 0x1B6 JUMP JUMPDEST DUP1 PUSH4 0x8DA5CB5B GT PUSH2 0xC5 JUMPI DUP1 PUSH4 0x8DA5CB5B EQ PUSH2 0x48C JUMPI DUP1 PUSH4 0x95D89B41 EQ PUSH2 0x4B6 JUMPI DUP1 PUSH4 0xA22CB465 EQ PUSH2 0x4E0 JUMPI DUP1 PUSH4 0xB88D4FDE EQ PUSH2 0x508 JUMPI PUSH2 0x1B6 JUMP JUMPDEST DUP1 PUSH4 0x715018A6 EQ PUSH2 0x426 JUMPI DUP1 PUSH4 0x7CB64759 EQ PUSH2 0x43C JUMPI DUP1 PUSH4 0x8C9CE82D EQ PUSH2 0x464 JUMPI PUSH2 0x1B6 JUMP JUMPDEST DUP1 PUSH4 0x2EB4A7AB GT PUSH2 0x158 JUMPI DUP1 PUSH4 0x5C975ABB GT PUSH2 0x132 JUMPI DUP1 PUSH4 0x5C975ABB EQ PUSH2 0x35A JUMPI DUP1 PUSH4 0x6352211E EQ PUSH2 0x384 JUMPI DUP1 PUSH4 0x65C8E850 EQ PUSH2 0x3C0 JUMPI DUP1 PUSH4 0x70A08231 EQ PUSH2 0x3EA JUMPI PUSH2 0x1B6 JUMP JUMPDEST DUP1 PUSH4 0x2EB4A7AB EQ PUSH2 0x2E0 JUMPI DUP1 PUSH4 0x3A1F2C8C EQ PUSH2 0x30A JUMPI DUP1 PUSH4 0x42842E0E EQ PUSH2 0x332 JUMPI PUSH2 0x1B6 JUMP JUMPDEST DUP1 PUSH4 0x95EA7B3 GT PUSH2 0x194 JUMPI DUP1 PUSH4 0x95EA7B3 EQ PUSH2 0x25C JUMPI DUP1 PUSH4 0xD136016 EQ PUSH2 0x284 JUMPI DUP1 PUSH4 0x23B872DD EQ PUSH2 0x2AE JUMPI DUP1 PUSH4 0x2ABADECA EQ PUSH2 0x2D6 JUMPI PUSH2 0x1B6 JUMP JUMPDEST DUP1 PUSH4 0x1FFC9A7 EQ PUSH2 0x1BA JUMPI DUP1 PUSH4 0x6FDDE03 EQ PUSH2 0x1F6 JUMPI DUP1 PUSH4 0x81812FC EQ PUSH2 0x220 JUMPI JUMPDEST PUSH0 DUP1 REVERT JUMPDEST CALLVALUE DUP1 ISZERO PUSH2 0x1C5 JUMPI PUSH0 DUP1 REVERT JUMPDEST POP PUSH2 0x1E0 PUSH1 0x4 DUP1 CALLDATASIZE SUB DUP2 ADD SWAP1 PUSH2 0x1DB SWAP2 SWAP1 PUSH2 0x21DA JUMP JUMPDEST PUSH2 0x642 JUMP JUMPDEST PUSH1 0x40 MLOAD PUSH2 0x1ED SWAP2 SWAP1 PUSH2 0x221F JUMP JUMPDEST PUSH1 0x40 MLOAD DUP1 SWAP2 SUB SWAP1 RETURN JUMPDEST CALLVALUE DUP1 ISZERO PUSH2 0x201 JUMPI PUSH0 DUP1 REVERT JUMPDEST POP PUSH2 0x20A PUSH2 0x723 JUMP JUMPDEST PUSH1 0x40 MLOAD PUSH2 0x217 SWAP2 SWAP1 PUSH2 0x22A8 JUMP JUMPDEST PUSH1 0x40 MLOAD DUP1 SWAP2 SUB SWAP1 RETURN JUMPDEST CALLVALUE DUP1 ISZERO PUSH2 0x22B JUMPI PUSH0 DUP1 REVERT JUMPDEST POP PUSH2 0x246 PUSH1 0x4 DUP1 CALLDATASIZE SUB DUP2 ADD SWAP1 PUSH2 0x241 SWAP2 SWAP1 PUSH2 0x22FB JUMP JUMPDEST PUSH2 0x7B3 JUMP JUMPDEST PUSH1 0x40 MLOAD PUSH2 0x253 SWAP2 SWAP1 PUSH2 0x2365 JUMP JUMPDEST PUSH1 0x40 MLOAD DUP1 SWAP2 SUB SWAP1 RETURN JUMPDEST CALLVALUE DUP1 ISZERO PUSH2 0x267 JUMPI PUSH0 DUP1 REVERT JUMPDEST POP PUSH2 0x282 PUSH1 0x4 DUP1 CALLDATASIZE SUB DUP2 ADD SWAP1 PUSH2 0x27D SWAP2 SWAP1 PUSH2 0x23A8 JUMP JUMPDEST PUSH2 0x7CE JUMP JUMPDEST STOP JUMPDEST CALLVALUE DUP1 ISZERO PUSH2 0x28F JUMPI PUSH0 DUP1 REVERT JUMPDEST POP PUSH2 0x298 PUSH2 0x7E4 JUMP JUMPDEST PUSH1 0x40 MLOAD PUSH2 0x2A5 SWAP2 SWAP1 PUSH2 0x23F5 JUMP JUMPDEST PUSH1 0x40 MLOAD DUP1 SWAP2 SUB SWAP1 RETURN JUMPDEST CALLVALUE DUP1 ISZERO PUSH2 0x2B9 JUMPI PUSH0 DUP1 REVERT JUMPDEST POP PUSH2 0x2D4 PUSH1 0x4 DUP1 CALLDATASIZE SUB DUP2 ADD SWAP1 PUSH2 0x2CF SWAP2 SWAP1 PUSH2 0x240E JUMP JUMPDEST PUSH2 0x7EA JUMP JUMPDEST STOP JUMPDEST PUSH2 0x2DE PUSH2 0x8E9 JUMP JUMPDEST STOP JUMPDEST CALLVALUE DUP1 ISZERO PUSH2 0x2EB JUMPI PUSH0 DUP1 REVERT JUMPDEST POP PUSH2 0x2F4 PUSH2 0x9A6 JUMP JUMPDEST PUSH1 0x40 MLOAD PUSH2 0x301 SWAP2 SWAP1 PUSH2 0x2476 JUMP JUMPDEST PUSH1 0x40 MLOAD DUP1 SWAP2 SUB SWAP1 RETURN JUMPDEST CALLVALUE DUP1 ISZERO PUSH2 0x315 JUMPI PUSH0 DUP1 REVERT JUMPDEST POP PUSH2 0x330 PUSH1 0x4 DUP1 CALLDATASIZE SUB DUP2 ADD SWAP1 PUSH2 0x32B SWAP2 SWAP1 PUSH2 0x22FB JUMP JUMPDEST PUSH2 0x9AC JUMP JUMPDEST STOP JUMPDEST CALLVALUE DUP1 ISZERO PUSH2 0x33D JUMPI PUSH0 DUP1 REVERT JUMPDEST POP PUSH2 0x358 PUSH1 0x4 DUP1 CALLDATASIZE SUB DUP2 ADD SWAP1 PUSH2 0x353 SWAP2 SWAP1 PUSH2 0x240E JUMP JUMPDEST PUSH2 0x9BE JUMP JUMPDEST STOP JUMPDEST CALLVALUE DUP1 ISZERO PUSH2 0x365 JUMPI PUSH0 DUP1 REVERT JUMPDEST POP PUSH2 0x36E PUSH2 0x9DD JUMP JUMPDEST PUSH1 0x40 MLOAD PUSH2 0x37B SWAP2 SWAP1 PUSH2 0x221F JUMP JUMPDEST PUSH1 0x40 MLOAD DUP1 SWAP2 SUB SWAP1 RETURN JUMPDEST CALLVALUE DUP1 ISZERO PUSH2 0x38F JUMPI PUSH0 DUP1 REVERT JUMPDEST POP PUSH2 0x3AA PUSH1 0x4 DUP1 CALLDATASIZE SUB DUP2 ADD SWAP1 PUSH2 0x3A5 SWAP2 SWAP1 PUSH2 0x22FB JUMP JUMPDEST PUSH2 0x9F2 JUMP JUMPDEST PUSH1 0x40 MLOAD PUSH2 0x3B7 SWAP2 SWAP1 PUSH2 0x2365 JUMP JUMPDEST PUSH1 0x40 MLOAD DUP1 SWAP2 SUB SWAP1 RETURN JUMPDEST CALLVALUE DUP1 ISZERO PUSH2 0x3CB JUMPI PUSH0 DUP1 REVERT JUMPDEST POP PUSH2 0x3D4 PUSH2 0xA03 JUMP JUMPDEST PUSH1 0x40 MLOAD PUSH2 0x3E1 SWAP2 SWAP1 PUSH2 0x23F5 JUMP JUMPDEST PUSH1 0x40 MLOAD DUP1 SWAP2 SUB SWAP1 RETURN JUMPDEST CALLVALUE DUP1 ISZERO PUSH2 0x3F5 JUMPI PUSH0 DUP1 REVERT JUMPDEST POP PUSH2 0x410 PUSH1 0x4 DUP1 CALLDATASIZE SUB DUP2 ADD SWAP1 PUSH2 0x40B SWAP2 SWAP1 PUSH2 0x248F JUMP JUMPDEST PUSH2 0xA08 JUMP JUMPDEST PUSH1 0x40 MLOAD PUSH2 0x41D SWAP2 SWAP1 PUSH2 0x23F5 JUMP JUMPDEST PUSH1 0x40 MLOAD DUP1 SWAP2 SUB SWAP1 RETURN JUMPDEST CALLVALUE DUP1 ISZERO PUSH2 0x431 JUMPI PUSH0 DUP1 REVERT JUMPDEST POP PUSH2 0x43A PUSH2 0xABE JUMP JUMPDEST STOP JUMPDEST CALLVALUE DUP1 ISZERO PUSH2 0x447 JUMPI PUSH0 DUP1 REVERT JUMPDEST POP PUSH2 0x462 PUSH1 0x4 DUP1 CALLDATASIZE SUB DUP2 ADD SWAP1 PUSH2 0x45D SWAP2 SWAP1 PUSH2 0x24E4 JUMP JUMPDEST PUSH2 0xAD1 JUMP JUMPDEST STOP JUMPDEST CALLVALUE DUP1 ISZERO PUSH2 0x46F JUMPI PUSH0 DUP1 REVERT JUMPDEST POP PUSH2 0x48A PUSH1 0x4 DUP1 CALLDATASIZE SUB DUP2 ADD SWAP1 PUSH2 0x485 SWAP2 SWAP1 PUSH2 0x22FB JUMP JUMPDEST PUSH2 0xAE3 JUMP JUMPDEST STOP JUMPDEST CALLVALUE DUP1 ISZERO PUSH2 0x497 JUMPI PUSH0 DUP1 REVERT JUMPDEST POP PUSH2 0x4A0 PUSH2 0xAF5 JUMP JUMPDEST PUSH1 0x40 MLOAD PUSH2 0x4AD SWAP2 SWAP1 PUSH2 0x2365 JUMP JUMPDEST PUSH1 0x40 MLOAD DUP1 SWAP2 SUB SWAP1 RETURN JUMPDEST CALLVALUE DUP1 ISZERO PUSH2 0x4C1 JUMPI PUSH0 DUP1 REVERT JUMPDEST POP PUSH2 0x4CA PUSH2 0xB1C JUMP JUMPDEST PUSH1 0x40 MLOAD PUSH2 0x4D7 SWAP2 SWAP1 PUSH2 0x22A8 JUMP JUMPDEST PUSH1 0x40 MLOAD DUP1 SWAP2 SUB SWAP1 RETURN JUMPDEST CALLVALUE DUP1 ISZERO PUSH2 0x4EB JUMPI PUSH0 DUP1 REVERT JUMPDEST POP PUSH2 0x506 PUSH1 0x4 DUP1 CALLDATASIZE SUB DUP2 ADD SWAP1 PUSH2 0x501 SWAP2 SWAP1 PUSH2 0x2539 JUMP JUMPDEST PUSH2 0xBAC JUMP JUMPDEST STOP JUMPDEST CALLVALUE DUP1 ISZERO PUSH2 0x513 JUMPI PUSH0 DUP1 REVERT JUMPDEST POP PUSH2 0x52E PUSH1 0x4 DUP1 CALLDATASIZE SUB DUP2 ADD SWAP1 PUSH2 0x529 SWAP2 SWAP1 PUSH2 0x26A3 JUMP JUMPDEST PUSH2 0xBC2 JUMP JUMPDEST STOP JUMPDEST CALLVALUE DUP1 ISZERO PUSH2 0x53B JUMPI PUSH0 DUP1 REVERT JUMPDEST POP PUSH2 0x544 PUSH2 0xBE7 JUMP JUMPDEST STOP JUMPDEST CALLVALUE DUP1 ISZERO PUSH2 0x551 JUMPI PUSH0 DUP1 REVERT JUMPDEST POP PUSH2 0x55A PUSH2 0xC4C JUMP JUMPDEST STOP JUMPDEST CALLVALUE DUP1 ISZERO PUSH2 0x567 JUMPI PUSH0 DUP1 REVERT JUMPDEST POP PUSH2 0x582 PUSH1 0x4 DUP1 CALLDATASIZE SUB DUP2 ADD SWAP1 PUSH2 0x57D SWAP2 SWAP1 PUSH2 0x22FB JUMP JUMPDEST PUSH2 0xC79 JUMP JUMPDEST PUSH1 0x40 MLOAD PUSH2 0x58F SWAP2 SWAP1 PUSH2 0x22A8 JUMP JUMPDEST PUSH1 0x40 MLOAD DUP1 SWAP2 SUB SWAP1 RETURN JUMPDEST CALLVALUE DUP1 ISZERO PUSH2 0x5A3 JUMPI PUSH0 DUP1 REVERT JUMPDEST POP PUSH2 0x5AC PUSH2 0xCDF JUMP JUMPDEST PUSH1 0x40 MLOAD PUSH2 0x5B9 SWAP2 SWAP1 PUSH2 0x23F5 JUMP JUMPDEST PUSH1 0x40 MLOAD DUP1 SWAP2 SUB SWAP1 RETURN JUMPDEST PUSH2 0x5DC PUSH1 0x4 DUP1 CALLDATASIZE SUB DUP2 ADD SWAP1 PUSH2 0x5D7 SWAP2 SWAP1 PUSH2 0x2780 JUMP JUMPDEST PUSH2 0xCE5 JUMP JUMPDEST STOP JUMPDEST CALLVALUE DUP1 ISZERO PUSH2 0x5E9 JUMPI PUSH0 DUP1 REVERT JUMPDEST POP PUSH2 0x604 PUSH1 0x4 DUP1 CALLDATASIZE SUB DUP2 ADD SWAP1 PUSH2 0x5FF SWAP2 SWAP1 PUSH2 0x27CB JUMP JUMPDEST PUSH2 0xF39 JUMP JUMPDEST PUSH1 0x40 MLOAD PUSH2 0x611 SWAP2 SWAP1 PUSH2 0x221F JUMP JUMPDEST PUSH1 0x40 MLOAD DUP1 SWAP2 SUB SWAP1 RETURN JUMPDEST CALLVALUE DUP1 ISZERO PUSH2 0x625 JUMPI PUSH0 DUP1 REVERT JUMPDEST POP PUSH2 0x640 PUSH1 0x4 DUP1 CALLDATASIZE SUB DUP2 ADD SWAP1 PUSH2 0x63B SWAP2 SWAP1 PUSH2 0x248F JUMP JUMPDEST PUSH2 0xFC7 JUMP JUMPDEST STOP JUMPDEST PUSH0 PUSH32 0x80AC58CD00000000000000000000000000000000000000000000000000000000 PUSH28 0xFFFFFFFFFFFFFFFFFFFFFFFFFFFFFFFFFFFFFFFFFFFFFFFFFFFFFFFF NOT AND DUP3 PUSH28 0xFFFFFFFFFFFFFFFFFFFFFFFFFFFFFFFFFFFFFFFFFFFFFFFFFFFFFFFF NOT AND EQ DUP1 PUSH2 0x70C JUMPI POP PUSH32 0x5B5E139F00000000000000000000000000000000000000000000000000000000 PUSH28 0xFFFFFFFFFFFFFFFFFFFFFFFFFFFFFFFFFFFFFFFFFFFFFFFFFFFFFFFF NOT AND DUP3 PUSH28 0xFFFFFFFFFFFFFFFFFFFFFFFFFFFFFFFFFFFFFFFFFFFFFFFFFFFFFFFF NOT AND EQ JUMPDEST DUP1 PUSH2 0x71C JUMPI POP PUSH2 0x71B DUP3 PUSH2 0x104B JUMP JUMPDEST JUMPDEST SWAP1 POP SWAP2 SWAP1 POP JUMP JUMPDEST PUSH1 0x60 PUSH1 0x1 DUP1 SLOAD PUSH2 0x732 SWAP1 PUSH2 0x2836 JUMP JUMPDEST DUP1 PUSH1 0x1F ADD PUSH1 0x20 DUP1 SWAP2 DIV MUL PUSH1 0x20 ADD PUSH1 0x40 MLOAD SWAP1 DUP2 ADD PUSH1 0x40 MSTORE DUP1 SWAP3 SWAP2 SWAP1 DUP2 DUP2 MSTORE PUSH1 0x20 ADD DUP3 DUP1 SLOAD PUSH2 0x75E SWAP1 PUSH2 0x2836 JUMP JUMPDEST DUP1 ISZERO PUSH2 0x7A9 JUMPI DUP1 PUSH1 0x1F LT PUSH2 0x780 JUMPI PUSH2 0x100 DUP1 DUP4 SLOAD DIV MUL DUP4 MSTORE SWAP2 PUSH1 0x20 ADD SWAP2 PUSH2 0x7A9 JUMP JUMPDEST DUP3 ADD SWAP2 SWAP1 PUSH0 MSTORE PUSH1 0x20 PUSH0 KECCAK256 SWAP1 JUMPDEST DUP2 SLOAD DUP2 MSTORE SWAP1 PUSH1 0x1 ADD SWAP1 PUSH1 0x20 ADD DUP1 DUP4 GT PUSH2 0x78C JUMPI DUP3 SWAP1 SUB PUSH1 0x1F AND DUP3 ADD SWAP2 JUMPDEST POP POP POP POP POP SWAP1 POP SWAP1 JUMP JUMPDEST PUSH0 PUSH2 0x7BD DUP3 PUSH2 0x10B4 JUMP JUMPDEST POP PUSH2 0x7C7 DUP3 PUSH2 0x113A JUMP JUMPDEST SWAP1 POP SWAP2 SWAP1 POP JUMP JUMPDEST PUSH2 0x7E0 DUP3 DUP3 PUSH2 0x7DB PUSH2 0x1173 JUMP JUMPDEST PUSH2 0x117A JUMP JUMPDEST POP POP JUMP JUMPDEST PUSH1 0xA SLOAD DUP2 JUMP JUMPDEST PUSH0 PUSH20 0xFFFFFFFFFFFFFFFFFFFFFFFFFFFFFFFFFFFFFFFF AND DUP3 PUSH20 0xFFFFFFFFFFFFFFFFFFFFFFFFFFFFFFFFFFFFFFFF AND SUB PUSH2 0x85A JUMPI PUSH0 PUSH1 0x40 MLOAD PUSH32 0x64A0AE9200000000000000000000000000000000000000000000000000000000 DUP2 MSTORE PUSH1 0x4 ADD PUSH2 0x851 SWAP2 SWAP1 PUSH2 0x2365 JUMP JUMPDEST PUSH1 0x40 MLOAD DUP1 SWAP2 SUB SWAP1 REVERT JUMPDEST PUSH0 PUSH2 0x86D DUP4 DUP4 PUSH2 0x868 PUSH2 0x1173 JUMP JUMPDEST PUSH2 0x118C JUMP JUMPDEST SWAP1 POP DUP4 PUSH20 0xFFFFFFFFFFFFFFFFFFFFFFFFFFFFFFFFFFFFFFFF AND DUP2 PUSH20 0xFFFFFFFFFFFFFFFFFFFFFFFFFFFFFFFFFFFFFFFF AND EQ PUSH2 0x8E3 JUMPI DUP4 DUP3 DUP3 PUSH1 0x40 MLOAD PUSH32 0x64283D7B00000000000000000000000000000000000000000000000000000000 DUP2 MSTORE PUSH1 0x4 ADD PUSH2 0x8DA SWAP4 SWAP3 SWAP2 SWAP1 PUSH2 0x2866 JUMP JUMPDEST PUSH1 0x40 MLOAD DUP1 SWAP2 SUB SWAP1 REVERT JUMPDEST POP POP POP POP JUMP JUMPDEST PUSH2 0x8F1 PUSH2 0x1397 JUMP JUMPDEST PUSH1 0x64 PUSH2 0x8FD PUSH1 0x9 PUSH2 0x13E1 JUMP JUMPDEST GT ISZERO PUSH2 0x93E JUMPI PUSH1 0x40 MLOAD PUSH32 0x8C379A000000000000000000000000000000000000000000000000000000000 DUP2 MSTORE PUSH1 0x4 ADD PUSH2 0x935 SWAP1 PUSH2 0x28E5 JUMP JUMPDEST PUSH1 0x40 MLOAD DUP1 SWAP2 SUB SWAP1 REVERT JUMPDEST PUSH1 0xB SLOAD CALLVALUE EQ PUSH2 0x982 JUMPI PUSH1 0x40 MLOAD PUSH32 0x8C379A000000000000000000000000000000000000000000000000000000000 DUP2 MSTORE PUSH1 0x4 ADD PUSH2 0x979 SWAP1 PUSH2 0x2973 JUMP JUMPDEST PUSH1 0x40 MLOAD DUP1 SWAP2 SUB SWAP1 REVERT JUMPDEST PUSH2 0x98C PUSH1 0x9 PUSH2 0x13ED JUMP JUMPDEST PUSH0 PUSH2 0x997 PUSH1 0x9 PUSH2 0x13E1 JUMP JUMPDEST SWAP1 POP PUSH2 0x9A3 CALLER DUP3 PUSH2 0x1401 JUMP JUMPDEST POP JUMP JUMPDEST PUSH1 0xC SLOAD DUP2 JUMP JUMPDEST PUSH2 0x9B4 PUSH2 0x14F4 JUMP JUMPDEST DUP1 PUSH1 0xB DUP2 SWAP1 SSTORE POP POP JUMP JUMPDEST PUSH2 0x9D8 DUP4 DUP4 DUP4 PUSH1 0x40 MLOAD DUP1 PUSH1 0x20 ADD PUSH1 0x40 MSTORE DUP1 PUSH0 DUP2 MSTORE POP PUSH2 0xBC2 JUMP JUMPDEST POP POP POP JUMP JUMPDEST PUSH0 PUSH1 0x7 PUSH0 SWAP1 SLOAD SWAP1 PUSH2 0x100 EXP SWAP1 DIV PUSH1 0xFF AND SWAP1 POP SWAP1 JUMP JUMPDEST PUSH0 PUSH2 0x9FC DUP3 PUSH2 0x10B4 JUMP JUMPDEST SWAP1 POP SWAP2 SWAP1 POP JUMP JUMPDEST PUSH1 0x64 DUP2 JUMP JUMPDEST PUSH0 DUP1 PUSH20 0xFFFFFFFFFFFFFFFFFFFFFFFFFFFFFFFFFFFFFFFF AND DUP3 PUSH20 0xFFFFFFFFFFFFFFFFFFFFFFFFFFFFFFFFFFFFFFFF AND SUB PUSH2 0xA79 JUMPI PUSH0 PUSH1 0x40 MLOAD PUSH32 0x89C62B6400000000000000000000000000000000000000000000000000000000 DUP2 MSTORE PUSH1 0x4 ADD PUSH2 0xA70 SWAP2 SWAP1 PUSH2 0x2365 JUMP JUMPDEST PUSH1 0x40 MLOAD DUP1 SWAP2 SUB SWAP1 REVERT JUMPDEST PUSH1 0x4 PUSH0 DUP4 PUSH20 0xFFFFFFFFFFFFFFFFFFFFFFFFFFFFFFFFFFFFFFFF AND PUSH20 0xFFFFFFFFFFFFFFFFFFFFFFFFFFFFFFFFFFFFFFFF AND DUP2 MSTORE PUSH1 0x20 ADD SWAP1 DUP2 MSTORE PUSH1 0x20 ADD PUSH0 KECCAK256 SLOAD SWAP1 POP SWAP2 SWAP1 POP JUMP JUMPDEST PUSH2 0xAC6 PUSH2 0x14F4 JUMP JUMPDEST PUSH2 0xACF PUSH0 PUSH2 0x157B JUMP JUMPDEST JUMP JUMPDEST PUSH2 0xAD9 PUSH2 0x14F4 JUMP JUMPDEST DUP1 PUSH1 0xC DUP2 SWAP1 SSTORE POP POP JUMP JUMPDEST PUSH2 0xAEB PUSH2 0x14F4 JUMP JUMPDEST DUP1 PUSH1 0xA DUP2 SWAP1 SSTORE POP POP JUMP JUMPDEST PUSH0 DUP1 PUSH0 SWAP1 SLOAD SWAP1 PUSH2 0x100 EXP SWAP1 DIV PUSH20 0xFFFFFFFFFFFFFFFFFFFFFFFFFFFFFFFFFFFFFFFF AND SWAP1 POP SWAP1 JUMP JUMPDEST PUSH1 0x60 PUSH1 0x2 DUP1 SLOAD PUSH2 0xB2B SWAP1 PUSH2 0x2836 JUMP JUMPDEST DUP1 PUSH1 0x1F ADD PUSH1 0x20 DUP1 SWAP2 DIV MUL PUSH1 0x20 ADD PUSH1 0x40 MLOAD SWAP1 DUP2 ADD PUSH1 0x40 MSTORE DUP1 SWAP3 SWAP2 SWAP1 DUP2 DUP2 MSTORE PUSH1 0x20 ADD DUP3 DUP1 SLOAD PUSH2 0xB57 SWAP1 PUSH2 0x2836 JUMP JUMPDEST DUP1 ISZERO PUSH2 0xBA2 JUMPI DUP1 PUSH1 0x1F LT PUSH2 0xB79 JUMPI PUSH2 0x100 DUP1 DUP4 SLOAD DIV MUL DUP4 MSTORE SWAP2 PUSH1 0x20 ADD SWAP2 PUSH2 0xBA2 JUMP JUMPDEST DUP3 ADD SWAP2 SWAP1 PUSH0 MSTORE PUSH1 0x20 PUSH0 KECCAK256 SWAP1 JUMPDEST DUP2 SLOAD DUP2 MSTORE SWAP1 PUSH1 0x1 ADD SWAP1 PUSH1 0x20 ADD DUP1 DUP4 GT PUSH2 0xB85 JUMPI DUP3 SWAP1 SUB PUSH1 0x1F AND DUP3 ADD SWAP2 JUMPDEST POP POP POP POP POP SWAP1 POP SWAP1 JUMP JUMPDEST PUSH2 0xBBE PUSH2 0xBB7 PUSH2 0x1173 JUMP JUMPDEST DUP4 DUP4 PUSH2 0x163C JUMP JUMPDEST POP POP JUMP JUMPDEST PUSH2 0xBCD DUP5 DUP5 DUP5 PUSH2 0x7EA JUMP JUMPDEST PUSH2 0xBE1 PUSH2 0xBD8 PUSH2 0x1173 JUMP JUMPDEST DUP6 DUP6 DUP6 DUP6 PUSH2 0x1815 JUMP JUMPDEST POP POP POP POP JUMP JUMPDEST PUSH2 0xBEF PUSH2 0x14F4 JUMP JUMPDEST PUSH2 0xBF7 PUSH2 0x19C1 JUMP JUMPDEST PUSH2 0xBFF PUSH2 0xAF5 JUMP JUMPDEST PUSH20 0xFFFFFFFFFFFFFFFFFFFFFFFFFFFFFFFFFFFFFFFF AND PUSH2 0x8FC SELFBALANCE SWAP1 DUP2 ISZERO MUL SWAP1 PUSH1 0x40 MLOAD PUSH0 PUSH1 0x40 MLOAD DUP1 DUP4 SUB DUP2 DUP6 DUP9 DUP9 CALL SWAP4 POP POP POP POP ISZERO DUP1 ISZERO PUSH2 0xC41 JUMPI RETURNDATASIZE PUSH0 DUP1 RETURNDATACOPY RETURNDATASIZE PUSH0 REVERT JUMPDEST POP PUSH2 0xC4A PUSH2 0x1A10 JUMP JUMPDEST JUMP JUMPDEST PUSH2 0xC54 PUSH2 0x14F4 JUMP JUMPDEST PUSH2 0xC5C PUSH2 0x9DD JUMP JUMPDEST ISZERO PUSH2 0xC6E JUMPI PUSH2 0xC69 PUSH2 0x1A1A JUMP JUMPDEST PUSH2 0xC77 JUMP JUMPDEST PUSH2 0xC76 PUSH2 0x1A7B JUMP JUMPDEST JUMPDEST JUMP JUMPDEST PUSH1 0x60 PUSH2 0xC84 DUP3 PUSH2 0x10B4 JUMP JUMPDEST POP PUSH0 PUSH2 0xC8E PUSH2 0x1ADD JUMP JUMPDEST SWAP1 POP PUSH0 DUP2 MLOAD GT PUSH2 0xCAC JUMPI PUSH1 0x40 MLOAD DUP1 PUSH1 0x20 ADD PUSH1 0x40 MSTORE DUP1 PUSH0 DUP2 MSTORE POP PUSH2 0xCD7 JUMP JUMPDEST DUP1 PUSH2 0xCB6 DUP5 PUSH2 0x1AF3 JUMP JUMPDEST PUSH1 0x40 MLOAD PUSH1 0x20 ADD PUSH2 0xCC7 SWAP3 SWAP2 SWAP1 PUSH2 0x29CB JUMP JUMPDEST PUSH1 0x40 MLOAD PUSH1 0x20 DUP2 DUP4 SUB SUB DUP2 MSTORE SWAP1 PUSH1 0x40 MSTORE JUMPDEST SWAP2 POP POP SWAP2 SWAP1 POP JUMP JUMPDEST PUSH1 0xB SLOAD DUP2 JUMP JUMPDEST PUSH2 0xCED PUSH2 0x1397 JUMP JUMPDEST PUSH1 0x64 PUSH2 0xCF9 PUSH1 0x9 PUSH2 0x13E1 JUMP JUMPDEST LT PUSH2 0xD39 JUMPI PUSH1 0x40 MLOAD PUSH32 0x8C379A000000000000000000000000000000000000000000000000000000000 DUP2 MSTORE PUSH1 0x4 ADD PUSH2 0xD30 SWAP1 PUSH2 0x28E5 JUMP JUMPDEST PUSH1 0x40 MLOAD DUP1 SWAP2 SUB SWAP1 REVERT JUMPDEST PUSH1 0xA SLOAD CALLVALUE EQ PUSH2 0xD7D JUMPI PUSH1 0x40 MLOAD PUSH32 0x8C379A000000000000000000000000000000000000000000000000000000000 DUP2 MSTORE PUSH1 0x4 ADD PUSH2 0xD74 SWAP1 PUSH2 0x2973 JUMP JUMPDEST PUSH1 0x40 MLOAD DUP1 SWAP2 SUB SWAP1 REVERT JUMPDEST PUSH0 CALLER PUSH1 0x40 MLOAD PUSH1 0x20 ADD PUSH2 0xD8F SWAP2 SWAP1 PUSH2 0x2A33 JUMP JUMPDEST PUSH1 0x40 MLOAD PUSH1 0x20 DUP2 DUP4 SUB SUB DUP2 MSTORE SWAP1 PUSH1 0x40 MSTORE DUP1 MLOAD SWAP1 PUSH1 0x20 ADD KECCAK256 SWAP1 POP PUSH2 0xDF4 DUP4 DUP4 DUP1 DUP1 PUSH1 0x20 MUL PUSH1 0x20 ADD PUSH1 0x40 MLOAD SWAP1 DUP2 ADD PUSH1 0x40 MSTORE DUP1 SWAP4 SWAP3 SWAP2 SWAP1 DUP2 DUP2 MSTORE PUSH1 0x20 ADD DUP4 DUP4 PUSH1 0x20 MUL DUP1 DUP3 DUP5 CALLDATACOPY PUSH0 DUP2 DUP5 ADD MSTORE PUSH1 0x1F NOT PUSH1 0x1F DUP3 ADD AND SWAP1 POP DUP1 DUP4 ADD SWAP3 POP POP POP POP POP POP POP PUSH1 0xC SLOAD DUP4 PUSH2 0x1BBD JUMP JUMPDEST PUSH2 0xE33 JUMPI PUSH1 0x40 MLOAD PUSH32 0x8C379A000000000000000000000000000000000000000000000000000000000 DUP2 MSTORE PUSH1 0x4 ADD PUSH2 0xE2A SWAP1 PUSH2 0x2ABD JUMP JUMPDEST PUSH1 0x40 MLOAD DUP1 SWAP2 SUB SWAP1 REVERT JUMPDEST PUSH1 0xD PUSH0 CALLER PUSH20 0xFFFFFFFFFFFFFFFFFFFFFFFFFFFFFFFFFFFFFFFF AND PUSH20 0xFFFFFFFFFFFFFFFFFFFFFFFFFFFFFFFFFFFFFFFF AND DUP2 MSTORE PUSH1 0x20 ADD SWAP1 DUP2 MSTORE PUSH1 0x20 ADD PUSH0 KECCAK256 PUSH0 SWAP1 SLOAD SWAP1 PUSH2 0x100 EXP SWAP1 DIV PUSH1 0xFF AND ISZERO PUSH2 0xEBD JUMPI PUSH1 0x40 MLOAD PUSH32 0x8C379A000000000000000000000000000000000000000000000000000000000 DUP2 MSTORE PUSH1 0x4 ADD PUSH2 0xEB4 SWAP1 PUSH2 0x2B25 JUMP JUMPDEST PUSH1 0x40 MLOAD DUP1 SWAP2 SUB SWAP1 REVERT JUMPDEST PUSH2 0xEC7 PUSH1 0x9 PUSH2 0x13ED JUMP JUMPDEST PUSH0 PUSH2 0xED2 PUSH1 0x9 PUSH2 0x13E1 JUMP JUMPDEST SWAP1 POP PUSH2 0xEDE CALLER DUP3 PUSH2 0x1401 JUMP JUMPDEST PUSH1 0x1 PUSH1 0xD PUSH0 CALLER PUSH20 0xFFFFFFFFFFFFFFFFFFFFFFFFFFFFFFFFFFFFFFFF AND PUSH20 0xFFFFFFFFFFFFFFFFFFFFFFFFFFFFFFFFFFFFFFFF AND DUP2 MSTORE PUSH1 0x20 ADD SWAP1 DUP2 MSTORE PUSH1 0x20 ADD PUSH0 KECCAK256 PUSH0 PUSH2 0x100 EXP DUP2 SLOAD DUP2 PUSH1 0xFF MUL NOT AND SWAP1 DUP4 ISZERO ISZERO MUL OR SWAP1 SSTORE POP POP POP POP POP JUMP JUMPDEST PUSH0 PUSH1 0x6 PUSH0 DUP5 PUSH20 0xFFFFFFFFFFFFFFFFFFFFFFFFFFFFFFFFFFFFFFFF AND PUSH20 0xFFFFFFFFFFFFFFFFFFFFFFFFFFFFFFFFFFFFFFFF AND DUP2 MSTORE PUSH1 0x20 ADD SWAP1 DUP2 MSTORE PUSH1 0x20 ADD PUSH0 KECCAK256 PUSH0 DUP4 PUSH20 0xFFFFFFFFFFFFFFFFFFFFFFFFFFFFFFFFFFFFFFFF AND PUSH20 0xFFFFFFFFFFFFFFFFFFFFFFFFFFFFFFFFFFFFFFFF AND DUP2 MSTORE PUSH1 0x20 ADD SWAP1 DUP2 MSTORE PUSH1 0x20 ADD PUSH0 KECCAK256 PUSH0 SWAP1 SLOAD SWAP1 PUSH2 0x100 EXP SWAP1 DIV PUSH1 0xFF AND SWAP1 POP SWAP3 SWAP2 POP POP JUMP JUMPDEST PUSH2 0xFCF PUSH2 0x14F4 JUMP JUMPDEST PUSH0 PUSH20 0xFFFFFFFFFFFFFFFFFFFFFFFFFFFFFFFFFFFFFFFF AND DUP2 PUSH20 0xFFFFFFFFFFFFFFFFFFFFFFFFFFFFFFFFFFFFFFFF AND SUB PUSH2 0x103F JUMPI PUSH0 PUSH1 0x40 MLOAD PUSH32 0x1E4FBDF700000000000000000000000000000000000000000000000000000000 DUP2 MSTORE PUSH1 0x4 ADD PUSH2 0x1036 SWAP2 SWAP1 PUSH2 0x2365 JUMP JUMPDEST PUSH1 0x40 MLOAD DUP1 SWAP2 SUB SWAP1 REVERT JUMPDEST PUSH2 0x1048 DUP2 PUSH2 0x157B JUMP JUMPDEST POP JUMP JUMPDEST PUSH0 PUSH32 0x1FFC9A700000000000000000000000000000000000000000000000000000000 PUSH28 0xFFFFFFFFFFFFFFFFFFFFFFFFFFFFFFFFFFFFFFFFFFFFFFFFFFFFFFFF NOT AND DUP3 PUSH28 0xFFFFFFFFFFFFFFFFFFFFFFFFFFFFFFFFFFFFFFFFFFFFFFFFFFFFFFFF NOT AND EQ SWAP1 POP SWAP2 SWAP1 POP JUMP JUMPDEST PUSH0 DUP1 PUSH2 0x10BF DUP4 PUSH2 0x1BD3 JUMP JUMPDEST SWAP1 POP PUSH0 PUSH20 0xFFFFFFFFFFFFFFFFFFFFFFFFFFFFFFFFFFFFFFFF AND DUP2 PUSH20 0xFFFFFFFFFFFFFFFFFFFFFFFFFFFFFFFFFFFFFFFF AND SUB PUSH2 0x1131 JUMPI DUP3 PUSH1 0x40 MLOAD PUSH32 0x7E27328900000000000000000000000000000000000000000000000000000000 DUP2 MSTORE PUSH1 0x4 ADD PUSH2 0x1128 SWAP2 SWAP1 PUSH2 0x23F5 JUMP JUMPDEST PUSH1 0x40 MLOAD DUP1 SWAP2 SUB SWAP1 REVERT JUMPDEST DUP1 SWAP2 POP POP SWAP2 SWAP1 POP JUMP JUMPDEST PUSH0 PUSH1 0x5 PUSH0 DUP4 DUP2 MSTORE PUSH1 0x20 ADD SWAP1 DUP2 MSTORE PUSH1 0x20 ADD PUSH0 KECCAK256 PUSH0 SWAP1 SLOAD SWAP1 PUSH2 0x100 EXP SWAP1 DIV PUSH20 0xFFFFFFFFFFFFFFFFFFFFFFFFFFFFFFFFFFFFFFFF AND SWAP1 POP SWAP2 SWAP1 POP JUMP JUMPDEST PUSH0 CALLER SWAP1 POP SWAP1 JUMP JUMPDEST PUSH2 0x1187 DUP4 DUP4 DUP4 PUSH1 0x1 PUSH2 0x1C0C JUMP JUMPDEST POP POP POP JUMP JUMPDEST PUSH0 DUP1 PUSH2 0x1197 DUP5 PUSH2 0x1BD3 JUMP JUMPDEST SWAP1 POP PUSH0 PUSH20 0xFFFFFFFFFFFFFFFFFFFFFFFFFFFFFFFFFFFFFFFF AND DUP4 PUSH20 0xFFFFFFFFFFFFFFFFFFFFFFFFFFFFFFFFFFFFFFFF AND EQ PUSH2 0x11D8 JUMPI PUSH2 0x11D7 DUP2 DUP5 DUP7 PUSH2 0x1DCB JUMP JUMPDEST JUMPDEST PUSH0 PUSH20 0xFFFFFFFFFFFFFFFFFFFFFFFFFFFFFFFFFFFFFFFF AND DUP2 PUSH20 0xFFFFFFFFFFFFFFFFFFFFFFFFFFFFFFFFFFFFFFFF AND EQ PUSH2 0x1263 JUMPI PUSH2 0x1217 PUSH0 DUP6 PUSH0 DUP1 PUSH2 0x1C0C JUMP JUMPDEST PUSH1 0x1 PUSH1 0x4 PUSH0 DUP4 PUSH20 0xFFFFFFFFFFFFFFFFFFFFFFFFFFFFFFFFFFFFFFFF AND PUSH20 0xFFFFFFFFFFFFFFFFFFFFFFFFFFFFFFFFFFFFFFFF AND DUP2 MSTORE PUSH1 0x20 ADD SWAP1 DUP2 MSTORE PUSH1 0x20 ADD PUSH0 KECCAK256 PUSH0 DUP3 DUP3 SLOAD SUB SWAP3 POP POP DUP2 SWAP1 SSTORE POP JUMPDEST PUSH0 PUSH20 0xFFFFFFFFFFFFFFFFFFFFFFFFFFFFFFFFFFFFFFFF AND DUP6 PUSH20 0xFFFFFFFFFFFFFFFFFFFFFFFFFFFFFFFFFFFFFFFF AND EQ PUSH2 0x12E2 JUMPI PUSH1 0x1 PUSH1 0x4 PUSH0 DUP8 PUSH20 0xFFFFFFFFFFFFFFFFFFFFFFFFFFFFFFFFFFFFFFFF AND PUSH20 0xFFFFFFFFFFFFFFFFFFFFFFFFFFFFFFFFFFFFFFFF AND DUP2 MSTORE PUSH1 0x20 ADD SWAP1 DUP2 MSTORE PUSH1 0x20 ADD PUSH0 KECCAK256 PUSH0 DUP3 DUP3 SLOAD ADD SWAP3 POP POP DUP2 SWAP1 SSTORE POP JUMPDEST DUP5 PUSH1 0x3 PUSH0 DUP7 DUP2 MSTORE PUSH1 0x20 ADD SWAP1 DUP2 MSTORE PUSH1 0x20 ADD PUSH0 KECCAK256 PUSH0 PUSH2 0x100 EXP DUP2 SLOAD DUP2 PUSH20 0xFFFFFFFFFFFFFFFFFFFFFFFFFFFFFFFFFFFFFFFF MUL NOT AND SWAP1 DUP4 PUSH20 0xFFFFFFFFFFFFFFFFFFFFFFFFFFFFFFFFFFFFFFFF AND MUL OR SWAP1 SSTORE POP DUP4 DUP6 PUSH20 0xFFFFFFFFFFFFFFFFFFFFFFFFFFFFFFFFFFFFFFFF AND DUP3 PUSH20 0xFFFFFFFFFFFFFFFFFFFFFFFFFFFFFFFFFFFFFFFF AND PUSH32 0xDDF252AD1BE2C89B69C2B068FC378DAA952BA7F163C4A11628F55A4DF523B3EF PUSH1 0x40 MLOAD PUSH1 0x40 MLOAD DUP1 SWAP2 SUB SWAP1 LOG4 DUP1 SWAP2 POP POP SWAP4 SWAP3 POP POP POP JUMP JUMPDEST PUSH2 0x139F PUSH2 0x9DD JUMP JUMPDEST ISZERO PUSH2 0x13DF JUMPI PUSH1 0x40 MLOAD PUSH32 0x8C379A000000000000000000000000000000000000000000000000000000000 DUP2 MSTORE PUSH1 0x4 ADD PUSH2 0x13D6 SWAP1 PUSH2 0x2B8D JUMP JUMPDEST PUSH1 0x40 MLOAD DUP1 SWAP2 SUB SWAP1 REVERT JUMPDEST JUMP JUMPDEST PUSH0 DUP2 PUSH0 ADD SLOAD SWAP1 POP SWAP2 SWAP1 POP JUMP JUMPDEST PUSH1 0x1 DUP2 PUSH0 ADD PUSH0 DUP3 DUP3 SLOAD ADD SWAP3 POP POP DUP2 SWAP1 SSTORE POP POP JUMP JUMPDEST PUSH0 PUSH20 0xFFFFFFFFFFFFFFFFFFFFFFFFFFFFFFFFFFFFFFFF AND DUP3 PUSH20 0xFFFFFFFFFFFFFFFFFFFFFFFFFFFFFFFFFFFFFFFF AND SUB PUSH2 0x1471 JUMPI PUSH0 PUSH1 0x40 MLOAD PUSH32 0x64A0AE9200000000000000000000000000000000000000000000000000000000 DUP2 MSTORE PUSH1 0x4 ADD PUSH2 0x1468 SWAP2 SWAP1 PUSH2 0x2365 JUMP JUMPDEST PUSH1 0x40 MLOAD DUP1 SWAP2 SUB SWAP1 REVERT JUMPDEST PUSH0 PUSH2 0x147D DUP4 DUP4 PUSH0 PUSH2 0x118C JUMP JUMPDEST SWAP1 POP PUSH0 PUSH20 0xFFFFFFFFFFFFFFFFFFFFFFFFFFFFFFFFFFFFFFFF AND DUP2 PUSH20 0xFFFFFFFFFFFFFFFFFFFFFFFFFFFFFFFFFFFFFFFF AND EQ PUSH2 0x14EF JUMPI PUSH0 PUSH1 0x40 MLOAD PUSH32 0x73C6AC6E00000000000000000000000000000000000000000000000000000000 DUP2 MSTORE PUSH1 0x4 ADD PUSH2 0x14E6 SWAP2 SWAP1 PUSH2 0x2365 JUMP JUMPDEST PUSH1 0x40 MLOAD DUP1 SWAP2 SUB SWAP1 REVERT JUMPDEST POP POP POP JUMP JUMPDEST PUSH2 0x14FC PUSH2 0x1173 JUMP JUMPDEST PUSH20 0xFFFFFFFFFFFFFFFFFFFFFFFFFFFFFFFFFFFFFFFF AND PUSH2 0x151A PUSH2 0xAF5 JUMP JUMPDEST PUSH20 0xFFFFFFFFFFFFFFFFFFFFFFFFFFFFFFFFFFFFFFFF AND EQ PUSH2 0x1579 JUMPI PUSH2 0x153D PUSH2 0x1173 JUMP JUMPDEST PUSH1 0x40 MLOAD PUSH32 0x118CDAA700000000000000000000000000000000000000000000000000000000 DUP2 MSTORE PUSH1 0x4 ADD PUSH2 0x1570 SWAP2 SWAP1 PUSH2 0x2365 JUMP JUMPDEST PUSH1 0x40 MLOAD DUP1 SWAP2 SUB SWAP1 REVERT JUMPDEST JUMP JUMPDEST PUSH0 DUP1 PUSH0 SWAP1 SLOAD SWAP1 PUSH2 0x100 EXP SWAP1 DIV PUSH20 0xFFFFFFFFFFFFFFFFFFFFFFFFFFFFFFFFFFFFFFFF AND SWAP1 POP DUP2 PUSH0 DUP1 PUSH2 0x100 EXP DUP2 SLOAD DUP2 PUSH20 0xFFFFFFFFFFFFFFFFFFFFFFFFFFFFFFFFFFFFFFFF MUL NOT AND SWAP1 DUP4 PUSH20 0xFFFFFFFFFFFFFFFFFFFFFFFFFFFFFFFFFFFFFFFF AND MUL OR SWAP1 SSTORE POP DUP2 PUSH20 0xFFFFFFFFFFFFFFFFFFFFFFFFFFFFFFFFFFFFFFFF AND DUP2 PUSH20 0xFFFFFFFFFFFFFFFFFFFFFFFFFFFFFFFFFFFFFFFF AND PUSH32 0x8BE0079C531659141344CD1FD0A4F28419497F9722A3DAAFE3B4186F6B6457E0 PUSH1 0x40 MLOAD PUSH1 0x40 MLOAD DUP1 SWAP2 SUB SWAP1 LOG3 POP POP JUMP JUMPDEST PUSH0 PUSH20 0xFFFFFFFFFFFFFFFFFFFFFFFFFFFFFFFFFFFFFFFF AND DUP4 PUSH20 0xFFFFFFFFFFFFFFFFFFFFFFFFFFFFFFFFFFFFFFFF AND SUB PUSH2 0x16AC JUMPI PUSH0 PUSH1 0x40 MLOAD PUSH32 0xA9FBF51F00000000000000000000000000000000000000000000000000000000 DUP2 MSTORE PUSH1 0x4 ADD PUSH2 0x16A3 SWAP2 SWAP1 PUSH2 0x2365 JUMP JUMPDEST PUSH1 0x40 MLOAD DUP1 SWAP2 SUB SWAP1 REVERT JUMPDEST PUSH0 PUSH20 0xFFFFFFFFFFFFFFFFFFFFFFFFFFFFFFFFFFFFFFFF AND DUP3 PUSH20 0xFFFFFFFFFFFFFFFFFFFFFFFFFFFFFFFFFFFFFFFF AND SUB PUSH2 0x171C JUMPI DUP2 PUSH1 0x40 MLOAD PUSH32 0x5B08BA1800000000000000000000000000000000000000000000000000000000 DUP2 MSTORE PUSH1 0x4 ADD PUSH2 0x1713 SWAP2 SWAP1 PUSH2 0x2365 JUMP JUMPDEST PUSH1 0x40 MLOAD DUP1 SWAP2 SUB SWAP1 REVERT JUMPDEST DUP1 PUSH1 0x6 PUSH0 DUP6 PUSH20 0xFFFFFFFFFFFFFFFFFFFFFFFFFFFFFFFFFFFFFFFF AND PUSH20 0xFFFFFFFFFFFFFFFFFFFFFFFFFFFFFFFFFFFFFFFF AND DUP2 MSTORE PUSH1 0x20 ADD SWAP1 DUP2 MSTORE PUSH1 0x20 ADD PUSH0 KECCAK256 PUSH0 DUP5 PUSH20 0xFFFFFFFFFFFFFFFFFFFFFFFFFFFFFFFFFFFFFFFF AND PUSH20 0xFFFFFFFFFFFFFFFFFFFFFFFFFFFFFFFFFFFFFFFF AND DUP2 MSTORE PUSH1 0x20 ADD SWAP1 DUP2 MSTORE PUSH1 0x20 ADD PUSH0 KECCAK256 PUSH0 PUSH2 0x100 EXP DUP2 SLOAD DUP2 PUSH1 0xFF MUL NOT AND SWAP1 DUP4 ISZERO ISZERO MUL OR SWAP1 SSTORE POP DUP2 PUSH20 0xFFFFFFFFFFFFFFFFFFFFFFFFFFFFFFFFFFFFFFFF AND DUP4 PUSH20 0xFFFFFFFFFFFFFFFFFFFFFFFFFFFFFFFFFFFFFFFF AND PUSH32 0x17307EAB39AB6107E8899845AD3D59BD9653F200F220920489CA2B5937696C31 DUP4 PUSH1 0x40 MLOAD PUSH2 0x1808 SWAP2 SWAP1 PUSH2 0x221F JUMP JUMPDEST PUSH1 0x40 MLOAD DUP1 SWAP2 SUB SWAP1 LOG3 POP POP POP JUMP JUMPDEST PUSH0 DUP4 PUSH20 0xFFFFFFFFFFFFFFFFFFFFFFFFFFFFFFFFFFFFFFFF AND EXTCODESIZE GT ISZERO PUSH2 0x19BA JUMPI DUP3 PUSH20 0xFFFFFFFFFFFFFFFFFFFFFFFFFFFFFFFFFFFFFFFF AND PUSH4 0x150B7A02 DUP7 DUP7 DUP6 DUP6 PUSH1 0x40 MLOAD DUP6 PUSH4 0xFFFFFFFF AND PUSH1 0xE0 SHL DUP2 MSTORE PUSH1 0x4 ADD PUSH2 0x1873 SWAP5 SWAP4 SWAP3 SWAP2 SWAP1 PUSH2 0x2BFD JUMP JUMPDEST PUSH1 0x20 PUSH1 0x40 MLOAD DUP1 DUP4 SUB DUP2 PUSH0 DUP8 GAS CALL SWAP3 POP POP POP DUP1 ISZERO PUSH2 0x18AE JUMPI POP PUSH1 0x40 MLOAD RETURNDATASIZE PUSH1 0x1F NOT PUSH1 0x1F DUP3 ADD AND DUP3 ADD DUP1 PUSH1 0x40 MSTORE POP DUP2 ADD SWAP1 PUSH2 0x18AB SWAP2 SWAP1 PUSH2 0x2C5B JUMP JUMPDEST PUSH1 0x1 JUMPDEST PUSH2 0x192F JUMPI RETURNDATASIZE DUP1 PUSH0 DUP2 EQ PUSH2 0x18DC JUMPI PUSH1 0x40 MLOAD SWAP2 POP PUSH1 0x1F NOT PUSH1 0x3F RETURNDATASIZE ADD AND DUP3 ADD PUSH1 0x40 MSTORE RETURNDATASIZE DUP3 MSTORE RETURNDATASIZE PUSH0 PUSH1 0x20 DUP5 ADD RETURNDATACOPY PUSH2 0x18E1 JUMP JUMPDEST PUSH1 0x60 SWAP2 POP JUMPDEST POP PUSH0 DUP2 MLOAD SUB PUSH2 0x1927 JUMPI DUP4 PUSH1 0x40 MLOAD PUSH32 0x64A0AE9200000000000000000000000000000000000000000000000000000000 DUP2 MSTORE PUSH1 0x4 ADD PUSH2 0x191E SWAP2 SWAP1 PUSH2 0x2365 JUMP JUMPDEST PUSH1 0x40 MLOAD DUP1 SWAP2 SUB SWAP1 REVERT JUMPDEST DUP1 MLOAD PUSH1 0x20 DUP3 ADD REVERT JUMPDEST PUSH4 0x150B7A02 PUSH1 0xE0 SHL PUSH28 0xFFFFFFFFFFFFFFFFFFFFFFFFFFFFFFFFFFFFFFFFFFFFFFFFFFFFFFFF NOT AND DUP2 PUSH28 0xFFFFFFFFFFFFFFFFFFFFFFFFFFFFFFFFFFFFFFFFFFFFFFFFFFFFFFFF NOT AND EQ PUSH2 0x19B8 JUMPI DUP4 PUSH1 0x40 MLOAD PUSH32 0x64A0AE9200000000000000000000000000000000000000000000000000000000 DUP2 MSTORE PUSH1 0x4 ADD PUSH2 0x19AF SWAP2 SWAP1 PUSH2 0x2365 JUMP JUMPDEST PUSH1 0x40 MLOAD DUP1 SWAP2 SUB SWAP1 REVERT JUMPDEST POP JUMPDEST POP POP POP POP POP JUMP JUMPDEST PUSH1 0x2 PUSH1 0x8 SLOAD SUB PUSH2 0x1A06 JUMPI PUSH1 0x40 MLOAD PUSH32 0x8C379A000000000000000000000000000000000000000000000000000000000 DUP2 MSTORE PUSH1 0x4 ADD PUSH2 0x19FD SWAP1 PUSH2 0x2CD0 JUMP JUMPDEST PUSH1 0x40 MLOAD DUP1 SWAP2 SUB SWAP1 REVERT JUMPDEST PUSH1 0x2 PUSH1 0x8 DUP2 SWAP1 SSTORE POP JUMP JUMPDEST PUSH1 0x1 PUSH1 0x8 DUP2 SWAP1 SSTORE POP JUMP JUMPDEST PUSH2 0x1A22 PUSH2 0x1E8E JUMP JUMPDEST PUSH0 PUSH1 0x7 PUSH0 PUSH2 0x100 EXP DUP2 SLOAD DUP2 PUSH1 0xFF MUL NOT AND SWAP1 DUP4 ISZERO ISZERO MUL OR SWAP1 SSTORE POP PUSH32 0x5DB9EE0A495BF2E6FF9C91A7834C1BA4FDD244A5E8AA4E537BD38AEAE4B073AA PUSH2 0x1A64 PUSH2 0x1173 JUMP JUMPDEST PUSH1 0x40 MLOAD PUSH2 0x1A71 SWAP2 SWAP1 PUSH2 0x2365 JUMP JUMPDEST PUSH1 0x40 MLOAD DUP1 SWAP2 SUB SWAP1 LOG1 JUMP JUMPDEST PUSH2 0x1A83 PUSH2 0x1397 JUMP JUMPDEST PUSH1 0x1 PUSH1 0x7 PUSH0 PUSH2 0x100 EXP DUP2 SLOAD DUP2 PUSH1 0xFF MUL NOT AND SWAP1 DUP4 ISZERO ISZERO MUL OR SWAP1 SSTORE POP PUSH32 0x62E78CEA01BEE320CD4E420270B5EA74000D11B0C9F74754EBDBFC544B05A258 PUSH2 0x1AC6 PUSH2 0x1173 JUMP JUMPDEST PUSH1 0x40 MLOAD PUSH2 0x1AD3 SWAP2 SWAP1 PUSH2 0x2365 JUMP JUMPDEST PUSH1 0x40 MLOAD DUP1 SWAP2 SUB SWAP1 LOG1 JUMP JUMPDEST PUSH1 0x60 PUSH1 0x40 MLOAD DUP1 PUSH1 0x20 ADD PUSH1 0x40 MSTORE DUP1 PUSH0 DUP2 MSTORE POP SWAP1 POP SWAP1 JUMP JUMPDEST PUSH1 0x60 PUSH0 PUSH1 0x1 PUSH2 0x1B01 DUP5 PUSH2 0x1ED7 JUMP JUMPDEST ADD SWAP1 POP PUSH0 DUP2 PUSH8 0xFFFFFFFFFFFFFFFF DUP2 GT ISZERO PUSH2 0x1B1F JUMPI PUSH2 0x1B1E PUSH2 0x257F JUMP JUMPDEST JUMPDEST PUSH1 0x40 MLOAD SWAP1 DUP1 DUP3 MSTORE DUP1 PUSH1 0x1F ADD PUSH1 0x1F NOT AND PUSH1 0x20 ADD DUP3 ADD PUSH1 0x40 MSTORE DUP1 ISZERO PUSH2 0x1B51 JUMPI DUP2 PUSH1 0x20 ADD PUSH1 0x1 DUP3 MUL DUP1 CALLDATASIZE DUP4 CALLDATACOPY DUP1 DUP3 ADD SWAP2 POP POP SWAP1 POP JUMPDEST POP SWAP1 POP PUSH0 DUP3 PUSH1 0x20 DUP4 ADD ADD SWAP1 POP JUMPDEST PUSH1 0x1 ISZERO PUSH2 0x1BB2 JUMPI DUP1 DUP1 PUSH1 0x1 SWAP1 SUB SWAP2 POP POP PUSH32 0x3031323334353637383961626364656600000000000000000000000000000000 PUSH1 0xA DUP7 MOD BYTE DUP2 MSTORE8 PUSH1 0xA DUP6 DUP2 PUSH2 0x1BA7 JUMPI PUSH2 0x1BA6 PUSH2 0x2CEE JUMP JUMPDEST JUMPDEST DIV SWAP5 POP PUSH0 DUP6 SUB PUSH2 0x1B5E JUMPI JUMPDEST DUP2 SWAP4 POP POP POP POP SWAP2 SWAP1 POP JUMP JUMPDEST PUSH0 DUP3 PUSH2 0x1BC9 DUP6 DUP5 PUSH2 0x2028 JUMP JUMPDEST EQ SWAP1 POP SWAP4 SWAP3 POP POP POP JUMP JUMPDEST PUSH0 PUSH1 0x3 PUSH0 DUP4 DUP2 MSTORE PUSH1 0x20 ADD SWAP1 DUP2 MSTORE PUSH1 0x20 ADD PUSH0 KECCAK256 PUSH0 SWAP1 SLOAD SWAP1 PUSH2 0x100 EXP SWAP1 DIV PUSH20 0xFFFFFFFFFFFFFFFFFFFFFFFFFFFFFFFFFFFFFFFF AND SWAP1 POP SWAP2 SWAP1 POP JUMP JUMPDEST DUP1 DUP1 PUSH2 0x1C44 JUMPI POP PUSH0 PUSH20 0xFFFFFFFFFFFFFFFFFFFFFFFFFFFFFFFFFFFFFFFF AND DUP3 PUSH20 0xFFFFFFFFFFFFFFFFFFFFFFFFFFFFFFFFFFFFFFFF AND EQ ISZERO JUMPDEST ISZERO PUSH2 0x1D76 JUMPI PUSH0 PUSH2 0x1C53 DUP5 PUSH2 0x10B4 JUMP JUMPDEST SWAP1 POP PUSH0 PUSH20 0xFFFFFFFFFFFFFFFFFFFFFFFFFFFFFFFFFFFFFFFF AND DUP4 PUSH20 0xFFFFFFFFFFFFFFFFFFFFFFFFFFFFFFFFFFFFFFFF AND EQ ISZERO DUP1 ISZERO PUSH2 0x1CBD JUMPI POP DUP3 PUSH20 0xFFFFFFFFFFFFFFFFFFFFFFFFFFFFFFFFFFFFFFFF AND DUP2 PUSH20 0xFFFFFFFFFFFFFFFFFFFFFFFFFFFFFFFFFFFFFFFF AND EQ ISZERO JUMPDEST DUP1 ISZERO PUSH2 0x1CD0 JUMPI POP PUSH2 0x1CCE DUP2 DUP5 PUSH2 0xF39 JUMP JUMPDEST ISZERO JUMPDEST ISZERO PUSH2 0x1D12 JUMPI DUP3 PUSH1 0x40 MLOAD PUSH32 0xA9FBF51F00000000000000000000000000000000000000000000000000000000 DUP2 MSTORE PUSH1 0x4 ADD PUSH2 0x1D09 SWAP2 SWAP1 PUSH2 0x2365 JUMP JUMPDEST PUSH1 0x40 MLOAD DUP1 SWAP2 SUB SWAP1 REVERT JUMPDEST DUP2 ISZERO PUSH2 0x1D74 JUMPI DUP4 DUP6 PUSH20 0xFFFFFFFFFFFFFFFFFFFFFFFFFFFFFFFFFFFFFFFF AND DUP3 PUSH20 0xFFFFFFFFFFFFFFFFFFFFFFFFFFFFFFFFFFFFFFFF AND PUSH32 0x8C5BE1E5EBEC7D5BD14F71427D1E84F3DD0314C0F7B2291E5B200AC8C7C3B925 PUSH1 0x40 MLOAD PUSH1 0x40 MLOAD DUP1 SWAP2 SUB SWAP1 LOG4 JUMPDEST POP JUMPDEST DUP4 PUSH1 0x5 PUSH0 DUP6 DUP2 MSTORE PUSH1 0x20 ADD SWAP1 DUP2 MSTORE PUSH1 0x20 ADD PUSH0 KECCAK256 PUSH0 PUSH2 0x100 EXP DUP2 SLOAD DUP2 PUSH20 0xFFFFFFFFFFFFFFFFFFFFFFFFFFFFFFFFFFFFFFFF MUL NOT AND SWAP1 DUP4 PUSH20 0xFFFFFFFFFFFFFFFFFFFFFFFFFFFFFFFFFFFFFFFF AND MUL OR SWAP1 SSTORE POP POP POP POP POP JUMP JUMPDEST PUSH2 0x1DD6 DUP4 DUP4 DUP4 PUSH2 0x2076 JUMP JUMPDEST PUSH2 0x1E89 JUMPI PUSH0 PUSH20 0xFFFFFFFFFFFFFFFFFFFFFFFFFFFFFFFFFFFFFFFF AND DUP4 PUSH20 0xFFFFFFFFFFFFFFFFFFFFFFFFFFFFFFFFFFFFFFFF AND SUB PUSH2 0x1E4A JUMPI DUP1 PUSH1 0x40 MLOAD PUSH32 0x7E27328900000000000000000000000000000000000000000000000000000000 DUP2 MSTORE PUSH1 0x4 ADD PUSH2 0x1E41 SWAP2 SWAP1 PUSH2 0x23F5 JUMP JUMPDEST PUSH1 0x40 MLOAD DUP1 SWAP2 SUB SWAP1 REVERT JUMPDEST DUP2 DUP2 PUSH1 0x40 MLOAD PUSH32 0x177E802F00000000000000000000000000000000000000000000000000000000 DUP2 MSTORE PUSH1 0x4 ADD PUSH2 0x1E80 SWAP3 SWAP2 SWAP1 PUSH2 0x2D1B JUMP JUMPDEST PUSH1 0x40 MLOAD DUP1 SWAP2 SUB SWAP1 REVERT JUMPDEST POP POP POP JUMP JUMPDEST PUSH2 0x1E96 PUSH2 0x9DD JUMP JUMPDEST PUSH2 0x1ED5 JUMPI PUSH1 0x40 MLOAD PUSH32 0x8C379A000000000000000000000000000000000000000000000000000000000 DUP2 MSTORE PUSH1 0x4 ADD PUSH2 0x1ECC SWAP1 PUSH2 0x2D8C JUMP JUMPDEST PUSH1 0x40 MLOAD DUP1 SWAP2 SUB SWAP1 REVERT JUMPDEST JUMP JUMPDEST PUSH0 DUP1 PUSH0 SWAP1 POP PUSH27 0x184F03E93FF9F4DAA797ED6E38ED64BF6A1F010000000000000000 DUP4 LT PUSH2 0x1F33 JUMPI PUSH27 0x184F03E93FF9F4DAA797ED6E38ED64BF6A1F010000000000000000 DUP4 DUP2 PUSH2 0x1F29 JUMPI PUSH2 0x1F28 PUSH2 0x2CEE JUMP JUMPDEST JUMPDEST DIV SWAP3 POP PUSH1 0x40 DUP2 ADD SWAP1 POP JUMPDEST PUSH14 0x4EE2D6D415B85ACEF8100000000 DUP4 LT PUSH2 0x1F70 JUMPI PUSH14 0x4EE2D6D415B85ACEF8100000000 DUP4 DUP2 PUSH2 0x1F66 JUMPI PUSH2 0x1F65 PUSH2 0x2CEE JUMP JUMPDEST JUMPDEST DIV SWAP3 POP PUSH1 0x20 DUP2 ADD SWAP1 POP JUMPDEST PUSH7 0x2386F26FC10000 DUP4 LT PUSH2 0x1F9F JUMPI PUSH7 0x2386F26FC10000 DUP4 DUP2 PUSH2 0x1F95 JUMPI PUSH2 0x1F94 PUSH2 0x2CEE JUMP JUMPDEST JUMPDEST DIV SWAP3 POP PUSH1 0x10 DUP2 ADD SWAP1 POP JUMPDEST PUSH4 0x5F5E100 DUP4 LT PUSH2 0x1FC8 JUMPI PUSH4 0x5F5E100 DUP4 DUP2 PUSH2 0x1FBE JUMPI PUSH2 0x1FBD PUSH2 0x2CEE JUMP JUMPDEST JUMPDEST DIV SWAP3 POP PUSH1 0x8 DUP2 ADD SWAP1 POP JUMPDEST PUSH2 0x2710 DUP4 LT PUSH2 0x1FED JUMPI PUSH2 0x2710 DUP4 DUP2 PUSH2 0x1FE3 JUMPI PUSH2 0x1FE2 PUSH2 0x2CEE JUMP JUMPDEST JUMPDEST DIV SWAP3 POP PUSH1 0x4 DUP2 ADD SWAP1 POP JUMPDEST PUSH1 0x64 DUP4 LT PUSH2 0x2010 JUMPI PUSH1 0x64 DUP4 DUP2 PUSH2 0x2006 JUMPI PUSH2 0x2005 PUSH2 0x2CEE JUMP JUMPDEST JUMPDEST DIV SWAP3 POP PUSH1 0x2 DUP2 ADD SWAP1 POP JUMPDEST PUSH1 0xA DUP4 LT PUSH2 0x201F JUMPI PUSH1 0x1 DUP2 ADD SWAP1 POP JUMPDEST DUP1 SWAP2 POP POP SWAP2 SWAP1 POP JUMP JUMPDEST PUSH0 DUP1 DUP3 SWAP1 POP PUSH0 JUMPDEST DUP5 MLOAD DUP2 LT ISZERO PUSH2 0x206B JUMPI PUSH2 0x205C DUP3 DUP7 DUP4 DUP2 MLOAD DUP2 LT PUSH2 0x204F JUMPI PUSH2 0x204E PUSH2 0x2DAA JUMP JUMPDEST JUMPDEST PUSH1 0x20 MUL PUSH1 0x20 ADD ADD MLOAD PUSH2 0x2136 JUMP JUMPDEST SWAP2 POP DUP1 DUP1 PUSH1 0x1 ADD SWAP2 POP POP PUSH2 0x202F JUMP JUMPDEST POP DUP1 SWAP2 POP POP SWAP3 SWAP2 POP POP JUMP JUMPDEST PUSH0 DUP1 PUSH20 0xFFFFFFFFFFFFFFFFFFFFFFFFFFFFFFFFFFFFFFFF AND DUP4 PUSH20 0xFFFFFFFFFFFFFFFFFFFFFFFFFFFFFFFFFFFFFFFF AND EQ ISZERO DUP1 ISZERO PUSH2 0x212D JUMPI POP DUP3 PUSH20 0xFFFFFFFFFFFFFFFFFFFFFFFFFFFFFFFFFFFFFFFF AND DUP5 PUSH20 0xFFFFFFFFFFFFFFFFFFFFFFFFFFFFFFFFFFFFFFFF AND EQ DUP1 PUSH2 0x20EE JUMPI POP PUSH2 0x20ED DUP5 DUP5 PUSH2 0xF39 JUMP JUMPDEST JUMPDEST DUP1 PUSH2 0x212C JUMPI POP DUP3 PUSH20 0xFFFFFFFFFFFFFFFFFFFFFFFFFFFFFFFFFFFFFFFF AND PUSH2 0x2114 DUP4 PUSH2 0x113A JUMP JUMPDEST PUSH20 0xFFFFFFFFFFFFFFFFFFFFFFFFFFFFFFFFFFFFFFFF AND EQ JUMPDEST JUMPDEST SWAP1 POP SWAP4 SWAP3 POP POP POP JUMP JUMPDEST PUSH0 DUP2 DUP4 LT PUSH2 0x214D JUMPI PUSH2 0x2148 DUP3 DUP5 PUSH2 0x2160 JUMP JUMPDEST PUSH2 0x2158 JUMP JUMPDEST PUSH2 0x2157 DUP4 DUP4 PUSH2 0x2160 JUMP JUMPDEST JUMPDEST SWAP1 POP SWAP3 SWAP2 POP POP JUMP JUMPDEST PUSH0 DUP3 PUSH0 MSTORE DUP2 PUSH1 0x20 MSTORE PUSH1 0x40 PUSH0 KECCAK256 SWAP1 POP SWAP3 SWAP2 POP POP JUMP JUMPDEST PUSH0 PUSH1 0x40 MLOAD SWAP1 POP SWAP1 JUMP JUMPDEST PUSH0 DUP1 REVERT JUMPDEST PUSH0 DUP1 REVERT JUMPDEST PUSH0 PUSH32 0xFFFFFFFF00000000000000000000000000000000000000000000000000000000 DUP3 AND SWAP1 POP SWAP2 SWAP1 POP JUMP JUMPDEST PUSH2 0x21B9 DUP2 PUSH2 0x2185 JUMP JUMPDEST DUP2 EQ PUSH2 0x21C3 JUMPI PUSH0 DUP1 REVERT JUMPDEST POP JUMP JUMPDEST PUSH0 DUP2 CALLDATALOAD SWAP1 POP PUSH2 0x21D4 DUP2 PUSH2 0x21B0 JUMP JUMPDEST SWAP3 SWAP2 POP POP JUMP JUMPDEST PUSH0 PUSH1 0x20 DUP3 DUP5 SUB SLT ISZERO PUSH2 0x21EF JUMPI PUSH2 0x21EE PUSH2 0x217D JUMP JUMPDEST JUMPDEST PUSH0 PUSH2 0x21FC DUP5 DUP3 DUP6 ADD PUSH2 0x21C6 JUMP JUMPDEST SWAP2 POP POP SWAP3 SWAP2 POP POP JUMP JUMPDEST PUSH0 DUP2 ISZERO ISZERO SWAP1 POP SWAP2 SWAP1 POP JUMP JUMPDEST PUSH2 0x2219 DUP2 PUSH2 0x2205 JUMP JUMPDEST DUP3 MSTORE POP POP JUMP JUMPDEST PUSH0 PUSH1 0x20 DUP3 ADD SWAP1 POP PUSH2 0x2232 PUSH0 DUP4 ADD DUP5 PUSH2 0x2210 JUMP JUMPDEST SWAP3 SWAP2 POP POP JUMP JUMPDEST PUSH0 DUP2 MLOAD SWAP1 POP SWAP2 SWAP1 POP JUMP JUMPDEST PUSH0 DUP3 DUP3 MSTORE PUSH1 0x20 DUP3 ADD SWAP1 POP SWAP3 SWAP2 POP POP JUMP JUMPDEST DUP3 DUP2 DUP4 MCOPY PUSH0 DUP4 DUP4 ADD MSTORE POP POP POP JUMP JUMPDEST PUSH0 PUSH1 0x1F NOT PUSH1 0x1F DUP4 ADD AND SWAP1 POP SWAP2 SWAP1 POP JUMP JUMPDEST PUSH0 PUSH2 0x227A DUP3 PUSH2 0x2238 JUMP JUMPDEST PUSH2 0x2284 DUP2 DUP6 PUSH2 0x2242 JUMP JUMPDEST SWAP4 POP PUSH2 0x2294 DUP2 DUP6 PUSH1 0x20 DUP7 ADD PUSH2 0x2252 JUMP JUMPDEST PUSH2 0x229D DUP2 PUSH2 0x2260 JUMP JUMPDEST DUP5 ADD SWAP2 POP POP SWAP3 SWAP2 POP POP JUMP JUMPDEST PUSH0 PUSH1 0x20 DUP3 ADD SWAP1 POP DUP2 DUP2 SUB PUSH0 DUP4 ADD MSTORE PUSH2 0x22C0 DUP2 DUP5 PUSH2 0x2270 JUMP JUMPDEST SWAP1 POP SWAP3 SWAP2 POP POP JUMP JUMPDEST PUSH0 DUP2 SWAP1 POP SWAP2 SWAP1 POP JUMP JUMPDEST PUSH2 0x22DA DUP2 PUSH2 0x22C8 JUMP JUMPDEST DUP2 EQ PUSH2 0x22E4 JUMPI PUSH0 DUP1 REVERT JUMPDEST POP JUMP JUMPDEST PUSH0 DUP2 CALLDATALOAD SWAP1 POP PUSH2 0x22F5 DUP2 PUSH2 0x22D1 JUMP JUMPDEST SWAP3 SWAP2 POP POP JUMP JUMPDEST PUSH0 PUSH1 0x20 DUP3 DUP5 SUB SLT ISZERO PUSH2 0x2310 JUMPI PUSH2 0x230F PUSH2 0x217D JUMP JUMPDEST JUMPDEST PUSH0 PUSH2 0x231D DUP5 DUP3 DUP6 ADD PUSH2 0x22E7 JUMP JUMPDEST SWAP2 POP POP SWAP3 SWAP2 POP POP JUMP JUMPDEST PUSH0 PUSH20 0xFFFFFFFFFFFFFFFFFFFFFFFFFFFFFFFFFFFFFFFF DUP3 AND SWAP1 POP SWAP2 SWAP1 POP JUMP JUMPDEST PUSH0 PUSH2 0x234F DUP3 PUSH2 0x2326 JUMP JUMPDEST SWAP1 POP SWAP2 SWAP1 POP JUMP JUMPDEST PUSH2 0x235F DUP2 PUSH2 0x2345 JUMP JUMPDEST DUP3 MSTORE POP POP JUMP JUMPDEST PUSH0 PUSH1 0x20 DUP3 ADD SWAP1 POP PUSH2 0x2378 PUSH0 DUP4 ADD DUP5 PUSH2 0x2356 JUMP JUMPDEST SWAP3 SWAP2 POP POP JUMP JUMPDEST PUSH2 0x2387 DUP2 PUSH2 0x2345 JUMP JUMPDEST DUP2 EQ PUSH2 0x2391 JUMPI PUSH0 DUP1 REVERT JUMPDEST POP JUMP JUMPDEST PUSH0 DUP2 CALLDATALOAD SWAP1 POP PUSH2 0x23A2 DUP2 PUSH2 0x237E JUMP JUMPDEST SWAP3 SWAP2 POP POP JUMP JUMPDEST PUSH0 DUP1 PUSH1 0x40 DUP4 DUP6 SUB SLT ISZERO PUSH2 0x23BE JUMPI PUSH2 0x23BD PUSH2 0x217D JUMP JUMPDEST JUMPDEST PUSH0 PUSH2 0x23CB DUP6 DUP3 DUP7 ADD PUSH2 0x2394 JUMP JUMPDEST SWAP3 POP POP PUSH1 0x20 PUSH2 0x23DC DUP6 DUP3 DUP7 ADD PUSH2 0x22E7 JUMP JUMPDEST SWAP2 POP POP SWAP3 POP SWAP3 SWAP1 POP JUMP JUMPDEST PUSH2 0x23EF DUP2 PUSH2 0x22C8 JUMP JUMPDEST DUP3 MSTORE POP POP JUMP JUMPDEST PUSH0 PUSH1 0x20 DUP3 ADD SWAP1 POP PUSH2 0x2408 PUSH0 DUP4 ADD DUP5 PUSH2 0x23E6 JUMP JUMPDEST SWAP3 SWAP2 POP POP JUMP JUMPDEST PUSH0 DUP1 PUSH0 PUSH1 0x60 DUP5 DUP7 SUB SLT ISZERO PUSH2 0x2425 JUMPI PUSH2 0x2424 PUSH2 0x217D JUMP JUMPDEST JUMPDEST PUSH0 PUSH2 0x2432 DUP7 DUP3 DUP8 ADD PUSH2 0x2394 JUMP JUMPDEST SWAP4 POP POP PUSH1 0x20 PUSH2 0x2443 DUP7 DUP3 DUP8 ADD PUSH2 0x2394 JUMP JUMPDEST SWAP3 POP POP PUSH1 0x40 PUSH2 0x2454 DUP7 DUP3 DUP8 ADD PUSH2 0x22E7 JUMP JUMPDEST SWAP2 POP POP SWAP3 POP SWAP3 POP SWAP3 JUMP JUMPDEST PUSH0 DUP2 SWAP1 POP SWAP2 SWAP1 POP JUMP JUMPDEST PUSH2 0x2470 DUP2 PUSH2 0x245E JUMP JUMPDEST DUP3 MSTORE POP POP JUMP JUMPDEST PUSH0 PUSH1 0x20 DUP3 ADD SWAP1 POP PUSH2 0x2489 PUSH0 DUP4 ADD DUP5 PUSH2 0x2467 JUMP JUMPDEST SWAP3 SWAP2 POP POP JUMP JUMPDEST PUSH0 PUSH1 0x20 DUP3 DUP5 SUB SLT ISZERO PUSH2 0x24A4 JUMPI PUSH2 0x24A3 PUSH2 0x217D JUMP JUMPDEST JUMPDEST PUSH0 PUSH2 0x24B1 DUP5 DUP3 DUP6 ADD PUSH2 0x2394 JUMP JUMPDEST SWAP2 POP POP SWAP3 SWAP2 POP POP JUMP JUMPDEST PUSH2 0x24C3 DUP2 PUSH2 0x245E JUMP JUMPDEST DUP2 EQ PUSH2 0x24CD JUMPI PUSH0 DUP1 REVERT JUMPDEST POP JUMP JUMPDEST PUSH0 DUP2 CALLDATALOAD SWAP1 POP PUSH2 0x24DE DUP2 PUSH2 0x24BA JUMP JUMPDEST SWAP3 SWAP2 POP POP JUMP JUMPDEST PUSH0 PUSH1 0x20 DUP3 DUP5 SUB SLT ISZERO PUSH2 0x24F9 JUMPI PUSH2 0x24F8 PUSH2 0x217D JUMP JUMPDEST JUMPDEST PUSH0 PUSH2 0x2506 DUP5 DUP3 DUP6 ADD PUSH2 0x24D0 JUMP JUMPDEST SWAP2 POP POP SWAP3 SWAP2 POP POP JUMP JUMPDEST PUSH2 0x2518 DUP2 PUSH2 0x2205 JUMP JUMPDEST DUP2 EQ PUSH2 0x2522 JUMPI PUSH0 DUP1 REVERT JUMPDEST POP JUMP JUMPDEST PUSH0 DUP2 CALLDATALOAD SWAP1 POP PUSH2 0x2533 DUP2 PUSH2 0x250F JUMP JUMPDEST SWAP3 SWAP2 POP POP JUMP JUMPDEST PUSH0 DUP1 PUSH1 0x40 DUP4 DUP6 SUB SLT ISZERO PUSH2 0x254F JUMPI PUSH2 0x254E PUSH2 0x217D JUMP JUMPDEST JUMPDEST PUSH0 PUSH2 0x255C DUP6 DUP3 DUP7 ADD PUSH2 0x2394 JUMP JUMPDEST SWAP3 POP POP PUSH1 0x20 PUSH2 0x256D DUP6 DUP3 DUP7 ADD PUSH2 0x2525 JUMP JUMPDEST SWAP2 POP POP SWAP3 POP SWAP3 SWAP1 POP JUMP JUMPDEST PUSH0 DUP1 REVERT JUMPDEST PUSH0 DUP1 REVERT JUMPDEST PUSH32 0x4E487B7100000000000000000000000000000000000000000000000000000000 PUSH0 MSTORE PUSH1 0x41 PUSH1 0x4 MSTORE PUSH1 0x24 PUSH0 REVERT JUMPDEST PUSH2 0x25B5 DUP3 PUSH2 0x2260 JUMP JUMPDEST DUP2 ADD DUP2 DUP2 LT PUSH8 0xFFFFFFFFFFFFFFFF DUP3 GT OR ISZERO PUSH2 0x25D4 JUMPI PUSH2 0x25D3 PUSH2 0x257F JUMP JUMPDEST JUMPDEST DUP1 PUSH1 0x40 MSTORE POP POP POP JUMP JUMPDEST PUSH0 PUSH2 0x25E6 PUSH2 0x2174 JUMP JUMPDEST SWAP1 POP PUSH2 0x25F2 DUP3 DUP3 PUSH2 0x25AC JUMP JUMPDEST SWAP2 SWAP1 POP JUMP JUMPDEST PUSH0 PUSH8 0xFFFFFFFFFFFFFFFF DUP3 GT ISZERO PUSH2 0x2611 JUMPI PUSH2 0x2610 PUSH2 0x257F JUMP JUMPDEST JUMPDEST PUSH2 0x261A DUP3 PUSH2 0x2260 JUMP JUMPDEST SWAP1 POP PUSH1 0x20 DUP2 ADD SWAP1 POP SWAP2 SWAP1 POP JUMP JUMPDEST DUP3 DUP2 DUP4 CALLDATACOPY PUSH0 DUP4 DUP4 ADD MSTORE POP POP POP JUMP JUMPDEST PUSH0 PUSH2 0x2647 PUSH2 0x2642 DUP5 PUSH2 0x25F7 JUMP JUMPDEST PUSH2 0x25DD JUMP JUMPDEST SWAP1 POP DUP3 DUP2 MSTORE PUSH1 0x20 DUP2 ADD DUP5 DUP5 DUP5 ADD GT ISZERO PUSH2 0x2663 JUMPI PUSH2 0x2662 PUSH2 0x257B JUMP JUMPDEST JUMPDEST PUSH2 0x266E DUP5 DUP3 DUP6 PUSH2 0x2627 JUMP JUMPDEST POP SWAP4 SWAP3 POP POP POP JUMP JUMPDEST PUSH0 DUP3 PUSH1 0x1F DUP4 ADD SLT PUSH2 0x268A JUMPI PUSH2 0x2689 PUSH2 0x2577 JUMP JUMPDEST JUMPDEST DUP2 CALLDATALOAD PUSH2 0x269A DUP5 DUP3 PUSH1 0x20 DUP7 ADD PUSH2 0x2635 JUMP JUMPDEST SWAP2 POP POP SWAP3 SWAP2 POP POP JUMP JUMPDEST PUSH0 DUP1 PUSH0 DUP1 PUSH1 0x80 DUP6 DUP8 SUB SLT ISZERO PUSH2 0x26BB JUMPI PUSH2 0x26BA PUSH2 0x217D JUMP JUMPDEST JUMPDEST PUSH0 PUSH2 0x26C8 DUP8 DUP3 DUP9 ADD PUSH2 0x2394 JUMP JUMPDEST SWAP5 POP POP PUSH1 0x20 PUSH2 0x26D9 DUP8 DUP3 DUP9 ADD PUSH2 0x2394 JUMP JUMPDEST SWAP4 POP POP PUSH1 0x40 PUSH2 0x26EA DUP8 DUP3 DUP9 ADD PUSH2 0x22E7 JUMP JUMPDEST SWAP3 POP POP PUSH1 0x60 DUP6 ADD CALLDATALOAD PUSH8 0xFFFFFFFFFFFFFFFF DUP2 GT ISZERO PUSH2 0x270B JUMPI PUSH2 0x270A PUSH2 0x2181 JUMP JUMPDEST JUMPDEST PUSH2 0x2717 DUP8 DUP3 DUP9 ADD PUSH2 0x2676 JUMP JUMPDEST SWAP2 POP POP SWAP3 SWAP6 SWAP2 SWAP5 POP SWAP3 POP JUMP JUMPDEST PUSH0 DUP1 REVERT JUMPDEST PUSH0 DUP1 REVERT JUMPDEST PUSH0 DUP1 DUP4 PUSH1 0x1F DUP5 ADD SLT PUSH2 0x2740 JUMPI PUSH2 0x273F PUSH2 0x2577 JUMP JUMPDEST JUMPDEST DUP3 CALLDATALOAD SWAP1 POP PUSH8 0xFFFFFFFFFFFFFFFF DUP2 GT ISZERO PUSH2 0x275D JUMPI PUSH2 0x275C PUSH2 0x2723 JUMP JUMPDEST JUMPDEST PUSH1 0x20 DUP4 ADD SWAP2 POP DUP4 PUSH1 0x20 DUP3 MUL DUP4 ADD GT ISZERO PUSH2 0x2779 JUMPI PUSH2 0x2778 PUSH2 0x2727 JUMP JUMPDEST JUMPDEST SWAP3 POP SWAP3 SWAP1 POP JUMP JUMPDEST PUSH0 DUP1 PUSH1 0x20 DUP4 DUP6 SUB SLT ISZERO PUSH2 0x2796 JUMPI PUSH2 0x2795 PUSH2 0x217D JUMP JUMPDEST JUMPDEST PUSH0 DUP4 ADD CALLDATALOAD PUSH8 0xFFFFFFFFFFFFFFFF DUP2 GT ISZERO PUSH2 0x27B3 JUMPI PUSH2 0x27B2 PUSH2 0x2181 JUMP JUMPDEST JUMPDEST PUSH2 0x27BF DUP6 DUP3 DUP7 ADD PUSH2 0x272B JUMP JUMPDEST SWAP3 POP SWAP3 POP POP SWAP3 POP SWAP3 SWAP1 POP JUMP JUMPDEST PUSH0 DUP1 PUSH1 0x40 DUP4 DUP6 SUB SLT ISZERO PUSH2 0x27E1 JUMPI PUSH2 0x27E0 PUSH2 0x217D JUMP JUMPDEST JUMPDEST PUSH0 PUSH2 0x27EE DUP6 DUP3 DUP7 ADD PUSH2 0x2394 JUMP JUMPDEST SWAP3 POP POP PUSH1 0x20 PUSH2 0x27FF DUP6 DUP3 DUP7 ADD PUSH2 0x2394 JUMP JUMPDEST SWAP2 POP POP SWAP3 POP SWAP3 SWAP1 POP JUMP JUMPDEST PUSH32 0x4E487B7100000000000000000000000000000000000000000000000000000000 PUSH0 MSTORE PUSH1 0x22 PUSH1 0x4 MSTORE PUSH1 0x24 PUSH0 REVERT JUMPDEST PUSH0 PUSH1 0x2 DUP3 DIV SWAP1 POP PUSH1 0x1 DUP3 AND DUP1 PUSH2 0x284D JUMPI PUSH1 0x7F DUP3 AND SWAP2 POP JUMPDEST PUSH1 0x20 DUP3 LT DUP2 SUB PUSH2 0x2860 JUMPI PUSH2 0x285F PUSH2 0x2809 JUMP JUMPDEST JUMPDEST POP SWAP2 SWAP1 POP JUMP JUMPDEST PUSH0 PUSH1 0x60 DUP3 ADD SWAP1 POP PUSH2 0x2879 PUSH0 DUP4 ADD DUP7 PUSH2 0x2356 JUMP JUMPDEST PUSH2 0x2886 PUSH1 0x20 DUP4 ADD DUP6 PUSH2 0x23E6 JUMP JUMPDEST PUSH2 0x2893 PUSH1 0x40 DUP4 ADD DUP5 PUSH2 0x2356 JUMP JUMPDEST SWAP5 SWAP4 POP POP POP POP JUMP JUMPDEST PUSH32 0x537570706C79206578636565646564202C2041424F5254494E47202121000000 PUSH0 DUP3 ADD MSTORE POP JUMP JUMPDEST PUSH0 PUSH2 0x28CF PUSH1 0x1D DUP4 PUSH2 0x2242 JUMP JUMPDEST SWAP2 POP PUSH2 0x28DA DUP3 PUSH2 0x289B JUMP JUMPDEST PUSH1 0x20 DUP3 ADD SWAP1 POP SWAP2 SWAP1 POP JUMP JUMPDEST PUSH0 PUSH1 0x20 DUP3 ADD SWAP1 POP DUP2 DUP2 SUB PUSH0 DUP4 ADD MSTORE PUSH2 0x28FC DUP2 PUSH2 0x28C3 JUMP JUMPDEST SWAP1 POP SWAP2 SWAP1 POP JUMP JUMPDEST PUSH32 0x45786163742070726963652076616C7565206E6F742073656E74202C2041424F PUSH0 DUP3 ADD MSTORE PUSH32 0x5254494E47202121000000000000000000000000000000000000000000000000 PUSH1 0x20 DUP3 ADD MSTORE POP JUMP JUMPDEST PUSH0 PUSH2 0x295D PUSH1 0x28 DUP4 PUSH2 0x2242 JUMP JUMPDEST SWAP2 POP PUSH2 0x2968 DUP3 PUSH2 0x2903 JUMP JUMPDEST PUSH1 0x40 DUP3 ADD SWAP1 POP SWAP2 SWAP1 POP JUMP JUMPDEST PUSH0 PUSH1 0x20 DUP3 ADD SWAP1 POP DUP2 DUP2 SUB PUSH0 DUP4 ADD MSTORE PUSH2 0x298A DUP2 PUSH2 0x2951 JUMP JUMPDEST SWAP1 POP SWAP2 SWAP1 POP JUMP JUMPDEST PUSH0 DUP2 SWAP1 POP SWAP3 SWAP2 POP POP JUMP JUMPDEST PUSH0 PUSH2 0x29A5 DUP3 PUSH2 0x2238 JUMP JUMPDEST PUSH2 0x29AF DUP2 DUP6 PUSH2 0x2991 JUMP JUMPDEST SWAP4 POP PUSH2 0x29BF DUP2 DUP6 PUSH1 0x20 DUP7 ADD PUSH2 0x2252 JUMP JUMPDEST DUP1 DUP5 ADD SWAP2 POP POP SWAP3 SWAP2 POP POP JUMP JUMPDEST PUSH0 PUSH2 0x29D6 DUP3 DUP6 PUSH2 0x299B JUMP JUMPDEST SWAP2 POP PUSH2 0x29E2 DUP3 DUP5 PUSH2 0x299B JUMP JUMPDEST SWAP2 POP DUP2 SWAP1 POP SWAP4 SWAP3 POP POP POP JUMP JUMPDEST PUSH0 DUP2 PUSH1 0x60 SHL SWAP1 POP SWAP2 SWAP1 POP JUMP JUMPDEST PUSH0 PUSH2 0x2A04 DUP3 PUSH2 0x29EE JUMP JUMPDEST SWAP1 POP SWAP2 SWAP1 POP JUMP JUMPDEST PUSH0 PUSH2 0x2A15 DUP3 PUSH2 0x29FA JUMP JUMPDEST SWAP1 POP SWAP2 SWAP1 POP JUMP JUMPDEST PUSH2 0x2A2D PUSH2 0x2A28 DUP3 PUSH2 0x2345 JUMP JUMPDEST PUSH2 0x2A0B JUMP JUMPDEST DUP3 MSTORE POP POP JUMP JUMPDEST PUSH0 PUSH2 0x2A3E DUP3 DUP5 PUSH2 0x2A1C JUMP JUMPDEST PUSH1 0x14 DUP3 ADD SWAP2 POP DUP2 SWAP1 POP SWAP3 SWAP2 POP POP JUMP JUMPDEST PUSH32 0x496E76616C69642070726F6F66206F662057686974656C697374202C2041424F PUSH0 DUP3 ADD MSTORE PUSH32 0x5254494E47202121000000000000000000000000000000000000000000000000 PUSH1 0x20 DUP3 ADD MSTORE POP JUMP JUMPDEST PUSH0 PUSH2 0x2AA7 PUSH1 0x28 DUP4 PUSH2 0x2242 JUMP JUMPDEST SWAP2 POP PUSH2 0x2AB2 DUP3 PUSH2 0x2A4D JUMP JUMPDEST PUSH1 0x40 DUP3 ADD SWAP1 POP SWAP2 SWAP1 POP JUMP JUMPDEST PUSH0 PUSH1 0x20 DUP3 ADD SWAP1 POP DUP2 DUP2 SUB PUSH0 DUP4 ADD MSTORE PUSH2 0x2AD4 DUP2 PUSH2 0x2A9B JUMP JUMPDEST SWAP1 POP SWAP2 SWAP1 POP JUMP JUMPDEST PUSH32 0x416C726561647920636C61696D65640000000000000000000000000000000000 PUSH0 DUP3 ADD MSTORE POP JUMP JUMPDEST PUSH0 PUSH2 0x2B0F PUSH1 0xF DUP4 PUSH2 0x2242 JUMP JUMPDEST SWAP2 POP PUSH2 0x2B1A DUP3 PUSH2 0x2ADB JUMP JUMPDEST PUSH1 0x20 DUP3 ADD SWAP1 POP SWAP2 SWAP1 POP JUMP JUMPDEST PUSH0 PUSH1 0x20 DUP3 ADD SWAP1 POP DUP2 DUP2 SUB PUSH0 DUP4 ADD MSTORE PUSH2 0x2B3C DUP2 PUSH2 0x2B03 JUMP JUMPDEST SWAP1 POP SWAP2 SWAP1 POP JUMP JUMPDEST PUSH32 0x5061757361626C653A2070617573656400000000000000000000000000000000 PUSH0 DUP3 ADD MSTORE POP JUMP JUMPDEST PUSH0 PUSH2 0x2B77 PUSH1 0x10 DUP4 PUSH2 0x2242 JUMP JUMPDEST SWAP2 POP PUSH2 0x2B82 DUP3 PUSH2 0x2B43 JUMP JUMPDEST PUSH1 0x20 DUP3 ADD SWAP1 POP SWAP2 SWAP1 POP JUMP JUMPDEST PUSH0 PUSH1 0x20 DUP3 ADD SWAP1 POP DUP2 DUP2 SUB PUSH0 DUP4 ADD MSTORE PUSH2 0x2BA4 DUP2 PUSH2 0x2B6B JUMP JUMPDEST SWAP1 POP SWAP2 SWAP1 POP JUMP JUMPDEST PUSH0 DUP2 MLOAD SWAP1 POP SWAP2 SWAP1 POP JUMP JUMPDEST PUSH0 DUP3 DUP3 MSTORE PUSH1 0x20 DUP3 ADD SWAP1 POP SWAP3 SWAP2 POP POP JUMP JUMPDEST PUSH0 PUSH2 0x2BCF DUP3 PUSH2 0x2BAB JUMP JUMPDEST PUSH2 0x2BD9 DUP2 DUP6 PUSH2 0x2BB5 JUMP JUMPDEST SWAP4 POP PUSH2 0x2BE9 DUP2 DUP6 PUSH1 0x20 DUP7 ADD PUSH2 0x2252 JUMP JUMPDEST PUSH2 0x2BF2 DUP2 PUSH2 0x2260 JUMP JUMPDEST DUP5 ADD SWAP2 POP POP SWAP3 SWAP2 POP POP JUMP JUMPDEST PUSH0 PUSH1 0x80 DUP3 ADD SWAP1 POP PUSH2 0x2C10 PUSH0 DUP4 ADD DUP8 PUSH2 0x2356 JUMP JUMPDEST PUSH2 0x2C1D PUSH1 0x20 DUP4 ADD DUP7 PUSH2 0x2356 JUMP JUMPDEST PUSH2 0x2C2A PUSH1 0x40 DUP4 ADD DUP6 PUSH2 0x23E6 JUMP JUMPDEST DUP2 DUP2 SUB PUSH1 0x60 DUP4 ADD MSTORE PUSH2 0x2C3C DUP2 DUP5 PUSH2 0x2BC5 JUMP JUMPDEST SWAP1 POP SWAP6 SWAP5 POP POP POP POP POP JUMP JUMPDEST PUSH0 DUP2 MLOAD SWAP1 POP PUSH2 0x2C55 DUP2 PUSH2 0x21B0 JUMP JUMPDEST SWAP3 SWAP2 POP POP JUMP JUMPDEST PUSH0 PUSH1 0x20 DUP3 DUP5 SUB SLT ISZERO PUSH2 0x2C70 JUMPI PUSH2 0x2C6F PUSH2 0x217D JUMP JUMPDEST JUMPDEST PUSH0 PUSH2 0x2C7D DUP5 DUP3 DUP6 ADD PUSH2 0x2C47 JUMP JUMPDEST SWAP2 POP POP SWAP3 SWAP2 POP POP JUMP JUMPDEST PUSH32 0x5265656E7472616E637947756172643A207265656E7472616E742063616C6C00 PUSH0 DUP3 ADD MSTORE POP JUMP JUMPDEST PUSH0 PUSH2 0x2CBA PUSH1 0x1F DUP4 PUSH2 0x2242 JUMP JUMPDEST SWAP2 POP PUSH2 0x2CC5 DUP3 PUSH2 0x2C86 JUMP JUMPDEST PUSH1 0x20 DUP3 ADD SWAP1 POP SWAP2 SWAP1 POP JUMP JUMPDEST PUSH0 PUSH1 0x20 DUP3 ADD SWAP1 POP DUP2 DUP2 SUB PUSH0 DUP4 ADD MSTORE PUSH2 0x2CE7 DUP2 PUSH2 0x2CAE JUMP JUMPDEST SWAP1 POP SWAP2 SWAP1 POP JUMP JUMPDEST PUSH32 0x4E487B7100000000000000000000000000000000000000000000000000000000 PUSH0 MSTORE PUSH1 0x12 PUSH1 0x4 MSTORE PUSH1 0x24 PUSH0 REVERT JUMPDEST PUSH0 PUSH1 0x40 DUP3 ADD SWAP1 POP PUSH2 0x2D2E PUSH0 DUP4 ADD DUP6 PUSH2 0x2356 JUMP JUMPDEST PUSH2 0x2D3B PUSH1 0x20 DUP4 ADD DUP5 PUSH2 0x23E6 JUMP JUMPDEST SWAP4 SWAP3 POP POP POP JUMP JUMPDEST PUSH32 0x5061757361626C653A206E6F7420706175736564000000000000000000000000 PUSH0 DUP3 ADD MSTORE POP JUMP JUMPDEST PUSH0 PUSH2 0x2D76 PUSH1 0x14 DUP4 PUSH2 0x2242 JUMP JUMPDEST SWAP2 POP PUSH2 0x2D81 DUP3 PUSH2 0x2D42 JUMP JUMPDEST PUSH1 0x20 DUP3 ADD SWAP1 POP SWAP2 SWAP1 POP JUMP JUMPDEST PUSH0 PUSH1 0x20 DUP3 ADD SWAP1 POP DUP2 DUP2 SUB PUSH0 DUP4 ADD MSTORE PUSH2 0x2DA3 DUP2 PUSH2 0x2D6A JUMP JUMPDEST SWAP1 POP SWAP2 SWAP1 POP JUMP JUMPDEST PUSH32 0x4E487B7100000000000000000000000000000000000000000000000000000000 PUSH0 MSTORE PUSH1 0x32 PUSH1 0x4 MSTORE PUSH1 0x24 PUSH0 REVERT INVALID LOG2 PUSH5 0x6970667358 0x22 SLT KECCAK256 DUP2 0xB5 DUP15 0xE9 PUSH8 0x72F07FAC46ACEA08 0xD9 PREVRANDAO PUSH8 0x6283056A0387286D 0x28 SWAP15 SWAP15 POP 0xBB 0xAA PC 0xD0 PUSH5 0x736F6C6343 STOP ADDMOD NOT STOP CALLER "
		},
		"gasEstimates": {
			"creation": {
				"codeDepositCost": "2357800",
				"executionCost": "infinite",
				"totalCost": "infinite"
			},
			"external": {
				"SUPPLY_CAPACITY()": "414",
				"approve(address,uint256)": "infinite",
				"balanceOf(address)": "infinite",
				"getApproved(uint256)": "infinite",
				"isApprovedForAll(address,address)": "infinite",
				"merkleRoot()": "2471",
				"mintWithProof(bytes32[])": "infinite",
				"name()": "infinite",
				"normalMint()": "infinite",
				"normalPriceOfNFT()": "2469",
				"owner()": "2560",
				"ownerOf(uint256)": "infinite",
				"paused()": "2518",
				"renounceOwnership()": "infinite",
				"safeTransferFrom(address,address,uint256)": "infinite",
				"safeTransferFrom(address,address,uint256,bytes)": "infinite",
				"setApprovalForAll(address,bool)": "infinite",
				"setMerkleRoot(bytes32)": "infinite",
				"specialPriceOfNFT()": "2493",
				"supportsInterface(bytes4)": "810",
				"symbol()": "infinite",
				"togglePause()": "infinite",
				"tokenURI(uint256)": "infinite",
				"transferFrom(address,address,uint256)": "infinite",
				"transferOwnership(address)": "infinite",
				"updateNormalMintPrice(uint256)": "infinite",
				"updateSpecialMintPrice(uint256)": "infinite",
				"withdrawContractBalance()": "infinite"
			}
		},
		"methodIdentifiers": {
			"SUPPLY_CAPACITY()": "65c8e850",
			"approve(address,uint256)": "095ea7b3",
			"balanceOf(address)": "70a08231",
			"getApproved(uint256)": "081812fc",
			"isApprovedForAll(address,address)": "e985e9c5",
			"merkleRoot()": "2eb4a7ab",
			"mintWithProof(bytes32[])": "d338b03c",
			"name()": "06fdde03",
			"normalMint()": "2abadeca",
			"normalPriceOfNFT()": "ce21270e",
			"owner()": "8da5cb5b",
			"ownerOf(uint256)": "6352211e",
			"paused()": "5c975abb",
			"renounceOwnership()": "715018a6",
			"safeTransferFrom(address,address,uint256)": "42842e0e",
			"safeTransferFrom(address,address,uint256,bytes)": "b88d4fde",
			"setApprovalForAll(address,bool)": "a22cb465",
			"setMerkleRoot(bytes32)": "7cb64759",
			"specialPriceOfNFT()": "0d136016",
			"supportsInterface(bytes4)": "01ffc9a7",
			"symbol()": "95d89b41",
			"togglePause()": "c4ae3168",
			"tokenURI(uint256)": "c87b56dd",
			"transferFrom(address,address,uint256)": "23b872dd",
			"transferOwnership(address)": "f2fde38b",
			"updateNormalMintPrice(uint256)": "3a1f2c8c",
			"updateSpecialMintPrice(uint256)": "8c9ce82d",
			"withdrawContractBalance()": "bfab3db9"
		}
	},
	"abi": [
		{
			"inputs": [
				{
					"internalType": "address",
					"name": "contractOwner",
					"type": "address"
				}
			],
			"stateMutability": "nonpayable",
			"type": "constructor"
		},
		{
			"inputs": [
				{
					"internalType": "address",
					"name": "sender",
					"type": "address"
				},
				{
					"internalType": "uint256",
					"name": "tokenId",
					"type": "uint256"
				},
				{
					"internalType": "address",
					"name": "owner",
					"type": "address"
				}
			],
			"name": "ERC721IncorrectOwner",
			"type": "error"
		},
		{
			"inputs": [
				{
					"internalType": "address",
					"name": "operator",
					"type": "address"
				},
				{
					"internalType": "uint256",
					"name": "tokenId",
					"type": "uint256"
				}
			],
			"name": "ERC721InsufficientApproval",
			"type": "error"
		},
		{
			"inputs": [
				{
					"internalType": "address",
					"name": "approver",
					"type": "address"
				}
			],
			"name": "ERC721InvalidApprover",
			"type": "error"
		},
		{
			"inputs": [
				{
					"internalType": "address",
					"name": "operator",
					"type": "address"
				}
			],
			"name": "ERC721InvalidOperator",
			"type": "error"
		},
		{
			"inputs": [
				{
					"internalType": "address",
					"name": "owner",
					"type": "address"
				}
			],
			"name": "ERC721InvalidOwner",
			"type": "error"
		},
		{
			"inputs": [
				{
					"internalType": "address",
					"name": "receiver",
					"type": "address"
				}
			],
			"name": "ERC721InvalidReceiver",
			"type": "error"
		},
		{
			"inputs": [
				{
					"internalType": "address",
					"name": "sender",
					"type": "address"
				}
			],
			"name": "ERC721InvalidSender",
			"type": "error"
		},
		{
			"inputs": [
				{
					"internalType": "uint256",
					"name": "tokenId",
					"type": "uint256"
				}
			],
			"name": "ERC721NonexistentToken",
			"type": "error"
		},
		{
			"inputs": [
				{
					"internalType": "address",
					"name": "owner",
					"type": "address"
				}
			],
			"name": "OwnableInvalidOwner",
			"type": "error"
		},
		{
			"inputs": [
				{
					"internalType": "address",
					"name": "account",
					"type": "address"
				}
			],
			"name": "OwnableUnauthorizedAccount",
			"type": "error"
		},
		{
			"anonymous": false,
			"inputs": [
				{
					"indexed": true,
					"internalType": "address",
					"name": "owner",
					"type": "address"
				},
				{
					"indexed": true,
					"internalType": "address",
					"name": "approved",
					"type": "address"
				},
				{
					"indexed": true,
					"internalType": "uint256",
					"name": "tokenId",
					"type": "uint256"
				}
			],
			"name": "Approval",
			"type": "event"
		},
		{
			"anonymous": false,
			"inputs": [
				{
					"indexed": true,
					"internalType": "address",
					"name": "owner",
					"type": "address"
				},
				{
					"indexed": true,
					"internalType": "address",
					"name": "operator",
					"type": "address"
				},
				{
					"indexed": false,
					"internalType": "bool",
					"name": "approved",
					"type": "bool"
				}
			],
			"name": "ApprovalForAll",
			"type": "event"
		},
		{
			"anonymous": false,
			"inputs": [
				{
					"indexed": true,
					"internalType": "address",
					"name": "previousOwner",
					"type": "address"
				},
				{
					"indexed": true,
					"internalType": "address",
					"name": "newOwner",
					"type": "address"
				}
			],
			"name": "OwnershipTransferred",
			"type": "event"
		},
		{
			"anonymous": false,
			"inputs": [
				{
					"indexed": false,
					"internalType": "address",
					"name": "account",
					"type": "address"
				}
			],
			"name": "Paused",
			"type": "event"
		},
		{
			"anonymous": false,
			"inputs": [
				{
					"indexed": true,
					"internalType": "address",
					"name": "from",
					"type": "address"
				},
				{
					"indexed": true,
					"internalType": "address",
					"name": "to",
					"type": "address"
				},
				{
					"indexed": true,
					"internalType": "uint256",
					"name": "tokenId",
					"type": "uint256"
				}
			],
			"name": "Transfer",
			"type": "event"
		},
		{
			"anonymous": false,
			"inputs": [
				{
					"indexed": false,
					"internalType": "address",
					"name": "account",
					"type": "address"
				}
			],
			"name": "Unpaused",
			"type": "event"
		},
		{
			"inputs": [],
			"name": "SUPPLY_CAPACITY",
			"outputs": [
				{
					"internalType": "uint256",
					"name": "",
					"type": "uint256"
				}
			],
			"stateMutability": "view",
			"type": "function"
		},
		{
			"inputs": [
				{
					"internalType": "address",
					"name": "to",
					"type": "address"
				},
				{
					"internalType": "uint256",
					"name": "tokenId",
					"type": "uint256"
				}
			],
			"name": "approve",
			"outputs": [],
			"stateMutability": "nonpayable",
			"type": "function"
		},
		{
			"inputs": [
				{
					"internalType": "address",
					"name": "owner",
					"type": "address"
				}
			],
			"name": "balanceOf",
			"outputs": [
				{
					"internalType": "uint256",
					"name": "",
					"type": "uint256"
				}
			],
			"stateMutability": "view",
			"type": "function"
		},
		{
			"inputs": [
				{
					"internalType": "uint256",
					"name": "tokenId",
					"type": "uint256"
				}
			],
			"name": "getApproved",
			"outputs": [
				{
					"internalType": "address",
					"name": "",
					"type": "address"
				}
			],
			"stateMutability": "view",
			"type": "function"
		},
		{
			"inputs": [
				{
					"internalType": "address",
					"name": "owner",
					"type": "address"
				},
				{
					"internalType": "address",
					"name": "operator",
					"type": "address"
				}
			],
			"name": "isApprovedForAll",
			"outputs": [
				{
					"internalType": "bool",
					"name": "",
					"type": "bool"
				}
			],
			"stateMutability": "view",
			"type": "function"
		},
		{
			"inputs": [],
			"name": "merkleRoot",
			"outputs": [
				{
					"internalType": "bytes32",
					"name": "",
					"type": "bytes32"
				}
			],
			"stateMutability": "view",
			"type": "function"
		},
		{
			"inputs": [
				{
					"internalType": "bytes32[]",
					"name": "proof",
					"type": "bytes32[]"
				}
			],
			"name": "mintWithProof",
			"outputs": [],
			"stateMutability": "payable",
			"type": "function"
		},
		{
			"inputs": [],
			"name": "name",
			"outputs": [
				{
					"internalType": "string",
					"name": "",
					"type": "string"
				}
			],
			"stateMutability": "view",
			"type": "function"
		},
		{
			"inputs": [],
			"name": "normalMint",
			"outputs": [],
			"stateMutability": "payable",
			"type": "function"
		},
		{
			"inputs": [],
			"name": "normalPriceOfNFT",
			"outputs": [
				{
					"internalType": "uint256",
					"name": "",
					"type": "uint256"
				}
			],
			"stateMutability": "view",
			"type": "function"
		},
		{
			"inputs": [],
			"name": "owner",
			"outputs": [
				{
					"internalType": "address",
					"name": "",
					"type": "address"
				}
			],
			"stateMutability": "view",
			"type": "function"
		},
		{
			"inputs": [
				{
					"internalType": "uint256",
					"name": "tokenId",
					"type": "uint256"
				}
			],
			"name": "ownerOf",
			"outputs": [
				{
					"internalType": "address",
					"name": "",
					"type": "address"
				}
			],
			"stateMutability": "view",
			"type": "function"
		},
		{
			"inputs": [],
			"name": "paused",
			"outputs": [
				{
					"internalType": "bool",
					"name": "",
					"type": "bool"
				}
			],
			"stateMutability": "view",
			"type": "function"
		},
		{
			"inputs": [],
			"name": "renounceOwnership",
			"outputs": [],
			"stateMutability": "nonpayable",
			"type": "function"
		},
		{
			"inputs": [
				{
					"internalType": "address",
					"name": "from",
					"type": "address"
				},
				{
					"internalType": "address",
					"name": "to",
					"type": "address"
				},
				{
					"internalType": "uint256",
					"name": "tokenId",
					"type": "uint256"
				}
			],
			"name": "safeTransferFrom",
			"outputs": [],
			"stateMutability": "nonpayable",
			"type": "function"
		},
		{
			"inputs": [
				{
					"internalType": "address",
					"name": "from",
					"type": "address"
				},
				{
					"internalType": "address",
					"name": "to",
					"type": "address"
				},
				{
					"internalType": "uint256",
					"name": "tokenId",
					"type": "uint256"
				},
				{
					"internalType": "bytes",
					"name": "data",
					"type": "bytes"
				}
			],
			"name": "safeTransferFrom",
			"outputs": [],
			"stateMutability": "nonpayable",
			"type": "function"
		},
		{
			"inputs": [
				{
					"internalType": "address",
					"name": "operator",
					"type": "address"
				},
				{
					"internalType": "bool",
					"name": "approved",
					"type": "bool"
				}
			],
			"name": "setApprovalForAll",
			"outputs": [],
			"stateMutability": "nonpayable",
			"type": "function"
		},
		{
			"inputs": [
				{
					"internalType": "bytes32",
					"name": "_root",
					"type": "bytes32"
				}
			],
			"name": "setMerkleRoot",
			"outputs": [],
			"stateMutability": "nonpayable",
			"type": "function"
		},
		{
			"inputs": [],
			"name": "specialPriceOfNFT",
			"outputs": [
				{
					"internalType": "uint256",
					"name": "",
					"type": "uint256"
				}
			],
			"stateMutability": "view",
			"type": "function"
		},
		{
			"inputs": [
				{
					"internalType": "bytes4",
					"name": "interfaceId",
					"type": "bytes4"
				}
			],
			"name": "supportsInterface",
			"outputs": [
				{
					"internalType": "bool",
					"name": "",
					"type": "bool"
				}
			],
			"stateMutability": "view",
			"type": "function"
		},
		{
			"inputs": [],
			"name": "symbol",
			"outputs": [
				{
					"internalType": "string",
					"name": "",
					"type": "string"
				}
			],
			"stateMutability": "view",
			"type": "function"
		},
		{
			"inputs": [],
			"name": "togglePause",
			"outputs": [],
			"stateMutability": "nonpayable",
			"type": "function"
		},
		{
			"inputs": [
				{
					"internalType": "uint256",
					"name": "tokenId",
					"type": "uint256"
				}
			],
			"name": "tokenURI",
			"outputs": [
				{
					"internalType": "string",
					"name": "",
					"type": "string"
				}
			],
			"stateMutability": "view",
			"type": "function"
		},
		{
			"inputs": [
				{
					"internalType": "address",
					"name": "from",
					"type": "address"
				},
				{
					"internalType": "address",
					"name": "to",
					"type": "address"
				},
				{
					"internalType": "uint256",
					"name": "tokenId",
					"type": "uint256"
				}
			],
			"name": "transferFrom",
			"outputs": [],
			"stateMutability": "nonpayable",
			"type": "function"
		},
		{
			"inputs": [
				{
					"internalType": "address",
					"name": "newOwner",
					"type": "address"
				}
			],
			"name": "transferOwnership",
			"outputs": [],
			"stateMutability": "nonpayable",
			"type": "function"
		},
		{
			"inputs": [
				{
					"internalType": "uint256",
					"name": "_newPrice",
					"type": "uint256"
				}
			],
			"name": "updateNormalMintPrice",
			"outputs": [],
			"stateMutability": "nonpayable",
			"type": "function"
		},
		{
			"inputs": [
				{
					"internalType": "uint256",
					"name": "_newPrice",
					"type": "uint256"
				}
			],
			"name": "updateSpecialMintPrice",
			"outputs": [],
			"stateMutability": "nonpayable",
			"type": "function"
		},
		{
			"inputs": [],
			"name": "withdrawContractBalance",
			"outputs": [],
			"stateMutability": "nonpayable",
			"type": "function"
		}
	]
}